{
	"contracts/MagicTickets/MagicTicketsNFT.sol": {
		"MagicNFT": {
			"abi": [
				{
					"inputs": [],
					"stateMutability": "nonpayable",
					"type": "constructor"
				},
				{
					"anonymous": false,
					"inputs": [
						{
							"indexed": true,
							"internalType": "uint256",
							"name": "raffleID",
							"type": "uint256"
						},
						{
							"indexed": true,
							"internalType": "uint256",
							"name": "quantity",
							"type": "uint256"
						},
						{
							"indexed": true,
							"internalType": "address",
							"name": "buyer",
							"type": "address"
						}
					],
					"name": "boughtTickets",
					"type": "event"
				},
				{
					"anonymous": false,
					"inputs": [
						{
							"indexed": true,
							"internalType": "uint256",
							"name": "raffleID",
							"type": "uint256"
						}
					],
					"name": "canceledRaffle",
					"type": "event"
				},
				{
					"anonymous": false,
					"inputs": [
						{
							"indexed": true,
							"internalType": "uint256",
							"name": "raffleID",
							"type": "uint256"
						},
						{
							"indexed": true,
							"internalType": "address",
							"name": "seller",
							"type": "address"
						}
					],
					"name": "createdRaffle",
					"type": "event"
				},
				{
					"anonymous": false,
					"inputs": [
						{
							"indexed": true,
							"internalType": "uint256",
							"name": "raffleID",
							"type": "uint256"
						},
						{
							"indexed": true,
							"internalType": "address",
							"name": "winner",
							"type": "address"
						}
					],
					"name": "drawWinner",
					"type": "event"
				},
				{
					"inputs": [
						{
							"internalType": "uint256",
							"name": "_qtd",
							"type": "uint256"
						},
						{
							"internalType": "uint256",
							"name": "_id",
							"type": "uint256"
						},
						{
							"internalType": "address",
							"name": "_buyer",
							"type": "address"
						}
					],
					"name": "buyTickets",
					"outputs": [],
					"stateMutability": "nonpayable",
					"type": "function"
				},
				{
					"inputs": [
						{
							"internalType": "uint256",
							"name": "_id",
							"type": "uint256"
						}
					],
					"name": "cancelRaffle",
					"outputs": [],
					"stateMutability": "nonpayable",
					"type": "function"
				},
				{
					"inputs": [
						{
							"internalType": "uint256",
							"name": "_maxEntries",
							"type": "uint256"
						},
						{
							"internalType": "uint256",
							"name": "_minTickets",
							"type": "uint256"
						},
						{
							"internalType": "address",
							"name": "_tokenContract",
							"type": "address"
						},
						{
							"internalType": "uint256",
							"name": "_tokenID",
							"type": "uint256"
						},
						{
							"internalType": "uint256",
							"name": "_ticketValue",
							"type": "uint256"
						},
						{
							"internalType": "address",
							"name": "_tokenReceived",
							"type": "address"
						}
					],
					"name": "createRaffle",
					"outputs": [
						{
							"internalType": "uint256",
							"name": "",
							"type": "uint256"
						}
					],
					"stateMutability": "nonpayable",
					"type": "function"
				},
				{
					"inputs": [
						{
							"internalType": "uint256",
							"name": "_id",
							"type": "uint256"
						}
					],
					"name": "devolution",
					"outputs": [],
					"stateMutability": "nonpayable",
					"type": "function"
				},
				{
					"inputs": [
						{
							"internalType": "uint256",
							"name": "",
							"type": "uint256"
						},
						{
							"internalType": "uint256",
							"name": "",
							"type": "uint256"
						}
					],
					"name": "entries",
					"outputs": [
						{
							"internalType": "address",
							"name": "player",
							"type": "address"
						}
					],
					"stateMutability": "view",
					"type": "function"
				},
				{
					"inputs": [
						{
							"internalType": "uint256",
							"name": "_id",
							"type": "uint256"
						}
					],
					"name": "getQtdDisponivel",
					"outputs": [
						{
							"internalType": "uint256",
							"name": "",
							"type": "uint256"
						}
					],
					"stateMutability": "view",
					"type": "function"
				},
				{
					"inputs": [],
					"name": "owner",
					"outputs": [
						{
							"internalType": "address",
							"name": "",
							"type": "address"
						}
					],
					"stateMutability": "view",
					"type": "function"
				},
				{
					"inputs": [
						{
							"internalType": "uint256",
							"name": "",
							"type": "uint256"
						}
					],
					"name": "raffles",
					"outputs": [
						{
							"internalType": "enum MagicNFT.STATUS",
							"name": "status",
							"type": "uint8"
						},
						{
							"internalType": "uint256",
							"name": "maxEntries",
							"type": "uint256"
						},
						{
							"internalType": "uint256",
							"name": "minTickets",
							"type": "uint256"
						},
						{
							"internalType": "uint256",
							"name": "amountRaised",
							"type": "uint256"
						},
						{
							"internalType": "uint256",
							"name": "qtdAvailable",
							"type": "uint256"
						},
						{
							"internalType": "uint256",
							"name": "sitePercentage",
							"type": "uint256"
						},
						{
							"internalType": "uint256",
							"name": "ticketValue",
							"type": "uint256"
						},
						{
							"internalType": "address",
							"name": "tokenReceived",
							"type": "address"
						},
						{
							"internalType": "uint256",
							"name": "tokenNFT",
							"type": "uint256"
						},
						{
							"internalType": "address",
							"name": "tokenContract",
							"type": "address"
						},
						{
							"internalType": "address",
							"name": "seller",
							"type": "address"
						},
						{
							"internalType": "address",
							"name": "winner",
							"type": "address"
						}
					],
					"stateMutability": "view",
					"type": "function"
				},
				{
					"inputs": [
						{
							"internalType": "uint256",
							"name": "_id",
							"type": "uint256"
						},
						{
							"internalType": "string",
							"name": "seed",
							"type": "string"
						}
					],
					"name": "sortearWinner",
					"outputs": [],
					"stateMutability": "nonpayable",
					"type": "function"
				}
			],
			"devdoc": {
				"kind": "dev",
				"methods": {},
				"version": 1
			},
			"evm": {
				"assembly": "    /* \"contracts/MagicTickets/MagicTicketsNFT.sol\":1102:7027  contract MagicNFT {... */\n  mstore(0x40, 0x80)\n    /* \"contracts/MagicTickets/MagicTicketsNFT.sol\":1158:1209  constructor (){... */\n  callvalue\n  dup1\n  iszero\n  tag_1\n  jumpi\n  0x00\n  dup1\n  revert\ntag_1:\n  pop\n    /* \"contracts/MagicTickets/MagicTicketsNFT.sol\":1191:1201  msg.sender */\n  caller\n    /* \"contracts/MagicTickets/MagicTicketsNFT.sol\":1183:1188  owner */\n  0x00\n  dup1\n    /* \"contracts/MagicTickets/MagicTicketsNFT.sol\":1183:1201  owner = msg.sender */\n  0x0100\n  exp\n  dup2\n  sload\n  dup2\n  0xffffffffffffffffffffffffffffffffffffffff\n  mul\n  not\n  and\n  swap1\n  dup4\n  0xffffffffffffffffffffffffffffffffffffffff\n  and\n  mul\n  or\n  swap1\n  sstore\n  pop\n    /* \"contracts/MagicTickets/MagicTicketsNFT.sol\":1102:7027  contract MagicNFT {... */\n  dataSize(sub_0)\n  dup1\n  dataOffset(sub_0)\n  0x00\n  codecopy\n  0x00\n  return\nstop\n\nsub_0: assembly {\n        /* \"contracts/MagicTickets/MagicTicketsNFT.sol\":1102:7027  contract MagicNFT {... */\n      mstore(0x40, 0x80)\n      callvalue\n      dup1\n      iszero\n      tag_1\n      jumpi\n      0x00\n      dup1\n      revert\n    tag_1:\n      pop\n      jumpi(tag_2, lt(calldatasize, 0x04))\n      shr(0xe0, calldataload(0x00))\n      dup1\n      0x5fba3171\n      gt\n      tag_12\n      jumpi\n      dup1\n      0x5fba3171\n      eq\n      tag_7\n      jumpi\n      dup1\n      0x66a76642\n      eq\n      tag_8\n      jumpi\n      dup1\n      0x8da5cb5b\n      eq\n      tag_9\n      jumpi\n      dup1\n      0xa792813c\n      eq\n      tag_10\n      jumpi\n      dup1\n      0xf6ce4bc5\n      eq\n      tag_11\n      jumpi\n      jump(tag_2)\n    tag_12:\n      dup1\n      0x0b0cfcd4\n      eq\n      tag_3\n      jumpi\n      dup1\n      0x17b937e6\n      eq\n      tag_4\n      jumpi\n      dup1\n      0x5a9365e4\n      eq\n      tag_5\n      jumpi\n      dup1\n      0x5d4bc0ce\n      eq\n      tag_6\n      jumpi\n    tag_2:\n      0x00\n      dup1\n      revert\n        /* \"contracts/MagicTickets/MagicTicketsNFT.sol\":4498:4610  function getQtdDisponivel(uint _id) public view returns(uint){... */\n    tag_3:\n      tag_13\n      0x04\n      dup1\n      calldatasize\n      sub\n      dup2\n      add\n      swap1\n      tag_14\n      swap2\n      swap1\n      tag_15\n      jump\t// in\n    tag_14:\n      tag_16\n      jump\t// in\n    tag_13:\n      mload(0x40)\n      tag_17\n      swap2\n      swap1\n      tag_18\n      jump\t// in\n    tag_17:\n      mload(0x40)\n      dup1\n      swap2\n      sub\n      swap1\n      return\n        /* \"contracts/MagicTickets/MagicTicketsNFT.sol\":2040:2079  mapping(uint => Entry[]) public entries */\n    tag_4:\n      tag_19\n      0x04\n      dup1\n      calldatasize\n      sub\n      dup2\n      add\n      swap1\n      tag_20\n      swap2\n      swap1\n      tag_21\n      jump\t// in\n    tag_20:\n      tag_22\n      jump\t// in\n    tag_19:\n      mload(0x40)\n      tag_23\n      swap2\n      swap1\n      tag_24\n      jump\t// in\n    tag_23:\n      mload(0x40)\n      dup1\n      swap2\n      sub\n      swap1\n      return\n        /* \"contracts/MagicTickets/MagicTicketsNFT.sol\":5816:6528  function sortearWinner(uint _id, string calldata seed) public {... */\n    tag_5:\n      tag_25\n      0x04\n      dup1\n      calldatasize\n      sub\n      dup2\n      add\n      swap1\n      tag_26\n      swap2\n      swap1\n      tag_27\n      jump\t// in\n    tag_26:\n      tag_28\n      jump\t// in\n    tag_25:\n      stop\n        /* \"contracts/MagicTickets/MagicTicketsNFT.sol\":1948:1977  RaffleStruct[] public raffles */\n    tag_6:\n      tag_29\n      0x04\n      dup1\n      calldatasize\n      sub\n      dup2\n      add\n      swap1\n      tag_30\n      swap2\n      swap1\n      tag_15\n      jump\t// in\n    tag_30:\n      tag_31\n      jump\t// in\n    tag_29:\n      mload(0x40)\n      tag_32\n      swap13\n      swap12\n      swap11\n      swap10\n      swap9\n      swap8\n      swap7\n      swap6\n      swap5\n      swap4\n      swap3\n      swap2\n      swap1\n      tag_33\n      jump\t// in\n    tag_32:\n      mload(0x40)\n      dup1\n      swap2\n      sub\n      swap1\n      return\n        /* \"contracts/MagicTickets/MagicTicketsNFT.sol\":4618:5235  function cancelRaffle(uint _id) public {... */\n    tag_7:\n      tag_34\n      0x04\n      dup1\n      calldatasize\n      sub\n      dup2\n      add\n      swap1\n      tag_35\n      swap2\n      swap1\n      tag_15\n      jump\t// in\n    tag_35:\n      tag_36\n      jump\t// in\n    tag_34:\n      stop\n        /* \"contracts/MagicTickets/MagicTicketsNFT.sol\":2291:3702  function createRaffle(uint _maxEntries, uint _minTickets, ... */\n    tag_8:\n      tag_37\n      0x04\n      dup1\n      calldatasize\n      sub\n      dup2\n      add\n      swap1\n      tag_38\n      swap2\n      swap1\n      tag_39\n      jump\t// in\n    tag_38:\n      tag_40\n      jump\t// in\n    tag_37:\n      mload(0x40)\n      tag_41\n      swap2\n      swap1\n      tag_18\n      jump\t// in\n    tag_41:\n      mload(0x40)\n      dup1\n      swap2\n      sub\n      swap1\n      return\n        /* \"contracts/MagicTickets/MagicTicketsNFT.sol\":1129:1149  address public owner */\n    tag_9:\n      tag_42\n      tag_43\n      jump\t// in\n    tag_42:\n      mload(0x40)\n      tag_44\n      swap2\n      swap1\n      tag_24\n      jump\t// in\n    tag_44:\n      mload(0x40)\n      dup1\n      swap2\n      sub\n      swap1\n      return\n        /* \"contracts/MagicTickets/MagicTicketsNFT.sol\":3711:4490  function buyTickets(uint _qtd, uint _id, address _buyer) public {... */\n    tag_10:\n      tag_45\n      0x04\n      dup1\n      calldatasize\n      sub\n      dup2\n      add\n      swap1\n      tag_46\n      swap2\n      swap1\n      tag_47\n      jump\t// in\n    tag_46:\n      tag_48\n      jump\t// in\n    tag_45:\n      stop\n        /* \"contracts/MagicTickets/MagicTicketsNFT.sol\":5243:5596  function devolution(uint _id) public{... */\n    tag_11:\n      tag_49\n      0x04\n      dup1\n      calldatasize\n      sub\n      dup2\n      add\n      swap1\n      tag_50\n      swap2\n      swap1\n      tag_15\n      jump\t// in\n    tag_50:\n      tag_51\n      jump\t// in\n    tag_49:\n      stop\n        /* \"contracts/MagicTickets/MagicTicketsNFT.sol\":4498:4610  function getQtdDisponivel(uint _id) public view returns(uint){... */\n    tag_16:\n        /* \"contracts/MagicTickets/MagicTicketsNFT.sol\":4554:4558  uint */\n      0x00\n        /* \"contracts/MagicTickets/MagicTicketsNFT.sol\":4577:4584  raffles */\n      0x01\n        /* \"contracts/MagicTickets/MagicTicketsNFT.sol\":4585:4588  _id */\n      dup3\n        /* \"contracts/MagicTickets/MagicTicketsNFT.sol\":4577:4589  raffles[_id] */\n      dup2\n      sload\n      dup2\n      lt\n      tag_53\n      jumpi\n      tag_54\n      tag_55\n      jump\t// in\n    tag_54:\n    tag_53:\n      swap1\n      0x00\n      mstore\n      keccak256(0x00, 0x20)\n      swap1\n      0x0c\n      mul\n      add\n        /* \"contracts/MagicTickets/MagicTicketsNFT.sol\":4577:4602  raffles[_id].qtdAvailable */\n      0x04\n      add\n      sload\n        /* \"contracts/MagicTickets/MagicTicketsNFT.sol\":4570:4602  return raffles[_id].qtdAvailable */\n      swap1\n      pop\n        /* \"contracts/MagicTickets/MagicTicketsNFT.sol\":4498:4610  function getQtdDisponivel(uint _id) public view returns(uint){... */\n      swap2\n      swap1\n      pop\n      jump\t// out\n        /* \"contracts/MagicTickets/MagicTicketsNFT.sol\":2040:2079  mapping(uint => Entry[]) public entries */\n    tag_22:\n      mstore(0x20, 0x02)\n      dup2\n      0x00\n      mstore\n      keccak256(0x00, 0x40)\n      dup2\n      dup2\n      sload\n      dup2\n      lt\n      tag_57\n      jumpi\n      0x00\n      dup1\n      revert\n    tag_57:\n      swap1\n      0x00\n      mstore\n      keccak256(0x00, 0x20)\n      add\n      0x00\n      swap2\n      pop\n      swap2\n      pop\n      pop\n      dup1\n      0x00\n      add\n      0x00\n      swap1\n      sload\n      swap1\n      0x0100\n      exp\n      swap1\n      div\n      0xffffffffffffffffffffffffffffffffffffffff\n      and\n      swap1\n      pop\n      dup2\n      jump\t// out\n        /* \"contracts/MagicTickets/MagicTicketsNFT.sol\":5816:6528  function sortearWinner(uint _id, string calldata seed) public {... */\n    tag_28:\n        /* \"contracts/MagicTickets/MagicTicketsNFT.sol\":5911:5916  owner */\n      0x00\n      dup1\n      sload\n      swap1\n      0x0100\n      exp\n      swap1\n      div\n      0xffffffffffffffffffffffffffffffffffffffff\n      and\n        /* \"contracts/MagicTickets/MagicTicketsNFT.sol\":5897:5916  msg.sender == owner */\n      0xffffffffffffffffffffffffffffffffffffffff\n      and\n        /* \"contracts/MagicTickets/MagicTicketsNFT.sol\":5897:5907  msg.sender */\n      caller\n        /* \"contracts/MagicTickets/MagicTicketsNFT.sol\":5897:5916  msg.sender == owner */\n      0xffffffffffffffffffffffffffffffffffffffff\n      and\n      eq\n        /* \"contracts/MagicTickets/MagicTicketsNFT.sol\":5889:5972  require(msg.sender == owner, \"Apenas o owner pode realizar a chamada dessa funcao\") */\n      tag_60\n      jumpi\n      mload(0x40)\n      0x08c379a000000000000000000000000000000000000000000000000000000000\n      dup2\n      mstore\n      0x04\n      add\n      tag_61\n      swap1\n      tag_62\n      jump\t// in\n    tag_61:\n      mload(0x40)\n      dup1\n      swap2\n      sub\n      swap1\n      revert\n    tag_60:\n        /* \"contracts/MagicTickets/MagicTicketsNFT.sol\":5985:6012  RaffleStruct storage raffle */\n      0x00\n        /* \"contracts/MagicTickets/MagicTicketsNFT.sol\":6015:6022  raffles */\n      0x01\n        /* \"contracts/MagicTickets/MagicTicketsNFT.sol\":6023:6026  _id */\n      dup5\n        /* \"contracts/MagicTickets/MagicTicketsNFT.sol\":6015:6027  raffles[_id] */\n      dup2\n      sload\n      dup2\n      lt\n      tag_63\n      jumpi\n      tag_64\n      tag_55\n      jump\t// in\n    tag_64:\n    tag_63:\n      swap1\n      0x00\n      mstore\n      keccak256(0x00, 0x20)\n      swap1\n      0x0c\n      mul\n      add\n        /* \"contracts/MagicTickets/MagicTicketsNFT.sol\":5985:6027  RaffleStruct storage raffle = raffles[_id] */\n      swap1\n      pop\n        /* \"contracts/MagicTickets/MagicTicketsNFT.sol\":6065:6077  STATUS.ENDED */\n      0x01\n        /* \"contracts/MagicTickets/MagicTicketsNFT.sol\":6048:6077  raffle.status != STATUS.ENDED */\n      0x02\n      dup2\n      gt\n      iszero\n      tag_66\n      jumpi\n      tag_67\n      tag_68\n      jump\t// in\n    tag_67:\n    tag_66:\n        /* \"contracts/MagicTickets/MagicTicketsNFT.sol\":6048:6054  raffle */\n      dup2\n        /* \"contracts/MagicTickets/MagicTicketsNFT.sol\":6048:6061  raffle.status */\n      0x00\n      add\n      0x00\n      swap1\n      sload\n      swap1\n      0x0100\n      exp\n      swap1\n      div\n      0xff\n      and\n        /* \"contracts/MagicTickets/MagicTicketsNFT.sol\":6048:6077  raffle.status != STATUS.ENDED */\n      0x02\n      dup2\n      gt\n      iszero\n      tag_69\n      jumpi\n      tag_70\n      tag_68\n      jump\t// in\n    tag_70:\n    tag_69:\n      eq\n      iszero\n        /* \"contracts/MagicTickets/MagicTicketsNFT.sol\":6048:6113  raffle.status != STATUS.ENDED && raffle.status != STATUS.CANCELED */\n      dup1\n      iszero\n      tag_71\n      jumpi\n      pop\n        /* \"contracts/MagicTickets/MagicTicketsNFT.sol\":6098:6113  STATUS.CANCELED */\n      0x02\n        /* \"contracts/MagicTickets/MagicTicketsNFT.sol\":6081:6113  raffle.status != STATUS.CANCELED */\n      dup1\n      dup2\n      gt\n      iszero\n      tag_72\n      jumpi\n      tag_73\n      tag_68\n      jump\t// in\n    tag_73:\n    tag_72:\n        /* \"contracts/MagicTickets/MagicTicketsNFT.sol\":6081:6087  raffle */\n      dup2\n        /* \"contracts/MagicTickets/MagicTicketsNFT.sol\":6081:6094  raffle.status */\n      0x00\n      add\n      0x00\n      swap1\n      sload\n      swap1\n      0x0100\n      exp\n      swap1\n      div\n      0xff\n      and\n        /* \"contracts/MagicTickets/MagicTicketsNFT.sol\":6081:6113  raffle.status != STATUS.CANCELED */\n      0x02\n      dup2\n      gt\n      iszero\n      tag_74\n      jumpi\n      tag_75\n      tag_68\n      jump\t// in\n    tag_75:\n    tag_74:\n      eq\n      iszero\n        /* \"contracts/MagicTickets/MagicTicketsNFT.sol\":6048:6113  raffle.status != STATUS.ENDED && raffle.status != STATUS.CANCELED */\n    tag_71:\n        /* \"contracts/MagicTickets/MagicTicketsNFT.sol\":6040:6144  require(raffle.status != STATUS.ENDED && raffle.status != STATUS.CANCELED, \"O Raffle ja foi finalizado\") */\n      tag_76\n      jumpi\n      mload(0x40)\n      0x08c379a000000000000000000000000000000000000000000000000000000000\n      dup2\n      mstore\n      0x04\n      add\n      tag_77\n      swap1\n      tag_78\n      jump\t// in\n    tag_77:\n      mload(0x40)\n      dup1\n      swap2\n      sub\n      swap1\n      revert\n    tag_76:\n        /* \"contracts/MagicTickets/MagicTicketsNFT.sol\":6186:6192  raffle */\n      dup1\n        /* \"contracts/MagicTickets/MagicTicketsNFT.sol\":6186:6203  raffle.minTickets */\n      0x02\n      add\n      sload\n        /* \"contracts/MagicTickets/MagicTicketsNFT.sol\":6163:6170  entries */\n      0x02\n        /* \"contracts/MagicTickets/MagicTicketsNFT.sol\":6163:6175  entries[_id] */\n      0x00\n        /* \"contracts/MagicTickets/MagicTicketsNFT.sol\":6171:6174  _id */\n      dup7\n        /* \"contracts/MagicTickets/MagicTicketsNFT.sol\":6163:6175  entries[_id] */\n      dup2\n      mstore\n      0x20\n      add\n      swap1\n      dup2\n      mstore\n      0x20\n      add\n      0x00\n      keccak256\n        /* \"contracts/MagicTickets/MagicTicketsNFT.sol\":6163:6182  entries[_id].length */\n      dup1\n      sload\n      swap1\n      pop\n        /* \"contracts/MagicTickets/MagicTicketsNFT.sol\":6163:6203  entries[_id].length >= raffle.minTickets */\n      lt\n      iszero\n        /* \"contracts/MagicTickets/MagicTicketsNFT.sol\":6155:6243  require(entries[_id].length >= raffle.minTickets, \"Quantidade de tickets insuficientes\") */\n      tag_79\n      jumpi\n      mload(0x40)\n      0x08c379a000000000000000000000000000000000000000000000000000000000\n      dup2\n      mstore\n      0x04\n      add\n      tag_80\n      swap1\n      tag_81\n      jump\t// in\n    tag_80:\n      mload(0x40)\n      dup1\n      swap2\n      sub\n      swap1\n      revert\n    tag_79:\n        /* \"contracts/MagicTickets/MagicTicketsNFT.sol\":6256:6266  uint valor */\n      0x00\n        /* \"contracts/MagicTickets/MagicTicketsNFT.sol\":6269:6311  gerarNumero(seed, entries[_id].length - 1) */\n      tag_82\n        /* \"contracts/MagicTickets/MagicTicketsNFT.sol\":6281:6285  seed */\n      dup5\n      dup5\n        /* \"contracts/MagicTickets/MagicTicketsNFT.sol\":6309:6310  1 */\n      0x01\n        /* \"contracts/MagicTickets/MagicTicketsNFT.sol\":6287:6294  entries */\n      0x02\n        /* \"contracts/MagicTickets/MagicTicketsNFT.sol\":6287:6299  entries[_id] */\n      0x00\n        /* \"contracts/MagicTickets/MagicTicketsNFT.sol\":6295:6298  _id */\n      dup11\n        /* \"contracts/MagicTickets/MagicTicketsNFT.sol\":6287:6299  entries[_id] */\n      dup2\n      mstore\n      0x20\n      add\n      swap1\n      dup2\n      mstore\n      0x20\n      add\n      0x00\n      keccak256\n        /* \"contracts/MagicTickets/MagicTicketsNFT.sol\":6287:6306  entries[_id].length */\n      dup1\n      sload\n      swap1\n      pop\n        /* \"contracts/MagicTickets/MagicTicketsNFT.sol\":6287:6310  entries[_id].length - 1 */\n      tag_83\n      swap2\n      swap1\n      tag_84\n      jump\t// in\n    tag_83:\n        /* \"contracts/MagicTickets/MagicTicketsNFT.sol\":6269:6280  gerarNumero */\n      tag_85\n        /* \"contracts/MagicTickets/MagicTicketsNFT.sol\":6269:6311  gerarNumero(seed, entries[_id].length - 1) */\n      jump\t// in\n    tag_82:\n        /* \"contracts/MagicTickets/MagicTicketsNFT.sol\":6256:6311  uint valor = gerarNumero(seed, entries[_id].length - 1) */\n      swap1\n      pop\n        /* \"contracts/MagicTickets/MagicTicketsNFT.sol\":6322:6336  address wallet */\n      0x00\n        /* \"contracts/MagicTickets/MagicTicketsNFT.sol\":6339:6346  entries */\n      0x02\n        /* \"contracts/MagicTickets/MagicTicketsNFT.sol\":6339:6351  entries[_id] */\n      0x00\n        /* \"contracts/MagicTickets/MagicTicketsNFT.sol\":6347:6350  _id */\n      dup8\n        /* \"contracts/MagicTickets/MagicTicketsNFT.sol\":6339:6351  entries[_id] */\n      dup2\n      mstore\n      0x20\n      add\n      swap1\n      dup2\n      mstore\n      0x20\n      add\n      0x00\n      keccak256\n        /* \"contracts/MagicTickets/MagicTicketsNFT.sol\":6352:6357  valor */\n      dup3\n        /* \"contracts/MagicTickets/MagicTicketsNFT.sol\":6339:6358  entries[_id][valor] */\n      dup2\n      sload\n      dup2\n      lt\n      tag_86\n      jumpi\n      tag_87\n      tag_55\n      jump\t// in\n    tag_87:\n    tag_86:\n      swap1\n      0x00\n      mstore\n      keccak256(0x00, 0x20)\n      add\n        /* \"contracts/MagicTickets/MagicTicketsNFT.sol\":6339:6365  entries[_id][valor].player */\n      0x00\n      add\n      0x00\n      swap1\n      sload\n      swap1\n      0x0100\n      exp\n      swap1\n      div\n      0xffffffffffffffffffffffffffffffffffffffff\n      and\n        /* \"contracts/MagicTickets/MagicTicketsNFT.sol\":6322:6365  address wallet = entries[_id][valor].player */\n      swap1\n      pop\n        /* \"contracts/MagicTickets/MagicTicketsNFT.sol\":6394:6400  wallet */\n      dup1\n        /* \"contracts/MagicTickets/MagicTicketsNFT.sol\":6378:6384  raffle */\n      dup4\n        /* \"contracts/MagicTickets/MagicTicketsNFT.sol\":6378:6391  raffle.winner */\n      0x0b\n      add\n      0x00\n        /* \"contracts/MagicTickets/MagicTicketsNFT.sol\":6378:6400  raffle.winner = wallet */\n      0x0100\n      exp\n      dup2\n      sload\n      dup2\n      0xffffffffffffffffffffffffffffffffffffffff\n      mul\n      not\n      and\n      swap1\n      dup4\n      0xffffffffffffffffffffffffffffffffffffffff\n      and\n      mul\n      or\n      swap1\n      sstore\n      pop\n        /* \"contracts/MagicTickets/MagicTicketsNFT.sol\":6427:6439  STATUS.ENDED */\n      0x01\n        /* \"contracts/MagicTickets/MagicTicketsNFT.sol\":6411:6417  raffle */\n      dup4\n        /* \"contracts/MagicTickets/MagicTicketsNFT.sol\":6411:6424  raffle.status */\n      0x00\n      add\n      0x00\n        /* \"contracts/MagicTickets/MagicTicketsNFT.sol\":6411:6439  raffle.status = STATUS.ENDED */\n      0x0100\n      exp\n      dup2\n      sload\n      dup2\n      0xff\n      mul\n      not\n      and\n      swap1\n      dup4\n      0x02\n      dup2\n      gt\n      iszero\n      tag_89\n      jumpi\n      tag_90\n      tag_68\n      jump\t// in\n    tag_90:\n    tag_89:\n      mul\n      or\n      swap1\n      sstore\n      pop\n        /* \"contracts/MagicTickets/MagicTicketsNFT.sol\":6473:6479  raffle */\n      dup3\n        /* \"contracts/MagicTickets/MagicTicketsNFT.sol\":6473:6486  raffle.winner */\n      0x0b\n      add\n      0x00\n      swap1\n      sload\n      swap1\n      0x0100\n      exp\n      swap1\n      div\n      0xffffffffffffffffffffffffffffffffffffffff\n      and\n        /* \"contracts/MagicTickets/MagicTicketsNFT.sol\":6457:6487  drawWinner(_id, raffle.winner) */\n      0xffffffffffffffffffffffffffffffffffffffff\n      and\n        /* \"contracts/MagicTickets/MagicTicketsNFT.sol\":6468:6471  _id */\n      dup7\n        /* \"contracts/MagicTickets/MagicTicketsNFT.sol\":6457:6487  drawWinner(_id, raffle.winner) */\n      0xce2cddfd400adbcf694cea71fb57997f5c7a9fc7487c6f7701c97bcddf217095\n      mload(0x40)\n      mload(0x40)\n      dup1\n      swap2\n      sub\n      swap1\n      log3\n        /* \"contracts/MagicTickets/MagicTicketsNFT.sol\":6500:6520  sendTokenAndNFT(_id) */\n      tag_91\n        /* \"contracts/MagicTickets/MagicTicketsNFT.sol\":6516:6519  _id */\n      dup7\n        /* \"contracts/MagicTickets/MagicTicketsNFT.sol\":6500:6515  sendTokenAndNFT */\n      tag_92\n        /* \"contracts/MagicTickets/MagicTicketsNFT.sol\":6500:6520  sendTokenAndNFT(_id) */\n      jump\t// in\n    tag_91:\n        /* \"contracts/MagicTickets/MagicTicketsNFT.sol\":5878:6528  {... */\n      pop\n      pop\n      pop\n        /* \"contracts/MagicTickets/MagicTicketsNFT.sol\":5816:6528  function sortearWinner(uint _id, string calldata seed) public {... */\n      pop\n      pop\n      pop\n      jump\t// out\n        /* \"contracts/MagicTickets/MagicTicketsNFT.sol\":1948:1977  RaffleStruct[] public raffles */\n    tag_31:\n      0x01\n      dup2\n      dup2\n      sload\n      dup2\n      lt\n      tag_93\n      jumpi\n      0x00\n      dup1\n      revert\n    tag_93:\n      swap1\n      0x00\n      mstore\n      keccak256(0x00, 0x20)\n      swap1\n      0x0c\n      mul\n      add\n      0x00\n      swap2\n      pop\n      swap1\n      pop\n      dup1\n      0x00\n      add\n      0x00\n      swap1\n      sload\n      swap1\n      0x0100\n      exp\n      swap1\n      div\n      0xff\n      and\n      swap1\n      dup1\n      0x01\n      add\n      sload\n      swap1\n      dup1\n      0x02\n      add\n      sload\n      swap1\n      dup1\n      0x03\n      add\n      sload\n      swap1\n      dup1\n      0x04\n      add\n      sload\n      swap1\n      dup1\n      0x05\n      add\n      sload\n      swap1\n      dup1\n      0x06\n      add\n      sload\n      swap1\n      dup1\n      0x07\n      add\n      0x00\n      swap1\n      sload\n      swap1\n      0x0100\n      exp\n      swap1\n      div\n      0xffffffffffffffffffffffffffffffffffffffff\n      and\n      swap1\n      dup1\n      0x08\n      add\n      sload\n      swap1\n      dup1\n      0x09\n      add\n      0x00\n      swap1\n      sload\n      swap1\n      0x0100\n      exp\n      swap1\n      div\n      0xffffffffffffffffffffffffffffffffffffffff\n      and\n      swap1\n      dup1\n      0x0a\n      add\n      0x00\n      swap1\n      sload\n      swap1\n      0x0100\n      exp\n      swap1\n      div\n      0xffffffffffffffffffffffffffffffffffffffff\n      and\n      swap1\n      dup1\n      0x0b\n      add\n      0x00\n      swap1\n      sload\n      swap1\n      0x0100\n      exp\n      swap1\n      div\n      0xffffffffffffffffffffffffffffffffffffffff\n      and\n      swap1\n      pop\n      dup13\n      jump\t// out\n        /* \"contracts/MagicTickets/MagicTicketsNFT.sol\":4618:5235  function cancelRaffle(uint _id) public {... */\n    tag_36:\n        /* \"contracts/MagicTickets/MagicTicketsNFT.sol\":4690:4697  raffles */\n      0x01\n        /* \"contracts/MagicTickets/MagicTicketsNFT.sol\":4698:4701  _id */\n      dup2\n        /* \"contracts/MagicTickets/MagicTicketsNFT.sol\":4690:4702  raffles[_id] */\n      dup2\n      sload\n      dup2\n      lt\n      tag_96\n      jumpi\n      tag_97\n      tag_55\n      jump\t// in\n    tag_97:\n    tag_96:\n      swap1\n      0x00\n      mstore\n      keccak256(0x00, 0x20)\n      swap1\n      0x0c\n      mul\n      add\n        /* \"contracts/MagicTickets/MagicTicketsNFT.sol\":4690:4709  raffles[_id].seller */\n      0x0a\n      add\n      0x00\n      swap1\n      sload\n      swap1\n      0x0100\n      exp\n      swap1\n      div\n      0xffffffffffffffffffffffffffffffffffffffff\n      and\n        /* \"contracts/MagicTickets/MagicTicketsNFT.sol\":4676:4709  msg.sender == raffles[_id].seller */\n      0xffffffffffffffffffffffffffffffffffffffff\n      and\n        /* \"contracts/MagicTickets/MagicTicketsNFT.sol\":4676:4686  msg.sender */\n      caller\n        /* \"contracts/MagicTickets/MagicTicketsNFT.sol\":4676:4709  msg.sender == raffles[_id].seller */\n      0xffffffffffffffffffffffffffffffffffffffff\n      and\n      eq\n        /* \"contracts/MagicTickets/MagicTicketsNFT.sol\":4668:4758  require(msg.sender == raffles[_id].seller, \"Apenas o seller pode realizar o cancelamento\") */\n      tag_99\n      jumpi\n      mload(0x40)\n      0x08c379a000000000000000000000000000000000000000000000000000000000\n      dup2\n      mstore\n      0x04\n      add\n      tag_100\n      swap1\n      tag_101\n      jump\t// in\n    tag_100:\n      mload(0x40)\n      dup1\n      swap2\n      sub\n      swap1\n      revert\n    tag_99:\n        /* \"contracts/MagicTickets/MagicTicketsNFT.sol\":4800:4801  0 */\n      0x00\n        /* \"contracts/MagicTickets/MagicTicketsNFT.sol\":4777:4784  entries */\n      0x02\n        /* \"contracts/MagicTickets/MagicTicketsNFT.sol\":4777:4789  entries[_id] */\n      0x00\n        /* \"contracts/MagicTickets/MagicTicketsNFT.sol\":4785:4788  _id */\n      dup4\n        /* \"contracts/MagicTickets/MagicTicketsNFT.sol\":4777:4789  entries[_id] */\n      dup2\n      mstore\n      0x20\n      add\n      swap1\n      dup2\n      mstore\n      0x20\n      add\n      0x00\n      keccak256\n        /* \"contracts/MagicTickets/MagicTicketsNFT.sol\":4777:4796  entries[_id].length */\n      dup1\n      sload\n      swap1\n      pop\n        /* \"contracts/MagicTickets/MagicTicketsNFT.sol\":4777:4801  entries[_id].length == 0 */\n      eq\n        /* \"contracts/MagicTickets/MagicTicketsNFT.sol\":4769:4842  require(entries[_id].length == 0, \"O raffle nao pode mais ser cancelado\") */\n      tag_102\n      jumpi\n      mload(0x40)\n      0x08c379a000000000000000000000000000000000000000000000000000000000\n      dup2\n      mstore\n      0x04\n      add\n      tag_103\n      swap1\n      tag_104\n      jump\t// in\n    tag_103:\n      mload(0x40)\n      dup1\n      swap2\n      sub\n      swap1\n      revert\n    tag_102:\n        /* \"contracts/MagicTickets/MagicTicketsNFT.sol\":4855:4882  RaffleStruct storage raffle */\n      0x00\n        /* \"contracts/MagicTickets/MagicTicketsNFT.sol\":4885:4892  raffles */\n      0x01\n        /* \"contracts/MagicTickets/MagicTicketsNFT.sol\":4893:4896  _id */\n      dup3\n        /* \"contracts/MagicTickets/MagicTicketsNFT.sol\":4885:4897  raffles[_id] */\n      dup2\n      sload\n      dup2\n      lt\n      tag_105\n      jumpi\n      tag_106\n      tag_55\n      jump\t// in\n    tag_106:\n    tag_105:\n      swap1\n      0x00\n      mstore\n      keccak256(0x00, 0x20)\n      swap1\n      0x0c\n      mul\n      add\n        /* \"contracts/MagicTickets/MagicTicketsNFT.sol\":4855:4897  RaffleStruct storage raffle = raffles[_id] */\n      swap1\n      pop\n        /* \"contracts/MagicTickets/MagicTicketsNFT.sol\":4935:4949  STATUS.STARTED */\n      0x00\n        /* \"contracts/MagicTickets/MagicTicketsNFT.sol\":4918:4949  raffle.status == STATUS.STARTED */\n      0x02\n      dup2\n      gt\n      iszero\n      tag_108\n      jumpi\n      tag_109\n      tag_68\n      jump\t// in\n    tag_109:\n    tag_108:\n        /* \"contracts/MagicTickets/MagicTicketsNFT.sol\":4918:4924  raffle */\n      dup2\n        /* \"contracts/MagicTickets/MagicTicketsNFT.sol\":4918:4931  raffle.status */\n      0x00\n      add\n      0x00\n      swap1\n      sload\n      swap1\n      0x0100\n      exp\n      swap1\n      div\n      0xff\n      and\n        /* \"contracts/MagicTickets/MagicTicketsNFT.sol\":4918:4949  raffle.status == STATUS.STARTED */\n      0x02\n      dup2\n      gt\n      iszero\n      tag_110\n      jumpi\n      tag_111\n      tag_68\n      jump\t// in\n    tag_111:\n    tag_110:\n      eq\n        /* \"contracts/MagicTickets/MagicTicketsNFT.sol\":4910:4980  require(raffle.status == STATUS.STARTED, \"O raffle ja foi finalizado\") */\n      tag_112\n      jumpi\n      mload(0x40)\n      0x08c379a000000000000000000000000000000000000000000000000000000000\n      dup2\n      mstore\n      0x04\n      add\n      tag_113\n      swap1\n      tag_114\n      jump\t// in\n    tag_113:\n      mload(0x40)\n      dup1\n      swap2\n      sub\n      swap1\n      revert\n    tag_112:\n        /* \"contracts/MagicTickets/MagicTicketsNFT.sol\":4993:5007  address wallet */\n      0x00\n        /* \"contracts/MagicTickets/MagicTicketsNFT.sol\":5010:5016  raffle */\n      dup2\n        /* \"contracts/MagicTickets/MagicTicketsNFT.sol\":5010:5023  raffle.seller */\n      0x0a\n      add\n      0x00\n      swap1\n      sload\n      swap1\n      0x0100\n      exp\n      swap1\n      div\n      0xffffffffffffffffffffffffffffffffffffffff\n      and\n        /* \"contracts/MagicTickets/MagicTicketsNFT.sol\":4993:5023  address wallet = raffle.seller */\n      swap1\n      pop\n        /* \"contracts/MagicTickets/MagicTicketsNFT.sol\":5036:5047  IERC721 nft */\n      0x00\n        /* \"contracts/MagicTickets/MagicTicketsNFT.sol\":5058:5064  raffle */\n      dup3\n        /* \"contracts/MagicTickets/MagicTicketsNFT.sol\":5058:5078  raffle.tokenContract */\n      0x09\n      add\n      0x00\n      swap1\n      sload\n      swap1\n      0x0100\n      exp\n      swap1\n      div\n      0xffffffffffffffffffffffffffffffffffffffff\n      and\n        /* \"contracts/MagicTickets/MagicTicketsNFT.sol\":5036:5079  IERC721 nft = IERC721(raffle.tokenContract) */\n      swap1\n      pop\n        /* \"contracts/MagicTickets/MagicTicketsNFT.sol\":5090:5093  nft */\n      dup1\n        /* \"contracts/MagicTickets/MagicTicketsNFT.sol\":5090:5106  nft.transferFrom */\n      0xffffffffffffffffffffffffffffffffffffffff\n      and\n      0x23b872dd\n        /* \"contracts/MagicTickets/MagicTicketsNFT.sol\":5115:5119  this */\n      address\n        /* \"contracts/MagicTickets/MagicTicketsNFT.sol\":5122:5128  wallet */\n      dup5\n        /* \"contracts/MagicTickets/MagicTicketsNFT.sol\":5130:5136  raffle */\n      dup7\n        /* \"contracts/MagicTickets/MagicTicketsNFT.sol\":5130:5145  raffle.tokenNFT */\n      0x08\n      add\n      sload\n        /* \"contracts/MagicTickets/MagicTicketsNFT.sol\":5090:5146  nft.transferFrom(address(this), wallet, raffle.tokenNFT) */\n      mload(0x40)\n      dup5\n      0xffffffff\n      and\n      0xe0\n      shl\n      dup2\n      mstore\n      0x04\n      add\n      tag_115\n      swap4\n      swap3\n      swap2\n      swap1\n      tag_116\n      jump\t// in\n    tag_115:\n      0x00\n      mload(0x40)\n      dup1\n      dup4\n      sub\n      dup2\n      0x00\n      dup8\n      dup1\n      extcodesize\n      iszero\n      dup1\n      iszero\n      tag_117\n      jumpi\n      0x00\n      dup1\n      revert\n    tag_117:\n      pop\n      gas\n      call\n      iszero\n      dup1\n      iszero\n      tag_119\n      jumpi\n      returndatasize\n      0x00\n      dup1\n      returndatacopy\n      revert(0x00, returndatasize)\n    tag_119:\n      pop\n      pop\n      pop\n      pop\n        /* \"contracts/MagicTickets/MagicTicketsNFT.sol\":5175:5190  STATUS.CANCELED */\n      0x02\n        /* \"contracts/MagicTickets/MagicTicketsNFT.sol\":5159:5165  raffle */\n      dup4\n        /* \"contracts/MagicTickets/MagicTicketsNFT.sol\":5159:5172  raffle.status */\n      0x00\n      add\n      0x00\n        /* \"contracts/MagicTickets/MagicTicketsNFT.sol\":5159:5190  raffle.status = STATUS.CANCELED */\n      0x0100\n      exp\n      dup2\n      sload\n      dup2\n      0xff\n      mul\n      not\n      and\n      swap1\n      dup4\n      0x02\n      dup2\n      gt\n      iszero\n      tag_120\n      jumpi\n      tag_121\n      tag_68\n      jump\t// in\n    tag_121:\n    tag_120:\n      mul\n      or\n      swap1\n      sstore\n      pop\n        /* \"contracts/MagicTickets/MagicTicketsNFT.sol\":5223:5226  _id */\n      dup4\n        /* \"contracts/MagicTickets/MagicTicketsNFT.sol\":5208:5227  canceledRaffle(_id) */\n      0xd12fb3853f1b33ba57f4469e7208a47e391853ab650de6721cbbe595058767\n      mload(0x40)\n      mload(0x40)\n      dup1\n      swap2\n      sub\n      swap1\n      log2\n        /* \"contracts/MagicTickets/MagicTicketsNFT.sol\":4657:5235  {... */\n      pop\n      pop\n      pop\n        /* \"contracts/MagicTickets/MagicTicketsNFT.sol\":4618:5235  function cancelRaffle(uint _id) public {... */\n      pop\n      jump\t// out\n        /* \"contracts/MagicTickets/MagicTicketsNFT.sol\":2291:3702  function createRaffle(uint _maxEntries, uint _minTickets, ... */\n    tag_40:\n        /* \"contracts/MagicTickets/MagicTicketsNFT.sol\":2452:2456  uint */\n      0x00\n        /* \"contracts/MagicTickets/MagicTicketsNFT.sol\":2490:2491  0 */\n      dup1\n        /* \"contracts/MagicTickets/MagicTicketsNFT.sol\":2476:2487  _maxEntries */\n      dup8\n        /* \"contracts/MagicTickets/MagicTicketsNFT.sol\":2476:2491  _maxEntries > 0 */\n      gt\n        /* \"contracts/MagicTickets/MagicTicketsNFT.sol\":2468:2537  require(_maxEntries > 0, \"Numero de tickets deve ser maior que zero\") */\n      tag_123\n      jumpi\n      mload(0x40)\n      0x08c379a000000000000000000000000000000000000000000000000000000000\n      dup2\n      mstore\n      0x04\n      add\n      tag_124\n      swap1\n      tag_125\n      jump\t// in\n    tag_124:\n      mload(0x40)\n      dup1\n      swap2\n      sub\n      swap1\n      revert\n    tag_123:\n        /* \"contracts/MagicTickets/MagicTicketsNFT.sol\":2570:2571  0 */\n      0x00\n        /* \"contracts/MagicTickets/MagicTicketsNFT.sol\":2556:2567  _minTickets */\n      dup7\n        /* \"contracts/MagicTickets/MagicTicketsNFT.sol\":2556:2571  _minTickets > 0 */\n      gt\n        /* \"contracts/MagicTickets/MagicTicketsNFT.sol\":2548:2624  require(_minTickets > 0, \"Numero minimo de tickets deve ser maior que zero\") */\n      tag_126\n      jumpi\n      mload(0x40)\n      0x08c379a000000000000000000000000000000000000000000000000000000000\n      dup2\n      mstore\n      0x04\n      add\n      tag_127\n      swap1\n      tag_128\n      jump\t// in\n    tag_127:\n      mload(0x40)\n      dup1\n      swap2\n      sub\n      swap1\n      revert\n    tag_126:\n        /* \"contracts/MagicTickets/MagicTicketsNFT.sol\":2669:2670  0 */\n      0x00\n        /* \"contracts/MagicTickets/MagicTicketsNFT.sol\":2643:2671  _tokenContract != address(0) */\n      0xffffffffffffffffffffffffffffffffffffffff\n      and\n        /* \"contracts/MagicTickets/MagicTicketsNFT.sol\":2643:2657  _tokenContract */\n      dup6\n        /* \"contracts/MagicTickets/MagicTicketsNFT.sol\":2643:2671  _tokenContract != address(0) */\n      0xffffffffffffffffffffffffffffffffffffffff\n      and\n      sub\n        /* \"contracts/MagicTickets/MagicTicketsNFT.sol\":2635:2726  require(_tokenContract != address(0), \"O endereco do contrato NFT deve ser diferente de 0\") */\n      tag_129\n      jumpi\n      mload(0x40)\n      0x08c379a000000000000000000000000000000000000000000000000000000000\n      dup2\n      mstore\n      0x04\n      add\n      tag_130\n      swap1\n      tag_131\n      jump\t// in\n    tag_130:\n      mload(0x40)\n      dup1\n      swap2\n      sub\n      swap1\n      revert\n    tag_129:\n        /* \"contracts/MagicTickets/MagicTicketsNFT.sol\":2757:2758  0 */\n      0x00\n        /* \"contracts/MagicTickets/MagicTicketsNFT.sol\":2745:2753  _tokenID */\n      dup5\n        /* \"contracts/MagicTickets/MagicTicketsNFT.sol\":2745:2758  _tokenID >= 0 */\n      lt\n      iszero\n        /* \"contracts/MagicTickets/MagicTicketsNFT.sol\":2737:2800  require(_tokenID >= 0, \"O id do token deve ser maior que zero\") */\n      tag_132\n      jumpi\n      mload(0x40)\n      0x08c379a000000000000000000000000000000000000000000000000000000000\n      dup2\n      mstore\n      0x04\n      add\n      tag_133\n      swap1\n      tag_134\n      jump\t// in\n    tag_133:\n      mload(0x40)\n      dup1\n      swap2\n      sub\n      swap1\n      revert\n    tag_132:\n        /* \"contracts/MagicTickets/MagicTicketsNFT.sol\":2845:2846  0 */\n      0x00\n        /* \"contracts/MagicTickets/MagicTicketsNFT.sol\":2819:2847  _tokenReceived != address(0) */\n      0xffffffffffffffffffffffffffffffffffffffff\n      and\n        /* \"contracts/MagicTickets/MagicTicketsNFT.sol\":2819:2833  _tokenReceived */\n      dup3\n        /* \"contracts/MagicTickets/MagicTicketsNFT.sol\":2819:2847  _tokenReceived != address(0) */\n      0xffffffffffffffffffffffffffffffffffffffff\n      and\n      sub\n        /* \"contracts/MagicTickets/MagicTicketsNFT.sol\":2811:2910  require(_tokenReceived != address(0), \"O endereco do token a ser recebido deve ser diferente de 0\") */\n      tag_135\n      jumpi\n      mload(0x40)\n      0x08c379a000000000000000000000000000000000000000000000000000000000\n      dup2\n      mstore\n      0x04\n      add\n      tag_136\n      swap1\n      tag_137\n      jump\t// in\n    tag_136:\n      mload(0x40)\n      dup1\n      swap2\n      sub\n      swap1\n      revert\n    tag_135:\n        /* \"contracts/MagicTickets/MagicTicketsNFT.sol\":2944:2945  0 */\n      0x00\n        /* \"contracts/MagicTickets/MagicTicketsNFT.sol\":2929:2941  _ticketValue */\n      dup4\n        /* \"contracts/MagicTickets/MagicTicketsNFT.sol\":2929:2945  _ticketValue > 0 */\n      gt\n        /* \"contracts/MagicTickets/MagicTicketsNFT.sol\":2921:2991  require(_ticketValue > 0, \"O valor do ticket deve ser maior que zero\") */\n      tag_138\n      jumpi\n      mload(0x40)\n      0x08c379a000000000000000000000000000000000000000000000000000000000\n      dup2\n      mstore\n      0x04\n      add\n      tag_139\n      swap1\n      tag_140\n      jump\t// in\n    tag_139:\n      mload(0x40)\n      dup1\n      swap2\n      sub\n      swap1\n      revert\n    tag_138:\n        /* \"contracts/MagicTickets/MagicTicketsNFT.sol\":3004:3053  transferNFT(_tokenID, _tokenContract, msg.sender) */\n      tag_141\n        /* \"contracts/MagicTickets/MagicTicketsNFT.sol\":3016:3024  _tokenID */\n      dup5\n        /* \"contracts/MagicTickets/MagicTicketsNFT.sol\":3026:3040  _tokenContract */\n      dup7\n        /* \"contracts/MagicTickets/MagicTicketsNFT.sol\":3042:3052  msg.sender */\n      caller\n        /* \"contracts/MagicTickets/MagicTicketsNFT.sol\":3004:3015  transferNFT */\n      tag_142\n        /* \"contracts/MagicTickets/MagicTicketsNFT.sol\":3004:3053  transferNFT(_tokenID, _tokenContract, msg.sender) */\n      jump\t// in\n    tag_141:\n        /* \"contracts/MagicTickets/MagicTicketsNFT.sol\":3064:3090  RaffleStruct memory raffle */\n      0x00\n        /* \"contracts/MagicTickets/MagicTicketsNFT.sol\":3093:3560  RaffleStruct({... */\n      mload(0x40)\n      dup1\n      0x0180\n      add\n      0x40\n      mstore\n      dup1\n        /* \"contracts/MagicTickets/MagicTicketsNFT.sol\":3275:3289  STATUS.STARTED */\n      0x00\n        /* \"contracts/MagicTickets/MagicTicketsNFT.sol\":3093:3560  RaffleStruct({... */\n      0x02\n      dup2\n      gt\n      iszero\n      tag_143\n      jumpi\n      tag_144\n      tag_68\n      jump\t// in\n    tag_144:\n    tag_143:\n      dup2\n      mstore\n      0x20\n      add\n        /* \"contracts/MagicTickets/MagicTicketsNFT.sol\":3133:3144  _maxEntries */\n      dup10\n        /* \"contracts/MagicTickets/MagicTicketsNFT.sol\":3093:3560  RaffleStruct({... */\n      dup2\n      mstore\n      0x20\n      add\n        /* \"contracts/MagicTickets/MagicTicketsNFT.sol\":3171:3182  _minTickets */\n      dup9\n        /* \"contracts/MagicTickets/MagicTicketsNFT.sol\":3093:3560  RaffleStruct({... */\n      dup2\n      mstore\n      0x20\n      add\n        /* \"contracts/MagicTickets/MagicTicketsNFT.sol\":3211:3212  0 */\n      0x00\n        /* \"contracts/MagicTickets/MagicTicketsNFT.sol\":3093:3560  RaffleStruct({... */\n      dup2\n      mstore\n      0x20\n      add\n        /* \"contracts/MagicTickets/MagicTicketsNFT.sol\":3241:3252  _maxEntries */\n      dup10\n        /* \"contracts/MagicTickets/MagicTicketsNFT.sol\":3093:3560  RaffleStruct({... */\n      dup2\n      mstore\n      0x20\n      add\n        /* \"contracts/MagicTickets/MagicTicketsNFT.sol\":3320:3321  0 */\n      0x00\n        /* \"contracts/MagicTickets/MagicTicketsNFT.sol\":3093:3560  RaffleStruct({... */\n      dup2\n      mstore\n      0x20\n      add\n        /* \"contracts/MagicTickets/MagicTicketsNFT.sol\":3349:3361  _ticketValue */\n      dup6\n        /* \"contracts/MagicTickets/MagicTicketsNFT.sol\":3093:3560  RaffleStruct({... */\n      dup2\n      mstore\n      0x20\n      add\n        /* \"contracts/MagicTickets/MagicTicketsNFT.sol\":3424:3438  _tokenReceived */\n      dup5\n        /* \"contracts/MagicTickets/MagicTicketsNFT.sol\":3093:3560  RaffleStruct({... */\n      0xffffffffffffffffffffffffffffffffffffffff\n      and\n      dup2\n      mstore\n      0x20\n      add\n        /* \"contracts/MagicTickets/MagicTicketsNFT.sol\":3507:3515  _tokenID */\n      dup7\n        /* \"contracts/MagicTickets/MagicTicketsNFT.sol\":3093:3560  RaffleStruct({... */\n      dup2\n      mstore\n      0x20\n      add\n        /* \"contracts/MagicTickets/MagicTicketsNFT.sol\":3468:3482  _tokenContract */\n      dup8\n        /* \"contracts/MagicTickets/MagicTicketsNFT.sol\":3093:3560  RaffleStruct({... */\n      0xffffffffffffffffffffffffffffffffffffffff\n      and\n      dup2\n      mstore\n      0x20\n      add\n        /* \"contracts/MagicTickets/MagicTicketsNFT.sol\":3384:3394  msg.sender */\n      caller\n        /* \"contracts/MagicTickets/MagicTicketsNFT.sol\":3093:3560  RaffleStruct({... */\n      0xffffffffffffffffffffffffffffffffffffffff\n      and\n      dup2\n      mstore\n      0x20\n      add\n        /* \"contracts/MagicTickets/MagicTicketsNFT.sol\":3546:3547  0 */\n      0x00\n        /* \"contracts/MagicTickets/MagicTicketsNFT.sol\":3093:3560  RaffleStruct({... */\n      0xffffffffffffffffffffffffffffffffffffffff\n      and\n      dup2\n      mstore\n      pop\n        /* \"contracts/MagicTickets/MagicTicketsNFT.sol\":3064:3560  RaffleStruct memory raffle = RaffleStruct({... */\n      swap1\n      pop\n        /* \"contracts/MagicTickets/MagicTicketsNFT.sol\":3573:3580  raffles */\n      0x01\n        /* \"contracts/MagicTickets/MagicTicketsNFT.sol\":3586:3592  raffle */\n      dup2\n        /* \"contracts/MagicTickets/MagicTicketsNFT.sol\":3573:3593  raffles.push(raffle) */\n      swap1\n      dup1\n      0x01\n      dup2\n      sload\n      add\n      dup1\n      dup3\n      sstore\n      dup1\n      swap2\n      pop\n      pop\n      0x01\n      swap1\n      sub\n      swap1\n      0x00\n      mstore\n      keccak256(0x00, 0x20)\n      swap1\n      0x0c\n      mul\n      add\n      0x00\n      swap1\n      swap2\n      swap1\n      swap2\n      swap1\n      swap2\n      pop\n      0x00\n      dup3\n      add\n      mload\n      dup2\n      0x00\n      add\n      exp(0x0100, 0x00)\n      dup2\n      sload\n      dup2\n      0xff\n      mul\n      not\n      and\n      swap1\n      dup4\n      0x02\n      dup2\n      gt\n      iszero\n      tag_146\n      jumpi\n      tag_147\n      tag_68\n      jump\t// in\n    tag_147:\n    tag_146:\n      mul\n      or\n      swap1\n      sstore\n      pop\n      0x20\n      dup3\n      add\n      mload\n      dup2\n      0x01\n      add\n      sstore\n      0x40\n      dup3\n      add\n      mload\n      dup2\n      0x02\n      add\n      sstore\n      0x60\n      dup3\n      add\n      mload\n      dup2\n      0x03\n      add\n      sstore\n      0x80\n      dup3\n      add\n      mload\n      dup2\n      0x04\n      add\n      sstore\n      0xa0\n      dup3\n      add\n      mload\n      dup2\n      0x05\n      add\n      sstore\n      0xc0\n      dup3\n      add\n      mload\n      dup2\n      0x06\n      add\n      sstore\n      0xe0\n      dup3\n      add\n      mload\n      dup2\n      0x07\n      add\n      exp(0x0100, 0x00)\n      dup2\n      sload\n      dup2\n      0xffffffffffffffffffffffffffffffffffffffff\n      mul\n      not\n      and\n      swap1\n      dup4\n      0xffffffffffffffffffffffffffffffffffffffff\n      and\n      mul\n      or\n      swap1\n      sstore\n      pop\n      0x0100\n      dup3\n      add\n      mload\n      dup2\n      0x08\n      add\n      sstore\n      0x0120\n      dup3\n      add\n      mload\n      dup2\n      0x09\n      add\n      exp(0x0100, 0x00)\n      dup2\n      sload\n      dup2\n      0xffffffffffffffffffffffffffffffffffffffff\n      mul\n      not\n      and\n      swap1\n      dup4\n      0xffffffffffffffffffffffffffffffffffffffff\n      and\n      mul\n      or\n      swap1\n      sstore\n      pop\n      0x0140\n      dup3\n      add\n      mload\n      dup2\n      0x0a\n      add\n      exp(0x0100, 0x00)\n      dup2\n      sload\n      dup2\n      0xffffffffffffffffffffffffffffffffffffffff\n      mul\n      not\n      and\n      swap1\n      dup4\n      0xffffffffffffffffffffffffffffffffffffffff\n      and\n      mul\n      or\n      swap1\n      sstore\n      pop\n      0x0160\n      dup3\n      add\n      mload\n      dup2\n      0x0b\n      add\n      exp(0x0100, 0x00)\n      dup2\n      sload\n      dup2\n      0xffffffffffffffffffffffffffffffffffffffff\n      mul\n      not\n      and\n      swap1\n      dup4\n      0xffffffffffffffffffffffffffffffffffffffff\n      and\n      mul\n      or\n      swap1\n      sstore\n      pop\n      pop\n      pop\n        /* \"contracts/MagicTickets/MagicTicketsNFT.sol\":3645:3655  msg.sender */\n      caller\n        /* \"contracts/MagicTickets/MagicTicketsNFT.sol\":3611:3656  createdRaffle(raffles.length - 1, msg.sender) */\n      0xffffffffffffffffffffffffffffffffffffffff\n      and\n        /* \"contracts/MagicTickets/MagicTicketsNFT.sol\":3642:3643  1 */\n      0x01\n        /* \"contracts/MagicTickets/MagicTicketsNFT.sol\":3625:3632  raffles */\n      dup1\n        /* \"contracts/MagicTickets/MagicTicketsNFT.sol\":3625:3639  raffles.length */\n      dup1\n      sload\n      swap1\n      pop\n        /* \"contracts/MagicTickets/MagicTicketsNFT.sol\":3625:3643  raffles.length - 1 */\n      tag_148\n      swap2\n      swap1\n      tag_84\n      jump\t// in\n    tag_148:\n        /* \"contracts/MagicTickets/MagicTicketsNFT.sol\":3611:3656  createdRaffle(raffles.length - 1, msg.sender) */\n      0xcb178589a0d989fbb3e2b855e0fe244bf88db81a5afa0de5ec6a7fd2c16fcb35\n      mload(0x40)\n      mload(0x40)\n      dup1\n      swap2\n      sub\n      swap1\n      log3\n        /* \"contracts/MagicTickets/MagicTicketsNFT.sol\":3693:3694  1 */\n      0x01\n        /* \"contracts/MagicTickets/MagicTicketsNFT.sol\":3676:3683  raffles */\n      dup1\n        /* \"contracts/MagicTickets/MagicTicketsNFT.sol\":3676:3690  raffles.length */\n      dup1\n      sload\n      swap1\n      pop\n        /* \"contracts/MagicTickets/MagicTicketsNFT.sol\":3676:3694  raffles.length - 1 */\n      tag_149\n      swap2\n      swap1\n      tag_84\n      jump\t// in\n    tag_149:\n        /* \"contracts/MagicTickets/MagicTicketsNFT.sol\":3669:3694  return raffles.length - 1 */\n      swap2\n      pop\n      pop\n        /* \"contracts/MagicTickets/MagicTicketsNFT.sol\":2291:3702  function createRaffle(uint _maxEntries, uint _minTickets, ... */\n      swap7\n      swap6\n      pop\n      pop\n      pop\n      pop\n      pop\n      pop\n      jump\t// out\n        /* \"contracts/MagicTickets/MagicTicketsNFT.sol\":1129:1149  address public owner */\n    tag_43:\n      0x00\n      dup1\n      sload\n      swap1\n      0x0100\n      exp\n      swap1\n      div\n      0xffffffffffffffffffffffffffffffffffffffff\n      and\n      dup2\n      jump\t// out\n        /* \"contracts/MagicTickets/MagicTicketsNFT.sol\":3711:4490  function buyTickets(uint _qtd, uint _id, address _buyer) public {... */\n    tag_48:\n        /* \"contracts/MagicTickets/MagicTicketsNFT.sol\":3843:3847  _qtd */\n      dup3\n        /* \"contracts/MagicTickets/MagicTicketsNFT.sol\":3820:3827  entries */\n      0x02\n        /* \"contracts/MagicTickets/MagicTicketsNFT.sol\":3820:3832  entries[_id] */\n      0x00\n        /* \"contracts/MagicTickets/MagicTicketsNFT.sol\":3828:3831  _id */\n      dup5\n        /* \"contracts/MagicTickets/MagicTicketsNFT.sol\":3820:3832  entries[_id] */\n      dup2\n      mstore\n      0x20\n      add\n      swap1\n      dup2\n      mstore\n      0x20\n      add\n      0x00\n      keccak256\n        /* \"contracts/MagicTickets/MagicTicketsNFT.sol\":3820:3839  entries[_id].length */\n      dup1\n      sload\n      swap1\n      pop\n        /* \"contracts/MagicTickets/MagicTicketsNFT.sol\":3794:3801  raffles */\n      0x01\n        /* \"contracts/MagicTickets/MagicTicketsNFT.sol\":3802:3805  _id */\n      dup5\n        /* \"contracts/MagicTickets/MagicTicketsNFT.sol\":3794:3806  raffles[_id] */\n      dup2\n      sload\n      dup2\n      lt\n      tag_151\n      jumpi\n      tag_152\n      tag_55\n      jump\t// in\n    tag_152:\n    tag_151:\n      swap1\n      0x00\n      mstore\n      keccak256(0x00, 0x20)\n      swap1\n      0x0c\n      mul\n      add\n        /* \"contracts/MagicTickets/MagicTicketsNFT.sol\":3794:3817  raffles[_id].maxEntries */\n      0x01\n      add\n      sload\n        /* \"contracts/MagicTickets/MagicTicketsNFT.sol\":3794:3839  raffles[_id].maxEntries - entries[_id].length */\n      tag_154\n      swap2\n      swap1\n      tag_84\n      jump\t// in\n    tag_154:\n        /* \"contracts/MagicTickets/MagicTicketsNFT.sol\":3794:3847  raffles[_id].maxEntries - entries[_id].length >= _qtd */\n      lt\n      iszero\n        /* \"contracts/MagicTickets/MagicTicketsNFT.sol\":3786:3868  require(raffles[_id].maxEntries - entries[_id].length >= _qtd, \"qtd indisponivel\") */\n      tag_155\n      jumpi\n      mload(0x40)\n      0x08c379a000000000000000000000000000000000000000000000000000000000\n      dup2\n      mstore\n      0x04\n      add\n      tag_156\n      swap1\n      tag_157\n      jump\t// in\n    tag_156:\n      mload(0x40)\n      dup1\n      swap2\n      sub\n      swap1\n      revert\n    tag_155:\n        /* \"contracts/MagicTickets/MagicTicketsNFT.sol\":3897:3904  raffles */\n      0x01\n        /* \"contracts/MagicTickets/MagicTicketsNFT.sol\":3905:3908  _id */\n      dup3\n        /* \"contracts/MagicTickets/MagicTicketsNFT.sol\":3897:3909  raffles[_id] */\n      dup2\n      sload\n      dup2\n      lt\n      tag_158\n      jumpi\n      tag_159\n      tag_55\n      jump\t// in\n    tag_159:\n    tag_158:\n      swap1\n      0x00\n      mstore\n      keccak256(0x00, 0x20)\n      swap1\n      0x0c\n      mul\n      add\n        /* \"contracts/MagicTickets/MagicTicketsNFT.sol\":3897:3916  raffles[_id].seller */\n      0x0a\n      add\n      0x00\n      swap1\n      sload\n      swap1\n      0x0100\n      exp\n      swap1\n      div\n      0xffffffffffffffffffffffffffffffffffffffff\n      and\n        /* \"contracts/MagicTickets/MagicTicketsNFT.sol\":3887:3916  _buyer != raffles[_id].seller */\n      0xffffffffffffffffffffffffffffffffffffffff\n      and\n        /* \"contracts/MagicTickets/MagicTicketsNFT.sol\":3887:3893  _buyer */\n      dup2\n        /* \"contracts/MagicTickets/MagicTicketsNFT.sol\":3887:3916  _buyer != raffles[_id].seller */\n      0xffffffffffffffffffffffffffffffffffffffff\n      and\n      sub\n        /* \"contracts/MagicTickets/MagicTicketsNFT.sol\":3879:3974  require(_buyer != raffles[_id].seller, \"O seller nao pode comprar entradas do proprio sorteio\") */\n      tag_161\n      jumpi\n      mload(0x40)\n      0x08c379a000000000000000000000000000000000000000000000000000000000\n      dup2\n      mstore\n      0x04\n      add\n      tag_162\n      swap1\n      tag_163\n      jump\t// in\n    tag_162:\n      mload(0x40)\n      dup1\n      swap2\n      sub\n      swap1\n      revert\n    tag_161:\n        /* \"contracts/MagicTickets/MagicTicketsNFT.sol\":3987:3997  uint value */\n      0x00\n        /* \"contracts/MagicTickets/MagicTicketsNFT.sol\":4027:4031  _qtd */\n      dup4\n        /* \"contracts/MagicTickets/MagicTicketsNFT.sol\":4000:4007  raffles */\n      0x01\n        /* \"contracts/MagicTickets/MagicTicketsNFT.sol\":4008:4011  _id */\n      dup5\n        /* \"contracts/MagicTickets/MagicTicketsNFT.sol\":4000:4012  raffles[_id] */\n      dup2\n      sload\n      dup2\n      lt\n      tag_164\n      jumpi\n      tag_165\n      tag_55\n      jump\t// in\n    tag_165:\n    tag_164:\n      swap1\n      0x00\n      mstore\n      keccak256(0x00, 0x20)\n      swap1\n      0x0c\n      mul\n      add\n        /* \"contracts/MagicTickets/MagicTicketsNFT.sol\":4000:4024  raffles[_id].ticketValue */\n      0x06\n      add\n      sload\n        /* \"contracts/MagicTickets/MagicTicketsNFT.sol\":4000:4031  raffles[_id].ticketValue * _qtd */\n      tag_167\n      swap2\n      swap1\n      tag_168\n      jump\t// in\n    tag_167:\n        /* \"contracts/MagicTickets/MagicTicketsNFT.sol\":3987:4031  uint value = raffles[_id].ticketValue * _qtd */\n      swap1\n      pop\n        /* \"contracts/MagicTickets/MagicTicketsNFT.sol\":4044:4056  IERC20 token */\n      0x00\n        /* \"contracts/MagicTickets/MagicTicketsNFT.sol\":4066:4073  raffles */\n      0x01\n        /* \"contracts/MagicTickets/MagicTicketsNFT.sol\":4074:4077  _id */\n      dup5\n        /* \"contracts/MagicTickets/MagicTicketsNFT.sol\":4066:4078  raffles[_id] */\n      dup2\n      sload\n      dup2\n      lt\n      tag_169\n      jumpi\n      tag_170\n      tag_55\n      jump\t// in\n    tag_170:\n    tag_169:\n      swap1\n      0x00\n      mstore\n      keccak256(0x00, 0x20)\n      swap1\n      0x0c\n      mul\n      add\n        /* \"contracts/MagicTickets/MagicTicketsNFT.sol\":4066:4092  raffles[_id].tokenReceived */\n      0x07\n      add\n      0x00\n      swap1\n      sload\n      swap1\n      0x0100\n      exp\n      swap1\n      div\n      0xffffffffffffffffffffffffffffffffffffffff\n      and\n        /* \"contracts/MagicTickets/MagicTicketsNFT.sol\":4044:4093  IERC20 token = IERC20(raffles[_id].tokenReceived) */\n      swap1\n      pop\n        /* \"contracts/MagicTickets/MagicTicketsNFT.sol\":4104:4109  token */\n      dup1\n        /* \"contracts/MagicTickets/MagicTicketsNFT.sol\":4104:4122  token.transferFrom */\n      0xffffffffffffffffffffffffffffffffffffffff\n      and\n      0x23b872dd\n        /* \"contracts/MagicTickets/MagicTicketsNFT.sol\":4123:4133  msg.sender */\n      caller\n        /* \"contracts/MagicTickets/MagicTicketsNFT.sol\":4143:4147  this */\n      address\n        /* \"contracts/MagicTickets/MagicTicketsNFT.sol\":4150:4155  value */\n      dup6\n        /* \"contracts/MagicTickets/MagicTicketsNFT.sol\":4104:4156  token.transferFrom(msg.sender, address(this), value) */\n      mload(0x40)\n      dup5\n      0xffffffff\n      and\n      0xe0\n      shl\n      dup2\n      mstore\n      0x04\n      add\n      tag_172\n      swap4\n      swap3\n      swap2\n      swap1\n      tag_116\n      jump\t// in\n    tag_172:\n      0x00\n      mload(0x40)\n      dup1\n      dup4\n      sub\n      dup2\n      0x00\n      dup8\n      dup1\n      extcodesize\n      iszero\n      dup1\n      iszero\n      tag_173\n      jumpi\n      0x00\n      dup1\n      revert\n    tag_173:\n      pop\n      gas\n      call\n      iszero\n      dup1\n      iszero\n      tag_175\n      jumpi\n      returndatasize\n      0x00\n      dup1\n      returndatacopy\n      revert(0x00, returndatasize)\n    tag_175:\n      pop\n      pop\n      pop\n      pop\n        /* \"contracts/MagicTickets/MagicTicketsNFT.sol\":4169:4187  Entry memory entry */\n      0x00\n        /* \"contracts/MagicTickets/MagicTicketsNFT.sol\":4190:4237  Entry({... */\n      mload(0x40)\n      dup1\n      0x20\n      add\n      0x40\n      mstore\n      dup1\n        /* \"contracts/MagicTickets/MagicTicketsNFT.sol\":4219:4225  _buyer */\n      dup6\n        /* \"contracts/MagicTickets/MagicTicketsNFT.sol\":4190:4237  Entry({... */\n      0xffffffffffffffffffffffffffffffffffffffff\n      and\n      dup2\n      mstore\n      pop\n        /* \"contracts/MagicTickets/MagicTicketsNFT.sol\":4169:4237  Entry memory entry = Entry({... */\n      swap1\n      pop\n        /* \"contracts/MagicTickets/MagicTicketsNFT.sol\":4255:4261  uint i */\n      0x00\n        /* \"contracts/MagicTickets/MagicTicketsNFT.sol\":4250:4332  for( uint i = 0; i < _qtd; i++){... */\n    tag_176:\n        /* \"contracts/MagicTickets/MagicTicketsNFT.sol\":4271:4275  _qtd */\n      dup7\n        /* \"contracts/MagicTickets/MagicTicketsNFT.sol\":4267:4268  i */\n      dup2\n        /* \"contracts/MagicTickets/MagicTicketsNFT.sol\":4267:4275  i < _qtd */\n      lt\n        /* \"contracts/MagicTickets/MagicTicketsNFT.sol\":4250:4332  for( uint i = 0; i < _qtd; i++){... */\n      iszero\n      tag_177\n      jumpi\n        /* \"contracts/MagicTickets/MagicTicketsNFT.sol\":4296:4303  entries */\n      0x02\n        /* \"contracts/MagicTickets/MagicTicketsNFT.sol\":4296:4308  entries[_id] */\n      0x00\n        /* \"contracts/MagicTickets/MagicTicketsNFT.sol\":4304:4307  _id */\n      dup8\n        /* \"contracts/MagicTickets/MagicTicketsNFT.sol\":4296:4308  entries[_id] */\n      dup2\n      mstore\n      0x20\n      add\n      swap1\n      dup2\n      mstore\n      0x20\n      add\n      0x00\n      keccak256\n        /* \"contracts/MagicTickets/MagicTicketsNFT.sol\":4314:4319  entry */\n      dup3\n        /* \"contracts/MagicTickets/MagicTicketsNFT.sol\":4296:4320  entries[_id].push(entry) */\n      swap1\n      dup1\n      0x01\n      dup2\n      sload\n      add\n      dup1\n      dup3\n      sstore\n      dup1\n      swap2\n      pop\n      pop\n      0x01\n      swap1\n      sub\n      swap1\n      0x00\n      mstore\n      keccak256(0x00, 0x20)\n      add\n      0x00\n      swap1\n      swap2\n      swap1\n      swap2\n      swap1\n      swap2\n      pop\n      0x00\n      dup3\n      add\n      mload\n      dup2\n      0x00\n      add\n      exp(0x0100, 0x00)\n      dup2\n      sload\n      dup2\n      0xffffffffffffffffffffffffffffffffffffffff\n      mul\n      not\n      and\n      swap1\n      dup4\n      0xffffffffffffffffffffffffffffffffffffffff\n      and\n      mul\n      or\n      swap1\n      sstore\n      pop\n      pop\n      pop\n        /* \"contracts/MagicTickets/MagicTicketsNFT.sol\":4277:4280  i++ */\n      dup1\n      dup1\n      tag_180\n      swap1\n      tag_181\n      jump\t// in\n    tag_180:\n      swap2\n      pop\n      pop\n        /* \"contracts/MagicTickets/MagicTicketsNFT.sol\":4250:4332  for( uint i = 0; i < _qtd; i++){... */\n      jump(tag_176)\n    tag_177:\n      pop\n        /* \"contracts/MagicTickets/MagicTicketsNFT.sol\":4373:4378  value */\n      dup3\n        /* \"contracts/MagicTickets/MagicTicketsNFT.sol\":4344:4351  raffles */\n      0x01\n        /* \"contracts/MagicTickets/MagicTicketsNFT.sol\":4352:4355  _id */\n      dup7\n        /* \"contracts/MagicTickets/MagicTicketsNFT.sol\":4344:4356  raffles[_id] */\n      dup2\n      sload\n      dup2\n      lt\n      tag_182\n      jumpi\n      tag_183\n      tag_55\n      jump\t// in\n    tag_183:\n    tag_182:\n      swap1\n      0x00\n      mstore\n      keccak256(0x00, 0x20)\n      swap1\n      0x0c\n      mul\n      add\n        /* \"contracts/MagicTickets/MagicTicketsNFT.sol\":4344:4369  raffles[_id].amountRaised */\n      0x03\n      add\n      0x00\n        /* \"contracts/MagicTickets/MagicTicketsNFT.sol\":4344:4378  raffles[_id].amountRaised += value */\n      dup3\n      dup3\n      sload\n      tag_185\n      swap2\n      swap1\n      tag_186\n      jump\t// in\n    tag_185:\n      swap3\n      pop\n      pop\n      dup2\n      swap1\n      sstore\n      pop\n        /* \"contracts/MagicTickets/MagicTicketsNFT.sol\":4418:4422  _qtd */\n      dup6\n        /* \"contracts/MagicTickets/MagicTicketsNFT.sol\":4389:4396  raffles */\n      0x01\n        /* \"contracts/MagicTickets/MagicTicketsNFT.sol\":4397:4400  _id */\n      dup7\n        /* \"contracts/MagicTickets/MagicTicketsNFT.sol\":4389:4401  raffles[_id] */\n      dup2\n      sload\n      dup2\n      lt\n      tag_187\n      jumpi\n      tag_188\n      tag_55\n      jump\t// in\n    tag_188:\n    tag_187:\n      swap1\n      0x00\n      mstore\n      keccak256(0x00, 0x20)\n      swap1\n      0x0c\n      mul\n      add\n        /* \"contracts/MagicTickets/MagicTicketsNFT.sol\":4389:4414  raffles[_id].qtdAvailable */\n      0x04\n      add\n      0x00\n        /* \"contracts/MagicTickets/MagicTicketsNFT.sol\":4389:4422  raffles[_id].qtdAvailable -= _qtd */\n      dup3\n      dup3\n      sload\n      tag_190\n      swap2\n      swap1\n      tag_84\n      jump\t// in\n    tag_190:\n      swap3\n      pop\n      pop\n      dup2\n      swap1\n      sstore\n      pop\n        /* \"contracts/MagicTickets/MagicTicketsNFT.sol\":4465:4471  _buyer */\n      dup4\n        /* \"contracts/MagicTickets/MagicTicketsNFT.sol\":4440:4472  boughtTickets(_id, _qtd, _buyer) */\n      0xffffffffffffffffffffffffffffffffffffffff\n      and\n        /* \"contracts/MagicTickets/MagicTicketsNFT.sol\":4459:4463  _qtd */\n      dup7\n        /* \"contracts/MagicTickets/MagicTicketsNFT.sol\":4454:4457  _id */\n      dup7\n        /* \"contracts/MagicTickets/MagicTicketsNFT.sol\":4440:4472  boughtTickets(_id, _qtd, _buyer) */\n      0x1dea0bd0e9dbea861bff2025a18b89bdc767204ebc6a7ebe66ec8331442387df\n      mload(0x40)\n      mload(0x40)\n      dup1\n      swap2\n      sub\n      swap1\n      log4\n        /* \"contracts/MagicTickets/MagicTicketsNFT.sol\":3775:4490  {... */\n      pop\n      pop\n      pop\n        /* \"contracts/MagicTickets/MagicTicketsNFT.sol\":3711:4490  function buyTickets(uint _qtd, uint _id, address _buyer) public {... */\n      pop\n      pop\n      pop\n      jump\t// out\n        /* \"contracts/MagicTickets/MagicTicketsNFT.sol\":5243:5596  function devolution(uint _id) public{... */\n    tag_51:\n        /* \"contracts/MagicTickets/MagicTicketsNFT.sol\":5312:5317  owner */\n      0x00\n      dup1\n      sload\n      swap1\n      0x0100\n      exp\n      swap1\n      div\n      0xffffffffffffffffffffffffffffffffffffffff\n      and\n        /* \"contracts/MagicTickets/MagicTicketsNFT.sol\":5298:5317  msg.sender == owner */\n      0xffffffffffffffffffffffffffffffffffffffff\n      and\n        /* \"contracts/MagicTickets/MagicTicketsNFT.sol\":5298:5308  msg.sender */\n      caller\n        /* \"contracts/MagicTickets/MagicTicketsNFT.sol\":5298:5317  msg.sender == owner */\n      0xffffffffffffffffffffffffffffffffffffffff\n      and\n      eq\n        /* \"contracts/MagicTickets/MagicTicketsNFT.sol\":5290:5362  require(msg.sender == owner, \"Apenas o owner pode realizar a devolucao\") */\n      tag_192\n      jumpi\n      mload(0x40)\n      0x08c379a000000000000000000000000000000000000000000000000000000000\n      dup2\n      mstore\n      0x04\n      add\n      tag_193\n      swap1\n      tag_194\n      jump\t// in\n    tag_193:\n      mload(0x40)\n      dup1\n      swap2\n      sub\n      swap1\n      revert\n    tag_192:\n        /* \"contracts/MagicTickets/MagicTicketsNFT.sol\":5373:5400  RaffleStruct storage raffle */\n      0x00\n        /* \"contracts/MagicTickets/MagicTicketsNFT.sol\":5403:5410  raffles */\n      0x01\n        /* \"contracts/MagicTickets/MagicTicketsNFT.sol\":5411:5414  _id */\n      dup3\n        /* \"contracts/MagicTickets/MagicTicketsNFT.sol\":5403:5415  raffles[_id] */\n      dup2\n      sload\n      dup2\n      lt\n      tag_195\n      jumpi\n      tag_196\n      tag_55\n      jump\t// in\n    tag_196:\n    tag_195:\n      swap1\n      0x00\n      mstore\n      keccak256(0x00, 0x20)\n      swap1\n      0x0c\n      mul\n      add\n        /* \"contracts/MagicTickets/MagicTicketsNFT.sol\":5373:5415  RaffleStruct storage raffle = raffles[_id] */\n      swap1\n      pop\n        /* \"contracts/MagicTickets/MagicTicketsNFT.sol\":5428:5439  IERC721 nft */\n      0x00\n        /* \"contracts/MagicTickets/MagicTicketsNFT.sol\":5450:5456  raffle */\n      dup2\n        /* \"contracts/MagicTickets/MagicTicketsNFT.sol\":5450:5470  raffle.tokenContract */\n      0x09\n      add\n      0x00\n      swap1\n      sload\n      swap1\n      0x0100\n      exp\n      swap1\n      div\n      0xffffffffffffffffffffffffffffffffffffffff\n      and\n        /* \"contracts/MagicTickets/MagicTicketsNFT.sol\":5428:5471  IERC721 nft = IERC721(raffle.tokenContract) */\n      swap1\n      pop\n        /* \"contracts/MagicTickets/MagicTicketsNFT.sol\":5484:5487  nft */\n      dup1\n        /* \"contracts/MagicTickets/MagicTicketsNFT.sol\":5484:5500  nft.transferFrom */\n      0xffffffffffffffffffffffffffffffffffffffff\n      and\n      0x23b872dd\n        /* \"contracts/MagicTickets/MagicTicketsNFT.sol\":5509:5513  this */\n      address\n        /* \"contracts/MagicTickets/MagicTicketsNFT.sol\":5516:5522  raffle */\n      dup5\n        /* \"contracts/MagicTickets/MagicTicketsNFT.sol\":5516:5529  raffle.seller */\n      0x0a\n      add\n      0x00\n      swap1\n      sload\n      swap1\n      0x0100\n      exp\n      swap1\n      div\n      0xffffffffffffffffffffffffffffffffffffffff\n      and\n        /* \"contracts/MagicTickets/MagicTicketsNFT.sol\":5531:5537  raffle */\n      dup6\n        /* \"contracts/MagicTickets/MagicTicketsNFT.sol\":5531:5546  raffle.tokenNFT */\n      0x08\n      add\n      sload\n        /* \"contracts/MagicTickets/MagicTicketsNFT.sol\":5484:5547  nft.transferFrom(address(this), raffle.seller, raffle.tokenNFT) */\n      mload(0x40)\n      dup5\n      0xffffffff\n      and\n      0xe0\n      shl\n      dup2\n      mstore\n      0x04\n      add\n      tag_198\n      swap4\n      swap3\n      swap2\n      swap1\n      tag_116\n      jump\t// in\n    tag_198:\n      0x00\n      mload(0x40)\n      dup1\n      dup4\n      sub\n      dup2\n      0x00\n      dup8\n      dup1\n      extcodesize\n      iszero\n      dup1\n      iszero\n      tag_199\n      jumpi\n      0x00\n      dup1\n      revert\n    tag_199:\n      pop\n      gas\n      call\n      iszero\n      dup1\n      iszero\n      tag_201\n      jumpi\n      returndatasize\n      0x00\n      dup1\n      returndatacopy\n      revert(0x00, returndatasize)\n    tag_201:\n      pop\n      pop\n      pop\n      pop\n        /* \"contracts/MagicTickets/MagicTicketsNFT.sol\":5576:5588  STATUS.ENDED */\n      0x01\n        /* \"contracts/MagicTickets/MagicTicketsNFT.sol\":5560:5566  raffle */\n      dup3\n        /* \"contracts/MagicTickets/MagicTicketsNFT.sol\":5560:5573  raffle.status */\n      0x00\n      add\n      0x00\n        /* \"contracts/MagicTickets/MagicTicketsNFT.sol\":5560:5588  raffle.status = STATUS.ENDED */\n      0x0100\n      exp\n      dup2\n      sload\n      dup2\n      0xff\n      mul\n      not\n      and\n      swap1\n      dup4\n      0x02\n      dup2\n      gt\n      iszero\n      tag_202\n      jumpi\n      tag_203\n      tag_68\n      jump\t// in\n    tag_203:\n    tag_202:\n      mul\n      or\n      swap1\n      sstore\n      pop\n        /* \"contracts/MagicTickets/MagicTicketsNFT.sol\":5279:5596  {... */\n      pop\n      pop\n        /* \"contracts/MagicTickets/MagicTicketsNFT.sol\":5243:5596  function devolution(uint _id) public{... */\n      pop\n      jump\t// out\n        /* \"contracts/MagicTickets/MagicTicketsNFT.sol\":5604:5808  function gerarNumero(string calldata semente, uint range) internal view returns (uint256) {... */\n    tag_85:\n        /* \"contracts/MagicTickets/MagicTicketsNFT.sol\":5685:5692  uint256 */\n      0x00\n        /* \"contracts/MagicTickets/MagicTicketsNFT.sol\":5798:5799  1 */\n      0x01\n        /* \"contracts/MagicTickets/MagicTicketsNFT.sol\":5790:5795  range */\n      dup3\n        /* \"contracts/MagicTickets/MagicTicketsNFT.sol\":5790:5799  range + 1 */\n      tag_205\n      swap2\n      swap1\n      tag_186\n      jump\t// in\n    tag_205:\n        /* \"contracts/MagicTickets/MagicTicketsNFT.sol\":5747:5762  block.timestamp */\n      timestamp\n        /* \"contracts/MagicTickets/MagicTicketsNFT.sol\":5764:5774  msg.sender */\n      caller\n        /* \"contracts/MagicTickets/MagicTicketsNFT.sol\":5776:5783  semente */\n      dup7\n      dup7\n        /* \"contracts/MagicTickets/MagicTicketsNFT.sol\":5730:5784  abi.encodePacked(block.timestamp, msg.sender, semente) */\n      add(0x20, mload(0x40))\n      tag_206\n      swap5\n      swap4\n      swap3\n      swap2\n      swap1\n      tag_207\n      jump\t// in\n    tag_206:\n      mload(0x40)\n      0x20\n      dup2\n      dup4\n      sub\n      sub\n      dup2\n      mstore\n      swap1\n      0x40\n      mstore\n        /* \"contracts/MagicTickets/MagicTicketsNFT.sol\":5720:5785  keccak256(abi.encodePacked(block.timestamp, msg.sender, semente)) */\n      dup1\n      mload\n      swap1\n      0x20\n      add\n      keccak256\n        /* \"contracts/MagicTickets/MagicTicketsNFT.sol\":5712:5786  uint256(keccak256(abi.encodePacked(block.timestamp, msg.sender, semente))) */\n      0x00\n      shr\n        /* \"contracts/MagicTickets/MagicTicketsNFT.sol\":5712:5800  uint256(keccak256(abi.encodePacked(block.timestamp, msg.sender, semente))) % (range + 1) */\n      tag_208\n      swap2\n      swap1\n      tag_209\n      jump\t// in\n    tag_208:\n        /* \"contracts/MagicTickets/MagicTicketsNFT.sol\":5705:5800  return uint256(keccak256(abi.encodePacked(block.timestamp, msg.sender, semente))) % (range + 1) */\n      swap1\n      pop\n        /* \"contracts/MagicTickets/MagicTicketsNFT.sol\":5604:5808  function gerarNumero(string calldata semente, uint range) internal view returns (uint256) {... */\n      swap4\n      swap3\n      pop\n      pop\n      pop\n      jump\t// out\n        /* \"contracts/MagicTickets/MagicTicketsNFT.sol\":6538:7024  function sendTokenAndNFT(uint _id) private{... */\n    tag_92:\n        /* \"contracts/MagicTickets/MagicTicketsNFT.sol\":6591:6617  RaffleStruct memory raffle */\n      0x00\n        /* \"contracts/MagicTickets/MagicTicketsNFT.sol\":6620:6627  raffles */\n      0x01\n        /* \"contracts/MagicTickets/MagicTicketsNFT.sol\":6628:6631  _id */\n      dup3\n        /* \"contracts/MagicTickets/MagicTicketsNFT.sol\":6620:6632  raffles[_id] */\n      dup2\n      sload\n      dup2\n      lt\n      tag_211\n      jumpi\n      tag_212\n      tag_55\n      jump\t// in\n    tag_212:\n    tag_211:\n      swap1\n      0x00\n      mstore\n      keccak256(0x00, 0x20)\n      swap1\n      0x0c\n      mul\n      add\n        /* \"contracts/MagicTickets/MagicTicketsNFT.sol\":6591:6632  RaffleStruct memory raffle = raffles[_id] */\n      mload(0x40)\n      dup1\n      0x0180\n      add\n      0x40\n      mstore\n      swap1\n      dup2\n      0x00\n      dup3\n      add\n      0x00\n      swap1\n      sload\n      swap1\n      0x0100\n      exp\n      swap1\n      div\n      0xff\n      and\n      0x02\n      dup2\n      gt\n      iszero\n      tag_214\n      jumpi\n      tag_215\n      tag_68\n      jump\t// in\n    tag_215:\n    tag_214:\n      0x02\n      dup2\n      gt\n      iszero\n      tag_216\n      jumpi\n      tag_217\n      tag_68\n      jump\t// in\n    tag_217:\n    tag_216:\n      dup2\n      mstore\n      0x20\n      add\n      0x01\n      dup3\n      add\n      sload\n      dup2\n      mstore\n      0x20\n      add\n      0x02\n      dup3\n      add\n      sload\n      dup2\n      mstore\n      0x20\n      add\n      0x03\n      dup3\n      add\n      sload\n      dup2\n      mstore\n      0x20\n      add\n      0x04\n      dup3\n      add\n      sload\n      dup2\n      mstore\n      0x20\n      add\n      0x05\n      dup3\n      add\n      sload\n      dup2\n      mstore\n      0x20\n      add\n      0x06\n      dup3\n      add\n      sload\n      dup2\n      mstore\n      0x20\n      add\n      0x07\n      dup3\n      add\n      0x00\n      swap1\n      sload\n      swap1\n      0x0100\n      exp\n      swap1\n      div\n      0xffffffffffffffffffffffffffffffffffffffff\n      and\n      0xffffffffffffffffffffffffffffffffffffffff\n      and\n      0xffffffffffffffffffffffffffffffffffffffff\n      and\n      dup2\n      mstore\n      0x20\n      add\n      0x08\n      dup3\n      add\n      sload\n      dup2\n      mstore\n      0x20\n      add\n      0x09\n      dup3\n      add\n      0x00\n      swap1\n      sload\n      swap1\n      0x0100\n      exp\n      swap1\n      div\n      0xffffffffffffffffffffffffffffffffffffffff\n      and\n      0xffffffffffffffffffffffffffffffffffffffff\n      and\n      0xffffffffffffffffffffffffffffffffffffffff\n      and\n      dup2\n      mstore\n      0x20\n      add\n      0x0a\n      dup3\n      add\n      0x00\n      swap1\n      sload\n      swap1\n      0x0100\n      exp\n      swap1\n      div\n      0xffffffffffffffffffffffffffffffffffffffff\n      and\n      0xffffffffffffffffffffffffffffffffffffffff\n      and\n      0xffffffffffffffffffffffffffffffffffffffff\n      and\n      dup2\n      mstore\n      0x20\n      add\n      0x0b\n      dup3\n      add\n      0x00\n      swap1\n      sload\n      swap1\n      0x0100\n      exp\n      swap1\n      div\n      0xffffffffffffffffffffffffffffffffffffffff\n      and\n      0xffffffffffffffffffffffffffffffffffffffff\n      and\n      0xffffffffffffffffffffffffffffffffffffffff\n      and\n      dup2\n      mstore\n      pop\n      pop\n      swap1\n      pop\n        /* \"contracts/MagicTickets/MagicTicketsNFT.sol\":6645:6663  IERC20 tokenRaffle */\n      0x00\n        /* \"contracts/MagicTickets/MagicTicketsNFT.sol\":6673:6679  raffle */\n      dup2\n        /* \"contracts/MagicTickets/MagicTicketsNFT.sol\":6673:6693  raffle.tokenReceived */\n      0xe0\n      add\n      mload\n        /* \"contracts/MagicTickets/MagicTicketsNFT.sol\":6645:6694  IERC20 tokenRaffle = IERC20(raffle.tokenReceived) */\n      swap1\n      pop\n        /* \"contracts/MagicTickets/MagicTicketsNFT.sol\":6749:6752  100 */\n      0x64\n        /* \"contracts/MagicTickets/MagicTicketsNFT.sol\":6729:6735  raffle */\n      dup3\n        /* \"contracts/MagicTickets/MagicTicketsNFT.sol\":6729:6748  raffle.amountRaised */\n      0x60\n      add\n      mload\n        /* \"contracts/MagicTickets/MagicTicketsNFT.sol\":6729:6752  raffle.amountRaised/100 */\n      tag_218\n      swap2\n      swap1\n      tag_219\n      jump\t// in\n    tag_218:\n        /* \"contracts/MagicTickets/MagicTicketsNFT.sol\":6705:6711  raffle */\n      dup3\n        /* \"contracts/MagicTickets/MagicTicketsNFT.sol\":6705:6726  raffle.sitePercentage */\n      0xa0\n      add\n        /* \"contracts/MagicTickets/MagicTicketsNFT.sol\":6705:6752  raffle.sitePercentage = raffle.amountRaised/100 */\n      dup2\n      dup2\n      mstore\n      pop\n      pop\n        /* \"contracts/MagicTickets/MagicTicketsNFT.sol\":6763:6779  uint valueSeller */\n      0x00\n        /* \"contracts/MagicTickets/MagicTicketsNFT.sol\":6804:6810  raffle */\n      dup3\n        /* \"contracts/MagicTickets/MagicTicketsNFT.sol\":6804:6825  raffle.sitePercentage */\n      0xa0\n      add\n      mload\n        /* \"contracts/MagicTickets/MagicTicketsNFT.sol\":6782:6788  raffle */\n      dup4\n        /* \"contracts/MagicTickets/MagicTicketsNFT.sol\":6782:6801  raffle.amountRaised */\n      0x60\n      add\n      mload\n        /* \"contracts/MagicTickets/MagicTicketsNFT.sol\":6782:6825  raffle.amountRaised - raffle.sitePercentage */\n      tag_220\n      swap2\n      swap1\n      tag_84\n      jump\t// in\n    tag_220:\n        /* \"contracts/MagicTickets/MagicTicketsNFT.sol\":6763:6825  uint valueSeller = raffle.amountRaised - raffle.sitePercentage */\n      swap1\n      pop\n        /* \"contracts/MagicTickets/MagicTicketsNFT.sol\":6838:6849  tokenRaffle */\n      dup2\n        /* \"contracts/MagicTickets/MagicTicketsNFT.sol\":6838:6858  tokenRaffle.transfer */\n      0xffffffffffffffffffffffffffffffffffffffff\n      and\n      0xa9059cbb\n        /* \"contracts/MagicTickets/MagicTicketsNFT.sol\":6859:6865  raffle */\n      dup5\n        /* \"contracts/MagicTickets/MagicTicketsNFT.sol\":6859:6872  raffle.seller */\n      0x0140\n      add\n      mload\n        /* \"contracts/MagicTickets/MagicTicketsNFT.sol\":6874:6885  valueSeller */\n      dup4\n        /* \"contracts/MagicTickets/MagicTicketsNFT.sol\":6838:6886  tokenRaffle.transfer(raffle.seller, valueSeller) */\n      mload(0x40)\n      dup4\n      0xffffffff\n      and\n      0xe0\n      shl\n      dup2\n      mstore\n      0x04\n      add\n      tag_221\n      swap3\n      swap2\n      swap1\n      tag_222\n      jump\t// in\n    tag_221:\n      0x00\n      mload(0x40)\n      dup1\n      dup4\n      sub\n      dup2\n      0x00\n      dup8\n      dup1\n      extcodesize\n      iszero\n      dup1\n      iszero\n      tag_223\n      jumpi\n      0x00\n      dup1\n      revert\n    tag_223:\n      pop\n      gas\n      call\n      iszero\n      dup1\n      iszero\n      tag_225\n      jumpi\n      returndatasize\n      0x00\n      dup1\n      returndatacopy\n      revert(0x00, returndatasize)\n    tag_225:\n      pop\n      pop\n      pop\n      pop\n        /* \"contracts/MagicTickets/MagicTicketsNFT.sol\":6899:6910  IERC721 nft */\n      0x00\n        /* \"contracts/MagicTickets/MagicTicketsNFT.sol\":6921:6927  raffle */\n      dup4\n        /* \"contracts/MagicTickets/MagicTicketsNFT.sol\":6921:6941  raffle.tokenContract */\n      0x0120\n      add\n      mload\n        /* \"contracts/MagicTickets/MagicTicketsNFT.sol\":6899:6942  IERC721 nft = IERC721(raffle.tokenContract) */\n      swap1\n      pop\n        /* \"contracts/MagicTickets/MagicTicketsNFT.sol\":6953:6956  nft */\n      dup1\n        /* \"contracts/MagicTickets/MagicTicketsNFT.sol\":6953:6969  nft.transferFrom */\n      0xffffffffffffffffffffffffffffffffffffffff\n      and\n      0x23b872dd\n        /* \"contracts/MagicTickets/MagicTicketsNFT.sol\":6978:6982  this */\n      address\n        /* \"contracts/MagicTickets/MagicTicketsNFT.sol\":6985:6991  raffle */\n      dup7\n        /* \"contracts/MagicTickets/MagicTicketsNFT.sol\":6985:6998  raffle.winner */\n      0x0160\n      add\n      mload\n        /* \"contracts/MagicTickets/MagicTicketsNFT.sol\":7000:7006  raffle */\n      dup8\n        /* \"contracts/MagicTickets/MagicTicketsNFT.sol\":7000:7015  raffle.tokenNFT */\n      0x0100\n      add\n      mload\n        /* \"contracts/MagicTickets/MagicTicketsNFT.sol\":6953:7016  nft.transferFrom(address(this), raffle.winner, raffle.tokenNFT) */\n      mload(0x40)\n      dup5\n      0xffffffff\n      and\n      0xe0\n      shl\n      dup2\n      mstore\n      0x04\n      add\n      tag_226\n      swap4\n      swap3\n      swap2\n      swap1\n      tag_116\n      jump\t// in\n    tag_226:\n      0x00\n      mload(0x40)\n      dup1\n      dup4\n      sub\n      dup2\n      0x00\n      dup8\n      dup1\n      extcodesize\n      iszero\n      dup1\n      iszero\n      tag_227\n      jumpi\n      0x00\n      dup1\n      revert\n    tag_227:\n      pop\n      gas\n      call\n      iszero\n      dup1\n      iszero\n      tag_229\n      jumpi\n      returndatasize\n      0x00\n      dup1\n      returndatacopy\n      revert(0x00, returndatasize)\n    tag_229:\n      pop\n      pop\n      pop\n      pop\n        /* \"contracts/MagicTickets/MagicTicketsNFT.sol\":6580:7024  {... */\n      pop\n      pop\n      pop\n      pop\n        /* \"contracts/MagicTickets/MagicTicketsNFT.sol\":6538:7024  function sendTokenAndNFT(uint _id) private{... */\n      pop\n      jump\t// out\n        /* \"contracts/MagicTickets/MagicTicketsNFT.sol\":2088:2283  function transferNFT (uint _tokenID, address _NFTContract, address _from) private {... */\n    tag_142:\n        /* \"contracts/MagicTickets/MagicTicketsNFT.sol\":2181:2192  IERC721 nft */\n      0x00\n        /* \"contracts/MagicTickets/MagicTicketsNFT.sol\":2203:2215  _NFTContract */\n      dup3\n        /* \"contracts/MagicTickets/MagicTicketsNFT.sol\":2181:2216  IERC721 nft = IERC721(_NFTContract) */\n      swap1\n      pop\n        /* \"contracts/MagicTickets/MagicTicketsNFT.sol\":2227:2230  nft */\n      dup1\n        /* \"contracts/MagicTickets/MagicTicketsNFT.sol\":2227:2243  nft.transferFrom */\n      0xffffffffffffffffffffffffffffffffffffffff\n      and\n      0x23b872dd\n        /* \"contracts/MagicTickets/MagicTicketsNFT.sol\":2244:2249  _from */\n      dup4\n        /* \"contracts/MagicTickets/MagicTicketsNFT.sol\":2259:2263  this */\n      address\n        /* \"contracts/MagicTickets/MagicTicketsNFT.sol\":2266:2274  _tokenID */\n      dup8\n        /* \"contracts/MagicTickets/MagicTicketsNFT.sol\":2227:2275  nft.transferFrom(_from, address(this), _tokenID) */\n      mload(0x40)\n      dup5\n      0xffffffff\n      and\n      0xe0\n      shl\n      dup2\n      mstore\n      0x04\n      add\n      tag_231\n      swap4\n      swap3\n      swap2\n      swap1\n      tag_116\n      jump\t// in\n    tag_231:\n      0x00\n      mload(0x40)\n      dup1\n      dup4\n      sub\n      dup2\n      0x00\n      dup8\n      dup1\n      extcodesize\n      iszero\n      dup1\n      iszero\n      tag_232\n      jumpi\n      0x00\n      dup1\n      revert\n    tag_232:\n      pop\n      gas\n      call\n      iszero\n      dup1\n      iszero\n      tag_234\n      jumpi\n      returndatasize\n      0x00\n      dup1\n      returndatacopy\n      revert(0x00, returndatasize)\n    tag_234:\n      pop\n      pop\n      pop\n      pop\n        /* \"contracts/MagicTickets/MagicTicketsNFT.sol\":2170:2283  {... */\n      pop\n        /* \"contracts/MagicTickets/MagicTicketsNFT.sol\":2088:2283  function transferNFT (uint _tokenID, address _NFTContract, address _from) private {... */\n      pop\n      pop\n      pop\n      jump\t// out\n        /* \"#utility.yul\":88:205   */\n    tag_236:\n        /* \"#utility.yul\":197:198   */\n      0x00\n        /* \"#utility.yul\":194:195   */\n      dup1\n        /* \"#utility.yul\":187:199   */\n      revert\n        /* \"#utility.yul\":211:328   */\n    tag_237:\n        /* \"#utility.yul\":320:321   */\n      0x00\n        /* \"#utility.yul\":317:318   */\n      dup1\n        /* \"#utility.yul\":310:322   */\n      revert\n        /* \"#utility.yul\":334:411   */\n    tag_238:\n        /* \"#utility.yul\":371:378   */\n      0x00\n        /* \"#utility.yul\":400:405   */\n      dup2\n        /* \"#utility.yul\":389:405   */\n      swap1\n      pop\n        /* \"#utility.yul\":334:411   */\n      swap2\n      swap1\n      pop\n      jump\t// out\n        /* \"#utility.yul\":417:539   */\n    tag_239:\n        /* \"#utility.yul\":490:514   */\n      tag_303\n        /* \"#utility.yul\":508:513   */\n      dup2\n        /* \"#utility.yul\":490:514   */\n      tag_238\n      jump\t// in\n    tag_303:\n        /* \"#utility.yul\":483:488   */\n      dup2\n        /* \"#utility.yul\":480:515   */\n      eq\n        /* \"#utility.yul\":470:533   */\n      tag_304\n      jumpi\n        /* \"#utility.yul\":529:530   */\n      0x00\n        /* \"#utility.yul\":526:527   */\n      dup1\n        /* \"#utility.yul\":519:531   */\n      revert\n        /* \"#utility.yul\":470:533   */\n    tag_304:\n        /* \"#utility.yul\":417:539   */\n      pop\n      jump\t// out\n        /* \"#utility.yul\":545:684   */\n    tag_240:\n        /* \"#utility.yul\":591:596   */\n      0x00\n        /* \"#utility.yul\":629:635   */\n      dup2\n        /* \"#utility.yul\":616:636   */\n      calldataload\n        /* \"#utility.yul\":607:636   */\n      swap1\n      pop\n        /* \"#utility.yul\":645:678   */\n      tag_306\n        /* \"#utility.yul\":672:677   */\n      dup2\n        /* \"#utility.yul\":645:678   */\n      tag_239\n      jump\t// in\n    tag_306:\n        /* \"#utility.yul\":545:684   */\n      swap3\n      swap2\n      pop\n      pop\n      jump\t// out\n        /* \"#utility.yul\":690:1019   */\n    tag_15:\n        /* \"#utility.yul\":749:755   */\n      0x00\n        /* \"#utility.yul\":798:800   */\n      0x20\n        /* \"#utility.yul\":786:795   */\n      dup3\n        /* \"#utility.yul\":777:784   */\n      dup5\n        /* \"#utility.yul\":773:796   */\n      sub\n        /* \"#utility.yul\":769:801   */\n      slt\n        /* \"#utility.yul\":766:885   */\n      iszero\n      tag_308\n      jumpi\n        /* \"#utility.yul\":804:883   */\n      tag_309\n      tag_236\n      jump\t// in\n    tag_309:\n        /* \"#utility.yul\":766:885   */\n    tag_308:\n        /* \"#utility.yul\":924:925   */\n      0x00\n        /* \"#utility.yul\":949:1002   */\n      tag_310\n        /* \"#utility.yul\":994:1001   */\n      dup5\n        /* \"#utility.yul\":985:991   */\n      dup3\n        /* \"#utility.yul\":974:983   */\n      dup6\n        /* \"#utility.yul\":970:992   */\n      add\n        /* \"#utility.yul\":949:1002   */\n      tag_240\n      jump\t// in\n    tag_310:\n        /* \"#utility.yul\":939:1002   */\n      swap2\n      pop\n        /* \"#utility.yul\":895:1012   */\n      pop\n        /* \"#utility.yul\":690:1019   */\n      swap3\n      swap2\n      pop\n      pop\n      jump\t// out\n        /* \"#utility.yul\":1025:1143   */\n    tag_241:\n        /* \"#utility.yul\":1112:1136   */\n      tag_312\n        /* \"#utility.yul\":1130:1135   */\n      dup2\n        /* \"#utility.yul\":1112:1136   */\n      tag_238\n      jump\t// in\n    tag_312:\n        /* \"#utility.yul\":1107:1110   */\n      dup3\n        /* \"#utility.yul\":1100:1137   */\n      mstore\n        /* \"#utility.yul\":1025:1143   */\n      pop\n      pop\n      jump\t// out\n        /* \"#utility.yul\":1149:1371   */\n    tag_18:\n        /* \"#utility.yul\":1242:1246   */\n      0x00\n        /* \"#utility.yul\":1280:1282   */\n      0x20\n        /* \"#utility.yul\":1269:1278   */\n      dup3\n        /* \"#utility.yul\":1265:1283   */\n      add\n        /* \"#utility.yul\":1257:1283   */\n      swap1\n      pop\n        /* \"#utility.yul\":1293:1364   */\n      tag_314\n        /* \"#utility.yul\":1361:1362   */\n      0x00\n        /* \"#utility.yul\":1350:1359   */\n      dup4\n        /* \"#utility.yul\":1346:1363   */\n      add\n        /* \"#utility.yul\":1337:1343   */\n      dup5\n        /* \"#utility.yul\":1293:1364   */\n      tag_241\n      jump\t// in\n    tag_314:\n        /* \"#utility.yul\":1149:1371   */\n      swap3\n      swap2\n      pop\n      pop\n      jump\t// out\n        /* \"#utility.yul\":1377:1851   */\n    tag_21:\n        /* \"#utility.yul\":1445:1451   */\n      0x00\n        /* \"#utility.yul\":1453:1459   */\n      dup1\n        /* \"#utility.yul\":1502:1504   */\n      0x40\n        /* \"#utility.yul\":1490:1499   */\n      dup4\n        /* \"#utility.yul\":1481:1488   */\n      dup6\n        /* \"#utility.yul\":1477:1500   */\n      sub\n        /* \"#utility.yul\":1473:1505   */\n      slt\n        /* \"#utility.yul\":1470:1589   */\n      iszero\n      tag_316\n      jumpi\n        /* \"#utility.yul\":1508:1587   */\n      tag_317\n      tag_236\n      jump\t// in\n    tag_317:\n        /* \"#utility.yul\":1470:1589   */\n    tag_316:\n        /* \"#utility.yul\":1628:1629   */\n      0x00\n        /* \"#utility.yul\":1653:1706   */\n      tag_318\n        /* \"#utility.yul\":1698:1705   */\n      dup6\n        /* \"#utility.yul\":1689:1695   */\n      dup3\n        /* \"#utility.yul\":1678:1687   */\n      dup7\n        /* \"#utility.yul\":1674:1696   */\n      add\n        /* \"#utility.yul\":1653:1706   */\n      tag_240\n      jump\t// in\n    tag_318:\n        /* \"#utility.yul\":1643:1706   */\n      swap3\n      pop\n        /* \"#utility.yul\":1599:1716   */\n      pop\n        /* \"#utility.yul\":1755:1757   */\n      0x20\n        /* \"#utility.yul\":1781:1834   */\n      tag_319\n        /* \"#utility.yul\":1826:1833   */\n      dup6\n        /* \"#utility.yul\":1817:1823   */\n      dup3\n        /* \"#utility.yul\":1806:1815   */\n      dup7\n        /* \"#utility.yul\":1802:1824   */\n      add\n        /* \"#utility.yul\":1781:1834   */\n      tag_240\n      jump\t// in\n    tag_319:\n        /* \"#utility.yul\":1771:1834   */\n      swap2\n      pop\n        /* \"#utility.yul\":1726:1844   */\n      pop\n        /* \"#utility.yul\":1377:1851   */\n      swap3\n      pop\n      swap3\n      swap1\n      pop\n      jump\t// out\n        /* \"#utility.yul\":1857:1983   */\n    tag_242:\n        /* \"#utility.yul\":1894:1901   */\n      0x00\n        /* \"#utility.yul\":1934:1976   */\n      0xffffffffffffffffffffffffffffffffffffffff\n        /* \"#utility.yul\":1927:1932   */\n      dup3\n        /* \"#utility.yul\":1923:1977   */\n      and\n        /* \"#utility.yul\":1912:1977   */\n      swap1\n      pop\n        /* \"#utility.yul\":1857:1983   */\n      swap2\n      swap1\n      pop\n      jump\t// out\n        /* \"#utility.yul\":1989:2085   */\n    tag_243:\n        /* \"#utility.yul\":2026:2033   */\n      0x00\n        /* \"#utility.yul\":2055:2079   */\n      tag_322\n        /* \"#utility.yul\":2073:2078   */\n      dup3\n        /* \"#utility.yul\":2055:2079   */\n      tag_242\n      jump\t// in\n    tag_322:\n        /* \"#utility.yul\":2044:2079   */\n      swap1\n      pop\n        /* \"#utility.yul\":1989:2085   */\n      swap2\n      swap1\n      pop\n      jump\t// out\n        /* \"#utility.yul\":2091:2209   */\n    tag_244:\n        /* \"#utility.yul\":2178:2202   */\n      tag_324\n        /* \"#utility.yul\":2196:2201   */\n      dup2\n        /* \"#utility.yul\":2178:2202   */\n      tag_243\n      jump\t// in\n    tag_324:\n        /* \"#utility.yul\":2173:2176   */\n      dup3\n        /* \"#utility.yul\":2166:2203   */\n      mstore\n        /* \"#utility.yul\":2091:2209   */\n      pop\n      pop\n      jump\t// out\n        /* \"#utility.yul\":2215:2437   */\n    tag_24:\n        /* \"#utility.yul\":2308:2312   */\n      0x00\n        /* \"#utility.yul\":2346:2348   */\n      0x20\n        /* \"#utility.yul\":2335:2344   */\n      dup3\n        /* \"#utility.yul\":2331:2349   */\n      add\n        /* \"#utility.yul\":2323:2349   */\n      swap1\n      pop\n        /* \"#utility.yul\":2359:2430   */\n      tag_326\n        /* \"#utility.yul\":2427:2428   */\n      0x00\n        /* \"#utility.yul\":2416:2425   */\n      dup4\n        /* \"#utility.yul\":2412:2429   */\n      add\n        /* \"#utility.yul\":2403:2409   */\n      dup5\n        /* \"#utility.yul\":2359:2430   */\n      tag_244\n      jump\t// in\n    tag_326:\n        /* \"#utility.yul\":2215:2437   */\n      swap3\n      swap2\n      pop\n      pop\n      jump\t// out\n        /* \"#utility.yul\":2443:2560   */\n    tag_245:\n        /* \"#utility.yul\":2552:2553   */\n      0x00\n        /* \"#utility.yul\":2549:2550   */\n      dup1\n        /* \"#utility.yul\":2542:2554   */\n      revert\n        /* \"#utility.yul\":2566:2683   */\n    tag_246:\n        /* \"#utility.yul\":2675:2676   */\n      0x00\n        /* \"#utility.yul\":2672:2673   */\n      dup1\n        /* \"#utility.yul\":2665:2677   */\n      revert\n        /* \"#utility.yul\":2689:2806   */\n    tag_247:\n        /* \"#utility.yul\":2798:2799   */\n      0x00\n        /* \"#utility.yul\":2795:2796   */\n      dup1\n        /* \"#utility.yul\":2788:2800   */\n      revert\n        /* \"#utility.yul\":2826:3379   */\n    tag_248:\n        /* \"#utility.yul\":2884:2892   */\n      0x00\n        /* \"#utility.yul\":2894:2900   */\n      dup1\n        /* \"#utility.yul\":2944:2947   */\n      dup4\n        /* \"#utility.yul\":2937:2941   */\n      0x1f\n        /* \"#utility.yul\":2929:2935   */\n      dup5\n        /* \"#utility.yul\":2925:2942   */\n      add\n        /* \"#utility.yul\":2921:2948   */\n      slt\n        /* \"#utility.yul\":2911:3033   */\n      tag_331\n      jumpi\n        /* \"#utility.yul\":2952:3031   */\n      tag_332\n      tag_245\n      jump\t// in\n    tag_332:\n        /* \"#utility.yul\":2911:3033   */\n    tag_331:\n        /* \"#utility.yul\":3065:3071   */\n      dup3\n        /* \"#utility.yul\":3052:3072   */\n      calldataload\n        /* \"#utility.yul\":3042:3072   */\n      swap1\n      pop\n        /* \"#utility.yul\":3095:3113   */\n      0xffffffffffffffff\n        /* \"#utility.yul\":3087:3093   */\n      dup2\n        /* \"#utility.yul\":3084:3114   */\n      gt\n        /* \"#utility.yul\":3081:3198   */\n      iszero\n      tag_333\n      jumpi\n        /* \"#utility.yul\":3117:3196   */\n      tag_334\n      tag_246\n      jump\t// in\n    tag_334:\n        /* \"#utility.yul\":3081:3198   */\n    tag_333:\n        /* \"#utility.yul\":3231:3235   */\n      0x20\n        /* \"#utility.yul\":3223:3229   */\n      dup4\n        /* \"#utility.yul\":3219:3236   */\n      add\n        /* \"#utility.yul\":3207:3236   */\n      swap2\n      pop\n        /* \"#utility.yul\":3285:3288   */\n      dup4\n        /* \"#utility.yul\":3277:3281   */\n      0x01\n        /* \"#utility.yul\":3269:3275   */\n      dup3\n        /* \"#utility.yul\":3265:3282   */\n      mul\n        /* \"#utility.yul\":3255:3263   */\n      dup4\n        /* \"#utility.yul\":3251:3283   */\n      add\n        /* \"#utility.yul\":3248:3289   */\n      gt\n        /* \"#utility.yul\":3245:3373   */\n      iszero\n      tag_335\n      jumpi\n        /* \"#utility.yul\":3292:3371   */\n      tag_336\n      tag_247\n      jump\t// in\n    tag_336:\n        /* \"#utility.yul\":3245:3373   */\n    tag_335:\n        /* \"#utility.yul\":2826:3379   */\n      swap3\n      pop\n      swap3\n      swap1\n      pop\n      jump\t// out\n        /* \"#utility.yul\":3385:4059   */\n    tag_27:\n        /* \"#utility.yul\":3465:3471   */\n      0x00\n        /* \"#utility.yul\":3473:3479   */\n      dup1\n        /* \"#utility.yul\":3481:3487   */\n      0x00\n        /* \"#utility.yul\":3530:3532   */\n      0x40\n        /* \"#utility.yul\":3518:3527   */\n      dup5\n        /* \"#utility.yul\":3509:3516   */\n      dup7\n        /* \"#utility.yul\":3505:3528   */\n      sub\n        /* \"#utility.yul\":3501:3533   */\n      slt\n        /* \"#utility.yul\":3498:3617   */\n      iszero\n      tag_338\n      jumpi\n        /* \"#utility.yul\":3536:3615   */\n      tag_339\n      tag_236\n      jump\t// in\n    tag_339:\n        /* \"#utility.yul\":3498:3617   */\n    tag_338:\n        /* \"#utility.yul\":3656:3657   */\n      0x00\n        /* \"#utility.yul\":3681:3734   */\n      tag_340\n        /* \"#utility.yul\":3726:3733   */\n      dup7\n        /* \"#utility.yul\":3717:3723   */\n      dup3\n        /* \"#utility.yul\":3706:3715   */\n      dup8\n        /* \"#utility.yul\":3702:3724   */\n      add\n        /* \"#utility.yul\":3681:3734   */\n      tag_240\n      jump\t// in\n    tag_340:\n        /* \"#utility.yul\":3671:3734   */\n      swap4\n      pop\n        /* \"#utility.yul\":3627:3744   */\n      pop\n        /* \"#utility.yul\":3811:3813   */\n      0x20\n        /* \"#utility.yul\":3800:3809   */\n      dup5\n        /* \"#utility.yul\":3796:3814   */\n      add\n        /* \"#utility.yul\":3783:3815   */\n      calldataload\n        /* \"#utility.yul\":3842:3860   */\n      0xffffffffffffffff\n        /* \"#utility.yul\":3834:3840   */\n      dup2\n        /* \"#utility.yul\":3831:3861   */\n      gt\n        /* \"#utility.yul\":3828:3945   */\n      iszero\n      tag_341\n      jumpi\n        /* \"#utility.yul\":3864:3943   */\n      tag_342\n      tag_237\n      jump\t// in\n    tag_342:\n        /* \"#utility.yul\":3828:3945   */\n    tag_341:\n        /* \"#utility.yul\":3977:4042   */\n      tag_343\n        /* \"#utility.yul\":4034:4041   */\n      dup7\n        /* \"#utility.yul\":4025:4031   */\n      dup3\n        /* \"#utility.yul\":4014:4023   */\n      dup8\n        /* \"#utility.yul\":4010:4032   */\n      add\n        /* \"#utility.yul\":3977:4042   */\n      tag_248\n      jump\t// in\n    tag_343:\n        /* \"#utility.yul\":3959:4042   */\n      swap3\n      pop\n      swap3\n      pop\n        /* \"#utility.yul\":3754:4052   */\n      pop\n        /* \"#utility.yul\":3385:4059   */\n      swap3\n      pop\n      swap3\n      pop\n      swap3\n      jump\t// out\n        /* \"#utility.yul\":4065:4245   */\n    tag_68:\n        /* \"#utility.yul\":4113:4190   */\n      0x4e487b7100000000000000000000000000000000000000000000000000000000\n        /* \"#utility.yul\":4110:4111   */\n      0x00\n        /* \"#utility.yul\":4103:4191   */\n      mstore\n        /* \"#utility.yul\":4210:4214   */\n      0x21\n        /* \"#utility.yul\":4207:4208   */\n      0x04\n        /* \"#utility.yul\":4200:4215   */\n      mstore\n        /* \"#utility.yul\":4234:4238   */\n      0x24\n        /* \"#utility.yul\":4231:4232   */\n      0x00\n        /* \"#utility.yul\":4224:4239   */\n      revert\n        /* \"#utility.yul\":4251:4366   */\n    tag_249:\n        /* \"#utility.yul\":4334:4335   */\n      0x03\n        /* \"#utility.yul\":4327:4332   */\n      dup2\n        /* \"#utility.yul\":4324:4336   */\n      lt\n        /* \"#utility.yul\":4314:4360   */\n      tag_346\n      jumpi\n        /* \"#utility.yul\":4340:4358   */\n      tag_347\n      tag_68\n      jump\t// in\n    tag_347:\n        /* \"#utility.yul\":4314:4360   */\n    tag_346:\n        /* \"#utility.yul\":4251:4366   */\n      pop\n      jump\t// out\n        /* \"#utility.yul\":4372:4503   */\n    tag_250:\n        /* \"#utility.yul\":4419:4426   */\n      0x00\n        /* \"#utility.yul\":4448:4453   */\n      dup2\n        /* \"#utility.yul\":4437:4453   */\n      swap1\n      pop\n        /* \"#utility.yul\":4454:4497   */\n      tag_349\n        /* \"#utility.yul\":4491:4496   */\n      dup3\n        /* \"#utility.yul\":4454:4497   */\n      tag_249\n      jump\t// in\n    tag_349:\n        /* \"#utility.yul\":4372:4503   */\n      swap2\n      swap1\n      pop\n      jump\t// out\n        /* \"#utility.yul\":4509:4640   */\n    tag_251:\n        /* \"#utility.yul\":4567:4576   */\n      0x00\n        /* \"#utility.yul\":4600:4634   */\n      tag_351\n        /* \"#utility.yul\":4628:4633   */\n      dup3\n        /* \"#utility.yul\":4600:4634   */\n      tag_250\n      jump\t// in\n    tag_351:\n        /* \"#utility.yul\":4587:4634   */\n      swap1\n      pop\n        /* \"#utility.yul\":4509:4640   */\n      swap2\n      swap1\n      pop\n      jump\t// out\n        /* \"#utility.yul\":4646:4793   */\n    tag_252:\n        /* \"#utility.yul\":4741:4786   */\n      tag_353\n        /* \"#utility.yul\":4780:4785   */\n      dup2\n        /* \"#utility.yul\":4741:4786   */\n      tag_251\n      jump\t// in\n    tag_353:\n        /* \"#utility.yul\":4736:4739   */\n      dup3\n        /* \"#utility.yul\":4729:4787   */\n      mstore\n        /* \"#utility.yul\":4646:4793   */\n      pop\n      pop\n      jump\t// out\n        /* \"#utility.yul\":4799:6260   */\n    tag_33:\n        /* \"#utility.yul\":5210:5214   */\n      0x00\n        /* \"#utility.yul\":5248:5251   */\n      0x0180\n        /* \"#utility.yul\":5237:5246   */\n      dup3\n        /* \"#utility.yul\":5233:5252   */\n      add\n        /* \"#utility.yul\":5225:5252   */\n      swap1\n      pop\n        /* \"#utility.yul\":5262:5341   */\n      tag_355\n        /* \"#utility.yul\":5338:5339   */\n      0x00\n        /* \"#utility.yul\":5327:5336   */\n      dup4\n        /* \"#utility.yul\":5323:5340   */\n      add\n        /* \"#utility.yul\":5314:5320   */\n      dup16\n        /* \"#utility.yul\":5262:5341   */\n      tag_252\n      jump\t// in\n    tag_355:\n        /* \"#utility.yul\":5351:5423   */\n      tag_356\n        /* \"#utility.yul\":5419:5421   */\n      0x20\n        /* \"#utility.yul\":5408:5417   */\n      dup4\n        /* \"#utility.yul\":5404:5422   */\n      add\n        /* \"#utility.yul\":5395:5401   */\n      dup15\n        /* \"#utility.yul\":5351:5423   */\n      tag_241\n      jump\t// in\n    tag_356:\n        /* \"#utility.yul\":5433:5505   */\n      tag_357\n        /* \"#utility.yul\":5501:5503   */\n      0x40\n        /* \"#utility.yul\":5490:5499   */\n      dup4\n        /* \"#utility.yul\":5486:5504   */\n      add\n        /* \"#utility.yul\":5477:5483   */\n      dup14\n        /* \"#utility.yul\":5433:5505   */\n      tag_241\n      jump\t// in\n    tag_357:\n        /* \"#utility.yul\":5515:5587   */\n      tag_358\n        /* \"#utility.yul\":5583:5585   */\n      0x60\n        /* \"#utility.yul\":5572:5581   */\n      dup4\n        /* \"#utility.yul\":5568:5586   */\n      add\n        /* \"#utility.yul\":5559:5565   */\n      dup13\n        /* \"#utility.yul\":5515:5587   */\n      tag_241\n      jump\t// in\n    tag_358:\n        /* \"#utility.yul\":5597:5670   */\n      tag_359\n        /* \"#utility.yul\":5665:5668   */\n      0x80\n        /* \"#utility.yul\":5654:5663   */\n      dup4\n        /* \"#utility.yul\":5650:5669   */\n      add\n        /* \"#utility.yul\":5641:5647   */\n      dup12\n        /* \"#utility.yul\":5597:5670   */\n      tag_241\n      jump\t// in\n    tag_359:\n        /* \"#utility.yul\":5680:5753   */\n      tag_360\n        /* \"#utility.yul\":5748:5751   */\n      0xa0\n        /* \"#utility.yul\":5737:5746   */\n      dup4\n        /* \"#utility.yul\":5733:5752   */\n      add\n        /* \"#utility.yul\":5724:5730   */\n      dup11\n        /* \"#utility.yul\":5680:5753   */\n      tag_241\n      jump\t// in\n    tag_360:\n        /* \"#utility.yul\":5763:5836   */\n      tag_361\n        /* \"#utility.yul\":5831:5834   */\n      0xc0\n        /* \"#utility.yul\":5820:5829   */\n      dup4\n        /* \"#utility.yul\":5816:5835   */\n      add\n        /* \"#utility.yul\":5807:5813   */\n      dup10\n        /* \"#utility.yul\":5763:5836   */\n      tag_241\n      jump\t// in\n    tag_361:\n        /* \"#utility.yul\":5846:5919   */\n      tag_362\n        /* \"#utility.yul\":5914:5917   */\n      0xe0\n        /* \"#utility.yul\":5903:5912   */\n      dup4\n        /* \"#utility.yul\":5899:5918   */\n      add\n        /* \"#utility.yul\":5890:5896   */\n      dup9\n        /* \"#utility.yul\":5846:5919   */\n      tag_244\n      jump\t// in\n    tag_362:\n        /* \"#utility.yul\":5929:6002   */\n      tag_363\n        /* \"#utility.yul\":5997:6000   */\n      0x0100\n        /* \"#utility.yul\":5986:5995   */\n      dup4\n        /* \"#utility.yul\":5982:6001   */\n      add\n        /* \"#utility.yul\":5973:5979   */\n      dup8\n        /* \"#utility.yul\":5929:6002   */\n      tag_241\n      jump\t// in\n    tag_363:\n        /* \"#utility.yul\":6012:6085   */\n      tag_364\n        /* \"#utility.yul\":6080:6083   */\n      0x0120\n        /* \"#utility.yul\":6069:6078   */\n      dup4\n        /* \"#utility.yul\":6065:6084   */\n      add\n        /* \"#utility.yul\":6056:6062   */\n      dup7\n        /* \"#utility.yul\":6012:6085   */\n      tag_244\n      jump\t// in\n    tag_364:\n        /* \"#utility.yul\":6095:6169   */\n      tag_365\n        /* \"#utility.yul\":6164:6167   */\n      0x0140\n        /* \"#utility.yul\":6153:6162   */\n      dup4\n        /* \"#utility.yul\":6149:6168   */\n      add\n        /* \"#utility.yul\":6139:6146   */\n      dup6\n        /* \"#utility.yul\":6095:6169   */\n      tag_244\n      jump\t// in\n    tag_365:\n        /* \"#utility.yul\":6179:6253   */\n      tag_366\n        /* \"#utility.yul\":6248:6251   */\n      0x0160\n        /* \"#utility.yul\":6237:6246   */\n      dup4\n        /* \"#utility.yul\":6233:6252   */\n      add\n        /* \"#utility.yul\":6223:6230   */\n      dup5\n        /* \"#utility.yul\":6179:6253   */\n      tag_244\n      jump\t// in\n    tag_366:\n        /* \"#utility.yul\":4799:6260   */\n      swap14\n      swap13\n      pop\n      pop\n      pop\n      pop\n      pop\n      pop\n      pop\n      pop\n      pop\n      pop\n      pop\n      pop\n      pop\n      jump\t// out\n        /* \"#utility.yul\":6266:6388   */\n    tag_253:\n        /* \"#utility.yul\":6339:6363   */\n      tag_368\n        /* \"#utility.yul\":6357:6362   */\n      dup2\n        /* \"#utility.yul\":6339:6363   */\n      tag_243\n      jump\t// in\n    tag_368:\n        /* \"#utility.yul\":6332:6337   */\n      dup2\n        /* \"#utility.yul\":6329:6364   */\n      eq\n        /* \"#utility.yul\":6319:6382   */\n      tag_369\n      jumpi\n        /* \"#utility.yul\":6378:6379   */\n      0x00\n        /* \"#utility.yul\":6375:6376   */\n      dup1\n        /* \"#utility.yul\":6368:6380   */\n      revert\n        /* \"#utility.yul\":6319:6382   */\n    tag_369:\n        /* \"#utility.yul\":6266:6388   */\n      pop\n      jump\t// out\n        /* \"#utility.yul\":6394:6533   */\n    tag_254:\n        /* \"#utility.yul\":6440:6445   */\n      0x00\n        /* \"#utility.yul\":6478:6484   */\n      dup2\n        /* \"#utility.yul\":6465:6485   */\n      calldataload\n        /* \"#utility.yul\":6456:6485   */\n      swap1\n      pop\n        /* \"#utility.yul\":6494:6527   */\n      tag_371\n        /* \"#utility.yul\":6521:6526   */\n      dup2\n        /* \"#utility.yul\":6494:6527   */\n      tag_253\n      jump\t// in\n    tag_371:\n        /* \"#utility.yul\":6394:6533   */\n      swap3\n      swap2\n      pop\n      pop\n      jump\t// out\n        /* \"#utility.yul\":6539:7596   */\n    tag_39:\n        /* \"#utility.yul\":6643:6649   */\n      0x00\n        /* \"#utility.yul\":6651:6657   */\n      dup1\n        /* \"#utility.yul\":6659:6665   */\n      0x00\n        /* \"#utility.yul\":6667:6673   */\n      dup1\n        /* \"#utility.yul\":6675:6681   */\n      0x00\n        /* \"#utility.yul\":6683:6689   */\n      dup1\n        /* \"#utility.yul\":6732:6735   */\n      0xc0\n        /* \"#utility.yul\":6720:6729   */\n      dup8\n        /* \"#utility.yul\":6711:6718   */\n      dup10\n        /* \"#utility.yul\":6707:6730   */\n      sub\n        /* \"#utility.yul\":6703:6736   */\n      slt\n        /* \"#utility.yul\":6700:6820   */\n      iszero\n      tag_373\n      jumpi\n        /* \"#utility.yul\":6739:6818   */\n      tag_374\n      tag_236\n      jump\t// in\n    tag_374:\n        /* \"#utility.yul\":6700:6820   */\n    tag_373:\n        /* \"#utility.yul\":6859:6860   */\n      0x00\n        /* \"#utility.yul\":6884:6937   */\n      tag_375\n        /* \"#utility.yul\":6929:6936   */\n      dup10\n        /* \"#utility.yul\":6920:6926   */\n      dup3\n        /* \"#utility.yul\":6909:6918   */\n      dup11\n        /* \"#utility.yul\":6905:6927   */\n      add\n        /* \"#utility.yul\":6884:6937   */\n      tag_240\n      jump\t// in\n    tag_375:\n        /* \"#utility.yul\":6874:6937   */\n      swap7\n      pop\n        /* \"#utility.yul\":6830:6947   */\n      pop\n        /* \"#utility.yul\":6986:6988   */\n      0x20\n        /* \"#utility.yul\":7012:7065   */\n      tag_376\n        /* \"#utility.yul\":7057:7064   */\n      dup10\n        /* \"#utility.yul\":7048:7054   */\n      dup3\n        /* \"#utility.yul\":7037:7046   */\n      dup11\n        /* \"#utility.yul\":7033:7055   */\n      add\n        /* \"#utility.yul\":7012:7065   */\n      tag_240\n      jump\t// in\n    tag_376:\n        /* \"#utility.yul\":7002:7065   */\n      swap6\n      pop\n        /* \"#utility.yul\":6957:7075   */\n      pop\n        /* \"#utility.yul\":7114:7116   */\n      0x40\n        /* \"#utility.yul\":7140:7193   */\n      tag_377\n        /* \"#utility.yul\":7185:7192   */\n      dup10\n        /* \"#utility.yul\":7176:7182   */\n      dup3\n        /* \"#utility.yul\":7165:7174   */\n      dup11\n        /* \"#utility.yul\":7161:7183   */\n      add\n        /* \"#utility.yul\":7140:7193   */\n      tag_254\n      jump\t// in\n    tag_377:\n        /* \"#utility.yul\":7130:7193   */\n      swap5\n      pop\n        /* \"#utility.yul\":7085:7203   */\n      pop\n        /* \"#utility.yul\":7242:7244   */\n      0x60\n        /* \"#utility.yul\":7268:7321   */\n      tag_378\n        /* \"#utility.yul\":7313:7320   */\n      dup10\n        /* \"#utility.yul\":7304:7310   */\n      dup3\n        /* \"#utility.yul\":7293:7302   */\n      dup11\n        /* \"#utility.yul\":7289:7311   */\n      add\n        /* \"#utility.yul\":7268:7321   */\n      tag_240\n      jump\t// in\n    tag_378:\n        /* \"#utility.yul\":7258:7321   */\n      swap4\n      pop\n        /* \"#utility.yul\":7213:7331   */\n      pop\n        /* \"#utility.yul\":7370:7373   */\n      0x80\n        /* \"#utility.yul\":7397:7450   */\n      tag_379\n        /* \"#utility.yul\":7442:7449   */\n      dup10\n        /* \"#utility.yul\":7433:7439   */\n      dup3\n        /* \"#utility.yul\":7422:7431   */\n      dup11\n        /* \"#utility.yul\":7418:7440   */\n      add\n        /* \"#utility.yul\":7397:7450   */\n      tag_240\n      jump\t// in\n    tag_379:\n        /* \"#utility.yul\":7387:7450   */\n      swap3\n      pop\n        /* \"#utility.yul\":7341:7460   */\n      pop\n        /* \"#utility.yul\":7499:7502   */\n      0xa0\n        /* \"#utility.yul\":7526:7579   */\n      tag_380\n        /* \"#utility.yul\":7571:7578   */\n      dup10\n        /* \"#utility.yul\":7562:7568   */\n      dup3\n        /* \"#utility.yul\":7551:7560   */\n      dup11\n        /* \"#utility.yul\":7547:7569   */\n      add\n        /* \"#utility.yul\":7526:7579   */\n      tag_254\n      jump\t// in\n    tag_380:\n        /* \"#utility.yul\":7516:7579   */\n      swap2\n      pop\n        /* \"#utility.yul\":7470:7589   */\n      pop\n        /* \"#utility.yul\":6539:7596   */\n      swap3\n      swap6\n      pop\n      swap3\n      swap6\n      pop\n      swap3\n      swap6\n      jump\t// out\n        /* \"#utility.yul\":7602:8221   */\n    tag_47:\n        /* \"#utility.yul\":7679:7685   */\n      0x00\n        /* \"#utility.yul\":7687:7693   */\n      dup1\n        /* \"#utility.yul\":7695:7701   */\n      0x00\n        /* \"#utility.yul\":7744:7746   */\n      0x60\n        /* \"#utility.yul\":7732:7741   */\n      dup5\n        /* \"#utility.yul\":7723:7730   */\n      dup7\n        /* \"#utility.yul\":7719:7742   */\n      sub\n        /* \"#utility.yul\":7715:7747   */\n      slt\n        /* \"#utility.yul\":7712:7831   */\n      iszero\n      tag_382\n      jumpi\n        /* \"#utility.yul\":7750:7829   */\n      tag_383\n      tag_236\n      jump\t// in\n    tag_383:\n        /* \"#utility.yul\":7712:7831   */\n    tag_382:\n        /* \"#utility.yul\":7870:7871   */\n      0x00\n        /* \"#utility.yul\":7895:7948   */\n      tag_384\n        /* \"#utility.yul\":7940:7947   */\n      dup7\n        /* \"#utility.yul\":7931:7937   */\n      dup3\n        /* \"#utility.yul\":7920:7929   */\n      dup8\n        /* \"#utility.yul\":7916:7938   */\n      add\n        /* \"#utility.yul\":7895:7948   */\n      tag_240\n      jump\t// in\n    tag_384:\n        /* \"#utility.yul\":7885:7948   */\n      swap4\n      pop\n        /* \"#utility.yul\":7841:7958   */\n      pop\n        /* \"#utility.yul\":7997:7999   */\n      0x20\n        /* \"#utility.yul\":8023:8076   */\n      tag_385\n        /* \"#utility.yul\":8068:8075   */\n      dup7\n        /* \"#utility.yul\":8059:8065   */\n      dup3\n        /* \"#utility.yul\":8048:8057   */\n      dup8\n        /* \"#utility.yul\":8044:8066   */\n      add\n        /* \"#utility.yul\":8023:8076   */\n      tag_240\n      jump\t// in\n    tag_385:\n        /* \"#utility.yul\":8013:8076   */\n      swap3\n      pop\n        /* \"#utility.yul\":7968:8086   */\n      pop\n        /* \"#utility.yul\":8125:8127   */\n      0x40\n        /* \"#utility.yul\":8151:8204   */\n      tag_386\n        /* \"#utility.yul\":8196:8203   */\n      dup7\n        /* \"#utility.yul\":8187:8193   */\n      dup3\n        /* \"#utility.yul\":8176:8185   */\n      dup8\n        /* \"#utility.yul\":8172:8194   */\n      add\n        /* \"#utility.yul\":8151:8204   */\n      tag_254\n      jump\t// in\n    tag_386:\n        /* \"#utility.yul\":8141:8204   */\n      swap2\n      pop\n        /* \"#utility.yul\":8096:8214   */\n      pop\n        /* \"#utility.yul\":7602:8221   */\n      swap3\n      pop\n      swap3\n      pop\n      swap3\n      jump\t// out\n        /* \"#utility.yul\":8227:8407   */\n    tag_55:\n        /* \"#utility.yul\":8275:8352   */\n      0x4e487b7100000000000000000000000000000000000000000000000000000000\n        /* \"#utility.yul\":8272:8273   */\n      0x00\n        /* \"#utility.yul\":8265:8353   */\n      mstore\n        /* \"#utility.yul\":8372:8376   */\n      0x32\n        /* \"#utility.yul\":8369:8370   */\n      0x04\n        /* \"#utility.yul\":8362:8377   */\n      mstore\n        /* \"#utility.yul\":8396:8400   */\n      0x24\n        /* \"#utility.yul\":8393:8394   */\n      0x00\n        /* \"#utility.yul\":8386:8401   */\n      revert\n        /* \"#utility.yul\":8413:8582   */\n    tag_255:\n        /* \"#utility.yul\":8497:8508   */\n      0x00\n        /* \"#utility.yul\":8531:8537   */\n      dup3\n        /* \"#utility.yul\":8526:8529   */\n      dup3\n        /* \"#utility.yul\":8519:8538   */\n      mstore\n        /* \"#utility.yul\":8571:8575   */\n      0x20\n        /* \"#utility.yul\":8566:8569   */\n      dup3\n        /* \"#utility.yul\":8562:8576   */\n      add\n        /* \"#utility.yul\":8547:8576   */\n      swap1\n      pop\n        /* \"#utility.yul\":8413:8582   */\n      swap3\n      swap2\n      pop\n      pop\n      jump\t// out\n        /* \"#utility.yul\":8588:8826   */\n    tag_256:\n        /* \"#utility.yul\":8728:8762   */\n      0x4170656e6173206f206f776e657220706f6465207265616c697a617220612063\n        /* \"#utility.yul\":8724:8725   */\n      0x00\n        /* \"#utility.yul\":8716:8722   */\n      dup3\n        /* \"#utility.yul\":8712:8726   */\n      add\n        /* \"#utility.yul\":8705:8763   */\n      mstore\n        /* \"#utility.yul\":8797:8818   */\n      0x68616d6164612064657373612066756e63616f00000000000000000000000000\n        /* \"#utility.yul\":8792:8794   */\n      0x20\n        /* \"#utility.yul\":8784:8790   */\n      dup3\n        /* \"#utility.yul\":8780:8795   */\n      add\n        /* \"#utility.yul\":8773:8819   */\n      mstore\n        /* \"#utility.yul\":8588:8826   */\n      pop\n      jump\t// out\n        /* \"#utility.yul\":8832:9198   */\n    tag_257:\n        /* \"#utility.yul\":8974:8977   */\n      0x00\n        /* \"#utility.yul\":8995:9062   */\n      tag_391\n        /* \"#utility.yul\":9059:9061   */\n      0x33\n        /* \"#utility.yul\":9054:9057   */\n      dup4\n        /* \"#utility.yul\":8995:9062   */\n      tag_255\n      jump\t// in\n    tag_391:\n        /* \"#utility.yul\":8988:9062   */\n      swap2\n      pop\n        /* \"#utility.yul\":9071:9164   */\n      tag_392\n        /* \"#utility.yul\":9160:9163   */\n      dup3\n        /* \"#utility.yul\":9071:9164   */\n      tag_256\n      jump\t// in\n    tag_392:\n        /* \"#utility.yul\":9189:9191   */\n      0x40\n        /* \"#utility.yul\":9184:9187   */\n      dup3\n        /* \"#utility.yul\":9180:9192   */\n      add\n        /* \"#utility.yul\":9173:9192   */\n      swap1\n      pop\n        /* \"#utility.yul\":8832:9198   */\n      swap2\n      swap1\n      pop\n      jump\t// out\n        /* \"#utility.yul\":9204:9623   */\n    tag_62:\n        /* \"#utility.yul\":9370:9374   */\n      0x00\n        /* \"#utility.yul\":9408:9410   */\n      0x20\n        /* \"#utility.yul\":9397:9406   */\n      dup3\n        /* \"#utility.yul\":9393:9411   */\n      add\n        /* \"#utility.yul\":9385:9411   */\n      swap1\n      pop\n        /* \"#utility.yul\":9457:9466   */\n      dup2\n        /* \"#utility.yul\":9451:9455   */\n      dup2\n        /* \"#utility.yul\":9447:9467   */\n      sub\n        /* \"#utility.yul\":9443:9444   */\n      0x00\n        /* \"#utility.yul\":9432:9441   */\n      dup4\n        /* \"#utility.yul\":9428:9445   */\n      add\n        /* \"#utility.yul\":9421:9468   */\n      mstore\n        /* \"#utility.yul\":9485:9616   */\n      tag_394\n        /* \"#utility.yul\":9611:9615   */\n      dup2\n        /* \"#utility.yul\":9485:9616   */\n      tag_257\n      jump\t// in\n    tag_394:\n        /* \"#utility.yul\":9477:9616   */\n      swap1\n      pop\n        /* \"#utility.yul\":9204:9623   */\n      swap2\n      swap1\n      pop\n      jump\t// out\n        /* \"#utility.yul\":9629:9805   */\n    tag_258:\n        /* \"#utility.yul\":9769:9797   */\n      0x4f20526166666c65206a6120666f692066696e616c697a61646f000000000000\n        /* \"#utility.yul\":9765:9766   */\n      0x00\n        /* \"#utility.yul\":9757:9763   */\n      dup3\n        /* \"#utility.yul\":9753:9767   */\n      add\n        /* \"#utility.yul\":9746:9798   */\n      mstore\n        /* \"#utility.yul\":9629:9805   */\n      pop\n      jump\t// out\n        /* \"#utility.yul\":9811:10177   */\n    tag_259:\n        /* \"#utility.yul\":9953:9956   */\n      0x00\n        /* \"#utility.yul\":9974:10041   */\n      tag_397\n        /* \"#utility.yul\":10038:10040   */\n      0x1a\n        /* \"#utility.yul\":10033:10036   */\n      dup4\n        /* \"#utility.yul\":9974:10041   */\n      tag_255\n      jump\t// in\n    tag_397:\n        /* \"#utility.yul\":9967:10041   */\n      swap2\n      pop\n        /* \"#utility.yul\":10050:10143   */\n      tag_398\n        /* \"#utility.yul\":10139:10142   */\n      dup3\n        /* \"#utility.yul\":10050:10143   */\n      tag_258\n      jump\t// in\n    tag_398:\n        /* \"#utility.yul\":10168:10170   */\n      0x20\n        /* \"#utility.yul\":10163:10166   */\n      dup3\n        /* \"#utility.yul\":10159:10171   */\n      add\n        /* \"#utility.yul\":10152:10171   */\n      swap1\n      pop\n        /* \"#utility.yul\":9811:10177   */\n      swap2\n      swap1\n      pop\n      jump\t// out\n        /* \"#utility.yul\":10183:10602   */\n    tag_78:\n        /* \"#utility.yul\":10349:10353   */\n      0x00\n        /* \"#utility.yul\":10387:10389   */\n      0x20\n        /* \"#utility.yul\":10376:10385   */\n      dup3\n        /* \"#utility.yul\":10372:10390   */\n      add\n        /* \"#utility.yul\":10364:10390   */\n      swap1\n      pop\n        /* \"#utility.yul\":10436:10445   */\n      dup2\n        /* \"#utility.yul\":10430:10434   */\n      dup2\n        /* \"#utility.yul\":10426:10446   */\n      sub\n        /* \"#utility.yul\":10422:10423   */\n      0x00\n        /* \"#utility.yul\":10411:10420   */\n      dup4\n        /* \"#utility.yul\":10407:10424   */\n      add\n        /* \"#utility.yul\":10400:10447   */\n      mstore\n        /* \"#utility.yul\":10464:10595   */\n      tag_400\n        /* \"#utility.yul\":10590:10594   */\n      dup2\n        /* \"#utility.yul\":10464:10595   */\n      tag_259\n      jump\t// in\n    tag_400:\n        /* \"#utility.yul\":10456:10595   */\n      swap1\n      pop\n        /* \"#utility.yul\":10183:10602   */\n      swap2\n      swap1\n      pop\n      jump\t// out\n        /* \"#utility.yul\":10608:10830   */\n    tag_260:\n        /* \"#utility.yul\":10748:10782   */\n      0x5175616e746964616465206465207469636b65747320696e737566696369656e\n        /* \"#utility.yul\":10744:10745   */\n      0x00\n        /* \"#utility.yul\":10736:10742   */\n      dup3\n        /* \"#utility.yul\":10732:10746   */\n      add\n        /* \"#utility.yul\":10725:10783   */\n      mstore\n        /* \"#utility.yul\":10817:10822   */\n      0x7465730000000000000000000000000000000000000000000000000000000000\n        /* \"#utility.yul\":10812:10814   */\n      0x20\n        /* \"#utility.yul\":10804:10810   */\n      dup3\n        /* \"#utility.yul\":10800:10815   */\n      add\n        /* \"#utility.yul\":10793:10823   */\n      mstore\n        /* \"#utility.yul\":10608:10830   */\n      pop\n      jump\t// out\n        /* \"#utility.yul\":10836:11202   */\n    tag_261:\n        /* \"#utility.yul\":10978:10981   */\n      0x00\n        /* \"#utility.yul\":10999:11066   */\n      tag_403\n        /* \"#utility.yul\":11063:11065   */\n      0x23\n        /* \"#utility.yul\":11058:11061   */\n      dup4\n        /* \"#utility.yul\":10999:11066   */\n      tag_255\n      jump\t// in\n    tag_403:\n        /* \"#utility.yul\":10992:11066   */\n      swap2\n      pop\n        /* \"#utility.yul\":11075:11168   */\n      tag_404\n        /* \"#utility.yul\":11164:11167   */\n      dup3\n        /* \"#utility.yul\":11075:11168   */\n      tag_260\n      jump\t// in\n    tag_404:\n        /* \"#utility.yul\":11193:11195   */\n      0x40\n        /* \"#utility.yul\":11188:11191   */\n      dup3\n        /* \"#utility.yul\":11184:11196   */\n      add\n        /* \"#utility.yul\":11177:11196   */\n      swap1\n      pop\n        /* \"#utility.yul\":10836:11202   */\n      swap2\n      swap1\n      pop\n      jump\t// out\n        /* \"#utility.yul\":11208:11627   */\n    tag_81:\n        /* \"#utility.yul\":11374:11378   */\n      0x00\n        /* \"#utility.yul\":11412:11414   */\n      0x20\n        /* \"#utility.yul\":11401:11410   */\n      dup3\n        /* \"#utility.yul\":11397:11415   */\n      add\n        /* \"#utility.yul\":11389:11415   */\n      swap1\n      pop\n        /* \"#utility.yul\":11461:11470   */\n      dup2\n        /* \"#utility.yul\":11455:11459   */\n      dup2\n        /* \"#utility.yul\":11451:11471   */\n      sub\n        /* \"#utility.yul\":11447:11448   */\n      0x00\n        /* \"#utility.yul\":11436:11445   */\n      dup4\n        /* \"#utility.yul\":11432:11449   */\n      add\n        /* \"#utility.yul\":11425:11472   */\n      mstore\n        /* \"#utility.yul\":11489:11620   */\n      tag_406\n        /* \"#utility.yul\":11615:11619   */\n      dup2\n        /* \"#utility.yul\":11489:11620   */\n      tag_261\n      jump\t// in\n    tag_406:\n        /* \"#utility.yul\":11481:11620   */\n      swap1\n      pop\n        /* \"#utility.yul\":11208:11627   */\n      swap2\n      swap1\n      pop\n      jump\t// out\n        /* \"#utility.yul\":11633:11813   */\n    tag_262:\n        /* \"#utility.yul\":11681:11758   */\n      0x4e487b7100000000000000000000000000000000000000000000000000000000\n        /* \"#utility.yul\":11678:11679   */\n      0x00\n        /* \"#utility.yul\":11671:11759   */\n      mstore\n        /* \"#utility.yul\":11778:11782   */\n      0x11\n        /* \"#utility.yul\":11775:11776   */\n      0x04\n        /* \"#utility.yul\":11768:11783   */\n      mstore\n        /* \"#utility.yul\":11802:11806   */\n      0x24\n        /* \"#utility.yul\":11799:11800   */\n      0x00\n        /* \"#utility.yul\":11792:11807   */\n      revert\n        /* \"#utility.yul\":11819:12013   */\n    tag_84:\n        /* \"#utility.yul\":11859:11863   */\n      0x00\n        /* \"#utility.yul\":11879:11899   */\n      tag_409\n        /* \"#utility.yul\":11897:11898   */\n      dup3\n        /* \"#utility.yul\":11879:11899   */\n      tag_238\n      jump\t// in\n    tag_409:\n        /* \"#utility.yul\":11874:11899   */\n      swap2\n      pop\n        /* \"#utility.yul\":11913:11933   */\n      tag_410\n        /* \"#utility.yul\":11931:11932   */\n      dup4\n        /* \"#utility.yul\":11913:11933   */\n      tag_238\n      jump\t// in\n    tag_410:\n        /* \"#utility.yul\":11908:11933   */\n      swap3\n      pop\n        /* \"#utility.yul\":11957:11958   */\n      dup3\n        /* \"#utility.yul\":11954:11955   */\n      dup3\n        /* \"#utility.yul\":11950:11959   */\n      sub\n        /* \"#utility.yul\":11942:11959   */\n      swap1\n      pop\n        /* \"#utility.yul\":11981:11982   */\n      dup2\n        /* \"#utility.yul\":11975:11979   */\n      dup2\n        /* \"#utility.yul\":11972:11983   */\n      gt\n        /* \"#utility.yul\":11969:12006   */\n      iszero\n      tag_411\n      jumpi\n        /* \"#utility.yul\":11986:12004   */\n      tag_412\n      tag_262\n      jump\t// in\n    tag_412:\n        /* \"#utility.yul\":11969:12006   */\n    tag_411:\n        /* \"#utility.yul\":11819:12013   */\n      swap3\n      swap2\n      pop\n      pop\n      jump\t// out\n        /* \"#utility.yul\":12019:12250   */\n    tag_263:\n        /* \"#utility.yul\":12159:12193   */\n      0x4170656e6173206f2073656c6c657220706f6465207265616c697a6172206f20\n        /* \"#utility.yul\":12155:12156   */\n      0x00\n        /* \"#utility.yul\":12147:12153   */\n      dup3\n        /* \"#utility.yul\":12143:12157   */\n      add\n        /* \"#utility.yul\":12136:12194   */\n      mstore\n        /* \"#utility.yul\":12228:12242   */\n      0x63616e63656c616d656e746f0000000000000000000000000000000000000000\n        /* \"#utility.yul\":12223:12225   */\n      0x20\n        /* \"#utility.yul\":12215:12221   */\n      dup3\n        /* \"#utility.yul\":12211:12226   */\n      add\n        /* \"#utility.yul\":12204:12243   */\n      mstore\n        /* \"#utility.yul\":12019:12250   */\n      pop\n      jump\t// out\n        /* \"#utility.yul\":12256:12622   */\n    tag_264:\n        /* \"#utility.yul\":12398:12401   */\n      0x00\n        /* \"#utility.yul\":12419:12486   */\n      tag_415\n        /* \"#utility.yul\":12483:12485   */\n      0x2c\n        /* \"#utility.yul\":12478:12481   */\n      dup4\n        /* \"#utility.yul\":12419:12486   */\n      tag_255\n      jump\t// in\n    tag_415:\n        /* \"#utility.yul\":12412:12486   */\n      swap2\n      pop\n        /* \"#utility.yul\":12495:12588   */\n      tag_416\n        /* \"#utility.yul\":12584:12587   */\n      dup3\n        /* \"#utility.yul\":12495:12588   */\n      tag_263\n      jump\t// in\n    tag_416:\n        /* \"#utility.yul\":12613:12615   */\n      0x40\n        /* \"#utility.yul\":12608:12611   */\n      dup3\n        /* \"#utility.yul\":12604:12616   */\n      add\n        /* \"#utility.yul\":12597:12616   */\n      swap1\n      pop\n        /* \"#utility.yul\":12256:12622   */\n      swap2\n      swap1\n      pop\n      jump\t// out\n        /* \"#utility.yul\":12628:13047   */\n    tag_101:\n        /* \"#utility.yul\":12794:12798   */\n      0x00\n        /* \"#utility.yul\":12832:12834   */\n      0x20\n        /* \"#utility.yul\":12821:12830   */\n      dup3\n        /* \"#utility.yul\":12817:12835   */\n      add\n        /* \"#utility.yul\":12809:12835   */\n      swap1\n      pop\n        /* \"#utility.yul\":12881:12890   */\n      dup2\n        /* \"#utility.yul\":12875:12879   */\n      dup2\n        /* \"#utility.yul\":12871:12891   */\n      sub\n        /* \"#utility.yul\":12867:12868   */\n      0x00\n        /* \"#utility.yul\":12856:12865   */\n      dup4\n        /* \"#utility.yul\":12852:12869   */\n      add\n        /* \"#utility.yul\":12845:12892   */\n      mstore\n        /* \"#utility.yul\":12909:13040   */\n      tag_418\n        /* \"#utility.yul\":13035:13039   */\n      dup2\n        /* \"#utility.yul\":12909:13040   */\n      tag_264\n      jump\t// in\n    tag_418:\n        /* \"#utility.yul\":12901:13040   */\n      swap1\n      pop\n        /* \"#utility.yul\":12628:13047   */\n      swap2\n      swap1\n      pop\n      jump\t// out\n        /* \"#utility.yul\":13053:13276   */\n    tag_265:\n        /* \"#utility.yul\":13193:13227   */\n      0x4f20726166666c65206e616f20706f6465206d616973207365722063616e6365\n        /* \"#utility.yul\":13189:13190   */\n      0x00\n        /* \"#utility.yul\":13181:13187   */\n      dup3\n        /* \"#utility.yul\":13177:13191   */\n      add\n        /* \"#utility.yul\":13170:13228   */\n      mstore\n        /* \"#utility.yul\":13262:13268   */\n      0x6c61646f00000000000000000000000000000000000000000000000000000000\n        /* \"#utility.yul\":13257:13259   */\n      0x20\n        /* \"#utility.yul\":13249:13255   */\n      dup3\n        /* \"#utility.yul\":13245:13260   */\n      add\n        /* \"#utility.yul\":13238:13269   */\n      mstore\n        /* \"#utility.yul\":13053:13276   */\n      pop\n      jump\t// out\n        /* \"#utility.yul\":13282:13648   */\n    tag_266:\n        /* \"#utility.yul\":13424:13427   */\n      0x00\n        /* \"#utility.yul\":13445:13512   */\n      tag_421\n        /* \"#utility.yul\":13509:13511   */\n      0x24\n        /* \"#utility.yul\":13504:13507   */\n      dup4\n        /* \"#utility.yul\":13445:13512   */\n      tag_255\n      jump\t// in\n    tag_421:\n        /* \"#utility.yul\":13438:13512   */\n      swap2\n      pop\n        /* \"#utility.yul\":13521:13614   */\n      tag_422\n        /* \"#utility.yul\":13610:13613   */\n      dup3\n        /* \"#utility.yul\":13521:13614   */\n      tag_265\n      jump\t// in\n    tag_422:\n        /* \"#utility.yul\":13639:13641   */\n      0x40\n        /* \"#utility.yul\":13634:13637   */\n      dup3\n        /* \"#utility.yul\":13630:13642   */\n      add\n        /* \"#utility.yul\":13623:13642   */\n      swap1\n      pop\n        /* \"#utility.yul\":13282:13648   */\n      swap2\n      swap1\n      pop\n      jump\t// out\n        /* \"#utility.yul\":13654:14073   */\n    tag_104:\n        /* \"#utility.yul\":13820:13824   */\n      0x00\n        /* \"#utility.yul\":13858:13860   */\n      0x20\n        /* \"#utility.yul\":13847:13856   */\n      dup3\n        /* \"#utility.yul\":13843:13861   */\n      add\n        /* \"#utility.yul\":13835:13861   */\n      swap1\n      pop\n        /* \"#utility.yul\":13907:13916   */\n      dup2\n        /* \"#utility.yul\":13901:13905   */\n      dup2\n        /* \"#utility.yul\":13897:13917   */\n      sub\n        /* \"#utility.yul\":13893:13894   */\n      0x00\n        /* \"#utility.yul\":13882:13891   */\n      dup4\n        /* \"#utility.yul\":13878:13895   */\n      add\n        /* \"#utility.yul\":13871:13918   */\n      mstore\n        /* \"#utility.yul\":13935:14066   */\n      tag_424\n        /* \"#utility.yul\":14061:14065   */\n      dup2\n        /* \"#utility.yul\":13935:14066   */\n      tag_266\n      jump\t// in\n    tag_424:\n        /* \"#utility.yul\":13927:14066   */\n      swap1\n      pop\n        /* \"#utility.yul\":13654:14073   */\n      swap2\n      swap1\n      pop\n      jump\t// out\n        /* \"#utility.yul\":14079:14255   */\n    tag_267:\n        /* \"#utility.yul\":14219:14247   */\n      0x4f20726166666c65206a6120666f692066696e616c697a61646f000000000000\n        /* \"#utility.yul\":14215:14216   */\n      0x00\n        /* \"#utility.yul\":14207:14213   */\n      dup3\n        /* \"#utility.yul\":14203:14217   */\n      add\n        /* \"#utility.yul\":14196:14248   */\n      mstore\n        /* \"#utility.yul\":14079:14255   */\n      pop\n      jump\t// out\n        /* \"#utility.yul\":14261:14627   */\n    tag_268:\n        /* \"#utility.yul\":14403:14406   */\n      0x00\n        /* \"#utility.yul\":14424:14491   */\n      tag_427\n        /* \"#utility.yul\":14488:14490   */\n      0x1a\n        /* \"#utility.yul\":14483:14486   */\n      dup4\n        /* \"#utility.yul\":14424:14491   */\n      tag_255\n      jump\t// in\n    tag_427:\n        /* \"#utility.yul\":14417:14491   */\n      swap2\n      pop\n        /* \"#utility.yul\":14500:14593   */\n      tag_428\n        /* \"#utility.yul\":14589:14592   */\n      dup3\n        /* \"#utility.yul\":14500:14593   */\n      tag_267\n      jump\t// in\n    tag_428:\n        /* \"#utility.yul\":14618:14620   */\n      0x20\n        /* \"#utility.yul\":14613:14616   */\n      dup3\n        /* \"#utility.yul\":14609:14621   */\n      add\n        /* \"#utility.yul\":14602:14621   */\n      swap1\n      pop\n        /* \"#utility.yul\":14261:14627   */\n      swap2\n      swap1\n      pop\n      jump\t// out\n        /* \"#utility.yul\":14633:15052   */\n    tag_114:\n        /* \"#utility.yul\":14799:14803   */\n      0x00\n        /* \"#utility.yul\":14837:14839   */\n      0x20\n        /* \"#utility.yul\":14826:14835   */\n      dup3\n        /* \"#utility.yul\":14822:14840   */\n      add\n        /* \"#utility.yul\":14814:14840   */\n      swap1\n      pop\n        /* \"#utility.yul\":14886:14895   */\n      dup2\n        /* \"#utility.yul\":14880:14884   */\n      dup2\n        /* \"#utility.yul\":14876:14896   */\n      sub\n        /* \"#utility.yul\":14872:14873   */\n      0x00\n        /* \"#utility.yul\":14861:14870   */\n      dup4\n        /* \"#utility.yul\":14857:14874   */\n      add\n        /* \"#utility.yul\":14850:14897   */\n      mstore\n        /* \"#utility.yul\":14914:15045   */\n      tag_430\n        /* \"#utility.yul\":15040:15044   */\n      dup2\n        /* \"#utility.yul\":14914:15045   */\n      tag_268\n      jump\t// in\n    tag_430:\n        /* \"#utility.yul\":14906:15045   */\n      swap1\n      pop\n        /* \"#utility.yul\":14633:15052   */\n      swap2\n      swap1\n      pop\n      jump\t// out\n        /* \"#utility.yul\":15058:15500   */\n    tag_116:\n        /* \"#utility.yul\":15207:15211   */\n      0x00\n        /* \"#utility.yul\":15245:15247   */\n      0x60\n        /* \"#utility.yul\":15234:15243   */\n      dup3\n        /* \"#utility.yul\":15230:15248   */\n      add\n        /* \"#utility.yul\":15222:15248   */\n      swap1\n      pop\n        /* \"#utility.yul\":15258:15329   */\n      tag_432\n        /* \"#utility.yul\":15326:15327   */\n      0x00\n        /* \"#utility.yul\":15315:15324   */\n      dup4\n        /* \"#utility.yul\":15311:15328   */\n      add\n        /* \"#utility.yul\":15302:15308   */\n      dup7\n        /* \"#utility.yul\":15258:15329   */\n      tag_244\n      jump\t// in\n    tag_432:\n        /* \"#utility.yul\":15339:15411   */\n      tag_433\n        /* \"#utility.yul\":15407:15409   */\n      0x20\n        /* \"#utility.yul\":15396:15405   */\n      dup4\n        /* \"#utility.yul\":15392:15410   */\n      add\n        /* \"#utility.yul\":15383:15389   */\n      dup6\n        /* \"#utility.yul\":15339:15411   */\n      tag_244\n      jump\t// in\n    tag_433:\n        /* \"#utility.yul\":15421:15493   */\n      tag_434\n        /* \"#utility.yul\":15489:15491   */\n      0x40\n        /* \"#utility.yul\":15478:15487   */\n      dup4\n        /* \"#utility.yul\":15474:15492   */\n      add\n        /* \"#utility.yul\":15465:15471   */\n      dup5\n        /* \"#utility.yul\":15421:15493   */\n      tag_241\n      jump\t// in\n    tag_434:\n        /* \"#utility.yul\":15058:15500   */\n      swap5\n      swap4\n      pop\n      pop\n      pop\n      pop\n      jump\t// out\n        /* \"#utility.yul\":15506:15734   */\n    tag_269:\n        /* \"#utility.yul\":15646:15680   */\n      0x4e756d65726f206465207469636b657473206465766520736572206d61696f72\n        /* \"#utility.yul\":15642:15643   */\n      0x00\n        /* \"#utility.yul\":15634:15640   */\n      dup3\n        /* \"#utility.yul\":15630:15644   */\n      add\n        /* \"#utility.yul\":15623:15681   */\n      mstore\n        /* \"#utility.yul\":15715:15726   */\n      0x20717565207a65726f0000000000000000000000000000000000000000000000\n        /* \"#utility.yul\":15710:15712   */\n      0x20\n        /* \"#utility.yul\":15702:15708   */\n      dup3\n        /* \"#utility.yul\":15698:15713   */\n      add\n        /* \"#utility.yul\":15691:15727   */\n      mstore\n        /* \"#utility.yul\":15506:15734   */\n      pop\n      jump\t// out\n        /* \"#utility.yul\":15740:16106   */\n    tag_270:\n        /* \"#utility.yul\":15882:15885   */\n      0x00\n        /* \"#utility.yul\":15903:15970   */\n      tag_437\n        /* \"#utility.yul\":15967:15969   */\n      0x29\n        /* \"#utility.yul\":15962:15965   */\n      dup4\n        /* \"#utility.yul\":15903:15970   */\n      tag_255\n      jump\t// in\n    tag_437:\n        /* \"#utility.yul\":15896:15970   */\n      swap2\n      pop\n        /* \"#utility.yul\":15979:16072   */\n      tag_438\n        /* \"#utility.yul\":16068:16071   */\n      dup3\n        /* \"#utility.yul\":15979:16072   */\n      tag_269\n      jump\t// in\n    tag_438:\n        /* \"#utility.yul\":16097:16099   */\n      0x40\n        /* \"#utility.yul\":16092:16095   */\n      dup3\n        /* \"#utility.yul\":16088:16100   */\n      add\n        /* \"#utility.yul\":16081:16100   */\n      swap1\n      pop\n        /* \"#utility.yul\":15740:16106   */\n      swap2\n      swap1\n      pop\n      jump\t// out\n        /* \"#utility.yul\":16112:16531   */\n    tag_125:\n        /* \"#utility.yul\":16278:16282   */\n      0x00\n        /* \"#utility.yul\":16316:16318   */\n      0x20\n        /* \"#utility.yul\":16305:16314   */\n      dup3\n        /* \"#utility.yul\":16301:16319   */\n      add\n        /* \"#utility.yul\":16293:16319   */\n      swap1\n      pop\n        /* \"#utility.yul\":16365:16374   */\n      dup2\n        /* \"#utility.yul\":16359:16363   */\n      dup2\n        /* \"#utility.yul\":16355:16375   */\n      sub\n        /* \"#utility.yul\":16351:16352   */\n      0x00\n        /* \"#utility.yul\":16340:16349   */\n      dup4\n        /* \"#utility.yul\":16336:16353   */\n      add\n        /* \"#utility.yul\":16329:16376   */\n      mstore\n        /* \"#utility.yul\":16393:16524   */\n      tag_440\n        /* \"#utility.yul\":16519:16523   */\n      dup2\n        /* \"#utility.yul\":16393:16524   */\n      tag_270\n      jump\t// in\n    tag_440:\n        /* \"#utility.yul\":16385:16524   */\n      swap1\n      pop\n        /* \"#utility.yul\":16112:16531   */\n      swap2\n      swap1\n      pop\n      jump\t// out\n        /* \"#utility.yul\":16537:16772   */\n    tag_271:\n        /* \"#utility.yul\":16677:16711   */\n      0x4e756d65726f206d696e696d6f206465207469636b6574732064657665207365\n        /* \"#utility.yul\":16673:16674   */\n      0x00\n        /* \"#utility.yul\":16665:16671   */\n      dup3\n        /* \"#utility.yul\":16661:16675   */\n      add\n        /* \"#utility.yul\":16654:16712   */\n      mstore\n        /* \"#utility.yul\":16746:16764   */\n      0x72206d61696f7220717565207a65726f00000000000000000000000000000000\n        /* \"#utility.yul\":16741:16743   */\n      0x20\n        /* \"#utility.yul\":16733:16739   */\n      dup3\n        /* \"#utility.yul\":16729:16744   */\n      add\n        /* \"#utility.yul\":16722:16765   */\n      mstore\n        /* \"#utility.yul\":16537:16772   */\n      pop\n      jump\t// out\n        /* \"#utility.yul\":16778:17144   */\n    tag_272:\n        /* \"#utility.yul\":16920:16923   */\n      0x00\n        /* \"#utility.yul\":16941:17008   */\n      tag_443\n        /* \"#utility.yul\":17005:17007   */\n      0x30\n        /* \"#utility.yul\":17000:17003   */\n      dup4\n        /* \"#utility.yul\":16941:17008   */\n      tag_255\n      jump\t// in\n    tag_443:\n        /* \"#utility.yul\":16934:17008   */\n      swap2\n      pop\n        /* \"#utility.yul\":17017:17110   */\n      tag_444\n        /* \"#utility.yul\":17106:17109   */\n      dup3\n        /* \"#utility.yul\":17017:17110   */\n      tag_271\n      jump\t// in\n    tag_444:\n        /* \"#utility.yul\":17135:17137   */\n      0x40\n        /* \"#utility.yul\":17130:17133   */\n      dup3\n        /* \"#utility.yul\":17126:17138   */\n      add\n        /* \"#utility.yul\":17119:17138   */\n      swap1\n      pop\n        /* \"#utility.yul\":16778:17144   */\n      swap2\n      swap1\n      pop\n      jump\t// out\n        /* \"#utility.yul\":17150:17569   */\n    tag_128:\n        /* \"#utility.yul\":17316:17320   */\n      0x00\n        /* \"#utility.yul\":17354:17356   */\n      0x20\n        /* \"#utility.yul\":17343:17352   */\n      dup3\n        /* \"#utility.yul\":17339:17357   */\n      add\n        /* \"#utility.yul\":17331:17357   */\n      swap1\n      pop\n        /* \"#utility.yul\":17403:17412   */\n      dup2\n        /* \"#utility.yul\":17397:17401   */\n      dup2\n        /* \"#utility.yul\":17393:17413   */\n      sub\n        /* \"#utility.yul\":17389:17390   */\n      0x00\n        /* \"#utility.yul\":17378:17387   */\n      dup4\n        /* \"#utility.yul\":17374:17391   */\n      add\n        /* \"#utility.yul\":17367:17414   */\n      mstore\n        /* \"#utility.yul\":17431:17562   */\n      tag_446\n        /* \"#utility.yul\":17557:17561   */\n      dup2\n        /* \"#utility.yul\":17431:17562   */\n      tag_272\n      jump\t// in\n    tag_446:\n        /* \"#utility.yul\":17423:17562   */\n      swap1\n      pop\n        /* \"#utility.yul\":17150:17569   */\n      swap2\n      swap1\n      pop\n      jump\t// out\n        /* \"#utility.yul\":17575:17812   */\n    tag_273:\n        /* \"#utility.yul\":17715:17749   */\n      0x4f20656e64657265636f20646f20636f6e747261746f204e4654206465766520\n        /* \"#utility.yul\":17711:17712   */\n      0x00\n        /* \"#utility.yul\":17703:17709   */\n      dup3\n        /* \"#utility.yul\":17699:17713   */\n      add\n        /* \"#utility.yul\":17692:17750   */\n      mstore\n        /* \"#utility.yul\":17784:17804   */\n      0x736572206469666572656e746520646520300000000000000000000000000000\n        /* \"#utility.yul\":17779:17781   */\n      0x20\n        /* \"#utility.yul\":17771:17777   */\n      dup3\n        /* \"#utility.yul\":17767:17782   */\n      add\n        /* \"#utility.yul\":17760:17805   */\n      mstore\n        /* \"#utility.yul\":17575:17812   */\n      pop\n      jump\t// out\n        /* \"#utility.yul\":17818:18184   */\n    tag_274:\n        /* \"#utility.yul\":17960:17963   */\n      0x00\n        /* \"#utility.yul\":17981:18048   */\n      tag_449\n        /* \"#utility.yul\":18045:18047   */\n      0x32\n        /* \"#utility.yul\":18040:18043   */\n      dup4\n        /* \"#utility.yul\":17981:18048   */\n      tag_255\n      jump\t// in\n    tag_449:\n        /* \"#utility.yul\":17974:18048   */\n      swap2\n      pop\n        /* \"#utility.yul\":18057:18150   */\n      tag_450\n        /* \"#utility.yul\":18146:18149   */\n      dup3\n        /* \"#utility.yul\":18057:18150   */\n      tag_273\n      jump\t// in\n    tag_450:\n        /* \"#utility.yul\":18175:18177   */\n      0x40\n        /* \"#utility.yul\":18170:18173   */\n      dup3\n        /* \"#utility.yul\":18166:18178   */\n      add\n        /* \"#utility.yul\":18159:18178   */\n      swap1\n      pop\n        /* \"#utility.yul\":17818:18184   */\n      swap2\n      swap1\n      pop\n      jump\t// out\n        /* \"#utility.yul\":18190:18609   */\n    tag_131:\n        /* \"#utility.yul\":18356:18360   */\n      0x00\n        /* \"#utility.yul\":18394:18396   */\n      0x20\n        /* \"#utility.yul\":18383:18392   */\n      dup3\n        /* \"#utility.yul\":18379:18397   */\n      add\n        /* \"#utility.yul\":18371:18397   */\n      swap1\n      pop\n        /* \"#utility.yul\":18443:18452   */\n      dup2\n        /* \"#utility.yul\":18437:18441   */\n      dup2\n        /* \"#utility.yul\":18433:18453   */\n      sub\n        /* \"#utility.yul\":18429:18430   */\n      0x00\n        /* \"#utility.yul\":18418:18427   */\n      dup4\n        /* \"#utility.yul\":18414:18431   */\n      add\n        /* \"#utility.yul\":18407:18454   */\n      mstore\n        /* \"#utility.yul\":18471:18602   */\n      tag_452\n        /* \"#utility.yul\":18597:18601   */\n      dup2\n        /* \"#utility.yul\":18471:18602   */\n      tag_274\n      jump\t// in\n    tag_452:\n        /* \"#utility.yul\":18463:18602   */\n      swap1\n      pop\n        /* \"#utility.yul\":18190:18609   */\n      swap2\n      swap1\n      pop\n      jump\t// out\n        /* \"#utility.yul\":18615:18839   */\n    tag_275:\n        /* \"#utility.yul\":18755:18789   */\n      0x4f20696420646f20746f6b656e206465766520736572206d61696f7220717565\n        /* \"#utility.yul\":18751:18752   */\n      0x00\n        /* \"#utility.yul\":18743:18749   */\n      dup3\n        /* \"#utility.yul\":18739:18753   */\n      add\n        /* \"#utility.yul\":18732:18790   */\n      mstore\n        /* \"#utility.yul\":18824:18831   */\n      0x207a65726f000000000000000000000000000000000000000000000000000000\n        /* \"#utility.yul\":18819:18821   */\n      0x20\n        /* \"#utility.yul\":18811:18817   */\n      dup3\n        /* \"#utility.yul\":18807:18822   */\n      add\n        /* \"#utility.yul\":18800:18832   */\n      mstore\n        /* \"#utility.yul\":18615:18839   */\n      pop\n      jump\t// out\n        /* \"#utility.yul\":18845:19211   */\n    tag_276:\n        /* \"#utility.yul\":18987:18990   */\n      0x00\n        /* \"#utility.yul\":19008:19075   */\n      tag_455\n        /* \"#utility.yul\":19072:19074   */\n      0x25\n        /* \"#utility.yul\":19067:19070   */\n      dup4\n        /* \"#utility.yul\":19008:19075   */\n      tag_255\n      jump\t// in\n    tag_455:\n        /* \"#utility.yul\":19001:19075   */\n      swap2\n      pop\n        /* \"#utility.yul\":19084:19177   */\n      tag_456\n        /* \"#utility.yul\":19173:19176   */\n      dup3\n        /* \"#utility.yul\":19084:19177   */\n      tag_275\n      jump\t// in\n    tag_456:\n        /* \"#utility.yul\":19202:19204   */\n      0x40\n        /* \"#utility.yul\":19197:19200   */\n      dup3\n        /* \"#utility.yul\":19193:19205   */\n      add\n        /* \"#utility.yul\":19186:19205   */\n      swap1\n      pop\n        /* \"#utility.yul\":18845:19211   */\n      swap2\n      swap1\n      pop\n      jump\t// out\n        /* \"#utility.yul\":19217:19636   */\n    tag_134:\n        /* \"#utility.yul\":19383:19387   */\n      0x00\n        /* \"#utility.yul\":19421:19423   */\n      0x20\n        /* \"#utility.yul\":19410:19419   */\n      dup3\n        /* \"#utility.yul\":19406:19424   */\n      add\n        /* \"#utility.yul\":19398:19424   */\n      swap1\n      pop\n        /* \"#utility.yul\":19470:19479   */\n      dup2\n        /* \"#utility.yul\":19464:19468   */\n      dup2\n        /* \"#utility.yul\":19460:19480   */\n      sub\n        /* \"#utility.yul\":19456:19457   */\n      0x00\n        /* \"#utility.yul\":19445:19454   */\n      dup4\n        /* \"#utility.yul\":19441:19458   */\n      add\n        /* \"#utility.yul\":19434:19481   */\n      mstore\n        /* \"#utility.yul\":19498:19629   */\n      tag_458\n        /* \"#utility.yul\":19624:19628   */\n      dup2\n        /* \"#utility.yul\":19498:19629   */\n      tag_276\n      jump\t// in\n    tag_458:\n        /* \"#utility.yul\":19490:19629   */\n      swap1\n      pop\n        /* \"#utility.yul\":19217:19636   */\n      swap2\n      swap1\n      pop\n      jump\t// out\n        /* \"#utility.yul\":19642:19887   */\n    tag_277:\n        /* \"#utility.yul\":19782:19816   */\n      0x4f20656e64657265636f20646f20746f6b656e20612073657220726563656269\n        /* \"#utility.yul\":19778:19779   */\n      0x00\n        /* \"#utility.yul\":19770:19776   */\n      dup3\n        /* \"#utility.yul\":19766:19780   */\n      add\n        /* \"#utility.yul\":19759:19817   */\n      mstore\n        /* \"#utility.yul\":19851:19879   */\n      0x646f206465766520736572206469666572656e74652064652030000000000000\n        /* \"#utility.yul\":19846:19848   */\n      0x20\n        /* \"#utility.yul\":19838:19844   */\n      dup3\n        /* \"#utility.yul\":19834:19849   */\n      add\n        /* \"#utility.yul\":19827:19880   */\n      mstore\n        /* \"#utility.yul\":19642:19887   */\n      pop\n      jump\t// out\n        /* \"#utility.yul\":19893:20259   */\n    tag_278:\n        /* \"#utility.yul\":20035:20038   */\n      0x00\n        /* \"#utility.yul\":20056:20123   */\n      tag_461\n        /* \"#utility.yul\":20120:20122   */\n      0x3a\n        /* \"#utility.yul\":20115:20118   */\n      dup4\n        /* \"#utility.yul\":20056:20123   */\n      tag_255\n      jump\t// in\n    tag_461:\n        /* \"#utility.yul\":20049:20123   */\n      swap2\n      pop\n        /* \"#utility.yul\":20132:20225   */\n      tag_462\n        /* \"#utility.yul\":20221:20224   */\n      dup3\n        /* \"#utility.yul\":20132:20225   */\n      tag_277\n      jump\t// in\n    tag_462:\n        /* \"#utility.yul\":20250:20252   */\n      0x40\n        /* \"#utility.yul\":20245:20248   */\n      dup3\n        /* \"#utility.yul\":20241:20253   */\n      add\n        /* \"#utility.yul\":20234:20253   */\n      swap1\n      pop\n        /* \"#utility.yul\":19893:20259   */\n      swap2\n      swap1\n      pop\n      jump\t// out\n        /* \"#utility.yul\":20265:20684   */\n    tag_137:\n        /* \"#utility.yul\":20431:20435   */\n      0x00\n        /* \"#utility.yul\":20469:20471   */\n      0x20\n        /* \"#utility.yul\":20458:20467   */\n      dup3\n        /* \"#utility.yul\":20454:20472   */\n      add\n        /* \"#utility.yul\":20446:20472   */\n      swap1\n      pop\n        /* \"#utility.yul\":20518:20527   */\n      dup2\n        /* \"#utility.yul\":20512:20516   */\n      dup2\n        /* \"#utility.yul\":20508:20528   */\n      sub\n        /* \"#utility.yul\":20504:20505   */\n      0x00\n        /* \"#utility.yul\":20493:20502   */\n      dup4\n        /* \"#utility.yul\":20489:20506   */\n      add\n        /* \"#utility.yul\":20482:20529   */\n      mstore\n        /* \"#utility.yul\":20546:20677   */\n      tag_464\n        /* \"#utility.yul\":20672:20676   */\n      dup2\n        /* \"#utility.yul\":20546:20677   */\n      tag_278\n      jump\t// in\n    tag_464:\n        /* \"#utility.yul\":20538:20677   */\n      swap1\n      pop\n        /* \"#utility.yul\":20265:20684   */\n      swap2\n      swap1\n      pop\n      jump\t// out\n        /* \"#utility.yul\":20690:20918   */\n    tag_279:\n        /* \"#utility.yul\":20830:20864   */\n      0x4f2076616c6f7220646f207469636b6574206465766520736572206d61696f72\n        /* \"#utility.yul\":20826:20827   */\n      0x00\n        /* \"#utility.yul\":20818:20824   */\n      dup3\n        /* \"#utility.yul\":20814:20828   */\n      add\n        /* \"#utility.yul\":20807:20865   */\n      mstore\n        /* \"#utility.yul\":20899:20910   */\n      0x20717565207a65726f0000000000000000000000000000000000000000000000\n        /* \"#utility.yul\":20894:20896   */\n      0x20\n        /* \"#utility.yul\":20886:20892   */\n      dup3\n        /* \"#utility.yul\":20882:20897   */\n      add\n        /* \"#utility.yul\":20875:20911   */\n      mstore\n        /* \"#utility.yul\":20690:20918   */\n      pop\n      jump\t// out\n        /* \"#utility.yul\":20924:21290   */\n    tag_280:\n        /* \"#utility.yul\":21066:21069   */\n      0x00\n        /* \"#utility.yul\":21087:21154   */\n      tag_467\n        /* \"#utility.yul\":21151:21153   */\n      0x29\n        /* \"#utility.yul\":21146:21149   */\n      dup4\n        /* \"#utility.yul\":21087:21154   */\n      tag_255\n      jump\t// in\n    tag_467:\n        /* \"#utility.yul\":21080:21154   */\n      swap2\n      pop\n        /* \"#utility.yul\":21163:21256   */\n      tag_468\n        /* \"#utility.yul\":21252:21255   */\n      dup3\n        /* \"#utility.yul\":21163:21256   */\n      tag_279\n      jump\t// in\n    tag_468:\n        /* \"#utility.yul\":21281:21283   */\n      0x40\n        /* \"#utility.yul\":21276:21279   */\n      dup3\n        /* \"#utility.yul\":21272:21284   */\n      add\n        /* \"#utility.yul\":21265:21284   */\n      swap1\n      pop\n        /* \"#utility.yul\":20924:21290   */\n      swap2\n      swap1\n      pop\n      jump\t// out\n        /* \"#utility.yul\":21296:21715   */\n    tag_140:\n        /* \"#utility.yul\":21462:21466   */\n      0x00\n        /* \"#utility.yul\":21500:21502   */\n      0x20\n        /* \"#utility.yul\":21489:21498   */\n      dup3\n        /* \"#utility.yul\":21485:21503   */\n      add\n        /* \"#utility.yul\":21477:21503   */\n      swap1\n      pop\n        /* \"#utility.yul\":21549:21558   */\n      dup2\n        /* \"#utility.yul\":21543:21547   */\n      dup2\n        /* \"#utility.yul\":21539:21559   */\n      sub\n        /* \"#utility.yul\":21535:21536   */\n      0x00\n        /* \"#utility.yul\":21524:21533   */\n      dup4\n        /* \"#utility.yul\":21520:21537   */\n      add\n        /* \"#utility.yul\":21513:21560   */\n      mstore\n        /* \"#utility.yul\":21577:21708   */\n      tag_470\n        /* \"#utility.yul\":21703:21707   */\n      dup2\n        /* \"#utility.yul\":21577:21708   */\n      tag_280\n      jump\t// in\n    tag_470:\n        /* \"#utility.yul\":21569:21708   */\n      swap1\n      pop\n        /* \"#utility.yul\":21296:21715   */\n      swap2\n      swap1\n      pop\n      jump\t// out\n        /* \"#utility.yul\":21721:21887   */\n    tag_281:\n        /* \"#utility.yul\":21861:21879   */\n      0x71746420696e646973706f6e6976656c00000000000000000000000000000000\n        /* \"#utility.yul\":21857:21858   */\n      0x00\n        /* \"#utility.yul\":21849:21855   */\n      dup3\n        /* \"#utility.yul\":21845:21859   */\n      add\n        /* \"#utility.yul\":21838:21880   */\n      mstore\n        /* \"#utility.yul\":21721:21887   */\n      pop\n      jump\t// out\n        /* \"#utility.yul\":21893:22259   */\n    tag_282:\n        /* \"#utility.yul\":22035:22038   */\n      0x00\n        /* \"#utility.yul\":22056:22123   */\n      tag_473\n        /* \"#utility.yul\":22120:22122   */\n      0x10\n        /* \"#utility.yul\":22115:22118   */\n      dup4\n        /* \"#utility.yul\":22056:22123   */\n      tag_255\n      jump\t// in\n    tag_473:\n        /* \"#utility.yul\":22049:22123   */\n      swap2\n      pop\n        /* \"#utility.yul\":22132:22225   */\n      tag_474\n        /* \"#utility.yul\":22221:22224   */\n      dup3\n        /* \"#utility.yul\":22132:22225   */\n      tag_281\n      jump\t// in\n    tag_474:\n        /* \"#utility.yul\":22250:22252   */\n      0x20\n        /* \"#utility.yul\":22245:22248   */\n      dup3\n        /* \"#utility.yul\":22241:22253   */\n      add\n        /* \"#utility.yul\":22234:22253   */\n      swap1\n      pop\n        /* \"#utility.yul\":21893:22259   */\n      swap2\n      swap1\n      pop\n      jump\t// out\n        /* \"#utility.yul\":22265:22684   */\n    tag_157:\n        /* \"#utility.yul\":22431:22435   */\n      0x00\n        /* \"#utility.yul\":22469:22471   */\n      0x20\n        /* \"#utility.yul\":22458:22467   */\n      dup3\n        /* \"#utility.yul\":22454:22472   */\n      add\n        /* \"#utility.yul\":22446:22472   */\n      swap1\n      pop\n        /* \"#utility.yul\":22518:22527   */\n      dup2\n        /* \"#utility.yul\":22512:22516   */\n      dup2\n        /* \"#utility.yul\":22508:22528   */\n      sub\n        /* \"#utility.yul\":22504:22505   */\n      0x00\n        /* \"#utility.yul\":22493:22502   */\n      dup4\n        /* \"#utility.yul\":22489:22506   */\n      add\n        /* \"#utility.yul\":22482:22529   */\n      mstore\n        /* \"#utility.yul\":22546:22677   */\n      tag_476\n        /* \"#utility.yul\":22672:22676   */\n      dup2\n        /* \"#utility.yul\":22546:22677   */\n      tag_282\n      jump\t// in\n    tag_476:\n        /* \"#utility.yul\":22538:22677   */\n      swap1\n      pop\n        /* \"#utility.yul\":22265:22684   */\n      swap2\n      swap1\n      pop\n      jump\t// out\n        /* \"#utility.yul\":22690:22930   */\n    tag_283:\n        /* \"#utility.yul\":22830:22864   */\n      0x4f2073656c6c6572206e616f20706f646520636f6d7072617220656e74726164\n        /* \"#utility.yul\":22826:22827   */\n      0x00\n        /* \"#utility.yul\":22818:22824   */\n      dup3\n        /* \"#utility.yul\":22814:22828   */\n      add\n        /* \"#utility.yul\":22807:22865   */\n      mstore\n        /* \"#utility.yul\":22899:22922   */\n      0x617320646f2070726f7072696f20736f727465696f0000000000000000000000\n        /* \"#utility.yul\":22894:22896   */\n      0x20\n        /* \"#utility.yul\":22886:22892   */\n      dup3\n        /* \"#utility.yul\":22882:22897   */\n      add\n        /* \"#utility.yul\":22875:22923   */\n      mstore\n        /* \"#utility.yul\":22690:22930   */\n      pop\n      jump\t// out\n        /* \"#utility.yul\":22936:23302   */\n    tag_284:\n        /* \"#utility.yul\":23078:23081   */\n      0x00\n        /* \"#utility.yul\":23099:23166   */\n      tag_479\n        /* \"#utility.yul\":23163:23165   */\n      0x35\n        /* \"#utility.yul\":23158:23161   */\n      dup4\n        /* \"#utility.yul\":23099:23166   */\n      tag_255\n      jump\t// in\n    tag_479:\n        /* \"#utility.yul\":23092:23166   */\n      swap2\n      pop\n        /* \"#utility.yul\":23175:23268   */\n      tag_480\n        /* \"#utility.yul\":23264:23267   */\n      dup3\n        /* \"#utility.yul\":23175:23268   */\n      tag_283\n      jump\t// in\n    tag_480:\n        /* \"#utility.yul\":23293:23295   */\n      0x40\n        /* \"#utility.yul\":23288:23291   */\n      dup3\n        /* \"#utility.yul\":23284:23296   */\n      add\n        /* \"#utility.yul\":23277:23296   */\n      swap1\n      pop\n        /* \"#utility.yul\":22936:23302   */\n      swap2\n      swap1\n      pop\n      jump\t// out\n        /* \"#utility.yul\":23308:23727   */\n    tag_163:\n        /* \"#utility.yul\":23474:23478   */\n      0x00\n        /* \"#utility.yul\":23512:23514   */\n      0x20\n        /* \"#utility.yul\":23501:23510   */\n      dup3\n        /* \"#utility.yul\":23497:23515   */\n      add\n        /* \"#utility.yul\":23489:23515   */\n      swap1\n      pop\n        /* \"#utility.yul\":23561:23570   */\n      dup2\n        /* \"#utility.yul\":23555:23559   */\n      dup2\n        /* \"#utility.yul\":23551:23571   */\n      sub\n        /* \"#utility.yul\":23547:23548   */\n      0x00\n        /* \"#utility.yul\":23536:23545   */\n      dup4\n        /* \"#utility.yul\":23532:23549   */\n      add\n        /* \"#utility.yul\":23525:23572   */\n      mstore\n        /* \"#utility.yul\":23589:23720   */\n      tag_482\n        /* \"#utility.yul\":23715:23719   */\n      dup2\n        /* \"#utility.yul\":23589:23720   */\n      tag_284\n      jump\t// in\n    tag_482:\n        /* \"#utility.yul\":23581:23720   */\n      swap1\n      pop\n        /* \"#utility.yul\":23308:23727   */\n      swap2\n      swap1\n      pop\n      jump\t// out\n        /* \"#utility.yul\":23733:24143   */\n    tag_168:\n        /* \"#utility.yul\":23773:23780   */\n      0x00\n        /* \"#utility.yul\":23796:23816   */\n      tag_484\n        /* \"#utility.yul\":23814:23815   */\n      dup3\n        /* \"#utility.yul\":23796:23816   */\n      tag_238\n      jump\t// in\n    tag_484:\n        /* \"#utility.yul\":23791:23816   */\n      swap2\n      pop\n        /* \"#utility.yul\":23830:23850   */\n      tag_485\n        /* \"#utility.yul\":23848:23849   */\n      dup4\n        /* \"#utility.yul\":23830:23850   */\n      tag_238\n      jump\t// in\n    tag_485:\n        /* \"#utility.yul\":23825:23850   */\n      swap3\n      pop\n        /* \"#utility.yul\":23885:23886   */\n      dup3\n        /* \"#utility.yul\":23882:23883   */\n      dup3\n        /* \"#utility.yul\":23878:23887   */\n      mul\n        /* \"#utility.yul\":23907:23937   */\n      tag_486\n        /* \"#utility.yul\":23925:23936   */\n      dup2\n        /* \"#utility.yul\":23907:23937   */\n      tag_238\n      jump\t// in\n    tag_486:\n        /* \"#utility.yul\":23896:23937   */\n      swap2\n      pop\n        /* \"#utility.yul\":24086:24087   */\n      dup3\n        /* \"#utility.yul\":24077:24084   */\n      dup3\n        /* \"#utility.yul\":24073:24088   */\n      div\n        /* \"#utility.yul\":24070:24071   */\n      dup5\n        /* \"#utility.yul\":24067:24089   */\n      eq\n        /* \"#utility.yul\":24047:24048   */\n      dup4\n        /* \"#utility.yul\":24040:24049   */\n      iszero\n        /* \"#utility.yul\":24020:24103   */\n      or\n        /* \"#utility.yul\":23997:24136   */\n      tag_487\n      jumpi\n        /* \"#utility.yul\":24116:24134   */\n      tag_488\n      tag_262\n      jump\t// in\n    tag_488:\n        /* \"#utility.yul\":23997:24136   */\n    tag_487:\n        /* \"#utility.yul\":23781:24143   */\n      pop\n        /* \"#utility.yul\":23733:24143   */\n      swap3\n      swap2\n      pop\n      pop\n      jump\t// out\n        /* \"#utility.yul\":24149:24382   */\n    tag_181:\n        /* \"#utility.yul\":24188:24191   */\n      0x00\n        /* \"#utility.yul\":24211:24235   */\n      tag_490\n        /* \"#utility.yul\":24229:24234   */\n      dup3\n        /* \"#utility.yul\":24211:24235   */\n      tag_238\n      jump\t// in\n    tag_490:\n        /* \"#utility.yul\":24202:24235   */\n      swap2\n      pop\n        /* \"#utility.yul\":24257:24323   */\n      0xffffffffffffffffffffffffffffffffffffffffffffffffffffffffffffffff\n        /* \"#utility.yul\":24250:24255   */\n      dup3\n        /* \"#utility.yul\":24247:24324   */\n      sub\n        /* \"#utility.yul\":24244:24347   */\n      tag_491\n      jumpi\n        /* \"#utility.yul\":24327:24345   */\n      tag_492\n      tag_262\n      jump\t// in\n    tag_492:\n        /* \"#utility.yul\":24244:24347   */\n    tag_491:\n        /* \"#utility.yul\":24374:24375   */\n      0x01\n        /* \"#utility.yul\":24367:24372   */\n      dup3\n        /* \"#utility.yul\":24363:24376   */\n      add\n        /* \"#utility.yul\":24356:24376   */\n      swap1\n      pop\n        /* \"#utility.yul\":24149:24382   */\n      swap2\n      swap1\n      pop\n      jump\t// out\n        /* \"#utility.yul\":24388:24579   */\n    tag_186:\n        /* \"#utility.yul\":24428:24431   */\n      0x00\n        /* \"#utility.yul\":24447:24467   */\n      tag_494\n        /* \"#utility.yul\":24465:24466   */\n      dup3\n        /* \"#utility.yul\":24447:24467   */\n      tag_238\n      jump\t// in\n    tag_494:\n        /* \"#utility.yul\":24442:24467   */\n      swap2\n      pop\n        /* \"#utility.yul\":24481:24501   */\n      tag_495\n        /* \"#utility.yul\":24499:24500   */\n      dup4\n        /* \"#utility.yul\":24481:24501   */\n      tag_238\n      jump\t// in\n    tag_495:\n        /* \"#utility.yul\":24476:24501   */\n      swap3\n      pop\n        /* \"#utility.yul\":24524:24525   */\n      dup3\n        /* \"#utility.yul\":24521:24522   */\n      dup3\n        /* \"#utility.yul\":24517:24526   */\n      add\n        /* \"#utility.yul\":24510:24526   */\n      swap1\n      pop\n        /* \"#utility.yul\":24545:24548   */\n      dup1\n        /* \"#utility.yul\":24542:24543   */\n      dup3\n        /* \"#utility.yul\":24539:24549   */\n      gt\n        /* \"#utility.yul\":24536:24572   */\n      iszero\n      tag_496\n      jumpi\n        /* \"#utility.yul\":24552:24570   */\n      tag_497\n      tag_262\n      jump\t// in\n    tag_497:\n        /* \"#utility.yul\":24536:24572   */\n    tag_496:\n        /* \"#utility.yul\":24388:24579   */\n      swap3\n      swap2\n      pop\n      pop\n      jump\t// out\n        /* \"#utility.yul\":24585:24812   */\n    tag_285:\n        /* \"#utility.yul\":24725:24759   */\n      0x4170656e6173206f206f776e657220706f6465207265616c697a617220612064\n        /* \"#utility.yul\":24721:24722   */\n      0x00\n        /* \"#utility.yul\":24713:24719   */\n      dup3\n        /* \"#utility.yul\":24709:24723   */\n      add\n        /* \"#utility.yul\":24702:24760   */\n      mstore\n        /* \"#utility.yul\":24794:24804   */\n      0x65766f6c7563616f000000000000000000000000000000000000000000000000\n        /* \"#utility.yul\":24789:24791   */\n      0x20\n        /* \"#utility.yul\":24781:24787   */\n      dup3\n        /* \"#utility.yul\":24777:24792   */\n      add\n        /* \"#utility.yul\":24770:24805   */\n      mstore\n        /* \"#utility.yul\":24585:24812   */\n      pop\n      jump\t// out\n        /* \"#utility.yul\":24818:25184   */\n    tag_286:\n        /* \"#utility.yul\":24960:24963   */\n      0x00\n        /* \"#utility.yul\":24981:25048   */\n      tag_500\n        /* \"#utility.yul\":25045:25047   */\n      0x28\n        /* \"#utility.yul\":25040:25043   */\n      dup4\n        /* \"#utility.yul\":24981:25048   */\n      tag_255\n      jump\t// in\n    tag_500:\n        /* \"#utility.yul\":24974:25048   */\n      swap2\n      pop\n        /* \"#utility.yul\":25057:25150   */\n      tag_501\n        /* \"#utility.yul\":25146:25149   */\n      dup3\n        /* \"#utility.yul\":25057:25150   */\n      tag_285\n      jump\t// in\n    tag_501:\n        /* \"#utility.yul\":25175:25177   */\n      0x40\n        /* \"#utility.yul\":25170:25173   */\n      dup3\n        /* \"#utility.yul\":25166:25178   */\n      add\n        /* \"#utility.yul\":25159:25178   */\n      swap1\n      pop\n        /* \"#utility.yul\":24818:25184   */\n      swap2\n      swap1\n      pop\n      jump\t// out\n        /* \"#utility.yul\":25190:25609   */\n    tag_194:\n        /* \"#utility.yul\":25356:25360   */\n      0x00\n        /* \"#utility.yul\":25394:25396   */\n      0x20\n        /* \"#utility.yul\":25383:25392   */\n      dup3\n        /* \"#utility.yul\":25379:25397   */\n      add\n        /* \"#utility.yul\":25371:25397   */\n      swap1\n      pop\n        /* \"#utility.yul\":25443:25452   */\n      dup2\n        /* \"#utility.yul\":25437:25441   */\n      dup2\n        /* \"#utility.yul\":25433:25453   */\n      sub\n        /* \"#utility.yul\":25429:25430   */\n      0x00\n        /* \"#utility.yul\":25418:25427   */\n      dup4\n        /* \"#utility.yul\":25414:25431   */\n      add\n        /* \"#utility.yul\":25407:25454   */\n      mstore\n        /* \"#utility.yul\":25471:25602   */\n      tag_503\n        /* \"#utility.yul\":25597:25601   */\n      dup2\n        /* \"#utility.yul\":25471:25602   */\n      tag_286\n      jump\t// in\n    tag_503:\n        /* \"#utility.yul\":25463:25602   */\n      swap1\n      pop\n        /* \"#utility.yul\":25190:25609   */\n      swap2\n      swap1\n      pop\n      jump\t// out\n        /* \"#utility.yul\":25615:25694   */\n    tag_287:\n        /* \"#utility.yul\":25654:25661   */\n      0x00\n        /* \"#utility.yul\":25683:25688   */\n      dup2\n        /* \"#utility.yul\":25672:25688   */\n      swap1\n      pop\n        /* \"#utility.yul\":25615:25694   */\n      swap2\n      swap1\n      pop\n      jump\t// out\n        /* \"#utility.yul\":25700:25857   */\n    tag_288:\n        /* \"#utility.yul\":25805:25850   */\n      tag_506\n        /* \"#utility.yul\":25825:25849   */\n      tag_507\n        /* \"#utility.yul\":25843:25848   */\n      dup3\n        /* \"#utility.yul\":25825:25849   */\n      tag_238\n      jump\t// in\n    tag_507:\n        /* \"#utility.yul\":25805:25850   */\n      tag_287\n      jump\t// in\n    tag_506:\n        /* \"#utility.yul\":25800:25803   */\n      dup3\n        /* \"#utility.yul\":25793:25851   */\n      mstore\n        /* \"#utility.yul\":25700:25857   */\n      pop\n      pop\n      jump\t// out\n        /* \"#utility.yul\":25863:25957   */\n    tag_289:\n        /* \"#utility.yul\":25896:25904   */\n      0x00\n        /* \"#utility.yul\":25944:25949   */\n      dup2\n        /* \"#utility.yul\":25940:25942   */\n      0x60\n        /* \"#utility.yul\":25936:25950   */\n      shl\n        /* \"#utility.yul\":25915:25950   */\n      swap1\n      pop\n        /* \"#utility.yul\":25863:25957   */\n      swap2\n      swap1\n      pop\n      jump\t// out\n        /* \"#utility.yul\":25963:26057   */\n    tag_290:\n        /* \"#utility.yul\":26002:26009   */\n      0x00\n        /* \"#utility.yul\":26031:26051   */\n      tag_510\n        /* \"#utility.yul\":26045:26050   */\n      dup3\n        /* \"#utility.yul\":26031:26051   */\n      tag_289\n      jump\t// in\n    tag_510:\n        /* \"#utility.yul\":26020:26051   */\n      swap1\n      pop\n        /* \"#utility.yul\":25963:26057   */\n      swap2\n      swap1\n      pop\n      jump\t// out\n        /* \"#utility.yul\":26063:26163   */\n    tag_291:\n        /* \"#utility.yul\":26102:26109   */\n      0x00\n        /* \"#utility.yul\":26131:26157   */\n      tag_512\n        /* \"#utility.yul\":26151:26156   */\n      dup3\n        /* \"#utility.yul\":26131:26157   */\n      tag_290\n      jump\t// in\n    tag_512:\n        /* \"#utility.yul\":26120:26157   */\n      swap1\n      pop\n        /* \"#utility.yul\":26063:26163   */\n      swap2\n      swap1\n      pop\n      jump\t// out\n        /* \"#utility.yul\":26169:26326   */\n    tag_292:\n        /* \"#utility.yul\":26274:26319   */\n      tag_514\n        /* \"#utility.yul\":26294:26318   */\n      tag_515\n        /* \"#utility.yul\":26312:26317   */\n      dup3\n        /* \"#utility.yul\":26294:26318   */\n      tag_243\n      jump\t// in\n    tag_515:\n        /* \"#utility.yul\":26274:26319   */\n      tag_291\n      jump\t// in\n    tag_514:\n        /* \"#utility.yul\":26269:26272   */\n      dup3\n        /* \"#utility.yul\":26262:26320   */\n      mstore\n        /* \"#utility.yul\":26169:26326   */\n      pop\n      pop\n      jump\t// out\n        /* \"#utility.yul\":26332:26480   */\n    tag_293:\n        /* \"#utility.yul\":26434:26445   */\n      0x00\n        /* \"#utility.yul\":26471:26474   */\n      dup2\n        /* \"#utility.yul\":26456:26474   */\n      swap1\n      pop\n        /* \"#utility.yul\":26332:26480   */\n      swap3\n      swap2\n      pop\n      pop\n      jump\t// out\n        /* \"#utility.yul\":26486:26632   */\n    tag_294:\n        /* \"#utility.yul\":26583:26589   */\n      dup3\n        /* \"#utility.yul\":26578:26581   */\n      dup2\n        /* \"#utility.yul\":26573:26576   */\n      dup4\n        /* \"#utility.yul\":26560:26590   */\n      calldatacopy\n        /* \"#utility.yul\":26624:26625   */\n      0x00\n        /* \"#utility.yul\":26615:26621   */\n      dup4\n        /* \"#utility.yul\":26610:26613   */\n      dup4\n        /* \"#utility.yul\":26606:26622   */\n      add\n        /* \"#utility.yul\":26599:26626   */\n      mstore\n        /* \"#utility.yul\":26486:26632   */\n      pop\n      pop\n      pop\n      jump\t// out\n        /* \"#utility.yul\":26662:26992   */\n    tag_295:\n        /* \"#utility.yul\":26778:26781   */\n      0x00\n        /* \"#utility.yul\":26799:26888   */\n      tag_519\n        /* \"#utility.yul\":26881:26887   */\n      dup4\n        /* \"#utility.yul\":26876:26879   */\n      dup6\n        /* \"#utility.yul\":26799:26888   */\n      tag_293\n      jump\t// in\n    tag_519:\n        /* \"#utility.yul\":26792:26888   */\n      swap4\n      pop\n        /* \"#utility.yul\":26898:26954   */\n      tag_520\n        /* \"#utility.yul\":26947:26953   */\n      dup4\n        /* \"#utility.yul\":26942:26945   */\n      dup6\n        /* \"#utility.yul\":26935:26940   */\n      dup5\n        /* \"#utility.yul\":26898:26954   */\n      tag_294\n      jump\t// in\n    tag_520:\n        /* \"#utility.yul\":26979:26985   */\n      dup3\n        /* \"#utility.yul\":26974:26977   */\n      dup5\n        /* \"#utility.yul\":26970:26986   */\n      add\n        /* \"#utility.yul\":26963:26986   */\n      swap1\n      pop\n        /* \"#utility.yul\":26662:26992   */\n      swap4\n      swap3\n      pop\n      pop\n      pop\n      jump\t// out\n        /* \"#utility.yul\":26998:27575   */\n    tag_207:\n        /* \"#utility.yul\":27196:27199   */\n      0x00\n        /* \"#utility.yul\":27211:27286   */\n      tag_522\n        /* \"#utility.yul\":27282:27285   */\n      dup3\n        /* \"#utility.yul\":27273:27279   */\n      dup8\n        /* \"#utility.yul\":27211:27286   */\n      tag_288\n      jump\t// in\n    tag_522:\n        /* \"#utility.yul\":27311:27313   */\n      0x20\n        /* \"#utility.yul\":27306:27309   */\n      dup3\n        /* \"#utility.yul\":27302:27314   */\n      add\n        /* \"#utility.yul\":27295:27314   */\n      swap2\n      pop\n        /* \"#utility.yul\":27324:27399   */\n      tag_523\n        /* \"#utility.yul\":27395:27398   */\n      dup3\n        /* \"#utility.yul\":27386:27392   */\n      dup7\n        /* \"#utility.yul\":27324:27399   */\n      tag_292\n      jump\t// in\n    tag_523:\n        /* \"#utility.yul\":27424:27426   */\n      0x14\n        /* \"#utility.yul\":27419:27422   */\n      dup3\n        /* \"#utility.yul\":27415:27427   */\n      add\n        /* \"#utility.yul\":27408:27427   */\n      swap2\n      pop\n        /* \"#utility.yul\":27444:27549   */\n      tag_524\n        /* \"#utility.yul\":27545:27548   */\n      dup3\n        /* \"#utility.yul\":27536:27542   */\n      dup5\n        /* \"#utility.yul\":27528:27534   */\n      dup7\n        /* \"#utility.yul\":27444:27549   */\n      tag_295\n      jump\t// in\n    tag_524:\n        /* \"#utility.yul\":27437:27549   */\n      swap2\n      pop\n        /* \"#utility.yul\":27566:27569   */\n      dup2\n        /* \"#utility.yul\":27559:27569   */\n      swap1\n      pop\n        /* \"#utility.yul\":26998:27575   */\n      swap6\n      swap5\n      pop\n      pop\n      pop\n      pop\n      pop\n      jump\t// out\n        /* \"#utility.yul\":27581:27761   */\n    tag_296:\n        /* \"#utility.yul\":27629:27706   */\n      0x4e487b7100000000000000000000000000000000000000000000000000000000\n        /* \"#utility.yul\":27626:27627   */\n      0x00\n        /* \"#utility.yul\":27619:27707   */\n      mstore\n        /* \"#utility.yul\":27726:27730   */\n      0x12\n        /* \"#utility.yul\":27723:27724   */\n      0x04\n        /* \"#utility.yul\":27716:27731   */\n      mstore\n        /* \"#utility.yul\":27750:27754   */\n      0x24\n        /* \"#utility.yul\":27747:27748   */\n      0x00\n        /* \"#utility.yul\":27740:27755   */\n      revert\n        /* \"#utility.yul\":27767:27943   */\n    tag_209:\n        /* \"#utility.yul\":27799:27800   */\n      0x00\n        /* \"#utility.yul\":27816:27836   */\n      tag_527\n        /* \"#utility.yul\":27834:27835   */\n      dup3\n        /* \"#utility.yul\":27816:27836   */\n      tag_238\n      jump\t// in\n    tag_527:\n        /* \"#utility.yul\":27811:27836   */\n      swap2\n      pop\n        /* \"#utility.yul\":27850:27870   */\n      tag_528\n        /* \"#utility.yul\":27868:27869   */\n      dup4\n        /* \"#utility.yul\":27850:27870   */\n      tag_238\n      jump\t// in\n    tag_528:\n        /* \"#utility.yul\":27845:27870   */\n      swap3\n      pop\n        /* \"#utility.yul\":27889:27890   */\n      dup3\n        /* \"#utility.yul\":27879:27914   */\n      tag_529\n      jumpi\n        /* \"#utility.yul\":27894:27912   */\n      tag_530\n      tag_296\n      jump\t// in\n    tag_530:\n        /* \"#utility.yul\":27879:27914   */\n    tag_529:\n        /* \"#utility.yul\":27935:27936   */\n      dup3\n        /* \"#utility.yul\":27932:27933   */\n      dup3\n        /* \"#utility.yul\":27928:27937   */\n      mod\n        /* \"#utility.yul\":27923:27937   */\n      swap1\n      pop\n        /* \"#utility.yul\":27767:27943   */\n      swap3\n      swap2\n      pop\n      pop\n      jump\t// out\n        /* \"#utility.yul\":27949:28134   */\n    tag_219:\n        /* \"#utility.yul\":27989:27990   */\n      0x00\n        /* \"#utility.yul\":28006:28026   */\n      tag_532\n        /* \"#utility.yul\":28024:28025   */\n      dup3\n        /* \"#utility.yul\":28006:28026   */\n      tag_238\n      jump\t// in\n    tag_532:\n        /* \"#utility.yul\":28001:28026   */\n      swap2\n      pop\n        /* \"#utility.yul\":28040:28060   */\n      tag_533\n        /* \"#utility.yul\":28058:28059   */\n      dup4\n        /* \"#utility.yul\":28040:28060   */\n      tag_238\n      jump\t// in\n    tag_533:\n        /* \"#utility.yul\":28035:28060   */\n      swap3\n      pop\n        /* \"#utility.yul\":28079:28080   */\n      dup3\n        /* \"#utility.yul\":28069:28104   */\n      tag_534\n      jumpi\n        /* \"#utility.yul\":28084:28102   */\n      tag_535\n      tag_296\n      jump\t// in\n    tag_535:\n        /* \"#utility.yul\":28069:28104   */\n    tag_534:\n        /* \"#utility.yul\":28126:28127   */\n      dup3\n        /* \"#utility.yul\":28123:28124   */\n      dup3\n        /* \"#utility.yul\":28119:28128   */\n      div\n        /* \"#utility.yul\":28114:28128   */\n      swap1\n      pop\n        /* \"#utility.yul\":27949:28134   */\n      swap3\n      swap2\n      pop\n      pop\n      jump\t// out\n        /* \"#utility.yul\":28140:28472   */\n    tag_222:\n        /* \"#utility.yul\":28261:28265   */\n      0x00\n        /* \"#utility.yul\":28299:28301   */\n      0x40\n        /* \"#utility.yul\":28288:28297   */\n      dup3\n        /* \"#utility.yul\":28284:28302   */\n      add\n        /* \"#utility.yul\":28276:28302   */\n      swap1\n      pop\n        /* \"#utility.yul\":28312:28383   */\n      tag_537\n        /* \"#utility.yul\":28380:28381   */\n      0x00\n        /* \"#utility.yul\":28369:28378   */\n      dup4\n        /* \"#utility.yul\":28365:28382   */\n      add\n        /* \"#utility.yul\":28356:28362   */\n      dup6\n        /* \"#utility.yul\":28312:28383   */\n      tag_244\n      jump\t// in\n    tag_537:\n        /* \"#utility.yul\":28393:28465   */\n      tag_538\n        /* \"#utility.yul\":28461:28463   */\n      0x20\n        /* \"#utility.yul\":28450:28459   */\n      dup4\n        /* \"#utility.yul\":28446:28464   */\n      add\n        /* \"#utility.yul\":28437:28443   */\n      dup5\n        /* \"#utility.yul\":28393:28465   */\n      tag_241\n      jump\t// in\n    tag_538:\n        /* \"#utility.yul\":28140:28472   */\n      swap4\n      swap3\n      pop\n      pop\n      pop\n      jump\t// out\n\n    auxdata: 0xa2646970667358221220c5ba06aa3e9d3c972a126de63cc7d18f9f50edd83129e6b9ee38bc593990842164736f6c63430008120033\n}\n",
				"bytecode": {
					"linkReferences": {},
					"object": "608060405234801561001057600080fd5b50336000806101000a81548173ffffffffffffffffffffffffffffffffffffffff021916908373ffffffffffffffffffffffffffffffffffffffff1602179055506127bc806100606000396000f3fe608060405234801561001057600080fd5b50600436106100935760003560e01c80635fba3171116100665780635fba31711461014f57806366a766421461016b5780638da5cb5b1461019b578063a792813c146101b9578063f6ce4bc5146101d557610093565b80630b0cfcd41461009857806317b937e6146100c85780635a9365e4146100f85780635d4bc0ce14610114575b600080fd5b6100b260048036038101906100ad9190611840565b6101f1565b6040516100bf919061187c565b60405180910390f35b6100e260048036038101906100dd9190611897565b610220565b6040516100ef9190611918565b60405180910390f35b610112600480360381019061010d9190611998565b610277565b005b61012e60048036038101906101299190611840565b6105b3565b6040516101469c9b9a99989796959493929190611a6f565b60405180910390f35b61016960048036038101906101649190611840565b6106b0565b005b61018560048036038101906101809190611b55565b61097e565b604051610192919061187c565b60405180910390f35b6101a3610e6f565b6040516101b09190611918565b60405180910390f35b6101d360048036038101906101ce9190611be2565b610e93565b005b6101ef60048036038101906101ea9190611840565b61124c565b005b60006001828154811061020757610206611c35565b5b90600052602060002090600c0201600401549050919050565b6002602052816000526040600020818154811061023c57600080fd5b90600052602060002001600091509150508060000160009054906101000a900473ffffffffffffffffffffffffffffffffffffffff16905081565b60008054906101000a900473ffffffffffffffffffffffffffffffffffffffff1673ffffffffffffffffffffffffffffffffffffffff163373ffffffffffffffffffffffffffffffffffffffff1614610305576040517f08c379a00000000000000000000000000000000000000000000000000000000081526004016102fc90611ce7565b60405180910390fd5b60006001848154811061031b5761031a611c35565b5b90600052602060002090600c020190506001600281111561033f5761033e6119f8565b5b8160000160009054906101000a900460ff166002811115610363576103626119f8565b5b141580156103a6575060028081111561037f5761037e6119f8565b5b8160000160009054906101000a900460ff1660028111156103a3576103a26119f8565b5b14155b6103e5576040517f08c379a00000000000000000000000000000000000000000000000000000000081526004016103dc90611d53565b60405180910390fd5b806002015460026000868152602001908152602001600020805490501015610442576040517f08c379a000000000000000000000000000000000000000000000000000000000815260040161043990611de5565b60405180910390fd5b600061047184846001600260008a81526020019081526020016000208054905061046c9190611e34565b6113f2565b9050600060026000878152602001908152602001600020828154811061049a57610499611c35565b5b9060005260206000200160000160009054906101000a900473ffffffffffffffffffffffffffffffffffffffff1690508083600b0160006101000a81548173ffffffffffffffffffffffffffffffffffffffff021916908373ffffffffffffffffffffffffffffffffffffffff16021790555060018360000160006101000a81548160ff02191690836002811115610535576105346119f8565b5b021790555082600b0160009054906101000a900473ffffffffffffffffffffffffffffffffffffffff1673ffffffffffffffffffffffffffffffffffffffff16867fce2cddfd400adbcf694cea71fb57997f5c7a9fc7487c6f7701c97bcddf21709560405160405180910390a36105ab86611444565b505050505050565b600181815481106105c357600080fd5b90600052602060002090600c02016000915090508060000160009054906101000a900460ff16908060010154908060020154908060030154908060040154908060050154908060060154908060070160009054906101000a900473ffffffffffffffffffffffffffffffffffffffff16908060080154908060090160009054906101000a900473ffffffffffffffffffffffffffffffffffffffff169080600a0160009054906101000a900473ffffffffffffffffffffffffffffffffffffffff169080600b0160009054906101000a900473ffffffffffffffffffffffffffffffffffffffff1690508c565b600181815481106106c4576106c3611c35565b5b90600052602060002090600c0201600a0160009054906101000a900473ffffffffffffffffffffffffffffffffffffffff1673ffffffffffffffffffffffffffffffffffffffff163373ffffffffffffffffffffffffffffffffffffffff1614610763576040517f08c379a000000000000000000000000000000000000000000000000000000000815260040161075a90611eda565b60405180910390fd5b60006002600083815260200190815260200160002080549050146107bc576040517f08c379a00000000000000000000000000000000000000000000000000000000081526004016107b390611f6c565b60405180910390fd5b6000600182815481106107d2576107d1611c35565b5b90600052602060002090600c02019050600060028111156107f6576107f56119f8565b5b8160000160009054906101000a900460ff16600281111561081a576108196119f8565b5b1461085a576040517f08c379a000000000000000000000000000000000000000000000000000000000815260040161085190611fd8565b60405180910390fd5b600081600a0160009054906101000a900473ffffffffffffffffffffffffffffffffffffffff16905060008260090160009054906101000a900473ffffffffffffffffffffffffffffffffffffffff1690508073ffffffffffffffffffffffffffffffffffffffff166323b872dd308486600801546040518463ffffffff1660e01b81526004016108ed93929190611ff8565b600060405180830381600087803b15801561090757600080fd5b505af115801561091b573d6000803e3d6000fd5b5050505060028360000160006101000a81548160ff02191690836002811115610947576109466119f8565b5b0217905550837ed12fb3853f1b33ba57f4469e7208a47e391853ab650de6721cbbe59505876760405160405180910390a250505050565b60008087116109c2576040517f08c379a00000000000000000000000000000000000000000000000000000000081526004016109b9906120a1565b60405180910390fd5b60008611610a05576040517f08c379a00000000000000000000000000000000000000000000000000000000081526004016109fc90612133565b60405180910390fd5b600073ffffffffffffffffffffffffffffffffffffffff168573ffffffffffffffffffffffffffffffffffffffff1603610a74576040517f08c379a0000000000000000000000000000000000000000000000000000000008152600401610a6b906121c5565b60405180910390fd5b6000841015610ab8576040517f08c379a0000000000000000000000000000000000000000000000000000000008152600401610aaf90612257565b60405180910390fd5b600073ffffffffffffffffffffffffffffffffffffffff168273ffffffffffffffffffffffffffffffffffffffff1603610b27576040517f08c379a0000000000000000000000000000000000000000000000000000000008152600401610b1e906122e9565b60405180910390fd5b60008311610b6a576040517f08c379a0000000000000000000000000000000000000000000000000000000008152600401610b619061237b565b60405180910390fd5b610b75848633611786565b600060405180610180016040528060006002811115610b9757610b966119f8565b5b815260200189815260200188815260200160008152602001898152602001600081526020018581526020018473ffffffffffffffffffffffffffffffffffffffff1681526020018681526020018773ffffffffffffffffffffffffffffffffffffffff1681526020013373ffffffffffffffffffffffffffffffffffffffff168152602001600073ffffffffffffffffffffffffffffffffffffffff16815250905060018190806001815401808255809150506001900390600052602060002090600c020160009091909190915060008201518160000160006101000a81548160ff02191690836002811115610c9057610c8f6119f8565b5b02179055506020820151816001015560408201518160020155606082015181600301556080820151816004015560a0820151816005015560c0820151816006015560e08201518160070160006101000a81548173ffffffffffffffffffffffffffffffffffffffff021916908373ffffffffffffffffffffffffffffffffffffffff16021790555061010082015181600801556101208201518160090160006101000a81548173ffffffffffffffffffffffffffffffffffffffff021916908373ffffffffffffffffffffffffffffffffffffffff16021790555061014082015181600a0160006101000a81548173ffffffffffffffffffffffffffffffffffffffff021916908373ffffffffffffffffffffffffffffffffffffffff16021790555061016082015181600b0160006101000a81548173ffffffffffffffffffffffffffffffffffffffff021916908373ffffffffffffffffffffffffffffffffffffffff16021790555050503373ffffffffffffffffffffffffffffffffffffffff1660018080549050610e259190611e34565b7fcb178589a0d989fbb3e2b855e0fe244bf88db81a5afa0de5ec6a7fd2c16fcb3560405160405180910390a360018080549050610e629190611e34565b9150509695505050505050565b60008054906101000a900473ffffffffffffffffffffffffffffffffffffffff1681565b82600260008481526020019081526020016000208054905060018481548110610ebf57610ebe611c35565b5b90600052602060002090600c020160010154610edb9190611e34565b1015610f1c576040517f08c379a0000000000000000000000000000000000000000000000000000000008152600401610f13906123e7565b60405180910390fd5b60018281548110610f3057610f2f611c35565b5b90600052602060002090600c0201600a0160009054906101000a900473ffffffffffffffffffffffffffffffffffffffff1673ffffffffffffffffffffffffffffffffffffffff168173ffffffffffffffffffffffffffffffffffffffff1603610fcf576040517f08c379a0000000000000000000000000000000000000000000000000000000008152600401610fc690612479565b60405180910390fd5b60008360018481548110610fe657610fe5611c35565b5b90600052602060002090600c0201600601546110029190612499565b905060006001848154811061101a57611019611c35565b5b90600052602060002090600c020160070160009054906101000a900473ffffffffffffffffffffffffffffffffffffffff1690508073ffffffffffffffffffffffffffffffffffffffff166323b872dd3330856040518463ffffffff1660e01b815260040161108b93929190611ff8565b600060405180830381600087803b1580156110a557600080fd5b505af11580156110b9573d6000803e3d6000fd5b50505050600060405180602001604052808573ffffffffffffffffffffffffffffffffffffffff16815250905060005b868110156111865760026000878152602001908152602001600020829080600181540180825580915050600190039060005260206000200160009091909190915060008201518160000160006101000a81548173ffffffffffffffffffffffffffffffffffffffff021916908373ffffffffffffffffffffffffffffffffffffffff1602179055505050808061117e906124db565b9150506110e9565b50826001868154811061119c5761119b611c35565b5b90600052602060002090600c020160030160008282546111bc9190612523565b9250508190555085600186815481106111d8576111d7611c35565b5b90600052602060002090600c020160040160008282546111f89190611e34565b925050819055508373ffffffffffffffffffffffffffffffffffffffff1686867f1dea0bd0e9dbea861bff2025a18b89bdc767204ebc6a7ebe66ec8331442387df60405160405180910390a4505050505050565b60008054906101000a900473ffffffffffffffffffffffffffffffffffffffff1673ffffffffffffffffffffffffffffffffffffffff163373ffffffffffffffffffffffffffffffffffffffff16146112da576040517f08c379a00000000000000000000000000000000000000000000000000000000081526004016112d1906125c9565b60405180910390fd5b6000600182815481106112f0576112ef611c35565b5b90600052602060002090600c0201905060008160090160009054906101000a900473ffffffffffffffffffffffffffffffffffffffff1690508073ffffffffffffffffffffffffffffffffffffffff166323b872dd3084600a0160009054906101000a900473ffffffffffffffffffffffffffffffffffffffff1685600801546040518463ffffffff1660e01b815260040161138e93929190611ff8565b600060405180830381600087803b1580156113a857600080fd5b505af11580156113bc573d6000803e3d6000fd5b5050505060018260000160006101000a81548160ff021916908360028111156113e8576113e76119f8565b5b0217905550505050565b60006001826114019190612523565b423386866040516020016114189493929190612691565b6040516020818303038152906040528051906020012060001c61143b91906126fb565b90509392505050565b60006001828154811061145a57611459611c35565b5b90600052602060002090600c0201604051806101800160405290816000820160009054906101000a900460ff166002811115611499576114986119f8565b5b60028111156114ab576114aa6119f8565b5b81526020016001820154815260200160028201548152602001600382015481526020016004820154815260200160058201548152602001600682015481526020016007820160009054906101000a900473ffffffffffffffffffffffffffffffffffffffff1673ffffffffffffffffffffffffffffffffffffffff1673ffffffffffffffffffffffffffffffffffffffff168152602001600882015481526020016009820160009054906101000a900473ffffffffffffffffffffffffffffffffffffffff1673ffffffffffffffffffffffffffffffffffffffff1673ffffffffffffffffffffffffffffffffffffffff168152602001600a820160009054906101000a900473ffffffffffffffffffffffffffffffffffffffff1673ffffffffffffffffffffffffffffffffffffffff1673ffffffffffffffffffffffffffffffffffffffff168152602001600b820160009054906101000a900473ffffffffffffffffffffffffffffffffffffffff1673ffffffffffffffffffffffffffffffffffffffff1673ffffffffffffffffffffffffffffffffffffffff1681525050905060008160e00151905060648260600151611669919061272c565b8260a001818152505060008260a0015183606001516116889190611e34565b90508173ffffffffffffffffffffffffffffffffffffffff1663a9059cbb846101400151836040518363ffffffff1660e01b81526004016116ca92919061275d565b600060405180830381600087803b1580156116e457600080fd5b505af11580156116f8573d6000803e3d6000fd5b50505050600083610120015190508073ffffffffffffffffffffffffffffffffffffffff166323b872dd308661016001518761010001516040518463ffffffff1660e01b815260040161174d93929190611ff8565b600060405180830381600087803b15801561176757600080fd5b505af115801561177b573d6000803e3d6000fd5b505050505050505050565b60008290508073ffffffffffffffffffffffffffffffffffffffff166323b872dd8330876040518463ffffffff1660e01b81526004016117c893929190611ff8565b600060405180830381600087803b1580156117e257600080fd5b505af11580156117f6573d6000803e3d6000fd5b5050505050505050565b600080fd5b600080fd5b6000819050919050565b61181d8161180a565b811461182857600080fd5b50565b60008135905061183a81611814565b92915050565b60006020828403121561185657611855611800565b5b60006118648482850161182b565b91505092915050565b6118768161180a565b82525050565b6000602082019050611891600083018461186d565b92915050565b600080604083850312156118ae576118ad611800565b5b60006118bc8582860161182b565b92505060206118cd8582860161182b565b9150509250929050565b600073ffffffffffffffffffffffffffffffffffffffff82169050919050565b6000611902826118d7565b9050919050565b611912816118f7565b82525050565b600060208201905061192d6000830184611909565b92915050565b600080fd5b600080fd5b600080fd5b60008083601f84011261195857611957611933565b5b8235905067ffffffffffffffff81111561197557611974611938565b5b6020830191508360018202830111156119915761199061193d565b5b9250929050565b6000806000604084860312156119b1576119b0611800565b5b60006119bf8682870161182b565b935050602084013567ffffffffffffffff8111156119e0576119df611805565b5b6119ec86828701611942565b92509250509250925092565b7f4e487b7100000000000000000000000000000000000000000000000000000000600052602160045260246000fd5b60038110611a3857611a376119f8565b5b50565b6000819050611a4982611a27565b919050565b6000611a5982611a3b565b9050919050565b611a6981611a4e565b82525050565b600061018082019050611a85600083018f611a60565b611a92602083018e61186d565b611a9f604083018d61186d565b611aac606083018c61186d565b611ab9608083018b61186d565b611ac660a083018a61186d565b611ad360c083018961186d565b611ae060e0830188611909565b611aee61010083018761186d565b611afc610120830186611909565b611b0a610140830185611909565b611b18610160830184611909565b9d9c50505050505050505050505050565b611b32816118f7565b8114611b3d57600080fd5b50565b600081359050611b4f81611b29565b92915050565b60008060008060008060c08789031215611b7257611b71611800565b5b6000611b8089828a0161182b565b9650506020611b9189828a0161182b565b9550506040611ba289828a01611b40565b9450506060611bb389828a0161182b565b9350506080611bc489828a0161182b565b92505060a0611bd589828a01611b40565b9150509295509295509295565b600080600060608486031215611bfb57611bfa611800565b5b6000611c098682870161182b565b9350506020611c1a8682870161182b565b9250506040611c2b86828701611b40565b9150509250925092565b7f4e487b7100000000000000000000000000000000000000000000000000000000600052603260045260246000fd5b600082825260208201905092915050565b7f4170656e6173206f206f776e657220706f6465207265616c697a61722061206360008201527f68616d6164612064657373612066756e63616f00000000000000000000000000602082015250565b6000611cd1603383611c64565b9150611cdc82611c75565b604082019050919050565b60006020820190508181036000830152611d0081611cc4565b9050919050565b7f4f20526166666c65206a6120666f692066696e616c697a61646f000000000000600082015250565b6000611d3d601a83611c64565b9150611d4882611d07565b602082019050919050565b60006020820190508181036000830152611d6c81611d30565b9050919050565b7f5175616e746964616465206465207469636b65747320696e737566696369656e60008201527f7465730000000000000000000000000000000000000000000000000000000000602082015250565b6000611dcf602383611c64565b9150611dda82611d73565b604082019050919050565b60006020820190508181036000830152611dfe81611dc2565b9050919050565b7f4e487b7100000000000000000000000000000000000000000000000000000000600052601160045260246000fd5b6000611e3f8261180a565b9150611e4a8361180a565b9250828203905081811115611e6257611e61611e05565b5b92915050565b7f4170656e6173206f2073656c6c657220706f6465207265616c697a6172206f2060008201527f63616e63656c616d656e746f0000000000000000000000000000000000000000602082015250565b6000611ec4602c83611c64565b9150611ecf82611e68565b604082019050919050565b60006020820190508181036000830152611ef381611eb7565b9050919050565b7f4f20726166666c65206e616f20706f6465206d616973207365722063616e636560008201527f6c61646f00000000000000000000000000000000000000000000000000000000602082015250565b6000611f56602483611c64565b9150611f6182611efa565b604082019050919050565b60006020820190508181036000830152611f8581611f49565b9050919050565b7f4f20726166666c65206a6120666f692066696e616c697a61646f000000000000600082015250565b6000611fc2601a83611c64565b9150611fcd82611f8c565b602082019050919050565b60006020820190508181036000830152611ff181611fb5565b9050919050565b600060608201905061200d6000830186611909565b61201a6020830185611909565b612027604083018461186d565b949350505050565b7f4e756d65726f206465207469636b657473206465766520736572206d61696f7260008201527f20717565207a65726f0000000000000000000000000000000000000000000000602082015250565b600061208b602983611c64565b91506120968261202f565b604082019050919050565b600060208201905081810360008301526120ba8161207e565b9050919050565b7f4e756d65726f206d696e696d6f206465207469636b657473206465766520736560008201527f72206d61696f7220717565207a65726f00000000000000000000000000000000602082015250565b600061211d603083611c64565b9150612128826120c1565b604082019050919050565b6000602082019050818103600083015261214c81612110565b9050919050565b7f4f20656e64657265636f20646f20636f6e747261746f204e465420646576652060008201527f736572206469666572656e746520646520300000000000000000000000000000602082015250565b60006121af603283611c64565b91506121ba82612153565b604082019050919050565b600060208201905081810360008301526121de816121a2565b9050919050565b7f4f20696420646f20746f6b656e206465766520736572206d61696f722071756560008201527f207a65726f000000000000000000000000000000000000000000000000000000602082015250565b6000612241602583611c64565b915061224c826121e5565b604082019050919050565b6000602082019050818103600083015261227081612234565b9050919050565b7f4f20656e64657265636f20646f20746f6b656e2061207365722072656365626960008201527f646f206465766520736572206469666572656e74652064652030000000000000602082015250565b60006122d3603a83611c64565b91506122de82612277565b604082019050919050565b60006020820190508181036000830152612302816122c6565b9050919050565b7f4f2076616c6f7220646f207469636b6574206465766520736572206d61696f7260008201527f20717565207a65726f0000000000000000000000000000000000000000000000602082015250565b6000612365602983611c64565b915061237082612309565b604082019050919050565b6000602082019050818103600083015261239481612358565b9050919050565b7f71746420696e646973706f6e6976656c00000000000000000000000000000000600082015250565b60006123d1601083611c64565b91506123dc8261239b565b602082019050919050565b60006020820190508181036000830152612400816123c4565b9050919050565b7f4f2073656c6c6572206e616f20706f646520636f6d7072617220656e7472616460008201527f617320646f2070726f7072696f20736f727465696f0000000000000000000000602082015250565b6000612463603583611c64565b915061246e82612407565b604082019050919050565b6000602082019050818103600083015261249281612456565b9050919050565b60006124a48261180a565b91506124af8361180a565b92508282026124bd8161180a565b915082820484148315176124d4576124d3611e05565b5b5092915050565b60006124e68261180a565b91507fffffffffffffffffffffffffffffffffffffffffffffffffffffffffffffffff820361251857612517611e05565b5b600182019050919050565b600061252e8261180a565b91506125398361180a565b925082820190508082111561255157612550611e05565b5b92915050565b7f4170656e6173206f206f776e657220706f6465207265616c697a61722061206460008201527f65766f6c7563616f000000000000000000000000000000000000000000000000602082015250565b60006125b3602883611c64565b91506125be82612557565b604082019050919050565b600060208201905081810360008301526125e2816125a6565b9050919050565b6000819050919050565b6126046125ff8261180a565b6125e9565b82525050565b60008160601b9050919050565b60006126228261260a565b9050919050565b600061263482612617565b9050919050565b61264c612647826118f7565b612629565b82525050565b600081905092915050565b82818337600083830152505050565b60006126788385612652565b935061268583858461265d565b82840190509392505050565b600061269d82876125f3565b6020820191506126ad828661263b565b6014820191506126be82848661266c565b915081905095945050505050565b7f4e487b7100000000000000000000000000000000000000000000000000000000600052601260045260246000fd5b60006127068261180a565b91506127118361180a565b925082612721576127206126cc565b5b828206905092915050565b60006127378261180a565b91506127428361180a565b925082612752576127516126cc565b5b828204905092915050565b60006040820190506127726000830185611909565b61277f602083018461186d565b939250505056fea2646970667358221220c5ba06aa3e9d3c972a126de63cc7d18f9f50edd83129e6b9ee38bc593990842164736f6c63430008120033",
					"opcodes": "PUSH1 0x80 PUSH1 0x40 MSTORE CALLVALUE DUP1 ISZERO PUSH2 0x10 JUMPI PUSH1 0x0 DUP1 REVERT JUMPDEST POP CALLER PUSH1 0x0 DUP1 PUSH2 0x100 EXP DUP2 SLOAD DUP2 PUSH20 0xFFFFFFFFFFFFFFFFFFFFFFFFFFFFFFFFFFFFFFFF MUL NOT AND SWAP1 DUP4 PUSH20 0xFFFFFFFFFFFFFFFFFFFFFFFFFFFFFFFFFFFFFFFF AND MUL OR SWAP1 SSTORE POP PUSH2 0x27BC DUP1 PUSH2 0x60 PUSH1 0x0 CODECOPY PUSH1 0x0 RETURN INVALID PUSH1 0x80 PUSH1 0x40 MSTORE CALLVALUE DUP1 ISZERO PUSH2 0x10 JUMPI PUSH1 0x0 DUP1 REVERT JUMPDEST POP PUSH1 0x4 CALLDATASIZE LT PUSH2 0x93 JUMPI PUSH1 0x0 CALLDATALOAD PUSH1 0xE0 SHR DUP1 PUSH4 0x5FBA3171 GT PUSH2 0x66 JUMPI DUP1 PUSH4 0x5FBA3171 EQ PUSH2 0x14F JUMPI DUP1 PUSH4 0x66A76642 EQ PUSH2 0x16B JUMPI DUP1 PUSH4 0x8DA5CB5B EQ PUSH2 0x19B JUMPI DUP1 PUSH4 0xA792813C EQ PUSH2 0x1B9 JUMPI DUP1 PUSH4 0xF6CE4BC5 EQ PUSH2 0x1D5 JUMPI PUSH2 0x93 JUMP JUMPDEST DUP1 PUSH4 0xB0CFCD4 EQ PUSH2 0x98 JUMPI DUP1 PUSH4 0x17B937E6 EQ PUSH2 0xC8 JUMPI DUP1 PUSH4 0x5A9365E4 EQ PUSH2 0xF8 JUMPI DUP1 PUSH4 0x5D4BC0CE EQ PUSH2 0x114 JUMPI JUMPDEST PUSH1 0x0 DUP1 REVERT JUMPDEST PUSH2 0xB2 PUSH1 0x4 DUP1 CALLDATASIZE SUB DUP2 ADD SWAP1 PUSH2 0xAD SWAP2 SWAP1 PUSH2 0x1840 JUMP JUMPDEST PUSH2 0x1F1 JUMP JUMPDEST PUSH1 0x40 MLOAD PUSH2 0xBF SWAP2 SWAP1 PUSH2 0x187C JUMP JUMPDEST PUSH1 0x40 MLOAD DUP1 SWAP2 SUB SWAP1 RETURN JUMPDEST PUSH2 0xE2 PUSH1 0x4 DUP1 CALLDATASIZE SUB DUP2 ADD SWAP1 PUSH2 0xDD SWAP2 SWAP1 PUSH2 0x1897 JUMP JUMPDEST PUSH2 0x220 JUMP JUMPDEST PUSH1 0x40 MLOAD PUSH2 0xEF SWAP2 SWAP1 PUSH2 0x1918 JUMP JUMPDEST PUSH1 0x40 MLOAD DUP1 SWAP2 SUB SWAP1 RETURN JUMPDEST PUSH2 0x112 PUSH1 0x4 DUP1 CALLDATASIZE SUB DUP2 ADD SWAP1 PUSH2 0x10D SWAP2 SWAP1 PUSH2 0x1998 JUMP JUMPDEST PUSH2 0x277 JUMP JUMPDEST STOP JUMPDEST PUSH2 0x12E PUSH1 0x4 DUP1 CALLDATASIZE SUB DUP2 ADD SWAP1 PUSH2 0x129 SWAP2 SWAP1 PUSH2 0x1840 JUMP JUMPDEST PUSH2 0x5B3 JUMP JUMPDEST PUSH1 0x40 MLOAD PUSH2 0x146 SWAP13 SWAP12 SWAP11 SWAP10 SWAP9 SWAP8 SWAP7 SWAP6 SWAP5 SWAP4 SWAP3 SWAP2 SWAP1 PUSH2 0x1A6F JUMP JUMPDEST PUSH1 0x40 MLOAD DUP1 SWAP2 SUB SWAP1 RETURN JUMPDEST PUSH2 0x169 PUSH1 0x4 DUP1 CALLDATASIZE SUB DUP2 ADD SWAP1 PUSH2 0x164 SWAP2 SWAP1 PUSH2 0x1840 JUMP JUMPDEST PUSH2 0x6B0 JUMP JUMPDEST STOP JUMPDEST PUSH2 0x185 PUSH1 0x4 DUP1 CALLDATASIZE SUB DUP2 ADD SWAP1 PUSH2 0x180 SWAP2 SWAP1 PUSH2 0x1B55 JUMP JUMPDEST PUSH2 0x97E JUMP JUMPDEST PUSH1 0x40 MLOAD PUSH2 0x192 SWAP2 SWAP1 PUSH2 0x187C JUMP JUMPDEST PUSH1 0x40 MLOAD DUP1 SWAP2 SUB SWAP1 RETURN JUMPDEST PUSH2 0x1A3 PUSH2 0xE6F JUMP JUMPDEST PUSH1 0x40 MLOAD PUSH2 0x1B0 SWAP2 SWAP1 PUSH2 0x1918 JUMP JUMPDEST PUSH1 0x40 MLOAD DUP1 SWAP2 SUB SWAP1 RETURN JUMPDEST PUSH2 0x1D3 PUSH1 0x4 DUP1 CALLDATASIZE SUB DUP2 ADD SWAP1 PUSH2 0x1CE SWAP2 SWAP1 PUSH2 0x1BE2 JUMP JUMPDEST PUSH2 0xE93 JUMP JUMPDEST STOP JUMPDEST PUSH2 0x1EF PUSH1 0x4 DUP1 CALLDATASIZE SUB DUP2 ADD SWAP1 PUSH2 0x1EA SWAP2 SWAP1 PUSH2 0x1840 JUMP JUMPDEST PUSH2 0x124C JUMP JUMPDEST STOP JUMPDEST PUSH1 0x0 PUSH1 0x1 DUP3 DUP2 SLOAD DUP2 LT PUSH2 0x207 JUMPI PUSH2 0x206 PUSH2 0x1C35 JUMP JUMPDEST JUMPDEST SWAP1 PUSH1 0x0 MSTORE PUSH1 0x20 PUSH1 0x0 KECCAK256 SWAP1 PUSH1 0xC MUL ADD PUSH1 0x4 ADD SLOAD SWAP1 POP SWAP2 SWAP1 POP JUMP JUMPDEST PUSH1 0x2 PUSH1 0x20 MSTORE DUP2 PUSH1 0x0 MSTORE PUSH1 0x40 PUSH1 0x0 KECCAK256 DUP2 DUP2 SLOAD DUP2 LT PUSH2 0x23C JUMPI PUSH1 0x0 DUP1 REVERT JUMPDEST SWAP1 PUSH1 0x0 MSTORE PUSH1 0x20 PUSH1 0x0 KECCAK256 ADD PUSH1 0x0 SWAP2 POP SWAP2 POP POP DUP1 PUSH1 0x0 ADD PUSH1 0x0 SWAP1 SLOAD SWAP1 PUSH2 0x100 EXP SWAP1 DIV PUSH20 0xFFFFFFFFFFFFFFFFFFFFFFFFFFFFFFFFFFFFFFFF AND SWAP1 POP DUP2 JUMP JUMPDEST PUSH1 0x0 DUP1 SLOAD SWAP1 PUSH2 0x100 EXP SWAP1 DIV PUSH20 0xFFFFFFFFFFFFFFFFFFFFFFFFFFFFFFFFFFFFFFFF AND PUSH20 0xFFFFFFFFFFFFFFFFFFFFFFFFFFFFFFFFFFFFFFFF AND CALLER PUSH20 0xFFFFFFFFFFFFFFFFFFFFFFFFFFFFFFFFFFFFFFFF AND EQ PUSH2 0x305 JUMPI PUSH1 0x40 MLOAD PUSH32 0x8C379A000000000000000000000000000000000000000000000000000000000 DUP2 MSTORE PUSH1 0x4 ADD PUSH2 0x2FC SWAP1 PUSH2 0x1CE7 JUMP JUMPDEST PUSH1 0x40 MLOAD DUP1 SWAP2 SUB SWAP1 REVERT JUMPDEST PUSH1 0x0 PUSH1 0x1 DUP5 DUP2 SLOAD DUP2 LT PUSH2 0x31B JUMPI PUSH2 0x31A PUSH2 0x1C35 JUMP JUMPDEST JUMPDEST SWAP1 PUSH1 0x0 MSTORE PUSH1 0x20 PUSH1 0x0 KECCAK256 SWAP1 PUSH1 0xC MUL ADD SWAP1 POP PUSH1 0x1 PUSH1 0x2 DUP2 GT ISZERO PUSH2 0x33F JUMPI PUSH2 0x33E PUSH2 0x19F8 JUMP JUMPDEST JUMPDEST DUP2 PUSH1 0x0 ADD PUSH1 0x0 SWAP1 SLOAD SWAP1 PUSH2 0x100 EXP SWAP1 DIV PUSH1 0xFF AND PUSH1 0x2 DUP2 GT ISZERO PUSH2 0x363 JUMPI PUSH2 0x362 PUSH2 0x19F8 JUMP JUMPDEST JUMPDEST EQ ISZERO DUP1 ISZERO PUSH2 0x3A6 JUMPI POP PUSH1 0x2 DUP1 DUP2 GT ISZERO PUSH2 0x37F JUMPI PUSH2 0x37E PUSH2 0x19F8 JUMP JUMPDEST JUMPDEST DUP2 PUSH1 0x0 ADD PUSH1 0x0 SWAP1 SLOAD SWAP1 PUSH2 0x100 EXP SWAP1 DIV PUSH1 0xFF AND PUSH1 0x2 DUP2 GT ISZERO PUSH2 0x3A3 JUMPI PUSH2 0x3A2 PUSH2 0x19F8 JUMP JUMPDEST JUMPDEST EQ ISZERO JUMPDEST PUSH2 0x3E5 JUMPI PUSH1 0x40 MLOAD PUSH32 0x8C379A000000000000000000000000000000000000000000000000000000000 DUP2 MSTORE PUSH1 0x4 ADD PUSH2 0x3DC SWAP1 PUSH2 0x1D53 JUMP JUMPDEST PUSH1 0x40 MLOAD DUP1 SWAP2 SUB SWAP1 REVERT JUMPDEST DUP1 PUSH1 0x2 ADD SLOAD PUSH1 0x2 PUSH1 0x0 DUP7 DUP2 MSTORE PUSH1 0x20 ADD SWAP1 DUP2 MSTORE PUSH1 0x20 ADD PUSH1 0x0 KECCAK256 DUP1 SLOAD SWAP1 POP LT ISZERO PUSH2 0x442 JUMPI PUSH1 0x40 MLOAD PUSH32 0x8C379A000000000000000000000000000000000000000000000000000000000 DUP2 MSTORE PUSH1 0x4 ADD PUSH2 0x439 SWAP1 PUSH2 0x1DE5 JUMP JUMPDEST PUSH1 0x40 MLOAD DUP1 SWAP2 SUB SWAP1 REVERT JUMPDEST PUSH1 0x0 PUSH2 0x471 DUP5 DUP5 PUSH1 0x1 PUSH1 0x2 PUSH1 0x0 DUP11 DUP2 MSTORE PUSH1 0x20 ADD SWAP1 DUP2 MSTORE PUSH1 0x20 ADD PUSH1 0x0 KECCAK256 DUP1 SLOAD SWAP1 POP PUSH2 0x46C SWAP2 SWAP1 PUSH2 0x1E34 JUMP JUMPDEST PUSH2 0x13F2 JUMP JUMPDEST SWAP1 POP PUSH1 0x0 PUSH1 0x2 PUSH1 0x0 DUP8 DUP2 MSTORE PUSH1 0x20 ADD SWAP1 DUP2 MSTORE PUSH1 0x20 ADD PUSH1 0x0 KECCAK256 DUP3 DUP2 SLOAD DUP2 LT PUSH2 0x49A JUMPI PUSH2 0x499 PUSH2 0x1C35 JUMP JUMPDEST JUMPDEST SWAP1 PUSH1 0x0 MSTORE PUSH1 0x20 PUSH1 0x0 KECCAK256 ADD PUSH1 0x0 ADD PUSH1 0x0 SWAP1 SLOAD SWAP1 PUSH2 0x100 EXP SWAP1 DIV PUSH20 0xFFFFFFFFFFFFFFFFFFFFFFFFFFFFFFFFFFFFFFFF AND SWAP1 POP DUP1 DUP4 PUSH1 0xB ADD PUSH1 0x0 PUSH2 0x100 EXP DUP2 SLOAD DUP2 PUSH20 0xFFFFFFFFFFFFFFFFFFFFFFFFFFFFFFFFFFFFFFFF MUL NOT AND SWAP1 DUP4 PUSH20 0xFFFFFFFFFFFFFFFFFFFFFFFFFFFFFFFFFFFFFFFF AND MUL OR SWAP1 SSTORE POP PUSH1 0x1 DUP4 PUSH1 0x0 ADD PUSH1 0x0 PUSH2 0x100 EXP DUP2 SLOAD DUP2 PUSH1 0xFF MUL NOT AND SWAP1 DUP4 PUSH1 0x2 DUP2 GT ISZERO PUSH2 0x535 JUMPI PUSH2 0x534 PUSH2 0x19F8 JUMP JUMPDEST JUMPDEST MUL OR SWAP1 SSTORE POP DUP3 PUSH1 0xB ADD PUSH1 0x0 SWAP1 SLOAD SWAP1 PUSH2 0x100 EXP SWAP1 DIV PUSH20 0xFFFFFFFFFFFFFFFFFFFFFFFFFFFFFFFFFFFFFFFF AND PUSH20 0xFFFFFFFFFFFFFFFFFFFFFFFFFFFFFFFFFFFFFFFF AND DUP7 PUSH32 0xCE2CDDFD400ADBCF694CEA71FB57997F5C7A9FC7487C6F7701C97BCDDF217095 PUSH1 0x40 MLOAD PUSH1 0x40 MLOAD DUP1 SWAP2 SUB SWAP1 LOG3 PUSH2 0x5AB DUP7 PUSH2 0x1444 JUMP JUMPDEST POP POP POP POP POP POP JUMP JUMPDEST PUSH1 0x1 DUP2 DUP2 SLOAD DUP2 LT PUSH2 0x5C3 JUMPI PUSH1 0x0 DUP1 REVERT JUMPDEST SWAP1 PUSH1 0x0 MSTORE PUSH1 0x20 PUSH1 0x0 KECCAK256 SWAP1 PUSH1 0xC MUL ADD PUSH1 0x0 SWAP2 POP SWAP1 POP DUP1 PUSH1 0x0 ADD PUSH1 0x0 SWAP1 SLOAD SWAP1 PUSH2 0x100 EXP SWAP1 DIV PUSH1 0xFF AND SWAP1 DUP1 PUSH1 0x1 ADD SLOAD SWAP1 DUP1 PUSH1 0x2 ADD SLOAD SWAP1 DUP1 PUSH1 0x3 ADD SLOAD SWAP1 DUP1 PUSH1 0x4 ADD SLOAD SWAP1 DUP1 PUSH1 0x5 ADD SLOAD SWAP1 DUP1 PUSH1 0x6 ADD SLOAD SWAP1 DUP1 PUSH1 0x7 ADD PUSH1 0x0 SWAP1 SLOAD SWAP1 PUSH2 0x100 EXP SWAP1 DIV PUSH20 0xFFFFFFFFFFFFFFFFFFFFFFFFFFFFFFFFFFFFFFFF AND SWAP1 DUP1 PUSH1 0x8 ADD SLOAD SWAP1 DUP1 PUSH1 0x9 ADD PUSH1 0x0 SWAP1 SLOAD SWAP1 PUSH2 0x100 EXP SWAP1 DIV PUSH20 0xFFFFFFFFFFFFFFFFFFFFFFFFFFFFFFFFFFFFFFFF AND SWAP1 DUP1 PUSH1 0xA ADD PUSH1 0x0 SWAP1 SLOAD SWAP1 PUSH2 0x100 EXP SWAP1 DIV PUSH20 0xFFFFFFFFFFFFFFFFFFFFFFFFFFFFFFFFFFFFFFFF AND SWAP1 DUP1 PUSH1 0xB ADD PUSH1 0x0 SWAP1 SLOAD SWAP1 PUSH2 0x100 EXP SWAP1 DIV PUSH20 0xFFFFFFFFFFFFFFFFFFFFFFFFFFFFFFFFFFFFFFFF AND SWAP1 POP DUP13 JUMP JUMPDEST PUSH1 0x1 DUP2 DUP2 SLOAD DUP2 LT PUSH2 0x6C4 JUMPI PUSH2 0x6C3 PUSH2 0x1C35 JUMP JUMPDEST JUMPDEST SWAP1 PUSH1 0x0 MSTORE PUSH1 0x20 PUSH1 0x0 KECCAK256 SWAP1 PUSH1 0xC MUL ADD PUSH1 0xA ADD PUSH1 0x0 SWAP1 SLOAD SWAP1 PUSH2 0x100 EXP SWAP1 DIV PUSH20 0xFFFFFFFFFFFFFFFFFFFFFFFFFFFFFFFFFFFFFFFF AND PUSH20 0xFFFFFFFFFFFFFFFFFFFFFFFFFFFFFFFFFFFFFFFF AND CALLER PUSH20 0xFFFFFFFFFFFFFFFFFFFFFFFFFFFFFFFFFFFFFFFF AND EQ PUSH2 0x763 JUMPI PUSH1 0x40 MLOAD PUSH32 0x8C379A000000000000000000000000000000000000000000000000000000000 DUP2 MSTORE PUSH1 0x4 ADD PUSH2 0x75A SWAP1 PUSH2 0x1EDA JUMP JUMPDEST PUSH1 0x40 MLOAD DUP1 SWAP2 SUB SWAP1 REVERT JUMPDEST PUSH1 0x0 PUSH1 0x2 PUSH1 0x0 DUP4 DUP2 MSTORE PUSH1 0x20 ADD SWAP1 DUP2 MSTORE PUSH1 0x20 ADD PUSH1 0x0 KECCAK256 DUP1 SLOAD SWAP1 POP EQ PUSH2 0x7BC JUMPI PUSH1 0x40 MLOAD PUSH32 0x8C379A000000000000000000000000000000000000000000000000000000000 DUP2 MSTORE PUSH1 0x4 ADD PUSH2 0x7B3 SWAP1 PUSH2 0x1F6C JUMP JUMPDEST PUSH1 0x40 MLOAD DUP1 SWAP2 SUB SWAP1 REVERT JUMPDEST PUSH1 0x0 PUSH1 0x1 DUP3 DUP2 SLOAD DUP2 LT PUSH2 0x7D2 JUMPI PUSH2 0x7D1 PUSH2 0x1C35 JUMP JUMPDEST JUMPDEST SWAP1 PUSH1 0x0 MSTORE PUSH1 0x20 PUSH1 0x0 KECCAK256 SWAP1 PUSH1 0xC MUL ADD SWAP1 POP PUSH1 0x0 PUSH1 0x2 DUP2 GT ISZERO PUSH2 0x7F6 JUMPI PUSH2 0x7F5 PUSH2 0x19F8 JUMP JUMPDEST JUMPDEST DUP2 PUSH1 0x0 ADD PUSH1 0x0 SWAP1 SLOAD SWAP1 PUSH2 0x100 EXP SWAP1 DIV PUSH1 0xFF AND PUSH1 0x2 DUP2 GT ISZERO PUSH2 0x81A JUMPI PUSH2 0x819 PUSH2 0x19F8 JUMP JUMPDEST JUMPDEST EQ PUSH2 0x85A JUMPI PUSH1 0x40 MLOAD PUSH32 0x8C379A000000000000000000000000000000000000000000000000000000000 DUP2 MSTORE PUSH1 0x4 ADD PUSH2 0x851 SWAP1 PUSH2 0x1FD8 JUMP JUMPDEST PUSH1 0x40 MLOAD DUP1 SWAP2 SUB SWAP1 REVERT JUMPDEST PUSH1 0x0 DUP2 PUSH1 0xA ADD PUSH1 0x0 SWAP1 SLOAD SWAP1 PUSH2 0x100 EXP SWAP1 DIV PUSH20 0xFFFFFFFFFFFFFFFFFFFFFFFFFFFFFFFFFFFFFFFF AND SWAP1 POP PUSH1 0x0 DUP3 PUSH1 0x9 ADD PUSH1 0x0 SWAP1 SLOAD SWAP1 PUSH2 0x100 EXP SWAP1 DIV PUSH20 0xFFFFFFFFFFFFFFFFFFFFFFFFFFFFFFFFFFFFFFFF AND SWAP1 POP DUP1 PUSH20 0xFFFFFFFFFFFFFFFFFFFFFFFFFFFFFFFFFFFFFFFF AND PUSH4 0x23B872DD ADDRESS DUP5 DUP7 PUSH1 0x8 ADD SLOAD PUSH1 0x40 MLOAD DUP5 PUSH4 0xFFFFFFFF AND PUSH1 0xE0 SHL DUP2 MSTORE PUSH1 0x4 ADD PUSH2 0x8ED SWAP4 SWAP3 SWAP2 SWAP1 PUSH2 0x1FF8 JUMP JUMPDEST PUSH1 0x0 PUSH1 0x40 MLOAD DUP1 DUP4 SUB DUP2 PUSH1 0x0 DUP8 DUP1 EXTCODESIZE ISZERO DUP1 ISZERO PUSH2 0x907 JUMPI PUSH1 0x0 DUP1 REVERT JUMPDEST POP GAS CALL ISZERO DUP1 ISZERO PUSH2 0x91B JUMPI RETURNDATASIZE PUSH1 0x0 DUP1 RETURNDATACOPY RETURNDATASIZE PUSH1 0x0 REVERT JUMPDEST POP POP POP POP PUSH1 0x2 DUP4 PUSH1 0x0 ADD PUSH1 0x0 PUSH2 0x100 EXP DUP2 SLOAD DUP2 PUSH1 0xFF MUL NOT AND SWAP1 DUP4 PUSH1 0x2 DUP2 GT ISZERO PUSH2 0x947 JUMPI PUSH2 0x946 PUSH2 0x19F8 JUMP JUMPDEST JUMPDEST MUL OR SWAP1 SSTORE POP DUP4 PUSH31 0xD12FB3853F1B33BA57F4469E7208A47E391853AB650DE6721CBBE595058767 PUSH1 0x40 MLOAD PUSH1 0x40 MLOAD DUP1 SWAP2 SUB SWAP1 LOG2 POP POP POP POP JUMP JUMPDEST PUSH1 0x0 DUP1 DUP8 GT PUSH2 0x9C2 JUMPI PUSH1 0x40 MLOAD PUSH32 0x8C379A000000000000000000000000000000000000000000000000000000000 DUP2 MSTORE PUSH1 0x4 ADD PUSH2 0x9B9 SWAP1 PUSH2 0x20A1 JUMP JUMPDEST PUSH1 0x40 MLOAD DUP1 SWAP2 SUB SWAP1 REVERT JUMPDEST PUSH1 0x0 DUP7 GT PUSH2 0xA05 JUMPI PUSH1 0x40 MLOAD PUSH32 0x8C379A000000000000000000000000000000000000000000000000000000000 DUP2 MSTORE PUSH1 0x4 ADD PUSH2 0x9FC SWAP1 PUSH2 0x2133 JUMP JUMPDEST PUSH1 0x40 MLOAD DUP1 SWAP2 SUB SWAP1 REVERT JUMPDEST PUSH1 0x0 PUSH20 0xFFFFFFFFFFFFFFFFFFFFFFFFFFFFFFFFFFFFFFFF AND DUP6 PUSH20 0xFFFFFFFFFFFFFFFFFFFFFFFFFFFFFFFFFFFFFFFF AND SUB PUSH2 0xA74 JUMPI PUSH1 0x40 MLOAD PUSH32 0x8C379A000000000000000000000000000000000000000000000000000000000 DUP2 MSTORE PUSH1 0x4 ADD PUSH2 0xA6B SWAP1 PUSH2 0x21C5 JUMP JUMPDEST PUSH1 0x40 MLOAD DUP1 SWAP2 SUB SWAP1 REVERT JUMPDEST PUSH1 0x0 DUP5 LT ISZERO PUSH2 0xAB8 JUMPI PUSH1 0x40 MLOAD PUSH32 0x8C379A000000000000000000000000000000000000000000000000000000000 DUP2 MSTORE PUSH1 0x4 ADD PUSH2 0xAAF SWAP1 PUSH2 0x2257 JUMP JUMPDEST PUSH1 0x40 MLOAD DUP1 SWAP2 SUB SWAP1 REVERT JUMPDEST PUSH1 0x0 PUSH20 0xFFFFFFFFFFFFFFFFFFFFFFFFFFFFFFFFFFFFFFFF AND DUP3 PUSH20 0xFFFFFFFFFFFFFFFFFFFFFFFFFFFFFFFFFFFFFFFF AND SUB PUSH2 0xB27 JUMPI PUSH1 0x40 MLOAD PUSH32 0x8C379A000000000000000000000000000000000000000000000000000000000 DUP2 MSTORE PUSH1 0x4 ADD PUSH2 0xB1E SWAP1 PUSH2 0x22E9 JUMP JUMPDEST PUSH1 0x40 MLOAD DUP1 SWAP2 SUB SWAP1 REVERT JUMPDEST PUSH1 0x0 DUP4 GT PUSH2 0xB6A JUMPI PUSH1 0x40 MLOAD PUSH32 0x8C379A000000000000000000000000000000000000000000000000000000000 DUP2 MSTORE PUSH1 0x4 ADD PUSH2 0xB61 SWAP1 PUSH2 0x237B JUMP JUMPDEST PUSH1 0x40 MLOAD DUP1 SWAP2 SUB SWAP1 REVERT JUMPDEST PUSH2 0xB75 DUP5 DUP7 CALLER PUSH2 0x1786 JUMP JUMPDEST PUSH1 0x0 PUSH1 0x40 MLOAD DUP1 PUSH2 0x180 ADD PUSH1 0x40 MSTORE DUP1 PUSH1 0x0 PUSH1 0x2 DUP2 GT ISZERO PUSH2 0xB97 JUMPI PUSH2 0xB96 PUSH2 0x19F8 JUMP JUMPDEST JUMPDEST DUP2 MSTORE PUSH1 0x20 ADD DUP10 DUP2 MSTORE PUSH1 0x20 ADD DUP9 DUP2 MSTORE PUSH1 0x20 ADD PUSH1 0x0 DUP2 MSTORE PUSH1 0x20 ADD DUP10 DUP2 MSTORE PUSH1 0x20 ADD PUSH1 0x0 DUP2 MSTORE PUSH1 0x20 ADD DUP6 DUP2 MSTORE PUSH1 0x20 ADD DUP5 PUSH20 0xFFFFFFFFFFFFFFFFFFFFFFFFFFFFFFFFFFFFFFFF AND DUP2 MSTORE PUSH1 0x20 ADD DUP7 DUP2 MSTORE PUSH1 0x20 ADD DUP8 PUSH20 0xFFFFFFFFFFFFFFFFFFFFFFFFFFFFFFFFFFFFFFFF AND DUP2 MSTORE PUSH1 0x20 ADD CALLER PUSH20 0xFFFFFFFFFFFFFFFFFFFFFFFFFFFFFFFFFFFFFFFF AND DUP2 MSTORE PUSH1 0x20 ADD PUSH1 0x0 PUSH20 0xFFFFFFFFFFFFFFFFFFFFFFFFFFFFFFFFFFFFFFFF AND DUP2 MSTORE POP SWAP1 POP PUSH1 0x1 DUP2 SWAP1 DUP1 PUSH1 0x1 DUP2 SLOAD ADD DUP1 DUP3 SSTORE DUP1 SWAP2 POP POP PUSH1 0x1 SWAP1 SUB SWAP1 PUSH1 0x0 MSTORE PUSH1 0x20 PUSH1 0x0 KECCAK256 SWAP1 PUSH1 0xC MUL ADD PUSH1 0x0 SWAP1 SWAP2 SWAP1 SWAP2 SWAP1 SWAP2 POP PUSH1 0x0 DUP3 ADD MLOAD DUP2 PUSH1 0x0 ADD PUSH1 0x0 PUSH2 0x100 EXP DUP2 SLOAD DUP2 PUSH1 0xFF MUL NOT AND SWAP1 DUP4 PUSH1 0x2 DUP2 GT ISZERO PUSH2 0xC90 JUMPI PUSH2 0xC8F PUSH2 0x19F8 JUMP JUMPDEST JUMPDEST MUL OR SWAP1 SSTORE POP PUSH1 0x20 DUP3 ADD MLOAD DUP2 PUSH1 0x1 ADD SSTORE PUSH1 0x40 DUP3 ADD MLOAD DUP2 PUSH1 0x2 ADD SSTORE PUSH1 0x60 DUP3 ADD MLOAD DUP2 PUSH1 0x3 ADD SSTORE PUSH1 0x80 DUP3 ADD MLOAD DUP2 PUSH1 0x4 ADD SSTORE PUSH1 0xA0 DUP3 ADD MLOAD DUP2 PUSH1 0x5 ADD SSTORE PUSH1 0xC0 DUP3 ADD MLOAD DUP2 PUSH1 0x6 ADD SSTORE PUSH1 0xE0 DUP3 ADD MLOAD DUP2 PUSH1 0x7 ADD PUSH1 0x0 PUSH2 0x100 EXP DUP2 SLOAD DUP2 PUSH20 0xFFFFFFFFFFFFFFFFFFFFFFFFFFFFFFFFFFFFFFFF MUL NOT AND SWAP1 DUP4 PUSH20 0xFFFFFFFFFFFFFFFFFFFFFFFFFFFFFFFFFFFFFFFF AND MUL OR SWAP1 SSTORE POP PUSH2 0x100 DUP3 ADD MLOAD DUP2 PUSH1 0x8 ADD SSTORE PUSH2 0x120 DUP3 ADD MLOAD DUP2 PUSH1 0x9 ADD PUSH1 0x0 PUSH2 0x100 EXP DUP2 SLOAD DUP2 PUSH20 0xFFFFFFFFFFFFFFFFFFFFFFFFFFFFFFFFFFFFFFFF MUL NOT AND SWAP1 DUP4 PUSH20 0xFFFFFFFFFFFFFFFFFFFFFFFFFFFFFFFFFFFFFFFF AND MUL OR SWAP1 SSTORE POP PUSH2 0x140 DUP3 ADD MLOAD DUP2 PUSH1 0xA ADD PUSH1 0x0 PUSH2 0x100 EXP DUP2 SLOAD DUP2 PUSH20 0xFFFFFFFFFFFFFFFFFFFFFFFFFFFFFFFFFFFFFFFF MUL NOT AND SWAP1 DUP4 PUSH20 0xFFFFFFFFFFFFFFFFFFFFFFFFFFFFFFFFFFFFFFFF AND MUL OR SWAP1 SSTORE POP PUSH2 0x160 DUP3 ADD MLOAD DUP2 PUSH1 0xB ADD PUSH1 0x0 PUSH2 0x100 EXP DUP2 SLOAD DUP2 PUSH20 0xFFFFFFFFFFFFFFFFFFFFFFFFFFFFFFFFFFFFFFFF MUL NOT AND SWAP1 DUP4 PUSH20 0xFFFFFFFFFFFFFFFFFFFFFFFFFFFFFFFFFFFFFFFF AND MUL OR SWAP1 SSTORE POP POP POP CALLER PUSH20 0xFFFFFFFFFFFFFFFFFFFFFFFFFFFFFFFFFFFFFFFF AND PUSH1 0x1 DUP1 DUP1 SLOAD SWAP1 POP PUSH2 0xE25 SWAP2 SWAP1 PUSH2 0x1E34 JUMP JUMPDEST PUSH32 0xCB178589A0D989FBB3E2B855E0FE244BF88DB81A5AFA0DE5EC6A7FD2C16FCB35 PUSH1 0x40 MLOAD PUSH1 0x40 MLOAD DUP1 SWAP2 SUB SWAP1 LOG3 PUSH1 0x1 DUP1 DUP1 SLOAD SWAP1 POP PUSH2 0xE62 SWAP2 SWAP1 PUSH2 0x1E34 JUMP JUMPDEST SWAP2 POP POP SWAP7 SWAP6 POP POP POP POP POP POP JUMP JUMPDEST PUSH1 0x0 DUP1 SLOAD SWAP1 PUSH2 0x100 EXP SWAP1 DIV PUSH20 0xFFFFFFFFFFFFFFFFFFFFFFFFFFFFFFFFFFFFFFFF AND DUP2 JUMP JUMPDEST DUP3 PUSH1 0x2 PUSH1 0x0 DUP5 DUP2 MSTORE PUSH1 0x20 ADD SWAP1 DUP2 MSTORE PUSH1 0x20 ADD PUSH1 0x0 KECCAK256 DUP1 SLOAD SWAP1 POP PUSH1 0x1 DUP5 DUP2 SLOAD DUP2 LT PUSH2 0xEBF JUMPI PUSH2 0xEBE PUSH2 0x1C35 JUMP JUMPDEST JUMPDEST SWAP1 PUSH1 0x0 MSTORE PUSH1 0x20 PUSH1 0x0 KECCAK256 SWAP1 PUSH1 0xC MUL ADD PUSH1 0x1 ADD SLOAD PUSH2 0xEDB SWAP2 SWAP1 PUSH2 0x1E34 JUMP JUMPDEST LT ISZERO PUSH2 0xF1C JUMPI PUSH1 0x40 MLOAD PUSH32 0x8C379A000000000000000000000000000000000000000000000000000000000 DUP2 MSTORE PUSH1 0x4 ADD PUSH2 0xF13 SWAP1 PUSH2 0x23E7 JUMP JUMPDEST PUSH1 0x40 MLOAD DUP1 SWAP2 SUB SWAP1 REVERT JUMPDEST PUSH1 0x1 DUP3 DUP2 SLOAD DUP2 LT PUSH2 0xF30 JUMPI PUSH2 0xF2F PUSH2 0x1C35 JUMP JUMPDEST JUMPDEST SWAP1 PUSH1 0x0 MSTORE PUSH1 0x20 PUSH1 0x0 KECCAK256 SWAP1 PUSH1 0xC MUL ADD PUSH1 0xA ADD PUSH1 0x0 SWAP1 SLOAD SWAP1 PUSH2 0x100 EXP SWAP1 DIV PUSH20 0xFFFFFFFFFFFFFFFFFFFFFFFFFFFFFFFFFFFFFFFF AND PUSH20 0xFFFFFFFFFFFFFFFFFFFFFFFFFFFFFFFFFFFFFFFF AND DUP2 PUSH20 0xFFFFFFFFFFFFFFFFFFFFFFFFFFFFFFFFFFFFFFFF AND SUB PUSH2 0xFCF JUMPI PUSH1 0x40 MLOAD PUSH32 0x8C379A000000000000000000000000000000000000000000000000000000000 DUP2 MSTORE PUSH1 0x4 ADD PUSH2 0xFC6 SWAP1 PUSH2 0x2479 JUMP JUMPDEST PUSH1 0x40 MLOAD DUP1 SWAP2 SUB SWAP1 REVERT JUMPDEST PUSH1 0x0 DUP4 PUSH1 0x1 DUP5 DUP2 SLOAD DUP2 LT PUSH2 0xFE6 JUMPI PUSH2 0xFE5 PUSH2 0x1C35 JUMP JUMPDEST JUMPDEST SWAP1 PUSH1 0x0 MSTORE PUSH1 0x20 PUSH1 0x0 KECCAK256 SWAP1 PUSH1 0xC MUL ADD PUSH1 0x6 ADD SLOAD PUSH2 0x1002 SWAP2 SWAP1 PUSH2 0x2499 JUMP JUMPDEST SWAP1 POP PUSH1 0x0 PUSH1 0x1 DUP5 DUP2 SLOAD DUP2 LT PUSH2 0x101A JUMPI PUSH2 0x1019 PUSH2 0x1C35 JUMP JUMPDEST JUMPDEST SWAP1 PUSH1 0x0 MSTORE PUSH1 0x20 PUSH1 0x0 KECCAK256 SWAP1 PUSH1 0xC MUL ADD PUSH1 0x7 ADD PUSH1 0x0 SWAP1 SLOAD SWAP1 PUSH2 0x100 EXP SWAP1 DIV PUSH20 0xFFFFFFFFFFFFFFFFFFFFFFFFFFFFFFFFFFFFFFFF AND SWAP1 POP DUP1 PUSH20 0xFFFFFFFFFFFFFFFFFFFFFFFFFFFFFFFFFFFFFFFF AND PUSH4 0x23B872DD CALLER ADDRESS DUP6 PUSH1 0x40 MLOAD DUP5 PUSH4 0xFFFFFFFF AND PUSH1 0xE0 SHL DUP2 MSTORE PUSH1 0x4 ADD PUSH2 0x108B SWAP4 SWAP3 SWAP2 SWAP1 PUSH2 0x1FF8 JUMP JUMPDEST PUSH1 0x0 PUSH1 0x40 MLOAD DUP1 DUP4 SUB DUP2 PUSH1 0x0 DUP8 DUP1 EXTCODESIZE ISZERO DUP1 ISZERO PUSH2 0x10A5 JUMPI PUSH1 0x0 DUP1 REVERT JUMPDEST POP GAS CALL ISZERO DUP1 ISZERO PUSH2 0x10B9 JUMPI RETURNDATASIZE PUSH1 0x0 DUP1 RETURNDATACOPY RETURNDATASIZE PUSH1 0x0 REVERT JUMPDEST POP POP POP POP PUSH1 0x0 PUSH1 0x40 MLOAD DUP1 PUSH1 0x20 ADD PUSH1 0x40 MSTORE DUP1 DUP6 PUSH20 0xFFFFFFFFFFFFFFFFFFFFFFFFFFFFFFFFFFFFFFFF AND DUP2 MSTORE POP SWAP1 POP PUSH1 0x0 JUMPDEST DUP7 DUP2 LT ISZERO PUSH2 0x1186 JUMPI PUSH1 0x2 PUSH1 0x0 DUP8 DUP2 MSTORE PUSH1 0x20 ADD SWAP1 DUP2 MSTORE PUSH1 0x20 ADD PUSH1 0x0 KECCAK256 DUP3 SWAP1 DUP1 PUSH1 0x1 DUP2 SLOAD ADD DUP1 DUP3 SSTORE DUP1 SWAP2 POP POP PUSH1 0x1 SWAP1 SUB SWAP1 PUSH1 0x0 MSTORE PUSH1 0x20 PUSH1 0x0 KECCAK256 ADD PUSH1 0x0 SWAP1 SWAP2 SWAP1 SWAP2 SWAP1 SWAP2 POP PUSH1 0x0 DUP3 ADD MLOAD DUP2 PUSH1 0x0 ADD PUSH1 0x0 PUSH2 0x100 EXP DUP2 SLOAD DUP2 PUSH20 0xFFFFFFFFFFFFFFFFFFFFFFFFFFFFFFFFFFFFFFFF MUL NOT AND SWAP1 DUP4 PUSH20 0xFFFFFFFFFFFFFFFFFFFFFFFFFFFFFFFFFFFFFFFF AND MUL OR SWAP1 SSTORE POP POP POP DUP1 DUP1 PUSH2 0x117E SWAP1 PUSH2 0x24DB JUMP JUMPDEST SWAP2 POP POP PUSH2 0x10E9 JUMP JUMPDEST POP DUP3 PUSH1 0x1 DUP7 DUP2 SLOAD DUP2 LT PUSH2 0x119C JUMPI PUSH2 0x119B PUSH2 0x1C35 JUMP JUMPDEST JUMPDEST SWAP1 PUSH1 0x0 MSTORE PUSH1 0x20 PUSH1 0x0 KECCAK256 SWAP1 PUSH1 0xC MUL ADD PUSH1 0x3 ADD PUSH1 0x0 DUP3 DUP3 SLOAD PUSH2 0x11BC SWAP2 SWAP1 PUSH2 0x2523 JUMP JUMPDEST SWAP3 POP POP DUP2 SWAP1 SSTORE POP DUP6 PUSH1 0x1 DUP7 DUP2 SLOAD DUP2 LT PUSH2 0x11D8 JUMPI PUSH2 0x11D7 PUSH2 0x1C35 JUMP JUMPDEST JUMPDEST SWAP1 PUSH1 0x0 MSTORE PUSH1 0x20 PUSH1 0x0 KECCAK256 SWAP1 PUSH1 0xC MUL ADD PUSH1 0x4 ADD PUSH1 0x0 DUP3 DUP3 SLOAD PUSH2 0x11F8 SWAP2 SWAP1 PUSH2 0x1E34 JUMP JUMPDEST SWAP3 POP POP DUP2 SWAP1 SSTORE POP DUP4 PUSH20 0xFFFFFFFFFFFFFFFFFFFFFFFFFFFFFFFFFFFFFFFF AND DUP7 DUP7 PUSH32 0x1DEA0BD0E9DBEA861BFF2025A18B89BDC767204EBC6A7EBE66EC8331442387DF PUSH1 0x40 MLOAD PUSH1 0x40 MLOAD DUP1 SWAP2 SUB SWAP1 LOG4 POP POP POP POP POP POP JUMP JUMPDEST PUSH1 0x0 DUP1 SLOAD SWAP1 PUSH2 0x100 EXP SWAP1 DIV PUSH20 0xFFFFFFFFFFFFFFFFFFFFFFFFFFFFFFFFFFFFFFFF AND PUSH20 0xFFFFFFFFFFFFFFFFFFFFFFFFFFFFFFFFFFFFFFFF AND CALLER PUSH20 0xFFFFFFFFFFFFFFFFFFFFFFFFFFFFFFFFFFFFFFFF AND EQ PUSH2 0x12DA JUMPI PUSH1 0x40 MLOAD PUSH32 0x8C379A000000000000000000000000000000000000000000000000000000000 DUP2 MSTORE PUSH1 0x4 ADD PUSH2 0x12D1 SWAP1 PUSH2 0x25C9 JUMP JUMPDEST PUSH1 0x40 MLOAD DUP1 SWAP2 SUB SWAP1 REVERT JUMPDEST PUSH1 0x0 PUSH1 0x1 DUP3 DUP2 SLOAD DUP2 LT PUSH2 0x12F0 JUMPI PUSH2 0x12EF PUSH2 0x1C35 JUMP JUMPDEST JUMPDEST SWAP1 PUSH1 0x0 MSTORE PUSH1 0x20 PUSH1 0x0 KECCAK256 SWAP1 PUSH1 0xC MUL ADD SWAP1 POP PUSH1 0x0 DUP2 PUSH1 0x9 ADD PUSH1 0x0 SWAP1 SLOAD SWAP1 PUSH2 0x100 EXP SWAP1 DIV PUSH20 0xFFFFFFFFFFFFFFFFFFFFFFFFFFFFFFFFFFFFFFFF AND SWAP1 POP DUP1 PUSH20 0xFFFFFFFFFFFFFFFFFFFFFFFFFFFFFFFFFFFFFFFF AND PUSH4 0x23B872DD ADDRESS DUP5 PUSH1 0xA ADD PUSH1 0x0 SWAP1 SLOAD SWAP1 PUSH2 0x100 EXP SWAP1 DIV PUSH20 0xFFFFFFFFFFFFFFFFFFFFFFFFFFFFFFFFFFFFFFFF AND DUP6 PUSH1 0x8 ADD SLOAD PUSH1 0x40 MLOAD DUP5 PUSH4 0xFFFFFFFF AND PUSH1 0xE0 SHL DUP2 MSTORE PUSH1 0x4 ADD PUSH2 0x138E SWAP4 SWAP3 SWAP2 SWAP1 PUSH2 0x1FF8 JUMP JUMPDEST PUSH1 0x0 PUSH1 0x40 MLOAD DUP1 DUP4 SUB DUP2 PUSH1 0x0 DUP8 DUP1 EXTCODESIZE ISZERO DUP1 ISZERO PUSH2 0x13A8 JUMPI PUSH1 0x0 DUP1 REVERT JUMPDEST POP GAS CALL ISZERO DUP1 ISZERO PUSH2 0x13BC JUMPI RETURNDATASIZE PUSH1 0x0 DUP1 RETURNDATACOPY RETURNDATASIZE PUSH1 0x0 REVERT JUMPDEST POP POP POP POP PUSH1 0x1 DUP3 PUSH1 0x0 ADD PUSH1 0x0 PUSH2 0x100 EXP DUP2 SLOAD DUP2 PUSH1 0xFF MUL NOT AND SWAP1 DUP4 PUSH1 0x2 DUP2 GT ISZERO PUSH2 0x13E8 JUMPI PUSH2 0x13E7 PUSH2 0x19F8 JUMP JUMPDEST JUMPDEST MUL OR SWAP1 SSTORE POP POP POP POP JUMP JUMPDEST PUSH1 0x0 PUSH1 0x1 DUP3 PUSH2 0x1401 SWAP2 SWAP1 PUSH2 0x2523 JUMP JUMPDEST TIMESTAMP CALLER DUP7 DUP7 PUSH1 0x40 MLOAD PUSH1 0x20 ADD PUSH2 0x1418 SWAP5 SWAP4 SWAP3 SWAP2 SWAP1 PUSH2 0x2691 JUMP JUMPDEST PUSH1 0x40 MLOAD PUSH1 0x20 DUP2 DUP4 SUB SUB DUP2 MSTORE SWAP1 PUSH1 0x40 MSTORE DUP1 MLOAD SWAP1 PUSH1 0x20 ADD KECCAK256 PUSH1 0x0 SHR PUSH2 0x143B SWAP2 SWAP1 PUSH2 0x26FB JUMP JUMPDEST SWAP1 POP SWAP4 SWAP3 POP POP POP JUMP JUMPDEST PUSH1 0x0 PUSH1 0x1 DUP3 DUP2 SLOAD DUP2 LT PUSH2 0x145A JUMPI PUSH2 0x1459 PUSH2 0x1C35 JUMP JUMPDEST JUMPDEST SWAP1 PUSH1 0x0 MSTORE PUSH1 0x20 PUSH1 0x0 KECCAK256 SWAP1 PUSH1 0xC MUL ADD PUSH1 0x40 MLOAD DUP1 PUSH2 0x180 ADD PUSH1 0x40 MSTORE SWAP1 DUP2 PUSH1 0x0 DUP3 ADD PUSH1 0x0 SWAP1 SLOAD SWAP1 PUSH2 0x100 EXP SWAP1 DIV PUSH1 0xFF AND PUSH1 0x2 DUP2 GT ISZERO PUSH2 0x1499 JUMPI PUSH2 0x1498 PUSH2 0x19F8 JUMP JUMPDEST JUMPDEST PUSH1 0x2 DUP2 GT ISZERO PUSH2 0x14AB JUMPI PUSH2 0x14AA PUSH2 0x19F8 JUMP JUMPDEST JUMPDEST DUP2 MSTORE PUSH1 0x20 ADD PUSH1 0x1 DUP3 ADD SLOAD DUP2 MSTORE PUSH1 0x20 ADD PUSH1 0x2 DUP3 ADD SLOAD DUP2 MSTORE PUSH1 0x20 ADD PUSH1 0x3 DUP3 ADD SLOAD DUP2 MSTORE PUSH1 0x20 ADD PUSH1 0x4 DUP3 ADD SLOAD DUP2 MSTORE PUSH1 0x20 ADD PUSH1 0x5 DUP3 ADD SLOAD DUP2 MSTORE PUSH1 0x20 ADD PUSH1 0x6 DUP3 ADD SLOAD DUP2 MSTORE PUSH1 0x20 ADD PUSH1 0x7 DUP3 ADD PUSH1 0x0 SWAP1 SLOAD SWAP1 PUSH2 0x100 EXP SWAP1 DIV PUSH20 0xFFFFFFFFFFFFFFFFFFFFFFFFFFFFFFFFFFFFFFFF AND PUSH20 0xFFFFFFFFFFFFFFFFFFFFFFFFFFFFFFFFFFFFFFFF AND PUSH20 0xFFFFFFFFFFFFFFFFFFFFFFFFFFFFFFFFFFFFFFFF AND DUP2 MSTORE PUSH1 0x20 ADD PUSH1 0x8 DUP3 ADD SLOAD DUP2 MSTORE PUSH1 0x20 ADD PUSH1 0x9 DUP3 ADD PUSH1 0x0 SWAP1 SLOAD SWAP1 PUSH2 0x100 EXP SWAP1 DIV PUSH20 0xFFFFFFFFFFFFFFFFFFFFFFFFFFFFFFFFFFFFFFFF AND PUSH20 0xFFFFFFFFFFFFFFFFFFFFFFFFFFFFFFFFFFFFFFFF AND PUSH20 0xFFFFFFFFFFFFFFFFFFFFFFFFFFFFFFFFFFFFFFFF AND DUP2 MSTORE PUSH1 0x20 ADD PUSH1 0xA DUP3 ADD PUSH1 0x0 SWAP1 SLOAD SWAP1 PUSH2 0x100 EXP SWAP1 DIV PUSH20 0xFFFFFFFFFFFFFFFFFFFFFFFFFFFFFFFFFFFFFFFF AND PUSH20 0xFFFFFFFFFFFFFFFFFFFFFFFFFFFFFFFFFFFFFFFF AND PUSH20 0xFFFFFFFFFFFFFFFFFFFFFFFFFFFFFFFFFFFFFFFF AND DUP2 MSTORE PUSH1 0x20 ADD PUSH1 0xB DUP3 ADD PUSH1 0x0 SWAP1 SLOAD SWAP1 PUSH2 0x100 EXP SWAP1 DIV PUSH20 0xFFFFFFFFFFFFFFFFFFFFFFFFFFFFFFFFFFFFFFFF AND PUSH20 0xFFFFFFFFFFFFFFFFFFFFFFFFFFFFFFFFFFFFFFFF AND PUSH20 0xFFFFFFFFFFFFFFFFFFFFFFFFFFFFFFFFFFFFFFFF AND DUP2 MSTORE POP POP SWAP1 POP PUSH1 0x0 DUP2 PUSH1 0xE0 ADD MLOAD SWAP1 POP PUSH1 0x64 DUP3 PUSH1 0x60 ADD MLOAD PUSH2 0x1669 SWAP2 SWAP1 PUSH2 0x272C JUMP JUMPDEST DUP3 PUSH1 0xA0 ADD DUP2 DUP2 MSTORE POP POP PUSH1 0x0 DUP3 PUSH1 0xA0 ADD MLOAD DUP4 PUSH1 0x60 ADD MLOAD PUSH2 0x1688 SWAP2 SWAP1 PUSH2 0x1E34 JUMP JUMPDEST SWAP1 POP DUP2 PUSH20 0xFFFFFFFFFFFFFFFFFFFFFFFFFFFFFFFFFFFFFFFF AND PUSH4 0xA9059CBB DUP5 PUSH2 0x140 ADD MLOAD DUP4 PUSH1 0x40 MLOAD DUP4 PUSH4 0xFFFFFFFF AND PUSH1 0xE0 SHL DUP2 MSTORE PUSH1 0x4 ADD PUSH2 0x16CA SWAP3 SWAP2 SWAP1 PUSH2 0x275D JUMP JUMPDEST PUSH1 0x0 PUSH1 0x40 MLOAD DUP1 DUP4 SUB DUP2 PUSH1 0x0 DUP8 DUP1 EXTCODESIZE ISZERO DUP1 ISZERO PUSH2 0x16E4 JUMPI PUSH1 0x0 DUP1 REVERT JUMPDEST POP GAS CALL ISZERO DUP1 ISZERO PUSH2 0x16F8 JUMPI RETURNDATASIZE PUSH1 0x0 DUP1 RETURNDATACOPY RETURNDATASIZE PUSH1 0x0 REVERT JUMPDEST POP POP POP POP PUSH1 0x0 DUP4 PUSH2 0x120 ADD MLOAD SWAP1 POP DUP1 PUSH20 0xFFFFFFFFFFFFFFFFFFFFFFFFFFFFFFFFFFFFFFFF AND PUSH4 0x23B872DD ADDRESS DUP7 PUSH2 0x160 ADD MLOAD DUP8 PUSH2 0x100 ADD MLOAD PUSH1 0x40 MLOAD DUP5 PUSH4 0xFFFFFFFF AND PUSH1 0xE0 SHL DUP2 MSTORE PUSH1 0x4 ADD PUSH2 0x174D SWAP4 SWAP3 SWAP2 SWAP1 PUSH2 0x1FF8 JUMP JUMPDEST PUSH1 0x0 PUSH1 0x40 MLOAD DUP1 DUP4 SUB DUP2 PUSH1 0x0 DUP8 DUP1 EXTCODESIZE ISZERO DUP1 ISZERO PUSH2 0x1767 JUMPI PUSH1 0x0 DUP1 REVERT JUMPDEST POP GAS CALL ISZERO DUP1 ISZERO PUSH2 0x177B JUMPI RETURNDATASIZE PUSH1 0x0 DUP1 RETURNDATACOPY RETURNDATASIZE PUSH1 0x0 REVERT JUMPDEST POP POP POP POP POP POP POP POP POP JUMP JUMPDEST PUSH1 0x0 DUP3 SWAP1 POP DUP1 PUSH20 0xFFFFFFFFFFFFFFFFFFFFFFFFFFFFFFFFFFFFFFFF AND PUSH4 0x23B872DD DUP4 ADDRESS DUP8 PUSH1 0x40 MLOAD DUP5 PUSH4 0xFFFFFFFF AND PUSH1 0xE0 SHL DUP2 MSTORE PUSH1 0x4 ADD PUSH2 0x17C8 SWAP4 SWAP3 SWAP2 SWAP1 PUSH2 0x1FF8 JUMP JUMPDEST PUSH1 0x0 PUSH1 0x40 MLOAD DUP1 DUP4 SUB DUP2 PUSH1 0x0 DUP8 DUP1 EXTCODESIZE ISZERO DUP1 ISZERO PUSH2 0x17E2 JUMPI PUSH1 0x0 DUP1 REVERT JUMPDEST POP GAS CALL ISZERO DUP1 ISZERO PUSH2 0x17F6 JUMPI RETURNDATASIZE PUSH1 0x0 DUP1 RETURNDATACOPY RETURNDATASIZE PUSH1 0x0 REVERT JUMPDEST POP POP POP POP POP POP POP POP JUMP JUMPDEST PUSH1 0x0 DUP1 REVERT JUMPDEST PUSH1 0x0 DUP1 REVERT JUMPDEST PUSH1 0x0 DUP2 SWAP1 POP SWAP2 SWAP1 POP JUMP JUMPDEST PUSH2 0x181D DUP2 PUSH2 0x180A JUMP JUMPDEST DUP2 EQ PUSH2 0x1828 JUMPI PUSH1 0x0 DUP1 REVERT JUMPDEST POP JUMP JUMPDEST PUSH1 0x0 DUP2 CALLDATALOAD SWAP1 POP PUSH2 0x183A DUP2 PUSH2 0x1814 JUMP JUMPDEST SWAP3 SWAP2 POP POP JUMP JUMPDEST PUSH1 0x0 PUSH1 0x20 DUP3 DUP5 SUB SLT ISZERO PUSH2 0x1856 JUMPI PUSH2 0x1855 PUSH2 0x1800 JUMP JUMPDEST JUMPDEST PUSH1 0x0 PUSH2 0x1864 DUP5 DUP3 DUP6 ADD PUSH2 0x182B JUMP JUMPDEST SWAP2 POP POP SWAP3 SWAP2 POP POP JUMP JUMPDEST PUSH2 0x1876 DUP2 PUSH2 0x180A JUMP JUMPDEST DUP3 MSTORE POP POP JUMP JUMPDEST PUSH1 0x0 PUSH1 0x20 DUP3 ADD SWAP1 POP PUSH2 0x1891 PUSH1 0x0 DUP4 ADD DUP5 PUSH2 0x186D JUMP JUMPDEST SWAP3 SWAP2 POP POP JUMP JUMPDEST PUSH1 0x0 DUP1 PUSH1 0x40 DUP4 DUP6 SUB SLT ISZERO PUSH2 0x18AE JUMPI PUSH2 0x18AD PUSH2 0x1800 JUMP JUMPDEST JUMPDEST PUSH1 0x0 PUSH2 0x18BC DUP6 DUP3 DUP7 ADD PUSH2 0x182B JUMP JUMPDEST SWAP3 POP POP PUSH1 0x20 PUSH2 0x18CD DUP6 DUP3 DUP7 ADD PUSH2 0x182B JUMP JUMPDEST SWAP2 POP POP SWAP3 POP SWAP3 SWAP1 POP JUMP JUMPDEST PUSH1 0x0 PUSH20 0xFFFFFFFFFFFFFFFFFFFFFFFFFFFFFFFFFFFFFFFF DUP3 AND SWAP1 POP SWAP2 SWAP1 POP JUMP JUMPDEST PUSH1 0x0 PUSH2 0x1902 DUP3 PUSH2 0x18D7 JUMP JUMPDEST SWAP1 POP SWAP2 SWAP1 POP JUMP JUMPDEST PUSH2 0x1912 DUP2 PUSH2 0x18F7 JUMP JUMPDEST DUP3 MSTORE POP POP JUMP JUMPDEST PUSH1 0x0 PUSH1 0x20 DUP3 ADD SWAP1 POP PUSH2 0x192D PUSH1 0x0 DUP4 ADD DUP5 PUSH2 0x1909 JUMP JUMPDEST SWAP3 SWAP2 POP POP JUMP JUMPDEST PUSH1 0x0 DUP1 REVERT JUMPDEST PUSH1 0x0 DUP1 REVERT JUMPDEST PUSH1 0x0 DUP1 REVERT JUMPDEST PUSH1 0x0 DUP1 DUP4 PUSH1 0x1F DUP5 ADD SLT PUSH2 0x1958 JUMPI PUSH2 0x1957 PUSH2 0x1933 JUMP JUMPDEST JUMPDEST DUP3 CALLDATALOAD SWAP1 POP PUSH8 0xFFFFFFFFFFFFFFFF DUP2 GT ISZERO PUSH2 0x1975 JUMPI PUSH2 0x1974 PUSH2 0x1938 JUMP JUMPDEST JUMPDEST PUSH1 0x20 DUP4 ADD SWAP2 POP DUP4 PUSH1 0x1 DUP3 MUL DUP4 ADD GT ISZERO PUSH2 0x1991 JUMPI PUSH2 0x1990 PUSH2 0x193D JUMP JUMPDEST JUMPDEST SWAP3 POP SWAP3 SWAP1 POP JUMP JUMPDEST PUSH1 0x0 DUP1 PUSH1 0x0 PUSH1 0x40 DUP5 DUP7 SUB SLT ISZERO PUSH2 0x19B1 JUMPI PUSH2 0x19B0 PUSH2 0x1800 JUMP JUMPDEST JUMPDEST PUSH1 0x0 PUSH2 0x19BF DUP7 DUP3 DUP8 ADD PUSH2 0x182B JUMP JUMPDEST SWAP4 POP POP PUSH1 0x20 DUP5 ADD CALLDATALOAD PUSH8 0xFFFFFFFFFFFFFFFF DUP2 GT ISZERO PUSH2 0x19E0 JUMPI PUSH2 0x19DF PUSH2 0x1805 JUMP JUMPDEST JUMPDEST PUSH2 0x19EC DUP7 DUP3 DUP8 ADD PUSH2 0x1942 JUMP JUMPDEST SWAP3 POP SWAP3 POP POP SWAP3 POP SWAP3 POP SWAP3 JUMP JUMPDEST PUSH32 0x4E487B7100000000000000000000000000000000000000000000000000000000 PUSH1 0x0 MSTORE PUSH1 0x21 PUSH1 0x4 MSTORE PUSH1 0x24 PUSH1 0x0 REVERT JUMPDEST PUSH1 0x3 DUP2 LT PUSH2 0x1A38 JUMPI PUSH2 0x1A37 PUSH2 0x19F8 JUMP JUMPDEST JUMPDEST POP JUMP JUMPDEST PUSH1 0x0 DUP2 SWAP1 POP PUSH2 0x1A49 DUP3 PUSH2 0x1A27 JUMP JUMPDEST SWAP2 SWAP1 POP JUMP JUMPDEST PUSH1 0x0 PUSH2 0x1A59 DUP3 PUSH2 0x1A3B JUMP JUMPDEST SWAP1 POP SWAP2 SWAP1 POP JUMP JUMPDEST PUSH2 0x1A69 DUP2 PUSH2 0x1A4E JUMP JUMPDEST DUP3 MSTORE POP POP JUMP JUMPDEST PUSH1 0x0 PUSH2 0x180 DUP3 ADD SWAP1 POP PUSH2 0x1A85 PUSH1 0x0 DUP4 ADD DUP16 PUSH2 0x1A60 JUMP JUMPDEST PUSH2 0x1A92 PUSH1 0x20 DUP4 ADD DUP15 PUSH2 0x186D JUMP JUMPDEST PUSH2 0x1A9F PUSH1 0x40 DUP4 ADD DUP14 PUSH2 0x186D JUMP JUMPDEST PUSH2 0x1AAC PUSH1 0x60 DUP4 ADD DUP13 PUSH2 0x186D JUMP JUMPDEST PUSH2 0x1AB9 PUSH1 0x80 DUP4 ADD DUP12 PUSH2 0x186D JUMP JUMPDEST PUSH2 0x1AC6 PUSH1 0xA0 DUP4 ADD DUP11 PUSH2 0x186D JUMP JUMPDEST PUSH2 0x1AD3 PUSH1 0xC0 DUP4 ADD DUP10 PUSH2 0x186D JUMP JUMPDEST PUSH2 0x1AE0 PUSH1 0xE0 DUP4 ADD DUP9 PUSH2 0x1909 JUMP JUMPDEST PUSH2 0x1AEE PUSH2 0x100 DUP4 ADD DUP8 PUSH2 0x186D JUMP JUMPDEST PUSH2 0x1AFC PUSH2 0x120 DUP4 ADD DUP7 PUSH2 0x1909 JUMP JUMPDEST PUSH2 0x1B0A PUSH2 0x140 DUP4 ADD DUP6 PUSH2 0x1909 JUMP JUMPDEST PUSH2 0x1B18 PUSH2 0x160 DUP4 ADD DUP5 PUSH2 0x1909 JUMP JUMPDEST SWAP14 SWAP13 POP POP POP POP POP POP POP POP POP POP POP POP POP JUMP JUMPDEST PUSH2 0x1B32 DUP2 PUSH2 0x18F7 JUMP JUMPDEST DUP2 EQ PUSH2 0x1B3D JUMPI PUSH1 0x0 DUP1 REVERT JUMPDEST POP JUMP JUMPDEST PUSH1 0x0 DUP2 CALLDATALOAD SWAP1 POP PUSH2 0x1B4F DUP2 PUSH2 0x1B29 JUMP JUMPDEST SWAP3 SWAP2 POP POP JUMP JUMPDEST PUSH1 0x0 DUP1 PUSH1 0x0 DUP1 PUSH1 0x0 DUP1 PUSH1 0xC0 DUP8 DUP10 SUB SLT ISZERO PUSH2 0x1B72 JUMPI PUSH2 0x1B71 PUSH2 0x1800 JUMP JUMPDEST JUMPDEST PUSH1 0x0 PUSH2 0x1B80 DUP10 DUP3 DUP11 ADD PUSH2 0x182B JUMP JUMPDEST SWAP7 POP POP PUSH1 0x20 PUSH2 0x1B91 DUP10 DUP3 DUP11 ADD PUSH2 0x182B JUMP JUMPDEST SWAP6 POP POP PUSH1 0x40 PUSH2 0x1BA2 DUP10 DUP3 DUP11 ADD PUSH2 0x1B40 JUMP JUMPDEST SWAP5 POP POP PUSH1 0x60 PUSH2 0x1BB3 DUP10 DUP3 DUP11 ADD PUSH2 0x182B JUMP JUMPDEST SWAP4 POP POP PUSH1 0x80 PUSH2 0x1BC4 DUP10 DUP3 DUP11 ADD PUSH2 0x182B JUMP JUMPDEST SWAP3 POP POP PUSH1 0xA0 PUSH2 0x1BD5 DUP10 DUP3 DUP11 ADD PUSH2 0x1B40 JUMP JUMPDEST SWAP2 POP POP SWAP3 SWAP6 POP SWAP3 SWAP6 POP SWAP3 SWAP6 JUMP JUMPDEST PUSH1 0x0 DUP1 PUSH1 0x0 PUSH1 0x60 DUP5 DUP7 SUB SLT ISZERO PUSH2 0x1BFB JUMPI PUSH2 0x1BFA PUSH2 0x1800 JUMP JUMPDEST JUMPDEST PUSH1 0x0 PUSH2 0x1C09 DUP7 DUP3 DUP8 ADD PUSH2 0x182B JUMP JUMPDEST SWAP4 POP POP PUSH1 0x20 PUSH2 0x1C1A DUP7 DUP3 DUP8 ADD PUSH2 0x182B JUMP JUMPDEST SWAP3 POP POP PUSH1 0x40 PUSH2 0x1C2B DUP7 DUP3 DUP8 ADD PUSH2 0x1B40 JUMP JUMPDEST SWAP2 POP POP SWAP3 POP SWAP3 POP SWAP3 JUMP JUMPDEST PUSH32 0x4E487B7100000000000000000000000000000000000000000000000000000000 PUSH1 0x0 MSTORE PUSH1 0x32 PUSH1 0x4 MSTORE PUSH1 0x24 PUSH1 0x0 REVERT JUMPDEST PUSH1 0x0 DUP3 DUP3 MSTORE PUSH1 0x20 DUP3 ADD SWAP1 POP SWAP3 SWAP2 POP POP JUMP JUMPDEST PUSH32 0x4170656E6173206F206F776E657220706F6465207265616C697A617220612063 PUSH1 0x0 DUP3 ADD MSTORE PUSH32 0x68616D6164612064657373612066756E63616F00000000000000000000000000 PUSH1 0x20 DUP3 ADD MSTORE POP JUMP JUMPDEST PUSH1 0x0 PUSH2 0x1CD1 PUSH1 0x33 DUP4 PUSH2 0x1C64 JUMP JUMPDEST SWAP2 POP PUSH2 0x1CDC DUP3 PUSH2 0x1C75 JUMP JUMPDEST PUSH1 0x40 DUP3 ADD SWAP1 POP SWAP2 SWAP1 POP JUMP JUMPDEST PUSH1 0x0 PUSH1 0x20 DUP3 ADD SWAP1 POP DUP2 DUP2 SUB PUSH1 0x0 DUP4 ADD MSTORE PUSH2 0x1D00 DUP2 PUSH2 0x1CC4 JUMP JUMPDEST SWAP1 POP SWAP2 SWAP1 POP JUMP JUMPDEST PUSH32 0x4F20526166666C65206A6120666F692066696E616C697A61646F000000000000 PUSH1 0x0 DUP3 ADD MSTORE POP JUMP JUMPDEST PUSH1 0x0 PUSH2 0x1D3D PUSH1 0x1A DUP4 PUSH2 0x1C64 JUMP JUMPDEST SWAP2 POP PUSH2 0x1D48 DUP3 PUSH2 0x1D07 JUMP JUMPDEST PUSH1 0x20 DUP3 ADD SWAP1 POP SWAP2 SWAP1 POP JUMP JUMPDEST PUSH1 0x0 PUSH1 0x20 DUP3 ADD SWAP1 POP DUP2 DUP2 SUB PUSH1 0x0 DUP4 ADD MSTORE PUSH2 0x1D6C DUP2 PUSH2 0x1D30 JUMP JUMPDEST SWAP1 POP SWAP2 SWAP1 POP JUMP JUMPDEST PUSH32 0x5175616E746964616465206465207469636B65747320696E737566696369656E PUSH1 0x0 DUP3 ADD MSTORE PUSH32 0x7465730000000000000000000000000000000000000000000000000000000000 PUSH1 0x20 DUP3 ADD MSTORE POP JUMP JUMPDEST PUSH1 0x0 PUSH2 0x1DCF PUSH1 0x23 DUP4 PUSH2 0x1C64 JUMP JUMPDEST SWAP2 POP PUSH2 0x1DDA DUP3 PUSH2 0x1D73 JUMP JUMPDEST PUSH1 0x40 DUP3 ADD SWAP1 POP SWAP2 SWAP1 POP JUMP JUMPDEST PUSH1 0x0 PUSH1 0x20 DUP3 ADD SWAP1 POP DUP2 DUP2 SUB PUSH1 0x0 DUP4 ADD MSTORE PUSH2 0x1DFE DUP2 PUSH2 0x1DC2 JUMP JUMPDEST SWAP1 POP SWAP2 SWAP1 POP JUMP JUMPDEST PUSH32 0x4E487B7100000000000000000000000000000000000000000000000000000000 PUSH1 0x0 MSTORE PUSH1 0x11 PUSH1 0x4 MSTORE PUSH1 0x24 PUSH1 0x0 REVERT JUMPDEST PUSH1 0x0 PUSH2 0x1E3F DUP3 PUSH2 0x180A JUMP JUMPDEST SWAP2 POP PUSH2 0x1E4A DUP4 PUSH2 0x180A JUMP JUMPDEST SWAP3 POP DUP3 DUP3 SUB SWAP1 POP DUP2 DUP2 GT ISZERO PUSH2 0x1E62 JUMPI PUSH2 0x1E61 PUSH2 0x1E05 JUMP JUMPDEST JUMPDEST SWAP3 SWAP2 POP POP JUMP JUMPDEST PUSH32 0x4170656E6173206F2073656C6C657220706F6465207265616C697A6172206F20 PUSH1 0x0 DUP3 ADD MSTORE PUSH32 0x63616E63656C616D656E746F0000000000000000000000000000000000000000 PUSH1 0x20 DUP3 ADD MSTORE POP JUMP JUMPDEST PUSH1 0x0 PUSH2 0x1EC4 PUSH1 0x2C DUP4 PUSH2 0x1C64 JUMP JUMPDEST SWAP2 POP PUSH2 0x1ECF DUP3 PUSH2 0x1E68 JUMP JUMPDEST PUSH1 0x40 DUP3 ADD SWAP1 POP SWAP2 SWAP1 POP JUMP JUMPDEST PUSH1 0x0 PUSH1 0x20 DUP3 ADD SWAP1 POP DUP2 DUP2 SUB PUSH1 0x0 DUP4 ADD MSTORE PUSH2 0x1EF3 DUP2 PUSH2 0x1EB7 JUMP JUMPDEST SWAP1 POP SWAP2 SWAP1 POP JUMP JUMPDEST PUSH32 0x4F20726166666C65206E616F20706F6465206D616973207365722063616E6365 PUSH1 0x0 DUP3 ADD MSTORE PUSH32 0x6C61646F00000000000000000000000000000000000000000000000000000000 PUSH1 0x20 DUP3 ADD MSTORE POP JUMP JUMPDEST PUSH1 0x0 PUSH2 0x1F56 PUSH1 0x24 DUP4 PUSH2 0x1C64 JUMP JUMPDEST SWAP2 POP PUSH2 0x1F61 DUP3 PUSH2 0x1EFA JUMP JUMPDEST PUSH1 0x40 DUP3 ADD SWAP1 POP SWAP2 SWAP1 POP JUMP JUMPDEST PUSH1 0x0 PUSH1 0x20 DUP3 ADD SWAP1 POP DUP2 DUP2 SUB PUSH1 0x0 DUP4 ADD MSTORE PUSH2 0x1F85 DUP2 PUSH2 0x1F49 JUMP JUMPDEST SWAP1 POP SWAP2 SWAP1 POP JUMP JUMPDEST PUSH32 0x4F20726166666C65206A6120666F692066696E616C697A61646F000000000000 PUSH1 0x0 DUP3 ADD MSTORE POP JUMP JUMPDEST PUSH1 0x0 PUSH2 0x1FC2 PUSH1 0x1A DUP4 PUSH2 0x1C64 JUMP JUMPDEST SWAP2 POP PUSH2 0x1FCD DUP3 PUSH2 0x1F8C JUMP JUMPDEST PUSH1 0x20 DUP3 ADD SWAP1 POP SWAP2 SWAP1 POP JUMP JUMPDEST PUSH1 0x0 PUSH1 0x20 DUP3 ADD SWAP1 POP DUP2 DUP2 SUB PUSH1 0x0 DUP4 ADD MSTORE PUSH2 0x1FF1 DUP2 PUSH2 0x1FB5 JUMP JUMPDEST SWAP1 POP SWAP2 SWAP1 POP JUMP JUMPDEST PUSH1 0x0 PUSH1 0x60 DUP3 ADD SWAP1 POP PUSH2 0x200D PUSH1 0x0 DUP4 ADD DUP7 PUSH2 0x1909 JUMP JUMPDEST PUSH2 0x201A PUSH1 0x20 DUP4 ADD DUP6 PUSH2 0x1909 JUMP JUMPDEST PUSH2 0x2027 PUSH1 0x40 DUP4 ADD DUP5 PUSH2 0x186D JUMP JUMPDEST SWAP5 SWAP4 POP POP POP POP JUMP JUMPDEST PUSH32 0x4E756D65726F206465207469636B657473206465766520736572206D61696F72 PUSH1 0x0 DUP3 ADD MSTORE PUSH32 0x20717565207A65726F0000000000000000000000000000000000000000000000 PUSH1 0x20 DUP3 ADD MSTORE POP JUMP JUMPDEST PUSH1 0x0 PUSH2 0x208B PUSH1 0x29 DUP4 PUSH2 0x1C64 JUMP JUMPDEST SWAP2 POP PUSH2 0x2096 DUP3 PUSH2 0x202F JUMP JUMPDEST PUSH1 0x40 DUP3 ADD SWAP1 POP SWAP2 SWAP1 POP JUMP JUMPDEST PUSH1 0x0 PUSH1 0x20 DUP3 ADD SWAP1 POP DUP2 DUP2 SUB PUSH1 0x0 DUP4 ADD MSTORE PUSH2 0x20BA DUP2 PUSH2 0x207E JUMP JUMPDEST SWAP1 POP SWAP2 SWAP1 POP JUMP JUMPDEST PUSH32 0x4E756D65726F206D696E696D6F206465207469636B6574732064657665207365 PUSH1 0x0 DUP3 ADD MSTORE PUSH32 0x72206D61696F7220717565207A65726F00000000000000000000000000000000 PUSH1 0x20 DUP3 ADD MSTORE POP JUMP JUMPDEST PUSH1 0x0 PUSH2 0x211D PUSH1 0x30 DUP4 PUSH2 0x1C64 JUMP JUMPDEST SWAP2 POP PUSH2 0x2128 DUP3 PUSH2 0x20C1 JUMP JUMPDEST PUSH1 0x40 DUP3 ADD SWAP1 POP SWAP2 SWAP1 POP JUMP JUMPDEST PUSH1 0x0 PUSH1 0x20 DUP3 ADD SWAP1 POP DUP2 DUP2 SUB PUSH1 0x0 DUP4 ADD MSTORE PUSH2 0x214C DUP2 PUSH2 0x2110 JUMP JUMPDEST SWAP1 POP SWAP2 SWAP1 POP JUMP JUMPDEST PUSH32 0x4F20656E64657265636F20646F20636F6E747261746F204E4654206465766520 PUSH1 0x0 DUP3 ADD MSTORE PUSH32 0x736572206469666572656E746520646520300000000000000000000000000000 PUSH1 0x20 DUP3 ADD MSTORE POP JUMP JUMPDEST PUSH1 0x0 PUSH2 0x21AF PUSH1 0x32 DUP4 PUSH2 0x1C64 JUMP JUMPDEST SWAP2 POP PUSH2 0x21BA DUP3 PUSH2 0x2153 JUMP JUMPDEST PUSH1 0x40 DUP3 ADD SWAP1 POP SWAP2 SWAP1 POP JUMP JUMPDEST PUSH1 0x0 PUSH1 0x20 DUP3 ADD SWAP1 POP DUP2 DUP2 SUB PUSH1 0x0 DUP4 ADD MSTORE PUSH2 0x21DE DUP2 PUSH2 0x21A2 JUMP JUMPDEST SWAP1 POP SWAP2 SWAP1 POP JUMP JUMPDEST PUSH32 0x4F20696420646F20746F6B656E206465766520736572206D61696F7220717565 PUSH1 0x0 DUP3 ADD MSTORE PUSH32 0x207A65726F000000000000000000000000000000000000000000000000000000 PUSH1 0x20 DUP3 ADD MSTORE POP JUMP JUMPDEST PUSH1 0x0 PUSH2 0x2241 PUSH1 0x25 DUP4 PUSH2 0x1C64 JUMP JUMPDEST SWAP2 POP PUSH2 0x224C DUP3 PUSH2 0x21E5 JUMP JUMPDEST PUSH1 0x40 DUP3 ADD SWAP1 POP SWAP2 SWAP1 POP JUMP JUMPDEST PUSH1 0x0 PUSH1 0x20 DUP3 ADD SWAP1 POP DUP2 DUP2 SUB PUSH1 0x0 DUP4 ADD MSTORE PUSH2 0x2270 DUP2 PUSH2 0x2234 JUMP JUMPDEST SWAP1 POP SWAP2 SWAP1 POP JUMP JUMPDEST PUSH32 0x4F20656E64657265636F20646F20746F6B656E20612073657220726563656269 PUSH1 0x0 DUP3 ADD MSTORE PUSH32 0x646F206465766520736572206469666572656E74652064652030000000000000 PUSH1 0x20 DUP3 ADD MSTORE POP JUMP JUMPDEST PUSH1 0x0 PUSH2 0x22D3 PUSH1 0x3A DUP4 PUSH2 0x1C64 JUMP JUMPDEST SWAP2 POP PUSH2 0x22DE DUP3 PUSH2 0x2277 JUMP JUMPDEST PUSH1 0x40 DUP3 ADD SWAP1 POP SWAP2 SWAP1 POP JUMP JUMPDEST PUSH1 0x0 PUSH1 0x20 DUP3 ADD SWAP1 POP DUP2 DUP2 SUB PUSH1 0x0 DUP4 ADD MSTORE PUSH2 0x2302 DUP2 PUSH2 0x22C6 JUMP JUMPDEST SWAP1 POP SWAP2 SWAP1 POP JUMP JUMPDEST PUSH32 0x4F2076616C6F7220646F207469636B6574206465766520736572206D61696F72 PUSH1 0x0 DUP3 ADD MSTORE PUSH32 0x20717565207A65726F0000000000000000000000000000000000000000000000 PUSH1 0x20 DUP3 ADD MSTORE POP JUMP JUMPDEST PUSH1 0x0 PUSH2 0x2365 PUSH1 0x29 DUP4 PUSH2 0x1C64 JUMP JUMPDEST SWAP2 POP PUSH2 0x2370 DUP3 PUSH2 0x2309 JUMP JUMPDEST PUSH1 0x40 DUP3 ADD SWAP1 POP SWAP2 SWAP1 POP JUMP JUMPDEST PUSH1 0x0 PUSH1 0x20 DUP3 ADD SWAP1 POP DUP2 DUP2 SUB PUSH1 0x0 DUP4 ADD MSTORE PUSH2 0x2394 DUP2 PUSH2 0x2358 JUMP JUMPDEST SWAP1 POP SWAP2 SWAP1 POP JUMP JUMPDEST PUSH32 0x71746420696E646973706F6E6976656C00000000000000000000000000000000 PUSH1 0x0 DUP3 ADD MSTORE POP JUMP JUMPDEST PUSH1 0x0 PUSH2 0x23D1 PUSH1 0x10 DUP4 PUSH2 0x1C64 JUMP JUMPDEST SWAP2 POP PUSH2 0x23DC DUP3 PUSH2 0x239B JUMP JUMPDEST PUSH1 0x20 DUP3 ADD SWAP1 POP SWAP2 SWAP1 POP JUMP JUMPDEST PUSH1 0x0 PUSH1 0x20 DUP3 ADD SWAP1 POP DUP2 DUP2 SUB PUSH1 0x0 DUP4 ADD MSTORE PUSH2 0x2400 DUP2 PUSH2 0x23C4 JUMP JUMPDEST SWAP1 POP SWAP2 SWAP1 POP JUMP JUMPDEST PUSH32 0x4F2073656C6C6572206E616F20706F646520636F6D7072617220656E74726164 PUSH1 0x0 DUP3 ADD MSTORE PUSH32 0x617320646F2070726F7072696F20736F727465696F0000000000000000000000 PUSH1 0x20 DUP3 ADD MSTORE POP JUMP JUMPDEST PUSH1 0x0 PUSH2 0x2463 PUSH1 0x35 DUP4 PUSH2 0x1C64 JUMP JUMPDEST SWAP2 POP PUSH2 0x246E DUP3 PUSH2 0x2407 JUMP JUMPDEST PUSH1 0x40 DUP3 ADD SWAP1 POP SWAP2 SWAP1 POP JUMP JUMPDEST PUSH1 0x0 PUSH1 0x20 DUP3 ADD SWAP1 POP DUP2 DUP2 SUB PUSH1 0x0 DUP4 ADD MSTORE PUSH2 0x2492 DUP2 PUSH2 0x2456 JUMP JUMPDEST SWAP1 POP SWAP2 SWAP1 POP JUMP JUMPDEST PUSH1 0x0 PUSH2 0x24A4 DUP3 PUSH2 0x180A JUMP JUMPDEST SWAP2 POP PUSH2 0x24AF DUP4 PUSH2 0x180A JUMP JUMPDEST SWAP3 POP DUP3 DUP3 MUL PUSH2 0x24BD DUP2 PUSH2 0x180A JUMP JUMPDEST SWAP2 POP DUP3 DUP3 DIV DUP5 EQ DUP4 ISZERO OR PUSH2 0x24D4 JUMPI PUSH2 0x24D3 PUSH2 0x1E05 JUMP JUMPDEST JUMPDEST POP SWAP3 SWAP2 POP POP JUMP JUMPDEST PUSH1 0x0 PUSH2 0x24E6 DUP3 PUSH2 0x180A JUMP JUMPDEST SWAP2 POP PUSH32 0xFFFFFFFFFFFFFFFFFFFFFFFFFFFFFFFFFFFFFFFFFFFFFFFFFFFFFFFFFFFFFFFF DUP3 SUB PUSH2 0x2518 JUMPI PUSH2 0x2517 PUSH2 0x1E05 JUMP JUMPDEST JUMPDEST PUSH1 0x1 DUP3 ADD SWAP1 POP SWAP2 SWAP1 POP JUMP JUMPDEST PUSH1 0x0 PUSH2 0x252E DUP3 PUSH2 0x180A JUMP JUMPDEST SWAP2 POP PUSH2 0x2539 DUP4 PUSH2 0x180A JUMP JUMPDEST SWAP3 POP DUP3 DUP3 ADD SWAP1 POP DUP1 DUP3 GT ISZERO PUSH2 0x2551 JUMPI PUSH2 0x2550 PUSH2 0x1E05 JUMP JUMPDEST JUMPDEST SWAP3 SWAP2 POP POP JUMP JUMPDEST PUSH32 0x4170656E6173206F206F776E657220706F6465207265616C697A617220612064 PUSH1 0x0 DUP3 ADD MSTORE PUSH32 0x65766F6C7563616F000000000000000000000000000000000000000000000000 PUSH1 0x20 DUP3 ADD MSTORE POP JUMP JUMPDEST PUSH1 0x0 PUSH2 0x25B3 PUSH1 0x28 DUP4 PUSH2 0x1C64 JUMP JUMPDEST SWAP2 POP PUSH2 0x25BE DUP3 PUSH2 0x2557 JUMP JUMPDEST PUSH1 0x40 DUP3 ADD SWAP1 POP SWAP2 SWAP1 POP JUMP JUMPDEST PUSH1 0x0 PUSH1 0x20 DUP3 ADD SWAP1 POP DUP2 DUP2 SUB PUSH1 0x0 DUP4 ADD MSTORE PUSH2 0x25E2 DUP2 PUSH2 0x25A6 JUMP JUMPDEST SWAP1 POP SWAP2 SWAP1 POP JUMP JUMPDEST PUSH1 0x0 DUP2 SWAP1 POP SWAP2 SWAP1 POP JUMP JUMPDEST PUSH2 0x2604 PUSH2 0x25FF DUP3 PUSH2 0x180A JUMP JUMPDEST PUSH2 0x25E9 JUMP JUMPDEST DUP3 MSTORE POP POP JUMP JUMPDEST PUSH1 0x0 DUP2 PUSH1 0x60 SHL SWAP1 POP SWAP2 SWAP1 POP JUMP JUMPDEST PUSH1 0x0 PUSH2 0x2622 DUP3 PUSH2 0x260A JUMP JUMPDEST SWAP1 POP SWAP2 SWAP1 POP JUMP JUMPDEST PUSH1 0x0 PUSH2 0x2634 DUP3 PUSH2 0x2617 JUMP JUMPDEST SWAP1 POP SWAP2 SWAP1 POP JUMP JUMPDEST PUSH2 0x264C PUSH2 0x2647 DUP3 PUSH2 0x18F7 JUMP JUMPDEST PUSH2 0x2629 JUMP JUMPDEST DUP3 MSTORE POP POP JUMP JUMPDEST PUSH1 0x0 DUP2 SWAP1 POP SWAP3 SWAP2 POP POP JUMP JUMPDEST DUP3 DUP2 DUP4 CALLDATACOPY PUSH1 0x0 DUP4 DUP4 ADD MSTORE POP POP POP JUMP JUMPDEST PUSH1 0x0 PUSH2 0x2678 DUP4 DUP6 PUSH2 0x2652 JUMP JUMPDEST SWAP4 POP PUSH2 0x2685 DUP4 DUP6 DUP5 PUSH2 0x265D JUMP JUMPDEST DUP3 DUP5 ADD SWAP1 POP SWAP4 SWAP3 POP POP POP JUMP JUMPDEST PUSH1 0x0 PUSH2 0x269D DUP3 DUP8 PUSH2 0x25F3 JUMP JUMPDEST PUSH1 0x20 DUP3 ADD SWAP2 POP PUSH2 0x26AD DUP3 DUP7 PUSH2 0x263B JUMP JUMPDEST PUSH1 0x14 DUP3 ADD SWAP2 POP PUSH2 0x26BE DUP3 DUP5 DUP7 PUSH2 0x266C JUMP JUMPDEST SWAP2 POP DUP2 SWAP1 POP SWAP6 SWAP5 POP POP POP POP POP JUMP JUMPDEST PUSH32 0x4E487B7100000000000000000000000000000000000000000000000000000000 PUSH1 0x0 MSTORE PUSH1 0x12 PUSH1 0x4 MSTORE PUSH1 0x24 PUSH1 0x0 REVERT JUMPDEST PUSH1 0x0 PUSH2 0x2706 DUP3 PUSH2 0x180A JUMP JUMPDEST SWAP2 POP PUSH2 0x2711 DUP4 PUSH2 0x180A JUMP JUMPDEST SWAP3 POP DUP3 PUSH2 0x2721 JUMPI PUSH2 0x2720 PUSH2 0x26CC JUMP JUMPDEST JUMPDEST DUP3 DUP3 MOD SWAP1 POP SWAP3 SWAP2 POP POP JUMP JUMPDEST PUSH1 0x0 PUSH2 0x2737 DUP3 PUSH2 0x180A JUMP JUMPDEST SWAP2 POP PUSH2 0x2742 DUP4 PUSH2 0x180A JUMP JUMPDEST SWAP3 POP DUP3 PUSH2 0x2752 JUMPI PUSH2 0x2751 PUSH2 0x26CC JUMP JUMPDEST JUMPDEST DUP3 DUP3 DIV SWAP1 POP SWAP3 SWAP2 POP POP JUMP JUMPDEST PUSH1 0x0 PUSH1 0x40 DUP3 ADD SWAP1 POP PUSH2 0x2772 PUSH1 0x0 DUP4 ADD DUP6 PUSH2 0x1909 JUMP JUMPDEST PUSH2 0x277F PUSH1 0x20 DUP4 ADD DUP5 PUSH2 0x186D JUMP JUMPDEST SWAP4 SWAP3 POP POP POP JUMP INVALID LOG2 PUSH5 0x6970667358 0x22 SLT KECCAK256 0xC5 0xBA MOD 0xAA RETURNDATACOPY SWAP14 EXTCODECOPY SWAP8 0x2A SLT PUSH14 0xE63CC7D18F9F50EDD83129E6B9EE CODESIZE 0xBC MSIZE CODECOPY SWAP1 DUP5 0x21 PUSH5 0x736F6C6343 STOP ADDMOD SLT STOP CALLER "
				},
				"gasEstimates": {
					"creation": {
						"codeDepositCost": "2034400",
						"executionCost": "26422",
						"totalCost": "2060822"
					},
					"external": {
						"buyTickets(uint256,uint256,address)": "infinite",
						"cancelRaffle(uint256)": "infinite",
						"createRaffle(uint256,uint256,address,uint256,uint256,address)": "infinite",
						"devolution(uint256)": "infinite",
						"entries(uint256,uint256)": "infinite",
						"getQtdDisponivel(uint256)": "infinite",
						"owner()": "2555",
						"raffles(uint256)": "infinite",
						"sortearWinner(uint256,string)": "infinite"
					},
					"internal": {
						"gerarNumero(string calldata,uint256)": "infinite",
						"sendTokenAndNFT(uint256)": "infinite",
						"transferNFT(uint256,address,address)": "infinite"
					}
				},
				"methodIdentifiers": {
					"buyTickets(uint256,uint256,address)": "a792813c",
					"cancelRaffle(uint256)": "5fba3171",
					"createRaffle(uint256,uint256,address,uint256,uint256,address)": "66a76642",
					"devolution(uint256)": "f6ce4bc5",
					"entries(uint256,uint256)": "17b937e6",
					"getQtdDisponivel(uint256)": "0b0cfcd4",
					"owner()": "8da5cb5b",
					"raffles(uint256)": "5d4bc0ce",
					"sortearWinner(uint256,string)": "5a9365e4"
				}
			},
			"storageLayout": {
				"storage": [
					{
						"astId": 101,
						"contract": "contracts/MagicTickets/MagicTicketsNFT.sol:MagicNFT",
						"label": "owner",
						"offset": 0,
						"slot": "0",
						"type": "t_address"
					},
					{
						"astId": 168,
						"contract": "contracts/MagicTickets/MagicTicketsNFT.sol:MagicNFT",
						"label": "raffles",
						"offset": 0,
						"slot": "1",
						"type": "t_array(t_struct(RaffleStruct)164_storage)dyn_storage"
					},
					{
						"astId": 177,
						"contract": "contracts/MagicTickets/MagicTicketsNFT.sol:MagicNFT",
						"label": "entries",
						"offset": 0,
						"slot": "2",
						"type": "t_mapping(t_uint256,t_array(t_struct(Entry)171_storage)dyn_storage)"
					}
				],
				"types": {
					"t_address": {
						"encoding": "inplace",
						"label": "address",
						"numberOfBytes": "20"
					},
					"t_array(t_struct(Entry)171_storage)dyn_storage": {
						"base": "t_struct(Entry)171_storage",
						"encoding": "dynamic_array",
						"label": "struct MagicNFT.Entry[]",
						"numberOfBytes": "32"
					},
					"t_array(t_struct(RaffleStruct)164_storage)dyn_storage": {
						"base": "t_struct(RaffleStruct)164_storage",
						"encoding": "dynamic_array",
						"label": "struct MagicNFT.RaffleStruct[]",
						"numberOfBytes": "32"
					},
					"t_enum(STATUS)114": {
						"encoding": "inplace",
						"label": "enum MagicNFT.STATUS",
						"numberOfBytes": "1"
					},
					"t_mapping(t_uint256,t_array(t_struct(Entry)171_storage)dyn_storage)": {
						"encoding": "mapping",
						"key": "t_uint256",
						"label": "mapping(uint256 => struct MagicNFT.Entry[])",
						"numberOfBytes": "32",
						"value": "t_array(t_struct(Entry)171_storage)dyn_storage"
					},
					"t_struct(Entry)171_storage": {
						"encoding": "inplace",
						"label": "struct MagicNFT.Entry",
						"members": [
							{
								"astId": 170,
								"contract": "contracts/MagicTickets/MagicTicketsNFT.sol:MagicNFT",
								"label": "player",
								"offset": 0,
								"slot": "0",
								"type": "t_address"
							}
						],
						"numberOfBytes": "32"
					},
					"t_struct(RaffleStruct)164_storage": {
						"encoding": "inplace",
						"label": "struct MagicNFT.RaffleStruct",
						"members": [
							{
								"astId": 141,
								"contract": "contracts/MagicTickets/MagicTicketsNFT.sol:MagicNFT",
								"label": "status",
								"offset": 0,
								"slot": "0",
								"type": "t_enum(STATUS)114"
							},
							{
								"astId": 143,
								"contract": "contracts/MagicTickets/MagicTicketsNFT.sol:MagicNFT",
								"label": "maxEntries",
								"offset": 0,
								"slot": "1",
								"type": "t_uint256"
							},
							{
								"astId": 145,
								"contract": "contracts/MagicTickets/MagicTicketsNFT.sol:MagicNFT",
								"label": "minTickets",
								"offset": 0,
								"slot": "2",
								"type": "t_uint256"
							},
							{
								"astId": 147,
								"contract": "contracts/MagicTickets/MagicTicketsNFT.sol:MagicNFT",
								"label": "amountRaised",
								"offset": 0,
								"slot": "3",
								"type": "t_uint256"
							},
							{
								"astId": 149,
								"contract": "contracts/MagicTickets/MagicTicketsNFT.sol:MagicNFT",
								"label": "qtdAvailable",
								"offset": 0,
								"slot": "4",
								"type": "t_uint256"
							},
							{
								"astId": 151,
								"contract": "contracts/MagicTickets/MagicTicketsNFT.sol:MagicNFT",
								"label": "sitePercentage",
								"offset": 0,
								"slot": "5",
								"type": "t_uint256"
							},
							{
								"astId": 153,
								"contract": "contracts/MagicTickets/MagicTicketsNFT.sol:MagicNFT",
								"label": "ticketValue",
								"offset": 0,
								"slot": "6",
								"type": "t_uint256"
							},
							{
								"astId": 155,
								"contract": "contracts/MagicTickets/MagicTicketsNFT.sol:MagicNFT",
								"label": "tokenReceived",
								"offset": 0,
								"slot": "7",
								"type": "t_address"
							},
							{
								"astId": 157,
								"contract": "contracts/MagicTickets/MagicTicketsNFT.sol:MagicNFT",
								"label": "tokenNFT",
								"offset": 0,
								"slot": "8",
								"type": "t_uint256"
							},
							{
								"astId": 159,
								"contract": "contracts/MagicTickets/MagicTicketsNFT.sol:MagicNFT",
								"label": "tokenContract",
								"offset": 0,
								"slot": "9",
								"type": "t_address"
							},
							{
								"astId": 161,
								"contract": "contracts/MagicTickets/MagicTicketsNFT.sol:MagicNFT",
								"label": "seller",
								"offset": 0,
								"slot": "10",
								"type": "t_address"
							},
							{
								"astId": 163,
								"contract": "contracts/MagicTickets/MagicTicketsNFT.sol:MagicNFT",
								"label": "winner",
								"offset": 0,
								"slot": "11",
								"type": "t_address"
							}
						],
						"numberOfBytes": "384"
					},
					"t_uint256": {
						"encoding": "inplace",
						"label": "uint256",
						"numberOfBytes": "32"
					}
				}
			},
			"userdoc": {
				"kind": "user",
				"methods": {},
				"version": 1
			}
		}
	}
}