{
	"contracts/MagicTickets/MagicTickets.sol": {
		"MagicTickets": {
			"abi": [
				{
					"inputs": [],
					"stateMutability": "nonpayable",
					"type": "constructor"
				},
				{
					"anonymous": false,
					"inputs": [
						{
							"indexed": true,
							"internalType": "uint256",
							"name": "raffleID",
							"type": "uint256"
						},
						{
							"indexed": true,
							"internalType": "uint256",
							"name": "quantity",
							"type": "uint256"
						},
						{
							"indexed": true,
							"internalType": "address",
							"name": "buyer",
							"type": "address"
						}
					],
					"name": "boughtTickets",
					"type": "event"
				},
				{
					"anonymous": false,
					"inputs": [
						{
							"indexed": true,
							"internalType": "uint256",
							"name": "raffleID",
							"type": "uint256"
						}
					],
					"name": "canceledRaffle",
					"type": "event"
				},
				{
					"anonymous": false,
					"inputs": [
						{
							"indexed": true,
							"internalType": "uint256",
							"name": "raffleID",
							"type": "uint256"
						},
						{
							"indexed": true,
							"internalType": "address",
							"name": "seller",
							"type": "address"
						}
					],
					"name": "createdRaffle",
					"type": "event"
				},
				{
					"anonymous": false,
					"inputs": [
						{
							"indexed": true,
							"internalType": "uint256",
							"name": "raffleID",
							"type": "uint256"
						},
						{
							"indexed": true,
							"internalType": "address",
							"name": "winner",
							"type": "address"
						}
					],
					"name": "drawWinner",
					"type": "event"
				},
				{
					"inputs": [
						{
							"internalType": "uint256",
							"name": "_id",
							"type": "uint256"
						},
						{
							"internalType": "uint256",
							"name": "qtd",
							"type": "uint256"
						},
						{
							"internalType": "address",
							"name": "buyer",
							"type": "address"
						},
						{
							"internalType": "address",
							"name": "_tokenPay",
							"type": "address"
						}
					],
					"name": "buyEntry",
					"outputs": [],
					"stateMutability": "nonpayable",
					"type": "function"
				},
				{
					"inputs": [
						{
							"internalType": "uint256",
							"name": "_id",
							"type": "uint256"
						}
					],
					"name": "cancelRaffle",
					"outputs": [],
					"stateMutability": "nonpayable",
					"type": "function"
				},
				{
					"inputs": [
						{
							"internalType": "uint256",
							"name": "amount",
							"type": "uint256"
						},
						{
							"internalType": "uint256",
							"name": "maxEntries",
							"type": "uint256"
						},
						{
							"internalType": "uint256",
							"name": "minTickets",
							"type": "uint256"
						},
						{
							"internalType": "address",
							"name": "tokenRaffle",
							"type": "address"
						},
						{
							"internalType": "address",
							"name": "seller",
							"type": "address"
						},
						{
							"internalType": "uint256",
							"name": "ticketValue",
							"type": "uint256"
						},
						{
							"internalType": "address",
							"name": "tokenReceived",
							"type": "address"
						}
					],
					"name": "createRaffle",
					"outputs": [
						{
							"internalType": "uint256",
							"name": "",
							"type": "uint256"
						}
					],
					"stateMutability": "nonpayable",
					"type": "function"
				},
				{
					"inputs": [
						{
							"internalType": "uint256",
							"name": "_id",
							"type": "uint256"
						}
					],
					"name": "devolution",
					"outputs": [],
					"stateMutability": "nonpayable",
					"type": "function"
				},
				{
					"inputs": [
						{
							"internalType": "uint256",
							"name": "",
							"type": "uint256"
						},
						{
							"internalType": "uint256",
							"name": "",
							"type": "uint256"
						}
					],
					"name": "entries",
					"outputs": [
						{
							"internalType": "address",
							"name": "_player",
							"type": "address"
						}
					],
					"stateMutability": "view",
					"type": "function"
				},
				{
					"inputs": [
						{
							"internalType": "uint256",
							"name": "_id",
							"type": "uint256"
						}
					],
					"name": "getQtdDisponivel",
					"outputs": [
						{
							"internalType": "uint256",
							"name": "",
							"type": "uint256"
						}
					],
					"stateMutability": "view",
					"type": "function"
				},
				{
					"inputs": [],
					"name": "owner",
					"outputs": [
						{
							"internalType": "address",
							"name": "",
							"type": "address"
						}
					],
					"stateMutability": "view",
					"type": "function"
				},
				{
					"inputs": [
						{
							"internalType": "uint256",
							"name": "",
							"type": "uint256"
						}
					],
					"name": "raffles",
					"outputs": [
						{
							"internalType": "enum MagicTickets.STATUS",
							"name": "_status",
							"type": "uint8"
						},
						{
							"internalType": "uint256",
							"name": "_maxEntries",
							"type": "uint256"
						},
						{
							"internalType": "uint256",
							"name": "_minTickets",
							"type": "uint256"
						},
						{
							"internalType": "uint256",
							"name": "_amountEth",
							"type": "uint256"
						},
						{
							"internalType": "address",
							"name": "_seller",
							"type": "address"
						},
						{
							"internalType": "uint256",
							"name": "_amountRaised",
							"type": "uint256"
						},
						{
							"internalType": "address",
							"name": "_winner",
							"type": "address"
						},
						{
							"internalType": "uint256",
							"name": "_qtdDisponivel",
							"type": "uint256"
						},
						{
							"internalType": "uint256",
							"name": "_sitePercentage",
							"type": "uint256"
						},
						{
							"internalType": "address",
							"name": "_tokenRaffle",
							"type": "address"
						},
						{
							"internalType": "uint256",
							"name": "_ticketValue",
							"type": "uint256"
						},
						{
							"internalType": "address",
							"name": "_tokenReceived",
							"type": "address"
						}
					],
					"stateMutability": "view",
					"type": "function"
				},
				{
					"inputs": [
						{
							"internalType": "uint256",
							"name": "_id",
							"type": "uint256"
						},
						{
							"internalType": "string",
							"name": "seed",
							"type": "string"
						}
					],
					"name": "sortearWinner",
					"outputs": [],
					"stateMutability": "nonpayable",
					"type": "function"
				}
			],
			"devdoc": {
				"kind": "dev",
				"methods": {},
				"version": 1
			},
			"evm": {
				"assembly": "    /* \"contracts/MagicTickets/MagicTickets.sol\":303:6267  contract MagicTickets{... */\n  mstore(0x40, 0x80)\n    /* \"contracts/MagicTickets/MagicTickets.sol\":458:500  0x555a2d86B9d4A89D61a2Df3C6BfC7006ad6aa2cF */\n  0x555a2d86b9d4a89d61a2df3c6bfc7006ad6aa2cf\n    /* \"contracts/MagicTickets/MagicTickets.sol\":421:501  address payable walletSite = payable(0x555a2d86B9d4A89D61a2Df3C6BfC7006ad6aa2cF) */\n  0x01\n  exp(0x0100, 0x00)\n  dup2\n  sload\n  dup2\n  0xffffffffffffffffffffffffffffffffffffffff\n  mul\n  not\n  and\n  swap1\n  dup4\n  0xffffffffffffffffffffffffffffffffffffffff\n  and\n  mul\n  or\n  swap1\n  sstore\n  pop\n    /* \"contracts/MagicTickets/MagicTickets.sol\":362:413  constructor() {... */\n  callvalue\n  dup1\n  iszero\n  tag_1\n  jumpi\n  0x00\n  dup1\n  revert\ntag_1:\n  pop\n    /* \"contracts/MagicTickets/MagicTickets.sol\":395:405  msg.sender */\n  caller\n    /* \"contracts/MagicTickets/MagicTickets.sol\":387:392  owner */\n  0x00\n  dup1\n    /* \"contracts/MagicTickets/MagicTickets.sol\":387:405  owner = msg.sender */\n  0x0100\n  exp\n  dup2\n  sload\n  dup2\n  0xffffffffffffffffffffffffffffffffffffffff\n  mul\n  not\n  and\n  swap1\n  dup4\n  0xffffffffffffffffffffffffffffffffffffffff\n  and\n  mul\n  or\n  swap1\n  sstore\n  pop\n    /* \"contracts/MagicTickets/MagicTickets.sol\":303:6267  contract MagicTickets{... */\n  dataSize(sub_0)\n  dup1\n  dataOffset(sub_0)\n  0x00\n  codecopy\n  0x00\n  return\nstop\n\nsub_0: assembly {\n        /* \"contracts/MagicTickets/MagicTickets.sol\":303:6267  contract MagicTickets{... */\n      mstore(0x40, 0x80)\n      callvalue\n      dup1\n      iszero\n      tag_1\n      jumpi\n      0x00\n      dup1\n      revert\n    tag_1:\n      pop\n      jumpi(tag_2, lt(calldatasize, 0x04))\n      shr(0xe0, calldataload(0x00))\n      dup1\n      0x5fba3171\n      gt\n      tag_12\n      jumpi\n      dup1\n      0x5fba3171\n      eq\n      tag_7\n      jumpi\n      dup1\n      0x7f06b8a8\n      eq\n      tag_8\n      jumpi\n      dup1\n      0x8da5cb5b\n      eq\n      tag_9\n      jumpi\n      dup1\n      0xbb15d0bc\n      eq\n      tag_10\n      jumpi\n      dup1\n      0xf6ce4bc5\n      eq\n      tag_11\n      jumpi\n      jump(tag_2)\n    tag_12:\n      dup1\n      0x0b0cfcd4\n      eq\n      tag_3\n      jumpi\n      dup1\n      0x17b937e6\n      eq\n      tag_4\n      jumpi\n      dup1\n      0x5a9365e4\n      eq\n      tag_5\n      jumpi\n      dup1\n      0x5d4bc0ce\n      eq\n      tag_6\n      jumpi\n    tag_2:\n      0x00\n      dup1\n      revert\n        /* \"contracts/MagicTickets/MagicTickets.sol\":2794:2908  function getQtdDisponivel(uint _id) public view returns(uint){... */\n    tag_3:\n      tag_13\n      0x04\n      dup1\n      calldatasize\n      sub\n      dup2\n      add\n      swap1\n      tag_14\n      swap2\n      swap1\n      tag_15\n      jump\t// in\n    tag_14:\n      tag_16\n      jump\t// in\n    tag_13:\n      mload(0x40)\n      tag_17\n      swap2\n      swap1\n      tag_18\n      jump\t// in\n    tag_17:\n      mload(0x40)\n      dup1\n      swap2\n      sub\n      swap1\n      return\n        /* \"contracts/MagicTickets/MagicTickets.sol\":1397:1437  mapping (uint => Entry[]) public entries */\n    tag_4:\n      tag_19\n      0x04\n      dup1\n      calldatasize\n      sub\n      dup2\n      add\n      swap1\n      tag_20\n      swap2\n      swap1\n      tag_21\n      jump\t// in\n    tag_20:\n      tag_22\n      jump\t// in\n    tag_19:\n      mload(0x40)\n      tag_23\n      swap2\n      swap1\n      tag_24\n      jump\t// in\n    tag_23:\n      mload(0x40)\n      dup1\n      swap2\n      sub\n      swap1\n      return\n        /* \"contracts/MagicTickets/MagicTickets.sol\":3915:4627  function sortearWinner(uint _id, string calldata seed) public {... */\n    tag_5:\n      tag_25\n      0x04\n      dup1\n      calldatasize\n      sub\n      dup2\n      add\n      swap1\n      tag_26\n      swap2\n      swap1\n      tag_27\n      jump\t// in\n    tag_26:\n      tag_28\n      jump\t// in\n    tag_25:\n      stop\n        /* \"contracts/MagicTickets/MagicTickets.sol\":1305:1334  RaffleStruct[] public raffles */\n    tag_6:\n      tag_29\n      0x04\n      dup1\n      calldatasize\n      sub\n      dup2\n      add\n      swap1\n      tag_30\n      swap2\n      swap1\n      tag_15\n      jump\t// in\n    tag_30:\n      tag_31\n      jump\t// in\n    tag_29:\n      mload(0x40)\n      tag_32\n      swap13\n      swap12\n      swap11\n      swap10\n      swap9\n      swap8\n      swap7\n      swap6\n      swap5\n      swap4\n      swap3\n      swap2\n      swap1\n      tag_33\n      jump\t// in\n    tag_32:\n      mload(0x40)\n      dup1\n      swap2\n      sub\n      swap1\n      return\n        /* \"contracts/MagicTickets/MagicTickets.sol\":4635:5278  function cancelRaffle(uint _id) public{... */\n    tag_7:\n      tag_34\n      0x04\n      dup1\n      calldatasize\n      sub\n      dup2\n      add\n      swap1\n      tag_35\n      swap2\n      swap1\n      tag_15\n      jump\t// in\n    tag_35:\n      tag_36\n      jump\t// in\n    tag_34:\n      stop\n        /* \"contracts/MagicTickets/MagicTickets.sol\":2916:3695  function buyEntry(uint _id, uint qtd, address buyer, address _tokenPay) public{... */\n    tag_8:\n      tag_37\n      0x04\n      dup1\n      calldatasize\n      sub\n      dup2\n      add\n      swap1\n      tag_38\n      swap2\n      swap1\n      tag_39\n      jump\t// in\n    tag_38:\n      tag_40\n      jump\t// in\n    tag_37:\n      stop\n        /* \"contracts/MagicTickets/MagicTickets.sol\":333:353  address public owner */\n    tag_9:\n      tag_41\n      tag_42\n      jump\t// in\n    tag_41:\n      mload(0x40)\n      tag_43\n      swap2\n      swap1\n      tag_24\n      jump\t// in\n    tag_43:\n      mload(0x40)\n      dup1\n      swap2\n      sub\n      swap1\n      return\n        /* \"contracts/MagicTickets/MagicTickets.sol\":1655:2786  function createRaffle(uint amount, ... */\n    tag_10:\n      tag_44\n      0x04\n      dup1\n      calldatasize\n      sub\n      dup2\n      add\n      swap1\n      tag_45\n      swap2\n      swap1\n      tag_46\n      jump\t// in\n    tag_45:\n      tag_47\n      jump\t// in\n    tag_44:\n      mload(0x40)\n      tag_48\n      swap2\n      swap1\n      tag_18\n      jump\t// in\n    tag_48:\n      mload(0x40)\n      dup1\n      swap2\n      sub\n      swap1\n      return\n        /* \"contracts/MagicTickets/MagicTickets.sol\":5286:5625  function devolution(uint _id) public{... */\n    tag_11:\n      tag_49\n      0x04\n      dup1\n      calldatasize\n      sub\n      dup2\n      add\n      swap1\n      tag_50\n      swap2\n      swap1\n      tag_15\n      jump\t// in\n    tag_50:\n      tag_51\n      jump\t// in\n    tag_49:\n      stop\n        /* \"contracts/MagicTickets/MagicTickets.sol\":2794:2908  function getQtdDisponivel(uint _id) public view returns(uint){... */\n    tag_16:\n        /* \"contracts/MagicTickets/MagicTickets.sol\":2850:2854  uint */\n      0x00\n        /* \"contracts/MagicTickets/MagicTickets.sol\":2873:2880  raffles */\n      0x02\n        /* \"contracts/MagicTickets/MagicTickets.sol\":2881:2884  _id */\n      dup3\n        /* \"contracts/MagicTickets/MagicTickets.sol\":2873:2885  raffles[_id] */\n      dup2\n      sload\n      dup2\n      lt\n      tag_53\n      jumpi\n      tag_54\n      tag_55\n      jump\t// in\n    tag_54:\n    tag_53:\n      swap1\n      0x00\n      mstore\n      keccak256(0x00, 0x20)\n      swap1\n      0x0c\n      mul\n      add\n        /* \"contracts/MagicTickets/MagicTickets.sol\":2873:2900  raffles[_id]._qtdDisponivel */\n      0x07\n      add\n      sload\n        /* \"contracts/MagicTickets/MagicTickets.sol\":2866:2900  return raffles[_id]._qtdDisponivel */\n      swap1\n      pop\n        /* \"contracts/MagicTickets/MagicTickets.sol\":2794:2908  function getQtdDisponivel(uint _id) public view returns(uint){... */\n      swap2\n      swap1\n      pop\n      jump\t// out\n        /* \"contracts/MagicTickets/MagicTickets.sol\":1397:1437  mapping (uint => Entry[]) public entries */\n    tag_22:\n      mstore(0x20, 0x03)\n      dup2\n      0x00\n      mstore\n      keccak256(0x00, 0x40)\n      dup2\n      dup2\n      sload\n      dup2\n      lt\n      tag_57\n      jumpi\n      0x00\n      dup1\n      revert\n    tag_57:\n      swap1\n      0x00\n      mstore\n      keccak256(0x00, 0x20)\n      add\n      0x00\n      swap2\n      pop\n      swap2\n      pop\n      pop\n      dup1\n      0x00\n      add\n      0x00\n      swap1\n      sload\n      swap1\n      0x0100\n      exp\n      swap1\n      div\n      0xffffffffffffffffffffffffffffffffffffffff\n      and\n      swap1\n      pop\n      dup2\n      jump\t// out\n        /* \"contracts/MagicTickets/MagicTickets.sol\":3915:4627  function sortearWinner(uint _id, string calldata seed) public {... */\n    tag_28:\n        /* \"contracts/MagicTickets/MagicTickets.sol\":4010:4015  owner */\n      0x00\n      dup1\n      sload\n      swap1\n      0x0100\n      exp\n      swap1\n      div\n      0xffffffffffffffffffffffffffffffffffffffff\n      and\n        /* \"contracts/MagicTickets/MagicTickets.sol\":3996:4015  msg.sender == owner */\n      0xffffffffffffffffffffffffffffffffffffffff\n      and\n        /* \"contracts/MagicTickets/MagicTickets.sol\":3996:4006  msg.sender */\n      caller\n        /* \"contracts/MagicTickets/MagicTickets.sol\":3996:4015  msg.sender == owner */\n      0xffffffffffffffffffffffffffffffffffffffff\n      and\n      eq\n        /* \"contracts/MagicTickets/MagicTickets.sol\":3988:4052  require(msg.sender == owner, \"Voce nao pode realizar o sorteio\") */\n      tag_60\n      jumpi\n      mload(0x40)\n      0x08c379a000000000000000000000000000000000000000000000000000000000\n      dup2\n      mstore\n      0x04\n      add\n      tag_61\n      swap1\n      tag_62\n      jump\t// in\n    tag_61:\n      mload(0x40)\n      dup1\n      swap2\n      sub\n      swap1\n      revert\n    tag_60:\n        /* \"contracts/MagicTickets/MagicTickets.sol\":4071:4098  RaffleStruct storage raffle */\n      0x00\n        /* \"contracts/MagicTickets/MagicTickets.sol\":4101:4108  raffles */\n      0x02\n        /* \"contracts/MagicTickets/MagicTickets.sol\":4109:4112  _id */\n      dup5\n        /* \"contracts/MagicTickets/MagicTickets.sol\":4101:4113  raffles[_id] */\n      dup2\n      sload\n      dup2\n      lt\n      tag_63\n      jumpi\n      tag_64\n      tag_55\n      jump\t// in\n    tag_64:\n    tag_63:\n      swap1\n      0x00\n      mstore\n      keccak256(0x00, 0x20)\n      swap1\n      0x0c\n      mul\n      add\n        /* \"contracts/MagicTickets/MagicTickets.sol\":4071:4113  RaffleStruct storage raffle = raffles[_id] */\n      swap1\n      pop\n        /* \"contracts/MagicTickets/MagicTickets.sol\":4152:4164  STATUS.ENDED */\n      0x01\n        /* \"contracts/MagicTickets/MagicTickets.sol\":4134:4164  raffle._status != STATUS.ENDED */\n      0x02\n      dup2\n      gt\n      iszero\n      tag_66\n      jumpi\n      tag_67\n      tag_68\n      jump\t// in\n    tag_67:\n    tag_66:\n        /* \"contracts/MagicTickets/MagicTickets.sol\":4134:4140  raffle */\n      dup2\n        /* \"contracts/MagicTickets/MagicTickets.sol\":4134:4148  raffle._status */\n      0x00\n      add\n      0x00\n      swap1\n      sload\n      swap1\n      0x0100\n      exp\n      swap1\n      div\n      0xff\n      and\n        /* \"contracts/MagicTickets/MagicTickets.sol\":4134:4164  raffle._status != STATUS.ENDED */\n      0x02\n      dup2\n      gt\n      iszero\n      tag_69\n      jumpi\n      tag_70\n      tag_68\n      jump\t// in\n    tag_70:\n    tag_69:\n      eq\n      iszero\n        /* \"contracts/MagicTickets/MagicTickets.sol\":4134:4201  raffle._status != STATUS.ENDED && raffle._status != STATUS.CANCELED */\n      dup1\n      iszero\n      tag_71\n      jumpi\n      pop\n        /* \"contracts/MagicTickets/MagicTickets.sol\":4186:4201  STATUS.CANCELED */\n      0x02\n        /* \"contracts/MagicTickets/MagicTickets.sol\":4168:4201  raffle._status != STATUS.CANCELED */\n      dup1\n      dup2\n      gt\n      iszero\n      tag_72\n      jumpi\n      tag_73\n      tag_68\n      jump\t// in\n    tag_73:\n    tag_72:\n        /* \"contracts/MagicTickets/MagicTickets.sol\":4168:4174  raffle */\n      dup2\n        /* \"contracts/MagicTickets/MagicTickets.sol\":4168:4182  raffle._status */\n      0x00\n      add\n      0x00\n      swap1\n      sload\n      swap1\n      0x0100\n      exp\n      swap1\n      div\n      0xff\n      and\n        /* \"contracts/MagicTickets/MagicTickets.sol\":4168:4201  raffle._status != STATUS.CANCELED */\n      0x02\n      dup2\n      gt\n      iszero\n      tag_74\n      jumpi\n      tag_75\n      tag_68\n      jump\t// in\n    tag_75:\n    tag_74:\n      eq\n      iszero\n        /* \"contracts/MagicTickets/MagicTickets.sol\":4134:4201  raffle._status != STATUS.ENDED && raffle._status != STATUS.CANCELED */\n    tag_71:\n        /* \"contracts/MagicTickets/MagicTickets.sol\":4126:4232  require(raffle._status != STATUS.ENDED && raffle._status != STATUS.CANCELED, \"O Raffle ja foi finalizado\") */\n      tag_76\n      jumpi\n      mload(0x40)\n      0x08c379a000000000000000000000000000000000000000000000000000000000\n      dup2\n      mstore\n      0x04\n      add\n      tag_77\n      swap1\n      tag_78\n      jump\t// in\n    tag_77:\n      mload(0x40)\n      dup1\n      swap2\n      sub\n      swap1\n      revert\n    tag_76:\n        /* \"contracts/MagicTickets/MagicTickets.sol\":4274:4280  raffle */\n      dup1\n        /* \"contracts/MagicTickets/MagicTickets.sol\":4274:4292  raffle._minTickets */\n      0x02\n      add\n      sload\n        /* \"contracts/MagicTickets/MagicTickets.sol\":4251:4258  entries */\n      0x03\n        /* \"contracts/MagicTickets/MagicTickets.sol\":4251:4263  entries[_id] */\n      0x00\n        /* \"contracts/MagicTickets/MagicTickets.sol\":4259:4262  _id */\n      dup7\n        /* \"contracts/MagicTickets/MagicTickets.sol\":4251:4263  entries[_id] */\n      dup2\n      mstore\n      0x20\n      add\n      swap1\n      dup2\n      mstore\n      0x20\n      add\n      0x00\n      keccak256\n        /* \"contracts/MagicTickets/MagicTickets.sol\":4251:4270  entries[_id].length */\n      dup1\n      sload\n      swap1\n      pop\n        /* \"contracts/MagicTickets/MagicTickets.sol\":4251:4292  entries[_id].length >= raffle._minTickets */\n      lt\n      iszero\n        /* \"contracts/MagicTickets/MagicTickets.sol\":4243:4331  require(entries[_id].length >= raffle._minTickets, \"Quantidade de tickets insuficiente\") */\n      tag_79\n      jumpi\n      mload(0x40)\n      0x08c379a000000000000000000000000000000000000000000000000000000000\n      dup2\n      mstore\n      0x04\n      add\n      tag_80\n      swap1\n      tag_81\n      jump\t// in\n    tag_80:\n      mload(0x40)\n      dup1\n      swap2\n      sub\n      swap1\n      revert\n    tag_79:\n        /* \"contracts/MagicTickets/MagicTickets.sol\":4352:4365  uint256 valor */\n      0x00\n        /* \"contracts/MagicTickets/MagicTickets.sol\":4368:4406  gerarNumero(seed, entries[_id].length) */\n      tag_82\n        /* \"contracts/MagicTickets/MagicTickets.sol\":4380:4384  seed */\n      dup5\n      dup5\n        /* \"contracts/MagicTickets/MagicTickets.sol\":4386:4393  entries */\n      0x03\n        /* \"contracts/MagicTickets/MagicTickets.sol\":4386:4398  entries[_id] */\n      0x00\n        /* \"contracts/MagicTickets/MagicTickets.sol\":4394:4397  _id */\n      dup10\n        /* \"contracts/MagicTickets/MagicTickets.sol\":4386:4398  entries[_id] */\n      dup2\n      mstore\n      0x20\n      add\n      swap1\n      dup2\n      mstore\n      0x20\n      add\n      0x00\n      keccak256\n        /* \"contracts/MagicTickets/MagicTickets.sol\":4386:4405  entries[_id].length */\n      dup1\n      sload\n      swap1\n      pop\n        /* \"contracts/MagicTickets/MagicTickets.sol\":4368:4379  gerarNumero */\n      tag_83\n        /* \"contracts/MagicTickets/MagicTickets.sol\":4368:4406  gerarNumero(seed, entries[_id].length) */\n      jump\t// in\n    tag_82:\n        /* \"contracts/MagicTickets/MagicTickets.sol\":4352:4406  uint256 valor = gerarNumero(seed, entries[_id].length) */\n      swap1\n      pop\n        /* \"contracts/MagicTickets/MagicTickets.sol\":4419:4433  address wallet */\n      0x00\n        /* \"contracts/MagicTickets/MagicTickets.sol\":4436:4443  entries */\n      0x03\n        /* \"contracts/MagicTickets/MagicTickets.sol\":4436:4448  entries[_id] */\n      0x00\n        /* \"contracts/MagicTickets/MagicTickets.sol\":4444:4447  _id */\n      dup8\n        /* \"contracts/MagicTickets/MagicTickets.sol\":4436:4448  entries[_id] */\n      dup2\n      mstore\n      0x20\n      add\n      swap1\n      dup2\n      mstore\n      0x20\n      add\n      0x00\n      keccak256\n        /* \"contracts/MagicTickets/MagicTickets.sol\":4449:4454  valor */\n      dup3\n        /* \"contracts/MagicTickets/MagicTickets.sol\":4436:4455  entries[_id][valor] */\n      dup2\n      sload\n      dup2\n      lt\n      tag_84\n      jumpi\n      tag_85\n      tag_55\n      jump\t// in\n    tag_85:\n    tag_84:\n      swap1\n      0x00\n      mstore\n      keccak256(0x00, 0x20)\n      add\n        /* \"contracts/MagicTickets/MagicTickets.sol\":4436:4463  entries[_id][valor]._player */\n      0x00\n      add\n      0x00\n      swap1\n      sload\n      swap1\n      0x0100\n      exp\n      swap1\n      div\n      0xffffffffffffffffffffffffffffffffffffffff\n      and\n        /* \"contracts/MagicTickets/MagicTickets.sol\":4419:4463  address wallet = entries[_id][valor]._player */\n      swap1\n      pop\n        /* \"contracts/MagicTickets/MagicTickets.sol\":4493:4499  wallet */\n      dup1\n        /* \"contracts/MagicTickets/MagicTickets.sol\":4476:4482  raffle */\n      dup4\n        /* \"contracts/MagicTickets/MagicTickets.sol\":4476:4490  raffle._winner */\n      0x06\n      add\n      0x00\n        /* \"contracts/MagicTickets/MagicTickets.sol\":4476:4499  raffle._winner = wallet */\n      0x0100\n      exp\n      dup2\n      sload\n      dup2\n      0xffffffffffffffffffffffffffffffffffffffff\n      mul\n      not\n      and\n      swap1\n      dup4\n      0xffffffffffffffffffffffffffffffffffffffff\n      and\n      mul\n      or\n      swap1\n      sstore\n      pop\n        /* \"contracts/MagicTickets/MagicTickets.sol\":4529:4541  STATUS.ENDED */\n      0x01\n        /* \"contracts/MagicTickets/MagicTickets.sol\":4512:4518  raffle */\n      dup4\n        /* \"contracts/MagicTickets/MagicTickets.sol\":4512:4526  raffle._status */\n      0x00\n      add\n      0x00\n        /* \"contracts/MagicTickets/MagicTickets.sol\":4512:4541  raffle._status = STATUS.ENDED */\n      0x0100\n      exp\n      dup2\n      sload\n      dup2\n      0xff\n      mul\n      not\n      and\n      swap1\n      dup4\n      0x02\n      dup2\n      gt\n      iszero\n      tag_87\n      jumpi\n      tag_88\n      tag_68\n      jump\t// in\n    tag_88:\n    tag_87:\n      mul\n      or\n      swap1\n      sstore\n      pop\n        /* \"contracts/MagicTickets/MagicTickets.sol\":4575:4581  raffle */\n      dup3\n        /* \"contracts/MagicTickets/MagicTickets.sol\":4575:4589  raffle._winner */\n      0x06\n      add\n      0x00\n      swap1\n      sload\n      swap1\n      0x0100\n      exp\n      swap1\n      div\n      0xffffffffffffffffffffffffffffffffffffffff\n      and\n        /* \"contracts/MagicTickets/MagicTickets.sol\":4559:4590  drawWinner(_id, raffle._winner) */\n      0xffffffffffffffffffffffffffffffffffffffff\n      and\n        /* \"contracts/MagicTickets/MagicTickets.sol\":4570:4573  _id */\n      dup7\n        /* \"contracts/MagicTickets/MagicTickets.sol\":4559:4590  drawWinner(_id, raffle._winner) */\n      0xce2cddfd400adbcf694cea71fb57997f5c7a9fc7487c6f7701c97bcddf217095\n      mload(0x40)\n      mload(0x40)\n      dup1\n      swap2\n      sub\n      swap1\n      log3\n        /* \"contracts/MagicTickets/MagicTickets.sol\":4603:4617  sendToken(_id) */\n      tag_89\n        /* \"contracts/MagicTickets/MagicTickets.sol\":4613:4616  _id */\n      dup7\n        /* \"contracts/MagicTickets/MagicTickets.sol\":4603:4612  sendToken */\n      tag_90\n        /* \"contracts/MagicTickets/MagicTickets.sol\":4603:4617  sendToken(_id) */\n      jump\t// in\n    tag_89:\n        /* \"contracts/MagicTickets/MagicTickets.sol\":3977:4627  {... */\n      pop\n      pop\n      pop\n        /* \"contracts/MagicTickets/MagicTickets.sol\":3915:4627  function sortearWinner(uint _id, string calldata seed) public {... */\n      pop\n      pop\n      pop\n      jump\t// out\n        /* \"contracts/MagicTickets/MagicTickets.sol\":1305:1334  RaffleStruct[] public raffles */\n    tag_31:\n      0x02\n      dup2\n      dup2\n      sload\n      dup2\n      lt\n      tag_91\n      jumpi\n      0x00\n      dup1\n      revert\n    tag_91:\n      swap1\n      0x00\n      mstore\n      keccak256(0x00, 0x20)\n      swap1\n      0x0c\n      mul\n      add\n      0x00\n      swap2\n      pop\n      swap1\n      pop\n      dup1\n      0x00\n      add\n      0x00\n      swap1\n      sload\n      swap1\n      0x0100\n      exp\n      swap1\n      div\n      0xff\n      and\n      swap1\n      dup1\n      0x01\n      add\n      sload\n      swap1\n      dup1\n      0x02\n      add\n      sload\n      swap1\n      dup1\n      0x03\n      add\n      sload\n      swap1\n      dup1\n      0x04\n      add\n      0x00\n      swap1\n      sload\n      swap1\n      0x0100\n      exp\n      swap1\n      div\n      0xffffffffffffffffffffffffffffffffffffffff\n      and\n      swap1\n      dup1\n      0x05\n      add\n      sload\n      swap1\n      dup1\n      0x06\n      add\n      0x00\n      swap1\n      sload\n      swap1\n      0x0100\n      exp\n      swap1\n      div\n      0xffffffffffffffffffffffffffffffffffffffff\n      and\n      swap1\n      dup1\n      0x07\n      add\n      sload\n      swap1\n      dup1\n      0x08\n      add\n      sload\n      swap1\n      dup1\n      0x09\n      add\n      0x00\n      swap1\n      sload\n      swap1\n      0x0100\n      exp\n      swap1\n      div\n      0xffffffffffffffffffffffffffffffffffffffff\n      and\n      swap1\n      dup1\n      0x0a\n      add\n      sload\n      swap1\n      dup1\n      0x0b\n      add\n      0x00\n      swap1\n      sload\n      swap1\n      0x0100\n      exp\n      swap1\n      div\n      0xffffffffffffffffffffffffffffffffffffffff\n      and\n      swap1\n      pop\n      dup13\n      jump\t// out\n        /* \"contracts/MagicTickets/MagicTickets.sol\":4635:5278  function cancelRaffle(uint _id) public{... */\n    tag_36:\n        /* \"contracts/MagicTickets/MagicTickets.sol\":4706:4713  raffles */\n      0x02\n        /* \"contracts/MagicTickets/MagicTickets.sol\":4714:4717  _id */\n      dup2\n        /* \"contracts/MagicTickets/MagicTickets.sol\":4706:4718  raffles[_id] */\n      dup2\n      sload\n      dup2\n      lt\n      tag_94\n      jumpi\n      tag_95\n      tag_55\n      jump\t// in\n    tag_95:\n    tag_94:\n      swap1\n      0x00\n      mstore\n      keccak256(0x00, 0x20)\n      swap1\n      0x0c\n      mul\n      add\n        /* \"contracts/MagicTickets/MagicTickets.sol\":4706:4726  raffles[_id]._seller */\n      0x04\n      add\n      0x00\n      swap1\n      sload\n      swap1\n      0x0100\n      exp\n      swap1\n      div\n      0xffffffffffffffffffffffffffffffffffffffff\n      and\n        /* \"contracts/MagicTickets/MagicTickets.sol\":4692:4726  msg.sender == raffles[_id]._seller */\n      0xffffffffffffffffffffffffffffffffffffffff\n      and\n        /* \"contracts/MagicTickets/MagicTickets.sol\":4692:4702  msg.sender */\n      caller\n        /* \"contracts/MagicTickets/MagicTickets.sol\":4692:4726  msg.sender == raffles[_id]._seller */\n      0xffffffffffffffffffffffffffffffffffffffff\n      and\n      eq\n        /* \"contracts/MagicTickets/MagicTickets.sol\":4684:4777  require(msg.sender == raffles[_id]._seller, \"Voce nao tem permissao para realizar essa acao\") */\n      tag_97\n      jumpi\n      mload(0x40)\n      0x08c379a000000000000000000000000000000000000000000000000000000000\n      dup2\n      mstore\n      0x04\n      add\n      tag_98\n      swap1\n      tag_99\n      jump\t// in\n    tag_98:\n      mload(0x40)\n      dup1\n      swap2\n      sub\n      swap1\n      revert\n    tag_97:\n        /* \"contracts/MagicTickets/MagicTickets.sol\":4819:4820  0 */\n      0x00\n        /* \"contracts/MagicTickets/MagicTickets.sol\":4796:4803  entries */\n      0x03\n        /* \"contracts/MagicTickets/MagicTickets.sol\":4796:4808  entries[_id] */\n      0x00\n        /* \"contracts/MagicTickets/MagicTickets.sol\":4804:4807  _id */\n      dup4\n        /* \"contracts/MagicTickets/MagicTickets.sol\":4796:4808  entries[_id] */\n      dup2\n      mstore\n      0x20\n      add\n      swap1\n      dup2\n      mstore\n      0x20\n      add\n      0x00\n      keccak256\n        /* \"contracts/MagicTickets/MagicTickets.sol\":4796:4815  entries[_id].length */\n      dup1\n      sload\n      swap1\n      pop\n        /* \"contracts/MagicTickets/MagicTickets.sol\":4796:4820  entries[_id].length == 0 */\n      eq\n        /* \"contracts/MagicTickets/MagicTickets.sol\":4788:4864  require(entries[_id].length == 0, \"Voce nao pode mais cancelar esse raffle\") */\n      tag_100\n      jumpi\n      mload(0x40)\n      0x08c379a000000000000000000000000000000000000000000000000000000000\n      dup2\n      mstore\n      0x04\n      add\n      tag_101\n      swap1\n      tag_102\n      jump\t// in\n    tag_101:\n      mload(0x40)\n      dup1\n      swap2\n      sub\n      swap1\n      revert\n    tag_100:\n        /* \"contracts/MagicTickets/MagicTickets.sol\":4877:4904  RaffleStruct storage raffle */\n      0x00\n        /* \"contracts/MagicTickets/MagicTickets.sol\":4907:4914  raffles */\n      0x02\n        /* \"contracts/MagicTickets/MagicTickets.sol\":4915:4918  _id */\n      dup3\n        /* \"contracts/MagicTickets/MagicTickets.sol\":4907:4919  raffles[_id] */\n      dup2\n      sload\n      dup2\n      lt\n      tag_103\n      jumpi\n      tag_104\n      tag_55\n      jump\t// in\n    tag_104:\n    tag_103:\n      swap1\n      0x00\n      mstore\n      keccak256(0x00, 0x20)\n      swap1\n      0x0c\n      mul\n      add\n        /* \"contracts/MagicTickets/MagicTickets.sol\":4877:4919  RaffleStruct storage raffle = raffles[_id] */\n      swap1\n      pop\n        /* \"contracts/MagicTickets/MagicTickets.sol\":4958:4972  STATUS.STARTED */\n      0x00\n        /* \"contracts/MagicTickets/MagicTickets.sol\":4940:4972  raffle._status == STATUS.STARTED */\n      0x02\n      dup2\n      gt\n      iszero\n      tag_106\n      jumpi\n      tag_107\n      tag_68\n      jump\t// in\n    tag_107:\n    tag_106:\n        /* \"contracts/MagicTickets/MagicTickets.sol\":4940:4946  raffle */\n      dup2\n        /* \"contracts/MagicTickets/MagicTickets.sol\":4940:4954  raffle._status */\n      0x00\n      add\n      0x00\n      swap1\n      sload\n      swap1\n      0x0100\n      exp\n      swap1\n      div\n      0xff\n      and\n        /* \"contracts/MagicTickets/MagicTickets.sol\":4940:4972  raffle._status == STATUS.STARTED */\n      0x02\n      dup2\n      gt\n      iszero\n      tag_108\n      jumpi\n      tag_109\n      tag_68\n      jump\t// in\n    tag_109:\n    tag_108:\n      eq\n        /* \"contracts/MagicTickets/MagicTickets.sol\":4932:5015  require(raffle._status == STATUS.STARTED, \"Este raffle ja nao esta mais ocorrendo\") */\n      tag_110\n      jumpi\n      mload(0x40)\n      0x08c379a000000000000000000000000000000000000000000000000000000000\n      dup2\n      mstore\n      0x04\n      add\n      tag_111\n      swap1\n      tag_112\n      jump\t// in\n    tag_111:\n      mload(0x40)\n      dup1\n      swap2\n      sub\n      swap1\n      revert\n    tag_110:\n        /* \"contracts/MagicTickets/MagicTickets.sol\":5036:5050  address wallet */\n      0x00\n        /* \"contracts/MagicTickets/MagicTickets.sol\":5053:5059  raffle */\n      dup2\n        /* \"contracts/MagicTickets/MagicTickets.sol\":5053:5067  raffle._seller */\n      0x04\n      add\n      0x00\n      swap1\n      sload\n      swap1\n      0x0100\n      exp\n      swap1\n      div\n      0xffffffffffffffffffffffffffffffffffffffff\n      and\n        /* \"contracts/MagicTickets/MagicTickets.sol\":5036:5067  address wallet = raffle._seller */\n      swap1\n      pop\n        /* \"contracts/MagicTickets/MagicTickets.sol\":5080:5098  IERC20 tokenRaffle */\n      0x00\n        /* \"contracts/MagicTickets/MagicTickets.sol\":5108:5114  raffle */\n      dup3\n        /* \"contracts/MagicTickets/MagicTickets.sol\":5108:5127  raffle._tokenRaffle */\n      0x09\n      add\n      0x00\n      swap1\n      sload\n      swap1\n      0x0100\n      exp\n      swap1\n      div\n      0xffffffffffffffffffffffffffffffffffffffff\n      and\n        /* \"contracts/MagicTickets/MagicTickets.sol\":5080:5128  IERC20 tokenRaffle = IERC20(raffle._tokenRaffle) */\n      swap1\n      pop\n        /* \"contracts/MagicTickets/MagicTickets.sol\":5141:5152  tokenRaffle */\n      dup1\n        /* \"contracts/MagicTickets/MagicTickets.sol\":5141:5161  tokenRaffle.transfer */\n      0xffffffffffffffffffffffffffffffffffffffff\n      and\n      0xa9059cbb\n        /* \"contracts/MagicTickets/MagicTickets.sol\":5162:5168  wallet */\n      dup4\n        /* \"contracts/MagicTickets/MagicTickets.sol\":5170:5176  raffle */\n      dup6\n        /* \"contracts/MagicTickets/MagicTickets.sol\":5170:5187  raffle._amountEth */\n      0x03\n      add\n      sload\n        /* \"contracts/MagicTickets/MagicTickets.sol\":5141:5188  tokenRaffle.transfer(wallet, raffle._amountEth) */\n      mload(0x40)\n      dup4\n      0xffffffff\n      and\n      0xe0\n      shl\n      dup2\n      mstore\n      0x04\n      add\n      tag_113\n      swap3\n      swap2\n      swap1\n      tag_114\n      jump\t// in\n    tag_113:\n      0x00\n      mload(0x40)\n      dup1\n      dup4\n      sub\n      dup2\n      0x00\n      dup8\n      dup1\n      extcodesize\n      iszero\n      dup1\n      iszero\n      tag_115\n      jumpi\n      0x00\n      dup1\n      revert\n    tag_115:\n      pop\n      gas\n      call\n      iszero\n      dup1\n      iszero\n      tag_117\n      jumpi\n      returndatasize\n      0x00\n      dup1\n      returndatacopy\n      revert(0x00, returndatasize)\n    tag_117:\n      pop\n      pop\n      pop\n      pop\n        /* \"contracts/MagicTickets/MagicTickets.sol\":5218:5233  STATUS.CANCELED */\n      0x02\n        /* \"contracts/MagicTickets/MagicTickets.sol\":5201:5207  raffle */\n      dup4\n        /* \"contracts/MagicTickets/MagicTickets.sol\":5201:5215  raffle._status */\n      0x00\n      add\n      0x00\n        /* \"contracts/MagicTickets/MagicTickets.sol\":5201:5233  raffle._status = STATUS.CANCELED */\n      0x0100\n      exp\n      dup2\n      sload\n      dup2\n      0xff\n      mul\n      not\n      and\n      swap1\n      dup4\n      0x02\n      dup2\n      gt\n      iszero\n      tag_118\n      jumpi\n      tag_119\n      tag_68\n      jump\t// in\n    tag_119:\n    tag_118:\n      mul\n      or\n      swap1\n      sstore\n      pop\n        /* \"contracts/MagicTickets/MagicTickets.sol\":5266:5269  _id */\n      dup4\n        /* \"contracts/MagicTickets/MagicTickets.sol\":5251:5270  canceledRaffle(_id) */\n      0xd12fb3853f1b33ba57f4469e7208a47e391853ab650de6721cbbe595058767\n      mload(0x40)\n      mload(0x40)\n      dup1\n      swap2\n      sub\n      swap1\n      log2\n        /* \"contracts/MagicTickets/MagicTickets.sol\":4673:5278  {... */\n      pop\n      pop\n      pop\n        /* \"contracts/MagicTickets/MagicTickets.sol\":4635:5278  function cancelRaffle(uint _id) public{... */\n      pop\n      jump\t// out\n        /* \"contracts/MagicTickets/MagicTickets.sol\":2916:3695  function buyEntry(uint _id, uint qtd, address buyer, address _tokenPay) public{... */\n    tag_40:\n        /* \"contracts/MagicTickets/MagicTickets.sol\":3063:3066  qtd */\n      dup3\n        /* \"contracts/MagicTickets/MagicTickets.sol\":3040:3047  entries */\n      0x03\n        /* \"contracts/MagicTickets/MagicTickets.sol\":3040:3052  entries[_id] */\n      0x00\n        /* \"contracts/MagicTickets/MagicTickets.sol\":3048:3051  _id */\n      dup7\n        /* \"contracts/MagicTickets/MagicTickets.sol\":3040:3052  entries[_id] */\n      dup2\n      mstore\n      0x20\n      add\n      swap1\n      dup2\n      mstore\n      0x20\n      add\n      0x00\n      keccak256\n        /* \"contracts/MagicTickets/MagicTickets.sol\":3040:3059  entries[_id].length */\n      dup1\n      sload\n      swap1\n      pop\n        /* \"contracts/MagicTickets/MagicTickets.sol\":3013:3020  raffles */\n      0x02\n        /* \"contracts/MagicTickets/MagicTickets.sol\":3021:3024  _id */\n      dup7\n        /* \"contracts/MagicTickets/MagicTickets.sol\":3013:3025  raffles[_id] */\n      dup2\n      sload\n      dup2\n      lt\n      tag_121\n      jumpi\n      tag_122\n      tag_55\n      jump\t// in\n    tag_122:\n    tag_121:\n      swap1\n      0x00\n      mstore\n      keccak256(0x00, 0x20)\n      swap1\n      0x0c\n      mul\n      add\n        /* \"contracts/MagicTickets/MagicTickets.sol\":3013:3037  raffles[_id]._maxEntries */\n      0x01\n      add\n      sload\n        /* \"contracts/MagicTickets/MagicTickets.sol\":3013:3059  raffles[_id]._maxEntries - entries[_id].length */\n      tag_124\n      swap2\n      swap1\n      tag_125\n      jump\t// in\n    tag_124:\n        /* \"contracts/MagicTickets/MagicTickets.sol\":3013:3066  raffles[_id]._maxEntries - entries[_id].length >= qtd */\n      lt\n      iszero\n        /* \"contracts/MagicTickets/MagicTickets.sol\":3005:3087  require(raffles[_id]._maxEntries - entries[_id].length >= qtd, \"qtd indisponivel\") */\n      tag_126\n      jumpi\n      mload(0x40)\n      0x08c379a000000000000000000000000000000000000000000000000000000000\n      dup2\n      mstore\n      0x04\n      add\n      tag_127\n      swap1\n      tag_128\n      jump\t// in\n    tag_127:\n      mload(0x40)\n      dup1\n      swap2\n      sub\n      swap1\n      revert\n    tag_126:\n        /* \"contracts/MagicTickets/MagicTickets.sol\":3115:3122  raffles */\n      0x02\n        /* \"contracts/MagicTickets/MagicTickets.sol\":3123:3126  _id */\n      dup5\n        /* \"contracts/MagicTickets/MagicTickets.sol\":3115:3127  raffles[_id] */\n      dup2\n      sload\n      dup2\n      lt\n      tag_129\n      jumpi\n      tag_130\n      tag_55\n      jump\t// in\n    tag_130:\n    tag_129:\n      swap1\n      0x00\n      mstore\n      keccak256(0x00, 0x20)\n      swap1\n      0x0c\n      mul\n      add\n        /* \"contracts/MagicTickets/MagicTickets.sol\":3115:3135  raffles[_id]._seller */\n      0x04\n      add\n      0x00\n      swap1\n      sload\n      swap1\n      0x0100\n      exp\n      swap1\n      div\n      0xffffffffffffffffffffffffffffffffffffffff\n      and\n        /* \"contracts/MagicTickets/MagicTickets.sol\":3106:3135  buyer != raffles[_id]._seller */\n      0xffffffffffffffffffffffffffffffffffffffff\n      and\n        /* \"contracts/MagicTickets/MagicTickets.sol\":3106:3111  buyer */\n      dup3\n        /* \"contracts/MagicTickets/MagicTickets.sol\":3106:3135  buyer != raffles[_id]._seller */\n      0xffffffffffffffffffffffffffffffffffffffff\n      and\n      sub\n        /* \"contracts/MagicTickets/MagicTickets.sol\":3098:3193  require(buyer != raffles[_id]._seller, \"O seller nao pode comprar entradas do proprio sorteio\") */\n      tag_132\n      jumpi\n      mload(0x40)\n      0x08c379a000000000000000000000000000000000000000000000000000000000\n      dup2\n      mstore\n      0x04\n      add\n      tag_133\n      swap1\n      tag_134\n      jump\t// in\n    tag_133:\n      mload(0x40)\n      dup1\n      swap2\n      sub\n      swap1\n      revert\n    tag_132:\n        /* \"contracts/MagicTickets/MagicTickets.sol\":3206:3216  uint value */\n      0x00\n        /* \"contracts/MagicTickets/MagicTickets.sol\":3247:3250  qtd */\n      dup4\n        /* \"contracts/MagicTickets/MagicTickets.sol\":3219:3226  raffles */\n      0x02\n        /* \"contracts/MagicTickets/MagicTickets.sol\":3227:3230  _id */\n      dup7\n        /* \"contracts/MagicTickets/MagicTickets.sol\":3219:3231  raffles[_id] */\n      dup2\n      sload\n      dup2\n      lt\n      tag_135\n      jumpi\n      tag_136\n      tag_55\n      jump\t// in\n    tag_136:\n    tag_135:\n      swap1\n      0x00\n      mstore\n      keccak256(0x00, 0x20)\n      swap1\n      0x0c\n      mul\n      add\n        /* \"contracts/MagicTickets/MagicTickets.sol\":3219:3244  raffles[_id]._ticketValue */\n      0x0a\n      add\n      sload\n        /* \"contracts/MagicTickets/MagicTickets.sol\":3219:3250  raffles[_id]._ticketValue * qtd */\n      tag_138\n      swap2\n      swap1\n      tag_139\n      jump\t// in\n    tag_138:\n        /* \"contracts/MagicTickets/MagicTickets.sol\":3206:3250  uint value = raffles[_id]._ticketValue * qtd */\n      swap1\n      pop\n        /* \"contracts/MagicTickets/MagicTickets.sol\":3271:3286  IERC20 tokenPay */\n      0x00\n        /* \"contracts/MagicTickets/MagicTickets.sol\":3296:3305  _tokenPay */\n      dup3\n        /* \"contracts/MagicTickets/MagicTickets.sol\":3271:3306  IERC20 tokenPay = IERC20(_tokenPay) */\n      swap1\n      pop\n        /* \"contracts/MagicTickets/MagicTickets.sol\":3317:3325  tokenPay */\n      dup1\n        /* \"contracts/MagicTickets/MagicTickets.sol\":3317:3338  tokenPay.transferFrom */\n      0xffffffffffffffffffffffffffffffffffffffff\n      and\n      0x23b872dd\n        /* \"contracts/MagicTickets/MagicTickets.sol\":3339:3349  msg.sender */\n      caller\n        /* \"contracts/MagicTickets/MagicTickets.sol\":3359:3363  this */\n      address\n        /* \"contracts/MagicTickets/MagicTickets.sol\":3366:3371  value */\n      dup6\n        /* \"contracts/MagicTickets/MagicTickets.sol\":3317:3372  tokenPay.transferFrom(msg.sender, address(this), value) */\n      mload(0x40)\n      dup5\n      0xffffffff\n      and\n      0xe0\n      shl\n      dup2\n      mstore\n      0x04\n      add\n      tag_140\n      swap4\n      swap3\n      swap2\n      swap1\n      tag_141\n      jump\t// in\n    tag_140:\n      0x00\n      mload(0x40)\n      dup1\n      dup4\n      sub\n      dup2\n      0x00\n      dup8\n      dup1\n      extcodesize\n      iszero\n      dup1\n      iszero\n      tag_142\n      jumpi\n      0x00\n      dup1\n      revert\n    tag_142:\n      pop\n      gas\n      call\n      iszero\n      dup1\n      iszero\n      tag_144\n      jumpi\n      returndatasize\n      0x00\n      dup1\n      returndatacopy\n      revert(0x00, returndatasize)\n    tag_144:\n      pop\n      pop\n      pop\n      pop\n        /* \"contracts/MagicTickets/MagicTickets.sol\":3385:3403  Entry memory entry */\n      0x00\n        /* \"contracts/MagicTickets/MagicTickets.sol\":3406:3453  Entry({... */\n      mload(0x40)\n      dup1\n      0x20\n      add\n      0x40\n      mstore\n      dup1\n        /* \"contracts/MagicTickets/MagicTickets.sol\":3436:3441  buyer */\n      dup7\n        /* \"contracts/MagicTickets/MagicTickets.sol\":3406:3453  Entry({... */\n      0xffffffffffffffffffffffffffffffffffffffff\n      and\n      dup2\n      mstore\n      pop\n        /* \"contracts/MagicTickets/MagicTickets.sol\":3385:3453  Entry memory entry = Entry({... */\n      swap1\n      pop\n        /* \"contracts/MagicTickets/MagicTickets.sol\":3471:3477  uint i */\n      0x00\n        /* \"contracts/MagicTickets/MagicTickets.sol\":3466:3547  for( uint i = 0; i < qtd; i++){... */\n    tag_145:\n        /* \"contracts/MagicTickets/MagicTickets.sol\":3487:3490  qtd */\n      dup7\n        /* \"contracts/MagicTickets/MagicTickets.sol\":3483:3484  i */\n      dup2\n        /* \"contracts/MagicTickets/MagicTickets.sol\":3483:3490  i < qtd */\n      lt\n        /* \"contracts/MagicTickets/MagicTickets.sol\":3466:3547  for( uint i = 0; i < qtd; i++){... */\n      iszero\n      tag_146\n      jumpi\n        /* \"contracts/MagicTickets/MagicTickets.sol\":3511:3518  entries */\n      0x03\n        /* \"contracts/MagicTickets/MagicTickets.sol\":3511:3523  entries[_id] */\n      0x00\n        /* \"contracts/MagicTickets/MagicTickets.sol\":3519:3522  _id */\n      dup10\n        /* \"contracts/MagicTickets/MagicTickets.sol\":3511:3523  entries[_id] */\n      dup2\n      mstore\n      0x20\n      add\n      swap1\n      dup2\n      mstore\n      0x20\n      add\n      0x00\n      keccak256\n        /* \"contracts/MagicTickets/MagicTickets.sol\":3529:3534  entry */\n      dup3\n        /* \"contracts/MagicTickets/MagicTickets.sol\":3511:3535  entries[_id].push(entry) */\n      swap1\n      dup1\n      0x01\n      dup2\n      sload\n      add\n      dup1\n      dup3\n      sstore\n      dup1\n      swap2\n      pop\n      pop\n      0x01\n      swap1\n      sub\n      swap1\n      0x00\n      mstore\n      keccak256(0x00, 0x20)\n      add\n      0x00\n      swap1\n      swap2\n      swap1\n      swap2\n      swap1\n      swap2\n      pop\n      0x00\n      dup3\n      add\n      mload\n      dup2\n      0x00\n      add\n      exp(0x0100, 0x00)\n      dup2\n      sload\n      dup2\n      0xffffffffffffffffffffffffffffffffffffffff\n      mul\n      not\n      and\n      swap1\n      dup4\n      0xffffffffffffffffffffffffffffffffffffffff\n      and\n      mul\n      or\n      swap1\n      sstore\n      pop\n      pop\n      pop\n        /* \"contracts/MagicTickets/MagicTickets.sol\":3492:3495  i++ */\n      dup1\n      dup1\n      tag_149\n      swap1\n      tag_150\n      jump\t// in\n    tag_149:\n      swap2\n      pop\n      pop\n        /* \"contracts/MagicTickets/MagicTickets.sol\":3466:3547  for( uint i = 0; i < qtd; i++){... */\n      jump(tag_145)\n    tag_146:\n      pop\n        /* \"contracts/MagicTickets/MagicTickets.sol\":3589:3594  value */\n      dup3\n        /* \"contracts/MagicTickets/MagicTickets.sol\":3559:3566  raffles */\n      0x02\n        /* \"contracts/MagicTickets/MagicTickets.sol\":3567:3570  _id */\n      dup9\n        /* \"contracts/MagicTickets/MagicTickets.sol\":3559:3571  raffles[_id] */\n      dup2\n      sload\n      dup2\n      lt\n      tag_151\n      jumpi\n      tag_152\n      tag_55\n      jump\t// in\n    tag_152:\n    tag_151:\n      swap1\n      0x00\n      mstore\n      keccak256(0x00, 0x20)\n      swap1\n      0x0c\n      mul\n      add\n        /* \"contracts/MagicTickets/MagicTickets.sol\":3559:3585  raffles[_id]._amountRaised */\n      0x05\n      add\n      0x00\n        /* \"contracts/MagicTickets/MagicTickets.sol\":3559:3594  raffles[_id]._amountRaised += value */\n      dup3\n      dup3\n      sload\n      tag_154\n      swap2\n      swap1\n      tag_155\n      jump\t// in\n    tag_154:\n      swap3\n      pop\n      pop\n      dup2\n      swap1\n      sstore\n      pop\n        /* \"contracts/MagicTickets/MagicTickets.sol\":3636:3639  qtd */\n      dup6\n        /* \"contracts/MagicTickets/MagicTickets.sol\":3605:3612  raffles */\n      0x02\n        /* \"contracts/MagicTickets/MagicTickets.sol\":3613:3616  _id */\n      dup9\n        /* \"contracts/MagicTickets/MagicTickets.sol\":3605:3617  raffles[_id] */\n      dup2\n      sload\n      dup2\n      lt\n      tag_156\n      jumpi\n      tag_157\n      tag_55\n      jump\t// in\n    tag_157:\n    tag_156:\n      swap1\n      0x00\n      mstore\n      keccak256(0x00, 0x20)\n      swap1\n      0x0c\n      mul\n      add\n        /* \"contracts/MagicTickets/MagicTickets.sol\":3605:3632  raffles[_id]._qtdDisponivel */\n      0x07\n      add\n      0x00\n        /* \"contracts/MagicTickets/MagicTickets.sol\":3605:3639  raffles[_id]._qtdDisponivel -= qtd */\n      dup3\n      dup3\n      sload\n      tag_159\n      swap2\n      swap1\n      tag_125\n      jump\t// in\n    tag_159:\n      swap3\n      pop\n      pop\n      dup2\n      swap1\n      sstore\n      pop\n        /* \"contracts/MagicTickets/MagicTickets.sol\":3681:3686  buyer */\n      dup5\n        /* \"contracts/MagicTickets/MagicTickets.sol\":3657:3687  boughtTickets(_id, qtd, buyer) */\n      0xffffffffffffffffffffffffffffffffffffffff\n      and\n        /* \"contracts/MagicTickets/MagicTickets.sol\":3676:3679  qtd */\n      dup7\n        /* \"contracts/MagicTickets/MagicTickets.sol\":3671:3674  _id */\n      dup9\n        /* \"contracts/MagicTickets/MagicTickets.sol\":3657:3687  boughtTickets(_id, qtd, buyer) */\n      0x1dea0bd0e9dbea861bff2025a18b89bdc767204ebc6a7ebe66ec8331442387df\n      mload(0x40)\n      mload(0x40)\n      dup1\n      swap2\n      sub\n      swap1\n      log4\n        /* \"contracts/MagicTickets/MagicTickets.sol\":2994:3695  {... */\n      pop\n      pop\n      pop\n        /* \"contracts/MagicTickets/MagicTickets.sol\":2916:3695  function buyEntry(uint _id, uint qtd, address buyer, address _tokenPay) public{... */\n      pop\n      pop\n      pop\n      pop\n      jump\t// out\n        /* \"contracts/MagicTickets/MagicTickets.sol\":333:353  address public owner */\n    tag_42:\n      0x00\n      dup1\n      sload\n      swap1\n      0x0100\n      exp\n      swap1\n      div\n      0xffffffffffffffffffffffffffffffffffffffff\n      and\n      dup2\n      jump\t// out\n        /* \"contracts/MagicTickets/MagicTickets.sol\":1655:2786  function createRaffle(uint amount, ... */\n    tag_47:\n        /* \"contracts/MagicTickets/MagicTickets.sol\":1841:1845  uint */\n      0x00\n        /* \"contracts/MagicTickets/MagicTickets.sol\":1874:1875  0 */\n      dup1\n        /* \"contracts/MagicTickets/MagicTickets.sol\":1865:1871  amount */\n      dup9\n        /* \"contracts/MagicTickets/MagicTickets.sol\":1865:1875  amount > 0 */\n      gt\n        /* \"contracts/MagicTickets/MagicTickets.sol\":1857:1907  require(amount > 0, \"O valor pago nao pode ser 0\") */\n      tag_161\n      jumpi\n      mload(0x40)\n      0x08c379a000000000000000000000000000000000000000000000000000000000\n      dup2\n      mstore\n      0x04\n      add\n      tag_162\n      swap1\n      tag_163\n      jump\t// in\n    tag_162:\n      mload(0x40)\n      dup1\n      swap2\n      sub\n      swap1\n      revert\n    tag_161:\n        /* \"contracts/MagicTickets/MagicTickets.sol\":1939:1940  0 */\n      0x00\n        /* \"contracts/MagicTickets/MagicTickets.sol\":1926:1936  maxEntries */\n      dup8\n        /* \"contracts/MagicTickets/MagicTickets.sol\":1926:1940  maxEntries > 0 */\n      gt\n        /* \"contracts/MagicTickets/MagicTickets.sol\":1918:1983  require(maxEntries > 0, \"A quantidade de tickets nao pode ser 0\") */\n      tag_164\n      jumpi\n      mload(0x40)\n      0x08c379a000000000000000000000000000000000000000000000000000000000\n      dup2\n      mstore\n      0x04\n      add\n      tag_165\n      swap1\n      tag_166\n      jump\t// in\n    tag_165:\n      mload(0x40)\n      dup1\n      swap2\n      sub\n      swap1\n      revert\n    tag_164:\n        /* \"contracts/MagicTickets/MagicTickets.sol\":2015:2016  0 */\n      0x00\n        /* \"contracts/MagicTickets/MagicTickets.sol\":2002:2012  minTickets */\n      dup7\n        /* \"contracts/MagicTickets/MagicTickets.sol\":2002:2016  minTickets > 0 */\n      gt\n        /* \"contracts/MagicTickets/MagicTickets.sol\":1994:2066  require(minTickets > 0, \"A quantidade minima de tickets nao pode ser 0\") */\n      tag_167\n      jumpi\n      mload(0x40)\n      0x08c379a000000000000000000000000000000000000000000000000000000000\n      dup2\n      mstore\n      0x04\n      add\n      tag_168\n      swap1\n      tag_169\n      jump\t// in\n    tag_168:\n      mload(0x40)\n      dup1\n      swap2\n      sub\n      swap1\n      revert\n    tag_167:\n        /* \"contracts/MagicTickets/MagicTickets.sol\":2079:2137  transferTokens(tokenRaffle, seller, address(this), amount) */\n      tag_170\n        /* \"contracts/MagicTickets/MagicTickets.sol\":2094:2105  tokenRaffle */\n      dup6\n        /* \"contracts/MagicTickets/MagicTickets.sol\":2107:2113  seller */\n      dup6\n        /* \"contracts/MagicTickets/MagicTickets.sol\":2123:2127  this */\n      address\n        /* \"contracts/MagicTickets/MagicTickets.sol\":2130:2136  amount */\n      dup12\n        /* \"contracts/MagicTickets/MagicTickets.sol\":2079:2093  transferTokens */\n      tag_171\n        /* \"contracts/MagicTickets/MagicTickets.sol\":2079:2137  transferTokens(tokenRaffle, seller, address(this), amount) */\n      jump\t// in\n    tag_170:\n        /* \"contracts/MagicTickets/MagicTickets.sol\":2150:2176  RaffleStruct memory raffle */\n      0x00\n        /* \"contracts/MagicTickets/MagicTickets.sol\":2179:2644  RaffleStruct({... */\n      mload(0x40)\n      dup1\n      0x0180\n      add\n      0x40\n      mstore\n      dup1\n        /* \"contracts/MagicTickets/MagicTickets.sol\":2461:2475  STATUS.STARTED */\n      0x00\n        /* \"contracts/MagicTickets/MagicTickets.sol\":2179:2644  RaffleStruct({... */\n      0x02\n      dup2\n      gt\n      iszero\n      tag_172\n      jumpi\n      tag_173\n      tag_68\n      jump\t// in\n    tag_173:\n    tag_172:\n      dup2\n      mstore\n      0x20\n      add\n        /* \"contracts/MagicTickets/MagicTickets.sol\":2220:2230  maxEntries */\n      dup10\n        /* \"contracts/MagicTickets/MagicTickets.sol\":2179:2644  RaffleStruct({... */\n      dup2\n      mstore\n      0x20\n      add\n        /* \"contracts/MagicTickets/MagicTickets.sol\":2258:2268  minTickets */\n      dup9\n        /* \"contracts/MagicTickets/MagicTickets.sol\":2179:2644  RaffleStruct({... */\n      dup2\n      mstore\n      0x20\n      add\n        /* \"contracts/MagicTickets/MagicTickets.sol\":2295:2301  amount */\n      dup11\n        /* \"contracts/MagicTickets/MagicTickets.sol\":2179:2644  RaffleStruct({... */\n      dup2\n      mstore\n      0x20\n      add\n        /* \"contracts/MagicTickets/MagicTickets.sol\":2325:2331  seller */\n      dup7\n        /* \"contracts/MagicTickets/MagicTickets.sol\":2179:2644  RaffleStruct({... */\n      0xffffffffffffffffffffffffffffffffffffffff\n      and\n      dup2\n      mstore\n      0x20\n      add\n        /* \"contracts/MagicTickets/MagicTickets.sol\":2361:2362  0 */\n      0x00\n        /* \"contracts/MagicTickets/MagicTickets.sol\":2179:2644  RaffleStruct({... */\n      dup2\n      mstore\n      0x20\n      add\n        /* \"contracts/MagicTickets/MagicTickets.sol\":2394:2395  0 */\n      0x00\n        /* \"contracts/MagicTickets/MagicTickets.sol\":2179:2644  RaffleStruct({... */\n      0xffffffffffffffffffffffffffffffffffffffff\n      and\n      dup2\n      mstore\n      0x20\n      add\n        /* \"contracts/MagicTickets/MagicTickets.sol\":2427:2437  maxEntries */\n      dup10\n        /* \"contracts/MagicTickets/MagicTickets.sol\":2179:2644  RaffleStruct({... */\n      dup2\n      mstore\n      0x20\n      add\n        /* \"contracts/MagicTickets/MagicTickets.sol\":2507:2508  0 */\n      0x00\n        /* \"contracts/MagicTickets/MagicTickets.sol\":2179:2644  RaffleStruct({... */\n      dup2\n      mstore\n      0x20\n      add\n        /* \"contracts/MagicTickets/MagicTickets.sol\":2537:2548  tokenRaffle */\n      dup8\n        /* \"contracts/MagicTickets/MagicTickets.sol\":2179:2644  RaffleStruct({... */\n      0xffffffffffffffffffffffffffffffffffffffff\n      and\n      dup2\n      mstore\n      0x20\n      add\n        /* \"contracts/MagicTickets/MagicTickets.sol\":2577:2588  ticketValue */\n      dup6\n        /* \"contracts/MagicTickets/MagicTickets.sol\":2179:2644  RaffleStruct({... */\n      dup2\n      mstore\n      0x20\n      add\n        /* \"contracts/MagicTickets/MagicTickets.sol\":2619:2632  tokenReceived */\n      dup5\n        /* \"contracts/MagicTickets/MagicTickets.sol\":2179:2644  RaffleStruct({... */\n      0xffffffffffffffffffffffffffffffffffffffff\n      and\n      dup2\n      mstore\n      pop\n        /* \"contracts/MagicTickets/MagicTickets.sol\":2150:2644  RaffleStruct memory raffle = RaffleStruct({... */\n      swap1\n      pop\n        /* \"contracts/MagicTickets/MagicTickets.sol\":2657:2664  raffles */\n      0x02\n        /* \"contracts/MagicTickets/MagicTickets.sol\":2670:2676  raffle */\n      dup2\n        /* \"contracts/MagicTickets/MagicTickets.sol\":2657:2677  raffles.push(raffle) */\n      swap1\n      dup1\n      0x01\n      dup2\n      sload\n      add\n      dup1\n      dup3\n      sstore\n      dup1\n      swap2\n      pop\n      pop\n      0x01\n      swap1\n      sub\n      swap1\n      0x00\n      mstore\n      keccak256(0x00, 0x20)\n      swap1\n      0x0c\n      mul\n      add\n      0x00\n      swap1\n      swap2\n      swap1\n      swap2\n      swap1\n      swap2\n      pop\n      0x00\n      dup3\n      add\n      mload\n      dup2\n      0x00\n      add\n      exp(0x0100, 0x00)\n      dup2\n      sload\n      dup2\n      0xff\n      mul\n      not\n      and\n      swap1\n      dup4\n      0x02\n      dup2\n      gt\n      iszero\n      tag_175\n      jumpi\n      tag_176\n      tag_68\n      jump\t// in\n    tag_176:\n    tag_175:\n      mul\n      or\n      swap1\n      sstore\n      pop\n      0x20\n      dup3\n      add\n      mload\n      dup2\n      0x01\n      add\n      sstore\n      0x40\n      dup3\n      add\n      mload\n      dup2\n      0x02\n      add\n      sstore\n      0x60\n      dup3\n      add\n      mload\n      dup2\n      0x03\n      add\n      sstore\n      0x80\n      dup3\n      add\n      mload\n      dup2\n      0x04\n      add\n      exp(0x0100, 0x00)\n      dup2\n      sload\n      dup2\n      0xffffffffffffffffffffffffffffffffffffffff\n      mul\n      not\n      and\n      swap1\n      dup4\n      0xffffffffffffffffffffffffffffffffffffffff\n      and\n      mul\n      or\n      swap1\n      sstore\n      pop\n      0xa0\n      dup3\n      add\n      mload\n      dup2\n      0x05\n      add\n      sstore\n      0xc0\n      dup3\n      add\n      mload\n      dup2\n      0x06\n      add\n      exp(0x0100, 0x00)\n      dup2\n      sload\n      dup2\n      0xffffffffffffffffffffffffffffffffffffffff\n      mul\n      not\n      and\n      swap1\n      dup4\n      0xffffffffffffffffffffffffffffffffffffffff\n      and\n      mul\n      or\n      swap1\n      sstore\n      pop\n      0xe0\n      dup3\n      add\n      mload\n      dup2\n      0x07\n      add\n      sstore\n      0x0100\n      dup3\n      add\n      mload\n      dup2\n      0x08\n      add\n      sstore\n      0x0120\n      dup3\n      add\n      mload\n      dup2\n      0x09\n      add\n      exp(0x0100, 0x00)\n      dup2\n      sload\n      dup2\n      0xffffffffffffffffffffffffffffffffffffffff\n      mul\n      not\n      and\n      swap1\n      dup4\n      0xffffffffffffffffffffffffffffffffffffffff\n      and\n      mul\n      or\n      swap1\n      sstore\n      pop\n      0x0140\n      dup3\n      add\n      mload\n      dup2\n      0x0a\n      add\n      sstore\n      0x0160\n      dup3\n      add\n      mload\n      dup2\n      0x0b\n      add\n      exp(0x0100, 0x00)\n      dup2\n      sload\n      dup2\n      0xffffffffffffffffffffffffffffffffffffffff\n      mul\n      not\n      and\n      swap1\n      dup4\n      0xffffffffffffffffffffffffffffffffffffffff\n      and\n      mul\n      or\n      swap1\n      sstore\n      pop\n      pop\n      pop\n        /* \"contracts/MagicTickets/MagicTickets.sol\":2729:2739  msg.sender */\n      caller\n        /* \"contracts/MagicTickets/MagicTickets.sol\":2695:2740  createdRaffle(raffles.length - 1, msg.sender) */\n      0xffffffffffffffffffffffffffffffffffffffff\n      and\n        /* \"contracts/MagicTickets/MagicTickets.sol\":2726:2727  1 */\n      0x01\n        /* \"contracts/MagicTickets/MagicTickets.sol\":2709:2716  raffles */\n      0x02\n        /* \"contracts/MagicTickets/MagicTickets.sol\":2709:2723  raffles.length */\n      dup1\n      sload\n      swap1\n      pop\n        /* \"contracts/MagicTickets/MagicTickets.sol\":2709:2727  raffles.length - 1 */\n      tag_177\n      swap2\n      swap1\n      tag_125\n      jump\t// in\n    tag_177:\n        /* \"contracts/MagicTickets/MagicTickets.sol\":2695:2740  createdRaffle(raffles.length - 1, msg.sender) */\n      0xcb178589a0d989fbb3e2b855e0fe244bf88db81a5afa0de5ec6a7fd2c16fcb35\n      mload(0x40)\n      mload(0x40)\n      dup1\n      swap2\n      sub\n      swap1\n      log3\n        /* \"contracts/MagicTickets/MagicTickets.sol\":2777:2778  1 */\n      0x01\n        /* \"contracts/MagicTickets/MagicTickets.sol\":2760:2767  raffles */\n      0x02\n        /* \"contracts/MagicTickets/MagicTickets.sol\":2760:2774  raffles.length */\n      dup1\n      sload\n      swap1\n      pop\n        /* \"contracts/MagicTickets/MagicTickets.sol\":2760:2778  raffles.length - 1 */\n      tag_178\n      swap2\n      swap1\n      tag_125\n      jump\t// in\n    tag_178:\n        /* \"contracts/MagicTickets/MagicTickets.sol\":2753:2778  return raffles.length - 1 */\n      swap2\n      pop\n      pop\n        /* \"contracts/MagicTickets/MagicTickets.sol\":1655:2786  function createRaffle(uint amount, ... */\n      swap8\n      swap7\n      pop\n      pop\n      pop\n      pop\n      pop\n      pop\n      pop\n      jump\t// out\n        /* \"contracts/MagicTickets/MagicTickets.sol\":5286:5625  function devolution(uint _id) public{... */\n    tag_51:\n        /* \"contracts/MagicTickets/MagicTickets.sol\":5355:5360  owner */\n      0x00\n      dup1\n      sload\n      swap1\n      0x0100\n      exp\n      swap1\n      div\n      0xffffffffffffffffffffffffffffffffffffffff\n      and\n        /* \"contracts/MagicTickets/MagicTickets.sol\":5341:5360  msg.sender == owner */\n      0xffffffffffffffffffffffffffffffffffffffff\n      and\n        /* \"contracts/MagicTickets/MagicTickets.sol\":5341:5351  msg.sender */\n      caller\n        /* \"contracts/MagicTickets/MagicTickets.sol\":5341:5360  msg.sender == owner */\n      0xffffffffffffffffffffffffffffffffffffffff\n      and\n      eq\n        /* \"contracts/MagicTickets/MagicTickets.sol\":5333:5405  require(msg.sender == owner, \"Apenas o owner pode realizar a devolucao\") */\n      tag_180\n      jumpi\n      mload(0x40)\n      0x08c379a000000000000000000000000000000000000000000000000000000000\n      dup2\n      mstore\n      0x04\n      add\n      tag_181\n      swap1\n      tag_182\n      jump\t// in\n    tag_181:\n      mload(0x40)\n      dup1\n      swap2\n      sub\n      swap1\n      revert\n    tag_180:\n        /* \"contracts/MagicTickets/MagicTickets.sol\":5416:5443  RaffleStruct storage raffle */\n      0x00\n        /* \"contracts/MagicTickets/MagicTickets.sol\":5446:5453  raffles */\n      0x02\n        /* \"contracts/MagicTickets/MagicTickets.sol\":5454:5457  _id */\n      dup3\n        /* \"contracts/MagicTickets/MagicTickets.sol\":5446:5458  raffles[_id] */\n      dup2\n      sload\n      dup2\n      lt\n      tag_183\n      jumpi\n      tag_184\n      tag_55\n      jump\t// in\n    tag_184:\n    tag_183:\n      swap1\n      0x00\n      mstore\n      keccak256(0x00, 0x20)\n      swap1\n      0x0c\n      mul\n      add\n        /* \"contracts/MagicTickets/MagicTickets.sol\":5416:5458  RaffleStruct storage raffle = raffles[_id] */\n      swap1\n      pop\n        /* \"contracts/MagicTickets/MagicTickets.sol\":5471:5483  IERC20 token */\n      0x00\n        /* \"contracts/MagicTickets/MagicTickets.sol\":5493:5499  raffle */\n      dup2\n        /* \"contracts/MagicTickets/MagicTickets.sol\":5493:5512  raffle._tokenRaffle */\n      0x09\n      add\n      0x00\n      swap1\n      sload\n      swap1\n      0x0100\n      exp\n      swap1\n      div\n      0xffffffffffffffffffffffffffffffffffffffff\n      and\n        /* \"contracts/MagicTickets/MagicTickets.sol\":5471:5513  IERC20 token = IERC20(raffle._tokenRaffle) */\n      swap1\n      pop\n        /* \"contracts/MagicTickets/MagicTickets.sol\":5526:5531  token */\n      dup1\n        /* \"contracts/MagicTickets/MagicTickets.sol\":5526:5540  token.transfer */\n      0xffffffffffffffffffffffffffffffffffffffff\n      and\n      0xa9059cbb\n        /* \"contracts/MagicTickets/MagicTickets.sol\":5541:5547  raffle */\n      dup4\n        /* \"contracts/MagicTickets/MagicTickets.sol\":5541:5555  raffle._seller */\n      0x04\n      add\n      0x00\n      swap1\n      sload\n      swap1\n      0x0100\n      exp\n      swap1\n      div\n      0xffffffffffffffffffffffffffffffffffffffff\n      and\n        /* \"contracts/MagicTickets/MagicTickets.sol\":5557:5563  raffle */\n      dup5\n        /* \"contracts/MagicTickets/MagicTickets.sol\":5557:5574  raffle._amountEth */\n      0x03\n      add\n      sload\n        /* \"contracts/MagicTickets/MagicTickets.sol\":5526:5575  token.transfer(raffle._seller, raffle._amountEth) */\n      mload(0x40)\n      dup4\n      0xffffffff\n      and\n      0xe0\n      shl\n      dup2\n      mstore\n      0x04\n      add\n      tag_186\n      swap3\n      swap2\n      swap1\n      tag_114\n      jump\t// in\n    tag_186:\n      0x00\n      mload(0x40)\n      dup1\n      dup4\n      sub\n      dup2\n      0x00\n      dup8\n      dup1\n      extcodesize\n      iszero\n      dup1\n      iszero\n      tag_187\n      jumpi\n      0x00\n      dup1\n      revert\n    tag_187:\n      pop\n      gas\n      call\n      iszero\n      dup1\n      iszero\n      tag_189\n      jumpi\n      returndatasize\n      0x00\n      dup1\n      returndatacopy\n      revert(0x00, returndatasize)\n    tag_189:\n      pop\n      pop\n      pop\n      pop\n        /* \"contracts/MagicTickets/MagicTickets.sol\":5605:5617  STATUS.ENDED */\n      0x01\n        /* \"contracts/MagicTickets/MagicTickets.sol\":5588:5594  raffle */\n      dup3\n        /* \"contracts/MagicTickets/MagicTickets.sol\":5588:5602  raffle._status */\n      0x00\n      add\n      0x00\n        /* \"contracts/MagicTickets/MagicTickets.sol\":5588:5617  raffle._status = STATUS.ENDED */\n      0x0100\n      exp\n      dup2\n      sload\n      dup2\n      0xff\n      mul\n      not\n      and\n      swap1\n      dup4\n      0x02\n      dup2\n      gt\n      iszero\n      tag_190\n      jumpi\n      tag_191\n      tag_68\n      jump\t// in\n    tag_191:\n    tag_190:\n      mul\n      or\n      swap1\n      sstore\n      pop\n        /* \"contracts/MagicTickets/MagicTickets.sol\":5322:5625  {... */\n      pop\n      pop\n        /* \"contracts/MagicTickets/MagicTickets.sol\":5286:5625  function devolution(uint _id) public{... */\n      pop\n      jump\t// out\n        /* \"contracts/MagicTickets/MagicTickets.sol\":3703:3907  function gerarNumero(string calldata semente, uint range) internal view returns (uint256) {... */\n    tag_83:\n        /* \"contracts/MagicTickets/MagicTickets.sol\":3784:3791  uint256 */\n      0x00\n        /* \"contracts/MagicTickets/MagicTickets.sol\":3897:3898  1 */\n      0x01\n        /* \"contracts/MagicTickets/MagicTickets.sol\":3889:3894  range */\n      dup3\n        /* \"contracts/MagicTickets/MagicTickets.sol\":3889:3898  range + 1 */\n      tag_193\n      swap2\n      swap1\n      tag_155\n      jump\t// in\n    tag_193:\n        /* \"contracts/MagicTickets/MagicTickets.sol\":3846:3861  block.timestamp */\n      timestamp\n        /* \"contracts/MagicTickets/MagicTickets.sol\":3863:3873  msg.sender */\n      caller\n        /* \"contracts/MagicTickets/MagicTickets.sol\":3875:3882  semente */\n      dup7\n      dup7\n        /* \"contracts/MagicTickets/MagicTickets.sol\":3829:3883  abi.encodePacked(block.timestamp, msg.sender, semente) */\n      add(0x20, mload(0x40))\n      tag_194\n      swap5\n      swap4\n      swap3\n      swap2\n      swap1\n      tag_195\n      jump\t// in\n    tag_194:\n      mload(0x40)\n      0x20\n      dup2\n      dup4\n      sub\n      sub\n      dup2\n      mstore\n      swap1\n      0x40\n      mstore\n        /* \"contracts/MagicTickets/MagicTickets.sol\":3819:3884  keccak256(abi.encodePacked(block.timestamp, msg.sender, semente)) */\n      dup1\n      mload\n      swap1\n      0x20\n      add\n      keccak256\n        /* \"contracts/MagicTickets/MagicTickets.sol\":3811:3885  uint256(keccak256(abi.encodePacked(block.timestamp, msg.sender, semente))) */\n      0x00\n      shr\n        /* \"contracts/MagicTickets/MagicTickets.sol\":3811:3899  uint256(keccak256(abi.encodePacked(block.timestamp, msg.sender, semente))) % (range + 1) */\n      tag_196\n      swap2\n      swap1\n      tag_197\n      jump\t// in\n    tag_196:\n        /* \"contracts/MagicTickets/MagicTickets.sol\":3804:3899  return uint256(keccak256(abi.encodePacked(block.timestamp, msg.sender, semente))) % (range + 1) */\n      swap1\n      pop\n        /* \"contracts/MagicTickets/MagicTickets.sol\":3703:3907  function gerarNumero(string calldata semente, uint range) internal view returns (uint256) {... */\n      swap4\n      swap3\n      pop\n      pop\n      pop\n      jump\t// out\n        /* \"contracts/MagicTickets/MagicTickets.sol\":5633:6264  function sendToken(uint _id) private {... */\n    tag_90:\n        /* \"contracts/MagicTickets/MagicTickets.sol\":5683:5709  RaffleStruct memory raffle */\n      0x00\n        /* \"contracts/MagicTickets/MagicTickets.sol\":5712:5719  raffles */\n      0x02\n        /* \"contracts/MagicTickets/MagicTickets.sol\":5720:5723  _id */\n      dup3\n        /* \"contracts/MagicTickets/MagicTickets.sol\":5712:5724  raffles[_id] */\n      dup2\n      sload\n      dup2\n      lt\n      tag_199\n      jumpi\n      tag_200\n      tag_55\n      jump\t// in\n    tag_200:\n    tag_199:\n      swap1\n      0x00\n      mstore\n      keccak256(0x00, 0x20)\n      swap1\n      0x0c\n      mul\n      add\n        /* \"contracts/MagicTickets/MagicTickets.sol\":5683:5724  RaffleStruct memory raffle = raffles[_id] */\n      mload(0x40)\n      dup1\n      0x0180\n      add\n      0x40\n      mstore\n      swap1\n      dup2\n      0x00\n      dup3\n      add\n      0x00\n      swap1\n      sload\n      swap1\n      0x0100\n      exp\n      swap1\n      div\n      0xff\n      and\n      0x02\n      dup2\n      gt\n      iszero\n      tag_202\n      jumpi\n      tag_203\n      tag_68\n      jump\t// in\n    tag_203:\n    tag_202:\n      0x02\n      dup2\n      gt\n      iszero\n      tag_204\n      jumpi\n      tag_205\n      tag_68\n      jump\t// in\n    tag_205:\n    tag_204:\n      dup2\n      mstore\n      0x20\n      add\n      0x01\n      dup3\n      add\n      sload\n      dup2\n      mstore\n      0x20\n      add\n      0x02\n      dup3\n      add\n      sload\n      dup2\n      mstore\n      0x20\n      add\n      0x03\n      dup3\n      add\n      sload\n      dup2\n      mstore\n      0x20\n      add\n      0x04\n      dup3\n      add\n      0x00\n      swap1\n      sload\n      swap1\n      0x0100\n      exp\n      swap1\n      div\n      0xffffffffffffffffffffffffffffffffffffffff\n      and\n      0xffffffffffffffffffffffffffffffffffffffff\n      and\n      0xffffffffffffffffffffffffffffffffffffffff\n      and\n      dup2\n      mstore\n      0x20\n      add\n      0x05\n      dup3\n      add\n      sload\n      dup2\n      mstore\n      0x20\n      add\n      0x06\n      dup3\n      add\n      0x00\n      swap1\n      sload\n      swap1\n      0x0100\n      exp\n      swap1\n      div\n      0xffffffffffffffffffffffffffffffffffffffff\n      and\n      0xffffffffffffffffffffffffffffffffffffffff\n      and\n      0xffffffffffffffffffffffffffffffffffffffff\n      and\n      dup2\n      mstore\n      0x20\n      add\n      0x07\n      dup3\n      add\n      sload\n      dup2\n      mstore\n      0x20\n      add\n      0x08\n      dup3\n      add\n      sload\n      dup2\n      mstore\n      0x20\n      add\n      0x09\n      dup3\n      add\n      0x00\n      swap1\n      sload\n      swap1\n      0x0100\n      exp\n      swap1\n      div\n      0xffffffffffffffffffffffffffffffffffffffff\n      and\n      0xffffffffffffffffffffffffffffffffffffffff\n      and\n      0xffffffffffffffffffffffffffffffffffffffff\n      and\n      dup2\n      mstore\n      0x20\n      add\n      0x0a\n      dup3\n      add\n      sload\n      dup2\n      mstore\n      0x20\n      add\n      0x0b\n      dup3\n      add\n      0x00\n      swap1\n      sload\n      swap1\n      0x0100\n      exp\n      swap1\n      div\n      0xffffffffffffffffffffffffffffffffffffffff\n      and\n      0xffffffffffffffffffffffffffffffffffffffff\n      and\n      0xffffffffffffffffffffffffffffffffffffffff\n      and\n      dup2\n      mstore\n      pop\n      pop\n      swap1\n      pop\n        /* \"contracts/MagicTickets/MagicTickets.sol\":5737:5755  IERC20 tokenRaffle */\n      0x00\n        /* \"contracts/MagicTickets/MagicTickets.sol\":5765:5771  raffle */\n      dup2\n        /* \"contracts/MagicTickets/MagicTickets.sol\":5765:5784  raffle._tokenRaffle */\n      0x0120\n      add\n      mload\n        /* \"contracts/MagicTickets/MagicTickets.sol\":5737:5785  IERC20 tokenRaffle = IERC20(raffle._tokenRaffle) */\n      swap1\n      pop\n        /* \"contracts/MagicTickets/MagicTickets.sol\":5842:5845  100 */\n      0x64\n        /* \"contracts/MagicTickets/MagicTickets.sol\":5821:5827  raffle */\n      dup3\n        /* \"contracts/MagicTickets/MagicTickets.sol\":5821:5841  raffle._amountRaised */\n      0xa0\n      add\n      mload\n        /* \"contracts/MagicTickets/MagicTickets.sol\":5821:5845  raffle._amountRaised/100 */\n      tag_206\n      swap2\n      swap1\n      tag_207\n      jump\t// in\n    tag_206:\n        /* \"contracts/MagicTickets/MagicTickets.sol\":5796:5802  raffle */\n      dup3\n        /* \"contracts/MagicTickets/MagicTickets.sol\":5796:5818  raffle._sitePercentage */\n      0x0100\n      add\n        /* \"contracts/MagicTickets/MagicTickets.sol\":5796:5845  raffle._sitePercentage = raffle._amountRaised/100 */\n      dup2\n      dup2\n      mstore\n      pop\n      pop\n        /* \"contracts/MagicTickets/MagicTickets.sol\":5856:5872  uint valueSeller */\n      0x00\n        /* \"contracts/MagicTickets/MagicTickets.sol\":5898:5904  raffle */\n      dup3\n        /* \"contracts/MagicTickets/MagicTickets.sol\":5898:5920  raffle._sitePercentage */\n      0x0100\n      add\n      mload\n        /* \"contracts/MagicTickets/MagicTickets.sol\":5875:5881  raffle */\n      dup4\n        /* \"contracts/MagicTickets/MagicTickets.sol\":5875:5895  raffle._amountRaised */\n      0xa0\n      add\n      mload\n        /* \"contracts/MagicTickets/MagicTickets.sol\":5875:5920  raffle._amountRaised - raffle._sitePercentage */\n      tag_208\n      swap2\n      swap1\n      tag_125\n      jump\t// in\n    tag_208:\n        /* \"contracts/MagicTickets/MagicTickets.sol\":5856:5920  uint valueSeller = raffle._amountRaised - raffle._sitePercentage */\n      swap1\n      pop\n        /* \"contracts/MagicTickets/MagicTickets.sol\":5935:5946  tokenRaffle */\n      dup2\n        /* \"contracts/MagicTickets/MagicTickets.sol\":5935:5955  tokenRaffle.transfer */\n      0xffffffffffffffffffffffffffffffffffffffff\n      and\n      0xa9059cbb\n        /* \"contracts/MagicTickets/MagicTickets.sol\":5956:5962  raffle */\n      dup5\n        /* \"contracts/MagicTickets/MagicTickets.sol\":5956:5970  raffle._winner */\n      0xc0\n      add\n      mload\n        /* \"contracts/MagicTickets/MagicTickets.sol\":5972:5978  raffle */\n      dup6\n        /* \"contracts/MagicTickets/MagicTickets.sol\":5972:5989  raffle._amountEth */\n      0x60\n      add\n      mload\n        /* \"contracts/MagicTickets/MagicTickets.sol\":5935:5990  tokenRaffle.transfer(raffle._winner, raffle._amountEth) */\n      mload(0x40)\n      dup4\n      0xffffffff\n      and\n      0xe0\n      shl\n      dup2\n      mstore\n      0x04\n      add\n      tag_209\n      swap3\n      swap2\n      swap1\n      tag_114\n      jump\t// in\n    tag_209:\n      0x00\n      mload(0x40)\n      dup1\n      dup4\n      sub\n      dup2\n      0x00\n      dup8\n      dup1\n      extcodesize\n      iszero\n      dup1\n      iszero\n      tag_210\n      jumpi\n      0x00\n      dup1\n      revert\n    tag_210:\n      pop\n      gas\n      call\n      iszero\n      dup1\n      iszero\n      tag_212\n      jumpi\n      returndatasize\n      0x00\n      dup1\n      returndatacopy\n      revert(0x00, returndatasize)\n    tag_212:\n      pop\n      pop\n      pop\n      pop\n        /* \"contracts/MagicTickets/MagicTickets.sol\":6073:6093  IERC20 tokenReceived */\n      0x00\n        /* \"contracts/MagicTickets/MagicTickets.sol\":6103:6109  raffle */\n      dup4\n        /* \"contracts/MagicTickets/MagicTickets.sol\":6103:6124  raffle._tokenReceived */\n      0x0160\n      add\n      mload\n        /* \"contracts/MagicTickets/MagicTickets.sol\":6073:6125  IERC20 tokenReceived = IERC20(raffle._tokenReceived) */\n      swap1\n      pop\n        /* \"contracts/MagicTickets/MagicTickets.sol\":6136:6149  tokenReceived */\n      dup1\n        /* \"contracts/MagicTickets/MagicTickets.sol\":6136:6158  tokenReceived.transfer */\n      0xffffffffffffffffffffffffffffffffffffffff\n      and\n      0xa9059cbb\n        /* \"contracts/MagicTickets/MagicTickets.sol\":6159:6165  raffle */\n      dup6\n        /* \"contracts/MagicTickets/MagicTickets.sol\":6159:6173  raffle._seller */\n      0x80\n      add\n      mload\n        /* \"contracts/MagicTickets/MagicTickets.sol\":6175:6186  valueSeller */\n      dup5\n        /* \"contracts/MagicTickets/MagicTickets.sol\":6136:6187  tokenReceived.transfer(raffle._seller, valueSeller) */\n      mload(0x40)\n      dup4\n      0xffffffff\n      and\n      0xe0\n      shl\n      dup2\n      mstore\n      0x04\n      add\n      tag_213\n      swap3\n      swap2\n      swap1\n      tag_114\n      jump\t// in\n    tag_213:\n      0x00\n      mload(0x40)\n      dup1\n      dup4\n      sub\n      dup2\n      0x00\n      dup8\n      dup1\n      extcodesize\n      iszero\n      dup1\n      iszero\n      tag_214\n      jumpi\n      0x00\n      dup1\n      revert\n    tag_214:\n      pop\n      gas\n      call\n      iszero\n      dup1\n      iszero\n      tag_216\n      jumpi\n      returndatasize\n      0x00\n      dup1\n      returndatacopy\n      revert(0x00, returndatasize)\n    tag_216:\n      pop\n      pop\n      pop\n      pop\n        /* \"contracts/MagicTickets/MagicTickets.sol\":6198:6211  tokenReceived */\n      dup1\n        /* \"contracts/MagicTickets/MagicTickets.sol\":6198:6220  tokenReceived.transfer */\n      0xffffffffffffffffffffffffffffffffffffffff\n      and\n      0xa9059cbb\n        /* \"contracts/MagicTickets/MagicTickets.sol\":6221:6231  walletSite */\n      0x01\n      0x00\n      swap1\n      sload\n      swap1\n      0x0100\n      exp\n      swap1\n      div\n      0xffffffffffffffffffffffffffffffffffffffff\n      and\n        /* \"contracts/MagicTickets/MagicTickets.sol\":6233:6239  raffle */\n      dup7\n        /* \"contracts/MagicTickets/MagicTickets.sol\":6233:6255  raffle._sitePercentage */\n      0x0100\n      add\n      mload\n        /* \"contracts/MagicTickets/MagicTickets.sol\":6198:6256  tokenReceived.transfer(walletSite ,raffle._sitePercentage) */\n      mload(0x40)\n      dup4\n      0xffffffff\n      and\n      0xe0\n      shl\n      dup2\n      mstore\n      0x04\n      add\n      tag_217\n      swap3\n      swap2\n      swap1\n      tag_218\n      jump\t// in\n    tag_217:\n      0x00\n      mload(0x40)\n      dup1\n      dup4\n      sub\n      dup2\n      0x00\n      dup8\n      dup1\n      extcodesize\n      iszero\n      dup1\n      iszero\n      tag_219\n      jumpi\n      0x00\n      dup1\n      revert\n    tag_219:\n      pop\n      gas\n      call\n      iszero\n      dup1\n      iszero\n      tag_221\n      jumpi\n      returndatasize\n      0x00\n      dup1\n      returndatacopy\n      revert(0x00, returndatasize)\n    tag_221:\n      pop\n      pop\n      pop\n      pop\n        /* \"contracts/MagicTickets/MagicTickets.sol\":5670:6264  {... */\n      pop\n      pop\n      pop\n      pop\n        /* \"contracts/MagicTickets/MagicTickets.sol\":5633:6264  function sendToken(uint _id) private {... */\n      pop\n      jump\t// out\n        /* \"contracts/MagicTickets/MagicTickets.sol\":1446:1647  function transferTokens(address _token ,address _from, address _to, uint _amount) private{... */\n    tag_171:\n        /* \"contracts/MagicTickets/MagicTickets.sol\":1548:1566  IERC20 raffleToken */\n      0x00\n        /* \"contracts/MagicTickets/MagicTickets.sol\":1576:1582  _token */\n      dup5\n        /* \"contracts/MagicTickets/MagicTickets.sol\":1548:1583  IERC20 raffleToken = IERC20(_token) */\n      swap1\n      pop\n        /* \"contracts/MagicTickets/MagicTickets.sol\":1594:1605  raffleToken */\n      dup1\n        /* \"contracts/MagicTickets/MagicTickets.sol\":1594:1618  raffleToken.transferFrom */\n      0xffffffffffffffffffffffffffffffffffffffff\n      and\n      0x23b872dd\n        /* \"contracts/MagicTickets/MagicTickets.sol\":1619:1624  _from */\n      dup6\n        /* \"contracts/MagicTickets/MagicTickets.sol\":1626:1629  _to */\n      dup6\n        /* \"contracts/MagicTickets/MagicTickets.sol\":1631:1638  _amount */\n      dup6\n        /* \"contracts/MagicTickets/MagicTickets.sol\":1594:1639  raffleToken.transferFrom(_from, _to, _amount) */\n      mload(0x40)\n      dup5\n      0xffffffff\n      and\n      0xe0\n      shl\n      dup2\n      mstore\n      0x04\n      add\n      tag_223\n      swap4\n      swap3\n      swap2\n      swap1\n      tag_141\n      jump\t// in\n    tag_223:\n      0x00\n      mload(0x40)\n      dup1\n      dup4\n      sub\n      dup2\n      0x00\n      dup8\n      dup1\n      extcodesize\n      iszero\n      dup1\n      iszero\n      tag_224\n      jumpi\n      0x00\n      dup1\n      revert\n    tag_224:\n      pop\n      gas\n      call\n      iszero\n      dup1\n      iszero\n      tag_226\n      jumpi\n      returndatasize\n      0x00\n      dup1\n      returndatacopy\n      revert(0x00, returndatasize)\n    tag_226:\n      pop\n      pop\n      pop\n      pop\n        /* \"contracts/MagicTickets/MagicTickets.sol\":1535:1647  {... */\n      pop\n        /* \"contracts/MagicTickets/MagicTickets.sol\":1446:1647  function transferTokens(address _token ,address _from, address _to, uint _amount) private{... */\n      pop\n      pop\n      pop\n      pop\n      jump\t// out\n        /* \"#utility.yul\":88:205   */\n    tag_228:\n        /* \"#utility.yul\":197:198   */\n      0x00\n        /* \"#utility.yul\":194:195   */\n      dup1\n        /* \"#utility.yul\":187:199   */\n      revert\n        /* \"#utility.yul\":211:328   */\n    tag_229:\n        /* \"#utility.yul\":320:321   */\n      0x00\n        /* \"#utility.yul\":317:318   */\n      dup1\n        /* \"#utility.yul\":310:322   */\n      revert\n        /* \"#utility.yul\":334:411   */\n    tag_230:\n        /* \"#utility.yul\":371:378   */\n      0x00\n        /* \"#utility.yul\":400:405   */\n      dup2\n        /* \"#utility.yul\":389:405   */\n      swap1\n      pop\n        /* \"#utility.yul\":334:411   */\n      swap2\n      swap1\n      pop\n      jump\t// out\n        /* \"#utility.yul\":417:539   */\n    tag_231:\n        /* \"#utility.yul\":490:514   */\n      tag_294\n        /* \"#utility.yul\":508:513   */\n      dup2\n        /* \"#utility.yul\":490:514   */\n      tag_230\n      jump\t// in\n    tag_294:\n        /* \"#utility.yul\":483:488   */\n      dup2\n        /* \"#utility.yul\":480:515   */\n      eq\n        /* \"#utility.yul\":470:533   */\n      tag_295\n      jumpi\n        /* \"#utility.yul\":529:530   */\n      0x00\n        /* \"#utility.yul\":526:527   */\n      dup1\n        /* \"#utility.yul\":519:531   */\n      revert\n        /* \"#utility.yul\":470:533   */\n    tag_295:\n        /* \"#utility.yul\":417:539   */\n      pop\n      jump\t// out\n        /* \"#utility.yul\":545:684   */\n    tag_232:\n        /* \"#utility.yul\":591:596   */\n      0x00\n        /* \"#utility.yul\":629:635   */\n      dup2\n        /* \"#utility.yul\":616:636   */\n      calldataload\n        /* \"#utility.yul\":607:636   */\n      swap1\n      pop\n        /* \"#utility.yul\":645:678   */\n      tag_297\n        /* \"#utility.yul\":672:677   */\n      dup2\n        /* \"#utility.yul\":645:678   */\n      tag_231\n      jump\t// in\n    tag_297:\n        /* \"#utility.yul\":545:684   */\n      swap3\n      swap2\n      pop\n      pop\n      jump\t// out\n        /* \"#utility.yul\":690:1019   */\n    tag_15:\n        /* \"#utility.yul\":749:755   */\n      0x00\n        /* \"#utility.yul\":798:800   */\n      0x20\n        /* \"#utility.yul\":786:795   */\n      dup3\n        /* \"#utility.yul\":777:784   */\n      dup5\n        /* \"#utility.yul\":773:796   */\n      sub\n        /* \"#utility.yul\":769:801   */\n      slt\n        /* \"#utility.yul\":766:885   */\n      iszero\n      tag_299\n      jumpi\n        /* \"#utility.yul\":804:883   */\n      tag_300\n      tag_228\n      jump\t// in\n    tag_300:\n        /* \"#utility.yul\":766:885   */\n    tag_299:\n        /* \"#utility.yul\":924:925   */\n      0x00\n        /* \"#utility.yul\":949:1002   */\n      tag_301\n        /* \"#utility.yul\":994:1001   */\n      dup5\n        /* \"#utility.yul\":985:991   */\n      dup3\n        /* \"#utility.yul\":974:983   */\n      dup6\n        /* \"#utility.yul\":970:992   */\n      add\n        /* \"#utility.yul\":949:1002   */\n      tag_232\n      jump\t// in\n    tag_301:\n        /* \"#utility.yul\":939:1002   */\n      swap2\n      pop\n        /* \"#utility.yul\":895:1012   */\n      pop\n        /* \"#utility.yul\":690:1019   */\n      swap3\n      swap2\n      pop\n      pop\n      jump\t// out\n        /* \"#utility.yul\":1025:1143   */\n    tag_233:\n        /* \"#utility.yul\":1112:1136   */\n      tag_303\n        /* \"#utility.yul\":1130:1135   */\n      dup2\n        /* \"#utility.yul\":1112:1136   */\n      tag_230\n      jump\t// in\n    tag_303:\n        /* \"#utility.yul\":1107:1110   */\n      dup3\n        /* \"#utility.yul\":1100:1137   */\n      mstore\n        /* \"#utility.yul\":1025:1143   */\n      pop\n      pop\n      jump\t// out\n        /* \"#utility.yul\":1149:1371   */\n    tag_18:\n        /* \"#utility.yul\":1242:1246   */\n      0x00\n        /* \"#utility.yul\":1280:1282   */\n      0x20\n        /* \"#utility.yul\":1269:1278   */\n      dup3\n        /* \"#utility.yul\":1265:1283   */\n      add\n        /* \"#utility.yul\":1257:1283   */\n      swap1\n      pop\n        /* \"#utility.yul\":1293:1364   */\n      tag_305\n        /* \"#utility.yul\":1361:1362   */\n      0x00\n        /* \"#utility.yul\":1350:1359   */\n      dup4\n        /* \"#utility.yul\":1346:1363   */\n      add\n        /* \"#utility.yul\":1337:1343   */\n      dup5\n        /* \"#utility.yul\":1293:1364   */\n      tag_233\n      jump\t// in\n    tag_305:\n        /* \"#utility.yul\":1149:1371   */\n      swap3\n      swap2\n      pop\n      pop\n      jump\t// out\n        /* \"#utility.yul\":1377:1851   */\n    tag_21:\n        /* \"#utility.yul\":1445:1451   */\n      0x00\n        /* \"#utility.yul\":1453:1459   */\n      dup1\n        /* \"#utility.yul\":1502:1504   */\n      0x40\n        /* \"#utility.yul\":1490:1499   */\n      dup4\n        /* \"#utility.yul\":1481:1488   */\n      dup6\n        /* \"#utility.yul\":1477:1500   */\n      sub\n        /* \"#utility.yul\":1473:1505   */\n      slt\n        /* \"#utility.yul\":1470:1589   */\n      iszero\n      tag_307\n      jumpi\n        /* \"#utility.yul\":1508:1587   */\n      tag_308\n      tag_228\n      jump\t// in\n    tag_308:\n        /* \"#utility.yul\":1470:1589   */\n    tag_307:\n        /* \"#utility.yul\":1628:1629   */\n      0x00\n        /* \"#utility.yul\":1653:1706   */\n      tag_309\n        /* \"#utility.yul\":1698:1705   */\n      dup6\n        /* \"#utility.yul\":1689:1695   */\n      dup3\n        /* \"#utility.yul\":1678:1687   */\n      dup7\n        /* \"#utility.yul\":1674:1696   */\n      add\n        /* \"#utility.yul\":1653:1706   */\n      tag_232\n      jump\t// in\n    tag_309:\n        /* \"#utility.yul\":1643:1706   */\n      swap3\n      pop\n        /* \"#utility.yul\":1599:1716   */\n      pop\n        /* \"#utility.yul\":1755:1757   */\n      0x20\n        /* \"#utility.yul\":1781:1834   */\n      tag_310\n        /* \"#utility.yul\":1826:1833   */\n      dup6\n        /* \"#utility.yul\":1817:1823   */\n      dup3\n        /* \"#utility.yul\":1806:1815   */\n      dup7\n        /* \"#utility.yul\":1802:1824   */\n      add\n        /* \"#utility.yul\":1781:1834   */\n      tag_232\n      jump\t// in\n    tag_310:\n        /* \"#utility.yul\":1771:1834   */\n      swap2\n      pop\n        /* \"#utility.yul\":1726:1844   */\n      pop\n        /* \"#utility.yul\":1377:1851   */\n      swap3\n      pop\n      swap3\n      swap1\n      pop\n      jump\t// out\n        /* \"#utility.yul\":1857:1983   */\n    tag_234:\n        /* \"#utility.yul\":1894:1901   */\n      0x00\n        /* \"#utility.yul\":1934:1976   */\n      0xffffffffffffffffffffffffffffffffffffffff\n        /* \"#utility.yul\":1927:1932   */\n      dup3\n        /* \"#utility.yul\":1923:1977   */\n      and\n        /* \"#utility.yul\":1912:1977   */\n      swap1\n      pop\n        /* \"#utility.yul\":1857:1983   */\n      swap2\n      swap1\n      pop\n      jump\t// out\n        /* \"#utility.yul\":1989:2085   */\n    tag_235:\n        /* \"#utility.yul\":2026:2033   */\n      0x00\n        /* \"#utility.yul\":2055:2079   */\n      tag_313\n        /* \"#utility.yul\":2073:2078   */\n      dup3\n        /* \"#utility.yul\":2055:2079   */\n      tag_234\n      jump\t// in\n    tag_313:\n        /* \"#utility.yul\":2044:2079   */\n      swap1\n      pop\n        /* \"#utility.yul\":1989:2085   */\n      swap2\n      swap1\n      pop\n      jump\t// out\n        /* \"#utility.yul\":2091:2209   */\n    tag_236:\n        /* \"#utility.yul\":2178:2202   */\n      tag_315\n        /* \"#utility.yul\":2196:2201   */\n      dup2\n        /* \"#utility.yul\":2178:2202   */\n      tag_235\n      jump\t// in\n    tag_315:\n        /* \"#utility.yul\":2173:2176   */\n      dup3\n        /* \"#utility.yul\":2166:2203   */\n      mstore\n        /* \"#utility.yul\":2091:2209   */\n      pop\n      pop\n      jump\t// out\n        /* \"#utility.yul\":2215:2437   */\n    tag_24:\n        /* \"#utility.yul\":2308:2312   */\n      0x00\n        /* \"#utility.yul\":2346:2348   */\n      0x20\n        /* \"#utility.yul\":2335:2344   */\n      dup3\n        /* \"#utility.yul\":2331:2349   */\n      add\n        /* \"#utility.yul\":2323:2349   */\n      swap1\n      pop\n        /* \"#utility.yul\":2359:2430   */\n      tag_317\n        /* \"#utility.yul\":2427:2428   */\n      0x00\n        /* \"#utility.yul\":2416:2425   */\n      dup4\n        /* \"#utility.yul\":2412:2429   */\n      add\n        /* \"#utility.yul\":2403:2409   */\n      dup5\n        /* \"#utility.yul\":2359:2430   */\n      tag_236\n      jump\t// in\n    tag_317:\n        /* \"#utility.yul\":2215:2437   */\n      swap3\n      swap2\n      pop\n      pop\n      jump\t// out\n        /* \"#utility.yul\":2443:2560   */\n    tag_237:\n        /* \"#utility.yul\":2552:2553   */\n      0x00\n        /* \"#utility.yul\":2549:2550   */\n      dup1\n        /* \"#utility.yul\":2542:2554   */\n      revert\n        /* \"#utility.yul\":2566:2683   */\n    tag_238:\n        /* \"#utility.yul\":2675:2676   */\n      0x00\n        /* \"#utility.yul\":2672:2673   */\n      dup1\n        /* \"#utility.yul\":2665:2677   */\n      revert\n        /* \"#utility.yul\":2689:2806   */\n    tag_239:\n        /* \"#utility.yul\":2798:2799   */\n      0x00\n        /* \"#utility.yul\":2795:2796   */\n      dup1\n        /* \"#utility.yul\":2788:2800   */\n      revert\n        /* \"#utility.yul\":2826:3379   */\n    tag_240:\n        /* \"#utility.yul\":2884:2892   */\n      0x00\n        /* \"#utility.yul\":2894:2900   */\n      dup1\n        /* \"#utility.yul\":2944:2947   */\n      dup4\n        /* \"#utility.yul\":2937:2941   */\n      0x1f\n        /* \"#utility.yul\":2929:2935   */\n      dup5\n        /* \"#utility.yul\":2925:2942   */\n      add\n        /* \"#utility.yul\":2921:2948   */\n      slt\n        /* \"#utility.yul\":2911:3033   */\n      tag_322\n      jumpi\n        /* \"#utility.yul\":2952:3031   */\n      tag_323\n      tag_237\n      jump\t// in\n    tag_323:\n        /* \"#utility.yul\":2911:3033   */\n    tag_322:\n        /* \"#utility.yul\":3065:3071   */\n      dup3\n        /* \"#utility.yul\":3052:3072   */\n      calldataload\n        /* \"#utility.yul\":3042:3072   */\n      swap1\n      pop\n        /* \"#utility.yul\":3095:3113   */\n      0xffffffffffffffff\n        /* \"#utility.yul\":3087:3093   */\n      dup2\n        /* \"#utility.yul\":3084:3114   */\n      gt\n        /* \"#utility.yul\":3081:3198   */\n      iszero\n      tag_324\n      jumpi\n        /* \"#utility.yul\":3117:3196   */\n      tag_325\n      tag_238\n      jump\t// in\n    tag_325:\n        /* \"#utility.yul\":3081:3198   */\n    tag_324:\n        /* \"#utility.yul\":3231:3235   */\n      0x20\n        /* \"#utility.yul\":3223:3229   */\n      dup4\n        /* \"#utility.yul\":3219:3236   */\n      add\n        /* \"#utility.yul\":3207:3236   */\n      swap2\n      pop\n        /* \"#utility.yul\":3285:3288   */\n      dup4\n        /* \"#utility.yul\":3277:3281   */\n      0x01\n        /* \"#utility.yul\":3269:3275   */\n      dup3\n        /* \"#utility.yul\":3265:3282   */\n      mul\n        /* \"#utility.yul\":3255:3263   */\n      dup4\n        /* \"#utility.yul\":3251:3283   */\n      add\n        /* \"#utility.yul\":3248:3289   */\n      gt\n        /* \"#utility.yul\":3245:3373   */\n      iszero\n      tag_326\n      jumpi\n        /* \"#utility.yul\":3292:3371   */\n      tag_327\n      tag_239\n      jump\t// in\n    tag_327:\n        /* \"#utility.yul\":3245:3373   */\n    tag_326:\n        /* \"#utility.yul\":2826:3379   */\n      swap3\n      pop\n      swap3\n      swap1\n      pop\n      jump\t// out\n        /* \"#utility.yul\":3385:4059   */\n    tag_27:\n        /* \"#utility.yul\":3465:3471   */\n      0x00\n        /* \"#utility.yul\":3473:3479   */\n      dup1\n        /* \"#utility.yul\":3481:3487   */\n      0x00\n        /* \"#utility.yul\":3530:3532   */\n      0x40\n        /* \"#utility.yul\":3518:3527   */\n      dup5\n        /* \"#utility.yul\":3509:3516   */\n      dup7\n        /* \"#utility.yul\":3505:3528   */\n      sub\n        /* \"#utility.yul\":3501:3533   */\n      slt\n        /* \"#utility.yul\":3498:3617   */\n      iszero\n      tag_329\n      jumpi\n        /* \"#utility.yul\":3536:3615   */\n      tag_330\n      tag_228\n      jump\t// in\n    tag_330:\n        /* \"#utility.yul\":3498:3617   */\n    tag_329:\n        /* \"#utility.yul\":3656:3657   */\n      0x00\n        /* \"#utility.yul\":3681:3734   */\n      tag_331\n        /* \"#utility.yul\":3726:3733   */\n      dup7\n        /* \"#utility.yul\":3717:3723   */\n      dup3\n        /* \"#utility.yul\":3706:3715   */\n      dup8\n        /* \"#utility.yul\":3702:3724   */\n      add\n        /* \"#utility.yul\":3681:3734   */\n      tag_232\n      jump\t// in\n    tag_331:\n        /* \"#utility.yul\":3671:3734   */\n      swap4\n      pop\n        /* \"#utility.yul\":3627:3744   */\n      pop\n        /* \"#utility.yul\":3811:3813   */\n      0x20\n        /* \"#utility.yul\":3800:3809   */\n      dup5\n        /* \"#utility.yul\":3796:3814   */\n      add\n        /* \"#utility.yul\":3783:3815   */\n      calldataload\n        /* \"#utility.yul\":3842:3860   */\n      0xffffffffffffffff\n        /* \"#utility.yul\":3834:3840   */\n      dup2\n        /* \"#utility.yul\":3831:3861   */\n      gt\n        /* \"#utility.yul\":3828:3945   */\n      iszero\n      tag_332\n      jumpi\n        /* \"#utility.yul\":3864:3943   */\n      tag_333\n      tag_229\n      jump\t// in\n    tag_333:\n        /* \"#utility.yul\":3828:3945   */\n    tag_332:\n        /* \"#utility.yul\":3977:4042   */\n      tag_334\n        /* \"#utility.yul\":4034:4041   */\n      dup7\n        /* \"#utility.yul\":4025:4031   */\n      dup3\n        /* \"#utility.yul\":4014:4023   */\n      dup8\n        /* \"#utility.yul\":4010:4032   */\n      add\n        /* \"#utility.yul\":3977:4042   */\n      tag_240\n      jump\t// in\n    tag_334:\n        /* \"#utility.yul\":3959:4042   */\n      swap3\n      pop\n      swap3\n      pop\n        /* \"#utility.yul\":3754:4052   */\n      pop\n        /* \"#utility.yul\":3385:4059   */\n      swap3\n      pop\n      swap3\n      pop\n      swap3\n      jump\t// out\n        /* \"#utility.yul\":4065:4245   */\n    tag_68:\n        /* \"#utility.yul\":4113:4190   */\n      0x4e487b7100000000000000000000000000000000000000000000000000000000\n        /* \"#utility.yul\":4110:4111   */\n      0x00\n        /* \"#utility.yul\":4103:4191   */\n      mstore\n        /* \"#utility.yul\":4210:4214   */\n      0x21\n        /* \"#utility.yul\":4207:4208   */\n      0x04\n        /* \"#utility.yul\":4200:4215   */\n      mstore\n        /* \"#utility.yul\":4234:4238   */\n      0x24\n        /* \"#utility.yul\":4231:4232   */\n      0x00\n        /* \"#utility.yul\":4224:4239   */\n      revert\n        /* \"#utility.yul\":4251:4365   */\n    tag_241:\n        /* \"#utility.yul\":4333:4334   */\n      0x03\n        /* \"#utility.yul\":4326:4331   */\n      dup2\n        /* \"#utility.yul\":4323:4335   */\n      lt\n        /* \"#utility.yul\":4313:4359   */\n      tag_337\n      jumpi\n        /* \"#utility.yul\":4339:4357   */\n      tag_338\n      tag_68\n      jump\t// in\n    tag_338:\n        /* \"#utility.yul\":4313:4359   */\n    tag_337:\n        /* \"#utility.yul\":4251:4365   */\n      pop\n      jump\t// out\n        /* \"#utility.yul\":4371:4500   */\n    tag_242:\n        /* \"#utility.yul\":4417:4424   */\n      0x00\n        /* \"#utility.yul\":4446:4451   */\n      dup2\n        /* \"#utility.yul\":4435:4451   */\n      swap1\n      pop\n        /* \"#utility.yul\":4452:4494   */\n      tag_340\n        /* \"#utility.yul\":4488:4493   */\n      dup3\n        /* \"#utility.yul\":4452:4494   */\n      tag_241\n      jump\t// in\n    tag_340:\n        /* \"#utility.yul\":4371:4500   */\n      swap2\n      swap1\n      pop\n      jump\t// out\n        /* \"#utility.yul\":4506:4635   */\n    tag_243:\n        /* \"#utility.yul\":4563:4572   */\n      0x00\n        /* \"#utility.yul\":4596:4629   */\n      tag_342\n        /* \"#utility.yul\":4623:4628   */\n      dup3\n        /* \"#utility.yul\":4596:4629   */\n      tag_242\n      jump\t// in\n    tag_342:\n        /* \"#utility.yul\":4583:4629   */\n      swap1\n      pop\n        /* \"#utility.yul\":4506:4635   */\n      swap2\n      swap1\n      pop\n      jump\t// out\n        /* \"#utility.yul\":4641:4786   */\n    tag_244:\n        /* \"#utility.yul\":4735:4779   */\n      tag_344\n        /* \"#utility.yul\":4773:4778   */\n      dup2\n        /* \"#utility.yul\":4735:4779   */\n      tag_243\n      jump\t// in\n    tag_344:\n        /* \"#utility.yul\":4730:4733   */\n      dup3\n        /* \"#utility.yul\":4723:4780   */\n      mstore\n        /* \"#utility.yul\":4641:4786   */\n      pop\n      pop\n      jump\t// out\n        /* \"#utility.yul\":4792:6251   */\n    tag_33:\n        /* \"#utility.yul\":5202:5206   */\n      0x00\n        /* \"#utility.yul\":5240:5243   */\n      0x0180\n        /* \"#utility.yul\":5229:5238   */\n      dup3\n        /* \"#utility.yul\":5225:5244   */\n      add\n        /* \"#utility.yul\":5217:5244   */\n      swap1\n      pop\n        /* \"#utility.yul\":5254:5332   */\n      tag_346\n        /* \"#utility.yul\":5329:5330   */\n      0x00\n        /* \"#utility.yul\":5318:5327   */\n      dup4\n        /* \"#utility.yul\":5314:5331   */\n      add\n        /* \"#utility.yul\":5305:5311   */\n      dup16\n        /* \"#utility.yul\":5254:5332   */\n      tag_244\n      jump\t// in\n    tag_346:\n        /* \"#utility.yul\":5342:5414   */\n      tag_347\n        /* \"#utility.yul\":5410:5412   */\n      0x20\n        /* \"#utility.yul\":5399:5408   */\n      dup4\n        /* \"#utility.yul\":5395:5413   */\n      add\n        /* \"#utility.yul\":5386:5392   */\n      dup15\n        /* \"#utility.yul\":5342:5414   */\n      tag_233\n      jump\t// in\n    tag_347:\n        /* \"#utility.yul\":5424:5496   */\n      tag_348\n        /* \"#utility.yul\":5492:5494   */\n      0x40\n        /* \"#utility.yul\":5481:5490   */\n      dup4\n        /* \"#utility.yul\":5477:5495   */\n      add\n        /* \"#utility.yul\":5468:5474   */\n      dup14\n        /* \"#utility.yul\":5424:5496   */\n      tag_233\n      jump\t// in\n    tag_348:\n        /* \"#utility.yul\":5506:5578   */\n      tag_349\n        /* \"#utility.yul\":5574:5576   */\n      0x60\n        /* \"#utility.yul\":5563:5572   */\n      dup4\n        /* \"#utility.yul\":5559:5577   */\n      add\n        /* \"#utility.yul\":5550:5556   */\n      dup13\n        /* \"#utility.yul\":5506:5578   */\n      tag_233\n      jump\t// in\n    tag_349:\n        /* \"#utility.yul\":5588:5661   */\n      tag_350\n        /* \"#utility.yul\":5656:5659   */\n      0x80\n        /* \"#utility.yul\":5645:5654   */\n      dup4\n        /* \"#utility.yul\":5641:5660   */\n      add\n        /* \"#utility.yul\":5632:5638   */\n      dup12\n        /* \"#utility.yul\":5588:5661   */\n      tag_236\n      jump\t// in\n    tag_350:\n        /* \"#utility.yul\":5671:5744   */\n      tag_351\n        /* \"#utility.yul\":5739:5742   */\n      0xa0\n        /* \"#utility.yul\":5728:5737   */\n      dup4\n        /* \"#utility.yul\":5724:5743   */\n      add\n        /* \"#utility.yul\":5715:5721   */\n      dup11\n        /* \"#utility.yul\":5671:5744   */\n      tag_233\n      jump\t// in\n    tag_351:\n        /* \"#utility.yul\":5754:5827   */\n      tag_352\n        /* \"#utility.yul\":5822:5825   */\n      0xc0\n        /* \"#utility.yul\":5811:5820   */\n      dup4\n        /* \"#utility.yul\":5807:5826   */\n      add\n        /* \"#utility.yul\":5798:5804   */\n      dup10\n        /* \"#utility.yul\":5754:5827   */\n      tag_236\n      jump\t// in\n    tag_352:\n        /* \"#utility.yul\":5837:5910   */\n      tag_353\n        /* \"#utility.yul\":5905:5908   */\n      0xe0\n        /* \"#utility.yul\":5894:5903   */\n      dup4\n        /* \"#utility.yul\":5890:5909   */\n      add\n        /* \"#utility.yul\":5881:5887   */\n      dup9\n        /* \"#utility.yul\":5837:5910   */\n      tag_233\n      jump\t// in\n    tag_353:\n        /* \"#utility.yul\":5920:5993   */\n      tag_354\n        /* \"#utility.yul\":5988:5991   */\n      0x0100\n        /* \"#utility.yul\":5977:5986   */\n      dup4\n        /* \"#utility.yul\":5973:5992   */\n      add\n        /* \"#utility.yul\":5964:5970   */\n      dup8\n        /* \"#utility.yul\":5920:5993   */\n      tag_233\n      jump\t// in\n    tag_354:\n        /* \"#utility.yul\":6003:6076   */\n      tag_355\n        /* \"#utility.yul\":6071:6074   */\n      0x0120\n        /* \"#utility.yul\":6060:6069   */\n      dup4\n        /* \"#utility.yul\":6056:6075   */\n      add\n        /* \"#utility.yul\":6047:6053   */\n      dup7\n        /* \"#utility.yul\":6003:6076   */\n      tag_236\n      jump\t// in\n    tag_355:\n        /* \"#utility.yul\":6086:6160   */\n      tag_356\n        /* \"#utility.yul\":6155:6158   */\n      0x0140\n        /* \"#utility.yul\":6144:6153   */\n      dup4\n        /* \"#utility.yul\":6140:6159   */\n      add\n        /* \"#utility.yul\":6130:6137   */\n      dup6\n        /* \"#utility.yul\":6086:6160   */\n      tag_233\n      jump\t// in\n    tag_356:\n        /* \"#utility.yul\":6170:6244   */\n      tag_357\n        /* \"#utility.yul\":6239:6242   */\n      0x0160\n        /* \"#utility.yul\":6228:6237   */\n      dup4\n        /* \"#utility.yul\":6224:6243   */\n      add\n        /* \"#utility.yul\":6214:6221   */\n      dup5\n        /* \"#utility.yul\":6170:6244   */\n      tag_236\n      jump\t// in\n    tag_357:\n        /* \"#utility.yul\":4792:6251   */\n      swap14\n      swap13\n      pop\n      pop\n      pop\n      pop\n      pop\n      pop\n      pop\n      pop\n      pop\n      pop\n      pop\n      pop\n      pop\n      jump\t// out\n        /* \"#utility.yul\":6257:6379   */\n    tag_245:\n        /* \"#utility.yul\":6330:6354   */\n      tag_359\n        /* \"#utility.yul\":6348:6353   */\n      dup2\n        /* \"#utility.yul\":6330:6354   */\n      tag_235\n      jump\t// in\n    tag_359:\n        /* \"#utility.yul\":6323:6328   */\n      dup2\n        /* \"#utility.yul\":6320:6355   */\n      eq\n        /* \"#utility.yul\":6310:6373   */\n      tag_360\n      jumpi\n        /* \"#utility.yul\":6369:6370   */\n      0x00\n        /* \"#utility.yul\":6366:6367   */\n      dup1\n        /* \"#utility.yul\":6359:6371   */\n      revert\n        /* \"#utility.yul\":6310:6373   */\n    tag_360:\n        /* \"#utility.yul\":6257:6379   */\n      pop\n      jump\t// out\n        /* \"#utility.yul\":6385:6524   */\n    tag_246:\n        /* \"#utility.yul\":6431:6436   */\n      0x00\n        /* \"#utility.yul\":6469:6475   */\n      dup2\n        /* \"#utility.yul\":6456:6476   */\n      calldataload\n        /* \"#utility.yul\":6447:6476   */\n      swap1\n      pop\n        /* \"#utility.yul\":6485:6518   */\n      tag_362\n        /* \"#utility.yul\":6512:6517   */\n      dup2\n        /* \"#utility.yul\":6485:6518   */\n      tag_245\n      jump\t// in\n    tag_362:\n        /* \"#utility.yul\":6385:6524   */\n      swap3\n      swap2\n      pop\n      pop\n      jump\t// out\n        /* \"#utility.yul\":6530:7295   */\n    tag_39:\n        /* \"#utility.yul\":6616:6622   */\n      0x00\n        /* \"#utility.yul\":6624:6630   */\n      dup1\n        /* \"#utility.yul\":6632:6638   */\n      0x00\n        /* \"#utility.yul\":6640:6646   */\n      dup1\n        /* \"#utility.yul\":6689:6692   */\n      0x80\n        /* \"#utility.yul\":6677:6686   */\n      dup6\n        /* \"#utility.yul\":6668:6675   */\n      dup8\n        /* \"#utility.yul\":6664:6687   */\n      sub\n        /* \"#utility.yul\":6660:6693   */\n      slt\n        /* \"#utility.yul\":6657:6777   */\n      iszero\n      tag_364\n      jumpi\n        /* \"#utility.yul\":6696:6775   */\n      tag_365\n      tag_228\n      jump\t// in\n    tag_365:\n        /* \"#utility.yul\":6657:6777   */\n    tag_364:\n        /* \"#utility.yul\":6816:6817   */\n      0x00\n        /* \"#utility.yul\":6841:6894   */\n      tag_366\n        /* \"#utility.yul\":6886:6893   */\n      dup8\n        /* \"#utility.yul\":6877:6883   */\n      dup3\n        /* \"#utility.yul\":6866:6875   */\n      dup9\n        /* \"#utility.yul\":6862:6884   */\n      add\n        /* \"#utility.yul\":6841:6894   */\n      tag_232\n      jump\t// in\n    tag_366:\n        /* \"#utility.yul\":6831:6894   */\n      swap5\n      pop\n        /* \"#utility.yul\":6787:6904   */\n      pop\n        /* \"#utility.yul\":6943:6945   */\n      0x20\n        /* \"#utility.yul\":6969:7022   */\n      tag_367\n        /* \"#utility.yul\":7014:7021   */\n      dup8\n        /* \"#utility.yul\":7005:7011   */\n      dup3\n        /* \"#utility.yul\":6994:7003   */\n      dup9\n        /* \"#utility.yul\":6990:7012   */\n      add\n        /* \"#utility.yul\":6969:7022   */\n      tag_232\n      jump\t// in\n    tag_367:\n        /* \"#utility.yul\":6959:7022   */\n      swap4\n      pop\n        /* \"#utility.yul\":6914:7032   */\n      pop\n        /* \"#utility.yul\":7071:7073   */\n      0x40\n        /* \"#utility.yul\":7097:7150   */\n      tag_368\n        /* \"#utility.yul\":7142:7149   */\n      dup8\n        /* \"#utility.yul\":7133:7139   */\n      dup3\n        /* \"#utility.yul\":7122:7131   */\n      dup9\n        /* \"#utility.yul\":7118:7140   */\n      add\n        /* \"#utility.yul\":7097:7150   */\n      tag_246\n      jump\t// in\n    tag_368:\n        /* \"#utility.yul\":7087:7150   */\n      swap3\n      pop\n        /* \"#utility.yul\":7042:7160   */\n      pop\n        /* \"#utility.yul\":7199:7201   */\n      0x60\n        /* \"#utility.yul\":7225:7278   */\n      tag_369\n        /* \"#utility.yul\":7270:7277   */\n      dup8\n        /* \"#utility.yul\":7261:7267   */\n      dup3\n        /* \"#utility.yul\":7250:7259   */\n      dup9\n        /* \"#utility.yul\":7246:7268   */\n      add\n        /* \"#utility.yul\":7225:7278   */\n      tag_246\n      jump\t// in\n    tag_369:\n        /* \"#utility.yul\":7215:7278   */\n      swap2\n      pop\n        /* \"#utility.yul\":7170:7288   */\n      pop\n        /* \"#utility.yul\":6530:7295   */\n      swap3\n      swap6\n      swap2\n      swap5\n      pop\n      swap3\n      pop\n      jump\t// out\n        /* \"#utility.yul\":7301:8504   */\n    tag_46:\n        /* \"#utility.yul\":7414:7420   */\n      0x00\n        /* \"#utility.yul\":7422:7428   */\n      dup1\n        /* \"#utility.yul\":7430:7436   */\n      0x00\n        /* \"#utility.yul\":7438:7444   */\n      dup1\n        /* \"#utility.yul\":7446:7452   */\n      0x00\n        /* \"#utility.yul\":7454:7460   */\n      dup1\n        /* \"#utility.yul\":7462:7468   */\n      0x00\n        /* \"#utility.yul\":7511:7514   */\n      0xe0\n        /* \"#utility.yul\":7499:7508   */\n      dup9\n        /* \"#utility.yul\":7490:7497   */\n      dup11\n        /* \"#utility.yul\":7486:7509   */\n      sub\n        /* \"#utility.yul\":7482:7515   */\n      slt\n        /* \"#utility.yul\":7479:7599   */\n      iszero\n      tag_371\n      jumpi\n        /* \"#utility.yul\":7518:7597   */\n      tag_372\n      tag_228\n      jump\t// in\n    tag_372:\n        /* \"#utility.yul\":7479:7599   */\n    tag_371:\n        /* \"#utility.yul\":7638:7639   */\n      0x00\n        /* \"#utility.yul\":7663:7716   */\n      tag_373\n        /* \"#utility.yul\":7708:7715   */\n      dup11\n        /* \"#utility.yul\":7699:7705   */\n      dup3\n        /* \"#utility.yul\":7688:7697   */\n      dup12\n        /* \"#utility.yul\":7684:7706   */\n      add\n        /* \"#utility.yul\":7663:7716   */\n      tag_232\n      jump\t// in\n    tag_373:\n        /* \"#utility.yul\":7653:7716   */\n      swap8\n      pop\n        /* \"#utility.yul\":7609:7726   */\n      pop\n        /* \"#utility.yul\":7765:7767   */\n      0x20\n        /* \"#utility.yul\":7791:7844   */\n      tag_374\n        /* \"#utility.yul\":7836:7843   */\n      dup11\n        /* \"#utility.yul\":7827:7833   */\n      dup3\n        /* \"#utility.yul\":7816:7825   */\n      dup12\n        /* \"#utility.yul\":7812:7834   */\n      add\n        /* \"#utility.yul\":7791:7844   */\n      tag_232\n      jump\t// in\n    tag_374:\n        /* \"#utility.yul\":7781:7844   */\n      swap7\n      pop\n        /* \"#utility.yul\":7736:7854   */\n      pop\n        /* \"#utility.yul\":7893:7895   */\n      0x40\n        /* \"#utility.yul\":7919:7972   */\n      tag_375\n        /* \"#utility.yul\":7964:7971   */\n      dup11\n        /* \"#utility.yul\":7955:7961   */\n      dup3\n        /* \"#utility.yul\":7944:7953   */\n      dup12\n        /* \"#utility.yul\":7940:7962   */\n      add\n        /* \"#utility.yul\":7919:7972   */\n      tag_232\n      jump\t// in\n    tag_375:\n        /* \"#utility.yul\":7909:7972   */\n      swap6\n      pop\n        /* \"#utility.yul\":7864:7982   */\n      pop\n        /* \"#utility.yul\":8021:8023   */\n      0x60\n        /* \"#utility.yul\":8047:8100   */\n      tag_376\n        /* \"#utility.yul\":8092:8099   */\n      dup11\n        /* \"#utility.yul\":8083:8089   */\n      dup3\n        /* \"#utility.yul\":8072:8081   */\n      dup12\n        /* \"#utility.yul\":8068:8090   */\n      add\n        /* \"#utility.yul\":8047:8100   */\n      tag_246\n      jump\t// in\n    tag_376:\n        /* \"#utility.yul\":8037:8100   */\n      swap5\n      pop\n        /* \"#utility.yul\":7992:8110   */\n      pop\n        /* \"#utility.yul\":8149:8152   */\n      0x80\n        /* \"#utility.yul\":8176:8229   */\n      tag_377\n        /* \"#utility.yul\":8221:8228   */\n      dup11\n        /* \"#utility.yul\":8212:8218   */\n      dup3\n        /* \"#utility.yul\":8201:8210   */\n      dup12\n        /* \"#utility.yul\":8197:8219   */\n      add\n        /* \"#utility.yul\":8176:8229   */\n      tag_246\n      jump\t// in\n    tag_377:\n        /* \"#utility.yul\":8166:8229   */\n      swap4\n      pop\n        /* \"#utility.yul\":8120:8239   */\n      pop\n        /* \"#utility.yul\":8278:8281   */\n      0xa0\n        /* \"#utility.yul\":8305:8358   */\n      tag_378\n        /* \"#utility.yul\":8350:8357   */\n      dup11\n        /* \"#utility.yul\":8341:8347   */\n      dup3\n        /* \"#utility.yul\":8330:8339   */\n      dup12\n        /* \"#utility.yul\":8326:8348   */\n      add\n        /* \"#utility.yul\":8305:8358   */\n      tag_232\n      jump\t// in\n    tag_378:\n        /* \"#utility.yul\":8295:8358   */\n      swap3\n      pop\n        /* \"#utility.yul\":8249:8368   */\n      pop\n        /* \"#utility.yul\":8407:8410   */\n      0xc0\n        /* \"#utility.yul\":8434:8487   */\n      tag_379\n        /* \"#utility.yul\":8479:8486   */\n      dup11\n        /* \"#utility.yul\":8470:8476   */\n      dup3\n        /* \"#utility.yul\":8459:8468   */\n      dup12\n        /* \"#utility.yul\":8455:8477   */\n      add\n        /* \"#utility.yul\":8434:8487   */\n      tag_246\n      jump\t// in\n    tag_379:\n        /* \"#utility.yul\":8424:8487   */\n      swap2\n      pop\n        /* \"#utility.yul\":8378:8497   */\n      pop\n        /* \"#utility.yul\":7301:8504   */\n      swap3\n      swap6\n      swap9\n      swap2\n      swap5\n      swap8\n      pop\n      swap3\n      swap6\n      pop\n      jump\t// out\n        /* \"#utility.yul\":8510:8690   */\n    tag_55:\n        /* \"#utility.yul\":8558:8635   */\n      0x4e487b7100000000000000000000000000000000000000000000000000000000\n        /* \"#utility.yul\":8555:8556   */\n      0x00\n        /* \"#utility.yul\":8548:8636   */\n      mstore\n        /* \"#utility.yul\":8655:8659   */\n      0x32\n        /* \"#utility.yul\":8652:8653   */\n      0x04\n        /* \"#utility.yul\":8645:8660   */\n      mstore\n        /* \"#utility.yul\":8679:8683   */\n      0x24\n        /* \"#utility.yul\":8676:8677   */\n      0x00\n        /* \"#utility.yul\":8669:8684   */\n      revert\n        /* \"#utility.yul\":8696:8865   */\n    tag_247:\n        /* \"#utility.yul\":8780:8791   */\n      0x00\n        /* \"#utility.yul\":8814:8820   */\n      dup3\n        /* \"#utility.yul\":8809:8812   */\n      dup3\n        /* \"#utility.yul\":8802:8821   */\n      mstore\n        /* \"#utility.yul\":8854:8858   */\n      0x20\n        /* \"#utility.yul\":8849:8852   */\n      dup3\n        /* \"#utility.yul\":8845:8859   */\n      add\n        /* \"#utility.yul\":8830:8859   */\n      swap1\n      pop\n        /* \"#utility.yul\":8696:8865   */\n      swap3\n      swap2\n      pop\n      pop\n      jump\t// out\n        /* \"#utility.yul\":8871:9053   */\n    tag_248:\n        /* \"#utility.yul\":9011:9045   */\n      0x566f6365206e616f20706f6465207265616c697a6172206f20736f727465696f\n        /* \"#utility.yul\":9007:9008   */\n      0x00\n        /* \"#utility.yul\":8999:9005   */\n      dup3\n        /* \"#utility.yul\":8995:9009   */\n      add\n        /* \"#utility.yul\":8988:9046   */\n      mstore\n        /* \"#utility.yul\":8871:9053   */\n      pop\n      jump\t// out\n        /* \"#utility.yul\":9059:9425   */\n    tag_249:\n        /* \"#utility.yul\":9201:9204   */\n      0x00\n        /* \"#utility.yul\":9222:9289   */\n      tag_384\n        /* \"#utility.yul\":9286:9288   */\n      0x20\n        /* \"#utility.yul\":9281:9284   */\n      dup4\n        /* \"#utility.yul\":9222:9289   */\n      tag_247\n      jump\t// in\n    tag_384:\n        /* \"#utility.yul\":9215:9289   */\n      swap2\n      pop\n        /* \"#utility.yul\":9298:9391   */\n      tag_385\n        /* \"#utility.yul\":9387:9390   */\n      dup3\n        /* \"#utility.yul\":9298:9391   */\n      tag_248\n      jump\t// in\n    tag_385:\n        /* \"#utility.yul\":9416:9418   */\n      0x20\n        /* \"#utility.yul\":9411:9414   */\n      dup3\n        /* \"#utility.yul\":9407:9419   */\n      add\n        /* \"#utility.yul\":9400:9419   */\n      swap1\n      pop\n        /* \"#utility.yul\":9059:9425   */\n      swap2\n      swap1\n      pop\n      jump\t// out\n        /* \"#utility.yul\":9431:9850   */\n    tag_62:\n        /* \"#utility.yul\":9597:9601   */\n      0x00\n        /* \"#utility.yul\":9635:9637   */\n      0x20\n        /* \"#utility.yul\":9624:9633   */\n      dup3\n        /* \"#utility.yul\":9620:9638   */\n      add\n        /* \"#utility.yul\":9612:9638   */\n      swap1\n      pop\n        /* \"#utility.yul\":9684:9693   */\n      dup2\n        /* \"#utility.yul\":9678:9682   */\n      dup2\n        /* \"#utility.yul\":9674:9694   */\n      sub\n        /* \"#utility.yul\":9670:9671   */\n      0x00\n        /* \"#utility.yul\":9659:9668   */\n      dup4\n        /* \"#utility.yul\":9655:9672   */\n      add\n        /* \"#utility.yul\":9648:9695   */\n      mstore\n        /* \"#utility.yul\":9712:9843   */\n      tag_387\n        /* \"#utility.yul\":9838:9842   */\n      dup2\n        /* \"#utility.yul\":9712:9843   */\n      tag_249\n      jump\t// in\n    tag_387:\n        /* \"#utility.yul\":9704:9843   */\n      swap1\n      pop\n        /* \"#utility.yul\":9431:9850   */\n      swap2\n      swap1\n      pop\n      jump\t// out\n        /* \"#utility.yul\":9856:10032   */\n    tag_250:\n        /* \"#utility.yul\":9996:10024   */\n      0x4f20526166666c65206a6120666f692066696e616c697a61646f000000000000\n        /* \"#utility.yul\":9992:9993   */\n      0x00\n        /* \"#utility.yul\":9984:9990   */\n      dup3\n        /* \"#utility.yul\":9980:9994   */\n      add\n        /* \"#utility.yul\":9973:10025   */\n      mstore\n        /* \"#utility.yul\":9856:10032   */\n      pop\n      jump\t// out\n        /* \"#utility.yul\":10038:10404   */\n    tag_251:\n        /* \"#utility.yul\":10180:10183   */\n      0x00\n        /* \"#utility.yul\":10201:10268   */\n      tag_390\n        /* \"#utility.yul\":10265:10267   */\n      0x1a\n        /* \"#utility.yul\":10260:10263   */\n      dup4\n        /* \"#utility.yul\":10201:10268   */\n      tag_247\n      jump\t// in\n    tag_390:\n        /* \"#utility.yul\":10194:10268   */\n      swap2\n      pop\n        /* \"#utility.yul\":10277:10370   */\n      tag_391\n        /* \"#utility.yul\":10366:10369   */\n      dup3\n        /* \"#utility.yul\":10277:10370   */\n      tag_250\n      jump\t// in\n    tag_391:\n        /* \"#utility.yul\":10395:10397   */\n      0x20\n        /* \"#utility.yul\":10390:10393   */\n      dup3\n        /* \"#utility.yul\":10386:10398   */\n      add\n        /* \"#utility.yul\":10379:10398   */\n      swap1\n      pop\n        /* \"#utility.yul\":10038:10404   */\n      swap2\n      swap1\n      pop\n      jump\t// out\n        /* \"#utility.yul\":10410:10829   */\n    tag_78:\n        /* \"#utility.yul\":10576:10580   */\n      0x00\n        /* \"#utility.yul\":10614:10616   */\n      0x20\n        /* \"#utility.yul\":10603:10612   */\n      dup3\n        /* \"#utility.yul\":10599:10617   */\n      add\n        /* \"#utility.yul\":10591:10617   */\n      swap1\n      pop\n        /* \"#utility.yul\":10663:10672   */\n      dup2\n        /* \"#utility.yul\":10657:10661   */\n      dup2\n        /* \"#utility.yul\":10653:10673   */\n      sub\n        /* \"#utility.yul\":10649:10650   */\n      0x00\n        /* \"#utility.yul\":10638:10647   */\n      dup4\n        /* \"#utility.yul\":10634:10651   */\n      add\n        /* \"#utility.yul\":10627:10674   */\n      mstore\n        /* \"#utility.yul\":10691:10822   */\n      tag_393\n        /* \"#utility.yul\":10817:10821   */\n      dup2\n        /* \"#utility.yul\":10691:10822   */\n      tag_251\n      jump\t// in\n    tag_393:\n        /* \"#utility.yul\":10683:10822   */\n      swap1\n      pop\n        /* \"#utility.yul\":10410:10829   */\n      swap2\n      swap1\n      pop\n      jump\t// out\n        /* \"#utility.yul\":10835:11056   */\n    tag_252:\n        /* \"#utility.yul\":10975:11009   */\n      0x5175616e746964616465206465207469636b65747320696e737566696369656e\n        /* \"#utility.yul\":10971:10972   */\n      0x00\n        /* \"#utility.yul\":10963:10969   */\n      dup3\n        /* \"#utility.yul\":10959:10973   */\n      add\n        /* \"#utility.yul\":10952:11010   */\n      mstore\n        /* \"#utility.yul\":11044:11048   */\n      0x7465000000000000000000000000000000000000000000000000000000000000\n        /* \"#utility.yul\":11039:11041   */\n      0x20\n        /* \"#utility.yul\":11031:11037   */\n      dup3\n        /* \"#utility.yul\":11027:11042   */\n      add\n        /* \"#utility.yul\":11020:11049   */\n      mstore\n        /* \"#utility.yul\":10835:11056   */\n      pop\n      jump\t// out\n        /* \"#utility.yul\":11062:11428   */\n    tag_253:\n        /* \"#utility.yul\":11204:11207   */\n      0x00\n        /* \"#utility.yul\":11225:11292   */\n      tag_396\n        /* \"#utility.yul\":11289:11291   */\n      0x22\n        /* \"#utility.yul\":11284:11287   */\n      dup4\n        /* \"#utility.yul\":11225:11292   */\n      tag_247\n      jump\t// in\n    tag_396:\n        /* \"#utility.yul\":11218:11292   */\n      swap2\n      pop\n        /* \"#utility.yul\":11301:11394   */\n      tag_397\n        /* \"#utility.yul\":11390:11393   */\n      dup3\n        /* \"#utility.yul\":11301:11394   */\n      tag_252\n      jump\t// in\n    tag_397:\n        /* \"#utility.yul\":11419:11421   */\n      0x40\n        /* \"#utility.yul\":11414:11417   */\n      dup3\n        /* \"#utility.yul\":11410:11422   */\n      add\n        /* \"#utility.yul\":11403:11422   */\n      swap1\n      pop\n        /* \"#utility.yul\":11062:11428   */\n      swap2\n      swap1\n      pop\n      jump\t// out\n        /* \"#utility.yul\":11434:11853   */\n    tag_81:\n        /* \"#utility.yul\":11600:11604   */\n      0x00\n        /* \"#utility.yul\":11638:11640   */\n      0x20\n        /* \"#utility.yul\":11627:11636   */\n      dup3\n        /* \"#utility.yul\":11623:11641   */\n      add\n        /* \"#utility.yul\":11615:11641   */\n      swap1\n      pop\n        /* \"#utility.yul\":11687:11696   */\n      dup2\n        /* \"#utility.yul\":11681:11685   */\n      dup2\n        /* \"#utility.yul\":11677:11697   */\n      sub\n        /* \"#utility.yul\":11673:11674   */\n      0x00\n        /* \"#utility.yul\":11662:11671   */\n      dup4\n        /* \"#utility.yul\":11658:11675   */\n      add\n        /* \"#utility.yul\":11651:11698   */\n      mstore\n        /* \"#utility.yul\":11715:11846   */\n      tag_399\n        /* \"#utility.yul\":11841:11845   */\n      dup2\n        /* \"#utility.yul\":11715:11846   */\n      tag_253\n      jump\t// in\n    tag_399:\n        /* \"#utility.yul\":11707:11846   */\n      swap1\n      pop\n        /* \"#utility.yul\":11434:11853   */\n      swap2\n      swap1\n      pop\n      jump\t// out\n        /* \"#utility.yul\":11859:12092   */\n    tag_254:\n        /* \"#utility.yul\":11999:12033   */\n      0x566f6365206e616f2074656d207065726d697373616f2070617261207265616c\n        /* \"#utility.yul\":11995:11996   */\n      0x00\n        /* \"#utility.yul\":11987:11993   */\n      dup3\n        /* \"#utility.yul\":11983:11997   */\n      add\n        /* \"#utility.yul\":11976:12034   */\n      mstore\n        /* \"#utility.yul\":12068:12084   */\n      0x697a61722065737361206163616f000000000000000000000000000000000000\n        /* \"#utility.yul\":12063:12065   */\n      0x20\n        /* \"#utility.yul\":12055:12061   */\n      dup3\n        /* \"#utility.yul\":12051:12066   */\n      add\n        /* \"#utility.yul\":12044:12085   */\n      mstore\n        /* \"#utility.yul\":11859:12092   */\n      pop\n      jump\t// out\n        /* \"#utility.yul\":12098:12464   */\n    tag_255:\n        /* \"#utility.yul\":12240:12243   */\n      0x00\n        /* \"#utility.yul\":12261:12328   */\n      tag_402\n        /* \"#utility.yul\":12325:12327   */\n      0x2e\n        /* \"#utility.yul\":12320:12323   */\n      dup4\n        /* \"#utility.yul\":12261:12328   */\n      tag_247\n      jump\t// in\n    tag_402:\n        /* \"#utility.yul\":12254:12328   */\n      swap2\n      pop\n        /* \"#utility.yul\":12337:12430   */\n      tag_403\n        /* \"#utility.yul\":12426:12429   */\n      dup3\n        /* \"#utility.yul\":12337:12430   */\n      tag_254\n      jump\t// in\n    tag_403:\n        /* \"#utility.yul\":12455:12457   */\n      0x40\n        /* \"#utility.yul\":12450:12453   */\n      dup3\n        /* \"#utility.yul\":12446:12458   */\n      add\n        /* \"#utility.yul\":12439:12458   */\n      swap1\n      pop\n        /* \"#utility.yul\":12098:12464   */\n      swap2\n      swap1\n      pop\n      jump\t// out\n        /* \"#utility.yul\":12470:12889   */\n    tag_99:\n        /* \"#utility.yul\":12636:12640   */\n      0x00\n        /* \"#utility.yul\":12674:12676   */\n      0x20\n        /* \"#utility.yul\":12663:12672   */\n      dup3\n        /* \"#utility.yul\":12659:12677   */\n      add\n        /* \"#utility.yul\":12651:12677   */\n      swap1\n      pop\n        /* \"#utility.yul\":12723:12732   */\n      dup2\n        /* \"#utility.yul\":12717:12721   */\n      dup2\n        /* \"#utility.yul\":12713:12733   */\n      sub\n        /* \"#utility.yul\":12709:12710   */\n      0x00\n        /* \"#utility.yul\":12698:12707   */\n      dup4\n        /* \"#utility.yul\":12694:12711   */\n      add\n        /* \"#utility.yul\":12687:12734   */\n      mstore\n        /* \"#utility.yul\":12751:12882   */\n      tag_405\n        /* \"#utility.yul\":12877:12881   */\n      dup2\n        /* \"#utility.yul\":12751:12882   */\n      tag_255\n      jump\t// in\n    tag_405:\n        /* \"#utility.yul\":12743:12882   */\n      swap1\n      pop\n        /* \"#utility.yul\":12470:12889   */\n      swap2\n      swap1\n      pop\n      jump\t// out\n        /* \"#utility.yul\":12895:13121   */\n    tag_256:\n        /* \"#utility.yul\":13035:13069   */\n      0x566f6365206e616f20706f6465206d6169732063616e63656c61722065737365\n        /* \"#utility.yul\":13031:13032   */\n      0x00\n        /* \"#utility.yul\":13023:13029   */\n      dup3\n        /* \"#utility.yul\":13019:13033   */\n      add\n        /* \"#utility.yul\":13012:13070   */\n      mstore\n        /* \"#utility.yul\":13104:13113   */\n      0x20726166666c6500000000000000000000000000000000000000000000000000\n        /* \"#utility.yul\":13099:13101   */\n      0x20\n        /* \"#utility.yul\":13091:13097   */\n      dup3\n        /* \"#utility.yul\":13087:13102   */\n      add\n        /* \"#utility.yul\":13080:13114   */\n      mstore\n        /* \"#utility.yul\":12895:13121   */\n      pop\n      jump\t// out\n        /* \"#utility.yul\":13127:13493   */\n    tag_257:\n        /* \"#utility.yul\":13269:13272   */\n      0x00\n        /* \"#utility.yul\":13290:13357   */\n      tag_408\n        /* \"#utility.yul\":13354:13356   */\n      0x27\n        /* \"#utility.yul\":13349:13352   */\n      dup4\n        /* \"#utility.yul\":13290:13357   */\n      tag_247\n      jump\t// in\n    tag_408:\n        /* \"#utility.yul\":13283:13357   */\n      swap2\n      pop\n        /* \"#utility.yul\":13366:13459   */\n      tag_409\n        /* \"#utility.yul\":13455:13458   */\n      dup3\n        /* \"#utility.yul\":13366:13459   */\n      tag_256\n      jump\t// in\n    tag_409:\n        /* \"#utility.yul\":13484:13486   */\n      0x40\n        /* \"#utility.yul\":13479:13482   */\n      dup3\n        /* \"#utility.yul\":13475:13487   */\n      add\n        /* \"#utility.yul\":13468:13487   */\n      swap1\n      pop\n        /* \"#utility.yul\":13127:13493   */\n      swap2\n      swap1\n      pop\n      jump\t// out\n        /* \"#utility.yul\":13499:13918   */\n    tag_102:\n        /* \"#utility.yul\":13665:13669   */\n      0x00\n        /* \"#utility.yul\":13703:13705   */\n      0x20\n        /* \"#utility.yul\":13692:13701   */\n      dup3\n        /* \"#utility.yul\":13688:13706   */\n      add\n        /* \"#utility.yul\":13680:13706   */\n      swap1\n      pop\n        /* \"#utility.yul\":13752:13761   */\n      dup2\n        /* \"#utility.yul\":13746:13750   */\n      dup2\n        /* \"#utility.yul\":13742:13762   */\n      sub\n        /* \"#utility.yul\":13738:13739   */\n      0x00\n        /* \"#utility.yul\":13727:13736   */\n      dup4\n        /* \"#utility.yul\":13723:13740   */\n      add\n        /* \"#utility.yul\":13716:13763   */\n      mstore\n        /* \"#utility.yul\":13780:13911   */\n      tag_411\n        /* \"#utility.yul\":13906:13910   */\n      dup2\n        /* \"#utility.yul\":13780:13911   */\n      tag_257\n      jump\t// in\n    tag_411:\n        /* \"#utility.yul\":13772:13911   */\n      swap1\n      pop\n        /* \"#utility.yul\":13499:13918   */\n      swap2\n      swap1\n      pop\n      jump\t// out\n        /* \"#utility.yul\":13924:14149   */\n    tag_258:\n        /* \"#utility.yul\":14064:14098   */\n      0x4573746520726166666c65206a61206e616f2065737461206d616973206f636f\n        /* \"#utility.yul\":14060:14061   */\n      0x00\n        /* \"#utility.yul\":14052:14058   */\n      dup3\n        /* \"#utility.yul\":14048:14062   */\n      add\n        /* \"#utility.yul\":14041:14099   */\n      mstore\n        /* \"#utility.yul\":14133:14141   */\n      0x7272656e646f0000000000000000000000000000000000000000000000000000\n        /* \"#utility.yul\":14128:14130   */\n      0x20\n        /* \"#utility.yul\":14120:14126   */\n      dup3\n        /* \"#utility.yul\":14116:14131   */\n      add\n        /* \"#utility.yul\":14109:14142   */\n      mstore\n        /* \"#utility.yul\":13924:14149   */\n      pop\n      jump\t// out\n        /* \"#utility.yul\":14155:14521   */\n    tag_259:\n        /* \"#utility.yul\":14297:14300   */\n      0x00\n        /* \"#utility.yul\":14318:14385   */\n      tag_414\n        /* \"#utility.yul\":14382:14384   */\n      0x26\n        /* \"#utility.yul\":14377:14380   */\n      dup4\n        /* \"#utility.yul\":14318:14385   */\n      tag_247\n      jump\t// in\n    tag_414:\n        /* \"#utility.yul\":14311:14385   */\n      swap2\n      pop\n        /* \"#utility.yul\":14394:14487   */\n      tag_415\n        /* \"#utility.yul\":14483:14486   */\n      dup3\n        /* \"#utility.yul\":14394:14487   */\n      tag_258\n      jump\t// in\n    tag_415:\n        /* \"#utility.yul\":14512:14514   */\n      0x40\n        /* \"#utility.yul\":14507:14510   */\n      dup3\n        /* \"#utility.yul\":14503:14515   */\n      add\n        /* \"#utility.yul\":14496:14515   */\n      swap1\n      pop\n        /* \"#utility.yul\":14155:14521   */\n      swap2\n      swap1\n      pop\n      jump\t// out\n        /* \"#utility.yul\":14527:14946   */\n    tag_112:\n        /* \"#utility.yul\":14693:14697   */\n      0x00\n        /* \"#utility.yul\":14731:14733   */\n      0x20\n        /* \"#utility.yul\":14720:14729   */\n      dup3\n        /* \"#utility.yul\":14716:14734   */\n      add\n        /* \"#utility.yul\":14708:14734   */\n      swap1\n      pop\n        /* \"#utility.yul\":14780:14789   */\n      dup2\n        /* \"#utility.yul\":14774:14778   */\n      dup2\n        /* \"#utility.yul\":14770:14790   */\n      sub\n        /* \"#utility.yul\":14766:14767   */\n      0x00\n        /* \"#utility.yul\":14755:14764   */\n      dup4\n        /* \"#utility.yul\":14751:14768   */\n      add\n        /* \"#utility.yul\":14744:14791   */\n      mstore\n        /* \"#utility.yul\":14808:14939   */\n      tag_417\n        /* \"#utility.yul\":14934:14938   */\n      dup2\n        /* \"#utility.yul\":14808:14939   */\n      tag_259\n      jump\t// in\n    tag_417:\n        /* \"#utility.yul\":14800:14939   */\n      swap1\n      pop\n        /* \"#utility.yul\":14527:14946   */\n      swap2\n      swap1\n      pop\n      jump\t// out\n        /* \"#utility.yul\":14952:15284   */\n    tag_114:\n        /* \"#utility.yul\":15073:15077   */\n      0x00\n        /* \"#utility.yul\":15111:15113   */\n      0x40\n        /* \"#utility.yul\":15100:15109   */\n      dup3\n        /* \"#utility.yul\":15096:15114   */\n      add\n        /* \"#utility.yul\":15088:15114   */\n      swap1\n      pop\n        /* \"#utility.yul\":15124:15195   */\n      tag_419\n        /* \"#utility.yul\":15192:15193   */\n      0x00\n        /* \"#utility.yul\":15181:15190   */\n      dup4\n        /* \"#utility.yul\":15177:15194   */\n      add\n        /* \"#utility.yul\":15168:15174   */\n      dup6\n        /* \"#utility.yul\":15124:15195   */\n      tag_236\n      jump\t// in\n    tag_419:\n        /* \"#utility.yul\":15205:15277   */\n      tag_420\n        /* \"#utility.yul\":15273:15275   */\n      0x20\n        /* \"#utility.yul\":15262:15271   */\n      dup4\n        /* \"#utility.yul\":15258:15276   */\n      add\n        /* \"#utility.yul\":15249:15255   */\n      dup5\n        /* \"#utility.yul\":15205:15277   */\n      tag_233\n      jump\t// in\n    tag_420:\n        /* \"#utility.yul\":14952:15284   */\n      swap4\n      swap3\n      pop\n      pop\n      pop\n      jump\t// out\n        /* \"#utility.yul\":15290:15470   */\n    tag_260:\n        /* \"#utility.yul\":15338:15415   */\n      0x4e487b7100000000000000000000000000000000000000000000000000000000\n        /* \"#utility.yul\":15335:15336   */\n      0x00\n        /* \"#utility.yul\":15328:15416   */\n      mstore\n        /* \"#utility.yul\":15435:15439   */\n      0x11\n        /* \"#utility.yul\":15432:15433   */\n      0x04\n        /* \"#utility.yul\":15425:15440   */\n      mstore\n        /* \"#utility.yul\":15459:15463   */\n      0x24\n        /* \"#utility.yul\":15456:15457   */\n      0x00\n        /* \"#utility.yul\":15449:15464   */\n      revert\n        /* \"#utility.yul\":15476:15670   */\n    tag_125:\n        /* \"#utility.yul\":15516:15520   */\n      0x00\n        /* \"#utility.yul\":15536:15556   */\n      tag_423\n        /* \"#utility.yul\":15554:15555   */\n      dup3\n        /* \"#utility.yul\":15536:15556   */\n      tag_230\n      jump\t// in\n    tag_423:\n        /* \"#utility.yul\":15531:15556   */\n      swap2\n      pop\n        /* \"#utility.yul\":15570:15590   */\n      tag_424\n        /* \"#utility.yul\":15588:15589   */\n      dup4\n        /* \"#utility.yul\":15570:15590   */\n      tag_230\n      jump\t// in\n    tag_424:\n        /* \"#utility.yul\":15565:15590   */\n      swap3\n      pop\n        /* \"#utility.yul\":15614:15615   */\n      dup3\n        /* \"#utility.yul\":15611:15612   */\n      dup3\n        /* \"#utility.yul\":15607:15616   */\n      sub\n        /* \"#utility.yul\":15599:15616   */\n      swap1\n      pop\n        /* \"#utility.yul\":15638:15639   */\n      dup2\n        /* \"#utility.yul\":15632:15636   */\n      dup2\n        /* \"#utility.yul\":15629:15640   */\n      gt\n        /* \"#utility.yul\":15626:15663   */\n      iszero\n      tag_425\n      jumpi\n        /* \"#utility.yul\":15643:15661   */\n      tag_426\n      tag_260\n      jump\t// in\n    tag_426:\n        /* \"#utility.yul\":15626:15663   */\n    tag_425:\n        /* \"#utility.yul\":15476:15670   */\n      swap3\n      swap2\n      pop\n      pop\n      jump\t// out\n        /* \"#utility.yul\":15676:15842   */\n    tag_261:\n        /* \"#utility.yul\":15816:15834   */\n      0x71746420696e646973706f6e6976656c00000000000000000000000000000000\n        /* \"#utility.yul\":15812:15813   */\n      0x00\n        /* \"#utility.yul\":15804:15810   */\n      dup3\n        /* \"#utility.yul\":15800:15814   */\n      add\n        /* \"#utility.yul\":15793:15835   */\n      mstore\n        /* \"#utility.yul\":15676:15842   */\n      pop\n      jump\t// out\n        /* \"#utility.yul\":15848:16214   */\n    tag_262:\n        /* \"#utility.yul\":15990:15993   */\n      0x00\n        /* \"#utility.yul\":16011:16078   */\n      tag_429\n        /* \"#utility.yul\":16075:16077   */\n      0x10\n        /* \"#utility.yul\":16070:16073   */\n      dup4\n        /* \"#utility.yul\":16011:16078   */\n      tag_247\n      jump\t// in\n    tag_429:\n        /* \"#utility.yul\":16004:16078   */\n      swap2\n      pop\n        /* \"#utility.yul\":16087:16180   */\n      tag_430\n        /* \"#utility.yul\":16176:16179   */\n      dup3\n        /* \"#utility.yul\":16087:16180   */\n      tag_261\n      jump\t// in\n    tag_430:\n        /* \"#utility.yul\":16205:16207   */\n      0x20\n        /* \"#utility.yul\":16200:16203   */\n      dup3\n        /* \"#utility.yul\":16196:16208   */\n      add\n        /* \"#utility.yul\":16189:16208   */\n      swap1\n      pop\n        /* \"#utility.yul\":15848:16214   */\n      swap2\n      swap1\n      pop\n      jump\t// out\n        /* \"#utility.yul\":16220:16639   */\n    tag_128:\n        /* \"#utility.yul\":16386:16390   */\n      0x00\n        /* \"#utility.yul\":16424:16426   */\n      0x20\n        /* \"#utility.yul\":16413:16422   */\n      dup3\n        /* \"#utility.yul\":16409:16427   */\n      add\n        /* \"#utility.yul\":16401:16427   */\n      swap1\n      pop\n        /* \"#utility.yul\":16473:16482   */\n      dup2\n        /* \"#utility.yul\":16467:16471   */\n      dup2\n        /* \"#utility.yul\":16463:16483   */\n      sub\n        /* \"#utility.yul\":16459:16460   */\n      0x00\n        /* \"#utility.yul\":16448:16457   */\n      dup4\n        /* \"#utility.yul\":16444:16461   */\n      add\n        /* \"#utility.yul\":16437:16484   */\n      mstore\n        /* \"#utility.yul\":16501:16632   */\n      tag_432\n        /* \"#utility.yul\":16627:16631   */\n      dup2\n        /* \"#utility.yul\":16501:16632   */\n      tag_262\n      jump\t// in\n    tag_432:\n        /* \"#utility.yul\":16493:16632   */\n      swap1\n      pop\n        /* \"#utility.yul\":16220:16639   */\n      swap2\n      swap1\n      pop\n      jump\t// out\n        /* \"#utility.yul\":16645:16885   */\n    tag_263:\n        /* \"#utility.yul\":16785:16819   */\n      0x4f2073656c6c6572206e616f20706f646520636f6d7072617220656e74726164\n        /* \"#utility.yul\":16781:16782   */\n      0x00\n        /* \"#utility.yul\":16773:16779   */\n      dup3\n        /* \"#utility.yul\":16769:16783   */\n      add\n        /* \"#utility.yul\":16762:16820   */\n      mstore\n        /* \"#utility.yul\":16854:16877   */\n      0x617320646f2070726f7072696f20736f727465696f0000000000000000000000\n        /* \"#utility.yul\":16849:16851   */\n      0x20\n        /* \"#utility.yul\":16841:16847   */\n      dup3\n        /* \"#utility.yul\":16837:16852   */\n      add\n        /* \"#utility.yul\":16830:16878   */\n      mstore\n        /* \"#utility.yul\":16645:16885   */\n      pop\n      jump\t// out\n        /* \"#utility.yul\":16891:17257   */\n    tag_264:\n        /* \"#utility.yul\":17033:17036   */\n      0x00\n        /* \"#utility.yul\":17054:17121   */\n      tag_435\n        /* \"#utility.yul\":17118:17120   */\n      0x35\n        /* \"#utility.yul\":17113:17116   */\n      dup4\n        /* \"#utility.yul\":17054:17121   */\n      tag_247\n      jump\t// in\n    tag_435:\n        /* \"#utility.yul\":17047:17121   */\n      swap2\n      pop\n        /* \"#utility.yul\":17130:17223   */\n      tag_436\n        /* \"#utility.yul\":17219:17222   */\n      dup3\n        /* \"#utility.yul\":17130:17223   */\n      tag_263\n      jump\t// in\n    tag_436:\n        /* \"#utility.yul\":17248:17250   */\n      0x40\n        /* \"#utility.yul\":17243:17246   */\n      dup3\n        /* \"#utility.yul\":17239:17251   */\n      add\n        /* \"#utility.yul\":17232:17251   */\n      swap1\n      pop\n        /* \"#utility.yul\":16891:17257   */\n      swap2\n      swap1\n      pop\n      jump\t// out\n        /* \"#utility.yul\":17263:17682   */\n    tag_134:\n        /* \"#utility.yul\":17429:17433   */\n      0x00\n        /* \"#utility.yul\":17467:17469   */\n      0x20\n        /* \"#utility.yul\":17456:17465   */\n      dup3\n        /* \"#utility.yul\":17452:17470   */\n      add\n        /* \"#utility.yul\":17444:17470   */\n      swap1\n      pop\n        /* \"#utility.yul\":17516:17525   */\n      dup2\n        /* \"#utility.yul\":17510:17514   */\n      dup2\n        /* \"#utility.yul\":17506:17526   */\n      sub\n        /* \"#utility.yul\":17502:17503   */\n      0x00\n        /* \"#utility.yul\":17491:17500   */\n      dup4\n        /* \"#utility.yul\":17487:17504   */\n      add\n        /* \"#utility.yul\":17480:17527   */\n      mstore\n        /* \"#utility.yul\":17544:17675   */\n      tag_438\n        /* \"#utility.yul\":17670:17674   */\n      dup2\n        /* \"#utility.yul\":17544:17675   */\n      tag_264\n      jump\t// in\n    tag_438:\n        /* \"#utility.yul\":17536:17675   */\n      swap1\n      pop\n        /* \"#utility.yul\":17263:17682   */\n      swap2\n      swap1\n      pop\n      jump\t// out\n        /* \"#utility.yul\":17688:18098   */\n    tag_139:\n        /* \"#utility.yul\":17728:17735   */\n      0x00\n        /* \"#utility.yul\":17751:17771   */\n      tag_440\n        /* \"#utility.yul\":17769:17770   */\n      dup3\n        /* \"#utility.yul\":17751:17771   */\n      tag_230\n      jump\t// in\n    tag_440:\n        /* \"#utility.yul\":17746:17771   */\n      swap2\n      pop\n        /* \"#utility.yul\":17785:17805   */\n      tag_441\n        /* \"#utility.yul\":17803:17804   */\n      dup4\n        /* \"#utility.yul\":17785:17805   */\n      tag_230\n      jump\t// in\n    tag_441:\n        /* \"#utility.yul\":17780:17805   */\n      swap3\n      pop\n        /* \"#utility.yul\":17840:17841   */\n      dup3\n        /* \"#utility.yul\":17837:17838   */\n      dup3\n        /* \"#utility.yul\":17833:17842   */\n      mul\n        /* \"#utility.yul\":17862:17892   */\n      tag_442\n        /* \"#utility.yul\":17880:17891   */\n      dup2\n        /* \"#utility.yul\":17862:17892   */\n      tag_230\n      jump\t// in\n    tag_442:\n        /* \"#utility.yul\":17851:17892   */\n      swap2\n      pop\n        /* \"#utility.yul\":18041:18042   */\n      dup3\n        /* \"#utility.yul\":18032:18039   */\n      dup3\n        /* \"#utility.yul\":18028:18043   */\n      div\n        /* \"#utility.yul\":18025:18026   */\n      dup5\n        /* \"#utility.yul\":18022:18044   */\n      eq\n        /* \"#utility.yul\":18002:18003   */\n      dup4\n        /* \"#utility.yul\":17995:18004   */\n      iszero\n        /* \"#utility.yul\":17975:18058   */\n      or\n        /* \"#utility.yul\":17952:18091   */\n      tag_443\n      jumpi\n        /* \"#utility.yul\":18071:18089   */\n      tag_444\n      tag_260\n      jump\t// in\n    tag_444:\n        /* \"#utility.yul\":17952:18091   */\n    tag_443:\n        /* \"#utility.yul\":17736:18098   */\n      pop\n        /* \"#utility.yul\":17688:18098   */\n      swap3\n      swap2\n      pop\n      pop\n      jump\t// out\n        /* \"#utility.yul\":18104:18546   */\n    tag_141:\n        /* \"#utility.yul\":18253:18257   */\n      0x00\n        /* \"#utility.yul\":18291:18293   */\n      0x60\n        /* \"#utility.yul\":18280:18289   */\n      dup3\n        /* \"#utility.yul\":18276:18294   */\n      add\n        /* \"#utility.yul\":18268:18294   */\n      swap1\n      pop\n        /* \"#utility.yul\":18304:18375   */\n      tag_446\n        /* \"#utility.yul\":18372:18373   */\n      0x00\n        /* \"#utility.yul\":18361:18370   */\n      dup4\n        /* \"#utility.yul\":18357:18374   */\n      add\n        /* \"#utility.yul\":18348:18354   */\n      dup7\n        /* \"#utility.yul\":18304:18375   */\n      tag_236\n      jump\t// in\n    tag_446:\n        /* \"#utility.yul\":18385:18457   */\n      tag_447\n        /* \"#utility.yul\":18453:18455   */\n      0x20\n        /* \"#utility.yul\":18442:18451   */\n      dup4\n        /* \"#utility.yul\":18438:18456   */\n      add\n        /* \"#utility.yul\":18429:18435   */\n      dup6\n        /* \"#utility.yul\":18385:18457   */\n      tag_236\n      jump\t// in\n    tag_447:\n        /* \"#utility.yul\":18467:18539   */\n      tag_448\n        /* \"#utility.yul\":18535:18537   */\n      0x40\n        /* \"#utility.yul\":18524:18533   */\n      dup4\n        /* \"#utility.yul\":18520:18538   */\n      add\n        /* \"#utility.yul\":18511:18517   */\n      dup5\n        /* \"#utility.yul\":18467:18539   */\n      tag_233\n      jump\t// in\n    tag_448:\n        /* \"#utility.yul\":18104:18546   */\n      swap5\n      swap4\n      pop\n      pop\n      pop\n      pop\n      jump\t// out\n        /* \"#utility.yul\":18552:18785   */\n    tag_150:\n        /* \"#utility.yul\":18591:18594   */\n      0x00\n        /* \"#utility.yul\":18614:18638   */\n      tag_450\n        /* \"#utility.yul\":18632:18637   */\n      dup3\n        /* \"#utility.yul\":18614:18638   */\n      tag_230\n      jump\t// in\n    tag_450:\n        /* \"#utility.yul\":18605:18638   */\n      swap2\n      pop\n        /* \"#utility.yul\":18660:18726   */\n      0xffffffffffffffffffffffffffffffffffffffffffffffffffffffffffffffff\n        /* \"#utility.yul\":18653:18658   */\n      dup3\n        /* \"#utility.yul\":18650:18727   */\n      sub\n        /* \"#utility.yul\":18647:18750   */\n      tag_451\n      jumpi\n        /* \"#utility.yul\":18730:18748   */\n      tag_452\n      tag_260\n      jump\t// in\n    tag_452:\n        /* \"#utility.yul\":18647:18750   */\n    tag_451:\n        /* \"#utility.yul\":18777:18778   */\n      0x01\n        /* \"#utility.yul\":18770:18775   */\n      dup3\n        /* \"#utility.yul\":18766:18779   */\n      add\n        /* \"#utility.yul\":18759:18779   */\n      swap1\n      pop\n        /* \"#utility.yul\":18552:18785   */\n      swap2\n      swap1\n      pop\n      jump\t// out\n        /* \"#utility.yul\":18791:18982   */\n    tag_155:\n        /* \"#utility.yul\":18831:18834   */\n      0x00\n        /* \"#utility.yul\":18850:18870   */\n      tag_454\n        /* \"#utility.yul\":18868:18869   */\n      dup3\n        /* \"#utility.yul\":18850:18870   */\n      tag_230\n      jump\t// in\n    tag_454:\n        /* \"#utility.yul\":18845:18870   */\n      swap2\n      pop\n        /* \"#utility.yul\":18884:18904   */\n      tag_455\n        /* \"#utility.yul\":18902:18903   */\n      dup4\n        /* \"#utility.yul\":18884:18904   */\n      tag_230\n      jump\t// in\n    tag_455:\n        /* \"#utility.yul\":18879:18904   */\n      swap3\n      pop\n        /* \"#utility.yul\":18927:18928   */\n      dup3\n        /* \"#utility.yul\":18924:18925   */\n      dup3\n        /* \"#utility.yul\":18920:18929   */\n      add\n        /* \"#utility.yul\":18913:18929   */\n      swap1\n      pop\n        /* \"#utility.yul\":18948:18951   */\n      dup1\n        /* \"#utility.yul\":18945:18946   */\n      dup3\n        /* \"#utility.yul\":18942:18952   */\n      gt\n        /* \"#utility.yul\":18939:18975   */\n      iszero\n      tag_456\n      jumpi\n        /* \"#utility.yul\":18955:18973   */\n      tag_457\n      tag_260\n      jump\t// in\n    tag_457:\n        /* \"#utility.yul\":18939:18975   */\n    tag_456:\n        /* \"#utility.yul\":18791:18982   */\n      swap3\n      swap2\n      pop\n      pop\n      jump\t// out\n        /* \"#utility.yul\":18988:19165   */\n    tag_265:\n        /* \"#utility.yul\":19128:19157   */\n      0x4f2076616c6f72207061676f206e616f20706f64652073657220300000000000\n        /* \"#utility.yul\":19124:19125   */\n      0x00\n        /* \"#utility.yul\":19116:19122   */\n      dup3\n        /* \"#utility.yul\":19112:19126   */\n      add\n        /* \"#utility.yul\":19105:19158   */\n      mstore\n        /* \"#utility.yul\":18988:19165   */\n      pop\n      jump\t// out\n        /* \"#utility.yul\":19171:19537   */\n    tag_266:\n        /* \"#utility.yul\":19313:19316   */\n      0x00\n        /* \"#utility.yul\":19334:19401   */\n      tag_460\n        /* \"#utility.yul\":19398:19400   */\n      0x1b\n        /* \"#utility.yul\":19393:19396   */\n      dup4\n        /* \"#utility.yul\":19334:19401   */\n      tag_247\n      jump\t// in\n    tag_460:\n        /* \"#utility.yul\":19327:19401   */\n      swap2\n      pop\n        /* \"#utility.yul\":19410:19503   */\n      tag_461\n        /* \"#utility.yul\":19499:19502   */\n      dup3\n        /* \"#utility.yul\":19410:19503   */\n      tag_265\n      jump\t// in\n    tag_461:\n        /* \"#utility.yul\":19528:19530   */\n      0x20\n        /* \"#utility.yul\":19523:19526   */\n      dup3\n        /* \"#utility.yul\":19519:19531   */\n      add\n        /* \"#utility.yul\":19512:19531   */\n      swap1\n      pop\n        /* \"#utility.yul\":19171:19537   */\n      swap2\n      swap1\n      pop\n      jump\t// out\n        /* \"#utility.yul\":19543:19962   */\n    tag_163:\n        /* \"#utility.yul\":19709:19713   */\n      0x00\n        /* \"#utility.yul\":19747:19749   */\n      0x20\n        /* \"#utility.yul\":19736:19745   */\n      dup3\n        /* \"#utility.yul\":19732:19750   */\n      add\n        /* \"#utility.yul\":19724:19750   */\n      swap1\n      pop\n        /* \"#utility.yul\":19796:19805   */\n      dup2\n        /* \"#utility.yul\":19790:19794   */\n      dup2\n        /* \"#utility.yul\":19786:19806   */\n      sub\n        /* \"#utility.yul\":19782:19783   */\n      0x00\n        /* \"#utility.yul\":19771:19780   */\n      dup4\n        /* \"#utility.yul\":19767:19784   */\n      add\n        /* \"#utility.yul\":19760:19807   */\n      mstore\n        /* \"#utility.yul\":19824:19955   */\n      tag_463\n        /* \"#utility.yul\":19950:19954   */\n      dup2\n        /* \"#utility.yul\":19824:19955   */\n      tag_266\n      jump\t// in\n    tag_463:\n        /* \"#utility.yul\":19816:19955   */\n      swap1\n      pop\n        /* \"#utility.yul\":19543:19962   */\n      swap2\n      swap1\n      pop\n      jump\t// out\n        /* \"#utility.yul\":19968:20193   */\n    tag_267:\n        /* \"#utility.yul\":20108:20142   */\n      0x41207175616e746964616465206465207469636b657473206e616f20706f6465\n        /* \"#utility.yul\":20104:20105   */\n      0x00\n        /* \"#utility.yul\":20096:20102   */\n      dup3\n        /* \"#utility.yul\":20092:20106   */\n      add\n        /* \"#utility.yul\":20085:20143   */\n      mstore\n        /* \"#utility.yul\":20177:20185   */\n      0x2073657220300000000000000000000000000000000000000000000000000000\n        /* \"#utility.yul\":20172:20174   */\n      0x20\n        /* \"#utility.yul\":20164:20170   */\n      dup3\n        /* \"#utility.yul\":20160:20175   */\n      add\n        /* \"#utility.yul\":20153:20186   */\n      mstore\n        /* \"#utility.yul\":19968:20193   */\n      pop\n      jump\t// out\n        /* \"#utility.yul\":20199:20565   */\n    tag_268:\n        /* \"#utility.yul\":20341:20344   */\n      0x00\n        /* \"#utility.yul\":20362:20429   */\n      tag_466\n        /* \"#utility.yul\":20426:20428   */\n      0x26\n        /* \"#utility.yul\":20421:20424   */\n      dup4\n        /* \"#utility.yul\":20362:20429   */\n      tag_247\n      jump\t// in\n    tag_466:\n        /* \"#utility.yul\":20355:20429   */\n      swap2\n      pop\n        /* \"#utility.yul\":20438:20531   */\n      tag_467\n        /* \"#utility.yul\":20527:20530   */\n      dup3\n        /* \"#utility.yul\":20438:20531   */\n      tag_267\n      jump\t// in\n    tag_467:\n        /* \"#utility.yul\":20556:20558   */\n      0x40\n        /* \"#utility.yul\":20551:20554   */\n      dup3\n        /* \"#utility.yul\":20547:20559   */\n      add\n        /* \"#utility.yul\":20540:20559   */\n      swap1\n      pop\n        /* \"#utility.yul\":20199:20565   */\n      swap2\n      swap1\n      pop\n      jump\t// out\n        /* \"#utility.yul\":20571:20990   */\n    tag_166:\n        /* \"#utility.yul\":20737:20741   */\n      0x00\n        /* \"#utility.yul\":20775:20777   */\n      0x20\n        /* \"#utility.yul\":20764:20773   */\n      dup3\n        /* \"#utility.yul\":20760:20778   */\n      add\n        /* \"#utility.yul\":20752:20778   */\n      swap1\n      pop\n        /* \"#utility.yul\":20824:20833   */\n      dup2\n        /* \"#utility.yul\":20818:20822   */\n      dup2\n        /* \"#utility.yul\":20814:20834   */\n      sub\n        /* \"#utility.yul\":20810:20811   */\n      0x00\n        /* \"#utility.yul\":20799:20808   */\n      dup4\n        /* \"#utility.yul\":20795:20812   */\n      add\n        /* \"#utility.yul\":20788:20835   */\n      mstore\n        /* \"#utility.yul\":20852:20983   */\n      tag_469\n        /* \"#utility.yul\":20978:20982   */\n      dup2\n        /* \"#utility.yul\":20852:20983   */\n      tag_268\n      jump\t// in\n    tag_469:\n        /* \"#utility.yul\":20844:20983   */\n      swap1\n      pop\n        /* \"#utility.yul\":20571:20990   */\n      swap2\n      swap1\n      pop\n      jump\t// out\n        /* \"#utility.yul\":20996:21228   */\n    tag_269:\n        /* \"#utility.yul\":21136:21170   */\n      0x41207175616e746964616465206d696e696d61206465207469636b657473206e\n        /* \"#utility.yul\":21132:21133   */\n      0x00\n        /* \"#utility.yul\":21124:21130   */\n      dup3\n        /* \"#utility.yul\":21120:21134   */\n      add\n        /* \"#utility.yul\":21113:21171   */\n      mstore\n        /* \"#utility.yul\":21205:21220   */\n      0x616f20706f646520736572203000000000000000000000000000000000000000\n        /* \"#utility.yul\":21200:21202   */\n      0x20\n        /* \"#utility.yul\":21192:21198   */\n      dup3\n        /* \"#utility.yul\":21188:21203   */\n      add\n        /* \"#utility.yul\":21181:21221   */\n      mstore\n        /* \"#utility.yul\":20996:21228   */\n      pop\n      jump\t// out\n        /* \"#utility.yul\":21234:21600   */\n    tag_270:\n        /* \"#utility.yul\":21376:21379   */\n      0x00\n        /* \"#utility.yul\":21397:21464   */\n      tag_472\n        /* \"#utility.yul\":21461:21463   */\n      0x2d\n        /* \"#utility.yul\":21456:21459   */\n      dup4\n        /* \"#utility.yul\":21397:21464   */\n      tag_247\n      jump\t// in\n    tag_472:\n        /* \"#utility.yul\":21390:21464   */\n      swap2\n      pop\n        /* \"#utility.yul\":21473:21566   */\n      tag_473\n        /* \"#utility.yul\":21562:21565   */\n      dup3\n        /* \"#utility.yul\":21473:21566   */\n      tag_269\n      jump\t// in\n    tag_473:\n        /* \"#utility.yul\":21591:21593   */\n      0x40\n        /* \"#utility.yul\":21586:21589   */\n      dup3\n        /* \"#utility.yul\":21582:21594   */\n      add\n        /* \"#utility.yul\":21575:21594   */\n      swap1\n      pop\n        /* \"#utility.yul\":21234:21600   */\n      swap2\n      swap1\n      pop\n      jump\t// out\n        /* \"#utility.yul\":21606:22025   */\n    tag_169:\n        /* \"#utility.yul\":21772:21776   */\n      0x00\n        /* \"#utility.yul\":21810:21812   */\n      0x20\n        /* \"#utility.yul\":21799:21808   */\n      dup3\n        /* \"#utility.yul\":21795:21813   */\n      add\n        /* \"#utility.yul\":21787:21813   */\n      swap1\n      pop\n        /* \"#utility.yul\":21859:21868   */\n      dup2\n        /* \"#utility.yul\":21853:21857   */\n      dup2\n        /* \"#utility.yul\":21849:21869   */\n      sub\n        /* \"#utility.yul\":21845:21846   */\n      0x00\n        /* \"#utility.yul\":21834:21843   */\n      dup4\n        /* \"#utility.yul\":21830:21847   */\n      add\n        /* \"#utility.yul\":21823:21870   */\n      mstore\n        /* \"#utility.yul\":21887:22018   */\n      tag_475\n        /* \"#utility.yul\":22013:22017   */\n      dup2\n        /* \"#utility.yul\":21887:22018   */\n      tag_270\n      jump\t// in\n    tag_475:\n        /* \"#utility.yul\":21879:22018   */\n      swap1\n      pop\n        /* \"#utility.yul\":21606:22025   */\n      swap2\n      swap1\n      pop\n      jump\t// out\n        /* \"#utility.yul\":22031:22258   */\n    tag_271:\n        /* \"#utility.yul\":22171:22205   */\n      0x4170656e6173206f206f776e657220706f6465207265616c697a617220612064\n        /* \"#utility.yul\":22167:22168   */\n      0x00\n        /* \"#utility.yul\":22159:22165   */\n      dup3\n        /* \"#utility.yul\":22155:22169   */\n      add\n        /* \"#utility.yul\":22148:22206   */\n      mstore\n        /* \"#utility.yul\":22240:22250   */\n      0x65766f6c7563616f000000000000000000000000000000000000000000000000\n        /* \"#utility.yul\":22235:22237   */\n      0x20\n        /* \"#utility.yul\":22227:22233   */\n      dup3\n        /* \"#utility.yul\":22223:22238   */\n      add\n        /* \"#utility.yul\":22216:22251   */\n      mstore\n        /* \"#utility.yul\":22031:22258   */\n      pop\n      jump\t// out\n        /* \"#utility.yul\":22264:22630   */\n    tag_272:\n        /* \"#utility.yul\":22406:22409   */\n      0x00\n        /* \"#utility.yul\":22427:22494   */\n      tag_478\n        /* \"#utility.yul\":22491:22493   */\n      0x28\n        /* \"#utility.yul\":22486:22489   */\n      dup4\n        /* \"#utility.yul\":22427:22494   */\n      tag_247\n      jump\t// in\n    tag_478:\n        /* \"#utility.yul\":22420:22494   */\n      swap2\n      pop\n        /* \"#utility.yul\":22503:22596   */\n      tag_479\n        /* \"#utility.yul\":22592:22595   */\n      dup3\n        /* \"#utility.yul\":22503:22596   */\n      tag_271\n      jump\t// in\n    tag_479:\n        /* \"#utility.yul\":22621:22623   */\n      0x40\n        /* \"#utility.yul\":22616:22619   */\n      dup3\n        /* \"#utility.yul\":22612:22624   */\n      add\n        /* \"#utility.yul\":22605:22624   */\n      swap1\n      pop\n        /* \"#utility.yul\":22264:22630   */\n      swap2\n      swap1\n      pop\n      jump\t// out\n        /* \"#utility.yul\":22636:23055   */\n    tag_182:\n        /* \"#utility.yul\":22802:22806   */\n      0x00\n        /* \"#utility.yul\":22840:22842   */\n      0x20\n        /* \"#utility.yul\":22829:22838   */\n      dup3\n        /* \"#utility.yul\":22825:22843   */\n      add\n        /* \"#utility.yul\":22817:22843   */\n      swap1\n      pop\n        /* \"#utility.yul\":22889:22898   */\n      dup2\n        /* \"#utility.yul\":22883:22887   */\n      dup2\n        /* \"#utility.yul\":22879:22899   */\n      sub\n        /* \"#utility.yul\":22875:22876   */\n      0x00\n        /* \"#utility.yul\":22864:22873   */\n      dup4\n        /* \"#utility.yul\":22860:22877   */\n      add\n        /* \"#utility.yul\":22853:22900   */\n      mstore\n        /* \"#utility.yul\":22917:23048   */\n      tag_481\n        /* \"#utility.yul\":23043:23047   */\n      dup2\n        /* \"#utility.yul\":22917:23048   */\n      tag_272\n      jump\t// in\n    tag_481:\n        /* \"#utility.yul\":22909:23048   */\n      swap1\n      pop\n        /* \"#utility.yul\":22636:23055   */\n      swap2\n      swap1\n      pop\n      jump\t// out\n        /* \"#utility.yul\":23061:23140   */\n    tag_273:\n        /* \"#utility.yul\":23100:23107   */\n      0x00\n        /* \"#utility.yul\":23129:23134   */\n      dup2\n        /* \"#utility.yul\":23118:23134   */\n      swap1\n      pop\n        /* \"#utility.yul\":23061:23140   */\n      swap2\n      swap1\n      pop\n      jump\t// out\n        /* \"#utility.yul\":23146:23303   */\n    tag_274:\n        /* \"#utility.yul\":23251:23296   */\n      tag_484\n        /* \"#utility.yul\":23271:23295   */\n      tag_485\n        /* \"#utility.yul\":23289:23294   */\n      dup3\n        /* \"#utility.yul\":23271:23295   */\n      tag_230\n      jump\t// in\n    tag_485:\n        /* \"#utility.yul\":23251:23296   */\n      tag_273\n      jump\t// in\n    tag_484:\n        /* \"#utility.yul\":23246:23249   */\n      dup3\n        /* \"#utility.yul\":23239:23297   */\n      mstore\n        /* \"#utility.yul\":23146:23303   */\n      pop\n      pop\n      jump\t// out\n        /* \"#utility.yul\":23309:23403   */\n    tag_275:\n        /* \"#utility.yul\":23342:23350   */\n      0x00\n        /* \"#utility.yul\":23390:23395   */\n      dup2\n        /* \"#utility.yul\":23386:23388   */\n      0x60\n        /* \"#utility.yul\":23382:23396   */\n      shl\n        /* \"#utility.yul\":23361:23396   */\n      swap1\n      pop\n        /* \"#utility.yul\":23309:23403   */\n      swap2\n      swap1\n      pop\n      jump\t// out\n        /* \"#utility.yul\":23409:23503   */\n    tag_276:\n        /* \"#utility.yul\":23448:23455   */\n      0x00\n        /* \"#utility.yul\":23477:23497   */\n      tag_488\n        /* \"#utility.yul\":23491:23496   */\n      dup3\n        /* \"#utility.yul\":23477:23497   */\n      tag_275\n      jump\t// in\n    tag_488:\n        /* \"#utility.yul\":23466:23497   */\n      swap1\n      pop\n        /* \"#utility.yul\":23409:23503   */\n      swap2\n      swap1\n      pop\n      jump\t// out\n        /* \"#utility.yul\":23509:23609   */\n    tag_277:\n        /* \"#utility.yul\":23548:23555   */\n      0x00\n        /* \"#utility.yul\":23577:23603   */\n      tag_490\n        /* \"#utility.yul\":23597:23602   */\n      dup3\n        /* \"#utility.yul\":23577:23603   */\n      tag_276\n      jump\t// in\n    tag_490:\n        /* \"#utility.yul\":23566:23603   */\n      swap1\n      pop\n        /* \"#utility.yul\":23509:23609   */\n      swap2\n      swap1\n      pop\n      jump\t// out\n        /* \"#utility.yul\":23615:23772   */\n    tag_278:\n        /* \"#utility.yul\":23720:23765   */\n      tag_492\n        /* \"#utility.yul\":23740:23764   */\n      tag_493\n        /* \"#utility.yul\":23758:23763   */\n      dup3\n        /* \"#utility.yul\":23740:23764   */\n      tag_235\n      jump\t// in\n    tag_493:\n        /* \"#utility.yul\":23720:23765   */\n      tag_277\n      jump\t// in\n    tag_492:\n        /* \"#utility.yul\":23715:23718   */\n      dup3\n        /* \"#utility.yul\":23708:23766   */\n      mstore\n        /* \"#utility.yul\":23615:23772   */\n      pop\n      pop\n      jump\t// out\n        /* \"#utility.yul\":23778:23926   */\n    tag_279:\n        /* \"#utility.yul\":23880:23891   */\n      0x00\n        /* \"#utility.yul\":23917:23920   */\n      dup2\n        /* \"#utility.yul\":23902:23920   */\n      swap1\n      pop\n        /* \"#utility.yul\":23778:23926   */\n      swap3\n      swap2\n      pop\n      pop\n      jump\t// out\n        /* \"#utility.yul\":23932:24078   */\n    tag_280:\n        /* \"#utility.yul\":24029:24035   */\n      dup3\n        /* \"#utility.yul\":24024:24027   */\n      dup2\n        /* \"#utility.yul\":24019:24022   */\n      dup4\n        /* \"#utility.yul\":24006:24036   */\n      calldatacopy\n        /* \"#utility.yul\":24070:24071   */\n      0x00\n        /* \"#utility.yul\":24061:24067   */\n      dup4\n        /* \"#utility.yul\":24056:24059   */\n      dup4\n        /* \"#utility.yul\":24052:24068   */\n      add\n        /* \"#utility.yul\":24045:24072   */\n      mstore\n        /* \"#utility.yul\":23932:24078   */\n      pop\n      pop\n      pop\n      jump\t// out\n        /* \"#utility.yul\":24108:24438   */\n    tag_281:\n        /* \"#utility.yul\":24224:24227   */\n      0x00\n        /* \"#utility.yul\":24245:24334   */\n      tag_497\n        /* \"#utility.yul\":24327:24333   */\n      dup4\n        /* \"#utility.yul\":24322:24325   */\n      dup6\n        /* \"#utility.yul\":24245:24334   */\n      tag_279\n      jump\t// in\n    tag_497:\n        /* \"#utility.yul\":24238:24334   */\n      swap4\n      pop\n        /* \"#utility.yul\":24344:24400   */\n      tag_498\n        /* \"#utility.yul\":24393:24399   */\n      dup4\n        /* \"#utility.yul\":24388:24391   */\n      dup6\n        /* \"#utility.yul\":24381:24386   */\n      dup5\n        /* \"#utility.yul\":24344:24400   */\n      tag_280\n      jump\t// in\n    tag_498:\n        /* \"#utility.yul\":24425:24431   */\n      dup3\n        /* \"#utility.yul\":24420:24423   */\n      dup5\n        /* \"#utility.yul\":24416:24432   */\n      add\n        /* \"#utility.yul\":24409:24432   */\n      swap1\n      pop\n        /* \"#utility.yul\":24108:24438   */\n      swap4\n      swap3\n      pop\n      pop\n      pop\n      jump\t// out\n        /* \"#utility.yul\":24444:25021   */\n    tag_195:\n        /* \"#utility.yul\":24642:24645   */\n      0x00\n        /* \"#utility.yul\":24657:24732   */\n      tag_500\n        /* \"#utility.yul\":24728:24731   */\n      dup3\n        /* \"#utility.yul\":24719:24725   */\n      dup8\n        /* \"#utility.yul\":24657:24732   */\n      tag_274\n      jump\t// in\n    tag_500:\n        /* \"#utility.yul\":24757:24759   */\n      0x20\n        /* \"#utility.yul\":24752:24755   */\n      dup3\n        /* \"#utility.yul\":24748:24760   */\n      add\n        /* \"#utility.yul\":24741:24760   */\n      swap2\n      pop\n        /* \"#utility.yul\":24770:24845   */\n      tag_501\n        /* \"#utility.yul\":24841:24844   */\n      dup3\n        /* \"#utility.yul\":24832:24838   */\n      dup7\n        /* \"#utility.yul\":24770:24845   */\n      tag_278\n      jump\t// in\n    tag_501:\n        /* \"#utility.yul\":24870:24872   */\n      0x14\n        /* \"#utility.yul\":24865:24868   */\n      dup3\n        /* \"#utility.yul\":24861:24873   */\n      add\n        /* \"#utility.yul\":24854:24873   */\n      swap2\n      pop\n        /* \"#utility.yul\":24890:24995   */\n      tag_502\n        /* \"#utility.yul\":24991:24994   */\n      dup3\n        /* \"#utility.yul\":24982:24988   */\n      dup5\n        /* \"#utility.yul\":24974:24980   */\n      dup7\n        /* \"#utility.yul\":24890:24995   */\n      tag_281\n      jump\t// in\n    tag_502:\n        /* \"#utility.yul\":24883:24995   */\n      swap2\n      pop\n        /* \"#utility.yul\":25012:25015   */\n      dup2\n        /* \"#utility.yul\":25005:25015   */\n      swap1\n      pop\n        /* \"#utility.yul\":24444:25021   */\n      swap6\n      swap5\n      pop\n      pop\n      pop\n      pop\n      pop\n      jump\t// out\n        /* \"#utility.yul\":25027:25207   */\n    tag_282:\n        /* \"#utility.yul\":25075:25152   */\n      0x4e487b7100000000000000000000000000000000000000000000000000000000\n        /* \"#utility.yul\":25072:25073   */\n      0x00\n        /* \"#utility.yul\":25065:25153   */\n      mstore\n        /* \"#utility.yul\":25172:25176   */\n      0x12\n        /* \"#utility.yul\":25169:25170   */\n      0x04\n        /* \"#utility.yul\":25162:25177   */\n      mstore\n        /* \"#utility.yul\":25196:25200   */\n      0x24\n        /* \"#utility.yul\":25193:25194   */\n      0x00\n        /* \"#utility.yul\":25186:25201   */\n      revert\n        /* \"#utility.yul\":25213:25389   */\n    tag_197:\n        /* \"#utility.yul\":25245:25246   */\n      0x00\n        /* \"#utility.yul\":25262:25282   */\n      tag_505\n        /* \"#utility.yul\":25280:25281   */\n      dup3\n        /* \"#utility.yul\":25262:25282   */\n      tag_230\n      jump\t// in\n    tag_505:\n        /* \"#utility.yul\":25257:25282   */\n      swap2\n      pop\n        /* \"#utility.yul\":25296:25316   */\n      tag_506\n        /* \"#utility.yul\":25314:25315   */\n      dup4\n        /* \"#utility.yul\":25296:25316   */\n      tag_230\n      jump\t// in\n    tag_506:\n        /* \"#utility.yul\":25291:25316   */\n      swap3\n      pop\n        /* \"#utility.yul\":25335:25336   */\n      dup3\n        /* \"#utility.yul\":25325:25360   */\n      tag_507\n      jumpi\n        /* \"#utility.yul\":25340:25358   */\n      tag_508\n      tag_282\n      jump\t// in\n    tag_508:\n        /* \"#utility.yul\":25325:25360   */\n    tag_507:\n        /* \"#utility.yul\":25381:25382   */\n      dup3\n        /* \"#utility.yul\":25378:25379   */\n      dup3\n        /* \"#utility.yul\":25374:25383   */\n      mod\n        /* \"#utility.yul\":25369:25383   */\n      swap1\n      pop\n        /* \"#utility.yul\":25213:25389   */\n      swap3\n      swap2\n      pop\n      pop\n      jump\t// out\n        /* \"#utility.yul\":25395:25580   */\n    tag_207:\n        /* \"#utility.yul\":25435:25436   */\n      0x00\n        /* \"#utility.yul\":25452:25472   */\n      tag_510\n        /* \"#utility.yul\":25470:25471   */\n      dup3\n        /* \"#utility.yul\":25452:25472   */\n      tag_230\n      jump\t// in\n    tag_510:\n        /* \"#utility.yul\":25447:25472   */\n      swap2\n      pop\n        /* \"#utility.yul\":25486:25506   */\n      tag_511\n        /* \"#utility.yul\":25504:25505   */\n      dup4\n        /* \"#utility.yul\":25486:25506   */\n      tag_230\n      jump\t// in\n    tag_511:\n        /* \"#utility.yul\":25481:25506   */\n      swap3\n      pop\n        /* \"#utility.yul\":25525:25526   */\n      dup3\n        /* \"#utility.yul\":25515:25550   */\n      tag_512\n      jumpi\n        /* \"#utility.yul\":25530:25548   */\n      tag_513\n      tag_282\n      jump\t// in\n    tag_513:\n        /* \"#utility.yul\":25515:25550   */\n    tag_512:\n        /* \"#utility.yul\":25572:25573   */\n      dup3\n        /* \"#utility.yul\":25569:25570   */\n      dup3\n        /* \"#utility.yul\":25565:25574   */\n      div\n        /* \"#utility.yul\":25560:25574   */\n      swap1\n      pop\n        /* \"#utility.yul\":25395:25580   */\n      swap3\n      swap2\n      pop\n      pop\n      jump\t// out\n        /* \"#utility.yul\":25586:25646   */\n    tag_283:\n        /* \"#utility.yul\":25614:25617   */\n      0x00\n        /* \"#utility.yul\":25635:25640   */\n      dup2\n        /* \"#utility.yul\":25628:25640   */\n      swap1\n      pop\n        /* \"#utility.yul\":25586:25646   */\n      swap2\n      swap1\n      pop\n      jump\t// out\n        /* \"#utility.yul\":25652:25794   */\n    tag_284:\n        /* \"#utility.yul\":25702:25711   */\n      0x00\n        /* \"#utility.yul\":25735:25788   */\n      tag_516\n        /* \"#utility.yul\":25753:25787   */\n      tag_517\n        /* \"#utility.yul\":25762:25786   */\n      tag_518\n        /* \"#utility.yul\":25780:25785   */\n      dup5\n        /* \"#utility.yul\":25762:25786   */\n      tag_234\n      jump\t// in\n    tag_518:\n        /* \"#utility.yul\":25753:25787   */\n      tag_283\n      jump\t// in\n    tag_517:\n        /* \"#utility.yul\":25735:25788   */\n      tag_234\n      jump\t// in\n    tag_516:\n        /* \"#utility.yul\":25722:25788   */\n      swap1\n      pop\n        /* \"#utility.yul\":25652:25794   */\n      swap2\n      swap1\n      pop\n      jump\t// out\n        /* \"#utility.yul\":25800:25926   */\n    tag_285:\n        /* \"#utility.yul\":25850:25859   */\n      0x00\n        /* \"#utility.yul\":25883:25920   */\n      tag_520\n        /* \"#utility.yul\":25914:25919   */\n      dup3\n        /* \"#utility.yul\":25883:25920   */\n      tag_284\n      jump\t// in\n    tag_520:\n        /* \"#utility.yul\":25870:25920   */\n      swap1\n      pop\n        /* \"#utility.yul\":25800:25926   */\n      swap2\n      swap1\n      pop\n      jump\t// out\n        /* \"#utility.yul\":25932:26066   */\n    tag_286:\n        /* \"#utility.yul\":25990:25999   */\n      0x00\n        /* \"#utility.yul\":26023:26060   */\n      tag_522\n        /* \"#utility.yul\":26054:26059   */\n      dup3\n        /* \"#utility.yul\":26023:26060   */\n      tag_285\n      jump\t// in\n    tag_522:\n        /* \"#utility.yul\":26010:26060   */\n      swap1\n      pop\n        /* \"#utility.yul\":25932:26066   */\n      swap2\n      swap1\n      pop\n      jump\t// out\n        /* \"#utility.yul\":26072:26219   */\n    tag_287:\n        /* \"#utility.yul\":26167:26212   */\n      tag_524\n        /* \"#utility.yul\":26206:26211   */\n      dup2\n        /* \"#utility.yul\":26167:26212   */\n      tag_286\n      jump\t// in\n    tag_524:\n        /* \"#utility.yul\":26162:26165   */\n      dup3\n        /* \"#utility.yul\":26155:26213   */\n      mstore\n        /* \"#utility.yul\":26072:26219   */\n      pop\n      pop\n      jump\t// out\n        /* \"#utility.yul\":26225:26573   */\n    tag_218:\n        /* \"#utility.yul\":26354:26358   */\n      0x00\n        /* \"#utility.yul\":26392:26394   */\n      0x40\n        /* \"#utility.yul\":26381:26390   */\n      dup3\n        /* \"#utility.yul\":26377:26395   */\n      add\n        /* \"#utility.yul\":26369:26395   */\n      swap1\n      pop\n        /* \"#utility.yul\":26405:26484   */\n      tag_526\n        /* \"#utility.yul\":26481:26482   */\n      0x00\n        /* \"#utility.yul\":26470:26479   */\n      dup4\n        /* \"#utility.yul\":26466:26483   */\n      add\n        /* \"#utility.yul\":26457:26463   */\n      dup6\n        /* \"#utility.yul\":26405:26484   */\n      tag_287\n      jump\t// in\n    tag_526:\n        /* \"#utility.yul\":26494:26566   */\n      tag_527\n        /* \"#utility.yul\":26562:26564   */\n      0x20\n        /* \"#utility.yul\":26551:26560   */\n      dup4\n        /* \"#utility.yul\":26547:26565   */\n      add\n        /* \"#utility.yul\":26538:26544   */\n      dup5\n        /* \"#utility.yul\":26494:26566   */\n      tag_233\n      jump\t// in\n    tag_527:\n        /* \"#utility.yul\":26225:26573   */\n      swap4\n      swap3\n      pop\n      pop\n      pop\n      jump\t// out\n\n    auxdata: 0xa264697066735822122081e7e9f729b113ccf976ee50b318522d692d325b148bd1d67f77d9f244faaf6064736f6c63430008120033\n}\n",
				"bytecode": {
					"linkReferences": {},
					"object": "608060405273555a2d86b9d4a89d61a2df3c6bfc7006ad6aa2cf600160006101000a81548173ffffffffffffffffffffffffffffffffffffffff021916908373ffffffffffffffffffffffffffffffffffffffff16021790555034801561006557600080fd5b50336000806101000a81548173ffffffffffffffffffffffffffffffffffffffff021916908373ffffffffffffffffffffffffffffffffffffffff1602179055506125b2806100b56000396000f3fe608060405234801561001057600080fd5b50600436106100935760003560e01c80635fba3171116100665780635fba31711461014f5780637f06b8a81461016b5780638da5cb5b14610187578063bb15d0bc146101a5578063f6ce4bc5146101d557610093565b80630b0cfcd41461009857806317b937e6146100c85780635a9365e4146100f85780635d4bc0ce14610114575b600080fd5b6100b260048036038101906100ad9190611761565b6101f1565b6040516100bf919061179d565b60405180910390f35b6100e260048036038101906100dd91906117b8565b610220565b6040516100ef9190611839565b60405180910390f35b610112600480360381019061010d91906118b9565b610277565b005b61012e60048036038101906101299190611761565b6105a7565b6040516101469c9b9a99989796959493929190611990565b60405180910390f35b61016960048036038101906101649190611761565b6106a4565b005b61018560048036038101906101809190611a76565b610970565b005b61018f610ce5565b60405161019c9190611839565b60405180910390f35b6101bf60048036038101906101ba9190611add565b610d09565b6040516101cc919061179d565b60405180910390f35b6101ef60048036038101906101ea9190611761565b6110dc565b005b60006002828154811061020757610206611b7f565b5b90600052602060002090600c0201600701549050919050565b6003602052816000526040600020818154811061023c57600080fd5b90600052602060002001600091509150508060000160009054906101000a900473ffffffffffffffffffffffffffffffffffffffff16905081565b60008054906101000a900473ffffffffffffffffffffffffffffffffffffffff1673ffffffffffffffffffffffffffffffffffffffff163373ffffffffffffffffffffffffffffffffffffffff1614610305576040517f08c379a00000000000000000000000000000000000000000000000000000000081526004016102fc90611c0b565b60405180910390fd5b60006002848154811061031b5761031a611b7f565b5b90600052602060002090600c020190506001600281111561033f5761033e611919565b5b8160000160009054906101000a900460ff16600281111561036357610362611919565b5b141580156103a6575060028081111561037f5761037e611919565b5b8160000160009054906101000a900460ff1660028111156103a3576103a2611919565b5b14155b6103e5576040517f08c379a00000000000000000000000000000000000000000000000000000000081526004016103dc90611c77565b60405180910390fd5b806002015460036000868152602001908152602001600020805490501015610442576040517f08c379a000000000000000000000000000000000000000000000000000000000815260040161043990611d09565b60405180910390fd5b600061046584846003600089815260200190815260200160002080549050611280565b9050600060036000878152602001908152602001600020828154811061048e5761048d611b7f565b5b9060005260206000200160000160009054906101000a900473ffffffffffffffffffffffffffffffffffffffff169050808360060160006101000a81548173ffffffffffffffffffffffffffffffffffffffff021916908373ffffffffffffffffffffffffffffffffffffffff16021790555060018360000160006101000a81548160ff0219169083600281111561052957610528611919565b5b02179055508260060160009054906101000a900473ffffffffffffffffffffffffffffffffffffffff1673ffffffffffffffffffffffffffffffffffffffff16867fce2cddfd400adbcf694cea71fb57997f5c7a9fc7487c6f7701c97bcddf21709560405160405180910390a361059f866112d2565b505050505050565b600281815481106105b757600080fd5b90600052602060002090600c02016000915090508060000160009054906101000a900460ff16908060010154908060020154908060030154908060040160009054906101000a900473ffffffffffffffffffffffffffffffffffffffff16908060050154908060060160009054906101000a900473ffffffffffffffffffffffffffffffffffffffff16908060070154908060080154908060090160009054906101000a900473ffffffffffffffffffffffffffffffffffffffff169080600a01549080600b0160009054906101000a900473ffffffffffffffffffffffffffffffffffffffff1690508c565b600281815481106106b8576106b7611b7f565b5b90600052602060002090600c020160040160009054906101000a900473ffffffffffffffffffffffffffffffffffffffff1673ffffffffffffffffffffffffffffffffffffffff163373ffffffffffffffffffffffffffffffffffffffff1614610757576040517f08c379a000000000000000000000000000000000000000000000000000000000815260040161074e90611d9b565b60405180910390fd5b60006003600083815260200190815260200160002080549050146107b0576040517f08c379a00000000000000000000000000000000000000000000000000000000081526004016107a790611e2d565b60405180910390fd5b6000600282815481106107c6576107c5611b7f565b5b90600052602060002090600c02019050600060028111156107ea576107e9611919565b5b8160000160009054906101000a900460ff16600281111561080e5761080d611919565b5b1461084e576040517f08c379a000000000000000000000000000000000000000000000000000000000815260040161084590611ebf565b60405180910390fd5b60008160040160009054906101000a900473ffffffffffffffffffffffffffffffffffffffff16905060008260090160009054906101000a900473ffffffffffffffffffffffffffffffffffffffff1690508073ffffffffffffffffffffffffffffffffffffffff1663a9059cbb8385600301546040518363ffffffff1660e01b81526004016108df929190611edf565b600060405180830381600087803b1580156108f957600080fd5b505af115801561090d573d6000803e3d6000fd5b5050505060028360000160006101000a81548160ff0219169083600281111561093957610938611919565b5b0217905550837ed12fb3853f1b33ba57f4469e7208a47e391853ab650de6721cbbe59505876760405160405180910390a250505050565b8260036000868152602001908152602001600020805490506002868154811061099c5761099b611b7f565b5b90600052602060002090600c0201600101546109b89190611f37565b10156109f9576040517f08c379a00000000000000000000000000000000000000000000000000000000081526004016109f090611fb7565b60405180910390fd5b60028481548110610a0d57610a0c611b7f565b5b90600052602060002090600c020160040160009054906101000a900473ffffffffffffffffffffffffffffffffffffffff1673ffffffffffffffffffffffffffffffffffffffff168273ffffffffffffffffffffffffffffffffffffffff1603610aac576040517f08c379a0000000000000000000000000000000000000000000000000000000008152600401610aa390612049565b60405180910390fd5b60008360028681548110610ac357610ac2611b7f565b5b90600052602060002090600c0201600a0154610adf9190612069565b905060008290508073ffffffffffffffffffffffffffffffffffffffff166323b872dd3330856040518463ffffffff1660e01b8152600401610b23939291906120ab565b600060405180830381600087803b158015610b3d57600080fd5b505af1158015610b51573d6000803e3d6000fd5b50505050600060405180602001604052808673ffffffffffffffffffffffffffffffffffffffff16815250905060005b86811015610c1e5760036000898152602001908152602001600020829080600181540180825580915050600190039060005260206000200160009091909190915060008201518160000160006101000a81548173ffffffffffffffffffffffffffffffffffffffff021916908373ffffffffffffffffffffffffffffffffffffffff16021790555050508080610c16906120e2565b915050610b81565b508260028881548110610c3457610c33611b7f565b5b90600052602060002090600c02016005016000828254610c54919061212a565b925050819055508560028881548110610c7057610c6f611b7f565b5b90600052602060002090600c02016007016000828254610c909190611f37565b925050819055508473ffffffffffffffffffffffffffffffffffffffff1686887f1dea0bd0e9dbea861bff2025a18b89bdc767204ebc6a7ebe66ec8331442387df60405160405180910390a450505050505050565b60008054906101000a900473ffffffffffffffffffffffffffffffffffffffff1681565b6000808811610d4d576040517f08c379a0000000000000000000000000000000000000000000000000000000008152600401610d44906121aa565b60405180910390fd5b60008711610d90576040517f08c379a0000000000000000000000000000000000000000000000000000000008152600401610d879061223c565b60405180910390fd5b60008611610dd3576040517f08c379a0000000000000000000000000000000000000000000000000000000008152600401610dca906122ce565b60405180910390fd5b610ddf8585308b6116a6565b600060405180610180016040528060006002811115610e0157610e00611919565b5b81526020018981526020018881526020018a81526020018673ffffffffffffffffffffffffffffffffffffffff16815260200160008152602001600073ffffffffffffffffffffffffffffffffffffffff168152602001898152602001600081526020018773ffffffffffffffffffffffffffffffffffffffff1681526020018581526020018473ffffffffffffffffffffffffffffffffffffffff16815250905060028190806001815401808255809150506001900390600052602060002090600c020160009091909190915060008201518160000160006101000a81548160ff02191690836002811115610efa57610ef9611919565b5b021790555060208201518160010155604082015181600201556060820151816003015560808201518160040160006101000a81548173ffffffffffffffffffffffffffffffffffffffff021916908373ffffffffffffffffffffffffffffffffffffffff16021790555060a0820151816005015560c08201518160060160006101000a81548173ffffffffffffffffffffffffffffffffffffffff021916908373ffffffffffffffffffffffffffffffffffffffff16021790555060e0820151816007015561010082015181600801556101208201518160090160006101000a81548173ffffffffffffffffffffffffffffffffffffffff021916908373ffffffffffffffffffffffffffffffffffffffff16021790555061014082015181600a015561016082015181600b0160006101000a81548173ffffffffffffffffffffffffffffffffffffffff021916908373ffffffffffffffffffffffffffffffffffffffff16021790555050503373ffffffffffffffffffffffffffffffffffffffff1660016002805490506110909190611f37565b7fcb178589a0d989fbb3e2b855e0fe244bf88db81a5afa0de5ec6a7fd2c16fcb3560405160405180910390a360016002805490506110ce9190611f37565b915050979650505050505050565b60008054906101000a900473ffffffffffffffffffffffffffffffffffffffff1673ffffffffffffffffffffffffffffffffffffffff163373ffffffffffffffffffffffffffffffffffffffff161461116a576040517f08c379a000000000000000000000000000000000000000000000000000000000815260040161116190612360565b60405180910390fd5b6000600282815481106111805761117f611b7f565b5b90600052602060002090600c0201905060008160090160009054906101000a900473ffffffffffffffffffffffffffffffffffffffff1690508073ffffffffffffffffffffffffffffffffffffffff1663a9059cbb8360040160009054906101000a900473ffffffffffffffffffffffffffffffffffffffff1684600301546040518363ffffffff1660e01b815260040161121c929190611edf565b600060405180830381600087803b15801561123657600080fd5b505af115801561124a573d6000803e3d6000fd5b5050505060018260000160006101000a81548160ff0219169083600281111561127657611275611919565b5b0217905550505050565b600060018261128f919061212a565b423386866040516020016112a69493929190612428565b6040516020818303038152906040528051906020012060001c6112c99190612492565b90509392505050565b6000600282815481106112e8576112e7611b7f565b5b90600052602060002090600c0201604051806101800160405290816000820160009054906101000a900460ff16600281111561132757611326611919565b5b600281111561133957611338611919565b5b81526020016001820154815260200160028201548152602001600382015481526020016004820160009054906101000a900473ffffffffffffffffffffffffffffffffffffffff1673ffffffffffffffffffffffffffffffffffffffff1673ffffffffffffffffffffffffffffffffffffffff168152602001600582015481526020016006820160009054906101000a900473ffffffffffffffffffffffffffffffffffffffff1673ffffffffffffffffffffffffffffffffffffffff1673ffffffffffffffffffffffffffffffffffffffff16815260200160078201548152602001600882015481526020016009820160009054906101000a900473ffffffffffffffffffffffffffffffffffffffff1673ffffffffffffffffffffffffffffffffffffffff1673ffffffffffffffffffffffffffffffffffffffff168152602001600a8201548152602001600b820160009054906101000a900473ffffffffffffffffffffffffffffffffffffffff1673ffffffffffffffffffffffffffffffffffffffff1673ffffffffffffffffffffffffffffffffffffffff168152505090506000816101200151905060648260a001516114f891906124c3565b8261010001818152505060008261010001518360a001516115199190611f37565b90508173ffffffffffffffffffffffffffffffffffffffff1663a9059cbb8460c0015185606001516040518363ffffffff1660e01b815260040161155e929190611edf565b600060405180830381600087803b15801561157857600080fd5b505af115801561158c573d6000803e3d6000fd5b50505050600083610160015190508073ffffffffffffffffffffffffffffffffffffffff1663a9059cbb8560800151846040518363ffffffff1660e01b81526004016115d9929190611edf565b600060405180830381600087803b1580156115f357600080fd5b505af1158015611607573d6000803e3d6000fd5b505050508073ffffffffffffffffffffffffffffffffffffffff1663a9059cbb600160009054906101000a900473ffffffffffffffffffffffffffffffffffffffff168661010001516040518363ffffffff1660e01b815260040161166d929190612553565b600060405180830381600087803b15801561168757600080fd5b505af115801561169b573d6000803e3d6000fd5b505050505050505050565b60008490508073ffffffffffffffffffffffffffffffffffffffff166323b872dd8585856040518463ffffffff1660e01b81526004016116e8939291906120ab565b600060405180830381600087803b15801561170257600080fd5b505af1158015611716573d6000803e3d6000fd5b505050505050505050565b600080fd5b600080fd5b6000819050919050565b61173e8161172b565b811461174957600080fd5b50565b60008135905061175b81611735565b92915050565b60006020828403121561177757611776611721565b5b60006117858482850161174c565b91505092915050565b6117978161172b565b82525050565b60006020820190506117b2600083018461178e565b92915050565b600080604083850312156117cf576117ce611721565b5b60006117dd8582860161174c565b92505060206117ee8582860161174c565b9150509250929050565b600073ffffffffffffffffffffffffffffffffffffffff82169050919050565b6000611823826117f8565b9050919050565b61183381611818565b82525050565b600060208201905061184e600083018461182a565b92915050565b600080fd5b600080fd5b600080fd5b60008083601f84011261187957611878611854565b5b8235905067ffffffffffffffff81111561189657611895611859565b5b6020830191508360018202830111156118b2576118b161185e565b5b9250929050565b6000806000604084860312156118d2576118d1611721565b5b60006118e08682870161174c565b935050602084013567ffffffffffffffff81111561190157611900611726565b5b61190d86828701611863565b92509250509250925092565b7f4e487b7100000000000000000000000000000000000000000000000000000000600052602160045260246000fd5b6003811061195957611958611919565b5b50565b600081905061196a82611948565b919050565b600061197a8261195c565b9050919050565b61198a8161196f565b82525050565b6000610180820190506119a6600083018f611981565b6119b3602083018e61178e565b6119c0604083018d61178e565b6119cd606083018c61178e565b6119da608083018b61182a565b6119e760a083018a61178e565b6119f460c083018961182a565b611a0160e083018861178e565b611a0f61010083018761178e565b611a1d61012083018661182a565b611a2b61014083018561178e565b611a3961016083018461182a565b9d9c50505050505050505050505050565b611a5381611818565b8114611a5e57600080fd5b50565b600081359050611a7081611a4a565b92915050565b60008060008060808587031215611a9057611a8f611721565b5b6000611a9e8782880161174c565b9450506020611aaf8782880161174c565b9350506040611ac087828801611a61565b9250506060611ad187828801611a61565b91505092959194509250565b600080600080600080600060e0888a031215611afc57611afb611721565b5b6000611b0a8a828b0161174c565b9750506020611b1b8a828b0161174c565b9650506040611b2c8a828b0161174c565b9550506060611b3d8a828b01611a61565b9450506080611b4e8a828b01611a61565b93505060a0611b5f8a828b0161174c565b92505060c0611b708a828b01611a61565b91505092959891949750929550565b7f4e487b7100000000000000000000000000000000000000000000000000000000600052603260045260246000fd5b600082825260208201905092915050565b7f566f6365206e616f20706f6465207265616c697a6172206f20736f727465696f600082015250565b6000611bf5602083611bae565b9150611c0082611bbf565b602082019050919050565b60006020820190508181036000830152611c2481611be8565b9050919050565b7f4f20526166666c65206a6120666f692066696e616c697a61646f000000000000600082015250565b6000611c61601a83611bae565b9150611c6c82611c2b565b602082019050919050565b60006020820190508181036000830152611c9081611c54565b9050919050565b7f5175616e746964616465206465207469636b65747320696e737566696369656e60008201527f7465000000000000000000000000000000000000000000000000000000000000602082015250565b6000611cf3602283611bae565b9150611cfe82611c97565b604082019050919050565b60006020820190508181036000830152611d2281611ce6565b9050919050565b7f566f6365206e616f2074656d207065726d697373616f2070617261207265616c60008201527f697a61722065737361206163616f000000000000000000000000000000000000602082015250565b6000611d85602e83611bae565b9150611d9082611d29565b604082019050919050565b60006020820190508181036000830152611db481611d78565b9050919050565b7f566f6365206e616f20706f6465206d6169732063616e63656c6172206573736560008201527f20726166666c6500000000000000000000000000000000000000000000000000602082015250565b6000611e17602783611bae565b9150611e2282611dbb565b604082019050919050565b60006020820190508181036000830152611e4681611e0a565b9050919050565b7f4573746520726166666c65206a61206e616f2065737461206d616973206f636f60008201527f7272656e646f0000000000000000000000000000000000000000000000000000602082015250565b6000611ea9602683611bae565b9150611eb482611e4d565b604082019050919050565b60006020820190508181036000830152611ed881611e9c565b9050919050565b6000604082019050611ef4600083018561182a565b611f01602083018461178e565b9392505050565b7f4e487b7100000000000000000000000000000000000000000000000000000000600052601160045260246000fd5b6000611f428261172b565b9150611f4d8361172b565b9250828203905081811115611f6557611f64611f08565b5b92915050565b7f71746420696e646973706f6e6976656c00000000000000000000000000000000600082015250565b6000611fa1601083611bae565b9150611fac82611f6b565b602082019050919050565b60006020820190508181036000830152611fd081611f94565b9050919050565b7f4f2073656c6c6572206e616f20706f646520636f6d7072617220656e7472616460008201527f617320646f2070726f7072696f20736f727465696f0000000000000000000000602082015250565b6000612033603583611bae565b915061203e82611fd7565b604082019050919050565b6000602082019050818103600083015261206281612026565b9050919050565b60006120748261172b565b915061207f8361172b565b925082820261208d8161172b565b915082820484148315176120a4576120a3611f08565b5b5092915050565b60006060820190506120c0600083018661182a565b6120cd602083018561182a565b6120da604083018461178e565b949350505050565b60006120ed8261172b565b91507fffffffffffffffffffffffffffffffffffffffffffffffffffffffffffffffff820361211f5761211e611f08565b5b600182019050919050565b60006121358261172b565b91506121408361172b565b925082820190508082111561215857612157611f08565b5b92915050565b7f4f2076616c6f72207061676f206e616f20706f64652073657220300000000000600082015250565b6000612194601b83611bae565b915061219f8261215e565b602082019050919050565b600060208201905081810360008301526121c381612187565b9050919050565b7f41207175616e746964616465206465207469636b657473206e616f20706f646560008201527f2073657220300000000000000000000000000000000000000000000000000000602082015250565b6000612226602683611bae565b9150612231826121ca565b604082019050919050565b6000602082019050818103600083015261225581612219565b9050919050565b7f41207175616e746964616465206d696e696d61206465207469636b657473206e60008201527f616f20706f646520736572203000000000000000000000000000000000000000602082015250565b60006122b8602d83611bae565b91506122c38261225c565b604082019050919050565b600060208201905081810360008301526122e7816122ab565b9050919050565b7f4170656e6173206f206f776e657220706f6465207265616c697a61722061206460008201527f65766f6c7563616f000000000000000000000000000000000000000000000000602082015250565b600061234a602883611bae565b9150612355826122ee565b604082019050919050565b600060208201905081810360008301526123798161233d565b9050919050565b6000819050919050565b61239b6123968261172b565b612380565b82525050565b60008160601b9050919050565b60006123b9826123a1565b9050919050565b60006123cb826123ae565b9050919050565b6123e36123de82611818565b6123c0565b82525050565b600081905092915050565b82818337600083830152505050565b600061240f83856123e9565b935061241c8385846123f4565b82840190509392505050565b6000612434828761238a565b60208201915061244482866123d2565b601482019150612455828486612403565b915081905095945050505050565b7f4e487b7100000000000000000000000000000000000000000000000000000000600052601260045260246000fd5b600061249d8261172b565b91506124a88361172b565b9250826124b8576124b7612463565b5b828206905092915050565b60006124ce8261172b565b91506124d98361172b565b9250826124e9576124e8612463565b5b828204905092915050565b6000819050919050565b600061251961251461250f846117f8565b6124f4565b6117f8565b9050919050565b600061252b826124fe565b9050919050565b600061253d82612520565b9050919050565b61254d81612532565b82525050565b60006040820190506125686000830185612544565b612575602083018461178e565b939250505056fea264697066735822122081e7e9f729b113ccf976ee50b318522d692d325b148bd1d67f77d9f244faaf6064736f6c63430008120033",
					"opcodes": "PUSH1 0x80 PUSH1 0x40 MSTORE PUSH20 0x555A2D86B9D4A89D61A2DF3C6BFC7006AD6AA2CF PUSH1 0x1 PUSH1 0x0 PUSH2 0x100 EXP DUP2 SLOAD DUP2 PUSH20 0xFFFFFFFFFFFFFFFFFFFFFFFFFFFFFFFFFFFFFFFF MUL NOT AND SWAP1 DUP4 PUSH20 0xFFFFFFFFFFFFFFFFFFFFFFFFFFFFFFFFFFFFFFFF AND MUL OR SWAP1 SSTORE POP CALLVALUE DUP1 ISZERO PUSH2 0x65 JUMPI PUSH1 0x0 DUP1 REVERT JUMPDEST POP CALLER PUSH1 0x0 DUP1 PUSH2 0x100 EXP DUP2 SLOAD DUP2 PUSH20 0xFFFFFFFFFFFFFFFFFFFFFFFFFFFFFFFFFFFFFFFF MUL NOT AND SWAP1 DUP4 PUSH20 0xFFFFFFFFFFFFFFFFFFFFFFFFFFFFFFFFFFFFFFFF AND MUL OR SWAP1 SSTORE POP PUSH2 0x25B2 DUP1 PUSH2 0xB5 PUSH1 0x0 CODECOPY PUSH1 0x0 RETURN INVALID PUSH1 0x80 PUSH1 0x40 MSTORE CALLVALUE DUP1 ISZERO PUSH2 0x10 JUMPI PUSH1 0x0 DUP1 REVERT JUMPDEST POP PUSH1 0x4 CALLDATASIZE LT PUSH2 0x93 JUMPI PUSH1 0x0 CALLDATALOAD PUSH1 0xE0 SHR DUP1 PUSH4 0x5FBA3171 GT PUSH2 0x66 JUMPI DUP1 PUSH4 0x5FBA3171 EQ PUSH2 0x14F JUMPI DUP1 PUSH4 0x7F06B8A8 EQ PUSH2 0x16B JUMPI DUP1 PUSH4 0x8DA5CB5B EQ PUSH2 0x187 JUMPI DUP1 PUSH4 0xBB15D0BC EQ PUSH2 0x1A5 JUMPI DUP1 PUSH4 0xF6CE4BC5 EQ PUSH2 0x1D5 JUMPI PUSH2 0x93 JUMP JUMPDEST DUP1 PUSH4 0xB0CFCD4 EQ PUSH2 0x98 JUMPI DUP1 PUSH4 0x17B937E6 EQ PUSH2 0xC8 JUMPI DUP1 PUSH4 0x5A9365E4 EQ PUSH2 0xF8 JUMPI DUP1 PUSH4 0x5D4BC0CE EQ PUSH2 0x114 JUMPI JUMPDEST PUSH1 0x0 DUP1 REVERT JUMPDEST PUSH2 0xB2 PUSH1 0x4 DUP1 CALLDATASIZE SUB DUP2 ADD SWAP1 PUSH2 0xAD SWAP2 SWAP1 PUSH2 0x1761 JUMP JUMPDEST PUSH2 0x1F1 JUMP JUMPDEST PUSH1 0x40 MLOAD PUSH2 0xBF SWAP2 SWAP1 PUSH2 0x179D JUMP JUMPDEST PUSH1 0x40 MLOAD DUP1 SWAP2 SUB SWAP1 RETURN JUMPDEST PUSH2 0xE2 PUSH1 0x4 DUP1 CALLDATASIZE SUB DUP2 ADD SWAP1 PUSH2 0xDD SWAP2 SWAP1 PUSH2 0x17B8 JUMP JUMPDEST PUSH2 0x220 JUMP JUMPDEST PUSH1 0x40 MLOAD PUSH2 0xEF SWAP2 SWAP1 PUSH2 0x1839 JUMP JUMPDEST PUSH1 0x40 MLOAD DUP1 SWAP2 SUB SWAP1 RETURN JUMPDEST PUSH2 0x112 PUSH1 0x4 DUP1 CALLDATASIZE SUB DUP2 ADD SWAP1 PUSH2 0x10D SWAP2 SWAP1 PUSH2 0x18B9 JUMP JUMPDEST PUSH2 0x277 JUMP JUMPDEST STOP JUMPDEST PUSH2 0x12E PUSH1 0x4 DUP1 CALLDATASIZE SUB DUP2 ADD SWAP1 PUSH2 0x129 SWAP2 SWAP1 PUSH2 0x1761 JUMP JUMPDEST PUSH2 0x5A7 JUMP JUMPDEST PUSH1 0x40 MLOAD PUSH2 0x146 SWAP13 SWAP12 SWAP11 SWAP10 SWAP9 SWAP8 SWAP7 SWAP6 SWAP5 SWAP4 SWAP3 SWAP2 SWAP1 PUSH2 0x1990 JUMP JUMPDEST PUSH1 0x40 MLOAD DUP1 SWAP2 SUB SWAP1 RETURN JUMPDEST PUSH2 0x169 PUSH1 0x4 DUP1 CALLDATASIZE SUB DUP2 ADD SWAP1 PUSH2 0x164 SWAP2 SWAP1 PUSH2 0x1761 JUMP JUMPDEST PUSH2 0x6A4 JUMP JUMPDEST STOP JUMPDEST PUSH2 0x185 PUSH1 0x4 DUP1 CALLDATASIZE SUB DUP2 ADD SWAP1 PUSH2 0x180 SWAP2 SWAP1 PUSH2 0x1A76 JUMP JUMPDEST PUSH2 0x970 JUMP JUMPDEST STOP JUMPDEST PUSH2 0x18F PUSH2 0xCE5 JUMP JUMPDEST PUSH1 0x40 MLOAD PUSH2 0x19C SWAP2 SWAP1 PUSH2 0x1839 JUMP JUMPDEST PUSH1 0x40 MLOAD DUP1 SWAP2 SUB SWAP1 RETURN JUMPDEST PUSH2 0x1BF PUSH1 0x4 DUP1 CALLDATASIZE SUB DUP2 ADD SWAP1 PUSH2 0x1BA SWAP2 SWAP1 PUSH2 0x1ADD JUMP JUMPDEST PUSH2 0xD09 JUMP JUMPDEST PUSH1 0x40 MLOAD PUSH2 0x1CC SWAP2 SWAP1 PUSH2 0x179D JUMP JUMPDEST PUSH1 0x40 MLOAD DUP1 SWAP2 SUB SWAP1 RETURN JUMPDEST PUSH2 0x1EF PUSH1 0x4 DUP1 CALLDATASIZE SUB DUP2 ADD SWAP1 PUSH2 0x1EA SWAP2 SWAP1 PUSH2 0x1761 JUMP JUMPDEST PUSH2 0x10DC JUMP JUMPDEST STOP JUMPDEST PUSH1 0x0 PUSH1 0x2 DUP3 DUP2 SLOAD DUP2 LT PUSH2 0x207 JUMPI PUSH2 0x206 PUSH2 0x1B7F JUMP JUMPDEST JUMPDEST SWAP1 PUSH1 0x0 MSTORE PUSH1 0x20 PUSH1 0x0 KECCAK256 SWAP1 PUSH1 0xC MUL ADD PUSH1 0x7 ADD SLOAD SWAP1 POP SWAP2 SWAP1 POP JUMP JUMPDEST PUSH1 0x3 PUSH1 0x20 MSTORE DUP2 PUSH1 0x0 MSTORE PUSH1 0x40 PUSH1 0x0 KECCAK256 DUP2 DUP2 SLOAD DUP2 LT PUSH2 0x23C JUMPI PUSH1 0x0 DUP1 REVERT JUMPDEST SWAP1 PUSH1 0x0 MSTORE PUSH1 0x20 PUSH1 0x0 KECCAK256 ADD PUSH1 0x0 SWAP2 POP SWAP2 POP POP DUP1 PUSH1 0x0 ADD PUSH1 0x0 SWAP1 SLOAD SWAP1 PUSH2 0x100 EXP SWAP1 DIV PUSH20 0xFFFFFFFFFFFFFFFFFFFFFFFFFFFFFFFFFFFFFFFF AND SWAP1 POP DUP2 JUMP JUMPDEST PUSH1 0x0 DUP1 SLOAD SWAP1 PUSH2 0x100 EXP SWAP1 DIV PUSH20 0xFFFFFFFFFFFFFFFFFFFFFFFFFFFFFFFFFFFFFFFF AND PUSH20 0xFFFFFFFFFFFFFFFFFFFFFFFFFFFFFFFFFFFFFFFF AND CALLER PUSH20 0xFFFFFFFFFFFFFFFFFFFFFFFFFFFFFFFFFFFFFFFF AND EQ PUSH2 0x305 JUMPI PUSH1 0x40 MLOAD PUSH32 0x8C379A000000000000000000000000000000000000000000000000000000000 DUP2 MSTORE PUSH1 0x4 ADD PUSH2 0x2FC SWAP1 PUSH2 0x1C0B JUMP JUMPDEST PUSH1 0x40 MLOAD DUP1 SWAP2 SUB SWAP1 REVERT JUMPDEST PUSH1 0x0 PUSH1 0x2 DUP5 DUP2 SLOAD DUP2 LT PUSH2 0x31B JUMPI PUSH2 0x31A PUSH2 0x1B7F JUMP JUMPDEST JUMPDEST SWAP1 PUSH1 0x0 MSTORE PUSH1 0x20 PUSH1 0x0 KECCAK256 SWAP1 PUSH1 0xC MUL ADD SWAP1 POP PUSH1 0x1 PUSH1 0x2 DUP2 GT ISZERO PUSH2 0x33F JUMPI PUSH2 0x33E PUSH2 0x1919 JUMP JUMPDEST JUMPDEST DUP2 PUSH1 0x0 ADD PUSH1 0x0 SWAP1 SLOAD SWAP1 PUSH2 0x100 EXP SWAP1 DIV PUSH1 0xFF AND PUSH1 0x2 DUP2 GT ISZERO PUSH2 0x363 JUMPI PUSH2 0x362 PUSH2 0x1919 JUMP JUMPDEST JUMPDEST EQ ISZERO DUP1 ISZERO PUSH2 0x3A6 JUMPI POP PUSH1 0x2 DUP1 DUP2 GT ISZERO PUSH2 0x37F JUMPI PUSH2 0x37E PUSH2 0x1919 JUMP JUMPDEST JUMPDEST DUP2 PUSH1 0x0 ADD PUSH1 0x0 SWAP1 SLOAD SWAP1 PUSH2 0x100 EXP SWAP1 DIV PUSH1 0xFF AND PUSH1 0x2 DUP2 GT ISZERO PUSH2 0x3A3 JUMPI PUSH2 0x3A2 PUSH2 0x1919 JUMP JUMPDEST JUMPDEST EQ ISZERO JUMPDEST PUSH2 0x3E5 JUMPI PUSH1 0x40 MLOAD PUSH32 0x8C379A000000000000000000000000000000000000000000000000000000000 DUP2 MSTORE PUSH1 0x4 ADD PUSH2 0x3DC SWAP1 PUSH2 0x1C77 JUMP JUMPDEST PUSH1 0x40 MLOAD DUP1 SWAP2 SUB SWAP1 REVERT JUMPDEST DUP1 PUSH1 0x2 ADD SLOAD PUSH1 0x3 PUSH1 0x0 DUP7 DUP2 MSTORE PUSH1 0x20 ADD SWAP1 DUP2 MSTORE PUSH1 0x20 ADD PUSH1 0x0 KECCAK256 DUP1 SLOAD SWAP1 POP LT ISZERO PUSH2 0x442 JUMPI PUSH1 0x40 MLOAD PUSH32 0x8C379A000000000000000000000000000000000000000000000000000000000 DUP2 MSTORE PUSH1 0x4 ADD PUSH2 0x439 SWAP1 PUSH2 0x1D09 JUMP JUMPDEST PUSH1 0x40 MLOAD DUP1 SWAP2 SUB SWAP1 REVERT JUMPDEST PUSH1 0x0 PUSH2 0x465 DUP5 DUP5 PUSH1 0x3 PUSH1 0x0 DUP10 DUP2 MSTORE PUSH1 0x20 ADD SWAP1 DUP2 MSTORE PUSH1 0x20 ADD PUSH1 0x0 KECCAK256 DUP1 SLOAD SWAP1 POP PUSH2 0x1280 JUMP JUMPDEST SWAP1 POP PUSH1 0x0 PUSH1 0x3 PUSH1 0x0 DUP8 DUP2 MSTORE PUSH1 0x20 ADD SWAP1 DUP2 MSTORE PUSH1 0x20 ADD PUSH1 0x0 KECCAK256 DUP3 DUP2 SLOAD DUP2 LT PUSH2 0x48E JUMPI PUSH2 0x48D PUSH2 0x1B7F JUMP JUMPDEST JUMPDEST SWAP1 PUSH1 0x0 MSTORE PUSH1 0x20 PUSH1 0x0 KECCAK256 ADD PUSH1 0x0 ADD PUSH1 0x0 SWAP1 SLOAD SWAP1 PUSH2 0x100 EXP SWAP1 DIV PUSH20 0xFFFFFFFFFFFFFFFFFFFFFFFFFFFFFFFFFFFFFFFF AND SWAP1 POP DUP1 DUP4 PUSH1 0x6 ADD PUSH1 0x0 PUSH2 0x100 EXP DUP2 SLOAD DUP2 PUSH20 0xFFFFFFFFFFFFFFFFFFFFFFFFFFFFFFFFFFFFFFFF MUL NOT AND SWAP1 DUP4 PUSH20 0xFFFFFFFFFFFFFFFFFFFFFFFFFFFFFFFFFFFFFFFF AND MUL OR SWAP1 SSTORE POP PUSH1 0x1 DUP4 PUSH1 0x0 ADD PUSH1 0x0 PUSH2 0x100 EXP DUP2 SLOAD DUP2 PUSH1 0xFF MUL NOT AND SWAP1 DUP4 PUSH1 0x2 DUP2 GT ISZERO PUSH2 0x529 JUMPI PUSH2 0x528 PUSH2 0x1919 JUMP JUMPDEST JUMPDEST MUL OR SWAP1 SSTORE POP DUP3 PUSH1 0x6 ADD PUSH1 0x0 SWAP1 SLOAD SWAP1 PUSH2 0x100 EXP SWAP1 DIV PUSH20 0xFFFFFFFFFFFFFFFFFFFFFFFFFFFFFFFFFFFFFFFF AND PUSH20 0xFFFFFFFFFFFFFFFFFFFFFFFFFFFFFFFFFFFFFFFF AND DUP7 PUSH32 0xCE2CDDFD400ADBCF694CEA71FB57997F5C7A9FC7487C6F7701C97BCDDF217095 PUSH1 0x40 MLOAD PUSH1 0x40 MLOAD DUP1 SWAP2 SUB SWAP1 LOG3 PUSH2 0x59F DUP7 PUSH2 0x12D2 JUMP JUMPDEST POP POP POP POP POP POP JUMP JUMPDEST PUSH1 0x2 DUP2 DUP2 SLOAD DUP2 LT PUSH2 0x5B7 JUMPI PUSH1 0x0 DUP1 REVERT JUMPDEST SWAP1 PUSH1 0x0 MSTORE PUSH1 0x20 PUSH1 0x0 KECCAK256 SWAP1 PUSH1 0xC MUL ADD PUSH1 0x0 SWAP2 POP SWAP1 POP DUP1 PUSH1 0x0 ADD PUSH1 0x0 SWAP1 SLOAD SWAP1 PUSH2 0x100 EXP SWAP1 DIV PUSH1 0xFF AND SWAP1 DUP1 PUSH1 0x1 ADD SLOAD SWAP1 DUP1 PUSH1 0x2 ADD SLOAD SWAP1 DUP1 PUSH1 0x3 ADD SLOAD SWAP1 DUP1 PUSH1 0x4 ADD PUSH1 0x0 SWAP1 SLOAD SWAP1 PUSH2 0x100 EXP SWAP1 DIV PUSH20 0xFFFFFFFFFFFFFFFFFFFFFFFFFFFFFFFFFFFFFFFF AND SWAP1 DUP1 PUSH1 0x5 ADD SLOAD SWAP1 DUP1 PUSH1 0x6 ADD PUSH1 0x0 SWAP1 SLOAD SWAP1 PUSH2 0x100 EXP SWAP1 DIV PUSH20 0xFFFFFFFFFFFFFFFFFFFFFFFFFFFFFFFFFFFFFFFF AND SWAP1 DUP1 PUSH1 0x7 ADD SLOAD SWAP1 DUP1 PUSH1 0x8 ADD SLOAD SWAP1 DUP1 PUSH1 0x9 ADD PUSH1 0x0 SWAP1 SLOAD SWAP1 PUSH2 0x100 EXP SWAP1 DIV PUSH20 0xFFFFFFFFFFFFFFFFFFFFFFFFFFFFFFFFFFFFFFFF AND SWAP1 DUP1 PUSH1 0xA ADD SLOAD SWAP1 DUP1 PUSH1 0xB ADD PUSH1 0x0 SWAP1 SLOAD SWAP1 PUSH2 0x100 EXP SWAP1 DIV PUSH20 0xFFFFFFFFFFFFFFFFFFFFFFFFFFFFFFFFFFFFFFFF AND SWAP1 POP DUP13 JUMP JUMPDEST PUSH1 0x2 DUP2 DUP2 SLOAD DUP2 LT PUSH2 0x6B8 JUMPI PUSH2 0x6B7 PUSH2 0x1B7F JUMP JUMPDEST JUMPDEST SWAP1 PUSH1 0x0 MSTORE PUSH1 0x20 PUSH1 0x0 KECCAK256 SWAP1 PUSH1 0xC MUL ADD PUSH1 0x4 ADD PUSH1 0x0 SWAP1 SLOAD SWAP1 PUSH2 0x100 EXP SWAP1 DIV PUSH20 0xFFFFFFFFFFFFFFFFFFFFFFFFFFFFFFFFFFFFFFFF AND PUSH20 0xFFFFFFFFFFFFFFFFFFFFFFFFFFFFFFFFFFFFFFFF AND CALLER PUSH20 0xFFFFFFFFFFFFFFFFFFFFFFFFFFFFFFFFFFFFFFFF AND EQ PUSH2 0x757 JUMPI PUSH1 0x40 MLOAD PUSH32 0x8C379A000000000000000000000000000000000000000000000000000000000 DUP2 MSTORE PUSH1 0x4 ADD PUSH2 0x74E SWAP1 PUSH2 0x1D9B JUMP JUMPDEST PUSH1 0x40 MLOAD DUP1 SWAP2 SUB SWAP1 REVERT JUMPDEST PUSH1 0x0 PUSH1 0x3 PUSH1 0x0 DUP4 DUP2 MSTORE PUSH1 0x20 ADD SWAP1 DUP2 MSTORE PUSH1 0x20 ADD PUSH1 0x0 KECCAK256 DUP1 SLOAD SWAP1 POP EQ PUSH2 0x7B0 JUMPI PUSH1 0x40 MLOAD PUSH32 0x8C379A000000000000000000000000000000000000000000000000000000000 DUP2 MSTORE PUSH1 0x4 ADD PUSH2 0x7A7 SWAP1 PUSH2 0x1E2D JUMP JUMPDEST PUSH1 0x40 MLOAD DUP1 SWAP2 SUB SWAP1 REVERT JUMPDEST PUSH1 0x0 PUSH1 0x2 DUP3 DUP2 SLOAD DUP2 LT PUSH2 0x7C6 JUMPI PUSH2 0x7C5 PUSH2 0x1B7F JUMP JUMPDEST JUMPDEST SWAP1 PUSH1 0x0 MSTORE PUSH1 0x20 PUSH1 0x0 KECCAK256 SWAP1 PUSH1 0xC MUL ADD SWAP1 POP PUSH1 0x0 PUSH1 0x2 DUP2 GT ISZERO PUSH2 0x7EA JUMPI PUSH2 0x7E9 PUSH2 0x1919 JUMP JUMPDEST JUMPDEST DUP2 PUSH1 0x0 ADD PUSH1 0x0 SWAP1 SLOAD SWAP1 PUSH2 0x100 EXP SWAP1 DIV PUSH1 0xFF AND PUSH1 0x2 DUP2 GT ISZERO PUSH2 0x80E JUMPI PUSH2 0x80D PUSH2 0x1919 JUMP JUMPDEST JUMPDEST EQ PUSH2 0x84E JUMPI PUSH1 0x40 MLOAD PUSH32 0x8C379A000000000000000000000000000000000000000000000000000000000 DUP2 MSTORE PUSH1 0x4 ADD PUSH2 0x845 SWAP1 PUSH2 0x1EBF JUMP JUMPDEST PUSH1 0x40 MLOAD DUP1 SWAP2 SUB SWAP1 REVERT JUMPDEST PUSH1 0x0 DUP2 PUSH1 0x4 ADD PUSH1 0x0 SWAP1 SLOAD SWAP1 PUSH2 0x100 EXP SWAP1 DIV PUSH20 0xFFFFFFFFFFFFFFFFFFFFFFFFFFFFFFFFFFFFFFFF AND SWAP1 POP PUSH1 0x0 DUP3 PUSH1 0x9 ADD PUSH1 0x0 SWAP1 SLOAD SWAP1 PUSH2 0x100 EXP SWAP1 DIV PUSH20 0xFFFFFFFFFFFFFFFFFFFFFFFFFFFFFFFFFFFFFFFF AND SWAP1 POP DUP1 PUSH20 0xFFFFFFFFFFFFFFFFFFFFFFFFFFFFFFFFFFFFFFFF AND PUSH4 0xA9059CBB DUP4 DUP6 PUSH1 0x3 ADD SLOAD PUSH1 0x40 MLOAD DUP4 PUSH4 0xFFFFFFFF AND PUSH1 0xE0 SHL DUP2 MSTORE PUSH1 0x4 ADD PUSH2 0x8DF SWAP3 SWAP2 SWAP1 PUSH2 0x1EDF JUMP JUMPDEST PUSH1 0x0 PUSH1 0x40 MLOAD DUP1 DUP4 SUB DUP2 PUSH1 0x0 DUP8 DUP1 EXTCODESIZE ISZERO DUP1 ISZERO PUSH2 0x8F9 JUMPI PUSH1 0x0 DUP1 REVERT JUMPDEST POP GAS CALL ISZERO DUP1 ISZERO PUSH2 0x90D JUMPI RETURNDATASIZE PUSH1 0x0 DUP1 RETURNDATACOPY RETURNDATASIZE PUSH1 0x0 REVERT JUMPDEST POP POP POP POP PUSH1 0x2 DUP4 PUSH1 0x0 ADD PUSH1 0x0 PUSH2 0x100 EXP DUP2 SLOAD DUP2 PUSH1 0xFF MUL NOT AND SWAP1 DUP4 PUSH1 0x2 DUP2 GT ISZERO PUSH2 0x939 JUMPI PUSH2 0x938 PUSH2 0x1919 JUMP JUMPDEST JUMPDEST MUL OR SWAP1 SSTORE POP DUP4 PUSH31 0xD12FB3853F1B33BA57F4469E7208A47E391853AB650DE6721CBBE595058767 PUSH1 0x40 MLOAD PUSH1 0x40 MLOAD DUP1 SWAP2 SUB SWAP1 LOG2 POP POP POP POP JUMP JUMPDEST DUP3 PUSH1 0x3 PUSH1 0x0 DUP7 DUP2 MSTORE PUSH1 0x20 ADD SWAP1 DUP2 MSTORE PUSH1 0x20 ADD PUSH1 0x0 KECCAK256 DUP1 SLOAD SWAP1 POP PUSH1 0x2 DUP7 DUP2 SLOAD DUP2 LT PUSH2 0x99C JUMPI PUSH2 0x99B PUSH2 0x1B7F JUMP JUMPDEST JUMPDEST SWAP1 PUSH1 0x0 MSTORE PUSH1 0x20 PUSH1 0x0 KECCAK256 SWAP1 PUSH1 0xC MUL ADD PUSH1 0x1 ADD SLOAD PUSH2 0x9B8 SWAP2 SWAP1 PUSH2 0x1F37 JUMP JUMPDEST LT ISZERO PUSH2 0x9F9 JUMPI PUSH1 0x40 MLOAD PUSH32 0x8C379A000000000000000000000000000000000000000000000000000000000 DUP2 MSTORE PUSH1 0x4 ADD PUSH2 0x9F0 SWAP1 PUSH2 0x1FB7 JUMP JUMPDEST PUSH1 0x40 MLOAD DUP1 SWAP2 SUB SWAP1 REVERT JUMPDEST PUSH1 0x2 DUP5 DUP2 SLOAD DUP2 LT PUSH2 0xA0D JUMPI PUSH2 0xA0C PUSH2 0x1B7F JUMP JUMPDEST JUMPDEST SWAP1 PUSH1 0x0 MSTORE PUSH1 0x20 PUSH1 0x0 KECCAK256 SWAP1 PUSH1 0xC MUL ADD PUSH1 0x4 ADD PUSH1 0x0 SWAP1 SLOAD SWAP1 PUSH2 0x100 EXP SWAP1 DIV PUSH20 0xFFFFFFFFFFFFFFFFFFFFFFFFFFFFFFFFFFFFFFFF AND PUSH20 0xFFFFFFFFFFFFFFFFFFFFFFFFFFFFFFFFFFFFFFFF AND DUP3 PUSH20 0xFFFFFFFFFFFFFFFFFFFFFFFFFFFFFFFFFFFFFFFF AND SUB PUSH2 0xAAC JUMPI PUSH1 0x40 MLOAD PUSH32 0x8C379A000000000000000000000000000000000000000000000000000000000 DUP2 MSTORE PUSH1 0x4 ADD PUSH2 0xAA3 SWAP1 PUSH2 0x2049 JUMP JUMPDEST PUSH1 0x40 MLOAD DUP1 SWAP2 SUB SWAP1 REVERT JUMPDEST PUSH1 0x0 DUP4 PUSH1 0x2 DUP7 DUP2 SLOAD DUP2 LT PUSH2 0xAC3 JUMPI PUSH2 0xAC2 PUSH2 0x1B7F JUMP JUMPDEST JUMPDEST SWAP1 PUSH1 0x0 MSTORE PUSH1 0x20 PUSH1 0x0 KECCAK256 SWAP1 PUSH1 0xC MUL ADD PUSH1 0xA ADD SLOAD PUSH2 0xADF SWAP2 SWAP1 PUSH2 0x2069 JUMP JUMPDEST SWAP1 POP PUSH1 0x0 DUP3 SWAP1 POP DUP1 PUSH20 0xFFFFFFFFFFFFFFFFFFFFFFFFFFFFFFFFFFFFFFFF AND PUSH4 0x23B872DD CALLER ADDRESS DUP6 PUSH1 0x40 MLOAD DUP5 PUSH4 0xFFFFFFFF AND PUSH1 0xE0 SHL DUP2 MSTORE PUSH1 0x4 ADD PUSH2 0xB23 SWAP4 SWAP3 SWAP2 SWAP1 PUSH2 0x20AB JUMP JUMPDEST PUSH1 0x0 PUSH1 0x40 MLOAD DUP1 DUP4 SUB DUP2 PUSH1 0x0 DUP8 DUP1 EXTCODESIZE ISZERO DUP1 ISZERO PUSH2 0xB3D JUMPI PUSH1 0x0 DUP1 REVERT JUMPDEST POP GAS CALL ISZERO DUP1 ISZERO PUSH2 0xB51 JUMPI RETURNDATASIZE PUSH1 0x0 DUP1 RETURNDATACOPY RETURNDATASIZE PUSH1 0x0 REVERT JUMPDEST POP POP POP POP PUSH1 0x0 PUSH1 0x40 MLOAD DUP1 PUSH1 0x20 ADD PUSH1 0x40 MSTORE DUP1 DUP7 PUSH20 0xFFFFFFFFFFFFFFFFFFFFFFFFFFFFFFFFFFFFFFFF AND DUP2 MSTORE POP SWAP1 POP PUSH1 0x0 JUMPDEST DUP7 DUP2 LT ISZERO PUSH2 0xC1E JUMPI PUSH1 0x3 PUSH1 0x0 DUP10 DUP2 MSTORE PUSH1 0x20 ADD SWAP1 DUP2 MSTORE PUSH1 0x20 ADD PUSH1 0x0 KECCAK256 DUP3 SWAP1 DUP1 PUSH1 0x1 DUP2 SLOAD ADD DUP1 DUP3 SSTORE DUP1 SWAP2 POP POP PUSH1 0x1 SWAP1 SUB SWAP1 PUSH1 0x0 MSTORE PUSH1 0x20 PUSH1 0x0 KECCAK256 ADD PUSH1 0x0 SWAP1 SWAP2 SWAP1 SWAP2 SWAP1 SWAP2 POP PUSH1 0x0 DUP3 ADD MLOAD DUP2 PUSH1 0x0 ADD PUSH1 0x0 PUSH2 0x100 EXP DUP2 SLOAD DUP2 PUSH20 0xFFFFFFFFFFFFFFFFFFFFFFFFFFFFFFFFFFFFFFFF MUL NOT AND SWAP1 DUP4 PUSH20 0xFFFFFFFFFFFFFFFFFFFFFFFFFFFFFFFFFFFFFFFF AND MUL OR SWAP1 SSTORE POP POP POP DUP1 DUP1 PUSH2 0xC16 SWAP1 PUSH2 0x20E2 JUMP JUMPDEST SWAP2 POP POP PUSH2 0xB81 JUMP JUMPDEST POP DUP3 PUSH1 0x2 DUP9 DUP2 SLOAD DUP2 LT PUSH2 0xC34 JUMPI PUSH2 0xC33 PUSH2 0x1B7F JUMP JUMPDEST JUMPDEST SWAP1 PUSH1 0x0 MSTORE PUSH1 0x20 PUSH1 0x0 KECCAK256 SWAP1 PUSH1 0xC MUL ADD PUSH1 0x5 ADD PUSH1 0x0 DUP3 DUP3 SLOAD PUSH2 0xC54 SWAP2 SWAP1 PUSH2 0x212A JUMP JUMPDEST SWAP3 POP POP DUP2 SWAP1 SSTORE POP DUP6 PUSH1 0x2 DUP9 DUP2 SLOAD DUP2 LT PUSH2 0xC70 JUMPI PUSH2 0xC6F PUSH2 0x1B7F JUMP JUMPDEST JUMPDEST SWAP1 PUSH1 0x0 MSTORE PUSH1 0x20 PUSH1 0x0 KECCAK256 SWAP1 PUSH1 0xC MUL ADD PUSH1 0x7 ADD PUSH1 0x0 DUP3 DUP3 SLOAD PUSH2 0xC90 SWAP2 SWAP1 PUSH2 0x1F37 JUMP JUMPDEST SWAP3 POP POP DUP2 SWAP1 SSTORE POP DUP5 PUSH20 0xFFFFFFFFFFFFFFFFFFFFFFFFFFFFFFFFFFFFFFFF AND DUP7 DUP9 PUSH32 0x1DEA0BD0E9DBEA861BFF2025A18B89BDC767204EBC6A7EBE66EC8331442387DF PUSH1 0x40 MLOAD PUSH1 0x40 MLOAD DUP1 SWAP2 SUB SWAP1 LOG4 POP POP POP POP POP POP POP JUMP JUMPDEST PUSH1 0x0 DUP1 SLOAD SWAP1 PUSH2 0x100 EXP SWAP1 DIV PUSH20 0xFFFFFFFFFFFFFFFFFFFFFFFFFFFFFFFFFFFFFFFF AND DUP2 JUMP JUMPDEST PUSH1 0x0 DUP1 DUP9 GT PUSH2 0xD4D JUMPI PUSH1 0x40 MLOAD PUSH32 0x8C379A000000000000000000000000000000000000000000000000000000000 DUP2 MSTORE PUSH1 0x4 ADD PUSH2 0xD44 SWAP1 PUSH2 0x21AA JUMP JUMPDEST PUSH1 0x40 MLOAD DUP1 SWAP2 SUB SWAP1 REVERT JUMPDEST PUSH1 0x0 DUP8 GT PUSH2 0xD90 JUMPI PUSH1 0x40 MLOAD PUSH32 0x8C379A000000000000000000000000000000000000000000000000000000000 DUP2 MSTORE PUSH1 0x4 ADD PUSH2 0xD87 SWAP1 PUSH2 0x223C JUMP JUMPDEST PUSH1 0x40 MLOAD DUP1 SWAP2 SUB SWAP1 REVERT JUMPDEST PUSH1 0x0 DUP7 GT PUSH2 0xDD3 JUMPI PUSH1 0x40 MLOAD PUSH32 0x8C379A000000000000000000000000000000000000000000000000000000000 DUP2 MSTORE PUSH1 0x4 ADD PUSH2 0xDCA SWAP1 PUSH2 0x22CE JUMP JUMPDEST PUSH1 0x40 MLOAD DUP1 SWAP2 SUB SWAP1 REVERT JUMPDEST PUSH2 0xDDF DUP6 DUP6 ADDRESS DUP12 PUSH2 0x16A6 JUMP JUMPDEST PUSH1 0x0 PUSH1 0x40 MLOAD DUP1 PUSH2 0x180 ADD PUSH1 0x40 MSTORE DUP1 PUSH1 0x0 PUSH1 0x2 DUP2 GT ISZERO PUSH2 0xE01 JUMPI PUSH2 0xE00 PUSH2 0x1919 JUMP JUMPDEST JUMPDEST DUP2 MSTORE PUSH1 0x20 ADD DUP10 DUP2 MSTORE PUSH1 0x20 ADD DUP9 DUP2 MSTORE PUSH1 0x20 ADD DUP11 DUP2 MSTORE PUSH1 0x20 ADD DUP7 PUSH20 0xFFFFFFFFFFFFFFFFFFFFFFFFFFFFFFFFFFFFFFFF AND DUP2 MSTORE PUSH1 0x20 ADD PUSH1 0x0 DUP2 MSTORE PUSH1 0x20 ADD PUSH1 0x0 PUSH20 0xFFFFFFFFFFFFFFFFFFFFFFFFFFFFFFFFFFFFFFFF AND DUP2 MSTORE PUSH1 0x20 ADD DUP10 DUP2 MSTORE PUSH1 0x20 ADD PUSH1 0x0 DUP2 MSTORE PUSH1 0x20 ADD DUP8 PUSH20 0xFFFFFFFFFFFFFFFFFFFFFFFFFFFFFFFFFFFFFFFF AND DUP2 MSTORE PUSH1 0x20 ADD DUP6 DUP2 MSTORE PUSH1 0x20 ADD DUP5 PUSH20 0xFFFFFFFFFFFFFFFFFFFFFFFFFFFFFFFFFFFFFFFF AND DUP2 MSTORE POP SWAP1 POP PUSH1 0x2 DUP2 SWAP1 DUP1 PUSH1 0x1 DUP2 SLOAD ADD DUP1 DUP3 SSTORE DUP1 SWAP2 POP POP PUSH1 0x1 SWAP1 SUB SWAP1 PUSH1 0x0 MSTORE PUSH1 0x20 PUSH1 0x0 KECCAK256 SWAP1 PUSH1 0xC MUL ADD PUSH1 0x0 SWAP1 SWAP2 SWAP1 SWAP2 SWAP1 SWAP2 POP PUSH1 0x0 DUP3 ADD MLOAD DUP2 PUSH1 0x0 ADD PUSH1 0x0 PUSH2 0x100 EXP DUP2 SLOAD DUP2 PUSH1 0xFF MUL NOT AND SWAP1 DUP4 PUSH1 0x2 DUP2 GT ISZERO PUSH2 0xEFA JUMPI PUSH2 0xEF9 PUSH2 0x1919 JUMP JUMPDEST JUMPDEST MUL OR SWAP1 SSTORE POP PUSH1 0x20 DUP3 ADD MLOAD DUP2 PUSH1 0x1 ADD SSTORE PUSH1 0x40 DUP3 ADD MLOAD DUP2 PUSH1 0x2 ADD SSTORE PUSH1 0x60 DUP3 ADD MLOAD DUP2 PUSH1 0x3 ADD SSTORE PUSH1 0x80 DUP3 ADD MLOAD DUP2 PUSH1 0x4 ADD PUSH1 0x0 PUSH2 0x100 EXP DUP2 SLOAD DUP2 PUSH20 0xFFFFFFFFFFFFFFFFFFFFFFFFFFFFFFFFFFFFFFFF MUL NOT AND SWAP1 DUP4 PUSH20 0xFFFFFFFFFFFFFFFFFFFFFFFFFFFFFFFFFFFFFFFF AND MUL OR SWAP1 SSTORE POP PUSH1 0xA0 DUP3 ADD MLOAD DUP2 PUSH1 0x5 ADD SSTORE PUSH1 0xC0 DUP3 ADD MLOAD DUP2 PUSH1 0x6 ADD PUSH1 0x0 PUSH2 0x100 EXP DUP2 SLOAD DUP2 PUSH20 0xFFFFFFFFFFFFFFFFFFFFFFFFFFFFFFFFFFFFFFFF MUL NOT AND SWAP1 DUP4 PUSH20 0xFFFFFFFFFFFFFFFFFFFFFFFFFFFFFFFFFFFFFFFF AND MUL OR SWAP1 SSTORE POP PUSH1 0xE0 DUP3 ADD MLOAD DUP2 PUSH1 0x7 ADD SSTORE PUSH2 0x100 DUP3 ADD MLOAD DUP2 PUSH1 0x8 ADD SSTORE PUSH2 0x120 DUP3 ADD MLOAD DUP2 PUSH1 0x9 ADD PUSH1 0x0 PUSH2 0x100 EXP DUP2 SLOAD DUP2 PUSH20 0xFFFFFFFFFFFFFFFFFFFFFFFFFFFFFFFFFFFFFFFF MUL NOT AND SWAP1 DUP4 PUSH20 0xFFFFFFFFFFFFFFFFFFFFFFFFFFFFFFFFFFFFFFFF AND MUL OR SWAP1 SSTORE POP PUSH2 0x140 DUP3 ADD MLOAD DUP2 PUSH1 0xA ADD SSTORE PUSH2 0x160 DUP3 ADD MLOAD DUP2 PUSH1 0xB ADD PUSH1 0x0 PUSH2 0x100 EXP DUP2 SLOAD DUP2 PUSH20 0xFFFFFFFFFFFFFFFFFFFFFFFFFFFFFFFFFFFFFFFF MUL NOT AND SWAP1 DUP4 PUSH20 0xFFFFFFFFFFFFFFFFFFFFFFFFFFFFFFFFFFFFFFFF AND MUL OR SWAP1 SSTORE POP POP POP CALLER PUSH20 0xFFFFFFFFFFFFFFFFFFFFFFFFFFFFFFFFFFFFFFFF AND PUSH1 0x1 PUSH1 0x2 DUP1 SLOAD SWAP1 POP PUSH2 0x1090 SWAP2 SWAP1 PUSH2 0x1F37 JUMP JUMPDEST PUSH32 0xCB178589A0D989FBB3E2B855E0FE244BF88DB81A5AFA0DE5EC6A7FD2C16FCB35 PUSH1 0x40 MLOAD PUSH1 0x40 MLOAD DUP1 SWAP2 SUB SWAP1 LOG3 PUSH1 0x1 PUSH1 0x2 DUP1 SLOAD SWAP1 POP PUSH2 0x10CE SWAP2 SWAP1 PUSH2 0x1F37 JUMP JUMPDEST SWAP2 POP POP SWAP8 SWAP7 POP POP POP POP POP POP POP JUMP JUMPDEST PUSH1 0x0 DUP1 SLOAD SWAP1 PUSH2 0x100 EXP SWAP1 DIV PUSH20 0xFFFFFFFFFFFFFFFFFFFFFFFFFFFFFFFFFFFFFFFF AND PUSH20 0xFFFFFFFFFFFFFFFFFFFFFFFFFFFFFFFFFFFFFFFF AND CALLER PUSH20 0xFFFFFFFFFFFFFFFFFFFFFFFFFFFFFFFFFFFFFFFF AND EQ PUSH2 0x116A JUMPI PUSH1 0x40 MLOAD PUSH32 0x8C379A000000000000000000000000000000000000000000000000000000000 DUP2 MSTORE PUSH1 0x4 ADD PUSH2 0x1161 SWAP1 PUSH2 0x2360 JUMP JUMPDEST PUSH1 0x40 MLOAD DUP1 SWAP2 SUB SWAP1 REVERT JUMPDEST PUSH1 0x0 PUSH1 0x2 DUP3 DUP2 SLOAD DUP2 LT PUSH2 0x1180 JUMPI PUSH2 0x117F PUSH2 0x1B7F JUMP JUMPDEST JUMPDEST SWAP1 PUSH1 0x0 MSTORE PUSH1 0x20 PUSH1 0x0 KECCAK256 SWAP1 PUSH1 0xC MUL ADD SWAP1 POP PUSH1 0x0 DUP2 PUSH1 0x9 ADD PUSH1 0x0 SWAP1 SLOAD SWAP1 PUSH2 0x100 EXP SWAP1 DIV PUSH20 0xFFFFFFFFFFFFFFFFFFFFFFFFFFFFFFFFFFFFFFFF AND SWAP1 POP DUP1 PUSH20 0xFFFFFFFFFFFFFFFFFFFFFFFFFFFFFFFFFFFFFFFF AND PUSH4 0xA9059CBB DUP4 PUSH1 0x4 ADD PUSH1 0x0 SWAP1 SLOAD SWAP1 PUSH2 0x100 EXP SWAP1 DIV PUSH20 0xFFFFFFFFFFFFFFFFFFFFFFFFFFFFFFFFFFFFFFFF AND DUP5 PUSH1 0x3 ADD SLOAD PUSH1 0x40 MLOAD DUP4 PUSH4 0xFFFFFFFF AND PUSH1 0xE0 SHL DUP2 MSTORE PUSH1 0x4 ADD PUSH2 0x121C SWAP3 SWAP2 SWAP1 PUSH2 0x1EDF JUMP JUMPDEST PUSH1 0x0 PUSH1 0x40 MLOAD DUP1 DUP4 SUB DUP2 PUSH1 0x0 DUP8 DUP1 EXTCODESIZE ISZERO DUP1 ISZERO PUSH2 0x1236 JUMPI PUSH1 0x0 DUP1 REVERT JUMPDEST POP GAS CALL ISZERO DUP1 ISZERO PUSH2 0x124A JUMPI RETURNDATASIZE PUSH1 0x0 DUP1 RETURNDATACOPY RETURNDATASIZE PUSH1 0x0 REVERT JUMPDEST POP POP POP POP PUSH1 0x1 DUP3 PUSH1 0x0 ADD PUSH1 0x0 PUSH2 0x100 EXP DUP2 SLOAD DUP2 PUSH1 0xFF MUL NOT AND SWAP1 DUP4 PUSH1 0x2 DUP2 GT ISZERO PUSH2 0x1276 JUMPI PUSH2 0x1275 PUSH2 0x1919 JUMP JUMPDEST JUMPDEST MUL OR SWAP1 SSTORE POP POP POP POP JUMP JUMPDEST PUSH1 0x0 PUSH1 0x1 DUP3 PUSH2 0x128F SWAP2 SWAP1 PUSH2 0x212A JUMP JUMPDEST TIMESTAMP CALLER DUP7 DUP7 PUSH1 0x40 MLOAD PUSH1 0x20 ADD PUSH2 0x12A6 SWAP5 SWAP4 SWAP3 SWAP2 SWAP1 PUSH2 0x2428 JUMP JUMPDEST PUSH1 0x40 MLOAD PUSH1 0x20 DUP2 DUP4 SUB SUB DUP2 MSTORE SWAP1 PUSH1 0x40 MSTORE DUP1 MLOAD SWAP1 PUSH1 0x20 ADD KECCAK256 PUSH1 0x0 SHR PUSH2 0x12C9 SWAP2 SWAP1 PUSH2 0x2492 JUMP JUMPDEST SWAP1 POP SWAP4 SWAP3 POP POP POP JUMP JUMPDEST PUSH1 0x0 PUSH1 0x2 DUP3 DUP2 SLOAD DUP2 LT PUSH2 0x12E8 JUMPI PUSH2 0x12E7 PUSH2 0x1B7F JUMP JUMPDEST JUMPDEST SWAP1 PUSH1 0x0 MSTORE PUSH1 0x20 PUSH1 0x0 KECCAK256 SWAP1 PUSH1 0xC MUL ADD PUSH1 0x40 MLOAD DUP1 PUSH2 0x180 ADD PUSH1 0x40 MSTORE SWAP1 DUP2 PUSH1 0x0 DUP3 ADD PUSH1 0x0 SWAP1 SLOAD SWAP1 PUSH2 0x100 EXP SWAP1 DIV PUSH1 0xFF AND PUSH1 0x2 DUP2 GT ISZERO PUSH2 0x1327 JUMPI PUSH2 0x1326 PUSH2 0x1919 JUMP JUMPDEST JUMPDEST PUSH1 0x2 DUP2 GT ISZERO PUSH2 0x1339 JUMPI PUSH2 0x1338 PUSH2 0x1919 JUMP JUMPDEST JUMPDEST DUP2 MSTORE PUSH1 0x20 ADD PUSH1 0x1 DUP3 ADD SLOAD DUP2 MSTORE PUSH1 0x20 ADD PUSH1 0x2 DUP3 ADD SLOAD DUP2 MSTORE PUSH1 0x20 ADD PUSH1 0x3 DUP3 ADD SLOAD DUP2 MSTORE PUSH1 0x20 ADD PUSH1 0x4 DUP3 ADD PUSH1 0x0 SWAP1 SLOAD SWAP1 PUSH2 0x100 EXP SWAP1 DIV PUSH20 0xFFFFFFFFFFFFFFFFFFFFFFFFFFFFFFFFFFFFFFFF AND PUSH20 0xFFFFFFFFFFFFFFFFFFFFFFFFFFFFFFFFFFFFFFFF AND PUSH20 0xFFFFFFFFFFFFFFFFFFFFFFFFFFFFFFFFFFFFFFFF AND DUP2 MSTORE PUSH1 0x20 ADD PUSH1 0x5 DUP3 ADD SLOAD DUP2 MSTORE PUSH1 0x20 ADD PUSH1 0x6 DUP3 ADD PUSH1 0x0 SWAP1 SLOAD SWAP1 PUSH2 0x100 EXP SWAP1 DIV PUSH20 0xFFFFFFFFFFFFFFFFFFFFFFFFFFFFFFFFFFFFFFFF AND PUSH20 0xFFFFFFFFFFFFFFFFFFFFFFFFFFFFFFFFFFFFFFFF AND PUSH20 0xFFFFFFFFFFFFFFFFFFFFFFFFFFFFFFFFFFFFFFFF AND DUP2 MSTORE PUSH1 0x20 ADD PUSH1 0x7 DUP3 ADD SLOAD DUP2 MSTORE PUSH1 0x20 ADD PUSH1 0x8 DUP3 ADD SLOAD DUP2 MSTORE PUSH1 0x20 ADD PUSH1 0x9 DUP3 ADD PUSH1 0x0 SWAP1 SLOAD SWAP1 PUSH2 0x100 EXP SWAP1 DIV PUSH20 0xFFFFFFFFFFFFFFFFFFFFFFFFFFFFFFFFFFFFFFFF AND PUSH20 0xFFFFFFFFFFFFFFFFFFFFFFFFFFFFFFFFFFFFFFFF AND PUSH20 0xFFFFFFFFFFFFFFFFFFFFFFFFFFFFFFFFFFFFFFFF AND DUP2 MSTORE PUSH1 0x20 ADD PUSH1 0xA DUP3 ADD SLOAD DUP2 MSTORE PUSH1 0x20 ADD PUSH1 0xB DUP3 ADD PUSH1 0x0 SWAP1 SLOAD SWAP1 PUSH2 0x100 EXP SWAP1 DIV PUSH20 0xFFFFFFFFFFFFFFFFFFFFFFFFFFFFFFFFFFFFFFFF AND PUSH20 0xFFFFFFFFFFFFFFFFFFFFFFFFFFFFFFFFFFFFFFFF AND PUSH20 0xFFFFFFFFFFFFFFFFFFFFFFFFFFFFFFFFFFFFFFFF AND DUP2 MSTORE POP POP SWAP1 POP PUSH1 0x0 DUP2 PUSH2 0x120 ADD MLOAD SWAP1 POP PUSH1 0x64 DUP3 PUSH1 0xA0 ADD MLOAD PUSH2 0x14F8 SWAP2 SWAP1 PUSH2 0x24C3 JUMP JUMPDEST DUP3 PUSH2 0x100 ADD DUP2 DUP2 MSTORE POP POP PUSH1 0x0 DUP3 PUSH2 0x100 ADD MLOAD DUP4 PUSH1 0xA0 ADD MLOAD PUSH2 0x1519 SWAP2 SWAP1 PUSH2 0x1F37 JUMP JUMPDEST SWAP1 POP DUP2 PUSH20 0xFFFFFFFFFFFFFFFFFFFFFFFFFFFFFFFFFFFFFFFF AND PUSH4 0xA9059CBB DUP5 PUSH1 0xC0 ADD MLOAD DUP6 PUSH1 0x60 ADD MLOAD PUSH1 0x40 MLOAD DUP4 PUSH4 0xFFFFFFFF AND PUSH1 0xE0 SHL DUP2 MSTORE PUSH1 0x4 ADD PUSH2 0x155E SWAP3 SWAP2 SWAP1 PUSH2 0x1EDF JUMP JUMPDEST PUSH1 0x0 PUSH1 0x40 MLOAD DUP1 DUP4 SUB DUP2 PUSH1 0x0 DUP8 DUP1 EXTCODESIZE ISZERO DUP1 ISZERO PUSH2 0x1578 JUMPI PUSH1 0x0 DUP1 REVERT JUMPDEST POP GAS CALL ISZERO DUP1 ISZERO PUSH2 0x158C JUMPI RETURNDATASIZE PUSH1 0x0 DUP1 RETURNDATACOPY RETURNDATASIZE PUSH1 0x0 REVERT JUMPDEST POP POP POP POP PUSH1 0x0 DUP4 PUSH2 0x160 ADD MLOAD SWAP1 POP DUP1 PUSH20 0xFFFFFFFFFFFFFFFFFFFFFFFFFFFFFFFFFFFFFFFF AND PUSH4 0xA9059CBB DUP6 PUSH1 0x80 ADD MLOAD DUP5 PUSH1 0x40 MLOAD DUP4 PUSH4 0xFFFFFFFF AND PUSH1 0xE0 SHL DUP2 MSTORE PUSH1 0x4 ADD PUSH2 0x15D9 SWAP3 SWAP2 SWAP1 PUSH2 0x1EDF JUMP JUMPDEST PUSH1 0x0 PUSH1 0x40 MLOAD DUP1 DUP4 SUB DUP2 PUSH1 0x0 DUP8 DUP1 EXTCODESIZE ISZERO DUP1 ISZERO PUSH2 0x15F3 JUMPI PUSH1 0x0 DUP1 REVERT JUMPDEST POP GAS CALL ISZERO DUP1 ISZERO PUSH2 0x1607 JUMPI RETURNDATASIZE PUSH1 0x0 DUP1 RETURNDATACOPY RETURNDATASIZE PUSH1 0x0 REVERT JUMPDEST POP POP POP POP DUP1 PUSH20 0xFFFFFFFFFFFFFFFFFFFFFFFFFFFFFFFFFFFFFFFF AND PUSH4 0xA9059CBB PUSH1 0x1 PUSH1 0x0 SWAP1 SLOAD SWAP1 PUSH2 0x100 EXP SWAP1 DIV PUSH20 0xFFFFFFFFFFFFFFFFFFFFFFFFFFFFFFFFFFFFFFFF AND DUP7 PUSH2 0x100 ADD MLOAD PUSH1 0x40 MLOAD DUP4 PUSH4 0xFFFFFFFF AND PUSH1 0xE0 SHL DUP2 MSTORE PUSH1 0x4 ADD PUSH2 0x166D SWAP3 SWAP2 SWAP1 PUSH2 0x2553 JUMP JUMPDEST PUSH1 0x0 PUSH1 0x40 MLOAD DUP1 DUP4 SUB DUP2 PUSH1 0x0 DUP8 DUP1 EXTCODESIZE ISZERO DUP1 ISZERO PUSH2 0x1687 JUMPI PUSH1 0x0 DUP1 REVERT JUMPDEST POP GAS CALL ISZERO DUP1 ISZERO PUSH2 0x169B JUMPI RETURNDATASIZE PUSH1 0x0 DUP1 RETURNDATACOPY RETURNDATASIZE PUSH1 0x0 REVERT JUMPDEST POP POP POP POP POP POP POP POP POP JUMP JUMPDEST PUSH1 0x0 DUP5 SWAP1 POP DUP1 PUSH20 0xFFFFFFFFFFFFFFFFFFFFFFFFFFFFFFFFFFFFFFFF AND PUSH4 0x23B872DD DUP6 DUP6 DUP6 PUSH1 0x40 MLOAD DUP5 PUSH4 0xFFFFFFFF AND PUSH1 0xE0 SHL DUP2 MSTORE PUSH1 0x4 ADD PUSH2 0x16E8 SWAP4 SWAP3 SWAP2 SWAP1 PUSH2 0x20AB JUMP JUMPDEST PUSH1 0x0 PUSH1 0x40 MLOAD DUP1 DUP4 SUB DUP2 PUSH1 0x0 DUP8 DUP1 EXTCODESIZE ISZERO DUP1 ISZERO PUSH2 0x1702 JUMPI PUSH1 0x0 DUP1 REVERT JUMPDEST POP GAS CALL ISZERO DUP1 ISZERO PUSH2 0x1716 JUMPI RETURNDATASIZE PUSH1 0x0 DUP1 RETURNDATACOPY RETURNDATASIZE PUSH1 0x0 REVERT JUMPDEST POP POP POP POP POP POP POP POP POP JUMP JUMPDEST PUSH1 0x0 DUP1 REVERT JUMPDEST PUSH1 0x0 DUP1 REVERT JUMPDEST PUSH1 0x0 DUP2 SWAP1 POP SWAP2 SWAP1 POP JUMP JUMPDEST PUSH2 0x173E DUP2 PUSH2 0x172B JUMP JUMPDEST DUP2 EQ PUSH2 0x1749 JUMPI PUSH1 0x0 DUP1 REVERT JUMPDEST POP JUMP JUMPDEST PUSH1 0x0 DUP2 CALLDATALOAD SWAP1 POP PUSH2 0x175B DUP2 PUSH2 0x1735 JUMP JUMPDEST SWAP3 SWAP2 POP POP JUMP JUMPDEST PUSH1 0x0 PUSH1 0x20 DUP3 DUP5 SUB SLT ISZERO PUSH2 0x1777 JUMPI PUSH2 0x1776 PUSH2 0x1721 JUMP JUMPDEST JUMPDEST PUSH1 0x0 PUSH2 0x1785 DUP5 DUP3 DUP6 ADD PUSH2 0x174C JUMP JUMPDEST SWAP2 POP POP SWAP3 SWAP2 POP POP JUMP JUMPDEST PUSH2 0x1797 DUP2 PUSH2 0x172B JUMP JUMPDEST DUP3 MSTORE POP POP JUMP JUMPDEST PUSH1 0x0 PUSH1 0x20 DUP3 ADD SWAP1 POP PUSH2 0x17B2 PUSH1 0x0 DUP4 ADD DUP5 PUSH2 0x178E JUMP JUMPDEST SWAP3 SWAP2 POP POP JUMP JUMPDEST PUSH1 0x0 DUP1 PUSH1 0x40 DUP4 DUP6 SUB SLT ISZERO PUSH2 0x17CF JUMPI PUSH2 0x17CE PUSH2 0x1721 JUMP JUMPDEST JUMPDEST PUSH1 0x0 PUSH2 0x17DD DUP6 DUP3 DUP7 ADD PUSH2 0x174C JUMP JUMPDEST SWAP3 POP POP PUSH1 0x20 PUSH2 0x17EE DUP6 DUP3 DUP7 ADD PUSH2 0x174C JUMP JUMPDEST SWAP2 POP POP SWAP3 POP SWAP3 SWAP1 POP JUMP JUMPDEST PUSH1 0x0 PUSH20 0xFFFFFFFFFFFFFFFFFFFFFFFFFFFFFFFFFFFFFFFF DUP3 AND SWAP1 POP SWAP2 SWAP1 POP JUMP JUMPDEST PUSH1 0x0 PUSH2 0x1823 DUP3 PUSH2 0x17F8 JUMP JUMPDEST SWAP1 POP SWAP2 SWAP1 POP JUMP JUMPDEST PUSH2 0x1833 DUP2 PUSH2 0x1818 JUMP JUMPDEST DUP3 MSTORE POP POP JUMP JUMPDEST PUSH1 0x0 PUSH1 0x20 DUP3 ADD SWAP1 POP PUSH2 0x184E PUSH1 0x0 DUP4 ADD DUP5 PUSH2 0x182A JUMP JUMPDEST SWAP3 SWAP2 POP POP JUMP JUMPDEST PUSH1 0x0 DUP1 REVERT JUMPDEST PUSH1 0x0 DUP1 REVERT JUMPDEST PUSH1 0x0 DUP1 REVERT JUMPDEST PUSH1 0x0 DUP1 DUP4 PUSH1 0x1F DUP5 ADD SLT PUSH2 0x1879 JUMPI PUSH2 0x1878 PUSH2 0x1854 JUMP JUMPDEST JUMPDEST DUP3 CALLDATALOAD SWAP1 POP PUSH8 0xFFFFFFFFFFFFFFFF DUP2 GT ISZERO PUSH2 0x1896 JUMPI PUSH2 0x1895 PUSH2 0x1859 JUMP JUMPDEST JUMPDEST PUSH1 0x20 DUP4 ADD SWAP2 POP DUP4 PUSH1 0x1 DUP3 MUL DUP4 ADD GT ISZERO PUSH2 0x18B2 JUMPI PUSH2 0x18B1 PUSH2 0x185E JUMP JUMPDEST JUMPDEST SWAP3 POP SWAP3 SWAP1 POP JUMP JUMPDEST PUSH1 0x0 DUP1 PUSH1 0x0 PUSH1 0x40 DUP5 DUP7 SUB SLT ISZERO PUSH2 0x18D2 JUMPI PUSH2 0x18D1 PUSH2 0x1721 JUMP JUMPDEST JUMPDEST PUSH1 0x0 PUSH2 0x18E0 DUP7 DUP3 DUP8 ADD PUSH2 0x174C JUMP JUMPDEST SWAP4 POP POP PUSH1 0x20 DUP5 ADD CALLDATALOAD PUSH8 0xFFFFFFFFFFFFFFFF DUP2 GT ISZERO PUSH2 0x1901 JUMPI PUSH2 0x1900 PUSH2 0x1726 JUMP JUMPDEST JUMPDEST PUSH2 0x190D DUP7 DUP3 DUP8 ADD PUSH2 0x1863 JUMP JUMPDEST SWAP3 POP SWAP3 POP POP SWAP3 POP SWAP3 POP SWAP3 JUMP JUMPDEST PUSH32 0x4E487B7100000000000000000000000000000000000000000000000000000000 PUSH1 0x0 MSTORE PUSH1 0x21 PUSH1 0x4 MSTORE PUSH1 0x24 PUSH1 0x0 REVERT JUMPDEST PUSH1 0x3 DUP2 LT PUSH2 0x1959 JUMPI PUSH2 0x1958 PUSH2 0x1919 JUMP JUMPDEST JUMPDEST POP JUMP JUMPDEST PUSH1 0x0 DUP2 SWAP1 POP PUSH2 0x196A DUP3 PUSH2 0x1948 JUMP JUMPDEST SWAP2 SWAP1 POP JUMP JUMPDEST PUSH1 0x0 PUSH2 0x197A DUP3 PUSH2 0x195C JUMP JUMPDEST SWAP1 POP SWAP2 SWAP1 POP JUMP JUMPDEST PUSH2 0x198A DUP2 PUSH2 0x196F JUMP JUMPDEST DUP3 MSTORE POP POP JUMP JUMPDEST PUSH1 0x0 PUSH2 0x180 DUP3 ADD SWAP1 POP PUSH2 0x19A6 PUSH1 0x0 DUP4 ADD DUP16 PUSH2 0x1981 JUMP JUMPDEST PUSH2 0x19B3 PUSH1 0x20 DUP4 ADD DUP15 PUSH2 0x178E JUMP JUMPDEST PUSH2 0x19C0 PUSH1 0x40 DUP4 ADD DUP14 PUSH2 0x178E JUMP JUMPDEST PUSH2 0x19CD PUSH1 0x60 DUP4 ADD DUP13 PUSH2 0x178E JUMP JUMPDEST PUSH2 0x19DA PUSH1 0x80 DUP4 ADD DUP12 PUSH2 0x182A JUMP JUMPDEST PUSH2 0x19E7 PUSH1 0xA0 DUP4 ADD DUP11 PUSH2 0x178E JUMP JUMPDEST PUSH2 0x19F4 PUSH1 0xC0 DUP4 ADD DUP10 PUSH2 0x182A JUMP JUMPDEST PUSH2 0x1A01 PUSH1 0xE0 DUP4 ADD DUP9 PUSH2 0x178E JUMP JUMPDEST PUSH2 0x1A0F PUSH2 0x100 DUP4 ADD DUP8 PUSH2 0x178E JUMP JUMPDEST PUSH2 0x1A1D PUSH2 0x120 DUP4 ADD DUP7 PUSH2 0x182A JUMP JUMPDEST PUSH2 0x1A2B PUSH2 0x140 DUP4 ADD DUP6 PUSH2 0x178E JUMP JUMPDEST PUSH2 0x1A39 PUSH2 0x160 DUP4 ADD DUP5 PUSH2 0x182A JUMP JUMPDEST SWAP14 SWAP13 POP POP POP POP POP POP POP POP POP POP POP POP POP JUMP JUMPDEST PUSH2 0x1A53 DUP2 PUSH2 0x1818 JUMP JUMPDEST DUP2 EQ PUSH2 0x1A5E JUMPI PUSH1 0x0 DUP1 REVERT JUMPDEST POP JUMP JUMPDEST PUSH1 0x0 DUP2 CALLDATALOAD SWAP1 POP PUSH2 0x1A70 DUP2 PUSH2 0x1A4A JUMP JUMPDEST SWAP3 SWAP2 POP POP JUMP JUMPDEST PUSH1 0x0 DUP1 PUSH1 0x0 DUP1 PUSH1 0x80 DUP6 DUP8 SUB SLT ISZERO PUSH2 0x1A90 JUMPI PUSH2 0x1A8F PUSH2 0x1721 JUMP JUMPDEST JUMPDEST PUSH1 0x0 PUSH2 0x1A9E DUP8 DUP3 DUP9 ADD PUSH2 0x174C JUMP JUMPDEST SWAP5 POP POP PUSH1 0x20 PUSH2 0x1AAF DUP8 DUP3 DUP9 ADD PUSH2 0x174C JUMP JUMPDEST SWAP4 POP POP PUSH1 0x40 PUSH2 0x1AC0 DUP8 DUP3 DUP9 ADD PUSH2 0x1A61 JUMP JUMPDEST SWAP3 POP POP PUSH1 0x60 PUSH2 0x1AD1 DUP8 DUP3 DUP9 ADD PUSH2 0x1A61 JUMP JUMPDEST SWAP2 POP POP SWAP3 SWAP6 SWAP2 SWAP5 POP SWAP3 POP JUMP JUMPDEST PUSH1 0x0 DUP1 PUSH1 0x0 DUP1 PUSH1 0x0 DUP1 PUSH1 0x0 PUSH1 0xE0 DUP9 DUP11 SUB SLT ISZERO PUSH2 0x1AFC JUMPI PUSH2 0x1AFB PUSH2 0x1721 JUMP JUMPDEST JUMPDEST PUSH1 0x0 PUSH2 0x1B0A DUP11 DUP3 DUP12 ADD PUSH2 0x174C JUMP JUMPDEST SWAP8 POP POP PUSH1 0x20 PUSH2 0x1B1B DUP11 DUP3 DUP12 ADD PUSH2 0x174C JUMP JUMPDEST SWAP7 POP POP PUSH1 0x40 PUSH2 0x1B2C DUP11 DUP3 DUP12 ADD PUSH2 0x174C JUMP JUMPDEST SWAP6 POP POP PUSH1 0x60 PUSH2 0x1B3D DUP11 DUP3 DUP12 ADD PUSH2 0x1A61 JUMP JUMPDEST SWAP5 POP POP PUSH1 0x80 PUSH2 0x1B4E DUP11 DUP3 DUP12 ADD PUSH2 0x1A61 JUMP JUMPDEST SWAP4 POP POP PUSH1 0xA0 PUSH2 0x1B5F DUP11 DUP3 DUP12 ADD PUSH2 0x174C JUMP JUMPDEST SWAP3 POP POP PUSH1 0xC0 PUSH2 0x1B70 DUP11 DUP3 DUP12 ADD PUSH2 0x1A61 JUMP JUMPDEST SWAP2 POP POP SWAP3 SWAP6 SWAP9 SWAP2 SWAP5 SWAP8 POP SWAP3 SWAP6 POP JUMP JUMPDEST PUSH32 0x4E487B7100000000000000000000000000000000000000000000000000000000 PUSH1 0x0 MSTORE PUSH1 0x32 PUSH1 0x4 MSTORE PUSH1 0x24 PUSH1 0x0 REVERT JUMPDEST PUSH1 0x0 DUP3 DUP3 MSTORE PUSH1 0x20 DUP3 ADD SWAP1 POP SWAP3 SWAP2 POP POP JUMP JUMPDEST PUSH32 0x566F6365206E616F20706F6465207265616C697A6172206F20736F727465696F PUSH1 0x0 DUP3 ADD MSTORE POP JUMP JUMPDEST PUSH1 0x0 PUSH2 0x1BF5 PUSH1 0x20 DUP4 PUSH2 0x1BAE JUMP JUMPDEST SWAP2 POP PUSH2 0x1C00 DUP3 PUSH2 0x1BBF JUMP JUMPDEST PUSH1 0x20 DUP3 ADD SWAP1 POP SWAP2 SWAP1 POP JUMP JUMPDEST PUSH1 0x0 PUSH1 0x20 DUP3 ADD SWAP1 POP DUP2 DUP2 SUB PUSH1 0x0 DUP4 ADD MSTORE PUSH2 0x1C24 DUP2 PUSH2 0x1BE8 JUMP JUMPDEST SWAP1 POP SWAP2 SWAP1 POP JUMP JUMPDEST PUSH32 0x4F20526166666C65206A6120666F692066696E616C697A61646F000000000000 PUSH1 0x0 DUP3 ADD MSTORE POP JUMP JUMPDEST PUSH1 0x0 PUSH2 0x1C61 PUSH1 0x1A DUP4 PUSH2 0x1BAE JUMP JUMPDEST SWAP2 POP PUSH2 0x1C6C DUP3 PUSH2 0x1C2B JUMP JUMPDEST PUSH1 0x20 DUP3 ADD SWAP1 POP SWAP2 SWAP1 POP JUMP JUMPDEST PUSH1 0x0 PUSH1 0x20 DUP3 ADD SWAP1 POP DUP2 DUP2 SUB PUSH1 0x0 DUP4 ADD MSTORE PUSH2 0x1C90 DUP2 PUSH2 0x1C54 JUMP JUMPDEST SWAP1 POP SWAP2 SWAP1 POP JUMP JUMPDEST PUSH32 0x5175616E746964616465206465207469636B65747320696E737566696369656E PUSH1 0x0 DUP3 ADD MSTORE PUSH32 0x7465000000000000000000000000000000000000000000000000000000000000 PUSH1 0x20 DUP3 ADD MSTORE POP JUMP JUMPDEST PUSH1 0x0 PUSH2 0x1CF3 PUSH1 0x22 DUP4 PUSH2 0x1BAE JUMP JUMPDEST SWAP2 POP PUSH2 0x1CFE DUP3 PUSH2 0x1C97 JUMP JUMPDEST PUSH1 0x40 DUP3 ADD SWAP1 POP SWAP2 SWAP1 POP JUMP JUMPDEST PUSH1 0x0 PUSH1 0x20 DUP3 ADD SWAP1 POP DUP2 DUP2 SUB PUSH1 0x0 DUP4 ADD MSTORE PUSH2 0x1D22 DUP2 PUSH2 0x1CE6 JUMP JUMPDEST SWAP1 POP SWAP2 SWAP1 POP JUMP JUMPDEST PUSH32 0x566F6365206E616F2074656D207065726D697373616F2070617261207265616C PUSH1 0x0 DUP3 ADD MSTORE PUSH32 0x697A61722065737361206163616F000000000000000000000000000000000000 PUSH1 0x20 DUP3 ADD MSTORE POP JUMP JUMPDEST PUSH1 0x0 PUSH2 0x1D85 PUSH1 0x2E DUP4 PUSH2 0x1BAE JUMP JUMPDEST SWAP2 POP PUSH2 0x1D90 DUP3 PUSH2 0x1D29 JUMP JUMPDEST PUSH1 0x40 DUP3 ADD SWAP1 POP SWAP2 SWAP1 POP JUMP JUMPDEST PUSH1 0x0 PUSH1 0x20 DUP3 ADD SWAP1 POP DUP2 DUP2 SUB PUSH1 0x0 DUP4 ADD MSTORE PUSH2 0x1DB4 DUP2 PUSH2 0x1D78 JUMP JUMPDEST SWAP1 POP SWAP2 SWAP1 POP JUMP JUMPDEST PUSH32 0x566F6365206E616F20706F6465206D6169732063616E63656C61722065737365 PUSH1 0x0 DUP3 ADD MSTORE PUSH32 0x20726166666C6500000000000000000000000000000000000000000000000000 PUSH1 0x20 DUP3 ADD MSTORE POP JUMP JUMPDEST PUSH1 0x0 PUSH2 0x1E17 PUSH1 0x27 DUP4 PUSH2 0x1BAE JUMP JUMPDEST SWAP2 POP PUSH2 0x1E22 DUP3 PUSH2 0x1DBB JUMP JUMPDEST PUSH1 0x40 DUP3 ADD SWAP1 POP SWAP2 SWAP1 POP JUMP JUMPDEST PUSH1 0x0 PUSH1 0x20 DUP3 ADD SWAP1 POP DUP2 DUP2 SUB PUSH1 0x0 DUP4 ADD MSTORE PUSH2 0x1E46 DUP2 PUSH2 0x1E0A JUMP JUMPDEST SWAP1 POP SWAP2 SWAP1 POP JUMP JUMPDEST PUSH32 0x4573746520726166666C65206A61206E616F2065737461206D616973206F636F PUSH1 0x0 DUP3 ADD MSTORE PUSH32 0x7272656E646F0000000000000000000000000000000000000000000000000000 PUSH1 0x20 DUP3 ADD MSTORE POP JUMP JUMPDEST PUSH1 0x0 PUSH2 0x1EA9 PUSH1 0x26 DUP4 PUSH2 0x1BAE JUMP JUMPDEST SWAP2 POP PUSH2 0x1EB4 DUP3 PUSH2 0x1E4D JUMP JUMPDEST PUSH1 0x40 DUP3 ADD SWAP1 POP SWAP2 SWAP1 POP JUMP JUMPDEST PUSH1 0x0 PUSH1 0x20 DUP3 ADD SWAP1 POP DUP2 DUP2 SUB PUSH1 0x0 DUP4 ADD MSTORE PUSH2 0x1ED8 DUP2 PUSH2 0x1E9C JUMP JUMPDEST SWAP1 POP SWAP2 SWAP1 POP JUMP JUMPDEST PUSH1 0x0 PUSH1 0x40 DUP3 ADD SWAP1 POP PUSH2 0x1EF4 PUSH1 0x0 DUP4 ADD DUP6 PUSH2 0x182A JUMP JUMPDEST PUSH2 0x1F01 PUSH1 0x20 DUP4 ADD DUP5 PUSH2 0x178E JUMP JUMPDEST SWAP4 SWAP3 POP POP POP JUMP JUMPDEST PUSH32 0x4E487B7100000000000000000000000000000000000000000000000000000000 PUSH1 0x0 MSTORE PUSH1 0x11 PUSH1 0x4 MSTORE PUSH1 0x24 PUSH1 0x0 REVERT JUMPDEST PUSH1 0x0 PUSH2 0x1F42 DUP3 PUSH2 0x172B JUMP JUMPDEST SWAP2 POP PUSH2 0x1F4D DUP4 PUSH2 0x172B JUMP JUMPDEST SWAP3 POP DUP3 DUP3 SUB SWAP1 POP DUP2 DUP2 GT ISZERO PUSH2 0x1F65 JUMPI PUSH2 0x1F64 PUSH2 0x1F08 JUMP JUMPDEST JUMPDEST SWAP3 SWAP2 POP POP JUMP JUMPDEST PUSH32 0x71746420696E646973706F6E6976656C00000000000000000000000000000000 PUSH1 0x0 DUP3 ADD MSTORE POP JUMP JUMPDEST PUSH1 0x0 PUSH2 0x1FA1 PUSH1 0x10 DUP4 PUSH2 0x1BAE JUMP JUMPDEST SWAP2 POP PUSH2 0x1FAC DUP3 PUSH2 0x1F6B JUMP JUMPDEST PUSH1 0x20 DUP3 ADD SWAP1 POP SWAP2 SWAP1 POP JUMP JUMPDEST PUSH1 0x0 PUSH1 0x20 DUP3 ADD SWAP1 POP DUP2 DUP2 SUB PUSH1 0x0 DUP4 ADD MSTORE PUSH2 0x1FD0 DUP2 PUSH2 0x1F94 JUMP JUMPDEST SWAP1 POP SWAP2 SWAP1 POP JUMP JUMPDEST PUSH32 0x4F2073656C6C6572206E616F20706F646520636F6D7072617220656E74726164 PUSH1 0x0 DUP3 ADD MSTORE PUSH32 0x617320646F2070726F7072696F20736F727465696F0000000000000000000000 PUSH1 0x20 DUP3 ADD MSTORE POP JUMP JUMPDEST PUSH1 0x0 PUSH2 0x2033 PUSH1 0x35 DUP4 PUSH2 0x1BAE JUMP JUMPDEST SWAP2 POP PUSH2 0x203E DUP3 PUSH2 0x1FD7 JUMP JUMPDEST PUSH1 0x40 DUP3 ADD SWAP1 POP SWAP2 SWAP1 POP JUMP JUMPDEST PUSH1 0x0 PUSH1 0x20 DUP3 ADD SWAP1 POP DUP2 DUP2 SUB PUSH1 0x0 DUP4 ADD MSTORE PUSH2 0x2062 DUP2 PUSH2 0x2026 JUMP JUMPDEST SWAP1 POP SWAP2 SWAP1 POP JUMP JUMPDEST PUSH1 0x0 PUSH2 0x2074 DUP3 PUSH2 0x172B JUMP JUMPDEST SWAP2 POP PUSH2 0x207F DUP4 PUSH2 0x172B JUMP JUMPDEST SWAP3 POP DUP3 DUP3 MUL PUSH2 0x208D DUP2 PUSH2 0x172B JUMP JUMPDEST SWAP2 POP DUP3 DUP3 DIV DUP5 EQ DUP4 ISZERO OR PUSH2 0x20A4 JUMPI PUSH2 0x20A3 PUSH2 0x1F08 JUMP JUMPDEST JUMPDEST POP SWAP3 SWAP2 POP POP JUMP JUMPDEST PUSH1 0x0 PUSH1 0x60 DUP3 ADD SWAP1 POP PUSH2 0x20C0 PUSH1 0x0 DUP4 ADD DUP7 PUSH2 0x182A JUMP JUMPDEST PUSH2 0x20CD PUSH1 0x20 DUP4 ADD DUP6 PUSH2 0x182A JUMP JUMPDEST PUSH2 0x20DA PUSH1 0x40 DUP4 ADD DUP5 PUSH2 0x178E JUMP JUMPDEST SWAP5 SWAP4 POP POP POP POP JUMP JUMPDEST PUSH1 0x0 PUSH2 0x20ED DUP3 PUSH2 0x172B JUMP JUMPDEST SWAP2 POP PUSH32 0xFFFFFFFFFFFFFFFFFFFFFFFFFFFFFFFFFFFFFFFFFFFFFFFFFFFFFFFFFFFFFFFF DUP3 SUB PUSH2 0x211F JUMPI PUSH2 0x211E PUSH2 0x1F08 JUMP JUMPDEST JUMPDEST PUSH1 0x1 DUP3 ADD SWAP1 POP SWAP2 SWAP1 POP JUMP JUMPDEST PUSH1 0x0 PUSH2 0x2135 DUP3 PUSH2 0x172B JUMP JUMPDEST SWAP2 POP PUSH2 0x2140 DUP4 PUSH2 0x172B JUMP JUMPDEST SWAP3 POP DUP3 DUP3 ADD SWAP1 POP DUP1 DUP3 GT ISZERO PUSH2 0x2158 JUMPI PUSH2 0x2157 PUSH2 0x1F08 JUMP JUMPDEST JUMPDEST SWAP3 SWAP2 POP POP JUMP JUMPDEST PUSH32 0x4F2076616C6F72207061676F206E616F20706F64652073657220300000000000 PUSH1 0x0 DUP3 ADD MSTORE POP JUMP JUMPDEST PUSH1 0x0 PUSH2 0x2194 PUSH1 0x1B DUP4 PUSH2 0x1BAE JUMP JUMPDEST SWAP2 POP PUSH2 0x219F DUP3 PUSH2 0x215E JUMP JUMPDEST PUSH1 0x20 DUP3 ADD SWAP1 POP SWAP2 SWAP1 POP JUMP JUMPDEST PUSH1 0x0 PUSH1 0x20 DUP3 ADD SWAP1 POP DUP2 DUP2 SUB PUSH1 0x0 DUP4 ADD MSTORE PUSH2 0x21C3 DUP2 PUSH2 0x2187 JUMP JUMPDEST SWAP1 POP SWAP2 SWAP1 POP JUMP JUMPDEST PUSH32 0x41207175616E746964616465206465207469636B657473206E616F20706F6465 PUSH1 0x0 DUP3 ADD MSTORE PUSH32 0x2073657220300000000000000000000000000000000000000000000000000000 PUSH1 0x20 DUP3 ADD MSTORE POP JUMP JUMPDEST PUSH1 0x0 PUSH2 0x2226 PUSH1 0x26 DUP4 PUSH2 0x1BAE JUMP JUMPDEST SWAP2 POP PUSH2 0x2231 DUP3 PUSH2 0x21CA JUMP JUMPDEST PUSH1 0x40 DUP3 ADD SWAP1 POP SWAP2 SWAP1 POP JUMP JUMPDEST PUSH1 0x0 PUSH1 0x20 DUP3 ADD SWAP1 POP DUP2 DUP2 SUB PUSH1 0x0 DUP4 ADD MSTORE PUSH2 0x2255 DUP2 PUSH2 0x2219 JUMP JUMPDEST SWAP1 POP SWAP2 SWAP1 POP JUMP JUMPDEST PUSH32 0x41207175616E746964616465206D696E696D61206465207469636B657473206E PUSH1 0x0 DUP3 ADD MSTORE PUSH32 0x616F20706F646520736572203000000000000000000000000000000000000000 PUSH1 0x20 DUP3 ADD MSTORE POP JUMP JUMPDEST PUSH1 0x0 PUSH2 0x22B8 PUSH1 0x2D DUP4 PUSH2 0x1BAE JUMP JUMPDEST SWAP2 POP PUSH2 0x22C3 DUP3 PUSH2 0x225C JUMP JUMPDEST PUSH1 0x40 DUP3 ADD SWAP1 POP SWAP2 SWAP1 POP JUMP JUMPDEST PUSH1 0x0 PUSH1 0x20 DUP3 ADD SWAP1 POP DUP2 DUP2 SUB PUSH1 0x0 DUP4 ADD MSTORE PUSH2 0x22E7 DUP2 PUSH2 0x22AB JUMP JUMPDEST SWAP1 POP SWAP2 SWAP1 POP JUMP JUMPDEST PUSH32 0x4170656E6173206F206F776E657220706F6465207265616C697A617220612064 PUSH1 0x0 DUP3 ADD MSTORE PUSH32 0x65766F6C7563616F000000000000000000000000000000000000000000000000 PUSH1 0x20 DUP3 ADD MSTORE POP JUMP JUMPDEST PUSH1 0x0 PUSH2 0x234A PUSH1 0x28 DUP4 PUSH2 0x1BAE JUMP JUMPDEST SWAP2 POP PUSH2 0x2355 DUP3 PUSH2 0x22EE JUMP JUMPDEST PUSH1 0x40 DUP3 ADD SWAP1 POP SWAP2 SWAP1 POP JUMP JUMPDEST PUSH1 0x0 PUSH1 0x20 DUP3 ADD SWAP1 POP DUP2 DUP2 SUB PUSH1 0x0 DUP4 ADD MSTORE PUSH2 0x2379 DUP2 PUSH2 0x233D JUMP JUMPDEST SWAP1 POP SWAP2 SWAP1 POP JUMP JUMPDEST PUSH1 0x0 DUP2 SWAP1 POP SWAP2 SWAP1 POP JUMP JUMPDEST PUSH2 0x239B PUSH2 0x2396 DUP3 PUSH2 0x172B JUMP JUMPDEST PUSH2 0x2380 JUMP JUMPDEST DUP3 MSTORE POP POP JUMP JUMPDEST PUSH1 0x0 DUP2 PUSH1 0x60 SHL SWAP1 POP SWAP2 SWAP1 POP JUMP JUMPDEST PUSH1 0x0 PUSH2 0x23B9 DUP3 PUSH2 0x23A1 JUMP JUMPDEST SWAP1 POP SWAP2 SWAP1 POP JUMP JUMPDEST PUSH1 0x0 PUSH2 0x23CB DUP3 PUSH2 0x23AE JUMP JUMPDEST SWAP1 POP SWAP2 SWAP1 POP JUMP JUMPDEST PUSH2 0x23E3 PUSH2 0x23DE DUP3 PUSH2 0x1818 JUMP JUMPDEST PUSH2 0x23C0 JUMP JUMPDEST DUP3 MSTORE POP POP JUMP JUMPDEST PUSH1 0x0 DUP2 SWAP1 POP SWAP3 SWAP2 POP POP JUMP JUMPDEST DUP3 DUP2 DUP4 CALLDATACOPY PUSH1 0x0 DUP4 DUP4 ADD MSTORE POP POP POP JUMP JUMPDEST PUSH1 0x0 PUSH2 0x240F DUP4 DUP6 PUSH2 0x23E9 JUMP JUMPDEST SWAP4 POP PUSH2 0x241C DUP4 DUP6 DUP5 PUSH2 0x23F4 JUMP JUMPDEST DUP3 DUP5 ADD SWAP1 POP SWAP4 SWAP3 POP POP POP JUMP JUMPDEST PUSH1 0x0 PUSH2 0x2434 DUP3 DUP8 PUSH2 0x238A JUMP JUMPDEST PUSH1 0x20 DUP3 ADD SWAP2 POP PUSH2 0x2444 DUP3 DUP7 PUSH2 0x23D2 JUMP JUMPDEST PUSH1 0x14 DUP3 ADD SWAP2 POP PUSH2 0x2455 DUP3 DUP5 DUP7 PUSH2 0x2403 JUMP JUMPDEST SWAP2 POP DUP2 SWAP1 POP SWAP6 SWAP5 POP POP POP POP POP JUMP JUMPDEST PUSH32 0x4E487B7100000000000000000000000000000000000000000000000000000000 PUSH1 0x0 MSTORE PUSH1 0x12 PUSH1 0x4 MSTORE PUSH1 0x24 PUSH1 0x0 REVERT JUMPDEST PUSH1 0x0 PUSH2 0x249D DUP3 PUSH2 0x172B JUMP JUMPDEST SWAP2 POP PUSH2 0x24A8 DUP4 PUSH2 0x172B JUMP JUMPDEST SWAP3 POP DUP3 PUSH2 0x24B8 JUMPI PUSH2 0x24B7 PUSH2 0x2463 JUMP JUMPDEST JUMPDEST DUP3 DUP3 MOD SWAP1 POP SWAP3 SWAP2 POP POP JUMP JUMPDEST PUSH1 0x0 PUSH2 0x24CE DUP3 PUSH2 0x172B JUMP JUMPDEST SWAP2 POP PUSH2 0x24D9 DUP4 PUSH2 0x172B JUMP JUMPDEST SWAP3 POP DUP3 PUSH2 0x24E9 JUMPI PUSH2 0x24E8 PUSH2 0x2463 JUMP JUMPDEST JUMPDEST DUP3 DUP3 DIV SWAP1 POP SWAP3 SWAP2 POP POP JUMP JUMPDEST PUSH1 0x0 DUP2 SWAP1 POP SWAP2 SWAP1 POP JUMP JUMPDEST PUSH1 0x0 PUSH2 0x2519 PUSH2 0x2514 PUSH2 0x250F DUP5 PUSH2 0x17F8 JUMP JUMPDEST PUSH2 0x24F4 JUMP JUMPDEST PUSH2 0x17F8 JUMP JUMPDEST SWAP1 POP SWAP2 SWAP1 POP JUMP JUMPDEST PUSH1 0x0 PUSH2 0x252B DUP3 PUSH2 0x24FE JUMP JUMPDEST SWAP1 POP SWAP2 SWAP1 POP JUMP JUMPDEST PUSH1 0x0 PUSH2 0x253D DUP3 PUSH2 0x2520 JUMP JUMPDEST SWAP1 POP SWAP2 SWAP1 POP JUMP JUMPDEST PUSH2 0x254D DUP2 PUSH2 0x2532 JUMP JUMPDEST DUP3 MSTORE POP POP JUMP JUMPDEST PUSH1 0x0 PUSH1 0x40 DUP3 ADD SWAP1 POP PUSH2 0x2568 PUSH1 0x0 DUP4 ADD DUP6 PUSH2 0x2544 JUMP JUMPDEST PUSH2 0x2575 PUSH1 0x20 DUP4 ADD DUP5 PUSH2 0x178E JUMP JUMPDEST SWAP4 SWAP3 POP POP POP JUMP INVALID LOG2 PUSH5 0x6970667358 0x22 SLT KECCAK256 DUP2 0xE7 0xE9 0xF7 0x29 0xB1 SGT 0xCC 0xF9 PUSH23 0xEE50B318522D692D325B148BD1D67F77D9F244FAAF6064 PUSH20 0x6F6C634300081200330000000000000000000000 "
				},
				"gasEstimates": {
					"creation": {
						"codeDepositCost": "1930000",
						"executionCost": "50574",
						"totalCost": "1980574"
					},
					"external": {
						"buyEntry(uint256,uint256,address,address)": "infinite",
						"cancelRaffle(uint256)": "infinite",
						"createRaffle(uint256,uint256,uint256,address,address,uint256,address)": "infinite",
						"devolution(uint256)": "infinite",
						"entries(uint256,uint256)": "infinite",
						"getQtdDisponivel(uint256)": "infinite",
						"owner()": "2555",
						"raffles(uint256)": "infinite",
						"sortearWinner(uint256,string)": "infinite"
					},
					"internal": {
						"gerarNumero(string calldata,uint256)": "infinite",
						"sendToken(uint256)": "infinite",
						"transferTokens(address,address,address,uint256)": "infinite"
					}
				},
				"methodIdentifiers": {
					"buyEntry(uint256,uint256,address,address)": "7f06b8a8",
					"cancelRaffle(uint256)": "5fba3171",
					"createRaffle(uint256,uint256,uint256,address,address,uint256,address)": "bb15d0bc",
					"devolution(uint256)": "f6ce4bc5",
					"entries(uint256,uint256)": "17b937e6",
					"getQtdDisponivel(uint256)": "0b0cfcd4",
					"owner()": "8da5cb5b",
					"raffles(uint256)": "5d4bc0ce",
					"sortearWinner(uint256,string)": "5a9365e4"
				}
			},
			"storageLayout": {
				"storage": [
					{
						"astId": 27,
						"contract": "contracts/MagicTickets/MagicTickets.sol:MagicTickets",
						"label": "owner",
						"offset": 0,
						"slot": "0",
						"type": "t_address"
					},
					{
						"astId": 42,
						"contract": "contracts/MagicTickets/MagicTickets.sol:MagicTickets",
						"label": "walletSite",
						"offset": 0,
						"slot": "1",
						"type": "t_address_payable"
					},
					{
						"astId": 100,
						"contract": "contracts/MagicTickets/MagicTickets.sol:MagicTickets",
						"label": "raffles",
						"offset": 0,
						"slot": "2",
						"type": "t_array(t_struct(RaffleStruct)96_storage)dyn_storage"
					},
					{
						"astId": 109,
						"contract": "contracts/MagicTickets/MagicTickets.sol:MagicTickets",
						"label": "entries",
						"offset": 0,
						"slot": "3",
						"type": "t_mapping(t_uint256,t_array(t_struct(Entry)103_storage)dyn_storage)"
					}
				],
				"types": {
					"t_address": {
						"encoding": "inplace",
						"label": "address",
						"numberOfBytes": "20"
					},
					"t_address_payable": {
						"encoding": "inplace",
						"label": "address payable",
						"numberOfBytes": "20"
					},
					"t_array(t_struct(Entry)103_storage)dyn_storage": {
						"base": "t_struct(Entry)103_storage",
						"encoding": "dynamic_array",
						"label": "struct MagicTickets.Entry[]",
						"numberOfBytes": "32"
					},
					"t_array(t_struct(RaffleStruct)96_storage)dyn_storage": {
						"base": "t_struct(RaffleStruct)96_storage",
						"encoding": "dynamic_array",
						"label": "struct MagicTickets.RaffleStruct[]",
						"numberOfBytes": "32"
					},
					"t_enum(STATUS)46": {
						"encoding": "inplace",
						"label": "enum MagicTickets.STATUS",
						"numberOfBytes": "1"
					},
					"t_mapping(t_uint256,t_array(t_struct(Entry)103_storage)dyn_storage)": {
						"encoding": "mapping",
						"key": "t_uint256",
						"label": "mapping(uint256 => struct MagicTickets.Entry[])",
						"numberOfBytes": "32",
						"value": "t_array(t_struct(Entry)103_storage)dyn_storage"
					},
					"t_struct(Entry)103_storage": {
						"encoding": "inplace",
						"label": "struct MagicTickets.Entry",
						"members": [
							{
								"astId": 102,
								"contract": "contracts/MagicTickets/MagicTickets.sol:MagicTickets",
								"label": "_player",
								"offset": 0,
								"slot": "0",
								"type": "t_address"
							}
						],
						"numberOfBytes": "32"
					},
					"t_struct(RaffleStruct)96_storage": {
						"encoding": "inplace",
						"label": "struct MagicTickets.RaffleStruct",
						"members": [
							{
								"astId": 73,
								"contract": "contracts/MagicTickets/MagicTickets.sol:MagicTickets",
								"label": "_status",
								"offset": 0,
								"slot": "0",
								"type": "t_enum(STATUS)46"
							},
							{
								"astId": 75,
								"contract": "contracts/MagicTickets/MagicTickets.sol:MagicTickets",
								"label": "_maxEntries",
								"offset": 0,
								"slot": "1",
								"type": "t_uint256"
							},
							{
								"astId": 77,
								"contract": "contracts/MagicTickets/MagicTickets.sol:MagicTickets",
								"label": "_minTickets",
								"offset": 0,
								"slot": "2",
								"type": "t_uint256"
							},
							{
								"astId": 79,
								"contract": "contracts/MagicTickets/MagicTickets.sol:MagicTickets",
								"label": "_amountEth",
								"offset": 0,
								"slot": "3",
								"type": "t_uint256"
							},
							{
								"astId": 81,
								"contract": "contracts/MagicTickets/MagicTickets.sol:MagicTickets",
								"label": "_seller",
								"offset": 0,
								"slot": "4",
								"type": "t_address"
							},
							{
								"astId": 83,
								"contract": "contracts/MagicTickets/MagicTickets.sol:MagicTickets",
								"label": "_amountRaised",
								"offset": 0,
								"slot": "5",
								"type": "t_uint256"
							},
							{
								"astId": 85,
								"contract": "contracts/MagicTickets/MagicTickets.sol:MagicTickets",
								"label": "_winner",
								"offset": 0,
								"slot": "6",
								"type": "t_address"
							},
							{
								"astId": 87,
								"contract": "contracts/MagicTickets/MagicTickets.sol:MagicTickets",
								"label": "_qtdDisponivel",
								"offset": 0,
								"slot": "7",
								"type": "t_uint256"
							},
							{
								"astId": 89,
								"contract": "contracts/MagicTickets/MagicTickets.sol:MagicTickets",
								"label": "_sitePercentage",
								"offset": 0,
								"slot": "8",
								"type": "t_uint256"
							},
							{
								"astId": 91,
								"contract": "contracts/MagicTickets/MagicTickets.sol:MagicTickets",
								"label": "_tokenRaffle",
								"offset": 0,
								"slot": "9",
								"type": "t_address"
							},
							{
								"astId": 93,
								"contract": "contracts/MagicTickets/MagicTickets.sol:MagicTickets",
								"label": "_ticketValue",
								"offset": 0,
								"slot": "10",
								"type": "t_uint256"
							},
							{
								"astId": 95,
								"contract": "contracts/MagicTickets/MagicTickets.sol:MagicTickets",
								"label": "_tokenReceived",
								"offset": 0,
								"slot": "11",
								"type": "t_address"
							}
						],
						"numberOfBytes": "384"
					},
					"t_uint256": {
						"encoding": "inplace",
						"label": "uint256",
						"numberOfBytes": "32"
					}
				}
			},
			"userdoc": {
				"kind": "user",
				"methods": {},
				"version": 1
			}
		}
	}
}