{
	"contracts/MagicTickets/MagicTicketsNFT.sol": {
		"MagicNFT": {
			"abi": [
				{
					"inputs": [],
					"stateMutability": "nonpayable",
					"type": "constructor"
				},
				{
					"anonymous": false,
					"inputs": [
						{
							"indexed": true,
							"internalType": "uint256",
							"name": "raffleID",
							"type": "uint256"
						},
						{
							"indexed": true,
							"internalType": "uint256",
							"name": "quantity",
							"type": "uint256"
						},
						{
							"indexed": true,
							"internalType": "address",
							"name": "buyer",
							"type": "address"
						}
					],
					"name": "boughtTickets",
					"type": "event"
				},
				{
					"anonymous": false,
					"inputs": [
						{
							"indexed": true,
							"internalType": "uint256",
							"name": "raffleID",
							"type": "uint256"
						}
					],
					"name": "canceledRaffle",
					"type": "event"
				},
				{
					"anonymous": false,
					"inputs": [
						{
							"indexed": true,
							"internalType": "uint256",
							"name": "raffleID",
							"type": "uint256"
						},
						{
							"indexed": true,
							"internalType": "address",
							"name": "seller",
							"type": "address"
						}
					],
					"name": "createdRaffle",
					"type": "event"
				},
				{
					"anonymous": false,
					"inputs": [
						{
							"indexed": true,
							"internalType": "uint256",
							"name": "raffleID",
							"type": "uint256"
						},
						{
							"indexed": true,
							"internalType": "address",
							"name": "winner",
							"type": "address"
						}
					],
					"name": "drawWinner",
					"type": "event"
				},
				{
					"inputs": [
						{
							"internalType": "uint256",
							"name": "_qtd",
							"type": "uint256"
						},
						{
							"internalType": "uint256",
							"name": "_id",
							"type": "uint256"
						},
						{
							"internalType": "address",
							"name": "_buyer",
							"type": "address"
						}
					],
					"name": "buyTickets",
					"outputs": [],
					"stateMutability": "nonpayable",
					"type": "function"
				},
				{
					"inputs": [
						{
							"internalType": "uint256",
							"name": "_id",
							"type": "uint256"
						}
					],
					"name": "cancelRaffle",
					"outputs": [],
					"stateMutability": "nonpayable",
					"type": "function"
				},
				{
					"inputs": [
						{
							"internalType": "uint256",
							"name": "_maxEntries",
							"type": "uint256"
						},
						{
							"internalType": "uint256",
							"name": "_minTickets",
							"type": "uint256"
						},
						{
							"internalType": "address",
							"name": "_tokenContract",
							"type": "address"
						},
						{
							"internalType": "uint256",
							"name": "_tokenID",
							"type": "uint256"
						},
						{
							"internalType": "uint256",
							"name": "_ticketValue",
							"type": "uint256"
						},
						{
							"internalType": "address",
							"name": "_tokenReceived",
							"type": "address"
						}
					],
					"name": "createRaffle",
					"outputs": [
						{
							"internalType": "uint256",
							"name": "",
							"type": "uint256"
						}
					],
					"stateMutability": "nonpayable",
					"type": "function"
				},
				{
					"inputs": [
						{
							"internalType": "uint256",
							"name": "_id",
							"type": "uint256"
						}
					],
					"name": "devolution",
					"outputs": [],
					"stateMutability": "nonpayable",
					"type": "function"
				},
				{
					"inputs": [
						{
							"internalType": "uint256",
							"name": "",
							"type": "uint256"
						},
						{
							"internalType": "uint256",
							"name": "",
							"type": "uint256"
						}
					],
					"name": "entries",
					"outputs": [
						{
							"internalType": "address",
							"name": "player",
							"type": "address"
						}
					],
					"stateMutability": "view",
					"type": "function"
				},
				{
					"inputs": [
						{
							"internalType": "uint256",
							"name": "_id",
							"type": "uint256"
						}
					],
					"name": "getQtdDisponivel",
					"outputs": [
						{
							"internalType": "uint256",
							"name": "",
							"type": "uint256"
						}
					],
					"stateMutability": "view",
					"type": "function"
				},
				{
					"inputs": [],
					"name": "owner",
					"outputs": [
						{
							"internalType": "address",
							"name": "",
							"type": "address"
						}
					],
					"stateMutability": "view",
					"type": "function"
				},
				{
					"inputs": [
						{
							"internalType": "uint256",
							"name": "",
							"type": "uint256"
						}
					],
					"name": "raffles",
					"outputs": [
						{
							"internalType": "enum MagicNFT.STATUS",
							"name": "status",
							"type": "uint8"
						},
						{
							"internalType": "uint256",
							"name": "maxEntries",
							"type": "uint256"
						},
						{
							"internalType": "uint256",
							"name": "minTickets",
							"type": "uint256"
						},
						{
							"internalType": "uint256",
							"name": "amountRaised",
							"type": "uint256"
						},
						{
							"internalType": "uint256",
							"name": "qtdAvailable",
							"type": "uint256"
						},
						{
							"internalType": "uint256",
							"name": "sitePercentage",
							"type": "uint256"
						},
						{
							"internalType": "uint256",
							"name": "ticketValue",
							"type": "uint256"
						},
						{
							"internalType": "address",
							"name": "tokenReceived",
							"type": "address"
						},
						{
							"internalType": "uint256",
							"name": "tokenNFT",
							"type": "uint256"
						},
						{
							"internalType": "address",
							"name": "tokenContract",
							"type": "address"
						},
						{
							"internalType": "address",
							"name": "seller",
							"type": "address"
						},
						{
							"internalType": "address",
							"name": "winner",
							"type": "address"
						}
					],
					"stateMutability": "view",
					"type": "function"
				},
				{
					"inputs": [
						{
							"internalType": "uint256",
							"name": "_id",
							"type": "uint256"
						},
						{
							"internalType": "string",
							"name": "seed",
							"type": "string"
						}
					],
					"name": "sortearWinner",
					"outputs": [],
					"stateMutability": "nonpayable",
					"type": "function"
				}
			],
			"devdoc": {
				"kind": "dev",
				"methods": {},
				"version": 1
			},
			"evm": {
				"assembly": "    /* \"contracts/MagicTickets/MagicTicketsNFT.sol\":1102:6667  contract MagicNFT {... */\n  mstore(0x40, 0x80)\n    /* \"contracts/MagicTickets/MagicTicketsNFT.sol\":1158:1209  constructor (){... */\n  callvalue\n  dup1\n  iszero\n  tag_1\n  jumpi\n  0x00\n  dup1\n  revert\ntag_1:\n  pop\n    /* \"contracts/MagicTickets/MagicTicketsNFT.sol\":1191:1201  msg.sender */\n  caller\n    /* \"contracts/MagicTickets/MagicTicketsNFT.sol\":1183:1188  owner */\n  0x00\n  dup1\n    /* \"contracts/MagicTickets/MagicTicketsNFT.sol\":1183:1201  owner = msg.sender */\n  0x0100\n  exp\n  dup2\n  sload\n  dup2\n  0xffffffffffffffffffffffffffffffffffffffff\n  mul\n  not\n  and\n  swap1\n  dup4\n  0xffffffffffffffffffffffffffffffffffffffff\n  and\n  mul\n  or\n  swap1\n  sstore\n  pop\n    /* \"contracts/MagicTickets/MagicTicketsNFT.sol\":1102:6667  contract MagicNFT {... */\n  dataSize(sub_0)\n  dup1\n  dataOffset(sub_0)\n  0x00\n  codecopy\n  0x00\n  return\nstop\n\nsub_0: assembly {\n        /* \"contracts/MagicTickets/MagicTicketsNFT.sol\":1102:6667  contract MagicNFT {... */\n      mstore(0x40, 0x80)\n      callvalue\n      dup1\n      iszero\n      tag_1\n      jumpi\n      0x00\n      dup1\n      revert\n    tag_1:\n      pop\n      jumpi(tag_2, lt(calldatasize, 0x04))\n      shr(0xe0, calldataload(0x00))\n      dup1\n      0x5fba3171\n      gt\n      tag_12\n      jumpi\n      dup1\n      0x5fba3171\n      eq\n      tag_7\n      jumpi\n      dup1\n      0x66a76642\n      eq\n      tag_8\n      jumpi\n      dup1\n      0x8da5cb5b\n      eq\n      tag_9\n      jumpi\n      dup1\n      0xa792813c\n      eq\n      tag_10\n      jumpi\n      dup1\n      0xf6ce4bc5\n      eq\n      tag_11\n      jumpi\n      jump(tag_2)\n    tag_12:\n      dup1\n      0x0b0cfcd4\n      eq\n      tag_3\n      jumpi\n      dup1\n      0x17b937e6\n      eq\n      tag_4\n      jumpi\n      dup1\n      0x5a9365e4\n      eq\n      tag_5\n      jumpi\n      dup1\n      0x5d4bc0ce\n      eq\n      tag_6\n      jumpi\n    tag_2:\n      0x00\n      dup1\n      revert\n        /* \"contracts/MagicTickets/MagicTicketsNFT.sol\":4241:4353  function getQtdDisponivel(uint _id) public view returns(uint){... */\n    tag_3:\n      tag_13\n      0x04\n      dup1\n      calldatasize\n      sub\n      dup2\n      add\n      swap1\n      tag_14\n      swap2\n      swap1\n      tag_15\n      jump\t// in\n    tag_14:\n      tag_16\n      jump\t// in\n    tag_13:\n      mload(0x40)\n      tag_17\n      swap2\n      swap1\n      tag_18\n      jump\t// in\n    tag_17:\n      mload(0x40)\n      dup1\n      swap2\n      sub\n      swap1\n      return\n        /* \"contracts/MagicTickets/MagicTicketsNFT.sol\":2040:2079  mapping(uint => Entry[]) public entries */\n    tag_4:\n      tag_19\n      0x04\n      dup1\n      calldatasize\n      sub\n      dup2\n      add\n      swap1\n      tag_20\n      swap2\n      swap1\n      tag_21\n      jump\t// in\n    tag_20:\n      tag_22\n      jump\t// in\n    tag_19:\n      mload(0x40)\n      tag_23\n      swap2\n      swap1\n      tag_24\n      jump\t// in\n    tag_23:\n      mload(0x40)\n      dup1\n      swap2\n      sub\n      swap1\n      return\n        /* \"contracts/MagicTickets/MagicTicketsNFT.sol\":5456:6168  function sortearWinner(uint _id, string calldata seed) public {... */\n    tag_5:\n      tag_25\n      0x04\n      dup1\n      calldatasize\n      sub\n      dup2\n      add\n      swap1\n      tag_26\n      swap2\n      swap1\n      tag_27\n      jump\t// in\n    tag_26:\n      tag_28\n      jump\t// in\n    tag_25:\n      stop\n        /* \"contracts/MagicTickets/MagicTicketsNFT.sol\":1948:1977  RaffleStruct[] public raffles */\n    tag_6:\n      tag_29\n      0x04\n      dup1\n      calldatasize\n      sub\n      dup2\n      add\n      swap1\n      tag_30\n      swap2\n      swap1\n      tag_15\n      jump\t// in\n    tag_30:\n      tag_31\n      jump\t// in\n    tag_29:\n      mload(0x40)\n      tag_32\n      swap13\n      swap12\n      swap11\n      swap10\n      swap9\n      swap8\n      swap7\n      swap6\n      swap5\n      swap4\n      swap3\n      swap2\n      swap1\n      tag_33\n      jump\t// in\n    tag_32:\n      mload(0x40)\n      dup1\n      swap2\n      sub\n      swap1\n      return\n        /* \"contracts/MagicTickets/MagicTicketsNFT.sol\":4361:4875  function cancelRaffle(uint _id) public {... */\n    tag_7:\n      tag_34\n      0x04\n      dup1\n      calldatasize\n      sub\n      dup2\n      add\n      swap1\n      tag_35\n      swap2\n      swap1\n      tag_15\n      jump\t// in\n    tag_35:\n      tag_36\n      jump\t// in\n    tag_34:\n      stop\n        /* \"contracts/MagicTickets/MagicTicketsNFT.sol\":2291:3445  function createRaffle(uint _maxEntries, uint _minTickets, ... */\n    tag_8:\n      tag_37\n      0x04\n      dup1\n      calldatasize\n      sub\n      dup2\n      add\n      swap1\n      tag_38\n      swap2\n      swap1\n      tag_39\n      jump\t// in\n    tag_38:\n      tag_40\n      jump\t// in\n    tag_37:\n      mload(0x40)\n      tag_41\n      swap2\n      swap1\n      tag_18\n      jump\t// in\n    tag_41:\n      mload(0x40)\n      dup1\n      swap2\n      sub\n      swap1\n      return\n        /* \"contracts/MagicTickets/MagicTicketsNFT.sol\":1129:1149  address public owner */\n    tag_9:\n      tag_42\n      tag_43\n      jump\t// in\n    tag_42:\n      mload(0x40)\n      tag_44\n      swap2\n      swap1\n      tag_24\n      jump\t// in\n    tag_44:\n      mload(0x40)\n      dup1\n      swap2\n      sub\n      swap1\n      return\n        /* \"contracts/MagicTickets/MagicTicketsNFT.sol\":3454:4233  function buyTickets(uint _qtd, uint _id, address _buyer) public {... */\n    tag_10:\n      tag_45\n      0x04\n      dup1\n      calldatasize\n      sub\n      dup2\n      add\n      swap1\n      tag_46\n      swap2\n      swap1\n      tag_47\n      jump\t// in\n    tag_46:\n      tag_48\n      jump\t// in\n    tag_45:\n      stop\n        /* \"contracts/MagicTickets/MagicTicketsNFT.sol\":4883:5236  function devolution(uint _id) public{... */\n    tag_11:\n      tag_49\n      0x04\n      dup1\n      calldatasize\n      sub\n      dup2\n      add\n      swap1\n      tag_50\n      swap2\n      swap1\n      tag_15\n      jump\t// in\n    tag_50:\n      tag_51\n      jump\t// in\n    tag_49:\n      stop\n        /* \"contracts/MagicTickets/MagicTicketsNFT.sol\":4241:4353  function getQtdDisponivel(uint _id) public view returns(uint){... */\n    tag_16:\n        /* \"contracts/MagicTickets/MagicTicketsNFT.sol\":4297:4301  uint */\n      0x00\n        /* \"contracts/MagicTickets/MagicTicketsNFT.sol\":4320:4327  raffles */\n      0x01\n        /* \"contracts/MagicTickets/MagicTicketsNFT.sol\":4328:4331  _id */\n      dup3\n        /* \"contracts/MagicTickets/MagicTicketsNFT.sol\":4320:4332  raffles[_id] */\n      dup2\n      sload\n      dup2\n      lt\n      tag_53\n      jumpi\n      tag_54\n      tag_55\n      jump\t// in\n    tag_54:\n    tag_53:\n      swap1\n      0x00\n      mstore\n      keccak256(0x00, 0x20)\n      swap1\n      0x0c\n      mul\n      add\n        /* \"contracts/MagicTickets/MagicTicketsNFT.sol\":4320:4345  raffles[_id].qtdAvailable */\n      0x04\n      add\n      sload\n        /* \"contracts/MagicTickets/MagicTicketsNFT.sol\":4313:4345  return raffles[_id].qtdAvailable */\n      swap1\n      pop\n        /* \"contracts/MagicTickets/MagicTicketsNFT.sol\":4241:4353  function getQtdDisponivel(uint _id) public view returns(uint){... */\n      swap2\n      swap1\n      pop\n      jump\t// out\n        /* \"contracts/MagicTickets/MagicTicketsNFT.sol\":2040:2079  mapping(uint => Entry[]) public entries */\n    tag_22:\n      mstore(0x20, 0x02)\n      dup2\n      0x00\n      mstore\n      keccak256(0x00, 0x40)\n      dup2\n      dup2\n      sload\n      dup2\n      lt\n      tag_57\n      jumpi\n      0x00\n      dup1\n      revert\n    tag_57:\n      swap1\n      0x00\n      mstore\n      keccak256(0x00, 0x20)\n      add\n      0x00\n      swap2\n      pop\n      swap2\n      pop\n      pop\n      dup1\n      0x00\n      add\n      0x00\n      swap1\n      sload\n      swap1\n      0x0100\n      exp\n      swap1\n      div\n      0xffffffffffffffffffffffffffffffffffffffff\n      and\n      swap1\n      pop\n      dup2\n      jump\t// out\n        /* \"contracts/MagicTickets/MagicTicketsNFT.sol\":5456:6168  function sortearWinner(uint _id, string calldata seed) public {... */\n    tag_28:\n        /* \"contracts/MagicTickets/MagicTicketsNFT.sol\":5551:5556  owner */\n      0x00\n      dup1\n      sload\n      swap1\n      0x0100\n      exp\n      swap1\n      div\n      0xffffffffffffffffffffffffffffffffffffffff\n      and\n        /* \"contracts/MagicTickets/MagicTicketsNFT.sol\":5537:5556  msg.sender == owner */\n      0xffffffffffffffffffffffffffffffffffffffff\n      and\n        /* \"contracts/MagicTickets/MagicTicketsNFT.sol\":5537:5547  msg.sender */\n      caller\n        /* \"contracts/MagicTickets/MagicTicketsNFT.sol\":5537:5556  msg.sender == owner */\n      0xffffffffffffffffffffffffffffffffffffffff\n      and\n      eq\n        /* \"contracts/MagicTickets/MagicTicketsNFT.sol\":5529:5612  require(msg.sender == owner, \"Apenas o owner pode realizar a chamada dessa funcao\") */\n      tag_60\n      jumpi\n      mload(0x40)\n      0x08c379a000000000000000000000000000000000000000000000000000000000\n      dup2\n      mstore\n      0x04\n      add\n      tag_61\n      swap1\n      tag_62\n      jump\t// in\n    tag_61:\n      mload(0x40)\n      dup1\n      swap2\n      sub\n      swap1\n      revert\n    tag_60:\n        /* \"contracts/MagicTickets/MagicTicketsNFT.sol\":5625:5652  RaffleStruct storage raffle */\n      0x00\n        /* \"contracts/MagicTickets/MagicTicketsNFT.sol\":5655:5662  raffles */\n      0x01\n        /* \"contracts/MagicTickets/MagicTicketsNFT.sol\":5663:5666  _id */\n      dup5\n        /* \"contracts/MagicTickets/MagicTicketsNFT.sol\":5655:5667  raffles[_id] */\n      dup2\n      sload\n      dup2\n      lt\n      tag_63\n      jumpi\n      tag_64\n      tag_55\n      jump\t// in\n    tag_64:\n    tag_63:\n      swap1\n      0x00\n      mstore\n      keccak256(0x00, 0x20)\n      swap1\n      0x0c\n      mul\n      add\n        /* \"contracts/MagicTickets/MagicTicketsNFT.sol\":5625:5667  RaffleStruct storage raffle = raffles[_id] */\n      swap1\n      pop\n        /* \"contracts/MagicTickets/MagicTicketsNFT.sol\":5705:5717  STATUS.ENDED */\n      0x01\n        /* \"contracts/MagicTickets/MagicTicketsNFT.sol\":5688:5717  raffle.status != STATUS.ENDED */\n      0x02\n      dup2\n      gt\n      iszero\n      tag_66\n      jumpi\n      tag_67\n      tag_68\n      jump\t// in\n    tag_67:\n    tag_66:\n        /* \"contracts/MagicTickets/MagicTicketsNFT.sol\":5688:5694  raffle */\n      dup2\n        /* \"contracts/MagicTickets/MagicTicketsNFT.sol\":5688:5701  raffle.status */\n      0x00\n      add\n      0x00\n      swap1\n      sload\n      swap1\n      0x0100\n      exp\n      swap1\n      div\n      0xff\n      and\n        /* \"contracts/MagicTickets/MagicTicketsNFT.sol\":5688:5717  raffle.status != STATUS.ENDED */\n      0x02\n      dup2\n      gt\n      iszero\n      tag_69\n      jumpi\n      tag_70\n      tag_68\n      jump\t// in\n    tag_70:\n    tag_69:\n      eq\n      iszero\n        /* \"contracts/MagicTickets/MagicTicketsNFT.sol\":5688:5753  raffle.status != STATUS.ENDED && raffle.status != STATUS.CANCELED */\n      dup1\n      iszero\n      tag_71\n      jumpi\n      pop\n        /* \"contracts/MagicTickets/MagicTicketsNFT.sol\":5738:5753  STATUS.CANCELED */\n      0x02\n        /* \"contracts/MagicTickets/MagicTicketsNFT.sol\":5721:5753  raffle.status != STATUS.CANCELED */\n      dup1\n      dup2\n      gt\n      iszero\n      tag_72\n      jumpi\n      tag_73\n      tag_68\n      jump\t// in\n    tag_73:\n    tag_72:\n        /* \"contracts/MagicTickets/MagicTicketsNFT.sol\":5721:5727  raffle */\n      dup2\n        /* \"contracts/MagicTickets/MagicTicketsNFT.sol\":5721:5734  raffle.status */\n      0x00\n      add\n      0x00\n      swap1\n      sload\n      swap1\n      0x0100\n      exp\n      swap1\n      div\n      0xff\n      and\n        /* \"contracts/MagicTickets/MagicTicketsNFT.sol\":5721:5753  raffle.status != STATUS.CANCELED */\n      0x02\n      dup2\n      gt\n      iszero\n      tag_74\n      jumpi\n      tag_75\n      tag_68\n      jump\t// in\n    tag_75:\n    tag_74:\n      eq\n      iszero\n        /* \"contracts/MagicTickets/MagicTicketsNFT.sol\":5688:5753  raffle.status != STATUS.ENDED && raffle.status != STATUS.CANCELED */\n    tag_71:\n        /* \"contracts/MagicTickets/MagicTicketsNFT.sol\":5680:5784  require(raffle.status != STATUS.ENDED && raffle.status != STATUS.CANCELED, \"O Raffle ja foi finalizado\") */\n      tag_76\n      jumpi\n      mload(0x40)\n      0x08c379a000000000000000000000000000000000000000000000000000000000\n      dup2\n      mstore\n      0x04\n      add\n      tag_77\n      swap1\n      tag_78\n      jump\t// in\n    tag_77:\n      mload(0x40)\n      dup1\n      swap2\n      sub\n      swap1\n      revert\n    tag_76:\n        /* \"contracts/MagicTickets/MagicTicketsNFT.sol\":5826:5832  raffle */\n      dup1\n        /* \"contracts/MagicTickets/MagicTicketsNFT.sol\":5826:5843  raffle.minTickets */\n      0x02\n      add\n      sload\n        /* \"contracts/MagicTickets/MagicTicketsNFT.sol\":5803:5810  entries */\n      0x02\n        /* \"contracts/MagicTickets/MagicTicketsNFT.sol\":5803:5815  entries[_id] */\n      0x00\n        /* \"contracts/MagicTickets/MagicTicketsNFT.sol\":5811:5814  _id */\n      dup7\n        /* \"contracts/MagicTickets/MagicTicketsNFT.sol\":5803:5815  entries[_id] */\n      dup2\n      mstore\n      0x20\n      add\n      swap1\n      dup2\n      mstore\n      0x20\n      add\n      0x00\n      keccak256\n        /* \"contracts/MagicTickets/MagicTicketsNFT.sol\":5803:5822  entries[_id].length */\n      dup1\n      sload\n      swap1\n      pop\n        /* \"contracts/MagicTickets/MagicTicketsNFT.sol\":5803:5843  entries[_id].length >= raffle.minTickets */\n      lt\n      iszero\n        /* \"contracts/MagicTickets/MagicTicketsNFT.sol\":5795:5883  require(entries[_id].length >= raffle.minTickets, \"Quantidade de tickets insuficientes\") */\n      tag_79\n      jumpi\n      mload(0x40)\n      0x08c379a000000000000000000000000000000000000000000000000000000000\n      dup2\n      mstore\n      0x04\n      add\n      tag_80\n      swap1\n      tag_81\n      jump\t// in\n    tag_80:\n      mload(0x40)\n      dup1\n      swap2\n      sub\n      swap1\n      revert\n    tag_79:\n        /* \"contracts/MagicTickets/MagicTicketsNFT.sol\":5896:5906  uint valor */\n      0x00\n        /* \"contracts/MagicTickets/MagicTicketsNFT.sol\":5909:5951  gerarNumero(seed, entries[_id].length - 1) */\n      tag_82\n        /* \"contracts/MagicTickets/MagicTicketsNFT.sol\":5921:5925  seed */\n      dup5\n      dup5\n        /* \"contracts/MagicTickets/MagicTicketsNFT.sol\":5949:5950  1 */\n      0x01\n        /* \"contracts/MagicTickets/MagicTicketsNFT.sol\":5927:5934  entries */\n      0x02\n        /* \"contracts/MagicTickets/MagicTicketsNFT.sol\":5927:5939  entries[_id] */\n      0x00\n        /* \"contracts/MagicTickets/MagicTicketsNFT.sol\":5935:5938  _id */\n      dup11\n        /* \"contracts/MagicTickets/MagicTicketsNFT.sol\":5927:5939  entries[_id] */\n      dup2\n      mstore\n      0x20\n      add\n      swap1\n      dup2\n      mstore\n      0x20\n      add\n      0x00\n      keccak256\n        /* \"contracts/MagicTickets/MagicTicketsNFT.sol\":5927:5946  entries[_id].length */\n      dup1\n      sload\n      swap1\n      pop\n        /* \"contracts/MagicTickets/MagicTicketsNFT.sol\":5927:5950  entries[_id].length - 1 */\n      tag_83\n      swap2\n      swap1\n      tag_84\n      jump\t// in\n    tag_83:\n        /* \"contracts/MagicTickets/MagicTicketsNFT.sol\":5909:5920  gerarNumero */\n      tag_85\n        /* \"contracts/MagicTickets/MagicTicketsNFT.sol\":5909:5951  gerarNumero(seed, entries[_id].length - 1) */\n      jump\t// in\n    tag_82:\n        /* \"contracts/MagicTickets/MagicTicketsNFT.sol\":5896:5951  uint valor = gerarNumero(seed, entries[_id].length - 1) */\n      swap1\n      pop\n        /* \"contracts/MagicTickets/MagicTicketsNFT.sol\":5962:5976  address wallet */\n      0x00\n        /* \"contracts/MagicTickets/MagicTicketsNFT.sol\":5979:5986  entries */\n      0x02\n        /* \"contracts/MagicTickets/MagicTicketsNFT.sol\":5979:5991  entries[_id] */\n      0x00\n        /* \"contracts/MagicTickets/MagicTicketsNFT.sol\":5987:5990  _id */\n      dup8\n        /* \"contracts/MagicTickets/MagicTicketsNFT.sol\":5979:5991  entries[_id] */\n      dup2\n      mstore\n      0x20\n      add\n      swap1\n      dup2\n      mstore\n      0x20\n      add\n      0x00\n      keccak256\n        /* \"contracts/MagicTickets/MagicTicketsNFT.sol\":5992:5997  valor */\n      dup3\n        /* \"contracts/MagicTickets/MagicTicketsNFT.sol\":5979:5998  entries[_id][valor] */\n      dup2\n      sload\n      dup2\n      lt\n      tag_86\n      jumpi\n      tag_87\n      tag_55\n      jump\t// in\n    tag_87:\n    tag_86:\n      swap1\n      0x00\n      mstore\n      keccak256(0x00, 0x20)\n      add\n        /* \"contracts/MagicTickets/MagicTicketsNFT.sol\":5979:6005  entries[_id][valor].player */\n      0x00\n      add\n      0x00\n      swap1\n      sload\n      swap1\n      0x0100\n      exp\n      swap1\n      div\n      0xffffffffffffffffffffffffffffffffffffffff\n      and\n        /* \"contracts/MagicTickets/MagicTicketsNFT.sol\":5962:6005  address wallet = entries[_id][valor].player */\n      swap1\n      pop\n        /* \"contracts/MagicTickets/MagicTicketsNFT.sol\":6034:6040  wallet */\n      dup1\n        /* \"contracts/MagicTickets/MagicTicketsNFT.sol\":6018:6024  raffle */\n      dup4\n        /* \"contracts/MagicTickets/MagicTicketsNFT.sol\":6018:6031  raffle.winner */\n      0x0b\n      add\n      0x00\n        /* \"contracts/MagicTickets/MagicTicketsNFT.sol\":6018:6040  raffle.winner = wallet */\n      0x0100\n      exp\n      dup2\n      sload\n      dup2\n      0xffffffffffffffffffffffffffffffffffffffff\n      mul\n      not\n      and\n      swap1\n      dup4\n      0xffffffffffffffffffffffffffffffffffffffff\n      and\n      mul\n      or\n      swap1\n      sstore\n      pop\n        /* \"contracts/MagicTickets/MagicTicketsNFT.sol\":6067:6079  STATUS.ENDED */\n      0x01\n        /* \"contracts/MagicTickets/MagicTicketsNFT.sol\":6051:6057  raffle */\n      dup4\n        /* \"contracts/MagicTickets/MagicTicketsNFT.sol\":6051:6064  raffle.status */\n      0x00\n      add\n      0x00\n        /* \"contracts/MagicTickets/MagicTicketsNFT.sol\":6051:6079  raffle.status = STATUS.ENDED */\n      0x0100\n      exp\n      dup2\n      sload\n      dup2\n      0xff\n      mul\n      not\n      and\n      swap1\n      dup4\n      0x02\n      dup2\n      gt\n      iszero\n      tag_89\n      jumpi\n      tag_90\n      tag_68\n      jump\t// in\n    tag_90:\n    tag_89:\n      mul\n      or\n      swap1\n      sstore\n      pop\n        /* \"contracts/MagicTickets/MagicTicketsNFT.sol\":6113:6119  raffle */\n      dup3\n        /* \"contracts/MagicTickets/MagicTicketsNFT.sol\":6113:6126  raffle.winner */\n      0x0b\n      add\n      0x00\n      swap1\n      sload\n      swap1\n      0x0100\n      exp\n      swap1\n      div\n      0xffffffffffffffffffffffffffffffffffffffff\n      and\n        /* \"contracts/MagicTickets/MagicTicketsNFT.sol\":6097:6127  drawWinner(_id, raffle.winner) */\n      0xffffffffffffffffffffffffffffffffffffffff\n      and\n        /* \"contracts/MagicTickets/MagicTicketsNFT.sol\":6108:6111  _id */\n      dup7\n        /* \"contracts/MagicTickets/MagicTicketsNFT.sol\":6097:6127  drawWinner(_id, raffle.winner) */\n      0xce2cddfd400adbcf694cea71fb57997f5c7a9fc7487c6f7701c97bcddf217095\n      mload(0x40)\n      mload(0x40)\n      dup1\n      swap2\n      sub\n      swap1\n      log3\n        /* \"contracts/MagicTickets/MagicTicketsNFT.sol\":6140:6160  sendTokenAndNFT(_id) */\n      tag_91\n        /* \"contracts/MagicTickets/MagicTicketsNFT.sol\":6156:6159  _id */\n      dup7\n        /* \"contracts/MagicTickets/MagicTicketsNFT.sol\":6140:6155  sendTokenAndNFT */\n      tag_92\n        /* \"contracts/MagicTickets/MagicTicketsNFT.sol\":6140:6160  sendTokenAndNFT(_id) */\n      jump\t// in\n    tag_91:\n        /* \"contracts/MagicTickets/MagicTicketsNFT.sol\":5518:6168  {... */\n      pop\n      pop\n      pop\n        /* \"contracts/MagicTickets/MagicTicketsNFT.sol\":5456:6168  function sortearWinner(uint _id, string calldata seed) public {... */\n      pop\n      pop\n      pop\n      jump\t// out\n        /* \"contracts/MagicTickets/MagicTicketsNFT.sol\":1948:1977  RaffleStruct[] public raffles */\n    tag_31:\n      0x01\n      dup2\n      dup2\n      sload\n      dup2\n      lt\n      tag_93\n      jumpi\n      0x00\n      dup1\n      revert\n    tag_93:\n      swap1\n      0x00\n      mstore\n      keccak256(0x00, 0x20)\n      swap1\n      0x0c\n      mul\n      add\n      0x00\n      swap2\n      pop\n      swap1\n      pop\n      dup1\n      0x00\n      add\n      0x00\n      swap1\n      sload\n      swap1\n      0x0100\n      exp\n      swap1\n      div\n      0xff\n      and\n      swap1\n      dup1\n      0x01\n      add\n      sload\n      swap1\n      dup1\n      0x02\n      add\n      sload\n      swap1\n      dup1\n      0x03\n      add\n      sload\n      swap1\n      dup1\n      0x04\n      add\n      sload\n      swap1\n      dup1\n      0x05\n      add\n      sload\n      swap1\n      dup1\n      0x06\n      add\n      sload\n      swap1\n      dup1\n      0x07\n      add\n      0x00\n      swap1\n      sload\n      swap1\n      0x0100\n      exp\n      swap1\n      div\n      0xffffffffffffffffffffffffffffffffffffffff\n      and\n      swap1\n      dup1\n      0x08\n      add\n      sload\n      swap1\n      dup1\n      0x09\n      add\n      0x00\n      swap1\n      sload\n      swap1\n      0x0100\n      exp\n      swap1\n      div\n      0xffffffffffffffffffffffffffffffffffffffff\n      and\n      swap1\n      dup1\n      0x0a\n      add\n      0x00\n      swap1\n      sload\n      swap1\n      0x0100\n      exp\n      swap1\n      div\n      0xffffffffffffffffffffffffffffffffffffffff\n      and\n      swap1\n      dup1\n      0x0b\n      add\n      0x00\n      swap1\n      sload\n      swap1\n      0x0100\n      exp\n      swap1\n      div\n      0xffffffffffffffffffffffffffffffffffffffff\n      and\n      swap1\n      pop\n      dup13\n      jump\t// out\n        /* \"contracts/MagicTickets/MagicTicketsNFT.sol\":4361:4875  function cancelRaffle(uint _id) public {... */\n    tag_36:\n        /* \"contracts/MagicTickets/MagicTicketsNFT.sol\":4433:4440  raffles */\n      0x01\n        /* \"contracts/MagicTickets/MagicTicketsNFT.sol\":4441:4444  _id */\n      dup2\n        /* \"contracts/MagicTickets/MagicTicketsNFT.sol\":4433:4445  raffles[_id] */\n      dup2\n      sload\n      dup2\n      lt\n      tag_96\n      jumpi\n      tag_97\n      tag_55\n      jump\t// in\n    tag_97:\n    tag_96:\n      swap1\n      0x00\n      mstore\n      keccak256(0x00, 0x20)\n      swap1\n      0x0c\n      mul\n      add\n        /* \"contracts/MagicTickets/MagicTicketsNFT.sol\":4433:4452  raffles[_id].seller */\n      0x0a\n      add\n      0x00\n      swap1\n      sload\n      swap1\n      0x0100\n      exp\n      swap1\n      div\n      0xffffffffffffffffffffffffffffffffffffffff\n      and\n        /* \"contracts/MagicTickets/MagicTicketsNFT.sol\":4419:4452  msg.sender == raffles[_id].seller */\n      0xffffffffffffffffffffffffffffffffffffffff\n      and\n        /* \"contracts/MagicTickets/MagicTicketsNFT.sol\":4419:4429  msg.sender */\n      caller\n        /* \"contracts/MagicTickets/MagicTicketsNFT.sol\":4419:4452  msg.sender == raffles[_id].seller */\n      0xffffffffffffffffffffffffffffffffffffffff\n      and\n      eq\n        /* \"contracts/MagicTickets/MagicTicketsNFT.sol\":4411:4458  require(msg.sender == raffles[_id].seller, \" \") */\n      tag_99\n      jumpi\n      mload(0x40)\n      0x08c379a000000000000000000000000000000000000000000000000000000000\n      dup2\n      mstore\n      0x04\n      add\n      tag_100\n      swap1\n      tag_101\n      jump\t// in\n    tag_100:\n      mload(0x40)\n      dup1\n      swap2\n      sub\n      swap1\n      revert\n    tag_99:\n        /* \"contracts/MagicTickets/MagicTicketsNFT.sol\":4500:4501  0 */\n      0x00\n        /* \"contracts/MagicTickets/MagicTicketsNFT.sol\":4477:4484  entries */\n      0x02\n        /* \"contracts/MagicTickets/MagicTicketsNFT.sol\":4477:4489  entries[_id] */\n      0x00\n        /* \"contracts/MagicTickets/MagicTicketsNFT.sol\":4485:4488  _id */\n      dup4\n        /* \"contracts/MagicTickets/MagicTicketsNFT.sol\":4477:4489  entries[_id] */\n      dup2\n      mstore\n      0x20\n      add\n      swap1\n      dup2\n      mstore\n      0x20\n      add\n      0x00\n      keccak256\n        /* \"contracts/MagicTickets/MagicTicketsNFT.sol\":4477:4496  entries[_id].length */\n      dup1\n      sload\n      swap1\n      pop\n        /* \"contracts/MagicTickets/MagicTicketsNFT.sol\":4477:4501  entries[_id].length == 0 */\n      eq\n        /* \"contracts/MagicTickets/MagicTicketsNFT.sol\":4469:4507  require(entries[_id].length == 0, \" \") */\n      tag_102\n      jumpi\n      mload(0x40)\n      0x08c379a000000000000000000000000000000000000000000000000000000000\n      dup2\n      mstore\n      0x04\n      add\n      tag_103\n      swap1\n      tag_101\n      jump\t// in\n    tag_103:\n      mload(0x40)\n      dup1\n      swap2\n      sub\n      swap1\n      revert\n    tag_102:\n        /* \"contracts/MagicTickets/MagicTicketsNFT.sol\":4520:4547  RaffleStruct storage raffle */\n      0x00\n        /* \"contracts/MagicTickets/MagicTicketsNFT.sol\":4550:4557  raffles */\n      0x01\n        /* \"contracts/MagicTickets/MagicTicketsNFT.sol\":4558:4561  _id */\n      dup3\n        /* \"contracts/MagicTickets/MagicTicketsNFT.sol\":4550:4562  raffles[_id] */\n      dup2\n      sload\n      dup2\n      lt\n      tag_104\n      jumpi\n      tag_105\n      tag_55\n      jump\t// in\n    tag_105:\n    tag_104:\n      swap1\n      0x00\n      mstore\n      keccak256(0x00, 0x20)\n      swap1\n      0x0c\n      mul\n      add\n        /* \"contracts/MagicTickets/MagicTicketsNFT.sol\":4520:4562  RaffleStruct storage raffle = raffles[_id] */\n      swap1\n      pop\n        /* \"contracts/MagicTickets/MagicTicketsNFT.sol\":4600:4614  STATUS.STARTED */\n      0x00\n        /* \"contracts/MagicTickets/MagicTicketsNFT.sol\":4583:4614  raffle.status == STATUS.STARTED */\n      0x02\n      dup2\n      gt\n      iszero\n      tag_107\n      jumpi\n      tag_108\n      tag_68\n      jump\t// in\n    tag_108:\n    tag_107:\n        /* \"contracts/MagicTickets/MagicTicketsNFT.sol\":4583:4589  raffle */\n      dup2\n        /* \"contracts/MagicTickets/MagicTicketsNFT.sol\":4583:4596  raffle.status */\n      0x00\n      add\n      0x00\n      swap1\n      sload\n      swap1\n      0x0100\n      exp\n      swap1\n      div\n      0xff\n      and\n        /* \"contracts/MagicTickets/MagicTicketsNFT.sol\":4583:4614  raffle.status == STATUS.STARTED */\n      0x02\n      dup2\n      gt\n      iszero\n      tag_109\n      jumpi\n      tag_110\n      tag_68\n      jump\t// in\n    tag_110:\n    tag_109:\n      eq\n        /* \"contracts/MagicTickets/MagicTicketsNFT.sol\":4575:4620  require(raffle.status == STATUS.STARTED, \" \") */\n      tag_111\n      jumpi\n      mload(0x40)\n      0x08c379a000000000000000000000000000000000000000000000000000000000\n      dup2\n      mstore\n      0x04\n      add\n      tag_112\n      swap1\n      tag_101\n      jump\t// in\n    tag_112:\n      mload(0x40)\n      dup1\n      swap2\n      sub\n      swap1\n      revert\n    tag_111:\n        /* \"contracts/MagicTickets/MagicTicketsNFT.sol\":4633:4647  address wallet */\n      0x00\n        /* \"contracts/MagicTickets/MagicTicketsNFT.sol\":4650:4656  raffle */\n      dup2\n        /* \"contracts/MagicTickets/MagicTicketsNFT.sol\":4650:4663  raffle.seller */\n      0x0a\n      add\n      0x00\n      swap1\n      sload\n      swap1\n      0x0100\n      exp\n      swap1\n      div\n      0xffffffffffffffffffffffffffffffffffffffff\n      and\n        /* \"contracts/MagicTickets/MagicTicketsNFT.sol\":4633:4663  address wallet = raffle.seller */\n      swap1\n      pop\n        /* \"contracts/MagicTickets/MagicTicketsNFT.sol\":4676:4687  IERC721 nft */\n      0x00\n        /* \"contracts/MagicTickets/MagicTicketsNFT.sol\":4698:4704  raffle */\n      dup3\n        /* \"contracts/MagicTickets/MagicTicketsNFT.sol\":4698:4718  raffle.tokenContract */\n      0x09\n      add\n      0x00\n      swap1\n      sload\n      swap1\n      0x0100\n      exp\n      swap1\n      div\n      0xffffffffffffffffffffffffffffffffffffffff\n      and\n        /* \"contracts/MagicTickets/MagicTicketsNFT.sol\":4676:4719  IERC721 nft = IERC721(raffle.tokenContract) */\n      swap1\n      pop\n        /* \"contracts/MagicTickets/MagicTicketsNFT.sol\":4730:4733  nft */\n      dup1\n        /* \"contracts/MagicTickets/MagicTicketsNFT.sol\":4730:4746  nft.transferFrom */\n      0xffffffffffffffffffffffffffffffffffffffff\n      and\n      0x23b872dd\n        /* \"contracts/MagicTickets/MagicTicketsNFT.sol\":4755:4759  this */\n      address\n        /* \"contracts/MagicTickets/MagicTicketsNFT.sol\":4762:4768  wallet */\n      dup5\n        /* \"contracts/MagicTickets/MagicTicketsNFT.sol\":4770:4776  raffle */\n      dup7\n        /* \"contracts/MagicTickets/MagicTicketsNFT.sol\":4770:4785  raffle.tokenNFT */\n      0x08\n      add\n      sload\n        /* \"contracts/MagicTickets/MagicTicketsNFT.sol\":4730:4786  nft.transferFrom(address(this), wallet, raffle.tokenNFT) */\n      mload(0x40)\n      dup5\n      0xffffffff\n      and\n      0xe0\n      shl\n      dup2\n      mstore\n      0x04\n      add\n      tag_113\n      swap4\n      swap3\n      swap2\n      swap1\n      tag_114\n      jump\t// in\n    tag_113:\n      0x00\n      mload(0x40)\n      dup1\n      dup4\n      sub\n      dup2\n      0x00\n      dup8\n      dup1\n      extcodesize\n      iszero\n      dup1\n      iszero\n      tag_115\n      jumpi\n      0x00\n      dup1\n      revert\n    tag_115:\n      pop\n      gas\n      call\n      iszero\n      dup1\n      iszero\n      tag_117\n      jumpi\n      returndatasize\n      0x00\n      dup1\n      returndatacopy\n      revert(0x00, returndatasize)\n    tag_117:\n      pop\n      pop\n      pop\n      pop\n        /* \"contracts/MagicTickets/MagicTicketsNFT.sol\":4815:4830  STATUS.CANCELED */\n      0x02\n        /* \"contracts/MagicTickets/MagicTicketsNFT.sol\":4799:4805  raffle */\n      dup4\n        /* \"contracts/MagicTickets/MagicTicketsNFT.sol\":4799:4812  raffle.status */\n      0x00\n      add\n      0x00\n        /* \"contracts/MagicTickets/MagicTicketsNFT.sol\":4799:4830  raffle.status = STATUS.CANCELED */\n      0x0100\n      exp\n      dup2\n      sload\n      dup2\n      0xff\n      mul\n      not\n      and\n      swap1\n      dup4\n      0x02\n      dup2\n      gt\n      iszero\n      tag_118\n      jumpi\n      tag_119\n      tag_68\n      jump\t// in\n    tag_119:\n    tag_118:\n      mul\n      or\n      swap1\n      sstore\n      pop\n        /* \"contracts/MagicTickets/MagicTicketsNFT.sol\":4863:4866  _id */\n      dup4\n        /* \"contracts/MagicTickets/MagicTicketsNFT.sol\":4848:4867  canceledRaffle(_id) */\n      0xd12fb3853f1b33ba57f4469e7208a47e391853ab650de6721cbbe595058767\n      mload(0x40)\n      mload(0x40)\n      dup1\n      swap2\n      sub\n      swap1\n      log2\n        /* \"contracts/MagicTickets/MagicTicketsNFT.sol\":4400:4875  {... */\n      pop\n      pop\n      pop\n        /* \"contracts/MagicTickets/MagicTicketsNFT.sol\":4361:4875  function cancelRaffle(uint _id) public {... */\n      pop\n      jump\t// out\n        /* \"contracts/MagicTickets/MagicTicketsNFT.sol\":2291:3445  function createRaffle(uint _maxEntries, uint _minTickets, ... */\n    tag_40:\n        /* \"contracts/MagicTickets/MagicTicketsNFT.sol\":2452:2456  uint */\n      0x00\n        /* \"contracts/MagicTickets/MagicTicketsNFT.sol\":2490:2491  0 */\n      dup1\n        /* \"contracts/MagicTickets/MagicTicketsNFT.sol\":2476:2487  _maxEntries */\n      dup8\n        /* \"contracts/MagicTickets/MagicTicketsNFT.sol\":2476:2491  _maxEntries > 0 */\n      gt\n        /* \"contracts/MagicTickets/MagicTicketsNFT.sol\":2468:2499  require(_maxEntries > 0, \" A \") */\n      tag_121\n      jumpi\n      mload(0x40)\n      0x08c379a000000000000000000000000000000000000000000000000000000000\n      dup2\n      mstore\n      0x04\n      add\n      tag_122\n      swap1\n      tag_123\n      jump\t// in\n    tag_122:\n      mload(0x40)\n      dup1\n      swap2\n      sub\n      swap1\n      revert\n    tag_121:\n        /* \"contracts/MagicTickets/MagicTicketsNFT.sol\":2532:2533  0 */\n      0x00\n        /* \"contracts/MagicTickets/MagicTicketsNFT.sol\":2518:2529  _minTickets */\n      dup7\n        /* \"contracts/MagicTickets/MagicTicketsNFT.sol\":2518:2533  _minTickets > 0 */\n      gt\n        /* \"contracts/MagicTickets/MagicTicketsNFT.sol\":2510:2541  require(_minTickets > 0, \" B \") */\n      tag_124\n      jumpi\n      mload(0x40)\n      0x08c379a000000000000000000000000000000000000000000000000000000000\n      dup2\n      mstore\n      0x04\n      add\n      tag_125\n      swap1\n      tag_126\n      jump\t// in\n    tag_125:\n      mload(0x40)\n      dup1\n      swap2\n      sub\n      swap1\n      revert\n    tag_124:\n        /* \"contracts/MagicTickets/MagicTicketsNFT.sol\":2586:2587  0 */\n      0x00\n        /* \"contracts/MagicTickets/MagicTicketsNFT.sol\":2560:2588  _tokenContract != address(0) */\n      0xffffffffffffffffffffffffffffffffffffffff\n      and\n        /* \"contracts/MagicTickets/MagicTicketsNFT.sol\":2560:2574  _tokenContract */\n      dup6\n        /* \"contracts/MagicTickets/MagicTicketsNFT.sol\":2560:2588  _tokenContract != address(0) */\n      0xffffffffffffffffffffffffffffffffffffffff\n      and\n      sub\n        /* \"contracts/MagicTickets/MagicTicketsNFT.sol\":2552:2596  require(_tokenContract != address(0), \" C \") */\n      tag_127\n      jumpi\n      mload(0x40)\n      0x08c379a000000000000000000000000000000000000000000000000000000000\n      dup2\n      mstore\n      0x04\n      add\n      tag_128\n      swap1\n      tag_129\n      jump\t// in\n    tag_128:\n      mload(0x40)\n      dup1\n      swap2\n      sub\n      swap1\n      revert\n    tag_127:\n        /* \"contracts/MagicTickets/MagicTicketsNFT.sol\":2627:2628  0 */\n      0x00\n        /* \"contracts/MagicTickets/MagicTicketsNFT.sol\":2615:2623  _tokenID */\n      dup5\n        /* \"contracts/MagicTickets/MagicTicketsNFT.sol\":2615:2628  _tokenID >= 0 */\n      lt\n      iszero\n        /* \"contracts/MagicTickets/MagicTicketsNFT.sol\":2607:2636  require(_tokenID >= 0, \" D \") */\n      tag_130\n      jumpi\n      mload(0x40)\n      0x08c379a000000000000000000000000000000000000000000000000000000000\n      dup2\n      mstore\n      0x04\n      add\n      tag_131\n      swap1\n      tag_132\n      jump\t// in\n    tag_131:\n      mload(0x40)\n      dup1\n      swap2\n      sub\n      swap1\n      revert\n    tag_130:\n        /* \"contracts/MagicTickets/MagicTicketsNFT.sol\":2681:2682  0 */\n      0x00\n        /* \"contracts/MagicTickets/MagicTicketsNFT.sol\":2655:2683  _tokenReceived != address(0) */\n      0xffffffffffffffffffffffffffffffffffffffff\n      and\n        /* \"contracts/MagicTickets/MagicTicketsNFT.sol\":2655:2669  _tokenReceived */\n      dup3\n        /* \"contracts/MagicTickets/MagicTicketsNFT.sol\":2655:2683  _tokenReceived != address(0) */\n      0xffffffffffffffffffffffffffffffffffffffff\n      and\n      sub\n        /* \"contracts/MagicTickets/MagicTicketsNFT.sol\":2647:2691  require(_tokenReceived != address(0), \" E \") */\n      tag_133\n      jumpi\n      mload(0x40)\n      0x08c379a000000000000000000000000000000000000000000000000000000000\n      dup2\n      mstore\n      0x04\n      add\n      tag_134\n      swap1\n      tag_135\n      jump\t// in\n    tag_134:\n      mload(0x40)\n      dup1\n      swap2\n      sub\n      swap1\n      revert\n    tag_133:\n        /* \"contracts/MagicTickets/MagicTicketsNFT.sol\":2725:2726  0 */\n      0x00\n        /* \"contracts/MagicTickets/MagicTicketsNFT.sol\":2710:2722  _ticketValue */\n      dup4\n        /* \"contracts/MagicTickets/MagicTicketsNFT.sol\":2710:2726  _ticketValue > 0 */\n      gt\n        /* \"contracts/MagicTickets/MagicTicketsNFT.sol\":2702:2734  require(_ticketValue > 0, \" F \") */\n      tag_136\n      jumpi\n      mload(0x40)\n      0x08c379a000000000000000000000000000000000000000000000000000000000\n      dup2\n      mstore\n      0x04\n      add\n      tag_137\n      swap1\n      tag_138\n      jump\t// in\n    tag_137:\n      mload(0x40)\n      dup1\n      swap2\n      sub\n      swap1\n      revert\n    tag_136:\n        /* \"contracts/MagicTickets/MagicTicketsNFT.sol\":2747:2796  transferNFT(_tokenID, _tokenContract, msg.sender) */\n      tag_139\n        /* \"contracts/MagicTickets/MagicTicketsNFT.sol\":2759:2767  _tokenID */\n      dup5\n        /* \"contracts/MagicTickets/MagicTicketsNFT.sol\":2769:2783  _tokenContract */\n      dup7\n        /* \"contracts/MagicTickets/MagicTicketsNFT.sol\":2785:2795  msg.sender */\n      caller\n        /* \"contracts/MagicTickets/MagicTicketsNFT.sol\":2747:2758  transferNFT */\n      tag_140\n        /* \"contracts/MagicTickets/MagicTicketsNFT.sol\":2747:2796  transferNFT(_tokenID, _tokenContract, msg.sender) */\n      jump\t// in\n    tag_139:\n        /* \"contracts/MagicTickets/MagicTicketsNFT.sol\":2807:2833  RaffleStruct memory raffle */\n      0x00\n        /* \"contracts/MagicTickets/MagicTicketsNFT.sol\":2836:3303  RaffleStruct({... */\n      mload(0x40)\n      dup1\n      0x0180\n      add\n      0x40\n      mstore\n      dup1\n        /* \"contracts/MagicTickets/MagicTicketsNFT.sol\":3018:3032  STATUS.STARTED */\n      0x00\n        /* \"contracts/MagicTickets/MagicTicketsNFT.sol\":2836:3303  RaffleStruct({... */\n      0x02\n      dup2\n      gt\n      iszero\n      tag_141\n      jumpi\n      tag_142\n      tag_68\n      jump\t// in\n    tag_142:\n    tag_141:\n      dup2\n      mstore\n      0x20\n      add\n        /* \"contracts/MagicTickets/MagicTicketsNFT.sol\":2876:2887  _maxEntries */\n      dup10\n        /* \"contracts/MagicTickets/MagicTicketsNFT.sol\":2836:3303  RaffleStruct({... */\n      dup2\n      mstore\n      0x20\n      add\n        /* \"contracts/MagicTickets/MagicTicketsNFT.sol\":2914:2925  _minTickets */\n      dup9\n        /* \"contracts/MagicTickets/MagicTicketsNFT.sol\":2836:3303  RaffleStruct({... */\n      dup2\n      mstore\n      0x20\n      add\n        /* \"contracts/MagicTickets/MagicTicketsNFT.sol\":2954:2955  0 */\n      0x00\n        /* \"contracts/MagicTickets/MagicTicketsNFT.sol\":2836:3303  RaffleStruct({... */\n      dup2\n      mstore\n      0x20\n      add\n        /* \"contracts/MagicTickets/MagicTicketsNFT.sol\":2984:2995  _maxEntries */\n      dup10\n        /* \"contracts/MagicTickets/MagicTicketsNFT.sol\":2836:3303  RaffleStruct({... */\n      dup2\n      mstore\n      0x20\n      add\n        /* \"contracts/MagicTickets/MagicTicketsNFT.sol\":3063:3064  0 */\n      0x00\n        /* \"contracts/MagicTickets/MagicTicketsNFT.sol\":2836:3303  RaffleStruct({... */\n      dup2\n      mstore\n      0x20\n      add\n        /* \"contracts/MagicTickets/MagicTicketsNFT.sol\":3092:3104  _ticketValue */\n      dup6\n        /* \"contracts/MagicTickets/MagicTicketsNFT.sol\":2836:3303  RaffleStruct({... */\n      dup2\n      mstore\n      0x20\n      add\n        /* \"contracts/MagicTickets/MagicTicketsNFT.sol\":3167:3181  _tokenReceived */\n      dup5\n        /* \"contracts/MagicTickets/MagicTicketsNFT.sol\":2836:3303  RaffleStruct({... */\n      0xffffffffffffffffffffffffffffffffffffffff\n      and\n      dup2\n      mstore\n      0x20\n      add\n        /* \"contracts/MagicTickets/MagicTicketsNFT.sol\":3250:3258  _tokenID */\n      dup7\n        /* \"contracts/MagicTickets/MagicTicketsNFT.sol\":2836:3303  RaffleStruct({... */\n      dup2\n      mstore\n      0x20\n      add\n        /* \"contracts/MagicTickets/MagicTicketsNFT.sol\":3211:3225  _tokenContract */\n      dup8\n        /* \"contracts/MagicTickets/MagicTicketsNFT.sol\":2836:3303  RaffleStruct({... */\n      0xffffffffffffffffffffffffffffffffffffffff\n      and\n      dup2\n      mstore\n      0x20\n      add\n        /* \"contracts/MagicTickets/MagicTicketsNFT.sol\":3127:3137  msg.sender */\n      caller\n        /* \"contracts/MagicTickets/MagicTicketsNFT.sol\":2836:3303  RaffleStruct({... */\n      0xffffffffffffffffffffffffffffffffffffffff\n      and\n      dup2\n      mstore\n      0x20\n      add\n        /* \"contracts/MagicTickets/MagicTicketsNFT.sol\":3289:3290  0 */\n      0x00\n        /* \"contracts/MagicTickets/MagicTicketsNFT.sol\":2836:3303  RaffleStruct({... */\n      0xffffffffffffffffffffffffffffffffffffffff\n      and\n      dup2\n      mstore\n      pop\n        /* \"contracts/MagicTickets/MagicTicketsNFT.sol\":2807:3303  RaffleStruct memory raffle = RaffleStruct({... */\n      swap1\n      pop\n        /* \"contracts/MagicTickets/MagicTicketsNFT.sol\":3316:3323  raffles */\n      0x01\n        /* \"contracts/MagicTickets/MagicTicketsNFT.sol\":3329:3335  raffle */\n      dup2\n        /* \"contracts/MagicTickets/MagicTicketsNFT.sol\":3316:3336  raffles.push(raffle) */\n      swap1\n      dup1\n      0x01\n      dup2\n      sload\n      add\n      dup1\n      dup3\n      sstore\n      dup1\n      swap2\n      pop\n      pop\n      0x01\n      swap1\n      sub\n      swap1\n      0x00\n      mstore\n      keccak256(0x00, 0x20)\n      swap1\n      0x0c\n      mul\n      add\n      0x00\n      swap1\n      swap2\n      swap1\n      swap2\n      swap1\n      swap2\n      pop\n      0x00\n      dup3\n      add\n      mload\n      dup2\n      0x00\n      add\n      exp(0x0100, 0x00)\n      dup2\n      sload\n      dup2\n      0xff\n      mul\n      not\n      and\n      swap1\n      dup4\n      0x02\n      dup2\n      gt\n      iszero\n      tag_144\n      jumpi\n      tag_145\n      tag_68\n      jump\t// in\n    tag_145:\n    tag_144:\n      mul\n      or\n      swap1\n      sstore\n      pop\n      0x20\n      dup3\n      add\n      mload\n      dup2\n      0x01\n      add\n      sstore\n      0x40\n      dup3\n      add\n      mload\n      dup2\n      0x02\n      add\n      sstore\n      0x60\n      dup3\n      add\n      mload\n      dup2\n      0x03\n      add\n      sstore\n      0x80\n      dup3\n      add\n      mload\n      dup2\n      0x04\n      add\n      sstore\n      0xa0\n      dup3\n      add\n      mload\n      dup2\n      0x05\n      add\n      sstore\n      0xc0\n      dup3\n      add\n      mload\n      dup2\n      0x06\n      add\n      sstore\n      0xe0\n      dup3\n      add\n      mload\n      dup2\n      0x07\n      add\n      exp(0x0100, 0x00)\n      dup2\n      sload\n      dup2\n      0xffffffffffffffffffffffffffffffffffffffff\n      mul\n      not\n      and\n      swap1\n      dup4\n      0xffffffffffffffffffffffffffffffffffffffff\n      and\n      mul\n      or\n      swap1\n      sstore\n      pop\n      0x0100\n      dup3\n      add\n      mload\n      dup2\n      0x08\n      add\n      sstore\n      0x0120\n      dup3\n      add\n      mload\n      dup2\n      0x09\n      add\n      exp(0x0100, 0x00)\n      dup2\n      sload\n      dup2\n      0xffffffffffffffffffffffffffffffffffffffff\n      mul\n      not\n      and\n      swap1\n      dup4\n      0xffffffffffffffffffffffffffffffffffffffff\n      and\n      mul\n      or\n      swap1\n      sstore\n      pop\n      0x0140\n      dup3\n      add\n      mload\n      dup2\n      0x0a\n      add\n      exp(0x0100, 0x00)\n      dup2\n      sload\n      dup2\n      0xffffffffffffffffffffffffffffffffffffffff\n      mul\n      not\n      and\n      swap1\n      dup4\n      0xffffffffffffffffffffffffffffffffffffffff\n      and\n      mul\n      or\n      swap1\n      sstore\n      pop\n      0x0160\n      dup3\n      add\n      mload\n      dup2\n      0x0b\n      add\n      exp(0x0100, 0x00)\n      dup2\n      sload\n      dup2\n      0xffffffffffffffffffffffffffffffffffffffff\n      mul\n      not\n      and\n      swap1\n      dup4\n      0xffffffffffffffffffffffffffffffffffffffff\n      and\n      mul\n      or\n      swap1\n      sstore\n      pop\n      pop\n      pop\n        /* \"contracts/MagicTickets/MagicTicketsNFT.sol\":3388:3398  msg.sender */\n      caller\n        /* \"contracts/MagicTickets/MagicTicketsNFT.sol\":3354:3399  createdRaffle(raffles.length - 1, msg.sender) */\n      0xffffffffffffffffffffffffffffffffffffffff\n      and\n        /* \"contracts/MagicTickets/MagicTicketsNFT.sol\":3385:3386  1 */\n      0x01\n        /* \"contracts/MagicTickets/MagicTicketsNFT.sol\":3368:3375  raffles */\n      dup1\n        /* \"contracts/MagicTickets/MagicTicketsNFT.sol\":3368:3382  raffles.length */\n      dup1\n      sload\n      swap1\n      pop\n        /* \"contracts/MagicTickets/MagicTicketsNFT.sol\":3368:3386  raffles.length - 1 */\n      tag_146\n      swap2\n      swap1\n      tag_84\n      jump\t// in\n    tag_146:\n        /* \"contracts/MagicTickets/MagicTicketsNFT.sol\":3354:3399  createdRaffle(raffles.length - 1, msg.sender) */\n      0xcb178589a0d989fbb3e2b855e0fe244bf88db81a5afa0de5ec6a7fd2c16fcb35\n      mload(0x40)\n      mload(0x40)\n      dup1\n      swap2\n      sub\n      swap1\n      log3\n        /* \"contracts/MagicTickets/MagicTicketsNFT.sol\":3436:3437  1 */\n      0x01\n        /* \"contracts/MagicTickets/MagicTicketsNFT.sol\":3419:3426  raffles */\n      dup1\n        /* \"contracts/MagicTickets/MagicTicketsNFT.sol\":3419:3433  raffles.length */\n      dup1\n      sload\n      swap1\n      pop\n        /* \"contracts/MagicTickets/MagicTicketsNFT.sol\":3419:3437  raffles.length - 1 */\n      tag_147\n      swap2\n      swap1\n      tag_84\n      jump\t// in\n    tag_147:\n        /* \"contracts/MagicTickets/MagicTicketsNFT.sol\":3412:3437  return raffles.length - 1 */\n      swap2\n      pop\n      pop\n        /* \"contracts/MagicTickets/MagicTicketsNFT.sol\":2291:3445  function createRaffle(uint _maxEntries, uint _minTickets, ... */\n      swap7\n      swap6\n      pop\n      pop\n      pop\n      pop\n      pop\n      pop\n      jump\t// out\n        /* \"contracts/MagicTickets/MagicTicketsNFT.sol\":1129:1149  address public owner */\n    tag_43:\n      0x00\n      dup1\n      sload\n      swap1\n      0x0100\n      exp\n      swap1\n      div\n      0xffffffffffffffffffffffffffffffffffffffff\n      and\n      dup2\n      jump\t// out\n        /* \"contracts/MagicTickets/MagicTicketsNFT.sol\":3454:4233  function buyTickets(uint _qtd, uint _id, address _buyer) public {... */\n    tag_48:\n        /* \"contracts/MagicTickets/MagicTicketsNFT.sol\":3586:3590  _qtd */\n      dup3\n        /* \"contracts/MagicTickets/MagicTicketsNFT.sol\":3563:3570  entries */\n      0x02\n        /* \"contracts/MagicTickets/MagicTicketsNFT.sol\":3563:3575  entries[_id] */\n      0x00\n        /* \"contracts/MagicTickets/MagicTicketsNFT.sol\":3571:3574  _id */\n      dup5\n        /* \"contracts/MagicTickets/MagicTicketsNFT.sol\":3563:3575  entries[_id] */\n      dup2\n      mstore\n      0x20\n      add\n      swap1\n      dup2\n      mstore\n      0x20\n      add\n      0x00\n      keccak256\n        /* \"contracts/MagicTickets/MagicTicketsNFT.sol\":3563:3582  entries[_id].length */\n      dup1\n      sload\n      swap1\n      pop\n        /* \"contracts/MagicTickets/MagicTicketsNFT.sol\":3537:3544  raffles */\n      0x01\n        /* \"contracts/MagicTickets/MagicTicketsNFT.sol\":3545:3548  _id */\n      dup5\n        /* \"contracts/MagicTickets/MagicTicketsNFT.sol\":3537:3549  raffles[_id] */\n      dup2\n      sload\n      dup2\n      lt\n      tag_149\n      jumpi\n      tag_150\n      tag_55\n      jump\t// in\n    tag_150:\n    tag_149:\n      swap1\n      0x00\n      mstore\n      keccak256(0x00, 0x20)\n      swap1\n      0x0c\n      mul\n      add\n        /* \"contracts/MagicTickets/MagicTicketsNFT.sol\":3537:3560  raffles[_id].maxEntries */\n      0x01\n      add\n      sload\n        /* \"contracts/MagicTickets/MagicTicketsNFT.sol\":3537:3582  raffles[_id].maxEntries - entries[_id].length */\n      tag_152\n      swap2\n      swap1\n      tag_84\n      jump\t// in\n    tag_152:\n        /* \"contracts/MagicTickets/MagicTicketsNFT.sol\":3537:3590  raffles[_id].maxEntries - entries[_id].length >= _qtd */\n      lt\n      iszero\n        /* \"contracts/MagicTickets/MagicTicketsNFT.sol\":3529:3611  require(raffles[_id].maxEntries - entries[_id].length >= _qtd, \"qtd indisponivel\") */\n      tag_153\n      jumpi\n      mload(0x40)\n      0x08c379a000000000000000000000000000000000000000000000000000000000\n      dup2\n      mstore\n      0x04\n      add\n      tag_154\n      swap1\n      tag_155\n      jump\t// in\n    tag_154:\n      mload(0x40)\n      dup1\n      swap2\n      sub\n      swap1\n      revert\n    tag_153:\n        /* \"contracts/MagicTickets/MagicTicketsNFT.sol\":3640:3647  raffles */\n      0x01\n        /* \"contracts/MagicTickets/MagicTicketsNFT.sol\":3648:3651  _id */\n      dup3\n        /* \"contracts/MagicTickets/MagicTicketsNFT.sol\":3640:3652  raffles[_id] */\n      dup2\n      sload\n      dup2\n      lt\n      tag_156\n      jumpi\n      tag_157\n      tag_55\n      jump\t// in\n    tag_157:\n    tag_156:\n      swap1\n      0x00\n      mstore\n      keccak256(0x00, 0x20)\n      swap1\n      0x0c\n      mul\n      add\n        /* \"contracts/MagicTickets/MagicTicketsNFT.sol\":3640:3659  raffles[_id].seller */\n      0x0a\n      add\n      0x00\n      swap1\n      sload\n      swap1\n      0x0100\n      exp\n      swap1\n      div\n      0xffffffffffffffffffffffffffffffffffffffff\n      and\n        /* \"contracts/MagicTickets/MagicTicketsNFT.sol\":3630:3659  _buyer != raffles[_id].seller */\n      0xffffffffffffffffffffffffffffffffffffffff\n      and\n        /* \"contracts/MagicTickets/MagicTicketsNFT.sol\":3630:3636  _buyer */\n      dup2\n        /* \"contracts/MagicTickets/MagicTicketsNFT.sol\":3630:3659  _buyer != raffles[_id].seller */\n      0xffffffffffffffffffffffffffffffffffffffff\n      and\n      sub\n        /* \"contracts/MagicTickets/MagicTicketsNFT.sol\":3622:3717  require(_buyer != raffles[_id].seller, \"O seller nao pode comprar entradas do proprio sorteio\") */\n      tag_159\n      jumpi\n      mload(0x40)\n      0x08c379a000000000000000000000000000000000000000000000000000000000\n      dup2\n      mstore\n      0x04\n      add\n      tag_160\n      swap1\n      tag_161\n      jump\t// in\n    tag_160:\n      mload(0x40)\n      dup1\n      swap2\n      sub\n      swap1\n      revert\n    tag_159:\n        /* \"contracts/MagicTickets/MagicTicketsNFT.sol\":3730:3740  uint value */\n      0x00\n        /* \"contracts/MagicTickets/MagicTicketsNFT.sol\":3770:3774  _qtd */\n      dup4\n        /* \"contracts/MagicTickets/MagicTicketsNFT.sol\":3743:3750  raffles */\n      0x01\n        /* \"contracts/MagicTickets/MagicTicketsNFT.sol\":3751:3754  _id */\n      dup5\n        /* \"contracts/MagicTickets/MagicTicketsNFT.sol\":3743:3755  raffles[_id] */\n      dup2\n      sload\n      dup2\n      lt\n      tag_162\n      jumpi\n      tag_163\n      tag_55\n      jump\t// in\n    tag_163:\n    tag_162:\n      swap1\n      0x00\n      mstore\n      keccak256(0x00, 0x20)\n      swap1\n      0x0c\n      mul\n      add\n        /* \"contracts/MagicTickets/MagicTicketsNFT.sol\":3743:3767  raffles[_id].ticketValue */\n      0x06\n      add\n      sload\n        /* \"contracts/MagicTickets/MagicTicketsNFT.sol\":3743:3774  raffles[_id].ticketValue * _qtd */\n      tag_165\n      swap2\n      swap1\n      tag_166\n      jump\t// in\n    tag_165:\n        /* \"contracts/MagicTickets/MagicTicketsNFT.sol\":3730:3774  uint value = raffles[_id].ticketValue * _qtd */\n      swap1\n      pop\n        /* \"contracts/MagicTickets/MagicTicketsNFT.sol\":3787:3799  IERC20 token */\n      0x00\n        /* \"contracts/MagicTickets/MagicTicketsNFT.sol\":3809:3816  raffles */\n      0x01\n        /* \"contracts/MagicTickets/MagicTicketsNFT.sol\":3817:3820  _id */\n      dup5\n        /* \"contracts/MagicTickets/MagicTicketsNFT.sol\":3809:3821  raffles[_id] */\n      dup2\n      sload\n      dup2\n      lt\n      tag_167\n      jumpi\n      tag_168\n      tag_55\n      jump\t// in\n    tag_168:\n    tag_167:\n      swap1\n      0x00\n      mstore\n      keccak256(0x00, 0x20)\n      swap1\n      0x0c\n      mul\n      add\n        /* \"contracts/MagicTickets/MagicTicketsNFT.sol\":3809:3835  raffles[_id].tokenReceived */\n      0x07\n      add\n      0x00\n      swap1\n      sload\n      swap1\n      0x0100\n      exp\n      swap1\n      div\n      0xffffffffffffffffffffffffffffffffffffffff\n      and\n        /* \"contracts/MagicTickets/MagicTicketsNFT.sol\":3787:3836  IERC20 token = IERC20(raffles[_id].tokenReceived) */\n      swap1\n      pop\n        /* \"contracts/MagicTickets/MagicTicketsNFT.sol\":3847:3852  token */\n      dup1\n        /* \"contracts/MagicTickets/MagicTicketsNFT.sol\":3847:3865  token.transferFrom */\n      0xffffffffffffffffffffffffffffffffffffffff\n      and\n      0x23b872dd\n        /* \"contracts/MagicTickets/MagicTicketsNFT.sol\":3866:3876  msg.sender */\n      caller\n        /* \"contracts/MagicTickets/MagicTicketsNFT.sol\":3886:3890  this */\n      address\n        /* \"contracts/MagicTickets/MagicTicketsNFT.sol\":3893:3898  value */\n      dup6\n        /* \"contracts/MagicTickets/MagicTicketsNFT.sol\":3847:3899  token.transferFrom(msg.sender, address(this), value) */\n      mload(0x40)\n      dup5\n      0xffffffff\n      and\n      0xe0\n      shl\n      dup2\n      mstore\n      0x04\n      add\n      tag_170\n      swap4\n      swap3\n      swap2\n      swap1\n      tag_114\n      jump\t// in\n    tag_170:\n      0x00\n      mload(0x40)\n      dup1\n      dup4\n      sub\n      dup2\n      0x00\n      dup8\n      dup1\n      extcodesize\n      iszero\n      dup1\n      iszero\n      tag_171\n      jumpi\n      0x00\n      dup1\n      revert\n    tag_171:\n      pop\n      gas\n      call\n      iszero\n      dup1\n      iszero\n      tag_173\n      jumpi\n      returndatasize\n      0x00\n      dup1\n      returndatacopy\n      revert(0x00, returndatasize)\n    tag_173:\n      pop\n      pop\n      pop\n      pop\n        /* \"contracts/MagicTickets/MagicTicketsNFT.sol\":3912:3930  Entry memory entry */\n      0x00\n        /* \"contracts/MagicTickets/MagicTicketsNFT.sol\":3933:3980  Entry({... */\n      mload(0x40)\n      dup1\n      0x20\n      add\n      0x40\n      mstore\n      dup1\n        /* \"contracts/MagicTickets/MagicTicketsNFT.sol\":3962:3968  _buyer */\n      dup6\n        /* \"contracts/MagicTickets/MagicTicketsNFT.sol\":3933:3980  Entry({... */\n      0xffffffffffffffffffffffffffffffffffffffff\n      and\n      dup2\n      mstore\n      pop\n        /* \"contracts/MagicTickets/MagicTicketsNFT.sol\":3912:3980  Entry memory entry = Entry({... */\n      swap1\n      pop\n        /* \"contracts/MagicTickets/MagicTicketsNFT.sol\":3998:4004  uint i */\n      0x00\n        /* \"contracts/MagicTickets/MagicTicketsNFT.sol\":3993:4075  for( uint i = 0; i < _qtd; i++){... */\n    tag_174:\n        /* \"contracts/MagicTickets/MagicTicketsNFT.sol\":4014:4018  _qtd */\n      dup7\n        /* \"contracts/MagicTickets/MagicTicketsNFT.sol\":4010:4011  i */\n      dup2\n        /* \"contracts/MagicTickets/MagicTicketsNFT.sol\":4010:4018  i < _qtd */\n      lt\n        /* \"contracts/MagicTickets/MagicTicketsNFT.sol\":3993:4075  for( uint i = 0; i < _qtd; i++){... */\n      iszero\n      tag_175\n      jumpi\n        /* \"contracts/MagicTickets/MagicTicketsNFT.sol\":4039:4046  entries */\n      0x02\n        /* \"contracts/MagicTickets/MagicTicketsNFT.sol\":4039:4051  entries[_id] */\n      0x00\n        /* \"contracts/MagicTickets/MagicTicketsNFT.sol\":4047:4050  _id */\n      dup8\n        /* \"contracts/MagicTickets/MagicTicketsNFT.sol\":4039:4051  entries[_id] */\n      dup2\n      mstore\n      0x20\n      add\n      swap1\n      dup2\n      mstore\n      0x20\n      add\n      0x00\n      keccak256\n        /* \"contracts/MagicTickets/MagicTicketsNFT.sol\":4057:4062  entry */\n      dup3\n        /* \"contracts/MagicTickets/MagicTicketsNFT.sol\":4039:4063  entries[_id].push(entry) */\n      swap1\n      dup1\n      0x01\n      dup2\n      sload\n      add\n      dup1\n      dup3\n      sstore\n      dup1\n      swap2\n      pop\n      pop\n      0x01\n      swap1\n      sub\n      swap1\n      0x00\n      mstore\n      keccak256(0x00, 0x20)\n      add\n      0x00\n      swap1\n      swap2\n      swap1\n      swap2\n      swap1\n      swap2\n      pop\n      0x00\n      dup3\n      add\n      mload\n      dup2\n      0x00\n      add\n      exp(0x0100, 0x00)\n      dup2\n      sload\n      dup2\n      0xffffffffffffffffffffffffffffffffffffffff\n      mul\n      not\n      and\n      swap1\n      dup4\n      0xffffffffffffffffffffffffffffffffffffffff\n      and\n      mul\n      or\n      swap1\n      sstore\n      pop\n      pop\n      pop\n        /* \"contracts/MagicTickets/MagicTicketsNFT.sol\":4020:4023  i++ */\n      dup1\n      dup1\n      tag_178\n      swap1\n      tag_179\n      jump\t// in\n    tag_178:\n      swap2\n      pop\n      pop\n        /* \"contracts/MagicTickets/MagicTicketsNFT.sol\":3993:4075  for( uint i = 0; i < _qtd; i++){... */\n      jump(tag_174)\n    tag_175:\n      pop\n        /* \"contracts/MagicTickets/MagicTicketsNFT.sol\":4116:4121  value */\n      dup3\n        /* \"contracts/MagicTickets/MagicTicketsNFT.sol\":4087:4094  raffles */\n      0x01\n        /* \"contracts/MagicTickets/MagicTicketsNFT.sol\":4095:4098  _id */\n      dup7\n        /* \"contracts/MagicTickets/MagicTicketsNFT.sol\":4087:4099  raffles[_id] */\n      dup2\n      sload\n      dup2\n      lt\n      tag_180\n      jumpi\n      tag_181\n      tag_55\n      jump\t// in\n    tag_181:\n    tag_180:\n      swap1\n      0x00\n      mstore\n      keccak256(0x00, 0x20)\n      swap1\n      0x0c\n      mul\n      add\n        /* \"contracts/MagicTickets/MagicTicketsNFT.sol\":4087:4112  raffles[_id].amountRaised */\n      0x03\n      add\n      0x00\n        /* \"contracts/MagicTickets/MagicTicketsNFT.sol\":4087:4121  raffles[_id].amountRaised += value */\n      dup3\n      dup3\n      sload\n      tag_183\n      swap2\n      swap1\n      tag_184\n      jump\t// in\n    tag_183:\n      swap3\n      pop\n      pop\n      dup2\n      swap1\n      sstore\n      pop\n        /* \"contracts/MagicTickets/MagicTicketsNFT.sol\":4161:4165  _qtd */\n      dup6\n        /* \"contracts/MagicTickets/MagicTicketsNFT.sol\":4132:4139  raffles */\n      0x01\n        /* \"contracts/MagicTickets/MagicTicketsNFT.sol\":4140:4143  _id */\n      dup7\n        /* \"contracts/MagicTickets/MagicTicketsNFT.sol\":4132:4144  raffles[_id] */\n      dup2\n      sload\n      dup2\n      lt\n      tag_185\n      jumpi\n      tag_186\n      tag_55\n      jump\t// in\n    tag_186:\n    tag_185:\n      swap1\n      0x00\n      mstore\n      keccak256(0x00, 0x20)\n      swap1\n      0x0c\n      mul\n      add\n        /* \"contracts/MagicTickets/MagicTicketsNFT.sol\":4132:4157  raffles[_id].qtdAvailable */\n      0x04\n      add\n      0x00\n        /* \"contracts/MagicTickets/MagicTicketsNFT.sol\":4132:4165  raffles[_id].qtdAvailable -= _qtd */\n      dup3\n      dup3\n      sload\n      tag_188\n      swap2\n      swap1\n      tag_84\n      jump\t// in\n    tag_188:\n      swap3\n      pop\n      pop\n      dup2\n      swap1\n      sstore\n      pop\n        /* \"contracts/MagicTickets/MagicTicketsNFT.sol\":4208:4214  _buyer */\n      dup4\n        /* \"contracts/MagicTickets/MagicTicketsNFT.sol\":4183:4215  boughtTickets(_id, _qtd, _buyer) */\n      0xffffffffffffffffffffffffffffffffffffffff\n      and\n        /* \"contracts/MagicTickets/MagicTicketsNFT.sol\":4202:4206  _qtd */\n      dup7\n        /* \"contracts/MagicTickets/MagicTicketsNFT.sol\":4197:4200  _id */\n      dup7\n        /* \"contracts/MagicTickets/MagicTicketsNFT.sol\":4183:4215  boughtTickets(_id, _qtd, _buyer) */\n      0x1dea0bd0e9dbea861bff2025a18b89bdc767204ebc6a7ebe66ec8331442387df\n      mload(0x40)\n      mload(0x40)\n      dup1\n      swap2\n      sub\n      swap1\n      log4\n        /* \"contracts/MagicTickets/MagicTicketsNFT.sol\":3518:4233  {... */\n      pop\n      pop\n      pop\n        /* \"contracts/MagicTickets/MagicTicketsNFT.sol\":3454:4233  function buyTickets(uint _qtd, uint _id, address _buyer) public {... */\n      pop\n      pop\n      pop\n      jump\t// out\n        /* \"contracts/MagicTickets/MagicTicketsNFT.sol\":4883:5236  function devolution(uint _id) public{... */\n    tag_51:\n        /* \"contracts/MagicTickets/MagicTicketsNFT.sol\":4952:4957  owner */\n      0x00\n      dup1\n      sload\n      swap1\n      0x0100\n      exp\n      swap1\n      div\n      0xffffffffffffffffffffffffffffffffffffffff\n      and\n        /* \"contracts/MagicTickets/MagicTicketsNFT.sol\":4938:4957  msg.sender == owner */\n      0xffffffffffffffffffffffffffffffffffffffff\n      and\n        /* \"contracts/MagicTickets/MagicTicketsNFT.sol\":4938:4948  msg.sender */\n      caller\n        /* \"contracts/MagicTickets/MagicTicketsNFT.sol\":4938:4957  msg.sender == owner */\n      0xffffffffffffffffffffffffffffffffffffffff\n      and\n      eq\n        /* \"contracts/MagicTickets/MagicTicketsNFT.sol\":4930:5002  require(msg.sender == owner, \"Apenas o owner pode realizar a devolucao\") */\n      tag_190\n      jumpi\n      mload(0x40)\n      0x08c379a000000000000000000000000000000000000000000000000000000000\n      dup2\n      mstore\n      0x04\n      add\n      tag_191\n      swap1\n      tag_192\n      jump\t// in\n    tag_191:\n      mload(0x40)\n      dup1\n      swap2\n      sub\n      swap1\n      revert\n    tag_190:\n        /* \"contracts/MagicTickets/MagicTicketsNFT.sol\":5013:5040  RaffleStruct storage raffle */\n      0x00\n        /* \"contracts/MagicTickets/MagicTicketsNFT.sol\":5043:5050  raffles */\n      0x01\n        /* \"contracts/MagicTickets/MagicTicketsNFT.sol\":5051:5054  _id */\n      dup3\n        /* \"contracts/MagicTickets/MagicTicketsNFT.sol\":5043:5055  raffles[_id] */\n      dup2\n      sload\n      dup2\n      lt\n      tag_193\n      jumpi\n      tag_194\n      tag_55\n      jump\t// in\n    tag_194:\n    tag_193:\n      swap1\n      0x00\n      mstore\n      keccak256(0x00, 0x20)\n      swap1\n      0x0c\n      mul\n      add\n        /* \"contracts/MagicTickets/MagicTicketsNFT.sol\":5013:5055  RaffleStruct storage raffle = raffles[_id] */\n      swap1\n      pop\n        /* \"contracts/MagicTickets/MagicTicketsNFT.sol\":5068:5079  IERC721 nft */\n      0x00\n        /* \"contracts/MagicTickets/MagicTicketsNFT.sol\":5090:5096  raffle */\n      dup2\n        /* \"contracts/MagicTickets/MagicTicketsNFT.sol\":5090:5110  raffle.tokenContract */\n      0x09\n      add\n      0x00\n      swap1\n      sload\n      swap1\n      0x0100\n      exp\n      swap1\n      div\n      0xffffffffffffffffffffffffffffffffffffffff\n      and\n        /* \"contracts/MagicTickets/MagicTicketsNFT.sol\":5068:5111  IERC721 nft = IERC721(raffle.tokenContract) */\n      swap1\n      pop\n        /* \"contracts/MagicTickets/MagicTicketsNFT.sol\":5124:5127  nft */\n      dup1\n        /* \"contracts/MagicTickets/MagicTicketsNFT.sol\":5124:5140  nft.transferFrom */\n      0xffffffffffffffffffffffffffffffffffffffff\n      and\n      0x23b872dd\n        /* \"contracts/MagicTickets/MagicTicketsNFT.sol\":5149:5153  this */\n      address\n        /* \"contracts/MagicTickets/MagicTicketsNFT.sol\":5156:5162  raffle */\n      dup5\n        /* \"contracts/MagicTickets/MagicTicketsNFT.sol\":5156:5169  raffle.seller */\n      0x0a\n      add\n      0x00\n      swap1\n      sload\n      swap1\n      0x0100\n      exp\n      swap1\n      div\n      0xffffffffffffffffffffffffffffffffffffffff\n      and\n        /* \"contracts/MagicTickets/MagicTicketsNFT.sol\":5171:5177  raffle */\n      dup6\n        /* \"contracts/MagicTickets/MagicTicketsNFT.sol\":5171:5186  raffle.tokenNFT */\n      0x08\n      add\n      sload\n        /* \"contracts/MagicTickets/MagicTicketsNFT.sol\":5124:5187  nft.transferFrom(address(this), raffle.seller, raffle.tokenNFT) */\n      mload(0x40)\n      dup5\n      0xffffffff\n      and\n      0xe0\n      shl\n      dup2\n      mstore\n      0x04\n      add\n      tag_196\n      swap4\n      swap3\n      swap2\n      swap1\n      tag_114\n      jump\t// in\n    tag_196:\n      0x00\n      mload(0x40)\n      dup1\n      dup4\n      sub\n      dup2\n      0x00\n      dup8\n      dup1\n      extcodesize\n      iszero\n      dup1\n      iszero\n      tag_197\n      jumpi\n      0x00\n      dup1\n      revert\n    tag_197:\n      pop\n      gas\n      call\n      iszero\n      dup1\n      iszero\n      tag_199\n      jumpi\n      returndatasize\n      0x00\n      dup1\n      returndatacopy\n      revert(0x00, returndatasize)\n    tag_199:\n      pop\n      pop\n      pop\n      pop\n        /* \"contracts/MagicTickets/MagicTicketsNFT.sol\":5216:5228  STATUS.ENDED */\n      0x01\n        /* \"contracts/MagicTickets/MagicTicketsNFT.sol\":5200:5206  raffle */\n      dup3\n        /* \"contracts/MagicTickets/MagicTicketsNFT.sol\":5200:5213  raffle.status */\n      0x00\n      add\n      0x00\n        /* \"contracts/MagicTickets/MagicTicketsNFT.sol\":5200:5228  raffle.status = STATUS.ENDED */\n      0x0100\n      exp\n      dup2\n      sload\n      dup2\n      0xff\n      mul\n      not\n      and\n      swap1\n      dup4\n      0x02\n      dup2\n      gt\n      iszero\n      tag_200\n      jumpi\n      tag_201\n      tag_68\n      jump\t// in\n    tag_201:\n    tag_200:\n      mul\n      or\n      swap1\n      sstore\n      pop\n        /* \"contracts/MagicTickets/MagicTicketsNFT.sol\":4919:5236  {... */\n      pop\n      pop\n        /* \"contracts/MagicTickets/MagicTicketsNFT.sol\":4883:5236  function devolution(uint _id) public{... */\n      pop\n      jump\t// out\n        /* \"contracts/MagicTickets/MagicTicketsNFT.sol\":5244:5448  function gerarNumero(string calldata semente, uint range) internal view returns (uint256) {... */\n    tag_85:\n        /* \"contracts/MagicTickets/MagicTicketsNFT.sol\":5325:5332  uint256 */\n      0x00\n        /* \"contracts/MagicTickets/MagicTicketsNFT.sol\":5438:5439  1 */\n      0x01\n        /* \"contracts/MagicTickets/MagicTicketsNFT.sol\":5430:5435  range */\n      dup3\n        /* \"contracts/MagicTickets/MagicTicketsNFT.sol\":5430:5439  range + 1 */\n      tag_203\n      swap2\n      swap1\n      tag_184\n      jump\t// in\n    tag_203:\n        /* \"contracts/MagicTickets/MagicTicketsNFT.sol\":5387:5402  block.timestamp */\n      timestamp\n        /* \"contracts/MagicTickets/MagicTicketsNFT.sol\":5404:5414  msg.sender */\n      caller\n        /* \"contracts/MagicTickets/MagicTicketsNFT.sol\":5416:5423  semente */\n      dup7\n      dup7\n        /* \"contracts/MagicTickets/MagicTicketsNFT.sol\":5370:5424  abi.encodePacked(block.timestamp, msg.sender, semente) */\n      add(0x20, mload(0x40))\n      tag_204\n      swap5\n      swap4\n      swap3\n      swap2\n      swap1\n      tag_205\n      jump\t// in\n    tag_204:\n      mload(0x40)\n      0x20\n      dup2\n      dup4\n      sub\n      sub\n      dup2\n      mstore\n      swap1\n      0x40\n      mstore\n        /* \"contracts/MagicTickets/MagicTicketsNFT.sol\":5360:5425  keccak256(abi.encodePacked(block.timestamp, msg.sender, semente)) */\n      dup1\n      mload\n      swap1\n      0x20\n      add\n      keccak256\n        /* \"contracts/MagicTickets/MagicTicketsNFT.sol\":5352:5426  uint256(keccak256(abi.encodePacked(block.timestamp, msg.sender, semente))) */\n      0x00\n      shr\n        /* \"contracts/MagicTickets/MagicTicketsNFT.sol\":5352:5440  uint256(keccak256(abi.encodePacked(block.timestamp, msg.sender, semente))) % (range + 1) */\n      tag_206\n      swap2\n      swap1\n      tag_207\n      jump\t// in\n    tag_206:\n        /* \"contracts/MagicTickets/MagicTicketsNFT.sol\":5345:5440  return uint256(keccak256(abi.encodePacked(block.timestamp, msg.sender, semente))) % (range + 1) */\n      swap1\n      pop\n        /* \"contracts/MagicTickets/MagicTicketsNFT.sol\":5244:5448  function gerarNumero(string calldata semente, uint range) internal view returns (uint256) {... */\n      swap4\n      swap3\n      pop\n      pop\n      pop\n      jump\t// out\n        /* \"contracts/MagicTickets/MagicTicketsNFT.sol\":6178:6664  function sendTokenAndNFT(uint _id) private{... */\n    tag_92:\n        /* \"contracts/MagicTickets/MagicTicketsNFT.sol\":6231:6257  RaffleStruct memory raffle */\n      0x00\n        /* \"contracts/MagicTickets/MagicTicketsNFT.sol\":6260:6267  raffles */\n      0x01\n        /* \"contracts/MagicTickets/MagicTicketsNFT.sol\":6268:6271  _id */\n      dup3\n        /* \"contracts/MagicTickets/MagicTicketsNFT.sol\":6260:6272  raffles[_id] */\n      dup2\n      sload\n      dup2\n      lt\n      tag_209\n      jumpi\n      tag_210\n      tag_55\n      jump\t// in\n    tag_210:\n    tag_209:\n      swap1\n      0x00\n      mstore\n      keccak256(0x00, 0x20)\n      swap1\n      0x0c\n      mul\n      add\n        /* \"contracts/MagicTickets/MagicTicketsNFT.sol\":6231:6272  RaffleStruct memory raffle = raffles[_id] */\n      mload(0x40)\n      dup1\n      0x0180\n      add\n      0x40\n      mstore\n      swap1\n      dup2\n      0x00\n      dup3\n      add\n      0x00\n      swap1\n      sload\n      swap1\n      0x0100\n      exp\n      swap1\n      div\n      0xff\n      and\n      0x02\n      dup2\n      gt\n      iszero\n      tag_212\n      jumpi\n      tag_213\n      tag_68\n      jump\t// in\n    tag_213:\n    tag_212:\n      0x02\n      dup2\n      gt\n      iszero\n      tag_214\n      jumpi\n      tag_215\n      tag_68\n      jump\t// in\n    tag_215:\n    tag_214:\n      dup2\n      mstore\n      0x20\n      add\n      0x01\n      dup3\n      add\n      sload\n      dup2\n      mstore\n      0x20\n      add\n      0x02\n      dup3\n      add\n      sload\n      dup2\n      mstore\n      0x20\n      add\n      0x03\n      dup3\n      add\n      sload\n      dup2\n      mstore\n      0x20\n      add\n      0x04\n      dup3\n      add\n      sload\n      dup2\n      mstore\n      0x20\n      add\n      0x05\n      dup3\n      add\n      sload\n      dup2\n      mstore\n      0x20\n      add\n      0x06\n      dup3\n      add\n      sload\n      dup2\n      mstore\n      0x20\n      add\n      0x07\n      dup3\n      add\n      0x00\n      swap1\n      sload\n      swap1\n      0x0100\n      exp\n      swap1\n      div\n      0xffffffffffffffffffffffffffffffffffffffff\n      and\n      0xffffffffffffffffffffffffffffffffffffffff\n      and\n      0xffffffffffffffffffffffffffffffffffffffff\n      and\n      dup2\n      mstore\n      0x20\n      add\n      0x08\n      dup3\n      add\n      sload\n      dup2\n      mstore\n      0x20\n      add\n      0x09\n      dup3\n      add\n      0x00\n      swap1\n      sload\n      swap1\n      0x0100\n      exp\n      swap1\n      div\n      0xffffffffffffffffffffffffffffffffffffffff\n      and\n      0xffffffffffffffffffffffffffffffffffffffff\n      and\n      0xffffffffffffffffffffffffffffffffffffffff\n      and\n      dup2\n      mstore\n      0x20\n      add\n      0x0a\n      dup3\n      add\n      0x00\n      swap1\n      sload\n      swap1\n      0x0100\n      exp\n      swap1\n      div\n      0xffffffffffffffffffffffffffffffffffffffff\n      and\n      0xffffffffffffffffffffffffffffffffffffffff\n      and\n      0xffffffffffffffffffffffffffffffffffffffff\n      and\n      dup2\n      mstore\n      0x20\n      add\n      0x0b\n      dup3\n      add\n      0x00\n      swap1\n      sload\n      swap1\n      0x0100\n      exp\n      swap1\n      div\n      0xffffffffffffffffffffffffffffffffffffffff\n      and\n      0xffffffffffffffffffffffffffffffffffffffff\n      and\n      0xffffffffffffffffffffffffffffffffffffffff\n      and\n      dup2\n      mstore\n      pop\n      pop\n      swap1\n      pop\n        /* \"contracts/MagicTickets/MagicTicketsNFT.sol\":6285:6303  IERC20 tokenRaffle */\n      0x00\n        /* \"contracts/MagicTickets/MagicTicketsNFT.sol\":6313:6319  raffle */\n      dup2\n        /* \"contracts/MagicTickets/MagicTicketsNFT.sol\":6313:6333  raffle.tokenReceived */\n      0xe0\n      add\n      mload\n        /* \"contracts/MagicTickets/MagicTicketsNFT.sol\":6285:6334  IERC20 tokenRaffle = IERC20(raffle.tokenReceived) */\n      swap1\n      pop\n        /* \"contracts/MagicTickets/MagicTicketsNFT.sol\":6389:6392  100 */\n      0x64\n        /* \"contracts/MagicTickets/MagicTicketsNFT.sol\":6369:6375  raffle */\n      dup3\n        /* \"contracts/MagicTickets/MagicTicketsNFT.sol\":6369:6388  raffle.amountRaised */\n      0x60\n      add\n      mload\n        /* \"contracts/MagicTickets/MagicTicketsNFT.sol\":6369:6392  raffle.amountRaised/100 */\n      tag_216\n      swap2\n      swap1\n      tag_217\n      jump\t// in\n    tag_216:\n        /* \"contracts/MagicTickets/MagicTicketsNFT.sol\":6345:6351  raffle */\n      dup3\n        /* \"contracts/MagicTickets/MagicTicketsNFT.sol\":6345:6366  raffle.sitePercentage */\n      0xa0\n      add\n        /* \"contracts/MagicTickets/MagicTicketsNFT.sol\":6345:6392  raffle.sitePercentage = raffle.amountRaised/100 */\n      dup2\n      dup2\n      mstore\n      pop\n      pop\n        /* \"contracts/MagicTickets/MagicTicketsNFT.sol\":6403:6419  uint valueSeller */\n      0x00\n        /* \"contracts/MagicTickets/MagicTicketsNFT.sol\":6444:6450  raffle */\n      dup3\n        /* \"contracts/MagicTickets/MagicTicketsNFT.sol\":6444:6465  raffle.sitePercentage */\n      0xa0\n      add\n      mload\n        /* \"contracts/MagicTickets/MagicTicketsNFT.sol\":6422:6428  raffle */\n      dup4\n        /* \"contracts/MagicTickets/MagicTicketsNFT.sol\":6422:6441  raffle.amountRaised */\n      0x60\n      add\n      mload\n        /* \"contracts/MagicTickets/MagicTicketsNFT.sol\":6422:6465  raffle.amountRaised - raffle.sitePercentage */\n      tag_218\n      swap2\n      swap1\n      tag_84\n      jump\t// in\n    tag_218:\n        /* \"contracts/MagicTickets/MagicTicketsNFT.sol\":6403:6465  uint valueSeller = raffle.amountRaised - raffle.sitePercentage */\n      swap1\n      pop\n        /* \"contracts/MagicTickets/MagicTicketsNFT.sol\":6478:6489  tokenRaffle */\n      dup2\n        /* \"contracts/MagicTickets/MagicTicketsNFT.sol\":6478:6498  tokenRaffle.transfer */\n      0xffffffffffffffffffffffffffffffffffffffff\n      and\n      0xa9059cbb\n        /* \"contracts/MagicTickets/MagicTicketsNFT.sol\":6499:6505  raffle */\n      dup5\n        /* \"contracts/MagicTickets/MagicTicketsNFT.sol\":6499:6512  raffle.seller */\n      0x0140\n      add\n      mload\n        /* \"contracts/MagicTickets/MagicTicketsNFT.sol\":6514:6525  valueSeller */\n      dup4\n        /* \"contracts/MagicTickets/MagicTicketsNFT.sol\":6478:6526  tokenRaffle.transfer(raffle.seller, valueSeller) */\n      mload(0x40)\n      dup4\n      0xffffffff\n      and\n      0xe0\n      shl\n      dup2\n      mstore\n      0x04\n      add\n      tag_219\n      swap3\n      swap2\n      swap1\n      tag_220\n      jump\t// in\n    tag_219:\n      0x00\n      mload(0x40)\n      dup1\n      dup4\n      sub\n      dup2\n      0x00\n      dup8\n      dup1\n      extcodesize\n      iszero\n      dup1\n      iszero\n      tag_221\n      jumpi\n      0x00\n      dup1\n      revert\n    tag_221:\n      pop\n      gas\n      call\n      iszero\n      dup1\n      iszero\n      tag_223\n      jumpi\n      returndatasize\n      0x00\n      dup1\n      returndatacopy\n      revert(0x00, returndatasize)\n    tag_223:\n      pop\n      pop\n      pop\n      pop\n        /* \"contracts/MagicTickets/MagicTicketsNFT.sol\":6539:6550  IERC721 nft */\n      0x00\n        /* \"contracts/MagicTickets/MagicTicketsNFT.sol\":6561:6567  raffle */\n      dup4\n        /* \"contracts/MagicTickets/MagicTicketsNFT.sol\":6561:6581  raffle.tokenContract */\n      0x0120\n      add\n      mload\n        /* \"contracts/MagicTickets/MagicTicketsNFT.sol\":6539:6582  IERC721 nft = IERC721(raffle.tokenContract) */\n      swap1\n      pop\n        /* \"contracts/MagicTickets/MagicTicketsNFT.sol\":6593:6596  nft */\n      dup1\n        /* \"contracts/MagicTickets/MagicTicketsNFT.sol\":6593:6609  nft.transferFrom */\n      0xffffffffffffffffffffffffffffffffffffffff\n      and\n      0x23b872dd\n        /* \"contracts/MagicTickets/MagicTicketsNFT.sol\":6618:6622  this */\n      address\n        /* \"contracts/MagicTickets/MagicTicketsNFT.sol\":6625:6631  raffle */\n      dup7\n        /* \"contracts/MagicTickets/MagicTicketsNFT.sol\":6625:6638  raffle.winner */\n      0x0160\n      add\n      mload\n        /* \"contracts/MagicTickets/MagicTicketsNFT.sol\":6640:6646  raffle */\n      dup8\n        /* \"contracts/MagicTickets/MagicTicketsNFT.sol\":6640:6655  raffle.tokenNFT */\n      0x0100\n      add\n      mload\n        /* \"contracts/MagicTickets/MagicTicketsNFT.sol\":6593:6656  nft.transferFrom(address(this), raffle.winner, raffle.tokenNFT) */\n      mload(0x40)\n      dup5\n      0xffffffff\n      and\n      0xe0\n      shl\n      dup2\n      mstore\n      0x04\n      add\n      tag_224\n      swap4\n      swap3\n      swap2\n      swap1\n      tag_114\n      jump\t// in\n    tag_224:\n      0x00\n      mload(0x40)\n      dup1\n      dup4\n      sub\n      dup2\n      0x00\n      dup8\n      dup1\n      extcodesize\n      iszero\n      dup1\n      iszero\n      tag_225\n      jumpi\n      0x00\n      dup1\n      revert\n    tag_225:\n      pop\n      gas\n      call\n      iszero\n      dup1\n      iszero\n      tag_227\n      jumpi\n      returndatasize\n      0x00\n      dup1\n      returndatacopy\n      revert(0x00, returndatasize)\n    tag_227:\n      pop\n      pop\n      pop\n      pop\n        /* \"contracts/MagicTickets/MagicTicketsNFT.sol\":6220:6664  {... */\n      pop\n      pop\n      pop\n      pop\n        /* \"contracts/MagicTickets/MagicTicketsNFT.sol\":6178:6664  function sendTokenAndNFT(uint _id) private{... */\n      pop\n      jump\t// out\n        /* \"contracts/MagicTickets/MagicTicketsNFT.sol\":2088:2283  function transferNFT (uint _tokenID, address _NFTContract, address _from) private {... */\n    tag_140:\n        /* \"contracts/MagicTickets/MagicTicketsNFT.sol\":2181:2192  IERC721 nft */\n      0x00\n        /* \"contracts/MagicTickets/MagicTicketsNFT.sol\":2203:2215  _NFTContract */\n      dup3\n        /* \"contracts/MagicTickets/MagicTicketsNFT.sol\":2181:2216  IERC721 nft = IERC721(_NFTContract) */\n      swap1\n      pop\n        /* \"contracts/MagicTickets/MagicTicketsNFT.sol\":2227:2230  nft */\n      dup1\n        /* \"contracts/MagicTickets/MagicTicketsNFT.sol\":2227:2243  nft.transferFrom */\n      0xffffffffffffffffffffffffffffffffffffffff\n      and\n      0x23b872dd\n        /* \"contracts/MagicTickets/MagicTicketsNFT.sol\":2244:2249  _from */\n      dup4\n        /* \"contracts/MagicTickets/MagicTicketsNFT.sol\":2259:2263  this */\n      address\n        /* \"contracts/MagicTickets/MagicTicketsNFT.sol\":2266:2274  _tokenID */\n      dup8\n        /* \"contracts/MagicTickets/MagicTicketsNFT.sol\":2227:2275  nft.transferFrom(_from, address(this), _tokenID) */\n      mload(0x40)\n      dup5\n      0xffffffff\n      and\n      0xe0\n      shl\n      dup2\n      mstore\n      0x04\n      add\n      tag_229\n      swap4\n      swap3\n      swap2\n      swap1\n      tag_114\n      jump\t// in\n    tag_229:\n      0x00\n      mload(0x40)\n      dup1\n      dup4\n      sub\n      dup2\n      0x00\n      dup8\n      dup1\n      extcodesize\n      iszero\n      dup1\n      iszero\n      tag_230\n      jumpi\n      0x00\n      dup1\n      revert\n    tag_230:\n      pop\n      gas\n      call\n      iszero\n      dup1\n      iszero\n      tag_232\n      jumpi\n      returndatasize\n      0x00\n      dup1\n      returndatacopy\n      revert(0x00, returndatasize)\n    tag_232:\n      pop\n      pop\n      pop\n      pop\n        /* \"contracts/MagicTickets/MagicTicketsNFT.sol\":2170:2283  {... */\n      pop\n        /* \"contracts/MagicTickets/MagicTicketsNFT.sol\":2088:2283  function transferNFT (uint _tokenID, address _NFTContract, address _from) private {... */\n      pop\n      pop\n      pop\n      jump\t// out\n        /* \"#utility.yul\":88:205   */\n    tag_234:\n        /* \"#utility.yul\":197:198   */\n      0x00\n        /* \"#utility.yul\":194:195   */\n      dup1\n        /* \"#utility.yul\":187:199   */\n      revert\n        /* \"#utility.yul\":211:328   */\n    tag_235:\n        /* \"#utility.yul\":320:321   */\n      0x00\n        /* \"#utility.yul\":317:318   */\n      dup1\n        /* \"#utility.yul\":310:322   */\n      revert\n        /* \"#utility.yul\":334:411   */\n    tag_236:\n        /* \"#utility.yul\":371:378   */\n      0x00\n        /* \"#utility.yul\":400:405   */\n      dup2\n        /* \"#utility.yul\":389:405   */\n      swap1\n      pop\n        /* \"#utility.yul\":334:411   */\n      swap2\n      swap1\n      pop\n      jump\t// out\n        /* \"#utility.yul\":417:539   */\n    tag_237:\n        /* \"#utility.yul\":490:514   */\n      tag_297\n        /* \"#utility.yul\":508:513   */\n      dup2\n        /* \"#utility.yul\":490:514   */\n      tag_236\n      jump\t// in\n    tag_297:\n        /* \"#utility.yul\":483:488   */\n      dup2\n        /* \"#utility.yul\":480:515   */\n      eq\n        /* \"#utility.yul\":470:533   */\n      tag_298\n      jumpi\n        /* \"#utility.yul\":529:530   */\n      0x00\n        /* \"#utility.yul\":526:527   */\n      dup1\n        /* \"#utility.yul\":519:531   */\n      revert\n        /* \"#utility.yul\":470:533   */\n    tag_298:\n        /* \"#utility.yul\":417:539   */\n      pop\n      jump\t// out\n        /* \"#utility.yul\":545:684   */\n    tag_238:\n        /* \"#utility.yul\":591:596   */\n      0x00\n        /* \"#utility.yul\":629:635   */\n      dup2\n        /* \"#utility.yul\":616:636   */\n      calldataload\n        /* \"#utility.yul\":607:636   */\n      swap1\n      pop\n        /* \"#utility.yul\":645:678   */\n      tag_300\n        /* \"#utility.yul\":672:677   */\n      dup2\n        /* \"#utility.yul\":645:678   */\n      tag_237\n      jump\t// in\n    tag_300:\n        /* \"#utility.yul\":545:684   */\n      swap3\n      swap2\n      pop\n      pop\n      jump\t// out\n        /* \"#utility.yul\":690:1019   */\n    tag_15:\n        /* \"#utility.yul\":749:755   */\n      0x00\n        /* \"#utility.yul\":798:800   */\n      0x20\n        /* \"#utility.yul\":786:795   */\n      dup3\n        /* \"#utility.yul\":777:784   */\n      dup5\n        /* \"#utility.yul\":773:796   */\n      sub\n        /* \"#utility.yul\":769:801   */\n      slt\n        /* \"#utility.yul\":766:885   */\n      iszero\n      tag_302\n      jumpi\n        /* \"#utility.yul\":804:883   */\n      tag_303\n      tag_234\n      jump\t// in\n    tag_303:\n        /* \"#utility.yul\":766:885   */\n    tag_302:\n        /* \"#utility.yul\":924:925   */\n      0x00\n        /* \"#utility.yul\":949:1002   */\n      tag_304\n        /* \"#utility.yul\":994:1001   */\n      dup5\n        /* \"#utility.yul\":985:991   */\n      dup3\n        /* \"#utility.yul\":974:983   */\n      dup6\n        /* \"#utility.yul\":970:992   */\n      add\n        /* \"#utility.yul\":949:1002   */\n      tag_238\n      jump\t// in\n    tag_304:\n        /* \"#utility.yul\":939:1002   */\n      swap2\n      pop\n        /* \"#utility.yul\":895:1012   */\n      pop\n        /* \"#utility.yul\":690:1019   */\n      swap3\n      swap2\n      pop\n      pop\n      jump\t// out\n        /* \"#utility.yul\":1025:1143   */\n    tag_239:\n        /* \"#utility.yul\":1112:1136   */\n      tag_306\n        /* \"#utility.yul\":1130:1135   */\n      dup2\n        /* \"#utility.yul\":1112:1136   */\n      tag_236\n      jump\t// in\n    tag_306:\n        /* \"#utility.yul\":1107:1110   */\n      dup3\n        /* \"#utility.yul\":1100:1137   */\n      mstore\n        /* \"#utility.yul\":1025:1143   */\n      pop\n      pop\n      jump\t// out\n        /* \"#utility.yul\":1149:1371   */\n    tag_18:\n        /* \"#utility.yul\":1242:1246   */\n      0x00\n        /* \"#utility.yul\":1280:1282   */\n      0x20\n        /* \"#utility.yul\":1269:1278   */\n      dup3\n        /* \"#utility.yul\":1265:1283   */\n      add\n        /* \"#utility.yul\":1257:1283   */\n      swap1\n      pop\n        /* \"#utility.yul\":1293:1364   */\n      tag_308\n        /* \"#utility.yul\":1361:1362   */\n      0x00\n        /* \"#utility.yul\":1350:1359   */\n      dup4\n        /* \"#utility.yul\":1346:1363   */\n      add\n        /* \"#utility.yul\":1337:1343   */\n      dup5\n        /* \"#utility.yul\":1293:1364   */\n      tag_239\n      jump\t// in\n    tag_308:\n        /* \"#utility.yul\":1149:1371   */\n      swap3\n      swap2\n      pop\n      pop\n      jump\t// out\n        /* \"#utility.yul\":1377:1851   */\n    tag_21:\n        /* \"#utility.yul\":1445:1451   */\n      0x00\n        /* \"#utility.yul\":1453:1459   */\n      dup1\n        /* \"#utility.yul\":1502:1504   */\n      0x40\n        /* \"#utility.yul\":1490:1499   */\n      dup4\n        /* \"#utility.yul\":1481:1488   */\n      dup6\n        /* \"#utility.yul\":1477:1500   */\n      sub\n        /* \"#utility.yul\":1473:1505   */\n      slt\n        /* \"#utility.yul\":1470:1589   */\n      iszero\n      tag_310\n      jumpi\n        /* \"#utility.yul\":1508:1587   */\n      tag_311\n      tag_234\n      jump\t// in\n    tag_311:\n        /* \"#utility.yul\":1470:1589   */\n    tag_310:\n        /* \"#utility.yul\":1628:1629   */\n      0x00\n        /* \"#utility.yul\":1653:1706   */\n      tag_312\n        /* \"#utility.yul\":1698:1705   */\n      dup6\n        /* \"#utility.yul\":1689:1695   */\n      dup3\n        /* \"#utility.yul\":1678:1687   */\n      dup7\n        /* \"#utility.yul\":1674:1696   */\n      add\n        /* \"#utility.yul\":1653:1706   */\n      tag_238\n      jump\t// in\n    tag_312:\n        /* \"#utility.yul\":1643:1706   */\n      swap3\n      pop\n        /* \"#utility.yul\":1599:1716   */\n      pop\n        /* \"#utility.yul\":1755:1757   */\n      0x20\n        /* \"#utility.yul\":1781:1834   */\n      tag_313\n        /* \"#utility.yul\":1826:1833   */\n      dup6\n        /* \"#utility.yul\":1817:1823   */\n      dup3\n        /* \"#utility.yul\":1806:1815   */\n      dup7\n        /* \"#utility.yul\":1802:1824   */\n      add\n        /* \"#utility.yul\":1781:1834   */\n      tag_238\n      jump\t// in\n    tag_313:\n        /* \"#utility.yul\":1771:1834   */\n      swap2\n      pop\n        /* \"#utility.yul\":1726:1844   */\n      pop\n        /* \"#utility.yul\":1377:1851   */\n      swap3\n      pop\n      swap3\n      swap1\n      pop\n      jump\t// out\n        /* \"#utility.yul\":1857:1983   */\n    tag_240:\n        /* \"#utility.yul\":1894:1901   */\n      0x00\n        /* \"#utility.yul\":1934:1976   */\n      0xffffffffffffffffffffffffffffffffffffffff\n        /* \"#utility.yul\":1927:1932   */\n      dup3\n        /* \"#utility.yul\":1923:1977   */\n      and\n        /* \"#utility.yul\":1912:1977   */\n      swap1\n      pop\n        /* \"#utility.yul\":1857:1983   */\n      swap2\n      swap1\n      pop\n      jump\t// out\n        /* \"#utility.yul\":1989:2085   */\n    tag_241:\n        /* \"#utility.yul\":2026:2033   */\n      0x00\n        /* \"#utility.yul\":2055:2079   */\n      tag_316\n        /* \"#utility.yul\":2073:2078   */\n      dup3\n        /* \"#utility.yul\":2055:2079   */\n      tag_240\n      jump\t// in\n    tag_316:\n        /* \"#utility.yul\":2044:2079   */\n      swap1\n      pop\n        /* \"#utility.yul\":1989:2085   */\n      swap2\n      swap1\n      pop\n      jump\t// out\n        /* \"#utility.yul\":2091:2209   */\n    tag_242:\n        /* \"#utility.yul\":2178:2202   */\n      tag_318\n        /* \"#utility.yul\":2196:2201   */\n      dup2\n        /* \"#utility.yul\":2178:2202   */\n      tag_241\n      jump\t// in\n    tag_318:\n        /* \"#utility.yul\":2173:2176   */\n      dup3\n        /* \"#utility.yul\":2166:2203   */\n      mstore\n        /* \"#utility.yul\":2091:2209   */\n      pop\n      pop\n      jump\t// out\n        /* \"#utility.yul\":2215:2437   */\n    tag_24:\n        /* \"#utility.yul\":2308:2312   */\n      0x00\n        /* \"#utility.yul\":2346:2348   */\n      0x20\n        /* \"#utility.yul\":2335:2344   */\n      dup3\n        /* \"#utility.yul\":2331:2349   */\n      add\n        /* \"#utility.yul\":2323:2349   */\n      swap1\n      pop\n        /* \"#utility.yul\":2359:2430   */\n      tag_320\n        /* \"#utility.yul\":2427:2428   */\n      0x00\n        /* \"#utility.yul\":2416:2425   */\n      dup4\n        /* \"#utility.yul\":2412:2429   */\n      add\n        /* \"#utility.yul\":2403:2409   */\n      dup5\n        /* \"#utility.yul\":2359:2430   */\n      tag_242\n      jump\t// in\n    tag_320:\n        /* \"#utility.yul\":2215:2437   */\n      swap3\n      swap2\n      pop\n      pop\n      jump\t// out\n        /* \"#utility.yul\":2443:2560   */\n    tag_243:\n        /* \"#utility.yul\":2552:2553   */\n      0x00\n        /* \"#utility.yul\":2549:2550   */\n      dup1\n        /* \"#utility.yul\":2542:2554   */\n      revert\n        /* \"#utility.yul\":2566:2683   */\n    tag_244:\n        /* \"#utility.yul\":2675:2676   */\n      0x00\n        /* \"#utility.yul\":2672:2673   */\n      dup1\n        /* \"#utility.yul\":2665:2677   */\n      revert\n        /* \"#utility.yul\":2689:2806   */\n    tag_245:\n        /* \"#utility.yul\":2798:2799   */\n      0x00\n        /* \"#utility.yul\":2795:2796   */\n      dup1\n        /* \"#utility.yul\":2788:2800   */\n      revert\n        /* \"#utility.yul\":2826:3379   */\n    tag_246:\n        /* \"#utility.yul\":2884:2892   */\n      0x00\n        /* \"#utility.yul\":2894:2900   */\n      dup1\n        /* \"#utility.yul\":2944:2947   */\n      dup4\n        /* \"#utility.yul\":2937:2941   */\n      0x1f\n        /* \"#utility.yul\":2929:2935   */\n      dup5\n        /* \"#utility.yul\":2925:2942   */\n      add\n        /* \"#utility.yul\":2921:2948   */\n      slt\n        /* \"#utility.yul\":2911:3033   */\n      tag_325\n      jumpi\n        /* \"#utility.yul\":2952:3031   */\n      tag_326\n      tag_243\n      jump\t// in\n    tag_326:\n        /* \"#utility.yul\":2911:3033   */\n    tag_325:\n        /* \"#utility.yul\":3065:3071   */\n      dup3\n        /* \"#utility.yul\":3052:3072   */\n      calldataload\n        /* \"#utility.yul\":3042:3072   */\n      swap1\n      pop\n        /* \"#utility.yul\":3095:3113   */\n      0xffffffffffffffff\n        /* \"#utility.yul\":3087:3093   */\n      dup2\n        /* \"#utility.yul\":3084:3114   */\n      gt\n        /* \"#utility.yul\":3081:3198   */\n      iszero\n      tag_327\n      jumpi\n        /* \"#utility.yul\":3117:3196   */\n      tag_328\n      tag_244\n      jump\t// in\n    tag_328:\n        /* \"#utility.yul\":3081:3198   */\n    tag_327:\n        /* \"#utility.yul\":3231:3235   */\n      0x20\n        /* \"#utility.yul\":3223:3229   */\n      dup4\n        /* \"#utility.yul\":3219:3236   */\n      add\n        /* \"#utility.yul\":3207:3236   */\n      swap2\n      pop\n        /* \"#utility.yul\":3285:3288   */\n      dup4\n        /* \"#utility.yul\":3277:3281   */\n      0x01\n        /* \"#utility.yul\":3269:3275   */\n      dup3\n        /* \"#utility.yul\":3265:3282   */\n      mul\n        /* \"#utility.yul\":3255:3263   */\n      dup4\n        /* \"#utility.yul\":3251:3283   */\n      add\n        /* \"#utility.yul\":3248:3289   */\n      gt\n        /* \"#utility.yul\":3245:3373   */\n      iszero\n      tag_329\n      jumpi\n        /* \"#utility.yul\":3292:3371   */\n      tag_330\n      tag_245\n      jump\t// in\n    tag_330:\n        /* \"#utility.yul\":3245:3373   */\n    tag_329:\n        /* \"#utility.yul\":2826:3379   */\n      swap3\n      pop\n      swap3\n      swap1\n      pop\n      jump\t// out\n        /* \"#utility.yul\":3385:4059   */\n    tag_27:\n        /* \"#utility.yul\":3465:3471   */\n      0x00\n        /* \"#utility.yul\":3473:3479   */\n      dup1\n        /* \"#utility.yul\":3481:3487   */\n      0x00\n        /* \"#utility.yul\":3530:3532   */\n      0x40\n        /* \"#utility.yul\":3518:3527   */\n      dup5\n        /* \"#utility.yul\":3509:3516   */\n      dup7\n        /* \"#utility.yul\":3505:3528   */\n      sub\n        /* \"#utility.yul\":3501:3533   */\n      slt\n        /* \"#utility.yul\":3498:3617   */\n      iszero\n      tag_332\n      jumpi\n        /* \"#utility.yul\":3536:3615   */\n      tag_333\n      tag_234\n      jump\t// in\n    tag_333:\n        /* \"#utility.yul\":3498:3617   */\n    tag_332:\n        /* \"#utility.yul\":3656:3657   */\n      0x00\n        /* \"#utility.yul\":3681:3734   */\n      tag_334\n        /* \"#utility.yul\":3726:3733   */\n      dup7\n        /* \"#utility.yul\":3717:3723   */\n      dup3\n        /* \"#utility.yul\":3706:3715   */\n      dup8\n        /* \"#utility.yul\":3702:3724   */\n      add\n        /* \"#utility.yul\":3681:3734   */\n      tag_238\n      jump\t// in\n    tag_334:\n        /* \"#utility.yul\":3671:3734   */\n      swap4\n      pop\n        /* \"#utility.yul\":3627:3744   */\n      pop\n        /* \"#utility.yul\":3811:3813   */\n      0x20\n        /* \"#utility.yul\":3800:3809   */\n      dup5\n        /* \"#utility.yul\":3796:3814   */\n      add\n        /* \"#utility.yul\":3783:3815   */\n      calldataload\n        /* \"#utility.yul\":3842:3860   */\n      0xffffffffffffffff\n        /* \"#utility.yul\":3834:3840   */\n      dup2\n        /* \"#utility.yul\":3831:3861   */\n      gt\n        /* \"#utility.yul\":3828:3945   */\n      iszero\n      tag_335\n      jumpi\n        /* \"#utility.yul\":3864:3943   */\n      tag_336\n      tag_235\n      jump\t// in\n    tag_336:\n        /* \"#utility.yul\":3828:3945   */\n    tag_335:\n        /* \"#utility.yul\":3977:4042   */\n      tag_337\n        /* \"#utility.yul\":4034:4041   */\n      dup7\n        /* \"#utility.yul\":4025:4031   */\n      dup3\n        /* \"#utility.yul\":4014:4023   */\n      dup8\n        /* \"#utility.yul\":4010:4032   */\n      add\n        /* \"#utility.yul\":3977:4042   */\n      tag_246\n      jump\t// in\n    tag_337:\n        /* \"#utility.yul\":3959:4042   */\n      swap3\n      pop\n      swap3\n      pop\n        /* \"#utility.yul\":3754:4052   */\n      pop\n        /* \"#utility.yul\":3385:4059   */\n      swap3\n      pop\n      swap3\n      pop\n      swap3\n      jump\t// out\n        /* \"#utility.yul\":4065:4245   */\n    tag_68:\n        /* \"#utility.yul\":4113:4190   */\n      0x4e487b7100000000000000000000000000000000000000000000000000000000\n        /* \"#utility.yul\":4110:4111   */\n      0x00\n        /* \"#utility.yul\":4103:4191   */\n      mstore\n        /* \"#utility.yul\":4210:4214   */\n      0x21\n        /* \"#utility.yul\":4207:4208   */\n      0x04\n        /* \"#utility.yul\":4200:4215   */\n      mstore\n        /* \"#utility.yul\":4234:4238   */\n      0x24\n        /* \"#utility.yul\":4231:4232   */\n      0x00\n        /* \"#utility.yul\":4224:4239   */\n      revert\n        /* \"#utility.yul\":4251:4366   */\n    tag_247:\n        /* \"#utility.yul\":4334:4335   */\n      0x03\n        /* \"#utility.yul\":4327:4332   */\n      dup2\n        /* \"#utility.yul\":4324:4336   */\n      lt\n        /* \"#utility.yul\":4314:4360   */\n      tag_340\n      jumpi\n        /* \"#utility.yul\":4340:4358   */\n      tag_341\n      tag_68\n      jump\t// in\n    tag_341:\n        /* \"#utility.yul\":4314:4360   */\n    tag_340:\n        /* \"#utility.yul\":4251:4366   */\n      pop\n      jump\t// out\n        /* \"#utility.yul\":4372:4503   */\n    tag_248:\n        /* \"#utility.yul\":4419:4426   */\n      0x00\n        /* \"#utility.yul\":4448:4453   */\n      dup2\n        /* \"#utility.yul\":4437:4453   */\n      swap1\n      pop\n        /* \"#utility.yul\":4454:4497   */\n      tag_343\n        /* \"#utility.yul\":4491:4496   */\n      dup3\n        /* \"#utility.yul\":4454:4497   */\n      tag_247\n      jump\t// in\n    tag_343:\n        /* \"#utility.yul\":4372:4503   */\n      swap2\n      swap1\n      pop\n      jump\t// out\n        /* \"#utility.yul\":4509:4640   */\n    tag_249:\n        /* \"#utility.yul\":4567:4576   */\n      0x00\n        /* \"#utility.yul\":4600:4634   */\n      tag_345\n        /* \"#utility.yul\":4628:4633   */\n      dup3\n        /* \"#utility.yul\":4600:4634   */\n      tag_248\n      jump\t// in\n    tag_345:\n        /* \"#utility.yul\":4587:4634   */\n      swap1\n      pop\n        /* \"#utility.yul\":4509:4640   */\n      swap2\n      swap1\n      pop\n      jump\t// out\n        /* \"#utility.yul\":4646:4793   */\n    tag_250:\n        /* \"#utility.yul\":4741:4786   */\n      tag_347\n        /* \"#utility.yul\":4780:4785   */\n      dup2\n        /* \"#utility.yul\":4741:4786   */\n      tag_249\n      jump\t// in\n    tag_347:\n        /* \"#utility.yul\":4736:4739   */\n      dup3\n        /* \"#utility.yul\":4729:4787   */\n      mstore\n        /* \"#utility.yul\":4646:4793   */\n      pop\n      pop\n      jump\t// out\n        /* \"#utility.yul\":4799:6260   */\n    tag_33:\n        /* \"#utility.yul\":5210:5214   */\n      0x00\n        /* \"#utility.yul\":5248:5251   */\n      0x0180\n        /* \"#utility.yul\":5237:5246   */\n      dup3\n        /* \"#utility.yul\":5233:5252   */\n      add\n        /* \"#utility.yul\":5225:5252   */\n      swap1\n      pop\n        /* \"#utility.yul\":5262:5341   */\n      tag_349\n        /* \"#utility.yul\":5338:5339   */\n      0x00\n        /* \"#utility.yul\":5327:5336   */\n      dup4\n        /* \"#utility.yul\":5323:5340   */\n      add\n        /* \"#utility.yul\":5314:5320   */\n      dup16\n        /* \"#utility.yul\":5262:5341   */\n      tag_250\n      jump\t// in\n    tag_349:\n        /* \"#utility.yul\":5351:5423   */\n      tag_350\n        /* \"#utility.yul\":5419:5421   */\n      0x20\n        /* \"#utility.yul\":5408:5417   */\n      dup4\n        /* \"#utility.yul\":5404:5422   */\n      add\n        /* \"#utility.yul\":5395:5401   */\n      dup15\n        /* \"#utility.yul\":5351:5423   */\n      tag_239\n      jump\t// in\n    tag_350:\n        /* \"#utility.yul\":5433:5505   */\n      tag_351\n        /* \"#utility.yul\":5501:5503   */\n      0x40\n        /* \"#utility.yul\":5490:5499   */\n      dup4\n        /* \"#utility.yul\":5486:5504   */\n      add\n        /* \"#utility.yul\":5477:5483   */\n      dup14\n        /* \"#utility.yul\":5433:5505   */\n      tag_239\n      jump\t// in\n    tag_351:\n        /* \"#utility.yul\":5515:5587   */\n      tag_352\n        /* \"#utility.yul\":5583:5585   */\n      0x60\n        /* \"#utility.yul\":5572:5581   */\n      dup4\n        /* \"#utility.yul\":5568:5586   */\n      add\n        /* \"#utility.yul\":5559:5565   */\n      dup13\n        /* \"#utility.yul\":5515:5587   */\n      tag_239\n      jump\t// in\n    tag_352:\n        /* \"#utility.yul\":5597:5670   */\n      tag_353\n        /* \"#utility.yul\":5665:5668   */\n      0x80\n        /* \"#utility.yul\":5654:5663   */\n      dup4\n        /* \"#utility.yul\":5650:5669   */\n      add\n        /* \"#utility.yul\":5641:5647   */\n      dup12\n        /* \"#utility.yul\":5597:5670   */\n      tag_239\n      jump\t// in\n    tag_353:\n        /* \"#utility.yul\":5680:5753   */\n      tag_354\n        /* \"#utility.yul\":5748:5751   */\n      0xa0\n        /* \"#utility.yul\":5737:5746   */\n      dup4\n        /* \"#utility.yul\":5733:5752   */\n      add\n        /* \"#utility.yul\":5724:5730   */\n      dup11\n        /* \"#utility.yul\":5680:5753   */\n      tag_239\n      jump\t// in\n    tag_354:\n        /* \"#utility.yul\":5763:5836   */\n      tag_355\n        /* \"#utility.yul\":5831:5834   */\n      0xc0\n        /* \"#utility.yul\":5820:5829   */\n      dup4\n        /* \"#utility.yul\":5816:5835   */\n      add\n        /* \"#utility.yul\":5807:5813   */\n      dup10\n        /* \"#utility.yul\":5763:5836   */\n      tag_239\n      jump\t// in\n    tag_355:\n        /* \"#utility.yul\":5846:5919   */\n      tag_356\n        /* \"#utility.yul\":5914:5917   */\n      0xe0\n        /* \"#utility.yul\":5903:5912   */\n      dup4\n        /* \"#utility.yul\":5899:5918   */\n      add\n        /* \"#utility.yul\":5890:5896   */\n      dup9\n        /* \"#utility.yul\":5846:5919   */\n      tag_242\n      jump\t// in\n    tag_356:\n        /* \"#utility.yul\":5929:6002   */\n      tag_357\n        /* \"#utility.yul\":5997:6000   */\n      0x0100\n        /* \"#utility.yul\":5986:5995   */\n      dup4\n        /* \"#utility.yul\":5982:6001   */\n      add\n        /* \"#utility.yul\":5973:5979   */\n      dup8\n        /* \"#utility.yul\":5929:6002   */\n      tag_239\n      jump\t// in\n    tag_357:\n        /* \"#utility.yul\":6012:6085   */\n      tag_358\n        /* \"#utility.yul\":6080:6083   */\n      0x0120\n        /* \"#utility.yul\":6069:6078   */\n      dup4\n        /* \"#utility.yul\":6065:6084   */\n      add\n        /* \"#utility.yul\":6056:6062   */\n      dup7\n        /* \"#utility.yul\":6012:6085   */\n      tag_242\n      jump\t// in\n    tag_358:\n        /* \"#utility.yul\":6095:6169   */\n      tag_359\n        /* \"#utility.yul\":6164:6167   */\n      0x0140\n        /* \"#utility.yul\":6153:6162   */\n      dup4\n        /* \"#utility.yul\":6149:6168   */\n      add\n        /* \"#utility.yul\":6139:6146   */\n      dup6\n        /* \"#utility.yul\":6095:6169   */\n      tag_242\n      jump\t// in\n    tag_359:\n        /* \"#utility.yul\":6179:6253   */\n      tag_360\n        /* \"#utility.yul\":6248:6251   */\n      0x0160\n        /* \"#utility.yul\":6237:6246   */\n      dup4\n        /* \"#utility.yul\":6233:6252   */\n      add\n        /* \"#utility.yul\":6223:6230   */\n      dup5\n        /* \"#utility.yul\":6179:6253   */\n      tag_242\n      jump\t// in\n    tag_360:\n        /* \"#utility.yul\":4799:6260   */\n      swap14\n      swap13\n      pop\n      pop\n      pop\n      pop\n      pop\n      pop\n      pop\n      pop\n      pop\n      pop\n      pop\n      pop\n      pop\n      jump\t// out\n        /* \"#utility.yul\":6266:6388   */\n    tag_251:\n        /* \"#utility.yul\":6339:6363   */\n      tag_362\n        /* \"#utility.yul\":6357:6362   */\n      dup2\n        /* \"#utility.yul\":6339:6363   */\n      tag_241\n      jump\t// in\n    tag_362:\n        /* \"#utility.yul\":6332:6337   */\n      dup2\n        /* \"#utility.yul\":6329:6364   */\n      eq\n        /* \"#utility.yul\":6319:6382   */\n      tag_363\n      jumpi\n        /* \"#utility.yul\":6378:6379   */\n      0x00\n        /* \"#utility.yul\":6375:6376   */\n      dup1\n        /* \"#utility.yul\":6368:6380   */\n      revert\n        /* \"#utility.yul\":6319:6382   */\n    tag_363:\n        /* \"#utility.yul\":6266:6388   */\n      pop\n      jump\t// out\n        /* \"#utility.yul\":6394:6533   */\n    tag_252:\n        /* \"#utility.yul\":6440:6445   */\n      0x00\n        /* \"#utility.yul\":6478:6484   */\n      dup2\n        /* \"#utility.yul\":6465:6485   */\n      calldataload\n        /* \"#utility.yul\":6456:6485   */\n      swap1\n      pop\n        /* \"#utility.yul\":6494:6527   */\n      tag_365\n        /* \"#utility.yul\":6521:6526   */\n      dup2\n        /* \"#utility.yul\":6494:6527   */\n      tag_251\n      jump\t// in\n    tag_365:\n        /* \"#utility.yul\":6394:6533   */\n      swap3\n      swap2\n      pop\n      pop\n      jump\t// out\n        /* \"#utility.yul\":6539:7596   */\n    tag_39:\n        /* \"#utility.yul\":6643:6649   */\n      0x00\n        /* \"#utility.yul\":6651:6657   */\n      dup1\n        /* \"#utility.yul\":6659:6665   */\n      0x00\n        /* \"#utility.yul\":6667:6673   */\n      dup1\n        /* \"#utility.yul\":6675:6681   */\n      0x00\n        /* \"#utility.yul\":6683:6689   */\n      dup1\n        /* \"#utility.yul\":6732:6735   */\n      0xc0\n        /* \"#utility.yul\":6720:6729   */\n      dup8\n        /* \"#utility.yul\":6711:6718   */\n      dup10\n        /* \"#utility.yul\":6707:6730   */\n      sub\n        /* \"#utility.yul\":6703:6736   */\n      slt\n        /* \"#utility.yul\":6700:6820   */\n      iszero\n      tag_367\n      jumpi\n        /* \"#utility.yul\":6739:6818   */\n      tag_368\n      tag_234\n      jump\t// in\n    tag_368:\n        /* \"#utility.yul\":6700:6820   */\n    tag_367:\n        /* \"#utility.yul\":6859:6860   */\n      0x00\n        /* \"#utility.yul\":6884:6937   */\n      tag_369\n        /* \"#utility.yul\":6929:6936   */\n      dup10\n        /* \"#utility.yul\":6920:6926   */\n      dup3\n        /* \"#utility.yul\":6909:6918   */\n      dup11\n        /* \"#utility.yul\":6905:6927   */\n      add\n        /* \"#utility.yul\":6884:6937   */\n      tag_238\n      jump\t// in\n    tag_369:\n        /* \"#utility.yul\":6874:6937   */\n      swap7\n      pop\n        /* \"#utility.yul\":6830:6947   */\n      pop\n        /* \"#utility.yul\":6986:6988   */\n      0x20\n        /* \"#utility.yul\":7012:7065   */\n      tag_370\n        /* \"#utility.yul\":7057:7064   */\n      dup10\n        /* \"#utility.yul\":7048:7054   */\n      dup3\n        /* \"#utility.yul\":7037:7046   */\n      dup11\n        /* \"#utility.yul\":7033:7055   */\n      add\n        /* \"#utility.yul\":7012:7065   */\n      tag_238\n      jump\t// in\n    tag_370:\n        /* \"#utility.yul\":7002:7065   */\n      swap6\n      pop\n        /* \"#utility.yul\":6957:7075   */\n      pop\n        /* \"#utility.yul\":7114:7116   */\n      0x40\n        /* \"#utility.yul\":7140:7193   */\n      tag_371\n        /* \"#utility.yul\":7185:7192   */\n      dup10\n        /* \"#utility.yul\":7176:7182   */\n      dup3\n        /* \"#utility.yul\":7165:7174   */\n      dup11\n        /* \"#utility.yul\":7161:7183   */\n      add\n        /* \"#utility.yul\":7140:7193   */\n      tag_252\n      jump\t// in\n    tag_371:\n        /* \"#utility.yul\":7130:7193   */\n      swap5\n      pop\n        /* \"#utility.yul\":7085:7203   */\n      pop\n        /* \"#utility.yul\":7242:7244   */\n      0x60\n        /* \"#utility.yul\":7268:7321   */\n      tag_372\n        /* \"#utility.yul\":7313:7320   */\n      dup10\n        /* \"#utility.yul\":7304:7310   */\n      dup3\n        /* \"#utility.yul\":7293:7302   */\n      dup11\n        /* \"#utility.yul\":7289:7311   */\n      add\n        /* \"#utility.yul\":7268:7321   */\n      tag_238\n      jump\t// in\n    tag_372:\n        /* \"#utility.yul\":7258:7321   */\n      swap4\n      pop\n        /* \"#utility.yul\":7213:7331   */\n      pop\n        /* \"#utility.yul\":7370:7373   */\n      0x80\n        /* \"#utility.yul\":7397:7450   */\n      tag_373\n        /* \"#utility.yul\":7442:7449   */\n      dup10\n        /* \"#utility.yul\":7433:7439   */\n      dup3\n        /* \"#utility.yul\":7422:7431   */\n      dup11\n        /* \"#utility.yul\":7418:7440   */\n      add\n        /* \"#utility.yul\":7397:7450   */\n      tag_238\n      jump\t// in\n    tag_373:\n        /* \"#utility.yul\":7387:7450   */\n      swap3\n      pop\n        /* \"#utility.yul\":7341:7460   */\n      pop\n        /* \"#utility.yul\":7499:7502   */\n      0xa0\n        /* \"#utility.yul\":7526:7579   */\n      tag_374\n        /* \"#utility.yul\":7571:7578   */\n      dup10\n        /* \"#utility.yul\":7562:7568   */\n      dup3\n        /* \"#utility.yul\":7551:7560   */\n      dup11\n        /* \"#utility.yul\":7547:7569   */\n      add\n        /* \"#utility.yul\":7526:7579   */\n      tag_252\n      jump\t// in\n    tag_374:\n        /* \"#utility.yul\":7516:7579   */\n      swap2\n      pop\n        /* \"#utility.yul\":7470:7589   */\n      pop\n        /* \"#utility.yul\":6539:7596   */\n      swap3\n      swap6\n      pop\n      swap3\n      swap6\n      pop\n      swap3\n      swap6\n      jump\t// out\n        /* \"#utility.yul\":7602:8221   */\n    tag_47:\n        /* \"#utility.yul\":7679:7685   */\n      0x00\n        /* \"#utility.yul\":7687:7693   */\n      dup1\n        /* \"#utility.yul\":7695:7701   */\n      0x00\n        /* \"#utility.yul\":7744:7746   */\n      0x60\n        /* \"#utility.yul\":7732:7741   */\n      dup5\n        /* \"#utility.yul\":7723:7730   */\n      dup7\n        /* \"#utility.yul\":7719:7742   */\n      sub\n        /* \"#utility.yul\":7715:7747   */\n      slt\n        /* \"#utility.yul\":7712:7831   */\n      iszero\n      tag_376\n      jumpi\n        /* \"#utility.yul\":7750:7829   */\n      tag_377\n      tag_234\n      jump\t// in\n    tag_377:\n        /* \"#utility.yul\":7712:7831   */\n    tag_376:\n        /* \"#utility.yul\":7870:7871   */\n      0x00\n        /* \"#utility.yul\":7895:7948   */\n      tag_378\n        /* \"#utility.yul\":7940:7947   */\n      dup7\n        /* \"#utility.yul\":7931:7937   */\n      dup3\n        /* \"#utility.yul\":7920:7929   */\n      dup8\n        /* \"#utility.yul\":7916:7938   */\n      add\n        /* \"#utility.yul\":7895:7948   */\n      tag_238\n      jump\t// in\n    tag_378:\n        /* \"#utility.yul\":7885:7948   */\n      swap4\n      pop\n        /* \"#utility.yul\":7841:7958   */\n      pop\n        /* \"#utility.yul\":7997:7999   */\n      0x20\n        /* \"#utility.yul\":8023:8076   */\n      tag_379\n        /* \"#utility.yul\":8068:8075   */\n      dup7\n        /* \"#utility.yul\":8059:8065   */\n      dup3\n        /* \"#utility.yul\":8048:8057   */\n      dup8\n        /* \"#utility.yul\":8044:8066   */\n      add\n        /* \"#utility.yul\":8023:8076   */\n      tag_238\n      jump\t// in\n    tag_379:\n        /* \"#utility.yul\":8013:8076   */\n      swap3\n      pop\n        /* \"#utility.yul\":7968:8086   */\n      pop\n        /* \"#utility.yul\":8125:8127   */\n      0x40\n        /* \"#utility.yul\":8151:8204   */\n      tag_380\n        /* \"#utility.yul\":8196:8203   */\n      dup7\n        /* \"#utility.yul\":8187:8193   */\n      dup3\n        /* \"#utility.yul\":8176:8185   */\n      dup8\n        /* \"#utility.yul\":8172:8194   */\n      add\n        /* \"#utility.yul\":8151:8204   */\n      tag_252\n      jump\t// in\n    tag_380:\n        /* \"#utility.yul\":8141:8204   */\n      swap2\n      pop\n        /* \"#utility.yul\":8096:8214   */\n      pop\n        /* \"#utility.yul\":7602:8221   */\n      swap3\n      pop\n      swap3\n      pop\n      swap3\n      jump\t// out\n        /* \"#utility.yul\":8227:8407   */\n    tag_55:\n        /* \"#utility.yul\":8275:8352   */\n      0x4e487b7100000000000000000000000000000000000000000000000000000000\n        /* \"#utility.yul\":8272:8273   */\n      0x00\n        /* \"#utility.yul\":8265:8353   */\n      mstore\n        /* \"#utility.yul\":8372:8376   */\n      0x32\n        /* \"#utility.yul\":8369:8370   */\n      0x04\n        /* \"#utility.yul\":8362:8377   */\n      mstore\n        /* \"#utility.yul\":8396:8400   */\n      0x24\n        /* \"#utility.yul\":8393:8394   */\n      0x00\n        /* \"#utility.yul\":8386:8401   */\n      revert\n        /* \"#utility.yul\":8413:8582   */\n    tag_253:\n        /* \"#utility.yul\":8497:8508   */\n      0x00\n        /* \"#utility.yul\":8531:8537   */\n      dup3\n        /* \"#utility.yul\":8526:8529   */\n      dup3\n        /* \"#utility.yul\":8519:8538   */\n      mstore\n        /* \"#utility.yul\":8571:8575   */\n      0x20\n        /* \"#utility.yul\":8566:8569   */\n      dup3\n        /* \"#utility.yul\":8562:8576   */\n      add\n        /* \"#utility.yul\":8547:8576   */\n      swap1\n      pop\n        /* \"#utility.yul\":8413:8582   */\n      swap3\n      swap2\n      pop\n      pop\n      jump\t// out\n        /* \"#utility.yul\":8588:8826   */\n    tag_254:\n        /* \"#utility.yul\":8728:8762   */\n      0x4170656e6173206f206f776e657220706f6465207265616c697a617220612063\n        /* \"#utility.yul\":8724:8725   */\n      0x00\n        /* \"#utility.yul\":8716:8722   */\n      dup3\n        /* \"#utility.yul\":8712:8726   */\n      add\n        /* \"#utility.yul\":8705:8763   */\n      mstore\n        /* \"#utility.yul\":8797:8818   */\n      0x68616d6164612064657373612066756e63616f00000000000000000000000000\n        /* \"#utility.yul\":8792:8794   */\n      0x20\n        /* \"#utility.yul\":8784:8790   */\n      dup3\n        /* \"#utility.yul\":8780:8795   */\n      add\n        /* \"#utility.yul\":8773:8819   */\n      mstore\n        /* \"#utility.yul\":8588:8826   */\n      pop\n      jump\t// out\n        /* \"#utility.yul\":8832:9198   */\n    tag_255:\n        /* \"#utility.yul\":8974:8977   */\n      0x00\n        /* \"#utility.yul\":8995:9062   */\n      tag_385\n        /* \"#utility.yul\":9059:9061   */\n      0x33\n        /* \"#utility.yul\":9054:9057   */\n      dup4\n        /* \"#utility.yul\":8995:9062   */\n      tag_253\n      jump\t// in\n    tag_385:\n        /* \"#utility.yul\":8988:9062   */\n      swap2\n      pop\n        /* \"#utility.yul\":9071:9164   */\n      tag_386\n        /* \"#utility.yul\":9160:9163   */\n      dup3\n        /* \"#utility.yul\":9071:9164   */\n      tag_254\n      jump\t// in\n    tag_386:\n        /* \"#utility.yul\":9189:9191   */\n      0x40\n        /* \"#utility.yul\":9184:9187   */\n      dup3\n        /* \"#utility.yul\":9180:9192   */\n      add\n        /* \"#utility.yul\":9173:9192   */\n      swap1\n      pop\n        /* \"#utility.yul\":8832:9198   */\n      swap2\n      swap1\n      pop\n      jump\t// out\n        /* \"#utility.yul\":9204:9623   */\n    tag_62:\n        /* \"#utility.yul\":9370:9374   */\n      0x00\n        /* \"#utility.yul\":9408:9410   */\n      0x20\n        /* \"#utility.yul\":9397:9406   */\n      dup3\n        /* \"#utility.yul\":9393:9411   */\n      add\n        /* \"#utility.yul\":9385:9411   */\n      swap1\n      pop\n        /* \"#utility.yul\":9457:9466   */\n      dup2\n        /* \"#utility.yul\":9451:9455   */\n      dup2\n        /* \"#utility.yul\":9447:9467   */\n      sub\n        /* \"#utility.yul\":9443:9444   */\n      0x00\n        /* \"#utility.yul\":9432:9441   */\n      dup4\n        /* \"#utility.yul\":9428:9445   */\n      add\n        /* \"#utility.yul\":9421:9468   */\n      mstore\n        /* \"#utility.yul\":9485:9616   */\n      tag_388\n        /* \"#utility.yul\":9611:9615   */\n      dup2\n        /* \"#utility.yul\":9485:9616   */\n      tag_255\n      jump\t// in\n    tag_388:\n        /* \"#utility.yul\":9477:9616   */\n      swap1\n      pop\n        /* \"#utility.yul\":9204:9623   */\n      swap2\n      swap1\n      pop\n      jump\t// out\n        /* \"#utility.yul\":9629:9805   */\n    tag_256:\n        /* \"#utility.yul\":9769:9797   */\n      0x4f20526166666c65206a6120666f692066696e616c697a61646f000000000000\n        /* \"#utility.yul\":9765:9766   */\n      0x00\n        /* \"#utility.yul\":9757:9763   */\n      dup3\n        /* \"#utility.yul\":9753:9767   */\n      add\n        /* \"#utility.yul\":9746:9798   */\n      mstore\n        /* \"#utility.yul\":9629:9805   */\n      pop\n      jump\t// out\n        /* \"#utility.yul\":9811:10177   */\n    tag_257:\n        /* \"#utility.yul\":9953:9956   */\n      0x00\n        /* \"#utility.yul\":9974:10041   */\n      tag_391\n        /* \"#utility.yul\":10038:10040   */\n      0x1a\n        /* \"#utility.yul\":10033:10036   */\n      dup4\n        /* \"#utility.yul\":9974:10041   */\n      tag_253\n      jump\t// in\n    tag_391:\n        /* \"#utility.yul\":9967:10041   */\n      swap2\n      pop\n        /* \"#utility.yul\":10050:10143   */\n      tag_392\n        /* \"#utility.yul\":10139:10142   */\n      dup3\n        /* \"#utility.yul\":10050:10143   */\n      tag_256\n      jump\t// in\n    tag_392:\n        /* \"#utility.yul\":10168:10170   */\n      0x20\n        /* \"#utility.yul\":10163:10166   */\n      dup3\n        /* \"#utility.yul\":10159:10171   */\n      add\n        /* \"#utility.yul\":10152:10171   */\n      swap1\n      pop\n        /* \"#utility.yul\":9811:10177   */\n      swap2\n      swap1\n      pop\n      jump\t// out\n        /* \"#utility.yul\":10183:10602   */\n    tag_78:\n        /* \"#utility.yul\":10349:10353   */\n      0x00\n        /* \"#utility.yul\":10387:10389   */\n      0x20\n        /* \"#utility.yul\":10376:10385   */\n      dup3\n        /* \"#utility.yul\":10372:10390   */\n      add\n        /* \"#utility.yul\":10364:10390   */\n      swap1\n      pop\n        /* \"#utility.yul\":10436:10445   */\n      dup2\n        /* \"#utility.yul\":10430:10434   */\n      dup2\n        /* \"#utility.yul\":10426:10446   */\n      sub\n        /* \"#utility.yul\":10422:10423   */\n      0x00\n        /* \"#utility.yul\":10411:10420   */\n      dup4\n        /* \"#utility.yul\":10407:10424   */\n      add\n        /* \"#utility.yul\":10400:10447   */\n      mstore\n        /* \"#utility.yul\":10464:10595   */\n      tag_394\n        /* \"#utility.yul\":10590:10594   */\n      dup2\n        /* \"#utility.yul\":10464:10595   */\n      tag_257\n      jump\t// in\n    tag_394:\n        /* \"#utility.yul\":10456:10595   */\n      swap1\n      pop\n        /* \"#utility.yul\":10183:10602   */\n      swap2\n      swap1\n      pop\n      jump\t// out\n        /* \"#utility.yul\":10608:10830   */\n    tag_258:\n        /* \"#utility.yul\":10748:10782   */\n      0x5175616e746964616465206465207469636b65747320696e737566696369656e\n        /* \"#utility.yul\":10744:10745   */\n      0x00\n        /* \"#utility.yul\":10736:10742   */\n      dup3\n        /* \"#utility.yul\":10732:10746   */\n      add\n        /* \"#utility.yul\":10725:10783   */\n      mstore\n        /* \"#utility.yul\":10817:10822   */\n      0x7465730000000000000000000000000000000000000000000000000000000000\n        /* \"#utility.yul\":10812:10814   */\n      0x20\n        /* \"#utility.yul\":10804:10810   */\n      dup3\n        /* \"#utility.yul\":10800:10815   */\n      add\n        /* \"#utility.yul\":10793:10823   */\n      mstore\n        /* \"#utility.yul\":10608:10830   */\n      pop\n      jump\t// out\n        /* \"#utility.yul\":10836:11202   */\n    tag_259:\n        /* \"#utility.yul\":10978:10981   */\n      0x00\n        /* \"#utility.yul\":10999:11066   */\n      tag_397\n        /* \"#utility.yul\":11063:11065   */\n      0x23\n        /* \"#utility.yul\":11058:11061   */\n      dup4\n        /* \"#utility.yul\":10999:11066   */\n      tag_253\n      jump\t// in\n    tag_397:\n        /* \"#utility.yul\":10992:11066   */\n      swap2\n      pop\n        /* \"#utility.yul\":11075:11168   */\n      tag_398\n        /* \"#utility.yul\":11164:11167   */\n      dup3\n        /* \"#utility.yul\":11075:11168   */\n      tag_258\n      jump\t// in\n    tag_398:\n        /* \"#utility.yul\":11193:11195   */\n      0x40\n        /* \"#utility.yul\":11188:11191   */\n      dup3\n        /* \"#utility.yul\":11184:11196   */\n      add\n        /* \"#utility.yul\":11177:11196   */\n      swap1\n      pop\n        /* \"#utility.yul\":10836:11202   */\n      swap2\n      swap1\n      pop\n      jump\t// out\n        /* \"#utility.yul\":11208:11627   */\n    tag_81:\n        /* \"#utility.yul\":11374:11378   */\n      0x00\n        /* \"#utility.yul\":11412:11414   */\n      0x20\n        /* \"#utility.yul\":11401:11410   */\n      dup3\n        /* \"#utility.yul\":11397:11415   */\n      add\n        /* \"#utility.yul\":11389:11415   */\n      swap1\n      pop\n        /* \"#utility.yul\":11461:11470   */\n      dup2\n        /* \"#utility.yul\":11455:11459   */\n      dup2\n        /* \"#utility.yul\":11451:11471   */\n      sub\n        /* \"#utility.yul\":11447:11448   */\n      0x00\n        /* \"#utility.yul\":11436:11445   */\n      dup4\n        /* \"#utility.yul\":11432:11449   */\n      add\n        /* \"#utility.yul\":11425:11472   */\n      mstore\n        /* \"#utility.yul\":11489:11620   */\n      tag_400\n        /* \"#utility.yul\":11615:11619   */\n      dup2\n        /* \"#utility.yul\":11489:11620   */\n      tag_259\n      jump\t// in\n    tag_400:\n        /* \"#utility.yul\":11481:11620   */\n      swap1\n      pop\n        /* \"#utility.yul\":11208:11627   */\n      swap2\n      swap1\n      pop\n      jump\t// out\n        /* \"#utility.yul\":11633:11813   */\n    tag_260:\n        /* \"#utility.yul\":11681:11758   */\n      0x4e487b7100000000000000000000000000000000000000000000000000000000\n        /* \"#utility.yul\":11678:11679   */\n      0x00\n        /* \"#utility.yul\":11671:11759   */\n      mstore\n        /* \"#utility.yul\":11778:11782   */\n      0x11\n        /* \"#utility.yul\":11775:11776   */\n      0x04\n        /* \"#utility.yul\":11768:11783   */\n      mstore\n        /* \"#utility.yul\":11802:11806   */\n      0x24\n        /* \"#utility.yul\":11799:11800   */\n      0x00\n        /* \"#utility.yul\":11792:11807   */\n      revert\n        /* \"#utility.yul\":11819:12013   */\n    tag_84:\n        /* \"#utility.yul\":11859:11863   */\n      0x00\n        /* \"#utility.yul\":11879:11899   */\n      tag_403\n        /* \"#utility.yul\":11897:11898   */\n      dup3\n        /* \"#utility.yul\":11879:11899   */\n      tag_236\n      jump\t// in\n    tag_403:\n        /* \"#utility.yul\":11874:11899   */\n      swap2\n      pop\n        /* \"#utility.yul\":11913:11933   */\n      tag_404\n        /* \"#utility.yul\":11931:11932   */\n      dup4\n        /* \"#utility.yul\":11913:11933   */\n      tag_236\n      jump\t// in\n    tag_404:\n        /* \"#utility.yul\":11908:11933   */\n      swap3\n      pop\n        /* \"#utility.yul\":11957:11958   */\n      dup3\n        /* \"#utility.yul\":11954:11955   */\n      dup3\n        /* \"#utility.yul\":11950:11959   */\n      sub\n        /* \"#utility.yul\":11942:11959   */\n      swap1\n      pop\n        /* \"#utility.yul\":11981:11982   */\n      dup2\n        /* \"#utility.yul\":11975:11979   */\n      dup2\n        /* \"#utility.yul\":11972:11983   */\n      gt\n        /* \"#utility.yul\":11969:12006   */\n      iszero\n      tag_405\n      jumpi\n        /* \"#utility.yul\":11986:12004   */\n      tag_406\n      tag_260\n      jump\t// in\n    tag_406:\n        /* \"#utility.yul\":11969:12006   */\n    tag_405:\n        /* \"#utility.yul\":11819:12013   */\n      swap3\n      swap2\n      pop\n      pop\n      jump\t// out\n        /* \"#utility.yul\":12019:12170   */\n    tag_261:\n        /* \"#utility.yul\":12159:12162   */\n      0x2000000000000000000000000000000000000000000000000000000000000000\n        /* \"#utility.yul\":12155:12156   */\n      0x00\n        /* \"#utility.yul\":12147:12153   */\n      dup3\n        /* \"#utility.yul\":12143:12157   */\n      add\n        /* \"#utility.yul\":12136:12163   */\n      mstore\n        /* \"#utility.yul\":12019:12170   */\n      pop\n      jump\t// out\n        /* \"#utility.yul\":12176:12541   */\n    tag_262:\n        /* \"#utility.yul\":12318:12321   */\n      0x00\n        /* \"#utility.yul\":12339:12405   */\n      tag_409\n        /* \"#utility.yul\":12403:12404   */\n      0x01\n        /* \"#utility.yul\":12398:12401   */\n      dup4\n        /* \"#utility.yul\":12339:12405   */\n      tag_253\n      jump\t// in\n    tag_409:\n        /* \"#utility.yul\":12332:12405   */\n      swap2\n      pop\n        /* \"#utility.yul\":12414:12507   */\n      tag_410\n        /* \"#utility.yul\":12503:12506   */\n      dup3\n        /* \"#utility.yul\":12414:12507   */\n      tag_261\n      jump\t// in\n    tag_410:\n        /* \"#utility.yul\":12532:12534   */\n      0x20\n        /* \"#utility.yul\":12527:12530   */\n      dup3\n        /* \"#utility.yul\":12523:12535   */\n      add\n        /* \"#utility.yul\":12516:12535   */\n      swap1\n      pop\n        /* \"#utility.yul\":12176:12541   */\n      swap2\n      swap1\n      pop\n      jump\t// out\n        /* \"#utility.yul\":12547:12966   */\n    tag_101:\n        /* \"#utility.yul\":12713:12717   */\n      0x00\n        /* \"#utility.yul\":12751:12753   */\n      0x20\n        /* \"#utility.yul\":12740:12749   */\n      dup3\n        /* \"#utility.yul\":12736:12754   */\n      add\n        /* \"#utility.yul\":12728:12754   */\n      swap1\n      pop\n        /* \"#utility.yul\":12800:12809   */\n      dup2\n        /* \"#utility.yul\":12794:12798   */\n      dup2\n        /* \"#utility.yul\":12790:12810   */\n      sub\n        /* \"#utility.yul\":12786:12787   */\n      0x00\n        /* \"#utility.yul\":12775:12784   */\n      dup4\n        /* \"#utility.yul\":12771:12788   */\n      add\n        /* \"#utility.yul\":12764:12811   */\n      mstore\n        /* \"#utility.yul\":12828:12959   */\n      tag_412\n        /* \"#utility.yul\":12954:12958   */\n      dup2\n        /* \"#utility.yul\":12828:12959   */\n      tag_262\n      jump\t// in\n    tag_412:\n        /* \"#utility.yul\":12820:12959   */\n      swap1\n      pop\n        /* \"#utility.yul\":12547:12966   */\n      swap2\n      swap1\n      pop\n      jump\t// out\n        /* \"#utility.yul\":12972:13414   */\n    tag_114:\n        /* \"#utility.yul\":13121:13125   */\n      0x00\n        /* \"#utility.yul\":13159:13161   */\n      0x60\n        /* \"#utility.yul\":13148:13157   */\n      dup3\n        /* \"#utility.yul\":13144:13162   */\n      add\n        /* \"#utility.yul\":13136:13162   */\n      swap1\n      pop\n        /* \"#utility.yul\":13172:13243   */\n      tag_414\n        /* \"#utility.yul\":13240:13241   */\n      0x00\n        /* \"#utility.yul\":13229:13238   */\n      dup4\n        /* \"#utility.yul\":13225:13242   */\n      add\n        /* \"#utility.yul\":13216:13222   */\n      dup7\n        /* \"#utility.yul\":13172:13243   */\n      tag_242\n      jump\t// in\n    tag_414:\n        /* \"#utility.yul\":13253:13325   */\n      tag_415\n        /* \"#utility.yul\":13321:13323   */\n      0x20\n        /* \"#utility.yul\":13310:13319   */\n      dup4\n        /* \"#utility.yul\":13306:13324   */\n      add\n        /* \"#utility.yul\":13297:13303   */\n      dup6\n        /* \"#utility.yul\":13253:13325   */\n      tag_242\n      jump\t// in\n    tag_415:\n        /* \"#utility.yul\":13335:13407   */\n      tag_416\n        /* \"#utility.yul\":13403:13405   */\n      0x40\n        /* \"#utility.yul\":13392:13401   */\n      dup4\n        /* \"#utility.yul\":13388:13406   */\n      add\n        /* \"#utility.yul\":13379:13385   */\n      dup5\n        /* \"#utility.yul\":13335:13407   */\n      tag_239\n      jump\t// in\n    tag_416:\n        /* \"#utility.yul\":12972:13414   */\n      swap5\n      swap4\n      pop\n      pop\n      pop\n      pop\n      jump\t// out\n        /* \"#utility.yul\":13420:13573   */\n    tag_263:\n        /* \"#utility.yul\":13560:13565   */\n      0x2041200000000000000000000000000000000000000000000000000000000000\n        /* \"#utility.yul\":13556:13557   */\n      0x00\n        /* \"#utility.yul\":13548:13554   */\n      dup3\n        /* \"#utility.yul\":13544:13558   */\n      add\n        /* \"#utility.yul\":13537:13566   */\n      mstore\n        /* \"#utility.yul\":13420:13573   */\n      pop\n      jump\t// out\n        /* \"#utility.yul\":13579:13944   */\n    tag_264:\n        /* \"#utility.yul\":13721:13724   */\n      0x00\n        /* \"#utility.yul\":13742:13808   */\n      tag_419\n        /* \"#utility.yul\":13806:13807   */\n      0x03\n        /* \"#utility.yul\":13801:13804   */\n      dup4\n        /* \"#utility.yul\":13742:13808   */\n      tag_253\n      jump\t// in\n    tag_419:\n        /* \"#utility.yul\":13735:13808   */\n      swap2\n      pop\n        /* \"#utility.yul\":13817:13910   */\n      tag_420\n        /* \"#utility.yul\":13906:13909   */\n      dup3\n        /* \"#utility.yul\":13817:13910   */\n      tag_263\n      jump\t// in\n    tag_420:\n        /* \"#utility.yul\":13935:13937   */\n      0x20\n        /* \"#utility.yul\":13930:13933   */\n      dup3\n        /* \"#utility.yul\":13926:13938   */\n      add\n        /* \"#utility.yul\":13919:13938   */\n      swap1\n      pop\n        /* \"#utility.yul\":13579:13944   */\n      swap2\n      swap1\n      pop\n      jump\t// out\n        /* \"#utility.yul\":13950:14369   */\n    tag_123:\n        /* \"#utility.yul\":14116:14120   */\n      0x00\n        /* \"#utility.yul\":14154:14156   */\n      0x20\n        /* \"#utility.yul\":14143:14152   */\n      dup3\n        /* \"#utility.yul\":14139:14157   */\n      add\n        /* \"#utility.yul\":14131:14157   */\n      swap1\n      pop\n        /* \"#utility.yul\":14203:14212   */\n      dup2\n        /* \"#utility.yul\":14197:14201   */\n      dup2\n        /* \"#utility.yul\":14193:14213   */\n      sub\n        /* \"#utility.yul\":14189:14190   */\n      0x00\n        /* \"#utility.yul\":14178:14187   */\n      dup4\n        /* \"#utility.yul\":14174:14191   */\n      add\n        /* \"#utility.yul\":14167:14214   */\n      mstore\n        /* \"#utility.yul\":14231:14362   */\n      tag_422\n        /* \"#utility.yul\":14357:14361   */\n      dup2\n        /* \"#utility.yul\":14231:14362   */\n      tag_264\n      jump\t// in\n    tag_422:\n        /* \"#utility.yul\":14223:14362   */\n      swap1\n      pop\n        /* \"#utility.yul\":13950:14369   */\n      swap2\n      swap1\n      pop\n      jump\t// out\n        /* \"#utility.yul\":14375:14528   */\n    tag_265:\n        /* \"#utility.yul\":14515:14520   */\n      0x2042200000000000000000000000000000000000000000000000000000000000\n        /* \"#utility.yul\":14511:14512   */\n      0x00\n        /* \"#utility.yul\":14503:14509   */\n      dup3\n        /* \"#utility.yul\":14499:14513   */\n      add\n        /* \"#utility.yul\":14492:14521   */\n      mstore\n        /* \"#utility.yul\":14375:14528   */\n      pop\n      jump\t// out\n        /* \"#utility.yul\":14534:14899   */\n    tag_266:\n        /* \"#utility.yul\":14676:14679   */\n      0x00\n        /* \"#utility.yul\":14697:14763   */\n      tag_425\n        /* \"#utility.yul\":14761:14762   */\n      0x03\n        /* \"#utility.yul\":14756:14759   */\n      dup4\n        /* \"#utility.yul\":14697:14763   */\n      tag_253\n      jump\t// in\n    tag_425:\n        /* \"#utility.yul\":14690:14763   */\n      swap2\n      pop\n        /* \"#utility.yul\":14772:14865   */\n      tag_426\n        /* \"#utility.yul\":14861:14864   */\n      dup3\n        /* \"#utility.yul\":14772:14865   */\n      tag_265\n      jump\t// in\n    tag_426:\n        /* \"#utility.yul\":14890:14892   */\n      0x20\n        /* \"#utility.yul\":14885:14888   */\n      dup3\n        /* \"#utility.yul\":14881:14893   */\n      add\n        /* \"#utility.yul\":14874:14893   */\n      swap1\n      pop\n        /* \"#utility.yul\":14534:14899   */\n      swap2\n      swap1\n      pop\n      jump\t// out\n        /* \"#utility.yul\":14905:15324   */\n    tag_126:\n        /* \"#utility.yul\":15071:15075   */\n      0x00\n        /* \"#utility.yul\":15109:15111   */\n      0x20\n        /* \"#utility.yul\":15098:15107   */\n      dup3\n        /* \"#utility.yul\":15094:15112   */\n      add\n        /* \"#utility.yul\":15086:15112   */\n      swap1\n      pop\n        /* \"#utility.yul\":15158:15167   */\n      dup2\n        /* \"#utility.yul\":15152:15156   */\n      dup2\n        /* \"#utility.yul\":15148:15168   */\n      sub\n        /* \"#utility.yul\":15144:15145   */\n      0x00\n        /* \"#utility.yul\":15133:15142   */\n      dup4\n        /* \"#utility.yul\":15129:15146   */\n      add\n        /* \"#utility.yul\":15122:15169   */\n      mstore\n        /* \"#utility.yul\":15186:15317   */\n      tag_428\n        /* \"#utility.yul\":15312:15316   */\n      dup2\n        /* \"#utility.yul\":15186:15317   */\n      tag_266\n      jump\t// in\n    tag_428:\n        /* \"#utility.yul\":15178:15317   */\n      swap1\n      pop\n        /* \"#utility.yul\":14905:15324   */\n      swap2\n      swap1\n      pop\n      jump\t// out\n        /* \"#utility.yul\":15330:15483   */\n    tag_267:\n        /* \"#utility.yul\":15470:15475   */\n      0x2043200000000000000000000000000000000000000000000000000000000000\n        /* \"#utility.yul\":15466:15467   */\n      0x00\n        /* \"#utility.yul\":15458:15464   */\n      dup3\n        /* \"#utility.yul\":15454:15468   */\n      add\n        /* \"#utility.yul\":15447:15476   */\n      mstore\n        /* \"#utility.yul\":15330:15483   */\n      pop\n      jump\t// out\n        /* \"#utility.yul\":15489:15854   */\n    tag_268:\n        /* \"#utility.yul\":15631:15634   */\n      0x00\n        /* \"#utility.yul\":15652:15718   */\n      tag_431\n        /* \"#utility.yul\":15716:15717   */\n      0x03\n        /* \"#utility.yul\":15711:15714   */\n      dup4\n        /* \"#utility.yul\":15652:15718   */\n      tag_253\n      jump\t// in\n    tag_431:\n        /* \"#utility.yul\":15645:15718   */\n      swap2\n      pop\n        /* \"#utility.yul\":15727:15820   */\n      tag_432\n        /* \"#utility.yul\":15816:15819   */\n      dup3\n        /* \"#utility.yul\":15727:15820   */\n      tag_267\n      jump\t// in\n    tag_432:\n        /* \"#utility.yul\":15845:15847   */\n      0x20\n        /* \"#utility.yul\":15840:15843   */\n      dup3\n        /* \"#utility.yul\":15836:15848   */\n      add\n        /* \"#utility.yul\":15829:15848   */\n      swap1\n      pop\n        /* \"#utility.yul\":15489:15854   */\n      swap2\n      swap1\n      pop\n      jump\t// out\n        /* \"#utility.yul\":15860:16279   */\n    tag_129:\n        /* \"#utility.yul\":16026:16030   */\n      0x00\n        /* \"#utility.yul\":16064:16066   */\n      0x20\n        /* \"#utility.yul\":16053:16062   */\n      dup3\n        /* \"#utility.yul\":16049:16067   */\n      add\n        /* \"#utility.yul\":16041:16067   */\n      swap1\n      pop\n        /* \"#utility.yul\":16113:16122   */\n      dup2\n        /* \"#utility.yul\":16107:16111   */\n      dup2\n        /* \"#utility.yul\":16103:16123   */\n      sub\n        /* \"#utility.yul\":16099:16100   */\n      0x00\n        /* \"#utility.yul\":16088:16097   */\n      dup4\n        /* \"#utility.yul\":16084:16101   */\n      add\n        /* \"#utility.yul\":16077:16124   */\n      mstore\n        /* \"#utility.yul\":16141:16272   */\n      tag_434\n        /* \"#utility.yul\":16267:16271   */\n      dup2\n        /* \"#utility.yul\":16141:16272   */\n      tag_268\n      jump\t// in\n    tag_434:\n        /* \"#utility.yul\":16133:16272   */\n      swap1\n      pop\n        /* \"#utility.yul\":15860:16279   */\n      swap2\n      swap1\n      pop\n      jump\t// out\n        /* \"#utility.yul\":16285:16438   */\n    tag_269:\n        /* \"#utility.yul\":16425:16430   */\n      0x2044200000000000000000000000000000000000000000000000000000000000\n        /* \"#utility.yul\":16421:16422   */\n      0x00\n        /* \"#utility.yul\":16413:16419   */\n      dup3\n        /* \"#utility.yul\":16409:16423   */\n      add\n        /* \"#utility.yul\":16402:16431   */\n      mstore\n        /* \"#utility.yul\":16285:16438   */\n      pop\n      jump\t// out\n        /* \"#utility.yul\":16444:16809   */\n    tag_270:\n        /* \"#utility.yul\":16586:16589   */\n      0x00\n        /* \"#utility.yul\":16607:16673   */\n      tag_437\n        /* \"#utility.yul\":16671:16672   */\n      0x03\n        /* \"#utility.yul\":16666:16669   */\n      dup4\n        /* \"#utility.yul\":16607:16673   */\n      tag_253\n      jump\t// in\n    tag_437:\n        /* \"#utility.yul\":16600:16673   */\n      swap2\n      pop\n        /* \"#utility.yul\":16682:16775   */\n      tag_438\n        /* \"#utility.yul\":16771:16774   */\n      dup3\n        /* \"#utility.yul\":16682:16775   */\n      tag_269\n      jump\t// in\n    tag_438:\n        /* \"#utility.yul\":16800:16802   */\n      0x20\n        /* \"#utility.yul\":16795:16798   */\n      dup3\n        /* \"#utility.yul\":16791:16803   */\n      add\n        /* \"#utility.yul\":16784:16803   */\n      swap1\n      pop\n        /* \"#utility.yul\":16444:16809   */\n      swap2\n      swap1\n      pop\n      jump\t// out\n        /* \"#utility.yul\":16815:17234   */\n    tag_132:\n        /* \"#utility.yul\":16981:16985   */\n      0x00\n        /* \"#utility.yul\":17019:17021   */\n      0x20\n        /* \"#utility.yul\":17008:17017   */\n      dup3\n        /* \"#utility.yul\":17004:17022   */\n      add\n        /* \"#utility.yul\":16996:17022   */\n      swap1\n      pop\n        /* \"#utility.yul\":17068:17077   */\n      dup2\n        /* \"#utility.yul\":17062:17066   */\n      dup2\n        /* \"#utility.yul\":17058:17078   */\n      sub\n        /* \"#utility.yul\":17054:17055   */\n      0x00\n        /* \"#utility.yul\":17043:17052   */\n      dup4\n        /* \"#utility.yul\":17039:17056   */\n      add\n        /* \"#utility.yul\":17032:17079   */\n      mstore\n        /* \"#utility.yul\":17096:17227   */\n      tag_440\n        /* \"#utility.yul\":17222:17226   */\n      dup2\n        /* \"#utility.yul\":17096:17227   */\n      tag_270\n      jump\t// in\n    tag_440:\n        /* \"#utility.yul\":17088:17227   */\n      swap1\n      pop\n        /* \"#utility.yul\":16815:17234   */\n      swap2\n      swap1\n      pop\n      jump\t// out\n        /* \"#utility.yul\":17240:17393   */\n    tag_271:\n        /* \"#utility.yul\":17380:17385   */\n      0x2045200000000000000000000000000000000000000000000000000000000000\n        /* \"#utility.yul\":17376:17377   */\n      0x00\n        /* \"#utility.yul\":17368:17374   */\n      dup3\n        /* \"#utility.yul\":17364:17378   */\n      add\n        /* \"#utility.yul\":17357:17386   */\n      mstore\n        /* \"#utility.yul\":17240:17393   */\n      pop\n      jump\t// out\n        /* \"#utility.yul\":17399:17764   */\n    tag_272:\n        /* \"#utility.yul\":17541:17544   */\n      0x00\n        /* \"#utility.yul\":17562:17628   */\n      tag_443\n        /* \"#utility.yul\":17626:17627   */\n      0x03\n        /* \"#utility.yul\":17621:17624   */\n      dup4\n        /* \"#utility.yul\":17562:17628   */\n      tag_253\n      jump\t// in\n    tag_443:\n        /* \"#utility.yul\":17555:17628   */\n      swap2\n      pop\n        /* \"#utility.yul\":17637:17730   */\n      tag_444\n        /* \"#utility.yul\":17726:17729   */\n      dup3\n        /* \"#utility.yul\":17637:17730   */\n      tag_271\n      jump\t// in\n    tag_444:\n        /* \"#utility.yul\":17755:17757   */\n      0x20\n        /* \"#utility.yul\":17750:17753   */\n      dup3\n        /* \"#utility.yul\":17746:17758   */\n      add\n        /* \"#utility.yul\":17739:17758   */\n      swap1\n      pop\n        /* \"#utility.yul\":17399:17764   */\n      swap2\n      swap1\n      pop\n      jump\t// out\n        /* \"#utility.yul\":17770:18189   */\n    tag_135:\n        /* \"#utility.yul\":17936:17940   */\n      0x00\n        /* \"#utility.yul\":17974:17976   */\n      0x20\n        /* \"#utility.yul\":17963:17972   */\n      dup3\n        /* \"#utility.yul\":17959:17977   */\n      add\n        /* \"#utility.yul\":17951:17977   */\n      swap1\n      pop\n        /* \"#utility.yul\":18023:18032   */\n      dup2\n        /* \"#utility.yul\":18017:18021   */\n      dup2\n        /* \"#utility.yul\":18013:18033   */\n      sub\n        /* \"#utility.yul\":18009:18010   */\n      0x00\n        /* \"#utility.yul\":17998:18007   */\n      dup4\n        /* \"#utility.yul\":17994:18011   */\n      add\n        /* \"#utility.yul\":17987:18034   */\n      mstore\n        /* \"#utility.yul\":18051:18182   */\n      tag_446\n        /* \"#utility.yul\":18177:18181   */\n      dup2\n        /* \"#utility.yul\":18051:18182   */\n      tag_272\n      jump\t// in\n    tag_446:\n        /* \"#utility.yul\":18043:18182   */\n      swap1\n      pop\n        /* \"#utility.yul\":17770:18189   */\n      swap2\n      swap1\n      pop\n      jump\t// out\n        /* \"#utility.yul\":18195:18348   */\n    tag_273:\n        /* \"#utility.yul\":18335:18340   */\n      0x2046200000000000000000000000000000000000000000000000000000000000\n        /* \"#utility.yul\":18331:18332   */\n      0x00\n        /* \"#utility.yul\":18323:18329   */\n      dup3\n        /* \"#utility.yul\":18319:18333   */\n      add\n        /* \"#utility.yul\":18312:18341   */\n      mstore\n        /* \"#utility.yul\":18195:18348   */\n      pop\n      jump\t// out\n        /* \"#utility.yul\":18354:18719   */\n    tag_274:\n        /* \"#utility.yul\":18496:18499   */\n      0x00\n        /* \"#utility.yul\":18517:18583   */\n      tag_449\n        /* \"#utility.yul\":18581:18582   */\n      0x03\n        /* \"#utility.yul\":18576:18579   */\n      dup4\n        /* \"#utility.yul\":18517:18583   */\n      tag_253\n      jump\t// in\n    tag_449:\n        /* \"#utility.yul\":18510:18583   */\n      swap2\n      pop\n        /* \"#utility.yul\":18592:18685   */\n      tag_450\n        /* \"#utility.yul\":18681:18684   */\n      dup3\n        /* \"#utility.yul\":18592:18685   */\n      tag_273\n      jump\t// in\n    tag_450:\n        /* \"#utility.yul\":18710:18712   */\n      0x20\n        /* \"#utility.yul\":18705:18708   */\n      dup3\n        /* \"#utility.yul\":18701:18713   */\n      add\n        /* \"#utility.yul\":18694:18713   */\n      swap1\n      pop\n        /* \"#utility.yul\":18354:18719   */\n      swap2\n      swap1\n      pop\n      jump\t// out\n        /* \"#utility.yul\":18725:19144   */\n    tag_138:\n        /* \"#utility.yul\":18891:18895   */\n      0x00\n        /* \"#utility.yul\":18929:18931   */\n      0x20\n        /* \"#utility.yul\":18918:18927   */\n      dup3\n        /* \"#utility.yul\":18914:18932   */\n      add\n        /* \"#utility.yul\":18906:18932   */\n      swap1\n      pop\n        /* \"#utility.yul\":18978:18987   */\n      dup2\n        /* \"#utility.yul\":18972:18976   */\n      dup2\n        /* \"#utility.yul\":18968:18988   */\n      sub\n        /* \"#utility.yul\":18964:18965   */\n      0x00\n        /* \"#utility.yul\":18953:18962   */\n      dup4\n        /* \"#utility.yul\":18949:18966   */\n      add\n        /* \"#utility.yul\":18942:18989   */\n      mstore\n        /* \"#utility.yul\":19006:19137   */\n      tag_452\n        /* \"#utility.yul\":19132:19136   */\n      dup2\n        /* \"#utility.yul\":19006:19137   */\n      tag_274\n      jump\t// in\n    tag_452:\n        /* \"#utility.yul\":18998:19137   */\n      swap1\n      pop\n        /* \"#utility.yul\":18725:19144   */\n      swap2\n      swap1\n      pop\n      jump\t// out\n        /* \"#utility.yul\":19150:19316   */\n    tag_275:\n        /* \"#utility.yul\":19290:19308   */\n      0x71746420696e646973706f6e6976656c00000000000000000000000000000000\n        /* \"#utility.yul\":19286:19287   */\n      0x00\n        /* \"#utility.yul\":19278:19284   */\n      dup3\n        /* \"#utility.yul\":19274:19288   */\n      add\n        /* \"#utility.yul\":19267:19309   */\n      mstore\n        /* \"#utility.yul\":19150:19316   */\n      pop\n      jump\t// out\n        /* \"#utility.yul\":19322:19688   */\n    tag_276:\n        /* \"#utility.yul\":19464:19467   */\n      0x00\n        /* \"#utility.yul\":19485:19552   */\n      tag_455\n        /* \"#utility.yul\":19549:19551   */\n      0x10\n        /* \"#utility.yul\":19544:19547   */\n      dup4\n        /* \"#utility.yul\":19485:19552   */\n      tag_253\n      jump\t// in\n    tag_455:\n        /* \"#utility.yul\":19478:19552   */\n      swap2\n      pop\n        /* \"#utility.yul\":19561:19654   */\n      tag_456\n        /* \"#utility.yul\":19650:19653   */\n      dup3\n        /* \"#utility.yul\":19561:19654   */\n      tag_275\n      jump\t// in\n    tag_456:\n        /* \"#utility.yul\":19679:19681   */\n      0x20\n        /* \"#utility.yul\":19674:19677   */\n      dup3\n        /* \"#utility.yul\":19670:19682   */\n      add\n        /* \"#utility.yul\":19663:19682   */\n      swap1\n      pop\n        /* \"#utility.yul\":19322:19688   */\n      swap2\n      swap1\n      pop\n      jump\t// out\n        /* \"#utility.yul\":19694:20113   */\n    tag_155:\n        /* \"#utility.yul\":19860:19864   */\n      0x00\n        /* \"#utility.yul\":19898:19900   */\n      0x20\n        /* \"#utility.yul\":19887:19896   */\n      dup3\n        /* \"#utility.yul\":19883:19901   */\n      add\n        /* \"#utility.yul\":19875:19901   */\n      swap1\n      pop\n        /* \"#utility.yul\":19947:19956   */\n      dup2\n        /* \"#utility.yul\":19941:19945   */\n      dup2\n        /* \"#utility.yul\":19937:19957   */\n      sub\n        /* \"#utility.yul\":19933:19934   */\n      0x00\n        /* \"#utility.yul\":19922:19931   */\n      dup4\n        /* \"#utility.yul\":19918:19935   */\n      add\n        /* \"#utility.yul\":19911:19958   */\n      mstore\n        /* \"#utility.yul\":19975:20106   */\n      tag_458\n        /* \"#utility.yul\":20101:20105   */\n      dup2\n        /* \"#utility.yul\":19975:20106   */\n      tag_276\n      jump\t// in\n    tag_458:\n        /* \"#utility.yul\":19967:20106   */\n      swap1\n      pop\n        /* \"#utility.yul\":19694:20113   */\n      swap2\n      swap1\n      pop\n      jump\t// out\n        /* \"#utility.yul\":20119:20359   */\n    tag_277:\n        /* \"#utility.yul\":20259:20293   */\n      0x4f2073656c6c6572206e616f20706f646520636f6d7072617220656e74726164\n        /* \"#utility.yul\":20255:20256   */\n      0x00\n        /* \"#utility.yul\":20247:20253   */\n      dup3\n        /* \"#utility.yul\":20243:20257   */\n      add\n        /* \"#utility.yul\":20236:20294   */\n      mstore\n        /* \"#utility.yul\":20328:20351   */\n      0x617320646f2070726f7072696f20736f727465696f0000000000000000000000\n        /* \"#utility.yul\":20323:20325   */\n      0x20\n        /* \"#utility.yul\":20315:20321   */\n      dup3\n        /* \"#utility.yul\":20311:20326   */\n      add\n        /* \"#utility.yul\":20304:20352   */\n      mstore\n        /* \"#utility.yul\":20119:20359   */\n      pop\n      jump\t// out\n        /* \"#utility.yul\":20365:20731   */\n    tag_278:\n        /* \"#utility.yul\":20507:20510   */\n      0x00\n        /* \"#utility.yul\":20528:20595   */\n      tag_461\n        /* \"#utility.yul\":20592:20594   */\n      0x35\n        /* \"#utility.yul\":20587:20590   */\n      dup4\n        /* \"#utility.yul\":20528:20595   */\n      tag_253\n      jump\t// in\n    tag_461:\n        /* \"#utility.yul\":20521:20595   */\n      swap2\n      pop\n        /* \"#utility.yul\":20604:20697   */\n      tag_462\n        /* \"#utility.yul\":20693:20696   */\n      dup3\n        /* \"#utility.yul\":20604:20697   */\n      tag_277\n      jump\t// in\n    tag_462:\n        /* \"#utility.yul\":20722:20724   */\n      0x40\n        /* \"#utility.yul\":20717:20720   */\n      dup3\n        /* \"#utility.yul\":20713:20725   */\n      add\n        /* \"#utility.yul\":20706:20725   */\n      swap1\n      pop\n        /* \"#utility.yul\":20365:20731   */\n      swap2\n      swap1\n      pop\n      jump\t// out\n        /* \"#utility.yul\":20737:21156   */\n    tag_161:\n        /* \"#utility.yul\":20903:20907   */\n      0x00\n        /* \"#utility.yul\":20941:20943   */\n      0x20\n        /* \"#utility.yul\":20930:20939   */\n      dup3\n        /* \"#utility.yul\":20926:20944   */\n      add\n        /* \"#utility.yul\":20918:20944   */\n      swap1\n      pop\n        /* \"#utility.yul\":20990:20999   */\n      dup2\n        /* \"#utility.yul\":20984:20988   */\n      dup2\n        /* \"#utility.yul\":20980:21000   */\n      sub\n        /* \"#utility.yul\":20976:20977   */\n      0x00\n        /* \"#utility.yul\":20965:20974   */\n      dup4\n        /* \"#utility.yul\":20961:20978   */\n      add\n        /* \"#utility.yul\":20954:21001   */\n      mstore\n        /* \"#utility.yul\":21018:21149   */\n      tag_464\n        /* \"#utility.yul\":21144:21148   */\n      dup2\n        /* \"#utility.yul\":21018:21149   */\n      tag_278\n      jump\t// in\n    tag_464:\n        /* \"#utility.yul\":21010:21149   */\n      swap1\n      pop\n        /* \"#utility.yul\":20737:21156   */\n      swap2\n      swap1\n      pop\n      jump\t// out\n        /* \"#utility.yul\":21162:21572   */\n    tag_166:\n        /* \"#utility.yul\":21202:21209   */\n      0x00\n        /* \"#utility.yul\":21225:21245   */\n      tag_466\n        /* \"#utility.yul\":21243:21244   */\n      dup3\n        /* \"#utility.yul\":21225:21245   */\n      tag_236\n      jump\t// in\n    tag_466:\n        /* \"#utility.yul\":21220:21245   */\n      swap2\n      pop\n        /* \"#utility.yul\":21259:21279   */\n      tag_467\n        /* \"#utility.yul\":21277:21278   */\n      dup4\n        /* \"#utility.yul\":21259:21279   */\n      tag_236\n      jump\t// in\n    tag_467:\n        /* \"#utility.yul\":21254:21279   */\n      swap3\n      pop\n        /* \"#utility.yul\":21314:21315   */\n      dup3\n        /* \"#utility.yul\":21311:21312   */\n      dup3\n        /* \"#utility.yul\":21307:21316   */\n      mul\n        /* \"#utility.yul\":21336:21366   */\n      tag_468\n        /* \"#utility.yul\":21354:21365   */\n      dup2\n        /* \"#utility.yul\":21336:21366   */\n      tag_236\n      jump\t// in\n    tag_468:\n        /* \"#utility.yul\":21325:21366   */\n      swap2\n      pop\n        /* \"#utility.yul\":21515:21516   */\n      dup3\n        /* \"#utility.yul\":21506:21513   */\n      dup3\n        /* \"#utility.yul\":21502:21517   */\n      div\n        /* \"#utility.yul\":21499:21500   */\n      dup5\n        /* \"#utility.yul\":21496:21518   */\n      eq\n        /* \"#utility.yul\":21476:21477   */\n      dup4\n        /* \"#utility.yul\":21469:21478   */\n      iszero\n        /* \"#utility.yul\":21449:21532   */\n      or\n        /* \"#utility.yul\":21426:21565   */\n      tag_469\n      jumpi\n        /* \"#utility.yul\":21545:21563   */\n      tag_470\n      tag_260\n      jump\t// in\n    tag_470:\n        /* \"#utility.yul\":21426:21565   */\n    tag_469:\n        /* \"#utility.yul\":21210:21572   */\n      pop\n        /* \"#utility.yul\":21162:21572   */\n      swap3\n      swap2\n      pop\n      pop\n      jump\t// out\n        /* \"#utility.yul\":21578:21811   */\n    tag_179:\n        /* \"#utility.yul\":21617:21620   */\n      0x00\n        /* \"#utility.yul\":21640:21664   */\n      tag_472\n        /* \"#utility.yul\":21658:21663   */\n      dup3\n        /* \"#utility.yul\":21640:21664   */\n      tag_236\n      jump\t// in\n    tag_472:\n        /* \"#utility.yul\":21631:21664   */\n      swap2\n      pop\n        /* \"#utility.yul\":21686:21752   */\n      0xffffffffffffffffffffffffffffffffffffffffffffffffffffffffffffffff\n        /* \"#utility.yul\":21679:21684   */\n      dup3\n        /* \"#utility.yul\":21676:21753   */\n      sub\n        /* \"#utility.yul\":21673:21776   */\n      tag_473\n      jumpi\n        /* \"#utility.yul\":21756:21774   */\n      tag_474\n      tag_260\n      jump\t// in\n    tag_474:\n        /* \"#utility.yul\":21673:21776   */\n    tag_473:\n        /* \"#utility.yul\":21803:21804   */\n      0x01\n        /* \"#utility.yul\":21796:21801   */\n      dup3\n        /* \"#utility.yul\":21792:21805   */\n      add\n        /* \"#utility.yul\":21785:21805   */\n      swap1\n      pop\n        /* \"#utility.yul\":21578:21811   */\n      swap2\n      swap1\n      pop\n      jump\t// out\n        /* \"#utility.yul\":21817:22008   */\n    tag_184:\n        /* \"#utility.yul\":21857:21860   */\n      0x00\n        /* \"#utility.yul\":21876:21896   */\n      tag_476\n        /* \"#utility.yul\":21894:21895   */\n      dup3\n        /* \"#utility.yul\":21876:21896   */\n      tag_236\n      jump\t// in\n    tag_476:\n        /* \"#utility.yul\":21871:21896   */\n      swap2\n      pop\n        /* \"#utility.yul\":21910:21930   */\n      tag_477\n        /* \"#utility.yul\":21928:21929   */\n      dup4\n        /* \"#utility.yul\":21910:21930   */\n      tag_236\n      jump\t// in\n    tag_477:\n        /* \"#utility.yul\":21905:21930   */\n      swap3\n      pop\n        /* \"#utility.yul\":21953:21954   */\n      dup3\n        /* \"#utility.yul\":21950:21951   */\n      dup3\n        /* \"#utility.yul\":21946:21955   */\n      add\n        /* \"#utility.yul\":21939:21955   */\n      swap1\n      pop\n        /* \"#utility.yul\":21974:21977   */\n      dup1\n        /* \"#utility.yul\":21971:21972   */\n      dup3\n        /* \"#utility.yul\":21968:21978   */\n      gt\n        /* \"#utility.yul\":21965:22001   */\n      iszero\n      tag_478\n      jumpi\n        /* \"#utility.yul\":21981:21999   */\n      tag_479\n      tag_260\n      jump\t// in\n    tag_479:\n        /* \"#utility.yul\":21965:22001   */\n    tag_478:\n        /* \"#utility.yul\":21817:22008   */\n      swap3\n      swap2\n      pop\n      pop\n      jump\t// out\n        /* \"#utility.yul\":22014:22241   */\n    tag_279:\n        /* \"#utility.yul\":22154:22188   */\n      0x4170656e6173206f206f776e657220706f6465207265616c697a617220612064\n        /* \"#utility.yul\":22150:22151   */\n      0x00\n        /* \"#utility.yul\":22142:22148   */\n      dup3\n        /* \"#utility.yul\":22138:22152   */\n      add\n        /* \"#utility.yul\":22131:22189   */\n      mstore\n        /* \"#utility.yul\":22223:22233   */\n      0x65766f6c7563616f000000000000000000000000000000000000000000000000\n        /* \"#utility.yul\":22218:22220   */\n      0x20\n        /* \"#utility.yul\":22210:22216   */\n      dup3\n        /* \"#utility.yul\":22206:22221   */\n      add\n        /* \"#utility.yul\":22199:22234   */\n      mstore\n        /* \"#utility.yul\":22014:22241   */\n      pop\n      jump\t// out\n        /* \"#utility.yul\":22247:22613   */\n    tag_280:\n        /* \"#utility.yul\":22389:22392   */\n      0x00\n        /* \"#utility.yul\":22410:22477   */\n      tag_482\n        /* \"#utility.yul\":22474:22476   */\n      0x28\n        /* \"#utility.yul\":22469:22472   */\n      dup4\n        /* \"#utility.yul\":22410:22477   */\n      tag_253\n      jump\t// in\n    tag_482:\n        /* \"#utility.yul\":22403:22477   */\n      swap2\n      pop\n        /* \"#utility.yul\":22486:22579   */\n      tag_483\n        /* \"#utility.yul\":22575:22578   */\n      dup3\n        /* \"#utility.yul\":22486:22579   */\n      tag_279\n      jump\t// in\n    tag_483:\n        /* \"#utility.yul\":22604:22606   */\n      0x40\n        /* \"#utility.yul\":22599:22602   */\n      dup3\n        /* \"#utility.yul\":22595:22607   */\n      add\n        /* \"#utility.yul\":22588:22607   */\n      swap1\n      pop\n        /* \"#utility.yul\":22247:22613   */\n      swap2\n      swap1\n      pop\n      jump\t// out\n        /* \"#utility.yul\":22619:23038   */\n    tag_192:\n        /* \"#utility.yul\":22785:22789   */\n      0x00\n        /* \"#utility.yul\":22823:22825   */\n      0x20\n        /* \"#utility.yul\":22812:22821   */\n      dup3\n        /* \"#utility.yul\":22808:22826   */\n      add\n        /* \"#utility.yul\":22800:22826   */\n      swap1\n      pop\n        /* \"#utility.yul\":22872:22881   */\n      dup2\n        /* \"#utility.yul\":22866:22870   */\n      dup2\n        /* \"#utility.yul\":22862:22882   */\n      sub\n        /* \"#utility.yul\":22858:22859   */\n      0x00\n        /* \"#utility.yul\":22847:22856   */\n      dup4\n        /* \"#utility.yul\":22843:22860   */\n      add\n        /* \"#utility.yul\":22836:22883   */\n      mstore\n        /* \"#utility.yul\":22900:23031   */\n      tag_485\n        /* \"#utility.yul\":23026:23030   */\n      dup2\n        /* \"#utility.yul\":22900:23031   */\n      tag_280\n      jump\t// in\n    tag_485:\n        /* \"#utility.yul\":22892:23031   */\n      swap1\n      pop\n        /* \"#utility.yul\":22619:23038   */\n      swap2\n      swap1\n      pop\n      jump\t// out\n        /* \"#utility.yul\":23044:23123   */\n    tag_281:\n        /* \"#utility.yul\":23083:23090   */\n      0x00\n        /* \"#utility.yul\":23112:23117   */\n      dup2\n        /* \"#utility.yul\":23101:23117   */\n      swap1\n      pop\n        /* \"#utility.yul\":23044:23123   */\n      swap2\n      swap1\n      pop\n      jump\t// out\n        /* \"#utility.yul\":23129:23286   */\n    tag_282:\n        /* \"#utility.yul\":23234:23279   */\n      tag_488\n        /* \"#utility.yul\":23254:23278   */\n      tag_489\n        /* \"#utility.yul\":23272:23277   */\n      dup3\n        /* \"#utility.yul\":23254:23278   */\n      tag_236\n      jump\t// in\n    tag_489:\n        /* \"#utility.yul\":23234:23279   */\n      tag_281\n      jump\t// in\n    tag_488:\n        /* \"#utility.yul\":23229:23232   */\n      dup3\n        /* \"#utility.yul\":23222:23280   */\n      mstore\n        /* \"#utility.yul\":23129:23286   */\n      pop\n      pop\n      jump\t// out\n        /* \"#utility.yul\":23292:23386   */\n    tag_283:\n        /* \"#utility.yul\":23325:23333   */\n      0x00\n        /* \"#utility.yul\":23373:23378   */\n      dup2\n        /* \"#utility.yul\":23369:23371   */\n      0x60\n        /* \"#utility.yul\":23365:23379   */\n      shl\n        /* \"#utility.yul\":23344:23379   */\n      swap1\n      pop\n        /* \"#utility.yul\":23292:23386   */\n      swap2\n      swap1\n      pop\n      jump\t// out\n        /* \"#utility.yul\":23392:23486   */\n    tag_284:\n        /* \"#utility.yul\":23431:23438   */\n      0x00\n        /* \"#utility.yul\":23460:23480   */\n      tag_492\n        /* \"#utility.yul\":23474:23479   */\n      dup3\n        /* \"#utility.yul\":23460:23480   */\n      tag_283\n      jump\t// in\n    tag_492:\n        /* \"#utility.yul\":23449:23480   */\n      swap1\n      pop\n        /* \"#utility.yul\":23392:23486   */\n      swap2\n      swap1\n      pop\n      jump\t// out\n        /* \"#utility.yul\":23492:23592   */\n    tag_285:\n        /* \"#utility.yul\":23531:23538   */\n      0x00\n        /* \"#utility.yul\":23560:23586   */\n      tag_494\n        /* \"#utility.yul\":23580:23585   */\n      dup3\n        /* \"#utility.yul\":23560:23586   */\n      tag_284\n      jump\t// in\n    tag_494:\n        /* \"#utility.yul\":23549:23586   */\n      swap1\n      pop\n        /* \"#utility.yul\":23492:23592   */\n      swap2\n      swap1\n      pop\n      jump\t// out\n        /* \"#utility.yul\":23598:23755   */\n    tag_286:\n        /* \"#utility.yul\":23703:23748   */\n      tag_496\n        /* \"#utility.yul\":23723:23747   */\n      tag_497\n        /* \"#utility.yul\":23741:23746   */\n      dup3\n        /* \"#utility.yul\":23723:23747   */\n      tag_241\n      jump\t// in\n    tag_497:\n        /* \"#utility.yul\":23703:23748   */\n      tag_285\n      jump\t// in\n    tag_496:\n        /* \"#utility.yul\":23698:23701   */\n      dup3\n        /* \"#utility.yul\":23691:23749   */\n      mstore\n        /* \"#utility.yul\":23598:23755   */\n      pop\n      pop\n      jump\t// out\n        /* \"#utility.yul\":23761:23909   */\n    tag_287:\n        /* \"#utility.yul\":23863:23874   */\n      0x00\n        /* \"#utility.yul\":23900:23903   */\n      dup2\n        /* \"#utility.yul\":23885:23903   */\n      swap1\n      pop\n        /* \"#utility.yul\":23761:23909   */\n      swap3\n      swap2\n      pop\n      pop\n      jump\t// out\n        /* \"#utility.yul\":23915:24061   */\n    tag_288:\n        /* \"#utility.yul\":24012:24018   */\n      dup3\n        /* \"#utility.yul\":24007:24010   */\n      dup2\n        /* \"#utility.yul\":24002:24005   */\n      dup4\n        /* \"#utility.yul\":23989:24019   */\n      calldatacopy\n        /* \"#utility.yul\":24053:24054   */\n      0x00\n        /* \"#utility.yul\":24044:24050   */\n      dup4\n        /* \"#utility.yul\":24039:24042   */\n      dup4\n        /* \"#utility.yul\":24035:24051   */\n      add\n        /* \"#utility.yul\":24028:24055   */\n      mstore\n        /* \"#utility.yul\":23915:24061   */\n      pop\n      pop\n      pop\n      jump\t// out\n        /* \"#utility.yul\":24091:24421   */\n    tag_289:\n        /* \"#utility.yul\":24207:24210   */\n      0x00\n        /* \"#utility.yul\":24228:24317   */\n      tag_501\n        /* \"#utility.yul\":24310:24316   */\n      dup4\n        /* \"#utility.yul\":24305:24308   */\n      dup6\n        /* \"#utility.yul\":24228:24317   */\n      tag_287\n      jump\t// in\n    tag_501:\n        /* \"#utility.yul\":24221:24317   */\n      swap4\n      pop\n        /* \"#utility.yul\":24327:24383   */\n      tag_502\n        /* \"#utility.yul\":24376:24382   */\n      dup4\n        /* \"#utility.yul\":24371:24374   */\n      dup6\n        /* \"#utility.yul\":24364:24369   */\n      dup5\n        /* \"#utility.yul\":24327:24383   */\n      tag_288\n      jump\t// in\n    tag_502:\n        /* \"#utility.yul\":24408:24414   */\n      dup3\n        /* \"#utility.yul\":24403:24406   */\n      dup5\n        /* \"#utility.yul\":24399:24415   */\n      add\n        /* \"#utility.yul\":24392:24415   */\n      swap1\n      pop\n        /* \"#utility.yul\":24091:24421   */\n      swap4\n      swap3\n      pop\n      pop\n      pop\n      jump\t// out\n        /* \"#utility.yul\":24427:25004   */\n    tag_205:\n        /* \"#utility.yul\":24625:24628   */\n      0x00\n        /* \"#utility.yul\":24640:24715   */\n      tag_504\n        /* \"#utility.yul\":24711:24714   */\n      dup3\n        /* \"#utility.yul\":24702:24708   */\n      dup8\n        /* \"#utility.yul\":24640:24715   */\n      tag_282\n      jump\t// in\n    tag_504:\n        /* \"#utility.yul\":24740:24742   */\n      0x20\n        /* \"#utility.yul\":24735:24738   */\n      dup3\n        /* \"#utility.yul\":24731:24743   */\n      add\n        /* \"#utility.yul\":24724:24743   */\n      swap2\n      pop\n        /* \"#utility.yul\":24753:24828   */\n      tag_505\n        /* \"#utility.yul\":24824:24827   */\n      dup3\n        /* \"#utility.yul\":24815:24821   */\n      dup7\n        /* \"#utility.yul\":24753:24828   */\n      tag_286\n      jump\t// in\n    tag_505:\n        /* \"#utility.yul\":24853:24855   */\n      0x14\n        /* \"#utility.yul\":24848:24851   */\n      dup3\n        /* \"#utility.yul\":24844:24856   */\n      add\n        /* \"#utility.yul\":24837:24856   */\n      swap2\n      pop\n        /* \"#utility.yul\":24873:24978   */\n      tag_506\n        /* \"#utility.yul\":24974:24977   */\n      dup3\n        /* \"#utility.yul\":24965:24971   */\n      dup5\n        /* \"#utility.yul\":24957:24963   */\n      dup7\n        /* \"#utility.yul\":24873:24978   */\n      tag_289\n      jump\t// in\n    tag_506:\n        /* \"#utility.yul\":24866:24978   */\n      swap2\n      pop\n        /* \"#utility.yul\":24995:24998   */\n      dup2\n        /* \"#utility.yul\":24988:24998   */\n      swap1\n      pop\n        /* \"#utility.yul\":24427:25004   */\n      swap6\n      swap5\n      pop\n      pop\n      pop\n      pop\n      pop\n      jump\t// out\n        /* \"#utility.yul\":25010:25190   */\n    tag_290:\n        /* \"#utility.yul\":25058:25135   */\n      0x4e487b7100000000000000000000000000000000000000000000000000000000\n        /* \"#utility.yul\":25055:25056   */\n      0x00\n        /* \"#utility.yul\":25048:25136   */\n      mstore\n        /* \"#utility.yul\":25155:25159   */\n      0x12\n        /* \"#utility.yul\":25152:25153   */\n      0x04\n        /* \"#utility.yul\":25145:25160   */\n      mstore\n        /* \"#utility.yul\":25179:25183   */\n      0x24\n        /* \"#utility.yul\":25176:25177   */\n      0x00\n        /* \"#utility.yul\":25169:25184   */\n      revert\n        /* \"#utility.yul\":25196:25372   */\n    tag_207:\n        /* \"#utility.yul\":25228:25229   */\n      0x00\n        /* \"#utility.yul\":25245:25265   */\n      tag_509\n        /* \"#utility.yul\":25263:25264   */\n      dup3\n        /* \"#utility.yul\":25245:25265   */\n      tag_236\n      jump\t// in\n    tag_509:\n        /* \"#utility.yul\":25240:25265   */\n      swap2\n      pop\n        /* \"#utility.yul\":25279:25299   */\n      tag_510\n        /* \"#utility.yul\":25297:25298   */\n      dup4\n        /* \"#utility.yul\":25279:25299   */\n      tag_236\n      jump\t// in\n    tag_510:\n        /* \"#utility.yul\":25274:25299   */\n      swap3\n      pop\n        /* \"#utility.yul\":25318:25319   */\n      dup3\n        /* \"#utility.yul\":25308:25343   */\n      tag_511\n      jumpi\n        /* \"#utility.yul\":25323:25341   */\n      tag_512\n      tag_290\n      jump\t// in\n    tag_512:\n        /* \"#utility.yul\":25308:25343   */\n    tag_511:\n        /* \"#utility.yul\":25364:25365   */\n      dup3\n        /* \"#utility.yul\":25361:25362   */\n      dup3\n        /* \"#utility.yul\":25357:25366   */\n      mod\n        /* \"#utility.yul\":25352:25366   */\n      swap1\n      pop\n        /* \"#utility.yul\":25196:25372   */\n      swap3\n      swap2\n      pop\n      pop\n      jump\t// out\n        /* \"#utility.yul\":25378:25563   */\n    tag_217:\n        /* \"#utility.yul\":25418:25419   */\n      0x00\n        /* \"#utility.yul\":25435:25455   */\n      tag_514\n        /* \"#utility.yul\":25453:25454   */\n      dup3\n        /* \"#utility.yul\":25435:25455   */\n      tag_236\n      jump\t// in\n    tag_514:\n        /* \"#utility.yul\":25430:25455   */\n      swap2\n      pop\n        /* \"#utility.yul\":25469:25489   */\n      tag_515\n        /* \"#utility.yul\":25487:25488   */\n      dup4\n        /* \"#utility.yul\":25469:25489   */\n      tag_236\n      jump\t// in\n    tag_515:\n        /* \"#utility.yul\":25464:25489   */\n      swap3\n      pop\n        /* \"#utility.yul\":25508:25509   */\n      dup3\n        /* \"#utility.yul\":25498:25533   */\n      tag_516\n      jumpi\n        /* \"#utility.yul\":25513:25531   */\n      tag_517\n      tag_290\n      jump\t// in\n    tag_517:\n        /* \"#utility.yul\":25498:25533   */\n    tag_516:\n        /* \"#utility.yul\":25555:25556   */\n      dup3\n        /* \"#utility.yul\":25552:25553   */\n      dup3\n        /* \"#utility.yul\":25548:25557   */\n      div\n        /* \"#utility.yul\":25543:25557   */\n      swap1\n      pop\n        /* \"#utility.yul\":25378:25563   */\n      swap3\n      swap2\n      pop\n      pop\n      jump\t// out\n        /* \"#utility.yul\":25569:25901   */\n    tag_220:\n        /* \"#utility.yul\":25690:25694   */\n      0x00\n        /* \"#utility.yul\":25728:25730   */\n      0x40\n        /* \"#utility.yul\":25717:25726   */\n      dup3\n        /* \"#utility.yul\":25713:25731   */\n      add\n        /* \"#utility.yul\":25705:25731   */\n      swap1\n      pop\n        /* \"#utility.yul\":25741:25812   */\n      tag_519\n        /* \"#utility.yul\":25809:25810   */\n      0x00\n        /* \"#utility.yul\":25798:25807   */\n      dup4\n        /* \"#utility.yul\":25794:25811   */\n      add\n        /* \"#utility.yul\":25785:25791   */\n      dup6\n        /* \"#utility.yul\":25741:25812   */\n      tag_242\n      jump\t// in\n    tag_519:\n        /* \"#utility.yul\":25822:25894   */\n      tag_520\n        /* \"#utility.yul\":25890:25892   */\n      0x20\n        /* \"#utility.yul\":25879:25888   */\n      dup4\n        /* \"#utility.yul\":25875:25893   */\n      add\n        /* \"#utility.yul\":25866:25872   */\n      dup5\n        /* \"#utility.yul\":25822:25894   */\n      tag_239\n      jump\t// in\n    tag_520:\n        /* \"#utility.yul\":25569:25901   */\n      swap4\n      swap3\n      pop\n      pop\n      pop\n      jump\t// out\n\n    auxdata: 0xa2646970667358221220aed7adf78dd63213720da14567336e558782d36f2893c2867a030ce126c1b75a64736f6c63430008110033\n}\n",
				"bytecode": {
					"linkReferences": {},
					"object": "608060405234801561001057600080fd5b50336000806101000a81548173ffffffffffffffffffffffffffffffffffffffff021916908373ffffffffffffffffffffffffffffffffffffffff1602179055506125b4806100606000396000f3fe608060405234801561001057600080fd5b50600436106100935760003560e01c80635fba3171116100665780635fba31711461014f57806366a766421461016b5780638da5cb5b1461019b578063a792813c146101b9578063f6ce4bc5146101d557610093565b80630b0cfcd41461009857806317b937e6146100c85780635a9365e4146100f85780635d4bc0ce14610114575b600080fd5b6100b260048036038101906100ad9190611840565b6101f1565b6040516100bf919061187c565b60405180910390f35b6100e260048036038101906100dd9190611897565b610220565b6040516100ef9190611918565b60405180910390f35b610112600480360381019061010d9190611998565b610277565b005b61012e60048036038101906101299190611840565b6105b3565b6040516101469c9b9a99989796959493929190611a6f565b60405180910390f35b61016960048036038101906101649190611840565b6106b0565b005b61018560048036038101906101809190611b55565b61097e565b604051610192919061187c565b60405180910390f35b6101a3610e6f565b6040516101b09190611918565b60405180910390f35b6101d360048036038101906101ce9190611be2565b610e93565b005b6101ef60048036038101906101ea9190611840565b61124c565b005b60006001828154811061020757610206611c35565b5b90600052602060002090600c0201600401549050919050565b6002602052816000526040600020818154811061023c57600080fd5b90600052602060002001600091509150508060000160009054906101000a900473ffffffffffffffffffffffffffffffffffffffff16905081565b60008054906101000a900473ffffffffffffffffffffffffffffffffffffffff1673ffffffffffffffffffffffffffffffffffffffff163373ffffffffffffffffffffffffffffffffffffffff1614610305576040517f08c379a00000000000000000000000000000000000000000000000000000000081526004016102fc90611ce7565b60405180910390fd5b60006001848154811061031b5761031a611c35565b5b90600052602060002090600c020190506001600281111561033f5761033e6119f8565b5b8160000160009054906101000a900460ff166002811115610363576103626119f8565b5b141580156103a6575060028081111561037f5761037e6119f8565b5b8160000160009054906101000a900460ff1660028111156103a3576103a26119f8565b5b14155b6103e5576040517f08c379a00000000000000000000000000000000000000000000000000000000081526004016103dc90611d53565b60405180910390fd5b806002015460026000868152602001908152602001600020805490501015610442576040517f08c379a000000000000000000000000000000000000000000000000000000000815260040161043990611de5565b60405180910390fd5b600061047184846001600260008a81526020019081526020016000208054905061046c9190611e34565b6113f2565b9050600060026000878152602001908152602001600020828154811061049a57610499611c35565b5b9060005260206000200160000160009054906101000a900473ffffffffffffffffffffffffffffffffffffffff1690508083600b0160006101000a81548173ffffffffffffffffffffffffffffffffffffffff021916908373ffffffffffffffffffffffffffffffffffffffff16021790555060018360000160006101000a81548160ff02191690836002811115610535576105346119f8565b5b021790555082600b0160009054906101000a900473ffffffffffffffffffffffffffffffffffffffff1673ffffffffffffffffffffffffffffffffffffffff16867fce2cddfd400adbcf694cea71fb57997f5c7a9fc7487c6f7701c97bcddf21709560405160405180910390a36105ab86611444565b505050505050565b600181815481106105c357600080fd5b90600052602060002090600c02016000915090508060000160009054906101000a900460ff16908060010154908060020154908060030154908060040154908060050154908060060154908060070160009054906101000a900473ffffffffffffffffffffffffffffffffffffffff16908060080154908060090160009054906101000a900473ffffffffffffffffffffffffffffffffffffffff169080600a0160009054906101000a900473ffffffffffffffffffffffffffffffffffffffff169080600b0160009054906101000a900473ffffffffffffffffffffffffffffffffffffffff1690508c565b600181815481106106c4576106c3611c35565b5b90600052602060002090600c0201600a0160009054906101000a900473ffffffffffffffffffffffffffffffffffffffff1673ffffffffffffffffffffffffffffffffffffffff163373ffffffffffffffffffffffffffffffffffffffff1614610763576040517f08c379a000000000000000000000000000000000000000000000000000000000815260040161075a90611eb4565b60405180910390fd5b60006002600083815260200190815260200160002080549050146107bc576040517f08c379a00000000000000000000000000000000000000000000000000000000081526004016107b390611eb4565b60405180910390fd5b6000600182815481106107d2576107d1611c35565b5b90600052602060002090600c02019050600060028111156107f6576107f56119f8565b5b8160000160009054906101000a900460ff16600281111561081a576108196119f8565b5b1461085a576040517f08c379a000000000000000000000000000000000000000000000000000000000815260040161085190611eb4565b60405180910390fd5b600081600a0160009054906101000a900473ffffffffffffffffffffffffffffffffffffffff16905060008260090160009054906101000a900473ffffffffffffffffffffffffffffffffffffffff1690508073ffffffffffffffffffffffffffffffffffffffff166323b872dd308486600801546040518463ffffffff1660e01b81526004016108ed93929190611ed4565b600060405180830381600087803b15801561090757600080fd5b505af115801561091b573d6000803e3d6000fd5b5050505060028360000160006101000a81548160ff02191690836002811115610947576109466119f8565b5b0217905550837ed12fb3853f1b33ba57f4469e7208a47e391853ab650de6721cbbe59505876760405160405180910390a250505050565b60008087116109c2576040517f08c379a00000000000000000000000000000000000000000000000000000000081526004016109b990611f57565b60405180910390fd5b60008611610a05576040517f08c379a00000000000000000000000000000000000000000000000000000000081526004016109fc90611fc3565b60405180910390fd5b600073ffffffffffffffffffffffffffffffffffffffff168573ffffffffffffffffffffffffffffffffffffffff1603610a74576040517f08c379a0000000000000000000000000000000000000000000000000000000008152600401610a6b9061202f565b60405180910390fd5b6000841015610ab8576040517f08c379a0000000000000000000000000000000000000000000000000000000008152600401610aaf9061209b565b60405180910390fd5b600073ffffffffffffffffffffffffffffffffffffffff168273ffffffffffffffffffffffffffffffffffffffff1603610b27576040517f08c379a0000000000000000000000000000000000000000000000000000000008152600401610b1e90612107565b60405180910390fd5b60008311610b6a576040517f08c379a0000000000000000000000000000000000000000000000000000000008152600401610b6190612173565b60405180910390fd5b610b75848633611786565b600060405180610180016040528060006002811115610b9757610b966119f8565b5b815260200189815260200188815260200160008152602001898152602001600081526020018581526020018473ffffffffffffffffffffffffffffffffffffffff1681526020018681526020018773ffffffffffffffffffffffffffffffffffffffff1681526020013373ffffffffffffffffffffffffffffffffffffffff168152602001600073ffffffffffffffffffffffffffffffffffffffff16815250905060018190806001815401808255809150506001900390600052602060002090600c020160009091909190915060008201518160000160006101000a81548160ff02191690836002811115610c9057610c8f6119f8565b5b02179055506020820151816001015560408201518160020155606082015181600301556080820151816004015560a0820151816005015560c0820151816006015560e08201518160070160006101000a81548173ffffffffffffffffffffffffffffffffffffffff021916908373ffffffffffffffffffffffffffffffffffffffff16021790555061010082015181600801556101208201518160090160006101000a81548173ffffffffffffffffffffffffffffffffffffffff021916908373ffffffffffffffffffffffffffffffffffffffff16021790555061014082015181600a0160006101000a81548173ffffffffffffffffffffffffffffffffffffffff021916908373ffffffffffffffffffffffffffffffffffffffff16021790555061016082015181600b0160006101000a81548173ffffffffffffffffffffffffffffffffffffffff021916908373ffffffffffffffffffffffffffffffffffffffff16021790555050503373ffffffffffffffffffffffffffffffffffffffff1660018080549050610e259190611e34565b7fcb178589a0d989fbb3e2b855e0fe244bf88db81a5afa0de5ec6a7fd2c16fcb3560405160405180910390a360018080549050610e629190611e34565b9150509695505050505050565b60008054906101000a900473ffffffffffffffffffffffffffffffffffffffff1681565b82600260008481526020019081526020016000208054905060018481548110610ebf57610ebe611c35565b5b90600052602060002090600c020160010154610edb9190611e34565b1015610f1c576040517f08c379a0000000000000000000000000000000000000000000000000000000008152600401610f13906121df565b60405180910390fd5b60018281548110610f3057610f2f611c35565b5b90600052602060002090600c0201600a0160009054906101000a900473ffffffffffffffffffffffffffffffffffffffff1673ffffffffffffffffffffffffffffffffffffffff168173ffffffffffffffffffffffffffffffffffffffff1603610fcf576040517f08c379a0000000000000000000000000000000000000000000000000000000008152600401610fc690612271565b60405180910390fd5b60008360018481548110610fe657610fe5611c35565b5b90600052602060002090600c0201600601546110029190612291565b905060006001848154811061101a57611019611c35565b5b90600052602060002090600c020160070160009054906101000a900473ffffffffffffffffffffffffffffffffffffffff1690508073ffffffffffffffffffffffffffffffffffffffff166323b872dd3330856040518463ffffffff1660e01b815260040161108b93929190611ed4565b600060405180830381600087803b1580156110a557600080fd5b505af11580156110b9573d6000803e3d6000fd5b50505050600060405180602001604052808573ffffffffffffffffffffffffffffffffffffffff16815250905060005b868110156111865760026000878152602001908152602001600020829080600181540180825580915050600190039060005260206000200160009091909190915060008201518160000160006101000a81548173ffffffffffffffffffffffffffffffffffffffff021916908373ffffffffffffffffffffffffffffffffffffffff1602179055505050808061117e906122d3565b9150506110e9565b50826001868154811061119c5761119b611c35565b5b90600052602060002090600c020160030160008282546111bc919061231b565b9250508190555085600186815481106111d8576111d7611c35565b5b90600052602060002090600c020160040160008282546111f89190611e34565b925050819055508373ffffffffffffffffffffffffffffffffffffffff1686867f1dea0bd0e9dbea861bff2025a18b89bdc767204ebc6a7ebe66ec8331442387df60405160405180910390a4505050505050565b60008054906101000a900473ffffffffffffffffffffffffffffffffffffffff1673ffffffffffffffffffffffffffffffffffffffff163373ffffffffffffffffffffffffffffffffffffffff16146112da576040517f08c379a00000000000000000000000000000000000000000000000000000000081526004016112d1906123c1565b60405180910390fd5b6000600182815481106112f0576112ef611c35565b5b90600052602060002090600c0201905060008160090160009054906101000a900473ffffffffffffffffffffffffffffffffffffffff1690508073ffffffffffffffffffffffffffffffffffffffff166323b872dd3084600a0160009054906101000a900473ffffffffffffffffffffffffffffffffffffffff1685600801546040518463ffffffff1660e01b815260040161138e93929190611ed4565b600060405180830381600087803b1580156113a857600080fd5b505af11580156113bc573d6000803e3d6000fd5b5050505060018260000160006101000a81548160ff021916908360028111156113e8576113e76119f8565b5b0217905550505050565b6000600182611401919061231b565b423386866040516020016114189493929190612489565b6040516020818303038152906040528051906020012060001c61143b91906124f3565b90509392505050565b60006001828154811061145a57611459611c35565b5b90600052602060002090600c0201604051806101800160405290816000820160009054906101000a900460ff166002811115611499576114986119f8565b5b60028111156114ab576114aa6119f8565b5b81526020016001820154815260200160028201548152602001600382015481526020016004820154815260200160058201548152602001600682015481526020016007820160009054906101000a900473ffffffffffffffffffffffffffffffffffffffff1673ffffffffffffffffffffffffffffffffffffffff1673ffffffffffffffffffffffffffffffffffffffff168152602001600882015481526020016009820160009054906101000a900473ffffffffffffffffffffffffffffffffffffffff1673ffffffffffffffffffffffffffffffffffffffff1673ffffffffffffffffffffffffffffffffffffffff168152602001600a820160009054906101000a900473ffffffffffffffffffffffffffffffffffffffff1673ffffffffffffffffffffffffffffffffffffffff1673ffffffffffffffffffffffffffffffffffffffff168152602001600b820160009054906101000a900473ffffffffffffffffffffffffffffffffffffffff1673ffffffffffffffffffffffffffffffffffffffff1673ffffffffffffffffffffffffffffffffffffffff1681525050905060008160e001519050606482606001516116699190612524565b8260a001818152505060008260a0015183606001516116889190611e34565b90508173ffffffffffffffffffffffffffffffffffffffff1663a9059cbb846101400151836040518363ffffffff1660e01b81526004016116ca929190612555565b600060405180830381600087803b1580156116e457600080fd5b505af11580156116f8573d6000803e3d6000fd5b50505050600083610120015190508073ffffffffffffffffffffffffffffffffffffffff166323b872dd308661016001518761010001516040518463ffffffff1660e01b815260040161174d93929190611ed4565b600060405180830381600087803b15801561176757600080fd5b505af115801561177b573d6000803e3d6000fd5b505050505050505050565b60008290508073ffffffffffffffffffffffffffffffffffffffff166323b872dd8330876040518463ffffffff1660e01b81526004016117c893929190611ed4565b600060405180830381600087803b1580156117e257600080fd5b505af11580156117f6573d6000803e3d6000fd5b5050505050505050565b600080fd5b600080fd5b6000819050919050565b61181d8161180a565b811461182857600080fd5b50565b60008135905061183a81611814565b92915050565b60006020828403121561185657611855611800565b5b60006118648482850161182b565b91505092915050565b6118768161180a565b82525050565b6000602082019050611891600083018461186d565b92915050565b600080604083850312156118ae576118ad611800565b5b60006118bc8582860161182b565b92505060206118cd8582860161182b565b9150509250929050565b600073ffffffffffffffffffffffffffffffffffffffff82169050919050565b6000611902826118d7565b9050919050565b611912816118f7565b82525050565b600060208201905061192d6000830184611909565b92915050565b600080fd5b600080fd5b600080fd5b60008083601f84011261195857611957611933565b5b8235905067ffffffffffffffff81111561197557611974611938565b5b6020830191508360018202830111156119915761199061193d565b5b9250929050565b6000806000604084860312156119b1576119b0611800565b5b60006119bf8682870161182b565b935050602084013567ffffffffffffffff8111156119e0576119df611805565b5b6119ec86828701611942565b92509250509250925092565b7f4e487b7100000000000000000000000000000000000000000000000000000000600052602160045260246000fd5b60038110611a3857611a376119f8565b5b50565b6000819050611a4982611a27565b919050565b6000611a5982611a3b565b9050919050565b611a6981611a4e565b82525050565b600061018082019050611a85600083018f611a60565b611a92602083018e61186d565b611a9f604083018d61186d565b611aac606083018c61186d565b611ab9608083018b61186d565b611ac660a083018a61186d565b611ad360c083018961186d565b611ae060e0830188611909565b611aee61010083018761186d565b611afc610120830186611909565b611b0a610140830185611909565b611b18610160830184611909565b9d9c50505050505050505050505050565b611b32816118f7565b8114611b3d57600080fd5b50565b600081359050611b4f81611b29565b92915050565b60008060008060008060c08789031215611b7257611b71611800565b5b6000611b8089828a0161182b565b9650506020611b9189828a0161182b565b9550506040611ba289828a01611b40565b9450506060611bb389828a0161182b565b9350506080611bc489828a0161182b565b92505060a0611bd589828a01611b40565b9150509295509295509295565b600080600060608486031215611bfb57611bfa611800565b5b6000611c098682870161182b565b9350506020611c1a8682870161182b565b9250506040611c2b86828701611b40565b9150509250925092565b7f4e487b7100000000000000000000000000000000000000000000000000000000600052603260045260246000fd5b600082825260208201905092915050565b7f4170656e6173206f206f776e657220706f6465207265616c697a61722061206360008201527f68616d6164612064657373612066756e63616f00000000000000000000000000602082015250565b6000611cd1603383611c64565b9150611cdc82611c75565b604082019050919050565b60006020820190508181036000830152611d0081611cc4565b9050919050565b7f4f20526166666c65206a6120666f692066696e616c697a61646f000000000000600082015250565b6000611d3d601a83611c64565b9150611d4882611d07565b602082019050919050565b60006020820190508181036000830152611d6c81611d30565b9050919050565b7f5175616e746964616465206465207469636b65747320696e737566696369656e60008201527f7465730000000000000000000000000000000000000000000000000000000000602082015250565b6000611dcf602383611c64565b9150611dda82611d73565b604082019050919050565b60006020820190508181036000830152611dfe81611dc2565b9050919050565b7f4e487b7100000000000000000000000000000000000000000000000000000000600052601160045260246000fd5b6000611e3f8261180a565b9150611e4a8361180a565b9250828203905081811115611e6257611e61611e05565b5b92915050565b7f2000000000000000000000000000000000000000000000000000000000000000600082015250565b6000611e9e600183611c64565b9150611ea982611e68565b602082019050919050565b60006020820190508181036000830152611ecd81611e91565b9050919050565b6000606082019050611ee96000830186611909565b611ef66020830185611909565b611f03604083018461186d565b949350505050565b7f2041200000000000000000000000000000000000000000000000000000000000600082015250565b6000611f41600383611c64565b9150611f4c82611f0b565b602082019050919050565b60006020820190508181036000830152611f7081611f34565b9050919050565b7f2042200000000000000000000000000000000000000000000000000000000000600082015250565b6000611fad600383611c64565b9150611fb882611f77565b602082019050919050565b60006020820190508181036000830152611fdc81611fa0565b9050919050565b7f2043200000000000000000000000000000000000000000000000000000000000600082015250565b6000612019600383611c64565b915061202482611fe3565b602082019050919050565b600060208201905081810360008301526120488161200c565b9050919050565b7f2044200000000000000000000000000000000000000000000000000000000000600082015250565b6000612085600383611c64565b91506120908261204f565b602082019050919050565b600060208201905081810360008301526120b481612078565b9050919050565b7f2045200000000000000000000000000000000000000000000000000000000000600082015250565b60006120f1600383611c64565b91506120fc826120bb565b602082019050919050565b60006020820190508181036000830152612120816120e4565b9050919050565b7f2046200000000000000000000000000000000000000000000000000000000000600082015250565b600061215d600383611c64565b915061216882612127565b602082019050919050565b6000602082019050818103600083015261218c81612150565b9050919050565b7f71746420696e646973706f6e6976656c00000000000000000000000000000000600082015250565b60006121c9601083611c64565b91506121d482612193565b602082019050919050565b600060208201905081810360008301526121f8816121bc565b9050919050565b7f4f2073656c6c6572206e616f20706f646520636f6d7072617220656e7472616460008201527f617320646f2070726f7072696f20736f727465696f0000000000000000000000602082015250565b600061225b603583611c64565b9150612266826121ff565b604082019050919050565b6000602082019050818103600083015261228a8161224e565b9050919050565b600061229c8261180a565b91506122a78361180a565b92508282026122b58161180a565b915082820484148315176122cc576122cb611e05565b5b5092915050565b60006122de8261180a565b91507fffffffffffffffffffffffffffffffffffffffffffffffffffffffffffffffff82036123105761230f611e05565b5b600182019050919050565b60006123268261180a565b91506123318361180a565b925082820190508082111561234957612348611e05565b5b92915050565b7f4170656e6173206f206f776e657220706f6465207265616c697a61722061206460008201527f65766f6c7563616f000000000000000000000000000000000000000000000000602082015250565b60006123ab602883611c64565b91506123b68261234f565b604082019050919050565b600060208201905081810360008301526123da8161239e565b9050919050565b6000819050919050565b6123fc6123f78261180a565b6123e1565b82525050565b60008160601b9050919050565b600061241a82612402565b9050919050565b600061242c8261240f565b9050919050565b61244461243f826118f7565b612421565b82525050565b600081905092915050565b82818337600083830152505050565b6000612470838561244a565b935061247d838584612455565b82840190509392505050565b600061249582876123eb565b6020820191506124a58286612433565b6014820191506124b6828486612464565b915081905095945050505050565b7f4e487b7100000000000000000000000000000000000000000000000000000000600052601260045260246000fd5b60006124fe8261180a565b91506125098361180a565b925082612519576125186124c4565b5b828206905092915050565b600061252f8261180a565b915061253a8361180a565b92508261254a576125496124c4565b5b828204905092915050565b600060408201905061256a6000830185611909565b612577602083018461186d565b939250505056fea2646970667358221220aed7adf78dd63213720da14567336e558782d36f2893c2867a030ce126c1b75a64736f6c63430008110033",
					"opcodes": "PUSH1 0x80 PUSH1 0x40 MSTORE CALLVALUE DUP1 ISZERO PUSH2 0x10 JUMPI PUSH1 0x0 DUP1 REVERT JUMPDEST POP CALLER PUSH1 0x0 DUP1 PUSH2 0x100 EXP DUP2 SLOAD DUP2 PUSH20 0xFFFFFFFFFFFFFFFFFFFFFFFFFFFFFFFFFFFFFFFF MUL NOT AND SWAP1 DUP4 PUSH20 0xFFFFFFFFFFFFFFFFFFFFFFFFFFFFFFFFFFFFFFFF AND MUL OR SWAP1 SSTORE POP PUSH2 0x25B4 DUP1 PUSH2 0x60 PUSH1 0x0 CODECOPY PUSH1 0x0 RETURN INVALID PUSH1 0x80 PUSH1 0x40 MSTORE CALLVALUE DUP1 ISZERO PUSH2 0x10 JUMPI PUSH1 0x0 DUP1 REVERT JUMPDEST POP PUSH1 0x4 CALLDATASIZE LT PUSH2 0x93 JUMPI PUSH1 0x0 CALLDATALOAD PUSH1 0xE0 SHR DUP1 PUSH4 0x5FBA3171 GT PUSH2 0x66 JUMPI DUP1 PUSH4 0x5FBA3171 EQ PUSH2 0x14F JUMPI DUP1 PUSH4 0x66A76642 EQ PUSH2 0x16B JUMPI DUP1 PUSH4 0x8DA5CB5B EQ PUSH2 0x19B JUMPI DUP1 PUSH4 0xA792813C EQ PUSH2 0x1B9 JUMPI DUP1 PUSH4 0xF6CE4BC5 EQ PUSH2 0x1D5 JUMPI PUSH2 0x93 JUMP JUMPDEST DUP1 PUSH4 0xB0CFCD4 EQ PUSH2 0x98 JUMPI DUP1 PUSH4 0x17B937E6 EQ PUSH2 0xC8 JUMPI DUP1 PUSH4 0x5A9365E4 EQ PUSH2 0xF8 JUMPI DUP1 PUSH4 0x5D4BC0CE EQ PUSH2 0x114 JUMPI JUMPDEST PUSH1 0x0 DUP1 REVERT JUMPDEST PUSH2 0xB2 PUSH1 0x4 DUP1 CALLDATASIZE SUB DUP2 ADD SWAP1 PUSH2 0xAD SWAP2 SWAP1 PUSH2 0x1840 JUMP JUMPDEST PUSH2 0x1F1 JUMP JUMPDEST PUSH1 0x40 MLOAD PUSH2 0xBF SWAP2 SWAP1 PUSH2 0x187C JUMP JUMPDEST PUSH1 0x40 MLOAD DUP1 SWAP2 SUB SWAP1 RETURN JUMPDEST PUSH2 0xE2 PUSH1 0x4 DUP1 CALLDATASIZE SUB DUP2 ADD SWAP1 PUSH2 0xDD SWAP2 SWAP1 PUSH2 0x1897 JUMP JUMPDEST PUSH2 0x220 JUMP JUMPDEST PUSH1 0x40 MLOAD PUSH2 0xEF SWAP2 SWAP1 PUSH2 0x1918 JUMP JUMPDEST PUSH1 0x40 MLOAD DUP1 SWAP2 SUB SWAP1 RETURN JUMPDEST PUSH2 0x112 PUSH1 0x4 DUP1 CALLDATASIZE SUB DUP2 ADD SWAP1 PUSH2 0x10D SWAP2 SWAP1 PUSH2 0x1998 JUMP JUMPDEST PUSH2 0x277 JUMP JUMPDEST STOP JUMPDEST PUSH2 0x12E PUSH1 0x4 DUP1 CALLDATASIZE SUB DUP2 ADD SWAP1 PUSH2 0x129 SWAP2 SWAP1 PUSH2 0x1840 JUMP JUMPDEST PUSH2 0x5B3 JUMP JUMPDEST PUSH1 0x40 MLOAD PUSH2 0x146 SWAP13 SWAP12 SWAP11 SWAP10 SWAP9 SWAP8 SWAP7 SWAP6 SWAP5 SWAP4 SWAP3 SWAP2 SWAP1 PUSH2 0x1A6F JUMP JUMPDEST PUSH1 0x40 MLOAD DUP1 SWAP2 SUB SWAP1 RETURN JUMPDEST PUSH2 0x169 PUSH1 0x4 DUP1 CALLDATASIZE SUB DUP2 ADD SWAP1 PUSH2 0x164 SWAP2 SWAP1 PUSH2 0x1840 JUMP JUMPDEST PUSH2 0x6B0 JUMP JUMPDEST STOP JUMPDEST PUSH2 0x185 PUSH1 0x4 DUP1 CALLDATASIZE SUB DUP2 ADD SWAP1 PUSH2 0x180 SWAP2 SWAP1 PUSH2 0x1B55 JUMP JUMPDEST PUSH2 0x97E JUMP JUMPDEST PUSH1 0x40 MLOAD PUSH2 0x192 SWAP2 SWAP1 PUSH2 0x187C JUMP JUMPDEST PUSH1 0x40 MLOAD DUP1 SWAP2 SUB SWAP1 RETURN JUMPDEST PUSH2 0x1A3 PUSH2 0xE6F JUMP JUMPDEST PUSH1 0x40 MLOAD PUSH2 0x1B0 SWAP2 SWAP1 PUSH2 0x1918 JUMP JUMPDEST PUSH1 0x40 MLOAD DUP1 SWAP2 SUB SWAP1 RETURN JUMPDEST PUSH2 0x1D3 PUSH1 0x4 DUP1 CALLDATASIZE SUB DUP2 ADD SWAP1 PUSH2 0x1CE SWAP2 SWAP1 PUSH2 0x1BE2 JUMP JUMPDEST PUSH2 0xE93 JUMP JUMPDEST STOP JUMPDEST PUSH2 0x1EF PUSH1 0x4 DUP1 CALLDATASIZE SUB DUP2 ADD SWAP1 PUSH2 0x1EA SWAP2 SWAP1 PUSH2 0x1840 JUMP JUMPDEST PUSH2 0x124C JUMP JUMPDEST STOP JUMPDEST PUSH1 0x0 PUSH1 0x1 DUP3 DUP2 SLOAD DUP2 LT PUSH2 0x207 JUMPI PUSH2 0x206 PUSH2 0x1C35 JUMP JUMPDEST JUMPDEST SWAP1 PUSH1 0x0 MSTORE PUSH1 0x20 PUSH1 0x0 KECCAK256 SWAP1 PUSH1 0xC MUL ADD PUSH1 0x4 ADD SLOAD SWAP1 POP SWAP2 SWAP1 POP JUMP JUMPDEST PUSH1 0x2 PUSH1 0x20 MSTORE DUP2 PUSH1 0x0 MSTORE PUSH1 0x40 PUSH1 0x0 KECCAK256 DUP2 DUP2 SLOAD DUP2 LT PUSH2 0x23C JUMPI PUSH1 0x0 DUP1 REVERT JUMPDEST SWAP1 PUSH1 0x0 MSTORE PUSH1 0x20 PUSH1 0x0 KECCAK256 ADD PUSH1 0x0 SWAP2 POP SWAP2 POP POP DUP1 PUSH1 0x0 ADD PUSH1 0x0 SWAP1 SLOAD SWAP1 PUSH2 0x100 EXP SWAP1 DIV PUSH20 0xFFFFFFFFFFFFFFFFFFFFFFFFFFFFFFFFFFFFFFFF AND SWAP1 POP DUP2 JUMP JUMPDEST PUSH1 0x0 DUP1 SLOAD SWAP1 PUSH2 0x100 EXP SWAP1 DIV PUSH20 0xFFFFFFFFFFFFFFFFFFFFFFFFFFFFFFFFFFFFFFFF AND PUSH20 0xFFFFFFFFFFFFFFFFFFFFFFFFFFFFFFFFFFFFFFFF AND CALLER PUSH20 0xFFFFFFFFFFFFFFFFFFFFFFFFFFFFFFFFFFFFFFFF AND EQ PUSH2 0x305 JUMPI PUSH1 0x40 MLOAD PUSH32 0x8C379A000000000000000000000000000000000000000000000000000000000 DUP2 MSTORE PUSH1 0x4 ADD PUSH2 0x2FC SWAP1 PUSH2 0x1CE7 JUMP JUMPDEST PUSH1 0x40 MLOAD DUP1 SWAP2 SUB SWAP1 REVERT JUMPDEST PUSH1 0x0 PUSH1 0x1 DUP5 DUP2 SLOAD DUP2 LT PUSH2 0x31B JUMPI PUSH2 0x31A PUSH2 0x1C35 JUMP JUMPDEST JUMPDEST SWAP1 PUSH1 0x0 MSTORE PUSH1 0x20 PUSH1 0x0 KECCAK256 SWAP1 PUSH1 0xC MUL ADD SWAP1 POP PUSH1 0x1 PUSH1 0x2 DUP2 GT ISZERO PUSH2 0x33F JUMPI PUSH2 0x33E PUSH2 0x19F8 JUMP JUMPDEST JUMPDEST DUP2 PUSH1 0x0 ADD PUSH1 0x0 SWAP1 SLOAD SWAP1 PUSH2 0x100 EXP SWAP1 DIV PUSH1 0xFF AND PUSH1 0x2 DUP2 GT ISZERO PUSH2 0x363 JUMPI PUSH2 0x362 PUSH2 0x19F8 JUMP JUMPDEST JUMPDEST EQ ISZERO DUP1 ISZERO PUSH2 0x3A6 JUMPI POP PUSH1 0x2 DUP1 DUP2 GT ISZERO PUSH2 0x37F JUMPI PUSH2 0x37E PUSH2 0x19F8 JUMP JUMPDEST JUMPDEST DUP2 PUSH1 0x0 ADD PUSH1 0x0 SWAP1 SLOAD SWAP1 PUSH2 0x100 EXP SWAP1 DIV PUSH1 0xFF AND PUSH1 0x2 DUP2 GT ISZERO PUSH2 0x3A3 JUMPI PUSH2 0x3A2 PUSH2 0x19F8 JUMP JUMPDEST JUMPDEST EQ ISZERO JUMPDEST PUSH2 0x3E5 JUMPI PUSH1 0x40 MLOAD PUSH32 0x8C379A000000000000000000000000000000000000000000000000000000000 DUP2 MSTORE PUSH1 0x4 ADD PUSH2 0x3DC SWAP1 PUSH2 0x1D53 JUMP JUMPDEST PUSH1 0x40 MLOAD DUP1 SWAP2 SUB SWAP1 REVERT JUMPDEST DUP1 PUSH1 0x2 ADD SLOAD PUSH1 0x2 PUSH1 0x0 DUP7 DUP2 MSTORE PUSH1 0x20 ADD SWAP1 DUP2 MSTORE PUSH1 0x20 ADD PUSH1 0x0 KECCAK256 DUP1 SLOAD SWAP1 POP LT ISZERO PUSH2 0x442 JUMPI PUSH1 0x40 MLOAD PUSH32 0x8C379A000000000000000000000000000000000000000000000000000000000 DUP2 MSTORE PUSH1 0x4 ADD PUSH2 0x439 SWAP1 PUSH2 0x1DE5 JUMP JUMPDEST PUSH1 0x40 MLOAD DUP1 SWAP2 SUB SWAP1 REVERT JUMPDEST PUSH1 0x0 PUSH2 0x471 DUP5 DUP5 PUSH1 0x1 PUSH1 0x2 PUSH1 0x0 DUP11 DUP2 MSTORE PUSH1 0x20 ADD SWAP1 DUP2 MSTORE PUSH1 0x20 ADD PUSH1 0x0 KECCAK256 DUP1 SLOAD SWAP1 POP PUSH2 0x46C SWAP2 SWAP1 PUSH2 0x1E34 JUMP JUMPDEST PUSH2 0x13F2 JUMP JUMPDEST SWAP1 POP PUSH1 0x0 PUSH1 0x2 PUSH1 0x0 DUP8 DUP2 MSTORE PUSH1 0x20 ADD SWAP1 DUP2 MSTORE PUSH1 0x20 ADD PUSH1 0x0 KECCAK256 DUP3 DUP2 SLOAD DUP2 LT PUSH2 0x49A JUMPI PUSH2 0x499 PUSH2 0x1C35 JUMP JUMPDEST JUMPDEST SWAP1 PUSH1 0x0 MSTORE PUSH1 0x20 PUSH1 0x0 KECCAK256 ADD PUSH1 0x0 ADD PUSH1 0x0 SWAP1 SLOAD SWAP1 PUSH2 0x100 EXP SWAP1 DIV PUSH20 0xFFFFFFFFFFFFFFFFFFFFFFFFFFFFFFFFFFFFFFFF AND SWAP1 POP DUP1 DUP4 PUSH1 0xB ADD PUSH1 0x0 PUSH2 0x100 EXP DUP2 SLOAD DUP2 PUSH20 0xFFFFFFFFFFFFFFFFFFFFFFFFFFFFFFFFFFFFFFFF MUL NOT AND SWAP1 DUP4 PUSH20 0xFFFFFFFFFFFFFFFFFFFFFFFFFFFFFFFFFFFFFFFF AND MUL OR SWAP1 SSTORE POP PUSH1 0x1 DUP4 PUSH1 0x0 ADD PUSH1 0x0 PUSH2 0x100 EXP DUP2 SLOAD DUP2 PUSH1 0xFF MUL NOT AND SWAP1 DUP4 PUSH1 0x2 DUP2 GT ISZERO PUSH2 0x535 JUMPI PUSH2 0x534 PUSH2 0x19F8 JUMP JUMPDEST JUMPDEST MUL OR SWAP1 SSTORE POP DUP3 PUSH1 0xB ADD PUSH1 0x0 SWAP1 SLOAD SWAP1 PUSH2 0x100 EXP SWAP1 DIV PUSH20 0xFFFFFFFFFFFFFFFFFFFFFFFFFFFFFFFFFFFFFFFF AND PUSH20 0xFFFFFFFFFFFFFFFFFFFFFFFFFFFFFFFFFFFFFFFF AND DUP7 PUSH32 0xCE2CDDFD400ADBCF694CEA71FB57997F5C7A9FC7487C6F7701C97BCDDF217095 PUSH1 0x40 MLOAD PUSH1 0x40 MLOAD DUP1 SWAP2 SUB SWAP1 LOG3 PUSH2 0x5AB DUP7 PUSH2 0x1444 JUMP JUMPDEST POP POP POP POP POP POP JUMP JUMPDEST PUSH1 0x1 DUP2 DUP2 SLOAD DUP2 LT PUSH2 0x5C3 JUMPI PUSH1 0x0 DUP1 REVERT JUMPDEST SWAP1 PUSH1 0x0 MSTORE PUSH1 0x20 PUSH1 0x0 KECCAK256 SWAP1 PUSH1 0xC MUL ADD PUSH1 0x0 SWAP2 POP SWAP1 POP DUP1 PUSH1 0x0 ADD PUSH1 0x0 SWAP1 SLOAD SWAP1 PUSH2 0x100 EXP SWAP1 DIV PUSH1 0xFF AND SWAP1 DUP1 PUSH1 0x1 ADD SLOAD SWAP1 DUP1 PUSH1 0x2 ADD SLOAD SWAP1 DUP1 PUSH1 0x3 ADD SLOAD SWAP1 DUP1 PUSH1 0x4 ADD SLOAD SWAP1 DUP1 PUSH1 0x5 ADD SLOAD SWAP1 DUP1 PUSH1 0x6 ADD SLOAD SWAP1 DUP1 PUSH1 0x7 ADD PUSH1 0x0 SWAP1 SLOAD SWAP1 PUSH2 0x100 EXP SWAP1 DIV PUSH20 0xFFFFFFFFFFFFFFFFFFFFFFFFFFFFFFFFFFFFFFFF AND SWAP1 DUP1 PUSH1 0x8 ADD SLOAD SWAP1 DUP1 PUSH1 0x9 ADD PUSH1 0x0 SWAP1 SLOAD SWAP1 PUSH2 0x100 EXP SWAP1 DIV PUSH20 0xFFFFFFFFFFFFFFFFFFFFFFFFFFFFFFFFFFFFFFFF AND SWAP1 DUP1 PUSH1 0xA ADD PUSH1 0x0 SWAP1 SLOAD SWAP1 PUSH2 0x100 EXP SWAP1 DIV PUSH20 0xFFFFFFFFFFFFFFFFFFFFFFFFFFFFFFFFFFFFFFFF AND SWAP1 DUP1 PUSH1 0xB ADD PUSH1 0x0 SWAP1 SLOAD SWAP1 PUSH2 0x100 EXP SWAP1 DIV PUSH20 0xFFFFFFFFFFFFFFFFFFFFFFFFFFFFFFFFFFFFFFFF AND SWAP1 POP DUP13 JUMP JUMPDEST PUSH1 0x1 DUP2 DUP2 SLOAD DUP2 LT PUSH2 0x6C4 JUMPI PUSH2 0x6C3 PUSH2 0x1C35 JUMP JUMPDEST JUMPDEST SWAP1 PUSH1 0x0 MSTORE PUSH1 0x20 PUSH1 0x0 KECCAK256 SWAP1 PUSH1 0xC MUL ADD PUSH1 0xA ADD PUSH1 0x0 SWAP1 SLOAD SWAP1 PUSH2 0x100 EXP SWAP1 DIV PUSH20 0xFFFFFFFFFFFFFFFFFFFFFFFFFFFFFFFFFFFFFFFF AND PUSH20 0xFFFFFFFFFFFFFFFFFFFFFFFFFFFFFFFFFFFFFFFF AND CALLER PUSH20 0xFFFFFFFFFFFFFFFFFFFFFFFFFFFFFFFFFFFFFFFF AND EQ PUSH2 0x763 JUMPI PUSH1 0x40 MLOAD PUSH32 0x8C379A000000000000000000000000000000000000000000000000000000000 DUP2 MSTORE PUSH1 0x4 ADD PUSH2 0x75A SWAP1 PUSH2 0x1EB4 JUMP JUMPDEST PUSH1 0x40 MLOAD DUP1 SWAP2 SUB SWAP1 REVERT JUMPDEST PUSH1 0x0 PUSH1 0x2 PUSH1 0x0 DUP4 DUP2 MSTORE PUSH1 0x20 ADD SWAP1 DUP2 MSTORE PUSH1 0x20 ADD PUSH1 0x0 KECCAK256 DUP1 SLOAD SWAP1 POP EQ PUSH2 0x7BC JUMPI PUSH1 0x40 MLOAD PUSH32 0x8C379A000000000000000000000000000000000000000000000000000000000 DUP2 MSTORE PUSH1 0x4 ADD PUSH2 0x7B3 SWAP1 PUSH2 0x1EB4 JUMP JUMPDEST PUSH1 0x40 MLOAD DUP1 SWAP2 SUB SWAP1 REVERT JUMPDEST PUSH1 0x0 PUSH1 0x1 DUP3 DUP2 SLOAD DUP2 LT PUSH2 0x7D2 JUMPI PUSH2 0x7D1 PUSH2 0x1C35 JUMP JUMPDEST JUMPDEST SWAP1 PUSH1 0x0 MSTORE PUSH1 0x20 PUSH1 0x0 KECCAK256 SWAP1 PUSH1 0xC MUL ADD SWAP1 POP PUSH1 0x0 PUSH1 0x2 DUP2 GT ISZERO PUSH2 0x7F6 JUMPI PUSH2 0x7F5 PUSH2 0x19F8 JUMP JUMPDEST JUMPDEST DUP2 PUSH1 0x0 ADD PUSH1 0x0 SWAP1 SLOAD SWAP1 PUSH2 0x100 EXP SWAP1 DIV PUSH1 0xFF AND PUSH1 0x2 DUP2 GT ISZERO PUSH2 0x81A JUMPI PUSH2 0x819 PUSH2 0x19F8 JUMP JUMPDEST JUMPDEST EQ PUSH2 0x85A JUMPI PUSH1 0x40 MLOAD PUSH32 0x8C379A000000000000000000000000000000000000000000000000000000000 DUP2 MSTORE PUSH1 0x4 ADD PUSH2 0x851 SWAP1 PUSH2 0x1EB4 JUMP JUMPDEST PUSH1 0x40 MLOAD DUP1 SWAP2 SUB SWAP1 REVERT JUMPDEST PUSH1 0x0 DUP2 PUSH1 0xA ADD PUSH1 0x0 SWAP1 SLOAD SWAP1 PUSH2 0x100 EXP SWAP1 DIV PUSH20 0xFFFFFFFFFFFFFFFFFFFFFFFFFFFFFFFFFFFFFFFF AND SWAP1 POP PUSH1 0x0 DUP3 PUSH1 0x9 ADD PUSH1 0x0 SWAP1 SLOAD SWAP1 PUSH2 0x100 EXP SWAP1 DIV PUSH20 0xFFFFFFFFFFFFFFFFFFFFFFFFFFFFFFFFFFFFFFFF AND SWAP1 POP DUP1 PUSH20 0xFFFFFFFFFFFFFFFFFFFFFFFFFFFFFFFFFFFFFFFF AND PUSH4 0x23B872DD ADDRESS DUP5 DUP7 PUSH1 0x8 ADD SLOAD PUSH1 0x40 MLOAD DUP5 PUSH4 0xFFFFFFFF AND PUSH1 0xE0 SHL DUP2 MSTORE PUSH1 0x4 ADD PUSH2 0x8ED SWAP4 SWAP3 SWAP2 SWAP1 PUSH2 0x1ED4 JUMP JUMPDEST PUSH1 0x0 PUSH1 0x40 MLOAD DUP1 DUP4 SUB DUP2 PUSH1 0x0 DUP8 DUP1 EXTCODESIZE ISZERO DUP1 ISZERO PUSH2 0x907 JUMPI PUSH1 0x0 DUP1 REVERT JUMPDEST POP GAS CALL ISZERO DUP1 ISZERO PUSH2 0x91B JUMPI RETURNDATASIZE PUSH1 0x0 DUP1 RETURNDATACOPY RETURNDATASIZE PUSH1 0x0 REVERT JUMPDEST POP POP POP POP PUSH1 0x2 DUP4 PUSH1 0x0 ADD PUSH1 0x0 PUSH2 0x100 EXP DUP2 SLOAD DUP2 PUSH1 0xFF MUL NOT AND SWAP1 DUP4 PUSH1 0x2 DUP2 GT ISZERO PUSH2 0x947 JUMPI PUSH2 0x946 PUSH2 0x19F8 JUMP JUMPDEST JUMPDEST MUL OR SWAP1 SSTORE POP DUP4 PUSH31 0xD12FB3853F1B33BA57F4469E7208A47E391853AB650DE6721CBBE595058767 PUSH1 0x40 MLOAD PUSH1 0x40 MLOAD DUP1 SWAP2 SUB SWAP1 LOG2 POP POP POP POP JUMP JUMPDEST PUSH1 0x0 DUP1 DUP8 GT PUSH2 0x9C2 JUMPI PUSH1 0x40 MLOAD PUSH32 0x8C379A000000000000000000000000000000000000000000000000000000000 DUP2 MSTORE PUSH1 0x4 ADD PUSH2 0x9B9 SWAP1 PUSH2 0x1F57 JUMP JUMPDEST PUSH1 0x40 MLOAD DUP1 SWAP2 SUB SWAP1 REVERT JUMPDEST PUSH1 0x0 DUP7 GT PUSH2 0xA05 JUMPI PUSH1 0x40 MLOAD PUSH32 0x8C379A000000000000000000000000000000000000000000000000000000000 DUP2 MSTORE PUSH1 0x4 ADD PUSH2 0x9FC SWAP1 PUSH2 0x1FC3 JUMP JUMPDEST PUSH1 0x40 MLOAD DUP1 SWAP2 SUB SWAP1 REVERT JUMPDEST PUSH1 0x0 PUSH20 0xFFFFFFFFFFFFFFFFFFFFFFFFFFFFFFFFFFFFFFFF AND DUP6 PUSH20 0xFFFFFFFFFFFFFFFFFFFFFFFFFFFFFFFFFFFFFFFF AND SUB PUSH2 0xA74 JUMPI PUSH1 0x40 MLOAD PUSH32 0x8C379A000000000000000000000000000000000000000000000000000000000 DUP2 MSTORE PUSH1 0x4 ADD PUSH2 0xA6B SWAP1 PUSH2 0x202F JUMP JUMPDEST PUSH1 0x40 MLOAD DUP1 SWAP2 SUB SWAP1 REVERT JUMPDEST PUSH1 0x0 DUP5 LT ISZERO PUSH2 0xAB8 JUMPI PUSH1 0x40 MLOAD PUSH32 0x8C379A000000000000000000000000000000000000000000000000000000000 DUP2 MSTORE PUSH1 0x4 ADD PUSH2 0xAAF SWAP1 PUSH2 0x209B JUMP JUMPDEST PUSH1 0x40 MLOAD DUP1 SWAP2 SUB SWAP1 REVERT JUMPDEST PUSH1 0x0 PUSH20 0xFFFFFFFFFFFFFFFFFFFFFFFFFFFFFFFFFFFFFFFF AND DUP3 PUSH20 0xFFFFFFFFFFFFFFFFFFFFFFFFFFFFFFFFFFFFFFFF AND SUB PUSH2 0xB27 JUMPI PUSH1 0x40 MLOAD PUSH32 0x8C379A000000000000000000000000000000000000000000000000000000000 DUP2 MSTORE PUSH1 0x4 ADD PUSH2 0xB1E SWAP1 PUSH2 0x2107 JUMP JUMPDEST PUSH1 0x40 MLOAD DUP1 SWAP2 SUB SWAP1 REVERT JUMPDEST PUSH1 0x0 DUP4 GT PUSH2 0xB6A JUMPI PUSH1 0x40 MLOAD PUSH32 0x8C379A000000000000000000000000000000000000000000000000000000000 DUP2 MSTORE PUSH1 0x4 ADD PUSH2 0xB61 SWAP1 PUSH2 0x2173 JUMP JUMPDEST PUSH1 0x40 MLOAD DUP1 SWAP2 SUB SWAP1 REVERT JUMPDEST PUSH2 0xB75 DUP5 DUP7 CALLER PUSH2 0x1786 JUMP JUMPDEST PUSH1 0x0 PUSH1 0x40 MLOAD DUP1 PUSH2 0x180 ADD PUSH1 0x40 MSTORE DUP1 PUSH1 0x0 PUSH1 0x2 DUP2 GT ISZERO PUSH2 0xB97 JUMPI PUSH2 0xB96 PUSH2 0x19F8 JUMP JUMPDEST JUMPDEST DUP2 MSTORE PUSH1 0x20 ADD DUP10 DUP2 MSTORE PUSH1 0x20 ADD DUP9 DUP2 MSTORE PUSH1 0x20 ADD PUSH1 0x0 DUP2 MSTORE PUSH1 0x20 ADD DUP10 DUP2 MSTORE PUSH1 0x20 ADD PUSH1 0x0 DUP2 MSTORE PUSH1 0x20 ADD DUP6 DUP2 MSTORE PUSH1 0x20 ADD DUP5 PUSH20 0xFFFFFFFFFFFFFFFFFFFFFFFFFFFFFFFFFFFFFFFF AND DUP2 MSTORE PUSH1 0x20 ADD DUP7 DUP2 MSTORE PUSH1 0x20 ADD DUP8 PUSH20 0xFFFFFFFFFFFFFFFFFFFFFFFFFFFFFFFFFFFFFFFF AND DUP2 MSTORE PUSH1 0x20 ADD CALLER PUSH20 0xFFFFFFFFFFFFFFFFFFFFFFFFFFFFFFFFFFFFFFFF AND DUP2 MSTORE PUSH1 0x20 ADD PUSH1 0x0 PUSH20 0xFFFFFFFFFFFFFFFFFFFFFFFFFFFFFFFFFFFFFFFF AND DUP2 MSTORE POP SWAP1 POP PUSH1 0x1 DUP2 SWAP1 DUP1 PUSH1 0x1 DUP2 SLOAD ADD DUP1 DUP3 SSTORE DUP1 SWAP2 POP POP PUSH1 0x1 SWAP1 SUB SWAP1 PUSH1 0x0 MSTORE PUSH1 0x20 PUSH1 0x0 KECCAK256 SWAP1 PUSH1 0xC MUL ADD PUSH1 0x0 SWAP1 SWAP2 SWAP1 SWAP2 SWAP1 SWAP2 POP PUSH1 0x0 DUP3 ADD MLOAD DUP2 PUSH1 0x0 ADD PUSH1 0x0 PUSH2 0x100 EXP DUP2 SLOAD DUP2 PUSH1 0xFF MUL NOT AND SWAP1 DUP4 PUSH1 0x2 DUP2 GT ISZERO PUSH2 0xC90 JUMPI PUSH2 0xC8F PUSH2 0x19F8 JUMP JUMPDEST JUMPDEST MUL OR SWAP1 SSTORE POP PUSH1 0x20 DUP3 ADD MLOAD DUP2 PUSH1 0x1 ADD SSTORE PUSH1 0x40 DUP3 ADD MLOAD DUP2 PUSH1 0x2 ADD SSTORE PUSH1 0x60 DUP3 ADD MLOAD DUP2 PUSH1 0x3 ADD SSTORE PUSH1 0x80 DUP3 ADD MLOAD DUP2 PUSH1 0x4 ADD SSTORE PUSH1 0xA0 DUP3 ADD MLOAD DUP2 PUSH1 0x5 ADD SSTORE PUSH1 0xC0 DUP3 ADD MLOAD DUP2 PUSH1 0x6 ADD SSTORE PUSH1 0xE0 DUP3 ADD MLOAD DUP2 PUSH1 0x7 ADD PUSH1 0x0 PUSH2 0x100 EXP DUP2 SLOAD DUP2 PUSH20 0xFFFFFFFFFFFFFFFFFFFFFFFFFFFFFFFFFFFFFFFF MUL NOT AND SWAP1 DUP4 PUSH20 0xFFFFFFFFFFFFFFFFFFFFFFFFFFFFFFFFFFFFFFFF AND MUL OR SWAP1 SSTORE POP PUSH2 0x100 DUP3 ADD MLOAD DUP2 PUSH1 0x8 ADD SSTORE PUSH2 0x120 DUP3 ADD MLOAD DUP2 PUSH1 0x9 ADD PUSH1 0x0 PUSH2 0x100 EXP DUP2 SLOAD DUP2 PUSH20 0xFFFFFFFFFFFFFFFFFFFFFFFFFFFFFFFFFFFFFFFF MUL NOT AND SWAP1 DUP4 PUSH20 0xFFFFFFFFFFFFFFFFFFFFFFFFFFFFFFFFFFFFFFFF AND MUL OR SWAP1 SSTORE POP PUSH2 0x140 DUP3 ADD MLOAD DUP2 PUSH1 0xA ADD PUSH1 0x0 PUSH2 0x100 EXP DUP2 SLOAD DUP2 PUSH20 0xFFFFFFFFFFFFFFFFFFFFFFFFFFFFFFFFFFFFFFFF MUL NOT AND SWAP1 DUP4 PUSH20 0xFFFFFFFFFFFFFFFFFFFFFFFFFFFFFFFFFFFFFFFF AND MUL OR SWAP1 SSTORE POP PUSH2 0x160 DUP3 ADD MLOAD DUP2 PUSH1 0xB ADD PUSH1 0x0 PUSH2 0x100 EXP DUP2 SLOAD DUP2 PUSH20 0xFFFFFFFFFFFFFFFFFFFFFFFFFFFFFFFFFFFFFFFF MUL NOT AND SWAP1 DUP4 PUSH20 0xFFFFFFFFFFFFFFFFFFFFFFFFFFFFFFFFFFFFFFFF AND MUL OR SWAP1 SSTORE POP POP POP CALLER PUSH20 0xFFFFFFFFFFFFFFFFFFFFFFFFFFFFFFFFFFFFFFFF AND PUSH1 0x1 DUP1 DUP1 SLOAD SWAP1 POP PUSH2 0xE25 SWAP2 SWAP1 PUSH2 0x1E34 JUMP JUMPDEST PUSH32 0xCB178589A0D989FBB3E2B855E0FE244BF88DB81A5AFA0DE5EC6A7FD2C16FCB35 PUSH1 0x40 MLOAD PUSH1 0x40 MLOAD DUP1 SWAP2 SUB SWAP1 LOG3 PUSH1 0x1 DUP1 DUP1 SLOAD SWAP1 POP PUSH2 0xE62 SWAP2 SWAP1 PUSH2 0x1E34 JUMP JUMPDEST SWAP2 POP POP SWAP7 SWAP6 POP POP POP POP POP POP JUMP JUMPDEST PUSH1 0x0 DUP1 SLOAD SWAP1 PUSH2 0x100 EXP SWAP1 DIV PUSH20 0xFFFFFFFFFFFFFFFFFFFFFFFFFFFFFFFFFFFFFFFF AND DUP2 JUMP JUMPDEST DUP3 PUSH1 0x2 PUSH1 0x0 DUP5 DUP2 MSTORE PUSH1 0x20 ADD SWAP1 DUP2 MSTORE PUSH1 0x20 ADD PUSH1 0x0 KECCAK256 DUP1 SLOAD SWAP1 POP PUSH1 0x1 DUP5 DUP2 SLOAD DUP2 LT PUSH2 0xEBF JUMPI PUSH2 0xEBE PUSH2 0x1C35 JUMP JUMPDEST JUMPDEST SWAP1 PUSH1 0x0 MSTORE PUSH1 0x20 PUSH1 0x0 KECCAK256 SWAP1 PUSH1 0xC MUL ADD PUSH1 0x1 ADD SLOAD PUSH2 0xEDB SWAP2 SWAP1 PUSH2 0x1E34 JUMP JUMPDEST LT ISZERO PUSH2 0xF1C JUMPI PUSH1 0x40 MLOAD PUSH32 0x8C379A000000000000000000000000000000000000000000000000000000000 DUP2 MSTORE PUSH1 0x4 ADD PUSH2 0xF13 SWAP1 PUSH2 0x21DF JUMP JUMPDEST PUSH1 0x40 MLOAD DUP1 SWAP2 SUB SWAP1 REVERT JUMPDEST PUSH1 0x1 DUP3 DUP2 SLOAD DUP2 LT PUSH2 0xF30 JUMPI PUSH2 0xF2F PUSH2 0x1C35 JUMP JUMPDEST JUMPDEST SWAP1 PUSH1 0x0 MSTORE PUSH1 0x20 PUSH1 0x0 KECCAK256 SWAP1 PUSH1 0xC MUL ADD PUSH1 0xA ADD PUSH1 0x0 SWAP1 SLOAD SWAP1 PUSH2 0x100 EXP SWAP1 DIV PUSH20 0xFFFFFFFFFFFFFFFFFFFFFFFFFFFFFFFFFFFFFFFF AND PUSH20 0xFFFFFFFFFFFFFFFFFFFFFFFFFFFFFFFFFFFFFFFF AND DUP2 PUSH20 0xFFFFFFFFFFFFFFFFFFFFFFFFFFFFFFFFFFFFFFFF AND SUB PUSH2 0xFCF JUMPI PUSH1 0x40 MLOAD PUSH32 0x8C379A000000000000000000000000000000000000000000000000000000000 DUP2 MSTORE PUSH1 0x4 ADD PUSH2 0xFC6 SWAP1 PUSH2 0x2271 JUMP JUMPDEST PUSH1 0x40 MLOAD DUP1 SWAP2 SUB SWAP1 REVERT JUMPDEST PUSH1 0x0 DUP4 PUSH1 0x1 DUP5 DUP2 SLOAD DUP2 LT PUSH2 0xFE6 JUMPI PUSH2 0xFE5 PUSH2 0x1C35 JUMP JUMPDEST JUMPDEST SWAP1 PUSH1 0x0 MSTORE PUSH1 0x20 PUSH1 0x0 KECCAK256 SWAP1 PUSH1 0xC MUL ADD PUSH1 0x6 ADD SLOAD PUSH2 0x1002 SWAP2 SWAP1 PUSH2 0x2291 JUMP JUMPDEST SWAP1 POP PUSH1 0x0 PUSH1 0x1 DUP5 DUP2 SLOAD DUP2 LT PUSH2 0x101A JUMPI PUSH2 0x1019 PUSH2 0x1C35 JUMP JUMPDEST JUMPDEST SWAP1 PUSH1 0x0 MSTORE PUSH1 0x20 PUSH1 0x0 KECCAK256 SWAP1 PUSH1 0xC MUL ADD PUSH1 0x7 ADD PUSH1 0x0 SWAP1 SLOAD SWAP1 PUSH2 0x100 EXP SWAP1 DIV PUSH20 0xFFFFFFFFFFFFFFFFFFFFFFFFFFFFFFFFFFFFFFFF AND SWAP1 POP DUP1 PUSH20 0xFFFFFFFFFFFFFFFFFFFFFFFFFFFFFFFFFFFFFFFF AND PUSH4 0x23B872DD CALLER ADDRESS DUP6 PUSH1 0x40 MLOAD DUP5 PUSH4 0xFFFFFFFF AND PUSH1 0xE0 SHL DUP2 MSTORE PUSH1 0x4 ADD PUSH2 0x108B SWAP4 SWAP3 SWAP2 SWAP1 PUSH2 0x1ED4 JUMP JUMPDEST PUSH1 0x0 PUSH1 0x40 MLOAD DUP1 DUP4 SUB DUP2 PUSH1 0x0 DUP8 DUP1 EXTCODESIZE ISZERO DUP1 ISZERO PUSH2 0x10A5 JUMPI PUSH1 0x0 DUP1 REVERT JUMPDEST POP GAS CALL ISZERO DUP1 ISZERO PUSH2 0x10B9 JUMPI RETURNDATASIZE PUSH1 0x0 DUP1 RETURNDATACOPY RETURNDATASIZE PUSH1 0x0 REVERT JUMPDEST POP POP POP POP PUSH1 0x0 PUSH1 0x40 MLOAD DUP1 PUSH1 0x20 ADD PUSH1 0x40 MSTORE DUP1 DUP6 PUSH20 0xFFFFFFFFFFFFFFFFFFFFFFFFFFFFFFFFFFFFFFFF AND DUP2 MSTORE POP SWAP1 POP PUSH1 0x0 JUMPDEST DUP7 DUP2 LT ISZERO PUSH2 0x1186 JUMPI PUSH1 0x2 PUSH1 0x0 DUP8 DUP2 MSTORE PUSH1 0x20 ADD SWAP1 DUP2 MSTORE PUSH1 0x20 ADD PUSH1 0x0 KECCAK256 DUP3 SWAP1 DUP1 PUSH1 0x1 DUP2 SLOAD ADD DUP1 DUP3 SSTORE DUP1 SWAP2 POP POP PUSH1 0x1 SWAP1 SUB SWAP1 PUSH1 0x0 MSTORE PUSH1 0x20 PUSH1 0x0 KECCAK256 ADD PUSH1 0x0 SWAP1 SWAP2 SWAP1 SWAP2 SWAP1 SWAP2 POP PUSH1 0x0 DUP3 ADD MLOAD DUP2 PUSH1 0x0 ADD PUSH1 0x0 PUSH2 0x100 EXP DUP2 SLOAD DUP2 PUSH20 0xFFFFFFFFFFFFFFFFFFFFFFFFFFFFFFFFFFFFFFFF MUL NOT AND SWAP1 DUP4 PUSH20 0xFFFFFFFFFFFFFFFFFFFFFFFFFFFFFFFFFFFFFFFF AND MUL OR SWAP1 SSTORE POP POP POP DUP1 DUP1 PUSH2 0x117E SWAP1 PUSH2 0x22D3 JUMP JUMPDEST SWAP2 POP POP PUSH2 0x10E9 JUMP JUMPDEST POP DUP3 PUSH1 0x1 DUP7 DUP2 SLOAD DUP2 LT PUSH2 0x119C JUMPI PUSH2 0x119B PUSH2 0x1C35 JUMP JUMPDEST JUMPDEST SWAP1 PUSH1 0x0 MSTORE PUSH1 0x20 PUSH1 0x0 KECCAK256 SWAP1 PUSH1 0xC MUL ADD PUSH1 0x3 ADD PUSH1 0x0 DUP3 DUP3 SLOAD PUSH2 0x11BC SWAP2 SWAP1 PUSH2 0x231B JUMP JUMPDEST SWAP3 POP POP DUP2 SWAP1 SSTORE POP DUP6 PUSH1 0x1 DUP7 DUP2 SLOAD DUP2 LT PUSH2 0x11D8 JUMPI PUSH2 0x11D7 PUSH2 0x1C35 JUMP JUMPDEST JUMPDEST SWAP1 PUSH1 0x0 MSTORE PUSH1 0x20 PUSH1 0x0 KECCAK256 SWAP1 PUSH1 0xC MUL ADD PUSH1 0x4 ADD PUSH1 0x0 DUP3 DUP3 SLOAD PUSH2 0x11F8 SWAP2 SWAP1 PUSH2 0x1E34 JUMP JUMPDEST SWAP3 POP POP DUP2 SWAP1 SSTORE POP DUP4 PUSH20 0xFFFFFFFFFFFFFFFFFFFFFFFFFFFFFFFFFFFFFFFF AND DUP7 DUP7 PUSH32 0x1DEA0BD0E9DBEA861BFF2025A18B89BDC767204EBC6A7EBE66EC8331442387DF PUSH1 0x40 MLOAD PUSH1 0x40 MLOAD DUP1 SWAP2 SUB SWAP1 LOG4 POP POP POP POP POP POP JUMP JUMPDEST PUSH1 0x0 DUP1 SLOAD SWAP1 PUSH2 0x100 EXP SWAP1 DIV PUSH20 0xFFFFFFFFFFFFFFFFFFFFFFFFFFFFFFFFFFFFFFFF AND PUSH20 0xFFFFFFFFFFFFFFFFFFFFFFFFFFFFFFFFFFFFFFFF AND CALLER PUSH20 0xFFFFFFFFFFFFFFFFFFFFFFFFFFFFFFFFFFFFFFFF AND EQ PUSH2 0x12DA JUMPI PUSH1 0x40 MLOAD PUSH32 0x8C379A000000000000000000000000000000000000000000000000000000000 DUP2 MSTORE PUSH1 0x4 ADD PUSH2 0x12D1 SWAP1 PUSH2 0x23C1 JUMP JUMPDEST PUSH1 0x40 MLOAD DUP1 SWAP2 SUB SWAP1 REVERT JUMPDEST PUSH1 0x0 PUSH1 0x1 DUP3 DUP2 SLOAD DUP2 LT PUSH2 0x12F0 JUMPI PUSH2 0x12EF PUSH2 0x1C35 JUMP JUMPDEST JUMPDEST SWAP1 PUSH1 0x0 MSTORE PUSH1 0x20 PUSH1 0x0 KECCAK256 SWAP1 PUSH1 0xC MUL ADD SWAP1 POP PUSH1 0x0 DUP2 PUSH1 0x9 ADD PUSH1 0x0 SWAP1 SLOAD SWAP1 PUSH2 0x100 EXP SWAP1 DIV PUSH20 0xFFFFFFFFFFFFFFFFFFFFFFFFFFFFFFFFFFFFFFFF AND SWAP1 POP DUP1 PUSH20 0xFFFFFFFFFFFFFFFFFFFFFFFFFFFFFFFFFFFFFFFF AND PUSH4 0x23B872DD ADDRESS DUP5 PUSH1 0xA ADD PUSH1 0x0 SWAP1 SLOAD SWAP1 PUSH2 0x100 EXP SWAP1 DIV PUSH20 0xFFFFFFFFFFFFFFFFFFFFFFFFFFFFFFFFFFFFFFFF AND DUP6 PUSH1 0x8 ADD SLOAD PUSH1 0x40 MLOAD DUP5 PUSH4 0xFFFFFFFF AND PUSH1 0xE0 SHL DUP2 MSTORE PUSH1 0x4 ADD PUSH2 0x138E SWAP4 SWAP3 SWAP2 SWAP1 PUSH2 0x1ED4 JUMP JUMPDEST PUSH1 0x0 PUSH1 0x40 MLOAD DUP1 DUP4 SUB DUP2 PUSH1 0x0 DUP8 DUP1 EXTCODESIZE ISZERO DUP1 ISZERO PUSH2 0x13A8 JUMPI PUSH1 0x0 DUP1 REVERT JUMPDEST POP GAS CALL ISZERO DUP1 ISZERO PUSH2 0x13BC JUMPI RETURNDATASIZE PUSH1 0x0 DUP1 RETURNDATACOPY RETURNDATASIZE PUSH1 0x0 REVERT JUMPDEST POP POP POP POP PUSH1 0x1 DUP3 PUSH1 0x0 ADD PUSH1 0x0 PUSH2 0x100 EXP DUP2 SLOAD DUP2 PUSH1 0xFF MUL NOT AND SWAP1 DUP4 PUSH1 0x2 DUP2 GT ISZERO PUSH2 0x13E8 JUMPI PUSH2 0x13E7 PUSH2 0x19F8 JUMP JUMPDEST JUMPDEST MUL OR SWAP1 SSTORE POP POP POP POP JUMP JUMPDEST PUSH1 0x0 PUSH1 0x1 DUP3 PUSH2 0x1401 SWAP2 SWAP1 PUSH2 0x231B JUMP JUMPDEST TIMESTAMP CALLER DUP7 DUP7 PUSH1 0x40 MLOAD PUSH1 0x20 ADD PUSH2 0x1418 SWAP5 SWAP4 SWAP3 SWAP2 SWAP1 PUSH2 0x2489 JUMP JUMPDEST PUSH1 0x40 MLOAD PUSH1 0x20 DUP2 DUP4 SUB SUB DUP2 MSTORE SWAP1 PUSH1 0x40 MSTORE DUP1 MLOAD SWAP1 PUSH1 0x20 ADD KECCAK256 PUSH1 0x0 SHR PUSH2 0x143B SWAP2 SWAP1 PUSH2 0x24F3 JUMP JUMPDEST SWAP1 POP SWAP4 SWAP3 POP POP POP JUMP JUMPDEST PUSH1 0x0 PUSH1 0x1 DUP3 DUP2 SLOAD DUP2 LT PUSH2 0x145A JUMPI PUSH2 0x1459 PUSH2 0x1C35 JUMP JUMPDEST JUMPDEST SWAP1 PUSH1 0x0 MSTORE PUSH1 0x20 PUSH1 0x0 KECCAK256 SWAP1 PUSH1 0xC MUL ADD PUSH1 0x40 MLOAD DUP1 PUSH2 0x180 ADD PUSH1 0x40 MSTORE SWAP1 DUP2 PUSH1 0x0 DUP3 ADD PUSH1 0x0 SWAP1 SLOAD SWAP1 PUSH2 0x100 EXP SWAP1 DIV PUSH1 0xFF AND PUSH1 0x2 DUP2 GT ISZERO PUSH2 0x1499 JUMPI PUSH2 0x1498 PUSH2 0x19F8 JUMP JUMPDEST JUMPDEST PUSH1 0x2 DUP2 GT ISZERO PUSH2 0x14AB JUMPI PUSH2 0x14AA PUSH2 0x19F8 JUMP JUMPDEST JUMPDEST DUP2 MSTORE PUSH1 0x20 ADD PUSH1 0x1 DUP3 ADD SLOAD DUP2 MSTORE PUSH1 0x20 ADD PUSH1 0x2 DUP3 ADD SLOAD DUP2 MSTORE PUSH1 0x20 ADD PUSH1 0x3 DUP3 ADD SLOAD DUP2 MSTORE PUSH1 0x20 ADD PUSH1 0x4 DUP3 ADD SLOAD DUP2 MSTORE PUSH1 0x20 ADD PUSH1 0x5 DUP3 ADD SLOAD DUP2 MSTORE PUSH1 0x20 ADD PUSH1 0x6 DUP3 ADD SLOAD DUP2 MSTORE PUSH1 0x20 ADD PUSH1 0x7 DUP3 ADD PUSH1 0x0 SWAP1 SLOAD SWAP1 PUSH2 0x100 EXP SWAP1 DIV PUSH20 0xFFFFFFFFFFFFFFFFFFFFFFFFFFFFFFFFFFFFFFFF AND PUSH20 0xFFFFFFFFFFFFFFFFFFFFFFFFFFFFFFFFFFFFFFFF AND PUSH20 0xFFFFFFFFFFFFFFFFFFFFFFFFFFFFFFFFFFFFFFFF AND DUP2 MSTORE PUSH1 0x20 ADD PUSH1 0x8 DUP3 ADD SLOAD DUP2 MSTORE PUSH1 0x20 ADD PUSH1 0x9 DUP3 ADD PUSH1 0x0 SWAP1 SLOAD SWAP1 PUSH2 0x100 EXP SWAP1 DIV PUSH20 0xFFFFFFFFFFFFFFFFFFFFFFFFFFFFFFFFFFFFFFFF AND PUSH20 0xFFFFFFFFFFFFFFFFFFFFFFFFFFFFFFFFFFFFFFFF AND PUSH20 0xFFFFFFFFFFFFFFFFFFFFFFFFFFFFFFFFFFFFFFFF AND DUP2 MSTORE PUSH1 0x20 ADD PUSH1 0xA DUP3 ADD PUSH1 0x0 SWAP1 SLOAD SWAP1 PUSH2 0x100 EXP SWAP1 DIV PUSH20 0xFFFFFFFFFFFFFFFFFFFFFFFFFFFFFFFFFFFFFFFF AND PUSH20 0xFFFFFFFFFFFFFFFFFFFFFFFFFFFFFFFFFFFFFFFF AND PUSH20 0xFFFFFFFFFFFFFFFFFFFFFFFFFFFFFFFFFFFFFFFF AND DUP2 MSTORE PUSH1 0x20 ADD PUSH1 0xB DUP3 ADD PUSH1 0x0 SWAP1 SLOAD SWAP1 PUSH2 0x100 EXP SWAP1 DIV PUSH20 0xFFFFFFFFFFFFFFFFFFFFFFFFFFFFFFFFFFFFFFFF AND PUSH20 0xFFFFFFFFFFFFFFFFFFFFFFFFFFFFFFFFFFFFFFFF AND PUSH20 0xFFFFFFFFFFFFFFFFFFFFFFFFFFFFFFFFFFFFFFFF AND DUP2 MSTORE POP POP SWAP1 POP PUSH1 0x0 DUP2 PUSH1 0xE0 ADD MLOAD SWAP1 POP PUSH1 0x64 DUP3 PUSH1 0x60 ADD MLOAD PUSH2 0x1669 SWAP2 SWAP1 PUSH2 0x2524 JUMP JUMPDEST DUP3 PUSH1 0xA0 ADD DUP2 DUP2 MSTORE POP POP PUSH1 0x0 DUP3 PUSH1 0xA0 ADD MLOAD DUP4 PUSH1 0x60 ADD MLOAD PUSH2 0x1688 SWAP2 SWAP1 PUSH2 0x1E34 JUMP JUMPDEST SWAP1 POP DUP2 PUSH20 0xFFFFFFFFFFFFFFFFFFFFFFFFFFFFFFFFFFFFFFFF AND PUSH4 0xA9059CBB DUP5 PUSH2 0x140 ADD MLOAD DUP4 PUSH1 0x40 MLOAD DUP4 PUSH4 0xFFFFFFFF AND PUSH1 0xE0 SHL DUP2 MSTORE PUSH1 0x4 ADD PUSH2 0x16CA SWAP3 SWAP2 SWAP1 PUSH2 0x2555 JUMP JUMPDEST PUSH1 0x0 PUSH1 0x40 MLOAD DUP1 DUP4 SUB DUP2 PUSH1 0x0 DUP8 DUP1 EXTCODESIZE ISZERO DUP1 ISZERO PUSH2 0x16E4 JUMPI PUSH1 0x0 DUP1 REVERT JUMPDEST POP GAS CALL ISZERO DUP1 ISZERO PUSH2 0x16F8 JUMPI RETURNDATASIZE PUSH1 0x0 DUP1 RETURNDATACOPY RETURNDATASIZE PUSH1 0x0 REVERT JUMPDEST POP POP POP POP PUSH1 0x0 DUP4 PUSH2 0x120 ADD MLOAD SWAP1 POP DUP1 PUSH20 0xFFFFFFFFFFFFFFFFFFFFFFFFFFFFFFFFFFFFFFFF AND PUSH4 0x23B872DD ADDRESS DUP7 PUSH2 0x160 ADD MLOAD DUP8 PUSH2 0x100 ADD MLOAD PUSH1 0x40 MLOAD DUP5 PUSH4 0xFFFFFFFF AND PUSH1 0xE0 SHL DUP2 MSTORE PUSH1 0x4 ADD PUSH2 0x174D SWAP4 SWAP3 SWAP2 SWAP1 PUSH2 0x1ED4 JUMP JUMPDEST PUSH1 0x0 PUSH1 0x40 MLOAD DUP1 DUP4 SUB DUP2 PUSH1 0x0 DUP8 DUP1 EXTCODESIZE ISZERO DUP1 ISZERO PUSH2 0x1767 JUMPI PUSH1 0x0 DUP1 REVERT JUMPDEST POP GAS CALL ISZERO DUP1 ISZERO PUSH2 0x177B JUMPI RETURNDATASIZE PUSH1 0x0 DUP1 RETURNDATACOPY RETURNDATASIZE PUSH1 0x0 REVERT JUMPDEST POP POP POP POP POP POP POP POP POP JUMP JUMPDEST PUSH1 0x0 DUP3 SWAP1 POP DUP1 PUSH20 0xFFFFFFFFFFFFFFFFFFFFFFFFFFFFFFFFFFFFFFFF AND PUSH4 0x23B872DD DUP4 ADDRESS DUP8 PUSH1 0x40 MLOAD DUP5 PUSH4 0xFFFFFFFF AND PUSH1 0xE0 SHL DUP2 MSTORE PUSH1 0x4 ADD PUSH2 0x17C8 SWAP4 SWAP3 SWAP2 SWAP1 PUSH2 0x1ED4 JUMP JUMPDEST PUSH1 0x0 PUSH1 0x40 MLOAD DUP1 DUP4 SUB DUP2 PUSH1 0x0 DUP8 DUP1 EXTCODESIZE ISZERO DUP1 ISZERO PUSH2 0x17E2 JUMPI PUSH1 0x0 DUP1 REVERT JUMPDEST POP GAS CALL ISZERO DUP1 ISZERO PUSH2 0x17F6 JUMPI RETURNDATASIZE PUSH1 0x0 DUP1 RETURNDATACOPY RETURNDATASIZE PUSH1 0x0 REVERT JUMPDEST POP POP POP POP POP POP POP POP JUMP JUMPDEST PUSH1 0x0 DUP1 REVERT JUMPDEST PUSH1 0x0 DUP1 REVERT JUMPDEST PUSH1 0x0 DUP2 SWAP1 POP SWAP2 SWAP1 POP JUMP JUMPDEST PUSH2 0x181D DUP2 PUSH2 0x180A JUMP JUMPDEST DUP2 EQ PUSH2 0x1828 JUMPI PUSH1 0x0 DUP1 REVERT JUMPDEST POP JUMP JUMPDEST PUSH1 0x0 DUP2 CALLDATALOAD SWAP1 POP PUSH2 0x183A DUP2 PUSH2 0x1814 JUMP JUMPDEST SWAP3 SWAP2 POP POP JUMP JUMPDEST PUSH1 0x0 PUSH1 0x20 DUP3 DUP5 SUB SLT ISZERO PUSH2 0x1856 JUMPI PUSH2 0x1855 PUSH2 0x1800 JUMP JUMPDEST JUMPDEST PUSH1 0x0 PUSH2 0x1864 DUP5 DUP3 DUP6 ADD PUSH2 0x182B JUMP JUMPDEST SWAP2 POP POP SWAP3 SWAP2 POP POP JUMP JUMPDEST PUSH2 0x1876 DUP2 PUSH2 0x180A JUMP JUMPDEST DUP3 MSTORE POP POP JUMP JUMPDEST PUSH1 0x0 PUSH1 0x20 DUP3 ADD SWAP1 POP PUSH2 0x1891 PUSH1 0x0 DUP4 ADD DUP5 PUSH2 0x186D JUMP JUMPDEST SWAP3 SWAP2 POP POP JUMP JUMPDEST PUSH1 0x0 DUP1 PUSH1 0x40 DUP4 DUP6 SUB SLT ISZERO PUSH2 0x18AE JUMPI PUSH2 0x18AD PUSH2 0x1800 JUMP JUMPDEST JUMPDEST PUSH1 0x0 PUSH2 0x18BC DUP6 DUP3 DUP7 ADD PUSH2 0x182B JUMP JUMPDEST SWAP3 POP POP PUSH1 0x20 PUSH2 0x18CD DUP6 DUP3 DUP7 ADD PUSH2 0x182B JUMP JUMPDEST SWAP2 POP POP SWAP3 POP SWAP3 SWAP1 POP JUMP JUMPDEST PUSH1 0x0 PUSH20 0xFFFFFFFFFFFFFFFFFFFFFFFFFFFFFFFFFFFFFFFF DUP3 AND SWAP1 POP SWAP2 SWAP1 POP JUMP JUMPDEST PUSH1 0x0 PUSH2 0x1902 DUP3 PUSH2 0x18D7 JUMP JUMPDEST SWAP1 POP SWAP2 SWAP1 POP JUMP JUMPDEST PUSH2 0x1912 DUP2 PUSH2 0x18F7 JUMP JUMPDEST DUP3 MSTORE POP POP JUMP JUMPDEST PUSH1 0x0 PUSH1 0x20 DUP3 ADD SWAP1 POP PUSH2 0x192D PUSH1 0x0 DUP4 ADD DUP5 PUSH2 0x1909 JUMP JUMPDEST SWAP3 SWAP2 POP POP JUMP JUMPDEST PUSH1 0x0 DUP1 REVERT JUMPDEST PUSH1 0x0 DUP1 REVERT JUMPDEST PUSH1 0x0 DUP1 REVERT JUMPDEST PUSH1 0x0 DUP1 DUP4 PUSH1 0x1F DUP5 ADD SLT PUSH2 0x1958 JUMPI PUSH2 0x1957 PUSH2 0x1933 JUMP JUMPDEST JUMPDEST DUP3 CALLDATALOAD SWAP1 POP PUSH8 0xFFFFFFFFFFFFFFFF DUP2 GT ISZERO PUSH2 0x1975 JUMPI PUSH2 0x1974 PUSH2 0x1938 JUMP JUMPDEST JUMPDEST PUSH1 0x20 DUP4 ADD SWAP2 POP DUP4 PUSH1 0x1 DUP3 MUL DUP4 ADD GT ISZERO PUSH2 0x1991 JUMPI PUSH2 0x1990 PUSH2 0x193D JUMP JUMPDEST JUMPDEST SWAP3 POP SWAP3 SWAP1 POP JUMP JUMPDEST PUSH1 0x0 DUP1 PUSH1 0x0 PUSH1 0x40 DUP5 DUP7 SUB SLT ISZERO PUSH2 0x19B1 JUMPI PUSH2 0x19B0 PUSH2 0x1800 JUMP JUMPDEST JUMPDEST PUSH1 0x0 PUSH2 0x19BF DUP7 DUP3 DUP8 ADD PUSH2 0x182B JUMP JUMPDEST SWAP4 POP POP PUSH1 0x20 DUP5 ADD CALLDATALOAD PUSH8 0xFFFFFFFFFFFFFFFF DUP2 GT ISZERO PUSH2 0x19E0 JUMPI PUSH2 0x19DF PUSH2 0x1805 JUMP JUMPDEST JUMPDEST PUSH2 0x19EC DUP7 DUP3 DUP8 ADD PUSH2 0x1942 JUMP JUMPDEST SWAP3 POP SWAP3 POP POP SWAP3 POP SWAP3 POP SWAP3 JUMP JUMPDEST PUSH32 0x4E487B7100000000000000000000000000000000000000000000000000000000 PUSH1 0x0 MSTORE PUSH1 0x21 PUSH1 0x4 MSTORE PUSH1 0x24 PUSH1 0x0 REVERT JUMPDEST PUSH1 0x3 DUP2 LT PUSH2 0x1A38 JUMPI PUSH2 0x1A37 PUSH2 0x19F8 JUMP JUMPDEST JUMPDEST POP JUMP JUMPDEST PUSH1 0x0 DUP2 SWAP1 POP PUSH2 0x1A49 DUP3 PUSH2 0x1A27 JUMP JUMPDEST SWAP2 SWAP1 POP JUMP JUMPDEST PUSH1 0x0 PUSH2 0x1A59 DUP3 PUSH2 0x1A3B JUMP JUMPDEST SWAP1 POP SWAP2 SWAP1 POP JUMP JUMPDEST PUSH2 0x1A69 DUP2 PUSH2 0x1A4E JUMP JUMPDEST DUP3 MSTORE POP POP JUMP JUMPDEST PUSH1 0x0 PUSH2 0x180 DUP3 ADD SWAP1 POP PUSH2 0x1A85 PUSH1 0x0 DUP4 ADD DUP16 PUSH2 0x1A60 JUMP JUMPDEST PUSH2 0x1A92 PUSH1 0x20 DUP4 ADD DUP15 PUSH2 0x186D JUMP JUMPDEST PUSH2 0x1A9F PUSH1 0x40 DUP4 ADD DUP14 PUSH2 0x186D JUMP JUMPDEST PUSH2 0x1AAC PUSH1 0x60 DUP4 ADD DUP13 PUSH2 0x186D JUMP JUMPDEST PUSH2 0x1AB9 PUSH1 0x80 DUP4 ADD DUP12 PUSH2 0x186D JUMP JUMPDEST PUSH2 0x1AC6 PUSH1 0xA0 DUP4 ADD DUP11 PUSH2 0x186D JUMP JUMPDEST PUSH2 0x1AD3 PUSH1 0xC0 DUP4 ADD DUP10 PUSH2 0x186D JUMP JUMPDEST PUSH2 0x1AE0 PUSH1 0xE0 DUP4 ADD DUP9 PUSH2 0x1909 JUMP JUMPDEST PUSH2 0x1AEE PUSH2 0x100 DUP4 ADD DUP8 PUSH2 0x186D JUMP JUMPDEST PUSH2 0x1AFC PUSH2 0x120 DUP4 ADD DUP7 PUSH2 0x1909 JUMP JUMPDEST PUSH2 0x1B0A PUSH2 0x140 DUP4 ADD DUP6 PUSH2 0x1909 JUMP JUMPDEST PUSH2 0x1B18 PUSH2 0x160 DUP4 ADD DUP5 PUSH2 0x1909 JUMP JUMPDEST SWAP14 SWAP13 POP POP POP POP POP POP POP POP POP POP POP POP POP JUMP JUMPDEST PUSH2 0x1B32 DUP2 PUSH2 0x18F7 JUMP JUMPDEST DUP2 EQ PUSH2 0x1B3D JUMPI PUSH1 0x0 DUP1 REVERT JUMPDEST POP JUMP JUMPDEST PUSH1 0x0 DUP2 CALLDATALOAD SWAP1 POP PUSH2 0x1B4F DUP2 PUSH2 0x1B29 JUMP JUMPDEST SWAP3 SWAP2 POP POP JUMP JUMPDEST PUSH1 0x0 DUP1 PUSH1 0x0 DUP1 PUSH1 0x0 DUP1 PUSH1 0xC0 DUP8 DUP10 SUB SLT ISZERO PUSH2 0x1B72 JUMPI PUSH2 0x1B71 PUSH2 0x1800 JUMP JUMPDEST JUMPDEST PUSH1 0x0 PUSH2 0x1B80 DUP10 DUP3 DUP11 ADD PUSH2 0x182B JUMP JUMPDEST SWAP7 POP POP PUSH1 0x20 PUSH2 0x1B91 DUP10 DUP3 DUP11 ADD PUSH2 0x182B JUMP JUMPDEST SWAP6 POP POP PUSH1 0x40 PUSH2 0x1BA2 DUP10 DUP3 DUP11 ADD PUSH2 0x1B40 JUMP JUMPDEST SWAP5 POP POP PUSH1 0x60 PUSH2 0x1BB3 DUP10 DUP3 DUP11 ADD PUSH2 0x182B JUMP JUMPDEST SWAP4 POP POP PUSH1 0x80 PUSH2 0x1BC4 DUP10 DUP3 DUP11 ADD PUSH2 0x182B JUMP JUMPDEST SWAP3 POP POP PUSH1 0xA0 PUSH2 0x1BD5 DUP10 DUP3 DUP11 ADD PUSH2 0x1B40 JUMP JUMPDEST SWAP2 POP POP SWAP3 SWAP6 POP SWAP3 SWAP6 POP SWAP3 SWAP6 JUMP JUMPDEST PUSH1 0x0 DUP1 PUSH1 0x0 PUSH1 0x60 DUP5 DUP7 SUB SLT ISZERO PUSH2 0x1BFB JUMPI PUSH2 0x1BFA PUSH2 0x1800 JUMP JUMPDEST JUMPDEST PUSH1 0x0 PUSH2 0x1C09 DUP7 DUP3 DUP8 ADD PUSH2 0x182B JUMP JUMPDEST SWAP4 POP POP PUSH1 0x20 PUSH2 0x1C1A DUP7 DUP3 DUP8 ADD PUSH2 0x182B JUMP JUMPDEST SWAP3 POP POP PUSH1 0x40 PUSH2 0x1C2B DUP7 DUP3 DUP8 ADD PUSH2 0x1B40 JUMP JUMPDEST SWAP2 POP POP SWAP3 POP SWAP3 POP SWAP3 JUMP JUMPDEST PUSH32 0x4E487B7100000000000000000000000000000000000000000000000000000000 PUSH1 0x0 MSTORE PUSH1 0x32 PUSH1 0x4 MSTORE PUSH1 0x24 PUSH1 0x0 REVERT JUMPDEST PUSH1 0x0 DUP3 DUP3 MSTORE PUSH1 0x20 DUP3 ADD SWAP1 POP SWAP3 SWAP2 POP POP JUMP JUMPDEST PUSH32 0x4170656E6173206F206F776E657220706F6465207265616C697A617220612063 PUSH1 0x0 DUP3 ADD MSTORE PUSH32 0x68616D6164612064657373612066756E63616F00000000000000000000000000 PUSH1 0x20 DUP3 ADD MSTORE POP JUMP JUMPDEST PUSH1 0x0 PUSH2 0x1CD1 PUSH1 0x33 DUP4 PUSH2 0x1C64 JUMP JUMPDEST SWAP2 POP PUSH2 0x1CDC DUP3 PUSH2 0x1C75 JUMP JUMPDEST PUSH1 0x40 DUP3 ADD SWAP1 POP SWAP2 SWAP1 POP JUMP JUMPDEST PUSH1 0x0 PUSH1 0x20 DUP3 ADD SWAP1 POP DUP2 DUP2 SUB PUSH1 0x0 DUP4 ADD MSTORE PUSH2 0x1D00 DUP2 PUSH2 0x1CC4 JUMP JUMPDEST SWAP1 POP SWAP2 SWAP1 POP JUMP JUMPDEST PUSH32 0x4F20526166666C65206A6120666F692066696E616C697A61646F000000000000 PUSH1 0x0 DUP3 ADD MSTORE POP JUMP JUMPDEST PUSH1 0x0 PUSH2 0x1D3D PUSH1 0x1A DUP4 PUSH2 0x1C64 JUMP JUMPDEST SWAP2 POP PUSH2 0x1D48 DUP3 PUSH2 0x1D07 JUMP JUMPDEST PUSH1 0x20 DUP3 ADD SWAP1 POP SWAP2 SWAP1 POP JUMP JUMPDEST PUSH1 0x0 PUSH1 0x20 DUP3 ADD SWAP1 POP DUP2 DUP2 SUB PUSH1 0x0 DUP4 ADD MSTORE PUSH2 0x1D6C DUP2 PUSH2 0x1D30 JUMP JUMPDEST SWAP1 POP SWAP2 SWAP1 POP JUMP JUMPDEST PUSH32 0x5175616E746964616465206465207469636B65747320696E737566696369656E PUSH1 0x0 DUP3 ADD MSTORE PUSH32 0x7465730000000000000000000000000000000000000000000000000000000000 PUSH1 0x20 DUP3 ADD MSTORE POP JUMP JUMPDEST PUSH1 0x0 PUSH2 0x1DCF PUSH1 0x23 DUP4 PUSH2 0x1C64 JUMP JUMPDEST SWAP2 POP PUSH2 0x1DDA DUP3 PUSH2 0x1D73 JUMP JUMPDEST PUSH1 0x40 DUP3 ADD SWAP1 POP SWAP2 SWAP1 POP JUMP JUMPDEST PUSH1 0x0 PUSH1 0x20 DUP3 ADD SWAP1 POP DUP2 DUP2 SUB PUSH1 0x0 DUP4 ADD MSTORE PUSH2 0x1DFE DUP2 PUSH2 0x1DC2 JUMP JUMPDEST SWAP1 POP SWAP2 SWAP1 POP JUMP JUMPDEST PUSH32 0x4E487B7100000000000000000000000000000000000000000000000000000000 PUSH1 0x0 MSTORE PUSH1 0x11 PUSH1 0x4 MSTORE PUSH1 0x24 PUSH1 0x0 REVERT JUMPDEST PUSH1 0x0 PUSH2 0x1E3F DUP3 PUSH2 0x180A JUMP JUMPDEST SWAP2 POP PUSH2 0x1E4A DUP4 PUSH2 0x180A JUMP JUMPDEST SWAP3 POP DUP3 DUP3 SUB SWAP1 POP DUP2 DUP2 GT ISZERO PUSH2 0x1E62 JUMPI PUSH2 0x1E61 PUSH2 0x1E05 JUMP JUMPDEST JUMPDEST SWAP3 SWAP2 POP POP JUMP JUMPDEST PUSH32 0x2000000000000000000000000000000000000000000000000000000000000000 PUSH1 0x0 DUP3 ADD MSTORE POP JUMP JUMPDEST PUSH1 0x0 PUSH2 0x1E9E PUSH1 0x1 DUP4 PUSH2 0x1C64 JUMP JUMPDEST SWAP2 POP PUSH2 0x1EA9 DUP3 PUSH2 0x1E68 JUMP JUMPDEST PUSH1 0x20 DUP3 ADD SWAP1 POP SWAP2 SWAP1 POP JUMP JUMPDEST PUSH1 0x0 PUSH1 0x20 DUP3 ADD SWAP1 POP DUP2 DUP2 SUB PUSH1 0x0 DUP4 ADD MSTORE PUSH2 0x1ECD DUP2 PUSH2 0x1E91 JUMP JUMPDEST SWAP1 POP SWAP2 SWAP1 POP JUMP JUMPDEST PUSH1 0x0 PUSH1 0x60 DUP3 ADD SWAP1 POP PUSH2 0x1EE9 PUSH1 0x0 DUP4 ADD DUP7 PUSH2 0x1909 JUMP JUMPDEST PUSH2 0x1EF6 PUSH1 0x20 DUP4 ADD DUP6 PUSH2 0x1909 JUMP JUMPDEST PUSH2 0x1F03 PUSH1 0x40 DUP4 ADD DUP5 PUSH2 0x186D JUMP JUMPDEST SWAP5 SWAP4 POP POP POP POP JUMP JUMPDEST PUSH32 0x2041200000000000000000000000000000000000000000000000000000000000 PUSH1 0x0 DUP3 ADD MSTORE POP JUMP JUMPDEST PUSH1 0x0 PUSH2 0x1F41 PUSH1 0x3 DUP4 PUSH2 0x1C64 JUMP JUMPDEST SWAP2 POP PUSH2 0x1F4C DUP3 PUSH2 0x1F0B JUMP JUMPDEST PUSH1 0x20 DUP3 ADD SWAP1 POP SWAP2 SWAP1 POP JUMP JUMPDEST PUSH1 0x0 PUSH1 0x20 DUP3 ADD SWAP1 POP DUP2 DUP2 SUB PUSH1 0x0 DUP4 ADD MSTORE PUSH2 0x1F70 DUP2 PUSH2 0x1F34 JUMP JUMPDEST SWAP1 POP SWAP2 SWAP1 POP JUMP JUMPDEST PUSH32 0x2042200000000000000000000000000000000000000000000000000000000000 PUSH1 0x0 DUP3 ADD MSTORE POP JUMP JUMPDEST PUSH1 0x0 PUSH2 0x1FAD PUSH1 0x3 DUP4 PUSH2 0x1C64 JUMP JUMPDEST SWAP2 POP PUSH2 0x1FB8 DUP3 PUSH2 0x1F77 JUMP JUMPDEST PUSH1 0x20 DUP3 ADD SWAP1 POP SWAP2 SWAP1 POP JUMP JUMPDEST PUSH1 0x0 PUSH1 0x20 DUP3 ADD SWAP1 POP DUP2 DUP2 SUB PUSH1 0x0 DUP4 ADD MSTORE PUSH2 0x1FDC DUP2 PUSH2 0x1FA0 JUMP JUMPDEST SWAP1 POP SWAP2 SWAP1 POP JUMP JUMPDEST PUSH32 0x2043200000000000000000000000000000000000000000000000000000000000 PUSH1 0x0 DUP3 ADD MSTORE POP JUMP JUMPDEST PUSH1 0x0 PUSH2 0x2019 PUSH1 0x3 DUP4 PUSH2 0x1C64 JUMP JUMPDEST SWAP2 POP PUSH2 0x2024 DUP3 PUSH2 0x1FE3 JUMP JUMPDEST PUSH1 0x20 DUP3 ADD SWAP1 POP SWAP2 SWAP1 POP JUMP JUMPDEST PUSH1 0x0 PUSH1 0x20 DUP3 ADD SWAP1 POP DUP2 DUP2 SUB PUSH1 0x0 DUP4 ADD MSTORE PUSH2 0x2048 DUP2 PUSH2 0x200C JUMP JUMPDEST SWAP1 POP SWAP2 SWAP1 POP JUMP JUMPDEST PUSH32 0x2044200000000000000000000000000000000000000000000000000000000000 PUSH1 0x0 DUP3 ADD MSTORE POP JUMP JUMPDEST PUSH1 0x0 PUSH2 0x2085 PUSH1 0x3 DUP4 PUSH2 0x1C64 JUMP JUMPDEST SWAP2 POP PUSH2 0x2090 DUP3 PUSH2 0x204F JUMP JUMPDEST PUSH1 0x20 DUP3 ADD SWAP1 POP SWAP2 SWAP1 POP JUMP JUMPDEST PUSH1 0x0 PUSH1 0x20 DUP3 ADD SWAP1 POP DUP2 DUP2 SUB PUSH1 0x0 DUP4 ADD MSTORE PUSH2 0x20B4 DUP2 PUSH2 0x2078 JUMP JUMPDEST SWAP1 POP SWAP2 SWAP1 POP JUMP JUMPDEST PUSH32 0x2045200000000000000000000000000000000000000000000000000000000000 PUSH1 0x0 DUP3 ADD MSTORE POP JUMP JUMPDEST PUSH1 0x0 PUSH2 0x20F1 PUSH1 0x3 DUP4 PUSH2 0x1C64 JUMP JUMPDEST SWAP2 POP PUSH2 0x20FC DUP3 PUSH2 0x20BB JUMP JUMPDEST PUSH1 0x20 DUP3 ADD SWAP1 POP SWAP2 SWAP1 POP JUMP JUMPDEST PUSH1 0x0 PUSH1 0x20 DUP3 ADD SWAP1 POP DUP2 DUP2 SUB PUSH1 0x0 DUP4 ADD MSTORE PUSH2 0x2120 DUP2 PUSH2 0x20E4 JUMP JUMPDEST SWAP1 POP SWAP2 SWAP1 POP JUMP JUMPDEST PUSH32 0x2046200000000000000000000000000000000000000000000000000000000000 PUSH1 0x0 DUP3 ADD MSTORE POP JUMP JUMPDEST PUSH1 0x0 PUSH2 0x215D PUSH1 0x3 DUP4 PUSH2 0x1C64 JUMP JUMPDEST SWAP2 POP PUSH2 0x2168 DUP3 PUSH2 0x2127 JUMP JUMPDEST PUSH1 0x20 DUP3 ADD SWAP1 POP SWAP2 SWAP1 POP JUMP JUMPDEST PUSH1 0x0 PUSH1 0x20 DUP3 ADD SWAP1 POP DUP2 DUP2 SUB PUSH1 0x0 DUP4 ADD MSTORE PUSH2 0x218C DUP2 PUSH2 0x2150 JUMP JUMPDEST SWAP1 POP SWAP2 SWAP1 POP JUMP JUMPDEST PUSH32 0x71746420696E646973706F6E6976656C00000000000000000000000000000000 PUSH1 0x0 DUP3 ADD MSTORE POP JUMP JUMPDEST PUSH1 0x0 PUSH2 0x21C9 PUSH1 0x10 DUP4 PUSH2 0x1C64 JUMP JUMPDEST SWAP2 POP PUSH2 0x21D4 DUP3 PUSH2 0x2193 JUMP JUMPDEST PUSH1 0x20 DUP3 ADD SWAP1 POP SWAP2 SWAP1 POP JUMP JUMPDEST PUSH1 0x0 PUSH1 0x20 DUP3 ADD SWAP1 POP DUP2 DUP2 SUB PUSH1 0x0 DUP4 ADD MSTORE PUSH2 0x21F8 DUP2 PUSH2 0x21BC JUMP JUMPDEST SWAP1 POP SWAP2 SWAP1 POP JUMP JUMPDEST PUSH32 0x4F2073656C6C6572206E616F20706F646520636F6D7072617220656E74726164 PUSH1 0x0 DUP3 ADD MSTORE PUSH32 0x617320646F2070726F7072696F20736F727465696F0000000000000000000000 PUSH1 0x20 DUP3 ADD MSTORE POP JUMP JUMPDEST PUSH1 0x0 PUSH2 0x225B PUSH1 0x35 DUP4 PUSH2 0x1C64 JUMP JUMPDEST SWAP2 POP PUSH2 0x2266 DUP3 PUSH2 0x21FF JUMP JUMPDEST PUSH1 0x40 DUP3 ADD SWAP1 POP SWAP2 SWAP1 POP JUMP JUMPDEST PUSH1 0x0 PUSH1 0x20 DUP3 ADD SWAP1 POP DUP2 DUP2 SUB PUSH1 0x0 DUP4 ADD MSTORE PUSH2 0x228A DUP2 PUSH2 0x224E JUMP JUMPDEST SWAP1 POP SWAP2 SWAP1 POP JUMP JUMPDEST PUSH1 0x0 PUSH2 0x229C DUP3 PUSH2 0x180A JUMP JUMPDEST SWAP2 POP PUSH2 0x22A7 DUP4 PUSH2 0x180A JUMP JUMPDEST SWAP3 POP DUP3 DUP3 MUL PUSH2 0x22B5 DUP2 PUSH2 0x180A JUMP JUMPDEST SWAP2 POP DUP3 DUP3 DIV DUP5 EQ DUP4 ISZERO OR PUSH2 0x22CC JUMPI PUSH2 0x22CB PUSH2 0x1E05 JUMP JUMPDEST JUMPDEST POP SWAP3 SWAP2 POP POP JUMP JUMPDEST PUSH1 0x0 PUSH2 0x22DE DUP3 PUSH2 0x180A JUMP JUMPDEST SWAP2 POP PUSH32 0xFFFFFFFFFFFFFFFFFFFFFFFFFFFFFFFFFFFFFFFFFFFFFFFFFFFFFFFFFFFFFFFF DUP3 SUB PUSH2 0x2310 JUMPI PUSH2 0x230F PUSH2 0x1E05 JUMP JUMPDEST JUMPDEST PUSH1 0x1 DUP3 ADD SWAP1 POP SWAP2 SWAP1 POP JUMP JUMPDEST PUSH1 0x0 PUSH2 0x2326 DUP3 PUSH2 0x180A JUMP JUMPDEST SWAP2 POP PUSH2 0x2331 DUP4 PUSH2 0x180A JUMP JUMPDEST SWAP3 POP DUP3 DUP3 ADD SWAP1 POP DUP1 DUP3 GT ISZERO PUSH2 0x2349 JUMPI PUSH2 0x2348 PUSH2 0x1E05 JUMP JUMPDEST JUMPDEST SWAP3 SWAP2 POP POP JUMP JUMPDEST PUSH32 0x4170656E6173206F206F776E657220706F6465207265616C697A617220612064 PUSH1 0x0 DUP3 ADD MSTORE PUSH32 0x65766F6C7563616F000000000000000000000000000000000000000000000000 PUSH1 0x20 DUP3 ADD MSTORE POP JUMP JUMPDEST PUSH1 0x0 PUSH2 0x23AB PUSH1 0x28 DUP4 PUSH2 0x1C64 JUMP JUMPDEST SWAP2 POP PUSH2 0x23B6 DUP3 PUSH2 0x234F JUMP JUMPDEST PUSH1 0x40 DUP3 ADD SWAP1 POP SWAP2 SWAP1 POP JUMP JUMPDEST PUSH1 0x0 PUSH1 0x20 DUP3 ADD SWAP1 POP DUP2 DUP2 SUB PUSH1 0x0 DUP4 ADD MSTORE PUSH2 0x23DA DUP2 PUSH2 0x239E JUMP JUMPDEST SWAP1 POP SWAP2 SWAP1 POP JUMP JUMPDEST PUSH1 0x0 DUP2 SWAP1 POP SWAP2 SWAP1 POP JUMP JUMPDEST PUSH2 0x23FC PUSH2 0x23F7 DUP3 PUSH2 0x180A JUMP JUMPDEST PUSH2 0x23E1 JUMP JUMPDEST DUP3 MSTORE POP POP JUMP JUMPDEST PUSH1 0x0 DUP2 PUSH1 0x60 SHL SWAP1 POP SWAP2 SWAP1 POP JUMP JUMPDEST PUSH1 0x0 PUSH2 0x241A DUP3 PUSH2 0x2402 JUMP JUMPDEST SWAP1 POP SWAP2 SWAP1 POP JUMP JUMPDEST PUSH1 0x0 PUSH2 0x242C DUP3 PUSH2 0x240F JUMP JUMPDEST SWAP1 POP SWAP2 SWAP1 POP JUMP JUMPDEST PUSH2 0x2444 PUSH2 0x243F DUP3 PUSH2 0x18F7 JUMP JUMPDEST PUSH2 0x2421 JUMP JUMPDEST DUP3 MSTORE POP POP JUMP JUMPDEST PUSH1 0x0 DUP2 SWAP1 POP SWAP3 SWAP2 POP POP JUMP JUMPDEST DUP3 DUP2 DUP4 CALLDATACOPY PUSH1 0x0 DUP4 DUP4 ADD MSTORE POP POP POP JUMP JUMPDEST PUSH1 0x0 PUSH2 0x2470 DUP4 DUP6 PUSH2 0x244A JUMP JUMPDEST SWAP4 POP PUSH2 0x247D DUP4 DUP6 DUP5 PUSH2 0x2455 JUMP JUMPDEST DUP3 DUP5 ADD SWAP1 POP SWAP4 SWAP3 POP POP POP JUMP JUMPDEST PUSH1 0x0 PUSH2 0x2495 DUP3 DUP8 PUSH2 0x23EB JUMP JUMPDEST PUSH1 0x20 DUP3 ADD SWAP2 POP PUSH2 0x24A5 DUP3 DUP7 PUSH2 0x2433 JUMP JUMPDEST PUSH1 0x14 DUP3 ADD SWAP2 POP PUSH2 0x24B6 DUP3 DUP5 DUP7 PUSH2 0x2464 JUMP JUMPDEST SWAP2 POP DUP2 SWAP1 POP SWAP6 SWAP5 POP POP POP POP POP JUMP JUMPDEST PUSH32 0x4E487B7100000000000000000000000000000000000000000000000000000000 PUSH1 0x0 MSTORE PUSH1 0x12 PUSH1 0x4 MSTORE PUSH1 0x24 PUSH1 0x0 REVERT JUMPDEST PUSH1 0x0 PUSH2 0x24FE DUP3 PUSH2 0x180A JUMP JUMPDEST SWAP2 POP PUSH2 0x2509 DUP4 PUSH2 0x180A JUMP JUMPDEST SWAP3 POP DUP3 PUSH2 0x2519 JUMPI PUSH2 0x2518 PUSH2 0x24C4 JUMP JUMPDEST JUMPDEST DUP3 DUP3 MOD SWAP1 POP SWAP3 SWAP2 POP POP JUMP JUMPDEST PUSH1 0x0 PUSH2 0x252F DUP3 PUSH2 0x180A JUMP JUMPDEST SWAP2 POP PUSH2 0x253A DUP4 PUSH2 0x180A JUMP JUMPDEST SWAP3 POP DUP3 PUSH2 0x254A JUMPI PUSH2 0x2549 PUSH2 0x24C4 JUMP JUMPDEST JUMPDEST DUP3 DUP3 DIV SWAP1 POP SWAP3 SWAP2 POP POP JUMP JUMPDEST PUSH1 0x0 PUSH1 0x40 DUP3 ADD SWAP1 POP PUSH2 0x256A PUSH1 0x0 DUP4 ADD DUP6 PUSH2 0x1909 JUMP JUMPDEST PUSH2 0x2577 PUSH1 0x20 DUP4 ADD DUP5 PUSH2 0x186D JUMP JUMPDEST SWAP4 SWAP3 POP POP POP JUMP INVALID LOG2 PUSH5 0x6970667358 0x22 SLT KECCAK256 0xAE 0xD7 0xAD 0xF7 DUP14 0xD6 ORIGIN SGT PUSH19 0xDA14567336E558782D36F2893C2867A030CE1 0x26 0xC1 0xB7 GAS PUSH5 0x736F6C6343 STOP ADDMOD GT STOP CALLER "
				},
				"gasEstimates": {
					"creation": {
						"codeDepositCost": "1930400",
						"executionCost": "26307",
						"totalCost": "1956707"
					},
					"external": {
						"buyTickets(uint256,uint256,address)": "infinite",
						"cancelRaffle(uint256)": "infinite",
						"createRaffle(uint256,uint256,address,uint256,uint256,address)": "infinite",
						"devolution(uint256)": "infinite",
						"entries(uint256,uint256)": "infinite",
						"getQtdDisponivel(uint256)": "infinite",
						"owner()": "2555",
						"raffles(uint256)": "infinite",
						"sortearWinner(uint256,string)": "infinite"
					},
					"internal": {
						"gerarNumero(string calldata,uint256)": "infinite",
						"sendTokenAndNFT(uint256)": "infinite",
						"transferNFT(uint256,address,address)": "infinite"
					}
				},
				"methodIdentifiers": {
					"buyTickets(uint256,uint256,address)": "a792813c",
					"cancelRaffle(uint256)": "5fba3171",
					"createRaffle(uint256,uint256,address,uint256,uint256,address)": "66a76642",
					"devolution(uint256)": "f6ce4bc5",
					"entries(uint256,uint256)": "17b937e6",
					"getQtdDisponivel(uint256)": "0b0cfcd4",
					"owner()": "8da5cb5b",
					"raffles(uint256)": "5d4bc0ce",
					"sortearWinner(uint256,string)": "5a9365e4"
				}
			},
			"storageLayout": {
				"storage": [
					{
						"astId": 101,
						"contract": "contracts/MagicTickets/MagicTicketsNFT.sol:MagicNFT",
						"label": "owner",
						"offset": 0,
						"slot": "0",
						"type": "t_address"
					},
					{
						"astId": 168,
						"contract": "contracts/MagicTickets/MagicTicketsNFT.sol:MagicNFT",
						"label": "raffles",
						"offset": 0,
						"slot": "1",
						"type": "t_array(t_struct(RaffleStruct)164_storage)dyn_storage"
					},
					{
						"astId": 177,
						"contract": "contracts/MagicTickets/MagicTicketsNFT.sol:MagicNFT",
						"label": "entries",
						"offset": 0,
						"slot": "2",
						"type": "t_mapping(t_uint256,t_array(t_struct(Entry)171_storage)dyn_storage)"
					}
				],
				"types": {
					"t_address": {
						"encoding": "inplace",
						"label": "address",
						"numberOfBytes": "20"
					},
					"t_array(t_struct(Entry)171_storage)dyn_storage": {
						"base": "t_struct(Entry)171_storage",
						"encoding": "dynamic_array",
						"label": "struct MagicNFT.Entry[]",
						"numberOfBytes": "32"
					},
					"t_array(t_struct(RaffleStruct)164_storage)dyn_storage": {
						"base": "t_struct(RaffleStruct)164_storage",
						"encoding": "dynamic_array",
						"label": "struct MagicNFT.RaffleStruct[]",
						"numberOfBytes": "32"
					},
					"t_enum(STATUS)114": {
						"encoding": "inplace",
						"label": "enum MagicNFT.STATUS",
						"numberOfBytes": "1"
					},
					"t_mapping(t_uint256,t_array(t_struct(Entry)171_storage)dyn_storage)": {
						"encoding": "mapping",
						"key": "t_uint256",
						"label": "mapping(uint256 => struct MagicNFT.Entry[])",
						"numberOfBytes": "32",
						"value": "t_array(t_struct(Entry)171_storage)dyn_storage"
					},
					"t_struct(Entry)171_storage": {
						"encoding": "inplace",
						"label": "struct MagicNFT.Entry",
						"members": [
							{
								"astId": 170,
								"contract": "contracts/MagicTickets/MagicTicketsNFT.sol:MagicNFT",
								"label": "player",
								"offset": 0,
								"slot": "0",
								"type": "t_address"
							}
						],
						"numberOfBytes": "32"
					},
					"t_struct(RaffleStruct)164_storage": {
						"encoding": "inplace",
						"label": "struct MagicNFT.RaffleStruct",
						"members": [
							{
								"astId": 141,
								"contract": "contracts/MagicTickets/MagicTicketsNFT.sol:MagicNFT",
								"label": "status",
								"offset": 0,
								"slot": "0",
								"type": "t_enum(STATUS)114"
							},
							{
								"astId": 143,
								"contract": "contracts/MagicTickets/MagicTicketsNFT.sol:MagicNFT",
								"label": "maxEntries",
								"offset": 0,
								"slot": "1",
								"type": "t_uint256"
							},
							{
								"astId": 145,
								"contract": "contracts/MagicTickets/MagicTicketsNFT.sol:MagicNFT",
								"label": "minTickets",
								"offset": 0,
								"slot": "2",
								"type": "t_uint256"
							},
							{
								"astId": 147,
								"contract": "contracts/MagicTickets/MagicTicketsNFT.sol:MagicNFT",
								"label": "amountRaised",
								"offset": 0,
								"slot": "3",
								"type": "t_uint256"
							},
							{
								"astId": 149,
								"contract": "contracts/MagicTickets/MagicTicketsNFT.sol:MagicNFT",
								"label": "qtdAvailable",
								"offset": 0,
								"slot": "4",
								"type": "t_uint256"
							},
							{
								"astId": 151,
								"contract": "contracts/MagicTickets/MagicTicketsNFT.sol:MagicNFT",
								"label": "sitePercentage",
								"offset": 0,
								"slot": "5",
								"type": "t_uint256"
							},
							{
								"astId": 153,
								"contract": "contracts/MagicTickets/MagicTicketsNFT.sol:MagicNFT",
								"label": "ticketValue",
								"offset": 0,
								"slot": "6",
								"type": "t_uint256"
							},
							{
								"astId": 155,
								"contract": "contracts/MagicTickets/MagicTicketsNFT.sol:MagicNFT",
								"label": "tokenReceived",
								"offset": 0,
								"slot": "7",
								"type": "t_address"
							},
							{
								"astId": 157,
								"contract": "contracts/MagicTickets/MagicTicketsNFT.sol:MagicNFT",
								"label": "tokenNFT",
								"offset": 0,
								"slot": "8",
								"type": "t_uint256"
							},
							{
								"astId": 159,
								"contract": "contracts/MagicTickets/MagicTicketsNFT.sol:MagicNFT",
								"label": "tokenContract",
								"offset": 0,
								"slot": "9",
								"type": "t_address"
							},
							{
								"astId": 161,
								"contract": "contracts/MagicTickets/MagicTicketsNFT.sol:MagicNFT",
								"label": "seller",
								"offset": 0,
								"slot": "10",
								"type": "t_address"
							},
							{
								"astId": 163,
								"contract": "contracts/MagicTickets/MagicTicketsNFT.sol:MagicNFT",
								"label": "winner",
								"offset": 0,
								"slot": "11",
								"type": "t_address"
							}
						],
						"numberOfBytes": "384"
					},
					"t_uint256": {
						"encoding": "inplace",
						"label": "uint256",
						"numberOfBytes": "32"
					}
				}
			},
			"userdoc": {
				"kind": "user",
				"methods": {},
				"version": 1
			}
		}
	}
}